{
  "_format": "hh-sol-artifact-1",
  "contractName": "OneToOnePrediction",
  "sourceName": "contracts/OneToOnePrediction.sol",
  "abi": [
    {
      "inputs": [],
      "stateMutability": "nonpayable",
      "type": "constructor"
    },
    {
      "anonymous": false,
      "inputs": [
        {
          "indexed": false,
          "internalType": "address",
          "name": "previousAdmin",
          "type": "address"
        },
        {
          "indexed": false,
          "internalType": "address",
          "name": "newAdmin",
          "type": "address"
        }
      ],
      "name": "AdminChanged",
      "type": "event"
    },
    {
      "anonymous": false,
      "inputs": [
        {
          "indexed": true,
          "internalType": "address",
          "name": "beacon",
          "type": "address"
        }
      ],
      "name": "BeaconUpgraded",
      "type": "event"
    },
    {
      "anonymous": false,
      "inputs": [
        {
          "indexed": true,
          "internalType": "uint256",
          "name": "predictionId",
          "type": "uint256"
        },
        {
          "indexed": true,
          "internalType": "address",
          "name": "claimant",
          "type": "address"
        },
        {
          "indexed": false,
          "internalType": "string",
          "name": "evidence",
          "type": "string"
        },
        {
          "indexed": false,
          "internalType": "bool",
          "name": "isUserClaim",
          "type": "bool"
        }
      ],
      "name": "ClaimSubmitted",
      "type": "event"
    },
    {
      "anonymous": false,
      "inputs": [
        {
          "indexed": false,
          "internalType": "uint8",
          "name": "version",
          "type": "uint8"
        }
      ],
      "name": "Initialized",
      "type": "event"
    },
    {
      "anonymous": false,
      "inputs": [
        {
          "indexed": true,
          "internalType": "address",
          "name": "previousOwner",
          "type": "address"
        },
        {
          "indexed": true,
          "internalType": "address",
          "name": "newOwner",
          "type": "address"
        }
      ],
      "name": "OwnershipTransferred",
      "type": "event"
    },
    {
      "anonymous": false,
      "inputs": [
        {
          "indexed": true,
          "internalType": "uint256",
          "name": "predictionId",
          "type": "uint256"
        },
        {
          "indexed": true,
          "internalType": "address",
          "name": "user",
          "type": "address"
        },
        {
          "indexed": true,
          "internalType": "address",
          "name": "astrologer",
          "type": "address"
        },
        {
          "indexed": false,
          "internalType": "string",
          "name": "question",
          "type": "string"
        },
        {
          "indexed": false,
          "internalType": "uint256",
          "name": "stakeAmount",
          "type": "uint256"
        },
        {
          "indexed": false,
          "internalType": "uint256",
          "name": "deadline",
          "type": "uint256"
        }
      ],
      "name": "PredictionCreated",
      "type": "event"
    },
    {
      "anonymous": false,
      "inputs": [
        {
          "indexed": true,
          "internalType": "uint256",
          "name": "predictionId",
          "type": "uint256"
        },
        {
          "indexed": true,
          "internalType": "address",
          "name": "astrologer",
          "type": "address"
        },
        {
          "indexed": false,
          "internalType": "string",
          "name": "prediction",
          "type": "string"
        }
      ],
      "name": "PredictionMade",
      "type": "event"
    },
    {
      "anonymous": false,
      "inputs": [
        {
          "indexed": true,
          "internalType": "uint256",
          "name": "predictionId",
          "type": "uint256"
        },
        {
          "indexed": false,
          "internalType": "bool",
          "name": "outcome",
          "type": "bool"
        },
        {
          "indexed": false,
          "internalType": "address",
          "name": "winner",
          "type": "address"
        }
      ],
      "name": "PredictionResolved",
      "type": "event"
    },
    {
      "anonymous": false,
      "inputs": [
        {
          "indexed": true,
          "internalType": "uint256",
          "name": "predictionId",
          "type": "uint256"
        },
        {
          "indexed": true,
          "internalType": "address",
          "name": "claimant",
          "type": "address"
        },
        {
          "indexed": false,
          "internalType": "uint256",
          "name": "amount",
          "type": "uint256"
        }
      ],
      "name": "RewardClaimed",
      "type": "event"
    },
    {
      "anonymous": false,
      "inputs": [
        {
          "indexed": true,
          "internalType": "address",
          "name": "implementation",
          "type": "address"
        }
      ],
      "name": "Upgraded",
      "type": "event"
    },
    {
      "inputs": [],
      "name": "astrologerManager",
      "outputs": [
        {
          "internalType": "address",
          "name": "",
          "type": "address"
        }
      ],
      "stateMutability": "view",
      "type": "function"
    },
    {
      "inputs": [
        {
          "internalType": "address",
          "name": "",
          "type": "address"
        },
        {
          "internalType": "uint256",
          "name": "",
          "type": "uint256"
        }
      ],
      "name": "astrologerPredictions",
      "outputs": [
        {
          "internalType": "uint256",
          "name": "",
          "type": "uint256"
        }
      ],
      "stateMutability": "view",
      "type": "function"
    },
    {
      "inputs": [
        {
          "internalType": "uint256",
          "name": "_predictionId",
          "type": "uint256"
        },
        {
          "internalType": "address",
          "name": "_claimant",
          "type": "address"
        }
      ],
      "name": "calculateReward",
      "outputs": [
        {
          "internalType": "uint256",
          "name": "",
          "type": "uint256"
        }
      ],
      "stateMutability": "view",
      "type": "function"
    },
    {
      "inputs": [
        {
          "internalType": "uint256",
          "name": "_predictionId",
          "type": "uint256"
        }
      ],
      "name": "claimReward",
      "outputs": [],
      "stateMutability": "nonpayable",
      "type": "function"
    },
    {
      "inputs": [],
      "name": "claimWindow",
      "outputs": [
        {
          "internalType": "uint256",
          "name": "",
          "type": "uint256"
        }
      ],
      "stateMutability": "view",
      "type": "function"
    },
    {
      "inputs": [
        {
          "internalType": "uint256",
          "name": "",
          "type": "uint256"
        },
        {
          "internalType": "uint256",
          "name": "",
          "type": "uint256"
        }
      ],
      "name": "claims",
      "outputs": [
        {
          "internalType": "address",
          "name": "claimant",
          "type": "address"
        },
        {
          "internalType": "string",
          "name": "evidence",
          "type": "string"
        },
        {
          "internalType": "bool",
          "name": "isUserClaim",
          "type": "bool"
        },
        {
          "internalType": "uint256",
          "name": "submittedAt",
          "type": "uint256"
        }
      ],
      "stateMutability": "view",
      "type": "function"
    },
    {
      "inputs": [
        {
          "internalType": "address",
          "name": "_astrologer",
          "type": "address"
        },
        {
          "internalType": "string",
          "name": "_question",
          "type": "string"
        },
        {
          "internalType": "uint256",
          "name": "_deadline",
          "type": "uint256"
        }
      ],
      "name": "createPrediction",
      "outputs": [
        {
          "internalType": "uint256",
          "name": "",
          "type": "uint256"
        }
      ],
      "stateMutability": "payable",
      "type": "function"
    },
    {
      "inputs": [],
      "name": "getActivePredictions",
      "outputs": [
        {
          "internalType": "uint256[]",
          "name": "",
          "type": "uint256[]"
        }
      ],
      "stateMutability": "view",
      "type": "function"
    },
    {
      "inputs": [
        {
          "internalType": "address",
          "name": "_astrologer",
          "type": "address"
        }
      ],
      "name": "getAstrologerPredictions",
      "outputs": [
        {
          "internalType": "uint256[]",
          "name": "",
          "type": "uint256[]"
        }
      ],
      "stateMutability": "view",
      "type": "function"
    },
    {
      "inputs": [
        {
          "internalType": "uint256",
          "name": "_predictionId",
          "type": "uint256"
        }
      ],
      "name": "getClaims",
      "outputs": [
        {
          "components": [
            {
              "internalType": "address",
              "name": "claimant",
              "type": "address"
            },
            {
              "internalType": "string",
              "name": "evidence",
              "type": "string"
            },
            {
              "internalType": "bool",
              "name": "isUserClaim",
              "type": "bool"
            },
            {
              "internalType": "uint256",
              "name": "submittedAt",
              "type": "uint256"
            }
          ],
          "internalType": "struct OneToOnePrediction.Claim[]",
          "name": "",
          "type": "tuple[]"
        }
      ],
      "stateMutability": "view",
      "type": "function"
    },
    {
      "inputs": [
        {
          "internalType": "uint256",
          "name": "_predictionId",
          "type": "uint256"
        }
      ],
      "name": "getPrediction",
      "outputs": [
        {
          "components": [
            {
              "internalType": "uint256",
              "name": "id",
              "type": "uint256"
            },
            {
              "internalType": "address",
              "name": "user",
              "type": "address"
            },
            {
              "internalType": "address",
              "name": "astrologer",
              "type": "address"
            },
            {
              "internalType": "string",
              "name": "question",
              "type": "string"
            },
            {
              "internalType": "string",
              "name": "prediction",
              "type": "string"
            },
            {
              "internalType": "uint256",
              "name": "stakeAmount",
              "type": "uint256"
            },
            {
              "internalType": "uint256",
              "name": "deadline",
              "type": "uint256"
            },
            {
              "internalType": "bool",
              "name": "isResolved",
              "type": "bool"
            },
            {
              "internalType": "bool",
              "name": "outcome",
              "type": "bool"
            },
            {
              "internalType": "bool",
              "name": "userClaimed",
              "type": "bool"
            },
            {
              "internalType": "bool",
              "name": "astrologerClaimed",
              "type": "bool"
            },
            {
              "internalType": "uint256",
              "name": "createdAt",
              "type": "uint256"
            }
          ],
          "internalType": "struct OneToOnePrediction.Prediction",
          "name": "",
          "type": "tuple"
        }
      ],
      "stateMutability": "view",
      "type": "function"
    },
    {
      "inputs": [
        {
          "internalType": "address",
          "name": "_user",
          "type": "address"
        }
      ],
      "name": "getUserPredictions",
      "outputs": [
        {
          "internalType": "uint256[]",
          "name": "",
          "type": "uint256[]"
        }
      ],
      "stateMutability": "view",
      "type": "function"
    },
    {
      "inputs": [
        {
          "internalType": "address",
          "name": "_user",
          "type": "address"
        }
      ],
      "name": "getUserStats",
      "outputs": [
        {
          "components": [
            {
              "internalType": "uint256",
              "name": "totalPredictions",
              "type": "uint256"
            },
            {
              "internalType": "uint256",
              "name": "correctPredictions",
              "type": "uint256"
            },
            {
              "internalType": "uint256",
              "name": "totalStaked",
              "type": "uint256"
            },
            {
              "internalType": "uint256",
              "name": "totalEarnings",
              "type": "uint256"
            }
          ],
          "internalType": "struct OneToOnePrediction.UserStats",
          "name": "",
          "type": "tuple"
        }
      ],
      "stateMutability": "view",
      "type": "function"
    },
    {
      "inputs": [
        {
          "internalType": "address",
          "name": "_predictionCredibilityManager",
          "type": "address"
        },
        {
          "internalType": "address",
          "name": "_reputationScorer",
          "type": "address"
        },
        {
          "internalType": "address",
          "name": "_astrologerManager",
          "type": "address"
        },
        {
          "internalType": "uint256",
          "name": "_minStakeAmount",
          "type": "uint256"
        },
        {
          "internalType": "uint256",
          "name": "_maxStakeAmount",
          "type": "uint256"
        }
      ],
      "name": "initialize",
      "outputs": [],
      "stateMutability": "nonpayable",
      "type": "function"
    },
    {
      "inputs": [
        {
          "internalType": "uint256",
          "name": "_predictionId",
          "type": "uint256"
        },
        {
          "internalType": "string",
          "name": "_prediction",
          "type": "string"
        }
      ],
      "name": "makePrediction",
      "outputs": [],
      "stateMutability": "nonpayable",
      "type": "function"
    },
    {
      "inputs": [],
      "name": "maxStakeAmount",
      "outputs": [
        {
          "internalType": "uint256",
          "name": "",
          "type": "uint256"
        }
      ],
      "stateMutability": "view",
      "type": "function"
    },
    {
      "inputs": [],
      "name": "minStakeAmount",
      "outputs": [
        {
          "internalType": "uint256",
          "name": "",
          "type": "uint256"
        }
      ],
      "stateMutability": "view",
      "type": "function"
    },
    {
      "inputs": [],
      "name": "owner",
      "outputs": [
        {
          "internalType": "address",
          "name": "",
          "type": "address"
        }
      ],
      "stateMutability": "view",
      "type": "function"
    },
    {
      "inputs": [],
      "name": "predictionCredibilityManager",
      "outputs": [
        {
          "internalType": "address",
          "name": "",
          "type": "address"
        }
      ],
      "stateMutability": "view",
      "type": "function"
    },
    {
      "inputs": [
        {
          "internalType": "uint256",
          "name": "",
          "type": "uint256"
        }
      ],
      "name": "predictions",
      "outputs": [
        {
          "internalType": "uint256",
          "name": "id",
          "type": "uint256"
        },
        {
          "internalType": "address",
          "name": "user",
          "type": "address"
        },
        {
          "internalType": "address",
          "name": "astrologer",
          "type": "address"
        },
        {
          "internalType": "string",
          "name": "question",
          "type": "string"
        },
        {
          "internalType": "string",
          "name": "prediction",
          "type": "string"
        },
        {
          "internalType": "uint256",
          "name": "stakeAmount",
          "type": "uint256"
        },
        {
          "internalType": "uint256",
          "name": "deadline",
          "type": "uint256"
        },
        {
          "internalType": "bool",
          "name": "isResolved",
          "type": "bool"
        },
        {
          "internalType": "bool",
          "name": "outcome",
          "type": "bool"
        },
        {
          "internalType": "bool",
          "name": "userClaimed",
          "type": "bool"
        },
        {
          "internalType": "bool",
          "name": "astrologerClaimed",
          "type": "bool"
        },
        {
          "internalType": "uint256",
          "name": "createdAt",
          "type": "uint256"
        }
      ],
      "stateMutability": "view",
      "type": "function"
    },
    {
      "inputs": [],
      "name": "proxiableUUID",
      "outputs": [
        {
          "internalType": "bytes32",
          "name": "",
          "type": "bytes32"
        }
      ],
      "stateMutability": "view",
      "type": "function"
    },
    {
      "inputs": [],
      "name": "renounceOwnership",
      "outputs": [],
      "stateMutability": "nonpayable",
      "type": "function"
    },
    {
      "inputs": [],
      "name": "reputationScorer",
      "outputs": [
        {
          "internalType": "address",
          "name": "",
          "type": "address"
        }
      ],
      "stateMutability": "view",
      "type": "function"
    },
    {
      "inputs": [],
      "name": "resolutionDelay",
      "outputs": [
        {
          "internalType": "uint256",
          "name": "",
          "type": "uint256"
        }
      ],
      "stateMutability": "view",
      "type": "function"
    },
    {
      "inputs": [
        {
          "internalType": "uint256",
          "name": "_predictionId",
          "type": "uint256"
        },
        {
          "internalType": "bool",
          "name": "_outcome",
          "type": "bool"
        }
      ],
      "name": "resolvePrediction",
      "outputs": [],
      "stateMutability": "nonpayable",
      "type": "function"
    },
    {
      "inputs": [
        {
          "internalType": "address",
          "name": "_astrologerManager",
          "type": "address"
        }
      ],
      "name": "setAstrologerManager",
      "outputs": [],
      "stateMutability": "nonpayable",
      "type": "function"
    },
    {
      "inputs": [
        {
          "internalType": "uint256",
          "name": "_claimWindow",
          "type": "uint256"
        }
      ],
      "name": "setClaimWindow",
      "outputs": [],
      "stateMutability": "nonpayable",
      "type": "function"
    },
    {
      "inputs": [
        {
          "internalType": "address",
          "name": "_predictionCredibilityManager",
          "type": "address"
        }
      ],
      "name": "setPredictionCredibilityManager",
      "outputs": [],
      "stateMutability": "nonpayable",
      "type": "function"
    },
    {
      "inputs": [
        {
          "internalType": "address",
          "name": "_reputationScorer",
          "type": "address"
        }
      ],
      "name": "setReputationScorer",
      "outputs": [],
      "stateMutability": "nonpayable",
      "type": "function"
    },
    {
      "inputs": [
        {
          "internalType": "uint256",
          "name": "_resolutionDelay",
          "type": "uint256"
        }
      ],
      "name": "setResolutionDelay",
      "outputs": [],
      "stateMutability": "nonpayable",
      "type": "function"
    },
    {
      "inputs": [
        {
          "internalType": "uint256",
          "name": "_minStakeAmount",
          "type": "uint256"
        },
        {
          "internalType": "uint256",
          "name": "_maxStakeAmount",
          "type": "uint256"
        }
      ],
      "name": "setStakeLimits",
      "outputs": [],
      "stateMutability": "nonpayable",
      "type": "function"
    },
    {
      "inputs": [
        {
          "internalType": "uint256",
          "name": "_predictionId",
          "type": "uint256"
        },
        {
          "internalType": "string",
          "name": "_evidence",
          "type": "string"
        },
        {
          "internalType": "bool",
          "name": "_isUserClaim",
          "type": "bool"
        }
      ],
      "name": "submitClaim",
      "outputs": [],
      "stateMutability": "nonpayable",
      "type": "function"
    },
    {
      "inputs": [
        {
          "internalType": "address",
          "name": "newOwner",
          "type": "address"
        }
      ],
      "name": "transferOwnership",
      "outputs": [],
      "stateMutability": "nonpayable",
      "type": "function"
    },
    {
      "inputs": [
        {
          "internalType": "address",
          "name": "newImplementation",
          "type": "address"
        }
      ],
      "name": "upgradeTo",
      "outputs": [],
      "stateMutability": "nonpayable",
      "type": "function"
    },
    {
      "inputs": [
        {
          "internalType": "address",
          "name": "newImplementation",
          "type": "address"
        },
        {
          "internalType": "bytes",
          "name": "data",
          "type": "bytes"
        }
      ],
      "name": "upgradeToAndCall",
      "outputs": [],
      "stateMutability": "payable",
      "type": "function"
    },
    {
      "inputs": [
        {
          "internalType": "address",
          "name": "",
          "type": "address"
        },
        {
          "internalType": "uint256",
          "name": "",
          "type": "uint256"
        }
      ],
      "name": "userPredictions",
      "outputs": [
        {
          "internalType": "uint256",
          "name": "",
          "type": "uint256"
        }
      ],
      "stateMutability": "view",
      "type": "function"
    },
    {
      "inputs": [
        {
          "internalType": "address",
          "name": "",
          "type": "address"
        }
      ],
      "name": "userStats",
      "outputs": [
        {
          "internalType": "uint256",
          "name": "totalPredictions",
          "type": "uint256"
        },
        {
          "internalType": "uint256",
          "name": "correctPredictions",
          "type": "uint256"
        },
        {
          "internalType": "uint256",
          "name": "totalStaked",
          "type": "uint256"
        },
        {
          "internalType": "uint256",
          "name": "totalEarnings",
          "type": "uint256"
        }
      ],
      "stateMutability": "view",
      "type": "function"
    },
    {
      "inputs": [],
      "name": "withdraw",
      "outputs": [],
      "stateMutability": "nonpayable",
      "type": "function"
    }
  ],
  "bytecode": "0x60a080604052346100dd57306080526000549060ff8260081c1661008b575060ff80821603610050575b604051612e239081620000e38239608051818181611eac01528181611fab01526123b20152f35b60ff90811916176000557f7f26b83ff96e1f2b6a682f133852f6798a09c465da95921460cefb3847402498602060405160ff8152a138610029565b62461bcd60e51b815260206004820152602760248201527f496e697469616c697a61626c653a20636f6e747261637420697320696e697469604482015266616c697a696e6760c81b6064820152608490fd5b600080fdfe6080604052600436101561001257600080fd5b60003560e01c80624fbbb01461254b5780633659cfe61461238d57806337562b29146123435780633ccfd60b146122ff57806344cda485146122bc5780634e43603a1461221b5780634f1ef28614611f5d57806352d1902d14611e995780635d80ca3214611e7b5780635e19cae214611e5a5780636fd31a4114611e31578063715018a614611dd4578063730780d51461174757806373c84d211461171e57806376f3450114611589578063888af91d1461144a5780638a65d874146113ee5780638c9bd1b5146113cf5780638da5cb5b146113a6578063a0cd655214611388578063a18f07a01461135a578063a6b63eb8146111a2578063a9d6921b146110ea578063ae169a5014610eac578063b0d485b314610e69578063b76d03b214610e40578063b92f92a514610a04578063bc8581851461098c578063c285f85314610904578063c5d37ae1146108e6578063e9725c21146108a3578063eeb58fa214610882578063f188768414610864578063f2fde38b146107d5578063f6c331791461077d578063f894160e146106fb578063fd3c12d1146103fa5763fe83bece146101bd57600080fd5b346103f55760203660031901126103f55760043560006101606040516101e28161268d565b828152826020820152826040820152606080820152606060808201528260a08201528260c08201528260e08201528261010082015282610120820152826101408201520152801515806103e9575b156103ac5760005260ca60205260406000206008604051916102518361268d565b8054835260018101546001600160a01b039081166020850152600282015416604084015261028160038201612700565b606084015261029260048201612700565b6080840152600581015460a0840152600681015460c084015260ff6007820154818116151560e08601528181851c161515610100860152818160101c16151561012086015260181c16151561014084015201546101608201526040518091602082528051602083015260018060a01b03602082015116604083015260018060a01b0360408201511660608301526060810151610160610358610342610180938460808801526101a08701906127a6565b6080850151868203601f190160a08801526127a6565b9260a081015160c086015260c081015160e086015260e08101511515610100860152610100810151151561012086015261012081015115156101408601526101408101511515828601520151908301520390f35b60405162461bcd60e51b8152602060048201526015602482015274125b9d985b1a59081c1c99591a58dd1a5bdb881251605a1b6044820152606490fd5b5060c954811115610230565b600080fd5b346103f55760403660031901126103f5576001600160401b03600435602480358381116103f55761042f903690600401612892565b908260005260209360ca8552604060002060018060a01b0360028201541633036106ab57600481019283549161046483612638565b6106675760060154421015610632578451156105ef5784519283116105db575061048d90612638565b601f8111610595575b5084601f821160011461050b5791817fd0f7c799c046fc43d441093184884e1241123b740d7c8141ecc2ea2a296acb7f94926104fb94600091610500575b508160011b916000199060031b1c19161790555b60405191829186835233968301906127a6565b0390a3005b9050830151886104d4565b601f1982169083600052866000209160005b8882821061057f575050926104fb9492600192827fd0f7c799c046fc43d441093184884e1241123b740d7c8141ecc2ea2a296acb7f989610610566575b5050811b0190556104e8565b85015160001960f88460031b161c19169055888061055a565b600184958293958a01518155019401920161051d565b8260005285600020601f830160051c8101918784106105d1575b601f0160051c01905b8181106105c55750610496565b600081556001016105b8565b90915081906105af565b634e487b7160e01b60009081526041600452fd5b86601a6064926040519262461bcd60e51b845260048401528201527f50726564696374696f6e2063616e6e6f7420626520656d7074790000000000006044820152fd5b86600f6064926040519262461bcd60e51b845260048401528201526e111958591b1a5b99481c185cdcd959608a1b6044820152fd5b60405162461bcd60e51b8152600481018990526017818401527f50726564696374696f6e20616c7265616479206d6164650000000000000000006044820152606490fd5b60405162461bcd60e51b8152600481018790526023818501527f4f6e6c7920617374726f6c6f6765722063616e206d616b65207072656469637460448201526234b7b760e91b6064820152608490fd5b346103f557610709366128b0565b9060005260cb60205260406000209081548110156103f55761072a91612901565b5080546001600160a01b031661074260018301612700565b91600360ff60028301541691015461076c60405194859485526080602086015260808501906127a6565b911515604084015260608301520390f35b346103f55760403660031901126103f5576107966127e6565b6001600160a01b0316600090815260cd60205260409020805460243591908210156103f5576020916107c791612812565b90546040519160031b1c8152f35b346103f55760203660031901126103f5576107ee6127e6565b6107f661291d565b6001600160a01b038116156108105761080e90612975565b005b60405162461bcd60e51b815260206004820152602660248201527f4f776e61626c653a206e6577206f776e657220697320746865207a65726f206160448201526564647265737360d01b6064820152608490fd5b346103f55760003660031901126103f557602060d254604051908152f35b346103f55760203660031901126103f55761089b61291d565b60043560d455005b346103f55760203660031901126103f5576108bc6127e6565b6108c461291d565b60d080546001600160a01b0319166001600160a01b0392909216919091179055005b346103f55760003660031901126103f557602060d454604051908152f35b346103f5576020806003193601126103f5576001600160a01b036109266127e6565b1660005260cd8152604060002090604051908181845491828152019360005281600020916000905b8282106109755761097185610965818903826126df565b604051918291826128c6565b0390f35b83548652948501946001938401939091019061094e565b346103f5576020806003193601126103f5576001600160a01b036109ae6127e6565b1660005260ce8152604060002090604051908181845491828152019360005281600020916000905b8282106109ed5761097185610965818903826126df565b8354865294850194600193840193909101906109d6565b346103f55760603660031901126103f5576001600160401b03602480358281116103f557610a36903690600401612892565b9160449182359283151584036103f55760043560005260ca6020526040600020610a6760ff60078301541615612c76565b6006810154804210610e065760d454610a7f91612c69565b4211610dcd578415610d6357600101546001600160a01b03163303610d20575b845115610cdd575060043560005260cb60205260406000209160405191610ac583612672565b33835260208301938685528515156040850152426060850152805490600160401b821015610cc85790610afd91600182018155612901565b949094610cb357835185546001600160a01b0319166001600160a01b03919091161785555180519290919083116105db5750610b3c6001850154612638565b601f8111610c68575b50602090601f8311600114610bf457918060039492606094600092610be9575b505060001982861b1c1916600191821b17908501555b610b9a60408201511515600286019060ff801983541691151516179055565b0151910155610bb4604051926040845260408401906127a6565b90151560208301527f7bc44673fc19420df20500bf59a562d0da676d1bb64cc2b4e87909afd90ec78d339280600435930390a3005b015190508880610b65565b906001850160005260206000209160005b601f1985168110610c505750926003949260019260609583601f19811610610c38575b505050811b016001850155610b7b565b015160001983881b60f8161c19169055888080610c28565b91926020600181928685015181550194019201610c05565b600185016000526020600020601f840160051c81019160208510610ca9575b601f0160051c01905b818110610c9d5750610b45565b60008155600101610c90565b9091508190610c87565b50634e487b7160e01b60005260006004526000fd5b82634e487b7160e01b60005260416004526000fd5b907f45766964656e63652063616e6e6f7420626520656d707479000000000000000060649260186040519362461bcd60e51b855260206004860152840152820152fd5b907f4f6e6c7920757365722063616e207375626d6974207573657220636c61696d00606492601f6040519362461bcd60e51b855260206004860152840152820152fd5b600201546001600160a01b03163314610a9f57907f4f6e6c7920617374726f6c6f6765722063616e207375626d697420617374726f608492602b6040519362461bcd60e51b8552602060048601528401528201526a6c6f67657220636c61696d60a81b6064820152fd5b60405162461bcd60e51b8152602060048201526013818501527210db185a5b481dda5b991bddc818db1bdcd959606a1b81840152606490fd5b60405162461bcd60e51b81526020600482015260148186015273111958591b1a5b99481b9bdd081c995858da195960621b81850152606490fd5b346103f55760003660031901126103f55760cf546040516001600160a01b039091168152602090f35b346103f55760203660031901126103f557610e826127e6565b610e8a61291d565b60cf80546001600160a01b0319166001600160a01b0392909216919091179055005b346103f5576020806003193601126103f5576004358060005260ca82526040600020600781019081549060ff8216156110a5576001810154600290910154336001600160a01b0392831681149283921614811561109d575b50156110585715610ff45750805460ff8160101c16610fb85762ff00001916620100001790555b610f353382612cc2565b9182158015610f4057005b8390600090610faf575b600080809381933390f115610fa3577f24b5efa61dd1cfc659205a97fb8ed868f3cb8c81922bab2b96423e5de1de2cb7903360005260cc81526003604060002001610f96858254612c69565b90556040519384523393a3005b6040513d6000823e3d90fd5b506108fc610f4a565b60405162461bcd60e51b8152600481018590526014602482015273155cd95c88185b1c9958591e4818db185a5b595960621b6044820152606490fd5b60ff8160181c166110135763ff00000019166301000000179055610f2b565b60405162461bcd60e51b815260048101859052601a60248201527f417374726f6c6f67657220616c726561647920636c61696d65640000000000006044820152606490fd5b60405162461bcd60e51b815260048101869052601760248201527f4e6f7420617574686f72697a656420746f20636c61696d0000000000000000006044820152606490fd5b905086610f04565b60405162461bcd60e51b815260048101869052601760248201527f50726564696374696f6e206e6f74207265736f6c7665640000000000000000006044820152606490fd5b346103f55760003660031901126103f55760c95461110781612d87565b9060009060015b8181111561115e57505061112181612d87565b9160005b82811061113a576040518061097186826128c6565b806111486111599284612db9565b516111538287612db9565b52612c44565b611125565b8060005260ca60205260ff6007604060002001541615611187575b61118290612c44565b61110e565b9161119a81846111536111829488612db9565b929050611179565b346103f55760a03660031901126103f5576111bb6127e6565b6111c36127fc565b906001600160a01b039060443582811691908290036103f5576000549260ff8460081c16159384809561134d575b8015611336575b156112da5760ff198116600117600055846112c8575b5061122960ff60005460081c1661122481612bad565b612bad565b61123233612975565b6000549461124560ff8760081c16612bad565b816bffffffffffffffffffffffff60a01b93168360cf54161760cf55168160d054161760d05560d154161760d15560643560d25560843560d35562093a8060d4556203f48060d55561129357005b61ff0019166000557f7f26b83ff96e1f2b6a682f133852f6798a09c465da95921460cefb3847402498602060405160018152a1005b61ffff1916610101176000558561120e565b60405162461bcd60e51b815260206004820152602e60248201527f496e697469616c697a61626c653a20636f6e747261637420697320616c72656160448201526d191e481a5b9a5d1a585b1a5e995960921b6064820152608490fd5b50303b1580156111f85750600160ff8216146111f8565b50600160ff8216106111f1565b346103f55760403660031901126103f55760206113806113786127fc565b600435612cc2565b604051908152f35b346103f55760003660031901126103f557602060d554604051908152f35b346103f55760003660031901126103f5576033546040516001600160a01b039091168152602090f35b346103f5576113dd366128b0565b906113e661291d565b60d25560d355005b346103f55760203660031901126103f5576001600160a01b0361140f6127e6565b1660005260cc602052608060406000208054906001810154906003600282015491015491604051938452602084015260408301526060820152f35b346103f5576020806003193601126103f55760043560005260cb815260406000209081549161147883612d70565b9261148660405194856126df565b8084528284018092600052836000206000915b8383106115305750505050604051918083019381845251809452604083019360408160051b85010192916000955b8287106114d45785850386f35b909192938280600192603f19898203018552875190848060a01b03825116815261150a83830151608080868501528301906127a6565b9160408101511515604083015260608091015191015296019201960195929190926114c7565b60048660019260409998995161154581612672565b848060a01b03865416815261155b858701612700565b8382015260ff6002870154161515604082015260038601546060820152815201920192019190959495611499565b346103f55760403660031901126103f557600435602435801515908181036103f5576033546001600160a01b039290831633148015611711575b156116dd578360005260ca602052604060002092600784019283546115eb60ff821615612c76565b6115fc600687015460d55490612c69565b42106116985761ffff191681151560081b61ff0016176001179093557f3e4f6f1a995ed18627d44ad134499ecd046375d57a1d00d9ae3114d67795eb3993604093908290821561168b5781600182015416925b611664575b50508351928352166020820152a2005b600101541660005260cc602052600184600020016116828154612c44565b90558187611654565b816002820154169261164f565b60405162461bcd60e51b815260206004820152601860248201527f5265736f6c7574696f6e2064656c6179206e6f74206d657400000000000000006044820152606490fd5b60405162461bcd60e51b815260206004820152600c60248201526b155b985d5d1a1bdc9a5e995960a21b6044820152606490fd5b508260d0541633146115c3565b346103f55760003660031901126103f55760d0546040516001600160a01b039091168152602090f35b60603660031901126103f55761175b6127e6565b6024356001600160401b0381116103f55761177a903690600401612892565b6001600160a01b03821615611d8f576001600160a01b0382163314611d4a5760d2543410611d0e5760d3543411611cd157426044351115611c8c57805115611c4757600160c95401908160c955604051926117d48461268d565b82845233602085015260018060a01b03811660408501528160608501526040516117fd816126a9565b6000815260808501523460a085015260443560c0850152600060e0850152600061010085015260006101208501526000610140850152426101608501528260005260ca6020526040600020845181556001810160018060a01b03602087015116906bffffffffffffffffffffffff60a01b9182825416179055600282019060018060a01b036040880151169082541617905560608501518051906001600160401b038211611b665781906118b46003850154612638565b601f8111611bf4575b50602090601f8311600114611b8757600092611b7c575b50508160011b916000199060031b1c19161760038201555b60808501519485516001600160401b038111611b665761190f6004840154612638565b96601f8811611b1f575b602097508790601f8311600114611aab5791806008949261016094600092611aa0575b50508160011b916000199060031b1c19161760048501555b60a0810151600585015560c081015160068501556007840161198860e08301511515829060ff801983541691151516179055565b610100820151815461ff00191690151560081b61ff00161781556101208201511515815462ff000063ff000000610140860151151560181b169260101b169063ffff000019161717905501519101553360005260cd84526119ed836040600020612c0d565b60018060a01b03811660005260ce8452611a0b836040600020612c0d565b3360005260cc84526040600020611a228154612c44565b90553360005260cc84526002604060002001611a3f348254612c69565b9055827f44ae741044fa800941bc15a6ab2dffa75f515fde719c1b43010a931c2abc1465611a78604051946060865260608601906127a6565b348588015260443560408601526001600160a01b0390931693339381900390a4604051908152f35b015190508a8061193c565b9060048501600052886000209160005b601f1985168110611b08575092600894926001926101609583601f19811610611aef575b505050811b016004850155611954565b015160001960f88460031b161c191690558a8080611adf565b91928a600181928685015181550194019201611abb565b600484016000526020600020601f830160051c810160208410611b5f575b601f8a0160051c82018110611b53575050611919565b60008155600101611b3d565b5080611b3d565b634e487b7160e01b600052604160045260246000fd5b0151905087806118d4565b600385016000908152602081209350601f198516905b818110611bdc5750908460019594939210611bc3575b505050811b0160038201556118ec565b015160001960f88460031b161c19169055878080611bb3565b92936020600181928786015181550195019301611b9d565b909150600384016000526020600020601f840160051c810160208510611c40575b90849392915b601f830160051c82018110611c315750506118bd565b60008155859450600101611c1b565b5080611c15565b60405162461bcd60e51b815260206004820152601860248201527f5175657374696f6e2063616e6e6f7420626520656d70747900000000000000006044820152606490fd5b60405162461bcd60e51b815260206004820152601e60248201527f446561646c696e65206d75737420626520696e207468652066757475726500006044820152606490fd5b60405162461bcd60e51b81526020600482015260156024820152740a6e8c2d6ca40c2dadeeadce840e8dede40d0d2ced605b1b6044820152606490fd5b60405162461bcd60e51b81526020600482015260146024820152735374616b6520616d6f756e7420746f6f206c6f7760601b6044820152606490fd5b60405162461bcd60e51b815260206004820152601c60248201527f43616e6e6f742070726564696374207769746820796f757273656c66000000006044820152606490fd5b60405162461bcd60e51b815260206004820152601a60248201527f496e76616c696420617374726f6c6f67657220616464726573730000000000006044820152606490fd5b346103f55760003660031901126103f557611ded61291d565b603380546001600160a01b031981169091556000906001600160a01b03167f8be0079c531659141344cd1fd0a4f28419497f9722a3daafe3b4186f6b6457e08280a3005b346103f55760003660031901126103f55760d1546040516001600160a01b039091168152602090f35b346103f55760203660031901126103f557611e7361291d565b60043560d555005b346103f55760003660031901126103f557602060d354604051908152f35b346103f55760003660031901126103f5577f00000000000000000000000000000000000000000000000000000000000000006001600160a01b03163003611ef2576020604051600080516020612dce8339815191528152f35b60405162461bcd60e51b815260206004820152603860248201527f555550535570677261646561626c653a206d757374206e6f742062652063616c60448201527f6c6564207468726f7567682064656c656761746563616c6c00000000000000006064820152608490fd5b60403660031901126103f557611f716127e6565b6024356001600160401b0381116103f557366023820112156103f557611fa190369060248160040135910161285b565b6001600160a01b037f000000000000000000000000000000000000000000000000000000000000000081169190611fda308414156129be565b611ff7600080516020612dce833981519152938285541614612a1f565b611fff61291d565b7f4910fdfa16fed3260ed0e7147f7cc6da11a60208b5b9406d12a635614ffd91435460ff16156120355750505061080e90612a80565b8316604051926352d1902d60e01b84526020938481600481865afa600091816121ec575b506120ba5760405162461bcd60e51b815260048101869052602e60248201527f45524331393637557067726164653a206e657720696d706c656d656e7461746960448201526d6f6e206973206e6f74205555505360901b6064820152608490fd5b93929303612195576120cb84612a80565b7fbc7cd75a20ee27fd9adebab32041f755214dbc6bffa90cc0225b39da2e5c2d3b600080a281511580159061218d575b61210157005b61080e9260008060405194612115866126c4565b602786527f416464726573733a206c6f772d6c6576656c2064656c65676174652063616c6c85870152660819985a5b195960ca1b60408701528481519101845af4903d15612184573d61216781612840565b9061217560405192836126df565b8152600081943d92013e612b10565b60609250612b10565b5060016120fb565b60405162461bcd60e51b815260048101839052602960248201527f45524331393637557067726164653a20756e737570706f727465642070726f786044820152681a58589b195555525160ba1b6064820152608490fd5b9091508581813d8311612214575b61220481836126df565b810103126103f557519087612059565b503d6121fa565b346103f55760203660031901126103f5576122346127e6565b6000606060405161224481612672565b828152826020820152826040820152015260018060a01b031660005260cc6020526080604060002060405161227881612672565b815491828252600181015460208301908152606060036002840154936040860194855201549301928352604051938452516020840152516040830152516060820152f35b346103f55760203660031901126103f5576122d56127e6565b6122dd61291d565b60d180546001600160a01b0319166001600160a01b0392909216919091179055005b346103f55760003660031901126103f55761231861291d565b600080808060018060a01b0360335416479082821561233a575bf115610fa357005b506108fc612332565b346103f55760403660031901126103f55761235c6127e6565b6001600160a01b0316600090815260ce60205260409020805460243591908210156103f5576020916107c791612812565b346103f5576020806003193601126103f5576123a76127e6565b906001600160a01b037f000000000000000000000000000000000000000000000000000000000000000081166123df308214156129be565b6123fc600080516020612dce833981519152918383541614612a1f565b61240461291d565b60405191612411836126a9565b600083527f4910fdfa16fed3260ed0e7147f7cc6da11a60208b5b9406d12a635614ffd91435460ff161561244c575050505061080e90612a80565b8416906040516352d1902d60e01b81528481600481865afa6000918161251c575b506124ce5760405162461bcd60e51b815260048101869052602e60248201527f45524331393637557067726164653a206e657720696d706c656d656e7461746960448201526d6f6e206973206e6f74205555505360901b6064820152608490fd5b93929303612195576124df84612a80565b7fbc7cd75a20ee27fd9adebab32041f755214dbc6bffa90cc0225b39da2e5c2d3b600080a28151158015906125145761210157005b5060006120fb565b9091508581813d8311612544575b61253481836126df565b810103126103f55751908761246d565b503d61252a565b346103f55760203660031901126103f557600435600090815260ca602052604090208054600182015460028301546001600160a01b0391821693911660ff61259560038401612700565b926125a260048201612700565b936125f16005830154956125e360068501549360086007870154960154976040519b8c9b8c5260208c015260408b01526101808060608c01528a01906127a6565b9088820360808a01526127a6565b9460a087015260c0860152818116151560e0860152818160081c161515610100860152818160101c16151561012086015260181c1615156101408401526101608301520390f35b90600182811c92168015612668575b602083101461265257565b634e487b7160e01b600052602260045260246000fd5b91607f1691612647565b608081019081106001600160401b03821117611b6657604052565b61018081019081106001600160401b03821117611b6657604052565b602081019081106001600160401b03821117611b6657604052565b606081019081106001600160401b03821117611b6657604052565b90601f801991011681019081106001600160401b03821117611b6657604052565b906040519182600082549261271484612638565b9081845260019485811690816000146127835750600114612740575b505061273e925003836126df565b565b9093915060005260209081600020936000915b81831061276b57505061273e93508201013880612730565b85548884018501529485019487945091830191612753565b91505061273e94506020925060ff191682840152151560051b8201013880612730565b919082519283825260005b8481106127d2575050826000602080949584010152601f8019910116010190565b6020818301810151848301820152016127b1565b600435906001600160a01b03821682036103f557565b602435906001600160a01b03821682036103f557565b805482101561282a5760005260206000200190600090565b634e487b7160e01b600052603260045260246000fd5b6001600160401b038111611b6657601f01601f191660200190565b92919261286782612840565b9161287560405193846126df565b8294818452818301116103f5578281602093846000960137010152565b9080601f830112156103f5578160206128ad9335910161285b565b90565b60409060031901126103f5576004359060243590565b6020908160408183019282815285518094520193019160005b8281106128ed575050505090565b8351855293810193928101926001016128df565b805482101561282a5760005260206000209060021b0190600090565b6033546001600160a01b0316330361293157565b606460405162461bcd60e51b815260206004820152602060248201527f4f776e61626c653a2063616c6c6572206973206e6f7420746865206f776e65726044820152fd5b603380546001600160a01b039283166001600160a01b0319821681179092559091167f8be0079c531659141344cd1fd0a4f28419497f9722a3daafe3b4186f6b6457e0600080a3565b156129c557565b60405162461bcd60e51b815260206004820152602c60248201527f46756e6374696f6e206d7573742062652063616c6c6564207468726f7567682060448201526b19195b1959d85d1958d85b1b60a21b6064820152608490fd5b15612a2657565b60405162461bcd60e51b815260206004820152602c60248201527f46756e6374696f6e206d7573742062652063616c6c6564207468726f7567682060448201526b6163746976652070726f787960a01b6064820152608490fd5b803b15612ab557600080516020612dce83398151915280546001600160a01b0319166001600160a01b03909216919091179055565b60405162461bcd60e51b815260206004820152602d60248201527f455243313936373a206e657720696d706c656d656e746174696f6e206973206e60448201526c1bdd08184818dbdb9d1c9858dd609a1b6064820152608490fd5b91929015612b725750815115612b24575090565b3b15612b2d5790565b60405162461bcd60e51b815260206004820152601d60248201527f416464726573733a2063616c6c20746f206e6f6e2d636f6e74726163740000006044820152606490fd5b825190915015612b855750805190602001fd5b60405162461bcd60e51b815260206004820152908190612ba99060248301906127a6565b0390fd5b15612bb457565b60405162461bcd60e51b815260206004820152602b60248201527f496e697469616c697a61626c653a20636f6e7472616374206973206e6f74206960448201526a6e697469616c697a696e6760a81b6064820152608490fd5b8054600160401b811015611b6657612c2a91600182018155612812565b819291549060031b600019811b9283911b16911916179055565b6000198114612c535760010190565b634e487b7160e01b600052601160045260246000fd5b91908201809211612c5357565b15612c7d57565b60405162461bcd60e51b815260206004820152601b60248201527f50726564696374696f6e20616c7265616479207265736f6c76656400000000006044820152606490fd5b60005260ca602052604060002090600782015460ff811615612d6857600183015460028401546001600160a01b03938416918416821493161490821580612d60575b612d575782612d48575b8215612d28575b5050612d215750600090565b6005015490565b90915081612d39575b503880612d15565b60ff915060081c161538612d31565b915060ff8260081c1691612d0e565b50505050600090565b508115612d04565b505050600090565b6001600160401b038111611b665760051b60200190565b90612d9182612d70565b612d9e60405191826126df565b8281528092612daf601f1991612d70565b0190602036910137565b805182101561282a5760209160051b01019056fe360894a13ba1a3210667c828492db98dca3e2076cc3735a920a3ca505d382bbca264697066735822122046bc4f34e1112055034059766b2438590244a4694a8f042f044becb029ee4f7764736f6c63430008110033",
  "linkReferences": {},
  "deployedLinkReferences": {}
}