{
  "_format": "hh-sol-artifact-1",
  "contractName": "AstroTokenFactory",
  "sourceName": "contracts/AstroTokenFactory.sol",
  "abi": [
    {
      "inputs": [
        {
          "internalType": "address",
          "name": "_astroTokenImplementation",
          "type": "address"
        },
        {
          "internalType": "address",
          "name": "_buyTokenContractImplementation",
          "type": "address"
        },
        {
          "internalType": "address",
          "name": "_astrologerManager",
          "type": "address"
        }
      ],
      "stateMutability": "nonpayable",
      "type": "constructor"
    },
    {
      "anonymous": false,
      "inputs": [
        {
          "indexed": true,
          "internalType": "address",
          "name": "previousOwner",
          "type": "address"
        },
        {
          "indexed": true,
          "internalType": "address",
          "name": "newOwner",
          "type": "address"
        }
      ],
      "name": "OwnershipTransferred",
      "type": "event"
    },
    {
      "anonymous": false,
      "inputs": [
        {
          "indexed": true,
          "internalType": "address",
          "name": "tokenContract",
          "type": "address"
        },
        {
          "indexed": true,
          "internalType": "address",
          "name": "buyContract",
          "type": "address"
        },
        {
          "indexed": true,
          "internalType": "address",
          "name": "astrologer",
          "type": "address"
        }
      ],
      "name": "TokenDeployed",
      "type": "event"
    },
    {
      "inputs": [],
      "name": "astroTokenImplementation",
      "outputs": [
        {
          "internalType": "address",
          "name": "",
          "type": "address"
        }
      ],
      "stateMutability": "view",
      "type": "function"
    },
    {
      "inputs": [],
      "name": "astrologerManager",
      "outputs": [
        {
          "internalType": "address",
          "name": "",
          "type": "address"
        }
      ],
      "stateMutability": "view",
      "type": "function"
    },
    {
      "inputs": [],
      "name": "buyTokenContractImplementation",
      "outputs": [
        {
          "internalType": "address",
          "name": "",
          "type": "address"
        }
      ],
      "stateMutability": "view",
      "type": "function"
    },
    {
      "inputs": [
        {
          "internalType": "string",
          "name": "_name",
          "type": "string"
        },
        {
          "internalType": "string",
          "name": "_symbol",
          "type": "string"
        },
        {
          "internalType": "uint256",
          "name": "_totalSupply",
          "type": "uint256"
        },
        {
          "internalType": "uint256",
          "name": "_initialPrice",
          "type": "uint256"
        },
        {
          "internalType": "address",
          "name": "_astrologer",
          "type": "address"
        }
      ],
      "name": "deployTokenPair",
      "outputs": [
        {
          "internalType": "address",
          "name": "tokenContract",
          "type": "address"
        },
        {
          "internalType": "address",
          "name": "buyContract",
          "type": "address"
        }
      ],
      "stateMutability": "nonpayable",
      "type": "function"
    },
    {
      "inputs": [],
      "name": "owner",
      "outputs": [
        {
          "internalType": "address",
          "name": "",
          "type": "address"
        }
      ],
      "stateMutability": "view",
      "type": "function"
    },
    {
      "inputs": [],
      "name": "renounceOwnership",
      "outputs": [],
      "stateMutability": "nonpayable",
      "type": "function"
    },
    {
      "inputs": [],
      "name": "reputationScorer",
      "outputs": [
        {
          "internalType": "address",
          "name": "",
          "type": "address"
        }
      ],
      "stateMutability": "view",
      "type": "function"
    },
    {
      "inputs": [
        {
          "internalType": "address",
          "name": "_astrologerManager",
          "type": "address"
        }
      ],
      "name": "setAstrologerManager",
      "outputs": [],
      "stateMutability": "nonpayable",
      "type": "function"
    },
    {
      "inputs": [
        {
          "internalType": "address",
          "name": "_astroTokenImplementation",
          "type": "address"
        },
        {
          "internalType": "address",
          "name": "_buyTokenContractImplementation",
          "type": "address"
        }
      ],
      "name": "setImplementations",
      "outputs": [],
      "stateMutability": "nonpayable",
      "type": "function"
    },
    {
      "inputs": [
        {
          "internalType": "address",
          "name": "_reputationScorer",
          "type": "address"
        }
      ],
      "name": "setReputationScorer",
      "outputs": [],
      "stateMutability": "nonpayable",
      "type": "function"
    },
    {
      "inputs": [
        {
          "internalType": "address",
          "name": "newOwner",
          "type": "address"
        }
      ],
      "name": "transferOwnership",
      "outputs": [],
      "stateMutability": "nonpayable",
      "type": "function"
    }
  ],
  "bytecode": "0x6080346100e357601f61094238819003918201601f19168301916001600160401b038311848410176100e8578084926060946040528339810103126100e357610047816100fe565b61005f6040610058602085016100fe565b93016100fe565b600080546001600160a01b03198082163390811784556040519691956001600160a01b0395948694859391908416907f8be0079c531659141344cd1fd0a4f28419497f9722a3daafe3b4186f6b6457e09080a31685600154161760015516836002541617600255168160035416176003556004541660045561082f90816101138239f35b600080fd5b634e487b7160e01b600052604160045260246000fd5b51906001600160a01b03821682036100e35756fe6080604081815260048036101561001557600080fd5b600092833560e01c90816307d4efe3146106055750806332e1d0ec1461034757806334416f631461031e57806344cda485146102de5780636fd31a41146102b5578063715018a61461025b57806373c84d211461023457806385bff341146101d35780638da5cb5b146101ab578063e9725c21146101665763f2fde38b1461009c57600080fd5b34610162576020366003190112610162576100b56106b7565b906100be6106cd565b6001600160a01b03918216928315610110575050600054826001600160601b0360a01b821617600055167f8be0079c531659141344cd1fd0a4f28419497f9722a3daafe3b4186f6b6457e0600080a380f35b906020608492519162461bcd60e51b8352820152602660248201527f4f776e61626c653a206e6577206f776e657220697320746865207a65726f206160448201526564647265737360d01b6064820152fd5b8280fd5b8382346101a75760203660031901126101a7576101816106b7565b6101896106cd565b81546001600160a01b0319166001600160a01b039190911617905580f35b5080fd5b5050346101a757816003193601126101a757905490516001600160a01b039091168152602090f35b5050346101a757366003190112610231576101ec6106b7565b6024356001600160a01b03818116929183900361022c5761020b6106cd565b6001600160601b0360a01b9116816001541617600155600254161760025580f35b600080fd5b80fd5b50346101625782600319360112610162575490516001600160a01b03909116815260209150f35b83346102315780600319360112610231576102746106cd565b600080546001600160a01b0319811682556001600160a01b03167f8be0079c531659141344cd1fd0a4f28419497f9722a3daafe3b4186f6b6457e08280a380f35b5050346101a757816003193601126101a75760035490516001600160a01b039091168152602090f35b8334610231576020366003190112610231576102f86106b7565b6103006106cd565b60018060a01b03166001600160601b0360a01b600354161760035580f35b5050346101a757816003193601126101a75760015490516001600160a01b039091168152602090f35b508290346101a75760031960a0368201126101625767ffffffffffffffff82358181116106015761037b9036908501610654565b92602491823590811161054c576103959036908301610654565b6001600160a01b039460843586811694926044359290918690036105e657876103c18160015416610765565b1696873b156105fd578a51637e77c50360e01b815260a087820152928a9284928392610403926103f59060a4860190610725565b918483030189850152610725565b8560448301528860648301528360848301520381838a5af180156105ba576105ea575b50856104358160025416610765565b16958060035416873b156105e6578951906305e52ecf60e21b8252858201528884820152606460448201528881606481838c5af180156105dc579089916105c8575b505083541680610572575b50853b1561056e5787519063cea9f4b560e01b825285848301528483830152604482015260643560648201528681608481838a5af1801561056457908791610550575b5050833b1561054c578651637103ef0d60e01b8152918201859052859082908183875af180156105425790859161052a575b505082827fd7b4770d872cf541c7302a5671e3ceb80df26b15aacab2ba0f395c3056b9ad5f87519680a482526020820152f35b6105339061062a565b61053e5783866104f7565b8380fd5b86513d87823e3d90fd5b8580fd5b6105599061062a565b61054c5785886104c5565b88513d89823e3d90fd5b8680fd5b863b156105c45788519063e9725c2160e01b82528482015287818481838b5af180156105ba579088916105a6575b50610482565b6105af9061062a565b61056e5786896105a0565b89513d8a823e3d90fd5b8780fd5b6105d19061062a565b6105c457878a610477565b8a513d8b823e3d90fd5b8880fd5b6105f69097919761062a565b9588610426565b8980fd5b8480fd5b8490346101a757816003193601126101a7576002546001600160a01b03168152602090f35b67ffffffffffffffff811161063e57604052565b634e487b7160e01b600052604160045260246000fd5b81601f8201121561022c5780359067ffffffffffffffff9283831161063e5760405193601f8401601f19908116603f011685019081118582101761063e576040528284526020838301011161022c57816000926020809301838601378301015290565b600435906001600160a01b038216820361022c57565b6000546001600160a01b031633036106e157565b606460405162461bcd60e51b815260206004820152602060248201527f4f776e61626c653a2063616c6c6572206973206e6f7420746865206f776e65726044820152fd5b919082519283825260005b848110610751575050826000602080949584010152601f8019910116010190565b602081830181015184830182015201610730565b6e5af43d82803e903d91602b57fd5bf390763d602d80600a3d3981f3363d3d373d3d3d363d7300000062ffffff8260881c161760005260781b17602052603760096000f0906001600160a01b038216156107bb57565b60405162461bcd60e51b8152602060048201526016602482015275115490cc4c4d8dce8818dc99585d194819985a5b195960521b6044820152606490fdfea2646970667358221220aef65291c2748987828ecf6951f0ab4c42566feca0405bd4da1d2cae969e4dda64736f6c63430008110033",
  "linkReferences": {},
  "deployedLinkReferences": {}
}