{
  "_format": "hh-sol-artifact-1",
  "contractName": "AstroToken",
  "sourceName": "contracts/AstroToken.sol",
  "abi": [
    {
      "inputs": [],
      "stateMutability": "nonpayable",
      "type": "constructor"
    },
    {
      "anonymous": false,
      "inputs": [
        {
          "indexed": false,
          "internalType": "address",
          "name": "previousAdmin",
          "type": "address"
        },
        {
          "indexed": false,
          "internalType": "address",
          "name": "newAdmin",
          "type": "address"
        }
      ],
      "name": "AdminChanged",
      "type": "event"
    },
    {
      "anonymous": false,
      "inputs": [
        {
          "indexed": true,
          "internalType": "address",
          "name": "owner",
          "type": "address"
        },
        {
          "indexed": true,
          "internalType": "address",
          "name": "spender",
          "type": "address"
        },
        {
          "indexed": false,
          "internalType": "uint256",
          "name": "value",
          "type": "uint256"
        }
      ],
      "name": "Approval",
      "type": "event"
    },
    {
      "anonymous": false,
      "inputs": [
        {
          "indexed": true,
          "internalType": "address",
          "name": "astrologer",
          "type": "address"
        },
        {
          "indexed": false,
          "internalType": "string",
          "name": "name",
          "type": "string"
        },
        {
          "indexed": false,
          "internalType": "string",
          "name": "symbol",
          "type": "string"
        },
        {
          "indexed": false,
          "internalType": "uint256",
          "name": "totalSupply",
          "type": "uint256"
        }
      ],
      "name": "AstroTokenInitialized",
      "type": "event"
    },
    {
      "anonymous": false,
      "inputs": [
        {
          "indexed": true,
          "internalType": "address",
          "name": "beacon",
          "type": "address"
        }
      ],
      "name": "BeaconUpgraded",
      "type": "event"
    },
    {
      "anonymous": false,
      "inputs": [
        {
          "indexed": false,
          "internalType": "uint8",
          "name": "version",
          "type": "uint8"
        }
      ],
      "name": "Initialized",
      "type": "event"
    },
    {
      "anonymous": false,
      "inputs": [
        {
          "indexed": true,
          "internalType": "address",
          "name": "previousOwner",
          "type": "address"
        },
        {
          "indexed": true,
          "internalType": "address",
          "name": "newOwner",
          "type": "address"
        }
      ],
      "name": "OwnershipTransferred",
      "type": "event"
    },
    {
      "anonymous": false,
      "inputs": [
        {
          "indexed": true,
          "internalType": "address",
          "name": "from",
          "type": "address"
        },
        {
          "indexed": true,
          "internalType": "address",
          "name": "to",
          "type": "address"
        },
        {
          "indexed": false,
          "internalType": "uint256",
          "name": "value",
          "type": "uint256"
        }
      ],
      "name": "Transfer",
      "type": "event"
    },
    {
      "anonymous": false,
      "inputs": [
        {
          "indexed": true,
          "internalType": "address",
          "name": "implementation",
          "type": "address"
        }
      ],
      "name": "Upgraded",
      "type": "event"
    },
    {
      "inputs": [
        {
          "internalType": "address",
          "name": "owner",
          "type": "address"
        },
        {
          "internalType": "address",
          "name": "spender",
          "type": "address"
        }
      ],
      "name": "allowance",
      "outputs": [
        {
          "internalType": "uint256",
          "name": "",
          "type": "uint256"
        }
      ],
      "stateMutability": "view",
      "type": "function"
    },
    {
      "inputs": [
        {
          "internalType": "address",
          "name": "spender",
          "type": "address"
        },
        {
          "internalType": "uint256",
          "name": "amount",
          "type": "uint256"
        }
      ],
      "name": "approve",
      "outputs": [
        {
          "internalType": "bool",
          "name": "",
          "type": "bool"
        }
      ],
      "stateMutability": "nonpayable",
      "type": "function"
    },
    {
      "inputs": [],
      "name": "astrologer",
      "outputs": [
        {
          "internalType": "address",
          "name": "",
          "type": "address"
        }
      ],
      "stateMutability": "view",
      "type": "function"
    },
    {
      "inputs": [
        {
          "internalType": "address",
          "name": "account",
          "type": "address"
        }
      ],
      "name": "balanceOf",
      "outputs": [
        {
          "internalType": "uint256",
          "name": "",
          "type": "uint256"
        }
      ],
      "stateMutability": "view",
      "type": "function"
    },
    {
      "inputs": [
        {
          "internalType": "uint256",
          "name": "amount",
          "type": "uint256"
        }
      ],
      "name": "burn",
      "outputs": [],
      "stateMutability": "nonpayable",
      "type": "function"
    },
    {
      "inputs": [
        {
          "internalType": "address",
          "name": "account",
          "type": "address"
        },
        {
          "internalType": "uint256",
          "name": "amount",
          "type": "uint256"
        }
      ],
      "name": "burnFrom",
      "outputs": [],
      "stateMutability": "nonpayable",
      "type": "function"
    },
    {
      "inputs": [],
      "name": "buyContract",
      "outputs": [
        {
          "internalType": "address",
          "name": "",
          "type": "address"
        }
      ],
      "stateMutability": "view",
      "type": "function"
    },
    {
      "inputs": [],
      "name": "decimals",
      "outputs": [
        {
          "internalType": "uint8",
          "name": "",
          "type": "uint8"
        }
      ],
      "stateMutability": "view",
      "type": "function"
    },
    {
      "inputs": [
        {
          "internalType": "address",
          "name": "spender",
          "type": "address"
        },
        {
          "internalType": "uint256",
          "name": "subtractedValue",
          "type": "uint256"
        }
      ],
      "name": "decreaseAllowance",
      "outputs": [
        {
          "internalType": "bool",
          "name": "",
          "type": "bool"
        }
      ],
      "stateMutability": "nonpayable",
      "type": "function"
    },
    {
      "inputs": [
        {
          "internalType": "address",
          "name": "spender",
          "type": "address"
        },
        {
          "internalType": "uint256",
          "name": "addedValue",
          "type": "uint256"
        }
      ],
      "name": "increaseAllowance",
      "outputs": [
        {
          "internalType": "bool",
          "name": "",
          "type": "bool"
        }
      ],
      "stateMutability": "nonpayable",
      "type": "function"
    },
    {
      "inputs": [
        {
          "internalType": "string",
          "name": "_name",
          "type": "string"
        },
        {
          "internalType": "string",
          "name": "_symbol",
          "type": "string"
        },
        {
          "internalType": "uint256",
          "name": "_totalSupply",
          "type": "uint256"
        },
        {
          "internalType": "address",
          "name": "_astrologer",
          "type": "address"
        },
        {
          "internalType": "address",
          "name": "_buyContract",
          "type": "address"
        }
      ],
      "name": "initialize",
      "outputs": [],
      "stateMutability": "nonpayable",
      "type": "function"
    },
    {
      "inputs": [],
      "name": "isInitialized",
      "outputs": [
        {
          "internalType": "bool",
          "name": "",
          "type": "bool"
        }
      ],
      "stateMutability": "view",
      "type": "function"
    },
    {
      "inputs": [
        {
          "internalType": "address",
          "name": "to",
          "type": "address"
        },
        {
          "internalType": "uint256",
          "name": "amount",
          "type": "uint256"
        }
      ],
      "name": "mint",
      "outputs": [],
      "stateMutability": "nonpayable",
      "type": "function"
    },
    {
      "inputs": [],
      "name": "name",
      "outputs": [
        {
          "internalType": "string",
          "name": "",
          "type": "string"
        }
      ],
      "stateMutability": "view",
      "type": "function"
    },
    {
      "inputs": [],
      "name": "owner",
      "outputs": [
        {
          "internalType": "address",
          "name": "",
          "type": "address"
        }
      ],
      "stateMutability": "view",
      "type": "function"
    },
    {
      "inputs": [],
      "name": "proxiableUUID",
      "outputs": [
        {
          "internalType": "bytes32",
          "name": "",
          "type": "bytes32"
        }
      ],
      "stateMutability": "view",
      "type": "function"
    },
    {
      "inputs": [],
      "name": "renounceOwnership",
      "outputs": [],
      "stateMutability": "nonpayable",
      "type": "function"
    },
    {
      "inputs": [
        {
          "internalType": "address",
          "name": "_buyContract",
          "type": "address"
        }
      ],
      "name": "setBuyContract",
      "outputs": [],
      "stateMutability": "nonpayable",
      "type": "function"
    },
    {
      "inputs": [],
      "name": "symbol",
      "outputs": [
        {
          "internalType": "string",
          "name": "",
          "type": "string"
        }
      ],
      "stateMutability": "view",
      "type": "function"
    },
    {
      "inputs": [],
      "name": "totalSupply",
      "outputs": [
        {
          "internalType": "uint256",
          "name": "",
          "type": "uint256"
        }
      ],
      "stateMutability": "view",
      "type": "function"
    },
    {
      "inputs": [
        {
          "internalType": "address",
          "name": "to",
          "type": "address"
        },
        {
          "internalType": "uint256",
          "name": "amount",
          "type": "uint256"
        }
      ],
      "name": "transfer",
      "outputs": [
        {
          "internalType": "bool",
          "name": "",
          "type": "bool"
        }
      ],
      "stateMutability": "nonpayable",
      "type": "function"
    },
    {
      "inputs": [
        {
          "internalType": "address",
          "name": "from",
          "type": "address"
        },
        {
          "internalType": "address",
          "name": "to",
          "type": "address"
        },
        {
          "internalType": "uint256",
          "name": "amount",
          "type": "uint256"
        }
      ],
      "name": "transferFrom",
      "outputs": [
        {
          "internalType": "bool",
          "name": "",
          "type": "bool"
        }
      ],
      "stateMutability": "nonpayable",
      "type": "function"
    },
    {
      "inputs": [
        {
          "internalType": "address",
          "name": "newOwner",
          "type": "address"
        }
      ],
      "name": "transferOwnership",
      "outputs": [],
      "stateMutability": "nonpayable",
      "type": "function"
    },
    {
      "inputs": [
        {
          "internalType": "address",
          "name": "newImplementation",
          "type": "address"
        }
      ],
      "name": "upgradeTo",
      "outputs": [],
      "stateMutability": "nonpayable",
      "type": "function"
    },
    {
      "inputs": [
        {
          "internalType": "address",
          "name": "newImplementation",
          "type": "address"
        },
        {
          "internalType": "bytes",
          "name": "data",
          "type": "bytes"
        }
      ],
      "name": "upgradeToAndCall",
      "outputs": [],
      "stateMutability": "payable",
      "type": "function"
    }
  ],
  "bytecode": "0x60a080604052346100dc57306080526000549060ff8260081c1661008a575060ff8082160361004f575b604051611d2790816100e28239608051818181610b3201528181610c320152610fed0152f35b60ff90811916176000557f7f26b83ff96e1f2b6a682f133852f6798a09c465da95921460cefb3847402498602060405160ff8152a138610029565b62461bcd60e51b815260206004820152602760248201527f496e697469616c697a61626c653a20636f6e747261637420697320696e697469604482015266616c697a696e6760c81b6064820152608490fd5b600080fdfe608080604052600436101561001357600080fd5b60003560e01c90816306fdde031461137757508063095ea7b31461135157806318160ddd1461133357806323b872dd14611275578063313ce567146112595780633659cfe614610fc8578063392e53cd14610fa15780633950935114610f5057806340c10f1914610ebf57806342966c6814610ea25780634f1ef28614610be357806352d1902d14610b1f57806370a0823114610ae55780637103ef0d14610aa2578063715018a614610a4557806379cc6790146109b45780637e77c503146104405780638da5cb5b1461041757806395d89b41146103435780639b7e307014610319578063a457c2d714610272578063a9059cbb14610241578063dd62ed3e146101f0578063de866db1146101c65763f2fde38b1461013257600080fd5b346101c15760203660031901126101c15761014b611448565b610153611523565b6001600160a01b0381161561016d5761016b9061157b565b005b60405162461bcd60e51b815260206004820152602660248201527f4f776e61626c653a206e6577206f776e657220697320746865207a65726f206160448201526564647265737360d01b6064820152608490fd5b600080fd5b346101c15760003660031901126101c15761012e546040516001600160a01b039091168152602090f35b346101c15760403660031901126101c157610209611448565b61021161145e565b9060018060a01b038091166000526034602052604060002091166000526020526020604060002054604051908152f35b346101c15760403660031901126101c15761026761025d611448565b6024359033611773565b602060405160018152f35b346101c15760403660031901126101c15761028b611448565b60243590336000526034602052604060002060018060a01b038216600052602052604060002054918083106102c657610267920390336118e3565b60405162461bcd60e51b815260206004820152602560248201527f45524332303a2064656372656173656420616c6c6f77616e63652062656c6f77604482015264207a65726f60d81b6064820152608490fd5b346101c15760003660031901126101c15761012d546040516001600160a01b039091168152602090f35b346101c15760003660031901126101c157604051600060375461036581611716565b808452906001908181169081156103f057506001146103a7575b6103a38461038f81860382611490565b604051918291602083526020830190611408565b0390f35b603760009081529250600080516020611cd28339815191525b8284106103d857505050810160200161038f8261037f565b805460208587018101919091529093019281016103c0565b60ff191660208087019190915292151560051b8501909201925061038f915083905061037f565b346101c15760003660031901126101c1576097546040516001600160a01b039091168152602090f35b346101c15760a03660031901126101c15760043567ffffffffffffffff81116101c157610471903690600401611505565b60243567ffffffffffffffff81116101c157610491903690600401611505565b6001600160a01b039060643580831690036101c1576084359282841684036101c1576000549260ff8460081c1615938480956109a7575b8015610990575b156109345760ff19811660011760005584610922575b5060ff61012e5460a01c166108e75761050e60ff60005460081c1661050981611b8d565b611b8d565b815167ffffffffffffffff81116107ea5761052a603654611716565b601f811161087e575b50806020601f821160011461080b57600091610800575b508160011b916000199060031b1c1916176036555b82519467ffffffffffffffff86116107ea5761057c603754611716565b601f811161077d575b50602095601f81116001146106e457908161067f9493927f66ade9796bf49316a9f90919f336baf2ab35f33f927c08e14e934bccdbddef7c9697986000916106d9575b508160011b916000199060031b1c1916176037555b6105fb60ff60005460081c166105f281611b8d565b61050981611b8d565b6106043361157b565b61061560ff60005460081c16611b8d565b816bffffffffffffffffffffffff60a01b9161012d826064351684825416179055169061012e54161761012e5561068d6044359561065587606435611bed565b61012e805460ff60a01b1916600160a01b1790556040516060808252909586959091860190611408565b908482036020860152611408565b94604083015260643516930390a26106a157005b61ff0019600054166000557f7f26b83ff96e1f2b6a682f133852f6798a09c465da95921460cefb3847402498602060405160018152a1005b9050870151896105c8565b6037600052600080516020611cd28339815191526000601f198316905b8181106107655750916001917f66ade9796bf49316a9f90919f336baf2ab35f33f927c08e14e934bccdbddef7c9798998261067f989796951061074c575b5050811b016037556105dd565b89015160001960f88460031b161c19169055898061073f565b878a015183556020998a019960019093019201610701565b6037600052601f870160051c600080516020611cd28339815191520190602088106107d4575b601f0160051c600080516020611cd283398151915201905b8181106107c85750610585565b600081556001016107bb565b600080516020611cd283398151915291506107a3565b634e487b7160e01b600052604160045260246000fd5b90508301518761054a565b91506036600052600080516020611c928339815191526000925b601f1983168410610866576001935082601f1981161061084d575b5050811b0160365561055f565b85015160001960f88460031b161c191690558780610840565b85810151825560209384019360019092019101610825565b6036600052601f820160051c600080516020611c9283398151915201602083106108d2575b601f820160051c600080516020611c928339815191520181106108c65750610533565b600081556001016108a3565b50600080516020611c928339815191526108a3565b60405162461bcd60e51b8152602060048201526013602482015272105b1c9958591e481a5b9a5d1a585b1a5e9959606a1b6044820152606490fd5b61ffff191661010117600055856104e5565b60405162461bcd60e51b815260206004820152602e60248201527f496e697469616c697a61626c653a20636f6e747261637420697320616c72656160448201526d191e481a5b9a5d1a585b1a5e995960921b6064820152608490fd5b50303b1580156104cf5750600160ff8216146104cf565b50600160ff8216106104c8565b346101c15760403660031901126101c1576109cd611448565b609754336001600160a01b0391821614908115610a36575b50156109f85761016b90602435906119e5565b60405162461bcd60e51b81526020600482015260166024820152752737ba1030baba3437b934bd32b2103a3790313ab93760511b6044820152606490fd5b905061012e54163314826109e5565b346101c15760003660031901126101c157610a5e611523565b609780546001600160a01b031981169091556000906001600160a01b03167f8be0079c531659141344cd1fd0a4f28419497f9722a3daafe3b4186f6b6457e08280a3005b346101c15760203660031901126101c157610abb611448565b610ac3611523565b61012e80546001600160a01b0319166001600160a01b03909216919091179055005b346101c15760203660031901126101c1576001600160a01b03610b06611448565b1660005260336020526020604060002054604051908152f35b346101c15760003660031901126101c1577f00000000000000000000000000000000000000000000000000000000000000006001600160a01b03163003610b78576020604051600080516020611cb28339815191528152f35b60405162461bcd60e51b815260206004820152603860248201527f555550535570677261646561626c653a206d757374206e6f742062652063616c60448201527f6c6564207468726f7567682064656c656761746563616c6c00000000000000006064820152608490fd5b60403660031901126101c157610bf7611448565b60243567ffffffffffffffff81116101c157366023820112156101c157610c289036906024816004013591016114ce565b6001600160a01b037f000000000000000000000000000000000000000000000000000000000000000081169190610c61308414156115c4565b610c7e600080516020611cb2833981519152938285541614611625565b610c86611523565b7f4910fdfa16fed3260ed0e7147f7cc6da11a60208b5b9406d12a635614ffd91435460ff1615610cbc5750505061016b90611686565b8316604051926352d1902d60e01b84526020938481600481865afa60009181610e73575b50610d415760405162461bcd60e51b815260048101869052602e60248201527f45524331393637557067726164653a206e657720696d706c656d656e7461746960448201526d6f6e206973206e6f74205555505360901b6064820152608490fd5b93929303610e1c57610d5284611686565b7fbc7cd75a20ee27fd9adebab32041f755214dbc6bffa90cc0225b39da2e5c2d3b600080a2815115801590610e14575b610d8857005b61016b9260008060405194610d9c86611474565b602786527f416464726573733a206c6f772d6c6576656c2064656c65676174652063616c6c85870152660819985a5b195960ca1b60408701528481519101845af4903d15610e0b573d610dee816114b2565b90610dfc6040519283611490565b8152600081943d92013e611af0565b60609250611af0565b506001610d82565b60405162461bcd60e51b815260048101839052602960248201527f45524331393637557067726164653a20756e737570706f727465642070726f786044820152681a58589b195555525160ba1b6064820152608490fd5b9091508581813d8311610e9b575b610e8b8183611490565b810103126101c157519087610ce0565b503d610e81565b346101c15760203660031901126101c15761016b600435336119e5565b346101c15760403660031901126101c157610ed8611448565b609754336001600160a01b0391821614908115610f41575b5015610f035761016b9060243590611bed565b60405162461bcd60e51b8152602060048201526016602482015275139bdd08185d5d1a1bdc9a5e9959081d1bc81b5a5b9d60521b6044820152606490fd5b905061012e5416331482610ef0565b346101c15760403660031901126101c157610267610f6c611448565b336000526034602052604060002060018060a01b038216600052602052610f9a602435604060002054611750565b90336118e3565b346101c15760003660031901126101c157602060ff61012e5460a01c166040519015158152f35b346101c1576020806003193601126101c157610fe2611448565b6001600160a01b03917f0000000000000000000000000000000000000000000000000000000000000000831661101a308214156115c4565b611037600080516020611cb2833981519152918583541614611625565b61103f611523565b604051908282019482861067ffffffffffffffff8711176107ea57856040526000835260ff7f4910fdfa16fed3260ed0e7147f7cc6da11a60208b5b9406d12a635614ffd9143541660001461109c575050505061016b9150611686565b8492939416906040516352d1902d60e01b81528581600481865afa6000918161122a575b506111215760405162461bcd60e51b815260048101879052602e60248201527f45524331393637557067726164653a206e657720696d706c656d656e7461746960448201526d6f6e206973206e6f74205555505360901b6064820152608490fd5b949394036111d35761113282611686565b7fbc7cd75a20ee27fd9adebab32041f755214dbc6bffa90cc0225b39da2e5c2d3b600080a28251158015906111cb575b61116857005b60008061016b956040519561117c87611474565b602787527f416464726573733a206c6f772d6c6576656c2064656c65676174652063616c6c86880152660819985a5b195960ca1b60408801525190845af4903d15610e0b573d610dee816114b2565b506000611162565b60405162461bcd60e51b815260048101849052602960248201527f45524331393637557067726164653a20756e737570706f727465642070726f786044820152681a58589b195555525160ba1b6064820152608490fd5b9091508681813d8311611252575b6112428183611490565b810103126101c1575190886110c0565b503d611238565b346101c15760003660031901126101c157602060405160128152f35b346101c15760603660031901126101c15761128e611448565b61129661145e565b6044359060018060a01b03831660005260346020526040600020336000526020526040600020549260001984036112d2575b6102679350611773565b8284106112ee576112e983610267950333836118e3565b6112c8565b60405162461bcd60e51b815260206004820152601d60248201527f45524332303a20696e73756666696369656e7420616c6c6f77616e63650000006044820152606490fd5b346101c15760003660031901126101c1576020603554604051908152f35b346101c15760403660031901126101c15761026761136d611448565b60243590336118e3565b346101c15760003660031901126101c157600060365461139681611716565b808452906001908181169081156103f057506001146113bf576103a38461038f81860382611490565b603660009081529250600080516020611c928339815191525b8284106113f057505050810160200161038f8261037f565b805460208587018101919091529093019281016113d8565b919082519283825260005b848110611434575050826000602080949584010152601f8019910116010190565b602081830181015184830182015201611413565b600435906001600160a01b03821682036101c157565b602435906001600160a01b03821682036101c157565b6060810190811067ffffffffffffffff8211176107ea57604052565b90601f8019910116810190811067ffffffffffffffff8211176107ea57604052565b67ffffffffffffffff81116107ea57601f01601f191660200190565b9291926114da826114b2565b916114e86040519384611490565b8294818452818301116101c1578281602093846000960137010152565b9080601f830112156101c157816020611520933591016114ce565b90565b6097546001600160a01b0316330361153757565b606460405162461bcd60e51b815260206004820152602060248201527f4f776e61626c653a2063616c6c6572206973206e6f7420746865206f776e65726044820152fd5b609780546001600160a01b039283166001600160a01b0319821681179092559091167f8be0079c531659141344cd1fd0a4f28419497f9722a3daafe3b4186f6b6457e0600080a3565b156115cb57565b60405162461bcd60e51b815260206004820152602c60248201527f46756e6374696f6e206d7573742062652063616c6c6564207468726f7567682060448201526b19195b1959d85d1958d85b1b60a21b6064820152608490fd5b1561162c57565b60405162461bcd60e51b815260206004820152602c60248201527f46756e6374696f6e206d7573742062652063616c6c6564207468726f7567682060448201526b6163746976652070726f787960a01b6064820152608490fd5b803b156116bb57600080516020611cb283398151915280546001600160a01b0319166001600160a01b03909216919091179055565b60405162461bcd60e51b815260206004820152602d60248201527f455243313936373a206e657720696d706c656d656e746174696f6e206973206e60448201526c1bdd08184818dbdb9d1c9858dd609a1b6064820152608490fd5b90600182811c92168015611746575b602083101461173057565b634e487b7160e01b600052602260045260246000fd5b91607f1691611725565b9190820180921161175d57565b634e487b7160e01b600052601160045260246000fd5b6001600160a01b03908116918215611890571691821561183f57600082815260336020526040812054918083106117eb57604082827fddf252ad1be2c89b69c2b068fc378daa952ba7f163c4a11628f55a4df523b3ef95876020965260338652038282205586815220818154019055604051908152a3565b60405162461bcd60e51b815260206004820152602660248201527f45524332303a207472616e7366657220616d6f756e7420657863656564732062604482015265616c616e636560d01b6064820152608490fd5b60405162461bcd60e51b815260206004820152602360248201527f45524332303a207472616e7366657220746f20746865207a65726f206164647260448201526265737360e81b6064820152608490fd5b60405162461bcd60e51b815260206004820152602560248201527f45524332303a207472616e736665722066726f6d20746865207a65726f206164604482015264647265737360d81b6064820152608490fd5b6001600160a01b0390811691821561199457169182156119445760207f8c5be1e5ebec7d5bd14f71427d1e84f3dd0314c0f7b2291e5b200ac8c7c3b925918360005260348252604060002085600052825280604060002055604051908152a3565b60405162461bcd60e51b815260206004820152602260248201527f45524332303a20617070726f766520746f20746865207a65726f206164647265604482015261737360f01b6064820152608490fd5b60405162461bcd60e51b8152602060048201526024808201527f45524332303a20617070726f76652066726f6d20746865207a65726f206164646044820152637265737360e01b6064820152608490fd5b6001600160a01b03168015611aa15780600052603360205260406000205491808310611a51576020817fddf252ad1be2c89b69c2b068fc378daa952ba7f163c4a11628f55a4df523b3ef92600095858752603384520360408620558060355403603555604051908152a3565b60405162461bcd60e51b815260206004820152602260248201527f45524332303a206275726e20616d6f756e7420657863656564732062616c616e604482015261636560f01b6064820152608490fd5b60405162461bcd60e51b815260206004820152602160248201527f45524332303a206275726e2066726f6d20746865207a65726f206164647265736044820152607360f81b6064820152608490fd5b91929015611b525750815115611b04575090565b3b15611b0d5790565b60405162461bcd60e51b815260206004820152601d60248201527f416464726573733a2063616c6c20746f206e6f6e2d636f6e74726163740000006044820152606490fd5b825190915015611b655750805190602001fd5b60405162461bcd60e51b815260206004820152908190611b89906024830190611408565b0390fd5b15611b9457565b60405162461bcd60e51b815260206004820152602b60248201527f496e697469616c697a61626c653a20636f6e7472616374206973206e6f74206960448201526a6e697469616c697a696e6760a81b6064820152608490fd5b6001600160a01b0316908115611c4c577fddf252ad1be2c89b69c2b068fc378daa952ba7f163c4a11628f55a4df523b3ef602082611c2f600094603554611750565b6035558484526033825260408420818154019055604051908152a3565b60405162461bcd60e51b815260206004820152601f60248201527f45524332303a206d696e7420746f20746865207a65726f2061646472657373006044820152606490fdfe4a11f94e20a93c79f6ec743a1954ec4fc2c08429ae2122118bf234b2185c81b8360894a13ba1a3210667c828492db98dca3e2076cc3735a920a3ca505d382bbc42a7b7dd785cd69714a189dffb3fd7d7174edc9ece837694ce50f7078f7c31aea26469706673582212205716e2a05c16866d5ef35d35a64c06d9a341a601e30b6dbd816770237d956daa64736f6c63430008110033",
  "linkReferences": {},
  "deployedLinkReferences": {}
}