{
  "_format": "hh-sol-artifact-1",
  "contractName": "ZodiacDAO",
  "sourceName": "contracts/ZodiacDAO.sol",
  "abi": [
    {
      "inputs": [],
      "stateMutability": "nonpayable",
      "type": "constructor"
    },
    {
      "anonymous": false,
      "inputs": [
        {
          "indexed": false,
          "internalType": "address",
          "name": "previousAdmin",
          "type": "address"
        },
        {
          "indexed": false,
          "internalType": "address",
          "name": "newAdmin",
          "type": "address"
        }
      ],
      "name": "AdminChanged",
      "type": "event"
    },
    {
      "anonymous": false,
      "inputs": [
        {
          "indexed": true,
          "internalType": "address",
          "name": "owner",
          "type": "address"
        },
        {
          "indexed": true,
          "internalType": "address",
          "name": "approved",
          "type": "address"
        },
        {
          "indexed": true,
          "internalType": "uint256",
          "name": "tokenId",
          "type": "uint256"
        }
      ],
      "name": "Approval",
      "type": "event"
    },
    {
      "anonymous": false,
      "inputs": [
        {
          "indexed": true,
          "internalType": "address",
          "name": "owner",
          "type": "address"
        },
        {
          "indexed": true,
          "internalType": "address",
          "name": "operator",
          "type": "address"
        },
        {
          "indexed": false,
          "internalType": "bool",
          "name": "approved",
          "type": "bool"
        }
      ],
      "name": "ApprovalForAll",
      "type": "event"
    },
    {
      "anonymous": false,
      "inputs": [
        {
          "indexed": false,
          "internalType": "uint256",
          "name": "_fromTokenId",
          "type": "uint256"
        },
        {
          "indexed": false,
          "internalType": "uint256",
          "name": "_toTokenId",
          "type": "uint256"
        }
      ],
      "name": "BatchMetadataUpdate",
      "type": "event"
    },
    {
      "anonymous": false,
      "inputs": [
        {
          "indexed": true,
          "internalType": "address",
          "name": "beacon",
          "type": "address"
        }
      ],
      "name": "BeaconUpgraded",
      "type": "event"
    },
    {
      "anonymous": false,
      "inputs": [
        {
          "indexed": false,
          "internalType": "uint8",
          "name": "version",
          "type": "uint8"
        }
      ],
      "name": "Initialized",
      "type": "event"
    },
    {
      "anonymous": false,
      "inputs": [
        {
          "indexed": true,
          "internalType": "uint256",
          "name": "daoId",
          "type": "uint256"
        },
        {
          "indexed": true,
          "internalType": "uint256",
          "name": "tokenId",
          "type": "uint256"
        },
        {
          "indexed": true,
          "internalType": "address",
          "name": "member",
          "type": "address"
        },
        {
          "indexed": false,
          "internalType": "enum ZodiacDAO.ZodiacSign",
          "name": "zodiacSign",
          "type": "uint8"
        }
      ],
      "name": "MemberJoined",
      "type": "event"
    },
    {
      "anonymous": false,
      "inputs": [
        {
          "indexed": true,
          "internalType": "uint256",
          "name": "daoId",
          "type": "uint256"
        },
        {
          "indexed": true,
          "internalType": "uint256",
          "name": "tokenId",
          "type": "uint256"
        },
        {
          "indexed": true,
          "internalType": "address",
          "name": "member",
          "type": "address"
        }
      ],
      "name": "MemberLeft",
      "type": "event"
    },
    {
      "anonymous": false,
      "inputs": [
        {
          "indexed": false,
          "internalType": "uint256",
          "name": "_tokenId",
          "type": "uint256"
        }
      ],
      "name": "MetadataUpdate",
      "type": "event"
    },
    {
      "anonymous": false,
      "inputs": [
        {
          "indexed": true,
          "internalType": "address",
          "name": "previousOwner",
          "type": "address"
        },
        {
          "indexed": true,
          "internalType": "address",
          "name": "newOwner",
          "type": "address"
        }
      ],
      "name": "OwnershipTransferred",
      "type": "event"
    },
    {
      "anonymous": false,
      "inputs": [
        {
          "indexed": true,
          "internalType": "address",
          "name": "from",
          "type": "address"
        },
        {
          "indexed": true,
          "internalType": "address",
          "name": "to",
          "type": "address"
        },
        {
          "indexed": true,
          "internalType": "uint256",
          "name": "tokenId",
          "type": "uint256"
        }
      ],
      "name": "Transfer",
      "type": "event"
    },
    {
      "anonymous": false,
      "inputs": [
        {
          "indexed": true,
          "internalType": "address",
          "name": "implementation",
          "type": "address"
        }
      ],
      "name": "Upgraded",
      "type": "event"
    },
    {
      "anonymous": false,
      "inputs": [
        {
          "indexed": true,
          "internalType": "uint256",
          "name": "daoId",
          "type": "uint256"
        },
        {
          "indexed": false,
          "internalType": "enum ZodiacDAO.ZodiacSign",
          "name": "zodiacSign",
          "type": "uint8"
        },
        {
          "indexed": false,
          "internalType": "string",
          "name": "name",
          "type": "string"
        },
        {
          "indexed": false,
          "internalType": "uint256",
          "name": "membershipPrice",
          "type": "uint256"
        }
      ],
      "name": "ZodiacDAOCreated",
      "type": "event"
    },
    {
      "inputs": [
        {
          "internalType": "address",
          "name": "to",
          "type": "address"
        },
        {
          "internalType": "uint256",
          "name": "tokenId",
          "type": "uint256"
        }
      ],
      "name": "approve",
      "outputs": [],
      "stateMutability": "nonpayable",
      "type": "function"
    },
    {
      "inputs": [
        {
          "internalType": "address",
          "name": "owner",
          "type": "address"
        }
      ],
      "name": "balanceOf",
      "outputs": [
        {
          "internalType": "uint256",
          "name": "",
          "type": "uint256"
        }
      ],
      "stateMutability": "view",
      "type": "function"
    },
    {
      "inputs": [
        {
          "internalType": "enum ZodiacDAO.ZodiacSign",
          "name": "_zodiacSign",
          "type": "uint8"
        },
        {
          "internalType": "string",
          "name": "_name",
          "type": "string"
        },
        {
          "internalType": "string",
          "name": "_description",
          "type": "string"
        },
        {
          "internalType": "uint256",
          "name": "_membershipPrice",
          "type": "uint256"
        },
        {
          "internalType": "uint256",
          "name": "_maxMembers",
          "type": "uint256"
        },
        {
          "internalType": "address",
          "name": "_treasury",
          "type": "address"
        }
      ],
      "name": "createZodiacDAO",
      "outputs": [
        {
          "internalType": "uint256",
          "name": "",
          "type": "uint256"
        }
      ],
      "stateMutability": "nonpayable",
      "type": "function"
    },
    {
      "inputs": [
        {
          "internalType": "uint256",
          "name": "tokenId",
          "type": "uint256"
        }
      ],
      "name": "getApproved",
      "outputs": [
        {
          "internalType": "address",
          "name": "",
          "type": "address"
        }
      ],
      "stateMutability": "view",
      "type": "function"
    },
    {
      "inputs": [
        {
          "internalType": "enum ZodiacDAO.ZodiacSign",
          "name": "_zodiacSign",
          "type": "uint8"
        }
      ],
      "name": "getDAOByZodiac",
      "outputs": [
        {
          "components": [
            {
              "internalType": "enum ZodiacDAO.ZodiacSign",
              "name": "zodiacSign",
              "type": "uint8"
            },
            {
              "internalType": "string",
              "name": "name",
              "type": "string"
            },
            {
              "internalType": "string",
              "name": "description",
              "type": "string"
            },
            {
              "internalType": "uint256",
              "name": "membershipPrice",
              "type": "uint256"
            },
            {
              "internalType": "uint256",
              "name": "maxMembers",
              "type": "uint256"
            },
            {
              "internalType": "uint256",
              "name": "currentMembers",
              "type": "uint256"
            },
            {
              "internalType": "bool",
              "name": "isActive",
              "type": "bool"
            },
            {
              "internalType": "address",
              "name": "treasury",
              "type": "address"
            }
          ],
          "internalType": "struct ZodiacDAO.ZodiacDAOInfo",
          "name": "",
          "type": "tuple"
        }
      ],
      "stateMutability": "view",
      "type": "function"
    },
    {
      "inputs": [
        {
          "internalType": "uint256",
          "name": "tokenId",
          "type": "uint256"
        }
      ],
      "name": "getMembership",
      "outputs": [
        {
          "components": [
            {
              "internalType": "uint256",
              "name": "tokenId",
              "type": "uint256"
            },
            {
              "internalType": "enum ZodiacDAO.ZodiacSign",
              "name": "zodiacSign",
              "type": "uint8"
            },
            {
              "internalType": "uint256",
              "name": "joinedAt",
              "type": "uint256"
            },
            {
              "internalType": "uint256",
              "name": "reputation",
              "type": "uint256"
            },
            {
              "internalType": "bool",
              "name": "isActive",
              "type": "bool"
            }
          ],
          "internalType": "struct ZodiacDAO.Membership",
          "name": "",
          "type": "tuple"
        }
      ],
      "stateMutability": "view",
      "type": "function"
    },
    {
      "inputs": [
        {
          "internalType": "address",
          "name": "user",
          "type": "address"
        }
      ],
      "name": "getUserMemberships",
      "outputs": [
        {
          "internalType": "uint256[]",
          "name": "",
          "type": "uint256[]"
        }
      ],
      "stateMutability": "view",
      "type": "function"
    },
    {
      "inputs": [
        {
          "internalType": "uint256",
          "name": "daoId",
          "type": "uint256"
        }
      ],
      "name": "getZodiacDAO",
      "outputs": [
        {
          "components": [
            {
              "internalType": "enum ZodiacDAO.ZodiacSign",
              "name": "zodiacSign",
              "type": "uint8"
            },
            {
              "internalType": "string",
              "name": "name",
              "type": "string"
            },
            {
              "internalType": "string",
              "name": "description",
              "type": "string"
            },
            {
              "internalType": "uint256",
              "name": "membershipPrice",
              "type": "uint256"
            },
            {
              "internalType": "uint256",
              "name": "maxMembers",
              "type": "uint256"
            },
            {
              "internalType": "uint256",
              "name": "currentMembers",
              "type": "uint256"
            },
            {
              "internalType": "bool",
              "name": "isActive",
              "type": "bool"
            },
            {
              "internalType": "address",
              "name": "treasury",
              "type": "address"
            }
          ],
          "internalType": "struct ZodiacDAO.ZodiacDAOInfo",
          "name": "",
          "type": "tuple"
        }
      ],
      "stateMutability": "view",
      "type": "function"
    },
    {
      "inputs": [
        {
          "internalType": "string",
          "name": "name",
          "type": "string"
        },
        {
          "internalType": "string",
          "name": "symbol",
          "type": "string"
        }
      ],
      "name": "initialize",
      "outputs": [],
      "stateMutability": "nonpayable",
      "type": "function"
    },
    {
      "inputs": [
        {
          "internalType": "address",
          "name": "owner",
          "type": "address"
        },
        {
          "internalType": "address",
          "name": "operator",
          "type": "address"
        }
      ],
      "name": "isApprovedForAll",
      "outputs": [
        {
          "internalType": "bool",
          "name": "",
          "type": "bool"
        }
      ],
      "stateMutability": "view",
      "type": "function"
    },
    {
      "inputs": [
        {
          "internalType": "enum ZodiacDAO.ZodiacSign",
          "name": "_zodiacSign",
          "type": "uint8"
        },
        {
          "internalType": "string",
          "name": "_tokenURI",
          "type": "string"
        }
      ],
      "name": "joinZodiacDAO",
      "outputs": [
        {
          "internalType": "uint256",
          "name": "",
          "type": "uint256"
        }
      ],
      "stateMutability": "payable",
      "type": "function"
    },
    {
      "inputs": [
        {
          "internalType": "uint256",
          "name": "tokenId",
          "type": "uint256"
        }
      ],
      "name": "leaveZodiacDAO",
      "outputs": [],
      "stateMutability": "nonpayable",
      "type": "function"
    },
    {
      "inputs": [
        {
          "internalType": "uint256",
          "name": "",
          "type": "uint256"
        }
      ],
      "name": "memberships",
      "outputs": [
        {
          "internalType": "uint256",
          "name": "tokenId",
          "type": "uint256"
        },
        {
          "internalType": "enum ZodiacDAO.ZodiacSign",
          "name": "zodiacSign",
          "type": "uint8"
        },
        {
          "internalType": "uint256",
          "name": "joinedAt",
          "type": "uint256"
        },
        {
          "internalType": "uint256",
          "name": "reputation",
          "type": "uint256"
        },
        {
          "internalType": "bool",
          "name": "isActive",
          "type": "bool"
        }
      ],
      "stateMutability": "view",
      "type": "function"
    },
    {
      "inputs": [],
      "name": "name",
      "outputs": [
        {
          "internalType": "string",
          "name": "",
          "type": "string"
        }
      ],
      "stateMutability": "view",
      "type": "function"
    },
    {
      "inputs": [],
      "name": "owner",
      "outputs": [
        {
          "internalType": "address",
          "name": "",
          "type": "address"
        }
      ],
      "stateMutability": "view",
      "type": "function"
    },
    {
      "inputs": [
        {
          "internalType": "uint256",
          "name": "tokenId",
          "type": "uint256"
        }
      ],
      "name": "ownerOf",
      "outputs": [
        {
          "internalType": "address",
          "name": "",
          "type": "address"
        }
      ],
      "stateMutability": "view",
      "type": "function"
    },
    {
      "inputs": [],
      "name": "proxiableUUID",
      "outputs": [
        {
          "internalType": "bytes32",
          "name": "",
          "type": "bytes32"
        }
      ],
      "stateMutability": "view",
      "type": "function"
    },
    {
      "inputs": [],
      "name": "renounceOwnership",
      "outputs": [],
      "stateMutability": "nonpayable",
      "type": "function"
    },
    {
      "inputs": [
        {
          "internalType": "address",
          "name": "from",
          "type": "address"
        },
        {
          "internalType": "address",
          "name": "to",
          "type": "address"
        },
        {
          "internalType": "uint256",
          "name": "tokenId",
          "type": "uint256"
        }
      ],
      "name": "safeTransferFrom",
      "outputs": [],
      "stateMutability": "nonpayable",
      "type": "function"
    },
    {
      "inputs": [
        {
          "internalType": "address",
          "name": "from",
          "type": "address"
        },
        {
          "internalType": "address",
          "name": "to",
          "type": "address"
        },
        {
          "internalType": "uint256",
          "name": "tokenId",
          "type": "uint256"
        },
        {
          "internalType": "bytes",
          "name": "data",
          "type": "bytes"
        }
      ],
      "name": "safeTransferFrom",
      "outputs": [],
      "stateMutability": "nonpayable",
      "type": "function"
    },
    {
      "inputs": [
        {
          "internalType": "address",
          "name": "operator",
          "type": "address"
        },
        {
          "internalType": "bool",
          "name": "approved",
          "type": "bool"
        }
      ],
      "name": "setApprovalForAll",
      "outputs": [],
      "stateMutability": "nonpayable",
      "type": "function"
    },
    {
      "inputs": [
        {
          "internalType": "uint256",
          "name": "daoId",
          "type": "uint256"
        },
        {
          "internalType": "uint256",
          "name": "_newPrice",
          "type": "uint256"
        }
      ],
      "name": "setDAOMembershipPrice",
      "outputs": [],
      "stateMutability": "nonpayable",
      "type": "function"
    },
    {
      "inputs": [
        {
          "internalType": "uint256",
          "name": "daoId",
          "type": "uint256"
        },
        {
          "internalType": "address",
          "name": "_treasury",
          "type": "address"
        }
      ],
      "name": "setDAOTreasury",
      "outputs": [],
      "stateMutability": "nonpayable",
      "type": "function"
    },
    {
      "inputs": [
        {
          "internalType": "bytes4",
          "name": "interfaceId",
          "type": "bytes4"
        }
      ],
      "name": "supportsInterface",
      "outputs": [
        {
          "internalType": "bool",
          "name": "",
          "type": "bool"
        }
      ],
      "stateMutability": "view",
      "type": "function"
    },
    {
      "inputs": [],
      "name": "symbol",
      "outputs": [
        {
          "internalType": "string",
          "name": "",
          "type": "string"
        }
      ],
      "stateMutability": "view",
      "type": "function"
    },
    {
      "inputs": [
        {
          "internalType": "uint256",
          "name": "daoId",
          "type": "uint256"
        }
      ],
      "name": "toggleDAOActive",
      "outputs": [],
      "stateMutability": "nonpayable",
      "type": "function"
    },
    {
      "inputs": [
        {
          "internalType": "uint256",
          "name": "tokenId",
          "type": "uint256"
        }
      ],
      "name": "tokenURI",
      "outputs": [
        {
          "internalType": "string",
          "name": "",
          "type": "string"
        }
      ],
      "stateMutability": "view",
      "type": "function"
    },
    {
      "inputs": [],
      "name": "totalDAOs",
      "outputs": [
        {
          "internalType": "uint256",
          "name": "",
          "type": "uint256"
        }
      ],
      "stateMutability": "view",
      "type": "function"
    },
    {
      "inputs": [
        {
          "internalType": "address",
          "name": "from",
          "type": "address"
        },
        {
          "internalType": "address",
          "name": "to",
          "type": "address"
        },
        {
          "internalType": "uint256",
          "name": "tokenId",
          "type": "uint256"
        }
      ],
      "name": "transferFrom",
      "outputs": [],
      "stateMutability": "nonpayable",
      "type": "function"
    },
    {
      "inputs": [
        {
          "internalType": "address",
          "name": "newOwner",
          "type": "address"
        }
      ],
      "name": "transferOwnership",
      "outputs": [],
      "stateMutability": "nonpayable",
      "type": "function"
    },
    {
      "inputs": [
        {
          "internalType": "uint256",
          "name": "tokenId",
          "type": "uint256"
        },
        {
          "internalType": "uint256",
          "name": "newReputation",
          "type": "uint256"
        }
      ],
      "name": "updateReputation",
      "outputs": [],
      "stateMutability": "nonpayable",
      "type": "function"
    },
    {
      "inputs": [
        {
          "internalType": "address",
          "name": "newImplementation",
          "type": "address"
        }
      ],
      "name": "upgradeTo",
      "outputs": [],
      "stateMutability": "nonpayable",
      "type": "function"
    },
    {
      "inputs": [
        {
          "internalType": "address",
          "name": "newImplementation",
          "type": "address"
        },
        {
          "internalType": "bytes",
          "name": "data",
          "type": "bytes"
        }
      ],
      "name": "upgradeToAndCall",
      "outputs": [],
      "stateMutability": "payable",
      "type": "function"
    },
    {
      "inputs": [
        {
          "internalType": "address",
          "name": "",
          "type": "address"
        },
        {
          "internalType": "uint256",
          "name": "",
          "type": "uint256"
        }
      ],
      "name": "userMemberships",
      "outputs": [
        {
          "internalType": "uint256",
          "name": "",
          "type": "uint256"
        }
      ],
      "stateMutability": "view",
      "type": "function"
    },
    {
      "inputs": [
        {
          "internalType": "uint256",
          "name": "",
          "type": "uint256"
        }
      ],
      "name": "zodiacDAOs",
      "outputs": [
        {
          "internalType": "enum ZodiacDAO.ZodiacSign",
          "name": "zodiacSign",
          "type": "uint8"
        },
        {
          "internalType": "string",
          "name": "name",
          "type": "string"
        },
        {
          "internalType": "string",
          "name": "description",
          "type": "string"
        },
        {
          "internalType": "uint256",
          "name": "membershipPrice",
          "type": "uint256"
        },
        {
          "internalType": "uint256",
          "name": "maxMembers",
          "type": "uint256"
        },
        {
          "internalType": "uint256",
          "name": "currentMembers",
          "type": "uint256"
        },
        {
          "internalType": "bool",
          "name": "isActive",
          "type": "bool"
        },
        {
          "internalType": "address",
          "name": "treasury",
          "type": "address"
        }
      ],
      "stateMutability": "view",
      "type": "function"
    },
    {
      "inputs": [
        {
          "internalType": "enum ZodiacDAO.ZodiacSign",
          "name": "",
          "type": "uint8"
        }
      ],
      "name": "zodiacToDAOId",
      "outputs": [
        {
          "internalType": "uint256",
          "name": "",
          "type": "uint256"
        }
      ],
      "stateMutability": "view",
      "type": "function"
    }
  ],
  "bytecode": "0x60a080604052346100dd57306080526000549060ff8260081c1661008b575060ff80821603610050575b60405161336a9081620000e3823960805181818161166f0152818161175e0152611fc90152f35b60ff90811916176000557f7f26b83ff96e1f2b6a682f133852f6798a09c465da95921460cefb3847402498602060405160ff8152a138610029565b62461bcd60e51b815260206004820152602760248201527f496e697469616c697a61626c653a20636f6e747261637420697320696e697469604482015266616c697a696e6760c81b6064820152608490fd5b600080fdfe608080604052600436101561001357600080fd5b60003560e01c90816301ffc9a714612587575080630675f763146124e657806306fdde0314612440578063081812fc14612422578063095ea7b3146122a85780630b1fe3aa1461224f57806313d76ca3146121ee57806323b872dd146121ca578063321621d7146121615780633659cfe614611fa457806338fbf2c614611eba57806342842e0e14611e87578063471882b714611dd25780634cd88b76146119de5780634ecb30d0146119a35780634f1ef2861461172057806352d1902d1461165c578063593052bd146110d15780636352211e146110a1578063638d95a81461105457806370a0823114610fbd578063715018a614610f6057806375e10a4814610a2e5780638da5cb5b14610a0557806395d89b4114610923578063a22cb46514610848578063b88d4fde146107d4578063bb3fb995146107b5578063c33e49101461077f578063c87b56dd1461070d578063d59be21c1461068f578063db663e22146105d1578063e3f5309014610370578063e985e9c51461031a578063f2fde38b1461028b5763fd9ad2a0146101ab57600080fd5b34610286576020366003190112610286576004356101c7613297565b5080151580610279575b6101da906132d7565b60005261016060205261027560406000206006604051916101fa83612719565b61020860ff82541684613188565b610214600182016128c8565b6020840152610225600282016128c8565b6040848101919091526003820154606085015260048201546080850152600582015460a085015291015460ff8116151560c084015260081c6001600160a01b031660e083015251918291826127ee565b0390f35b50610164548111156101d1565b600080fd5b34610286576020366003190112610286576102a4612662565b6102ac61296e565b6001600160a01b038116156102c6576102c4906129c6565b005b60405162461bcd60e51b815260206004820152602660248201527f4f776e61626c653a206e6577206f776e657220697320746865207a65726f206160448201526564647265737360d01b6064820152608490fd5b3461028657604036600319011261028657610333612662565b61033b612678565b9060018060a01b03809116600052606a60205260406000209116600052602052602060ff604060002054166040519015158152f35b3461028657602080600319360112610286576004356000818152606760205260409020546103ad906001600160a01b03161515613254565b613254565b6103b681612bad565b6001600160a01b039290339084160361059b57816000526101618152604060002092600484019384549060ff82161561055e57906103fc60ff6001600594015416612874565b549586600052610160855260406000209160ff1916905501805480156105485784926000928319809301905561043184612bad565b5061043b84612bad565b908484526069865260408420916001600160601b0360a01b928381541690551691828452606886526040842090815401905583835260678552604083209081541690557fddf252ad1be2c89b69c2b068fc378daa952ba7f163c4a11628f55a4df523b3ef8280a4609781526104b460406000205461288e565b6104e3575b5033917fa05f1035cb94bbea220c2a349d3fd5e7dd03370642af8314388472914c305066600080a4005b816000526097815260406000206104fa815461288e565b80610507575b50506104b9565b600092601f8211600114610521575050555b828080610500565b61053e84928484526001601f848620920160051c82019101613162565b8120915555610519565b634e487b7160e01b600052601160045260246000fd5b60405162461bcd60e51b81526004810185905260156024820152744d656d62657273686970206e6f742061637469766560581b6044820152606490fd5b6064906040519062461bcd60e51b82526004820152600f60248201526e2737ba103a37b5b2b71037bbb732b960891b6044820152fd5b346102865760203660031901126102865760043560005261016060205261063e604060002060ff81541690610608600182016128c8565b610614600283016128c8565b9160038101549261065d60048301549161064f6006600586015495015495604051998a809a6126f1565b6101008060208b0152890190612622565b908782036040890152612622565b6060860194909452608085015260a084015260ff8116151560c084015260081c6001600160a01b031660e08301520390f35b34610286576040366003190112610286576102c46004356106ae612678565b906106b761296e565b80151580610700575b6106c9906132d7565b6000908152610160602052604090206006018054610100600160a81b03191660089290921b610100600160a81b0316919091179055565b50610164548111156106c0565b3461028657602036600319011261028657600435600081815260676020526040902054610744906001600160a01b03161515612b61565b600052609760205261027561075c60406000206128c8565b600060405161076a81612735565b52604051918291602083526020830190612622565b3461028657602036600319011261028657600435600c811015610286576000526101636020526020604060002054604051908152f35b3461028657600036600319011261028657602061016454604051908152f35b34610286576080366003190112610286576107ed612662565b6107f5612678565b90606435906044356001600160401b038311610286576102c4936108206108439436906004016127a7565b9261083361082e8433612cea565b612c11565b61083e838383612db2565b612fee565b612cc6565b3461028657604036600319011261028657610861612662565b6024359081151590818303610286576001600160a01b0316913383146108de576108b09033600052606a60205260406000208460005260205260406000209060ff801983541691151516179055565b6040519081527f17307eab39ab6107e8899845ad3d59bd9653f200f220920489ca2b5937696c3160203392a3005b60405162461bcd60e51b815260206004820152601960248201527f4552433732313a20617070726f766520746f2063616c6c6572000000000000006044820152606490fd5b346102865760003660031901126102865760405160006066546109458161288e565b808452906001908181169081156109de5750600114610983575b6102758461096f8186038261276b565b604051918291602083526020830190612622565b6066600090815292507f46501879b8ca8525e8c2fd519e2fbfcfa2ebea26501294aa02cbfcfb12e943545b8284106109c657505050810160200161096f8261095f565b805460208587018101919091529093019281016109ae565b60ff191660208087019190915292151560051b8501909201925061096f915083905061095f565b346102865760003660031901126102865760c9546040516001600160a01b039091168152602090f35b346102865760c036600319011261028657600c6004351015610286576024356001600160401b03811161028657610a699036906004016127a7565b6044356001600160401b03811161028657610a889036906004016127a7565b60a4356001600160a01b0381169081900361028657610aa561296e565b608435928315610f1057610aba600435612874565b54610ebb57805115610e7f5761016492610ad48454613179565b80945560405192610ae484612719565b610af060043585613188565b60208401958387526040850192835260643560608601526080850152600060a0850152600160c085015260e0840152836000526101606020526040600020948351600c811015610e6957610b449087613194565b5180516001600160401b038111610db057806001880192610b65845461288e565b601f8111610e37575b50602090601f8311600114610dd157600092610dc6575b50508160011b916000199060031b1c19161790555b51918251946001600160401b038611610db0576020958594610bbf600284015461288e565b601f8111610d72575b508790601f8311600114610cd5577f57710422b78382f9a0ffde544d6d1b6e9d9bcaed18c5193e6b69cf1f5651086e959383610c8894610cb79794600694600092610cca575b50508160011b916000199060031b1c19161760028201555b606083015160038201556080830151600482015560a083015160058201550190610c6260c08201511515839060ff801983541691151516179055565b60e001518154610100600160a81b03191660089190911b610100600160a81b0316179055565b83610c94600435612874565b55604051918291610ca7836004356126f1565b6060888401526060830190612622565b60643560408301520390a2604051908152f35b015190508c80610c0e565b9060028401600052886000209160005b601f1985168110610d58575093600184610cb797946006947f57710422b78382f9a0ffde544d6d1b6e9d9bcaed18c5193e6b69cf1f5651086e9a98610c8898601f19811610610d3f575b505050811b016002820155610c26565b015160001960f88460031b161c191690558c8080610d2f565b818301518455899850600190930192918a01918a01610ce5565b610da0906002850160005289600020601f850160051c8101918b8610610da6575b601f0160051c0190613162565b88610bc8565b9091508190610d93565b634e487b7160e01b600052604160045260246000fd5b015190508880610b85565b6000858152602081209350601f198516905b818110610e1f5750908460019594939210610e06575b505050811b019055610b9a565b015160001960f88460031b161c19169055888080610df9565b92936020600181928786015181550195019301610de3565b610e6390856000526020600020601f850160051c81019160208610610da657601f0160051c0190613162565b89610b6e565b634e487b7160e01b600052602160045260246000fd5b60405162461bcd60e51b81526020600482015260146024820152734e616d652063616e6e6f7420626520656d70747960601b6044820152606490fd5b60405162461bcd60e51b815260206004820152602760248201527f44414f20616c72656164792065786973747320666f722074686973207a6f646960448201526630b19039b4b3b760c91b6064820152608490fd5b60405162461bcd60e51b815260206004820152602260248201527f4d6178206d656d62657273206d7573742062652067726561746572207468616e604482015261020360f41b6064820152608490fd5b3461028657600036600319011261028657610f7961296e565b60c980546001600160a01b031981169091556000906001600160a01b03167f8be0079c531659141344cd1fd0a4f28419497f9722a3daafe3b4186f6b6457e08280a3005b34610286576020366003190112610286576001600160a01b03610fde612662565b168015610ffd5760005260686020526020604060002054604051908152f35b60405162461bcd60e51b815260206004820152602960248201527f4552433732313a2061646472657373207a65726f206973206e6f7420612076616044820152683634b21037bbb732b960b91b6064820152608490fd5b34610286576110623661260c565b9061106b61296e565b80151580611094575b61107d906132d7565b600052610160602052600360406000200155600080f35b5061016454811115611074565b346102865760203660031901126102865760206110bf600435612bad565b6040516001600160a01b039091168152f35b604036600319011261028657600435600c811015610286576024906001600160401b039082358281116102865761110c9036906004016127a7565b61111582612874565b54906111228215156131ac565b816000526020946101608652604060002091600683019260ff845416156116245760058101908154600482015411156115f2576003015434106115b75760019161015f978389540180995560405161117981612735565b6000815233156115755760008a81526067602052604090205461123491610843916111b0906001600160a01b031615155b15613208565b60008c8152606760205260409020546111d3906001600160a01b031615156111aa565b3360005260688d5260406000208781540190558b60005260678d526040600020336001600160601b0360a01b8254161790558b3360007fddf252ad1be2c89b69c2b068fc378daa952ba7f163c4a11628f55a4df523b3ef8180a48b33612ef3565b6000898152606760205260409020546001600160a01b03161561151a578860005260978a526040600020918051918211611505578190611274845461288e565b8c601f82116114d4575b50508b90601f831160011461146f57600092611464575b5050600019600383901b1c191690841b1790555b7ff8e1a15aba9398e019f0b49df1a4fde98ee17ae345cb5f6b5e2c27f5033e8ce788604051898152a16112dc8154613179565b90556040516112ea816126fe565b8681528781016112fa8782613188565b6040820142815260608301906000825260808401928584528a6000526101618c5260406000209451855551600c81101561144f5791849391611343600494886113659801613194565b51600285015551600384015551151591019060ff801983541691151516179055565b3360005261016287526040600020908154926801000000000000000084101561143b575082879594939261139d92879401815561268e565b819291549060031b600019811b9283911b1691191617905560018060a01b03905460081c1680611403575b506113d660405180946126f1565b7f5455d1cd47854a69d6e82c1794dfb999e5d451c0ddde32dd70d0c2ef1d452308853394a4604051908152f35b60008080939450809281903415611431575b3491f115611425578290856113c8565b6040513d6000823e3d90fd5b6108fc9150611415565b634e487b7160e01b60009081526041600452fd5b86634e487b7160e01b60005260216004526000fd5b015190508b80611295565b60008581528d8120889550929190601f198516908f5b8282106114bb57505084116114a2575b505050811b0190556112a9565b015160001960f88460031b161c191690558b8080611495565b8484015186558a97909501949384019390810190611485565b6114fe91866000528160002090601f860160051c8201928610610da657601f0160051c0190613162565b8c8c61127e565b85634e487b7160e01b60005260416004526000fd5b60405162461bcd60e51b8152600481018b9052602e818701527f45524337323155524953746f726167653a2055524920736574206f66206e6f6e60448201526d32bc34b9ba32b73a103a37b5b2b760911b6064820152608490fd5b6064868c6040519162461bcd60e51b83528160048401528201527f4552433732313a206d696e7420746f20746865207a65726f20616464726573736044820152fd5b60405162461bcd60e51b81526004810189905260148185015273125b9cdd59999a58da595b9d081c185e5b595b9d60621b6044820152606490fd5b60405162461bcd60e51b8152600481018a9052600b818601526a111053c81a5cc8199d5b1b60aa1b6044820152606490fd5b60405162461bcd60e51b8152600481018990526011818501527044414f206973206e6f742061637469766560781b6044820152606490fd5b34610286576000366003190112610286577f00000000000000000000000000000000000000000000000000000000000000006001600160a01b031630036116b55760206040516000805160206133158339815191528152f35b60405162461bcd60e51b815260206004820152603860248201527f555550535570677261646561626c653a206d757374206e6f742062652063616c60448201527f6c6564207468726f7567682064656c656761746563616c6c00000000000000006064820152608490fd5b604036600319011261028657611734612662565b6024356001600160401b038111610286576117539036906004016127a7565b906001600160a01b037f000000000000000000000000000000000000000000000000000000000000000081169061178c30831415612a0f565b6117a9600080516020613315833981519152928284541614612a70565b6117b161296e565b7f4910fdfa16fed3260ed0e7147f7cc6da11a60208b5b9406d12a635614ffd91435460ff16156117e75750506102c49150612ad1565b6040516352d1902d60e01b81526020939291831691908481600481865afa60009181611974575b5061186f5760405162461bcd60e51b815260048101869052602e60248201527f45524331393637557067726164653a206e657720696d706c656d656e7461746960448201526d6f6e206973206e6f74205555505360901b6064820152608490fd5b0361191d5761187d82612ad1565b7fbc7cd75a20ee27fd9adebab32041f755214dbc6bffa90cc0225b39da2e5c2d3b600080a2825115801590611915575b6118b357005b6000806102c494604051946118c786612750565b602786527f416464726573733a206c6f772d6c6576656c2064656c65676174652063616c6c81870152660819985a5b195960ca1b604087015281519101845af461190f612ec3565b91613069565b5060016118ad565b60405162461bcd60e51b815260048101849052602960248201527f45524331393637557067726164653a20756e737570706f727465642070726f786044820152681a58589b195555525160ba1b6064820152608490fd5b9091508581813d831161199c575b61198c818361276b565b810103126102865751908761180e565b503d611982565b3461028657602036600319011261028657600435600c811015610286576119d2906119cc613297565b50612874565b546101da8115156131ac565b34610286576040366003190112610286576001600160401b0360043581811161028657611a0f9036906004016127a7565b9060243581811161028657611a289036906004016127a7565b906000549160ff91828460081c161591828093611dc6575b8015611db0575b15611d5457600194838660ff19831617600055611d42575b50611a798460005460081c16611a7481613102565b613102565b8551828111610db05780611a8e60655461288e565b97601f98898111611cf5575b50602090898311600114611c7357600092611c68575b5050600019600383901b1c191690861b176065555b8051918211610db057611ad960665461288e565b868111611c11575b506020958211600114611b8f57948192939495600092611b84575b5050600019600383901b1c191690841b176066555b611b2e8260005460081c16611b2581613102565b611a7481613102565b611b37336129c6565b611b48600054928360081c16613102565b611b4e57005b61ff0019166000556040519081527f7f26b83ff96e1f2b6a682f133852f6798a09c465da95921460cefb384740249890602090a1005b015190508580611afc565b601f1982169560666000527f46501879b8ca8525e8c2fd519e2fbfcfa2ebea26501294aa02cbfcfb12e943549160005b888110611bfb57508387989795969710611be2575b505050811b01606655611b11565b015160001960f88460031b161c19169055858080611bd4565b8183015184559287019260209283019201611bbf565b611c599060666000527f46501879b8ca8525e8c2fd519e2fbfcfa2ebea26501294aa02cbfcfb12e943548880860160051c82019260208710611c5f575b0160051c0190613162565b86611ae1565b92508192611c4e565b015190508880611ab0565b90889350601f1983169160656000527f8ff97419363ffd7000167f130ef7168fbea05faf9251824ca5043f113cc6a7c79260005b818110611cdd57508411611cc4575b505050811b01606555611ac5565b015160001960f88460031b161c19169055888080611cb6565b8284015185558b969094019360209384019301611ca7565b611d3c9060656000527f8ff97419363ffd7000167f130ef7168fbea05faf9251824ca5043f113cc6a7c78b80860160051c82019260208710611c5f570160051c0190613162565b89611a9a565b61ffff19166101011760005586611a5f565b60405162461bcd60e51b815260206004820152602e60248201527f496e697469616c697a61626c653a20636f6e747261637420697320616c72656160448201526d191e481a5b9a5d1a585b1a5e995960921b6064820152608490fd5b50303b158015611a475750600184861614611a47565b50600184861610611a40565b3461028657602080600319360112610286576001600160a01b03611df4612662565b166000526101628152604060002060405190818382549182815201908192600052846000209060005b86828210611e73578686611e338288038361276b565b604051928392818401908285525180915260408401929160005b828110611e5c57505050500390f35b835185528695509381019392810192600101611e4d565b835485529093019260019283019201611e1d565b34610286576102c4610843611e9b366126bc565b9060405192611ea984612735565b6000845261083361082e8433612cea565b346102865760203660031901126102865760043560006080604051611ede816126fe565b8281528260208201528260408201528260608201520152611f176103a882600052606760205260018060a01b0360406000205416151590565b60005261016160205260a0604060002060405190611f34826126fe565b8054825260ff60018201541690611f4f602084019283613188565b600281015460408401908152611f8e60ff60046003850154946060880195865201541693608086019415158552604051955186525160208601906126f1565b5160408401525160608301525115156080820152f35b346102865760208060031936011261028657611fbe612662565b6001600160a01b03917f00000000000000000000000000000000000000000000000000000000000000008316611ff630821415612a0f565b612013600080516020613315833981519152918583541614612a70565b61201b61296e565b6040519361202885612735565b600085527f4910fdfa16fed3260ed0e7147f7cc6da11a60208b5b9406d12a635614ffd91435460ff1615612063575050506102c49150612ad1565b83929316906040516352d1902d60e01b81528481600481865afa60009181612132575b506120e75760405162461bcd60e51b815260048101869052602e60248201527f45524331393637557067726164653a206e657720696d706c656d656e7461746960448201526d6f6e206973206e6f74205555505360901b6064820152608490fd5b0361191d576120f582612ad1565b7fbc7cd75a20ee27fd9adebab32041f755214dbc6bffa90cc0225b39da2e5c2d3b600080a282511580159061212a576118b357005b5060006118ad565b9091508581813d831161215a575b61214a818361276b565b8101031261028657519087612086565b503d612140565b346102865760203660031901126102865760043560005261016160205260a0604060002080549060ff6001820154169060028101546121b760ff60046003850154940154169360405195865260208601906126f1565b6040840152606083015215156080820152f35b34610286576102c46121db366126bc565b916121e961082e8433612cea565b612db2565b346102865760203660031901126102865760043561220a61296e565b80151580612242575b61221c906132d7565b600090815261016060205260409020600601805460ff818116151660ff19909116179055005b5061016454811115612213565b3461028657604036600319011261028657612268612662565b6001600160a01b0316600090815261016260205260409020805460243591908210156102865760209161229a9161268e565b90546040519160031b1c8152f35b34610286576040366003190112610286576122c1612662565b602435906001600160a01b0380806122d885612bad565b169216918083146123d3578033149081156123ae575b501561234357600083815260696020526040902080546001600160a01b0319168317905561231b83612bad565b167f8c5be1e5ebec7d5bd14f71427d1e84f3dd0314c0f7b2291e5b200ac8c7c3b925600080a4005b60405162461bcd60e51b815260206004820152603d60248201527f4552433732313a20617070726f76652063616c6c6572206973206e6f7420746f60448201527f6b656e206f776e6572206f7220617070726f76656420666f7220616c6c0000006064820152608490fd5b9050600052606a60205260406000203360005260205260ff60406000205416846122ee565b60405162461bcd60e51b815260206004820152602160248201527f4552433732313a20617070726f76616c20746f2063757272656e74206f776e656044820152603960f91b6064820152608490fd5b346102865760203660031901126102865760206110bf600435612bd3565b346102865760003660031901126102865760405160006065546124628161288e565b808452906001908181169081156109de575060011461248b576102758461096f8186038261276b565b6065600090815292507f8ff97419363ffd7000167f130ef7168fbea05faf9251824ca5043f113cc6a7c75b8284106124ce57505050810160200161096f8261095f565b805460208587018101919091529093019281016124b6565b34610286576124f43661260c565b60c9549091906001600160a01b031633036125435760008181526067602052604090205461252c906001600160a01b03161515613254565b600052610161602052600360406000200155600080f35b606460405162461bcd60e51b815260206004820152602060248201527f4f6e6c79206f776e65722063616e207570646174652072657075746174696f6e6044820152fd5b34610286576020366003190112610286576004359063ffffffff60e01b821680920361028657602091632483248360e11b81149081156125c9575b5015158152f35b6380ac58cd60e01b8114915081156125fb575b81156125ea575b50836125c2565b6301ffc9a760e01b149050836125e3565b635b5e139f60e01b811491506125dc565b6040906003190112610286576004359060243590565b919082519283825260005b84811061264e575050826000602080949584010152601f8019910116010190565b60208183018101518483018201520161262d565b600435906001600160a01b038216820361028657565b602435906001600160a01b038216820361028657565b80548210156126a65760005260206000200190600090565b634e487b7160e01b600052603260045260246000fd5b6060906003190112610286576001600160a01b0390600435828116810361028657916024359081168103610286579060443590565b90600c821015610e695752565b60a081019081106001600160401b03821117610db057604052565b61010081019081106001600160401b03821117610db057604052565b602081019081106001600160401b03821117610db057604052565b606081019081106001600160401b03821117610db057604052565b90601f801991011681019081106001600160401b03821117610db057604052565b6001600160401b038111610db057601f01601f191660200190565b81601f82011215610286578035906127be8261278c565b926127cc604051948561276b565b8284526020838301011161028657816000926020809301838601378301015290565b602081526128006020820183516126f1565b602082015161283661282061010092836040860152610120850190612622565b6040850151848203601f19016060860152612622565b9260608101516080840152608081015160a084015260a081015160c084015260c0810151151560e084015260e060018060a01b039101511691015290565b600c811015610e6957600052610163602052604060002090565b90600182811c921680156128be575b60208310146128a857565b634e487b7160e01b600052602260045260246000fd5b91607f169161289d565b90604051918260008254926128dc8461288e565b90818452600194858116908160001461294b5750600114612908575b50506129069250038361276b565b565b9093915060005260209081600020936000915b818310612933575050612906935082010138806128f8565b8554888401850152948501948794509183019161291b565b91505061290694506020925060ff191682840152151560051b82010138806128f8565b60c9546001600160a01b0316330361298257565b606460405162461bcd60e51b815260206004820152602060248201527f4f776e61626c653a2063616c6c6572206973206e6f7420746865206f776e65726044820152fd5b60c980546001600160a01b039283166001600160a01b0319821681179092559091167f8be0079c531659141344cd1fd0a4f28419497f9722a3daafe3b4186f6b6457e0600080a3565b15612a1657565b60405162461bcd60e51b815260206004820152602c60248201527f46756e6374696f6e206d7573742062652063616c6c6564207468726f7567682060448201526b19195b1959d85d1958d85b1b60a21b6064820152608490fd5b15612a7757565b60405162461bcd60e51b815260206004820152602c60248201527f46756e6374696f6e206d7573742062652063616c6c6564207468726f7567682060448201526b6163746976652070726f787960a01b6064820152608490fd5b803b15612b065760008051602061331583398151915280546001600160a01b0319166001600160a01b03909216919091179055565b60405162461bcd60e51b815260206004820152602d60248201527f455243313936373a206e657720696d706c656d656e746174696f6e206973206e60448201526c1bdd08184818dbdb9d1c9858dd609a1b6064820152608490fd5b15612b6857565b60405162461bcd60e51b815260206004820152601860248201527f4552433732313a20696e76616c696420746f6b656e20494400000000000000006044820152606490fd5b6000908152606760205260409020546001600160a01b0316612bd0811515612b61565b90565b600081815260676020526040902054612bf6906001600160a01b03161515612b61565b6000908152606960205260409020546001600160a01b031690565b15612c1857565b60405162461bcd60e51b815260206004820152602d60248201527f4552433732313a2063616c6c6572206973206e6f7420746f6b656e206f776e6560448201526c1c881bdc88185c1c1c9bdd9959609a1b6064820152608490fd5b60809060208152603260208201527f4552433732313a207472616e7366657220746f206e6f6e20455243373231526560408201527131b2b4bb32b91034b6b83632b6b2b73a32b960711b60608201520190565b15612ccd57565b60405162461bcd60e51b815280612ce660048201612c73565b0390fd5b906001600160a01b038080612cfe84612bad565b16931691838314938415612d31575b508315612d1b575b50505090565b612d2791929350612bd3565b1614388080612d15565b909350600052606a60205260406000208260005260205260ff604060002054169238612d0d565b15612d5f57565b60405162461bcd60e51b815260206004820152602560248201527f4552433732313a207472616e736665722066726f6d20696e636f72726563742060448201526437bbb732b960d91b6064820152608490fd5b90612dda91612dc084612bad565b6001600160a01b0393918416928492909183168414612d58565b16918215612e725781612df791612df086612bad565b1614612d58565b7fddf252ad1be2c89b69c2b068fc378daa952ba7f163c4a11628f55a4df523b3ef60008481526069602052604081206001600160601b0360a01b9081815416905583825260686020526040822060001981540190558482526040822060018154019055858252606760205284604083209182541617905580a4565b60405162461bcd60e51b8152602060048201526024808201527f4552433732313a207472616e7366657220746f20746865207a65726f206164646044820152637265737360e01b6064820152608490fd5b3d15612eee573d90612ed48261278c565b91612ee2604051938461276b565b82523d6000602084013e565b606090565b9091600091803b15612fe557612f3e6020918493604051948580948193630a85bd0160e11b9a8b84523360048501528460248501526044840152608060648401526084830190612622565b03926001600160a01b03165af190829082612f96575b5050612f8857612f62612ec3565b80519081612f835760405162461bcd60e51b815280612ce660048201612c73565b602001fd5b6001600160e01b0319161490565b909192506020813d8211612fdd575b81612fb26020938361276b565b81010312612fd95751906001600160e01b031982168203612fd65750903880612f54565b80fd5b5080fd5b3d9150612fa5565b50505050600190565b91926000929190813b1561305f576020916130449185604051958680958194630a85bd0160e11b9b8c845233600485015260018060a01b0380951660248501526044840152608060648401526084830190612622565b0393165af190829082612f96575050612f8857612f62612ec3565b5050505050600190565b919290156130cb575081511561307d575090565b3b156130865790565b60405162461bcd60e51b815260206004820152601d60248201527f416464726573733a2063616c6c20746f206e6f6e2d636f6e74726163740000006044820152606490fd5b8251909150156130de5750805190602001fd5b60405162461bcd60e51b815260206004820152908190612ce6906024830190612622565b1561310957565b60405162461bcd60e51b815260206004820152602b60248201527f496e697469616c697a61626c653a20636f6e7472616374206973206e6f74206960448201526a6e697469616c697a696e6760a81b6064820152608490fd5b81811061316d575050565b60008155600101613162565b60001981146105485760010190565b600c821015610e695752565b90600c811015610e695760ff80198354169116179055565b156131b357565b60405162461bcd60e51b815260206004820152602760248201527f44414f20646f6573206e6f7420657869737420666f722074686973207a6f646960448201526630b19039b4b3b760c91b6064820152608490fd5b1561320f57565b60405162461bcd60e51b815260206004820152601c60248201527f4552433732313a20746f6b656e20616c7265616479206d696e746564000000006044820152606490fd5b1561325b57565b60405162461bcd60e51b8152602060048201526014602482015273151bdad95b88191bd95cc81b9bdd08195e1a5cdd60621b6044820152606490fd5b604051906132a482612719565b8160e060009182815260606020820152606060408201528260608201528260808201528260a08201528260c08201520152565b156132de57565b60405162461bcd60e51b815260206004820152600e60248201526d125b9d985b1a5908111053c8125160921b6044820152606490fdfe360894a13ba1a3210667c828492db98dca3e2076cc3735a920a3ca505d382bbca26469706673582212202516790f538a26ee7492f5700178245e20fbb432adba58cb724570bc5ded247f64736f6c63430008110033",
  "linkReferences": {},
  "deployedLinkReferences": {}
}