{
  "_format": "hh-sol-artifact-1",
  "contractName": "AstrologerManager",
  "sourceName": "contracts/AstrologerManager.sol",
  "abi": [
    {
      "inputs": [],
      "stateMutability": "nonpayable",
      "type": "constructor"
    },
    {
      "anonymous": false,
      "inputs": [
        {
          "indexed": false,
          "internalType": "address",
          "name": "previousAdmin",
          "type": "address"
        },
        {
          "indexed": false,
          "internalType": "address",
          "name": "newAdmin",
          "type": "address"
        }
      ],
      "name": "AdminChanged",
      "type": "event"
    },
    {
      "anonymous": false,
      "inputs": [
        {
          "indexed": true,
          "internalType": "uint256",
          "name": "astrologerId",
          "type": "uint256"
        },
        {
          "indexed": true,
          "internalType": "address",
          "name": "wallet",
          "type": "address"
        },
        {
          "indexed": false,
          "internalType": "string",
          "name": "name",
          "type": "string"
        },
        {
          "indexed": false,
          "internalType": "string",
          "name": "specialty",
          "type": "string"
        }
      ],
      "name": "AstrologerRegistered",
      "type": "event"
    },
    {
      "anonymous": false,
      "inputs": [
        {
          "indexed": true,
          "internalType": "uint256",
          "name": "astrologerId",
          "type": "uint256"
        },
        {
          "indexed": true,
          "internalType": "address",
          "name": "wallet",
          "type": "address"
        }
      ],
      "name": "AstrologerVerified",
      "type": "event"
    },
    {
      "anonymous": false,
      "inputs": [
        {
          "indexed": true,
          "internalType": "address",
          "name": "beacon",
          "type": "address"
        }
      ],
      "name": "BeaconUpgraded",
      "type": "event"
    },
    {
      "anonymous": false,
      "inputs": [
        {
          "indexed": false,
          "internalType": "uint8",
          "name": "version",
          "type": "uint8"
        }
      ],
      "name": "Initialized",
      "type": "event"
    },
    {
      "anonymous": false,
      "inputs": [
        {
          "indexed": true,
          "internalType": "address",
          "name": "previousOwner",
          "type": "address"
        },
        {
          "indexed": true,
          "internalType": "address",
          "name": "newOwner",
          "type": "address"
        }
      ],
      "name": "OwnershipTransferred",
      "type": "event"
    },
    {
      "anonymous": false,
      "inputs": [
        {
          "indexed": true,
          "internalType": "uint256",
          "name": "astrologerId",
          "type": "uint256"
        },
        {
          "indexed": false,
          "internalType": "bool",
          "name": "wasAccurate",
          "type": "bool"
        },
        {
          "indexed": false,
          "internalType": "uint256",
          "name": "newAccuracy",
          "type": "uint256"
        }
      ],
      "name": "PredictionResult",
      "type": "event"
    },
    {
      "anonymous": false,
      "inputs": [
        {
          "indexed": true,
          "internalType": "uint256",
          "name": "astrologerId",
          "type": "uint256"
        },
        {
          "indexed": false,
          "internalType": "uint256",
          "name": "oldReputation",
          "type": "uint256"
        },
        {
          "indexed": false,
          "internalType": "uint256",
          "name": "newReputation",
          "type": "uint256"
        }
      ],
      "name": "ReputationUpdated",
      "type": "event"
    },
    {
      "anonymous": false,
      "inputs": [
        {
          "indexed": true,
          "internalType": "address",
          "name": "implementation",
          "type": "address"
        }
      ],
      "name": "Upgraded",
      "type": "event"
    },
    {
      "inputs": [],
      "name": "astroTokenLauncher",
      "outputs": [
        {
          "internalType": "address",
          "name": "",
          "type": "address"
        }
      ],
      "stateMutability": "view",
      "type": "function"
    },
    {
      "inputs": [
        {
          "internalType": "uint256",
          "name": "",
          "type": "uint256"
        }
      ],
      "name": "astrologerStats",
      "outputs": [
        {
          "internalType": "uint256",
          "name": "totalSessions",
          "type": "uint256"
        },
        {
          "internalType": "uint256",
          "name": "totalEarnings",
          "type": "uint256"
        },
        {
          "internalType": "uint256",
          "name": "averageRating",
          "type": "uint256"
        },
        {
          "internalType": "uint256",
          "name": "totalReviews",
          "type": "uint256"
        }
      ],
      "stateMutability": "view",
      "type": "function"
    },
    {
      "inputs": [
        {
          "internalType": "uint256",
          "name": "",
          "type": "uint256"
        }
      ],
      "name": "astrologers",
      "outputs": [
        {
          "internalType": "uint256",
          "name": "id",
          "type": "uint256"
        },
        {
          "internalType": "address",
          "name": "wallet",
          "type": "address"
        },
        {
          "internalType": "string",
          "name": "name",
          "type": "string"
        },
        {
          "internalType": "string",
          "name": "description",
          "type": "string"
        },
        {
          "internalType": "string",
          "name": "specialty",
          "type": "string"
        },
        {
          "internalType": "uint256",
          "name": "experience",
          "type": "uint256"
        },
        {
          "internalType": "uint256",
          "name": "reputation",
          "type": "uint256"
        },
        {
          "internalType": "uint256",
          "name": "totalPredictions",
          "type": "uint256"
        },
        {
          "internalType": "uint256",
          "name": "accuratePredictions",
          "type": "uint256"
        },
        {
          "internalType": "uint256",
          "name": "tokenContract",
          "type": "uint256"
        },
        {
          "internalType": "bool",
          "name": "isVerified",
          "type": "bool"
        },
        {
          "internalType": "bool",
          "name": "isActive",
          "type": "bool"
        },
        {
          "internalType": "uint256",
          "name": "registeredAt",
          "type": "uint256"
        },
        {
          "internalType": "uint256",
          "name": "lastActive",
          "type": "uint256"
        }
      ],
      "stateMutability": "view",
      "type": "function"
    },
    {
      "inputs": [],
      "name": "getAllVerifiedAstrologers",
      "outputs": [
        {
          "internalType": "uint256[]",
          "name": "",
          "type": "uint256[]"
        }
      ],
      "stateMutability": "view",
      "type": "function"
    },
    {
      "inputs": [
        {
          "internalType": "uint256",
          "name": "astrologerId",
          "type": "uint256"
        }
      ],
      "name": "getAstrologer",
      "outputs": [
        {
          "components": [
            {
              "internalType": "uint256",
              "name": "id",
              "type": "uint256"
            },
            {
              "internalType": "address",
              "name": "wallet",
              "type": "address"
            },
            {
              "internalType": "string",
              "name": "name",
              "type": "string"
            },
            {
              "internalType": "string",
              "name": "description",
              "type": "string"
            },
            {
              "internalType": "string",
              "name": "specialty",
              "type": "string"
            },
            {
              "internalType": "uint256",
              "name": "experience",
              "type": "uint256"
            },
            {
              "internalType": "uint256",
              "name": "reputation",
              "type": "uint256"
            },
            {
              "internalType": "uint256",
              "name": "totalPredictions",
              "type": "uint256"
            },
            {
              "internalType": "uint256",
              "name": "accuratePredictions",
              "type": "uint256"
            },
            {
              "internalType": "uint256",
              "name": "tokenContract",
              "type": "uint256"
            },
            {
              "internalType": "bool",
              "name": "isVerified",
              "type": "bool"
            },
            {
              "internalType": "bool",
              "name": "isActive",
              "type": "bool"
            },
            {
              "internalType": "uint256",
              "name": "registeredAt",
              "type": "uint256"
            },
            {
              "internalType": "uint256",
              "name": "lastActive",
              "type": "uint256"
            }
          ],
          "internalType": "struct AstrologerManager.Astrologer",
          "name": "",
          "type": "tuple"
        }
      ],
      "stateMutability": "view",
      "type": "function"
    },
    {
      "inputs": [
        {
          "internalType": "address",
          "name": "wallet",
          "type": "address"
        }
      ],
      "name": "getAstrologerByWallet",
      "outputs": [
        {
          "components": [
            {
              "internalType": "uint256",
              "name": "id",
              "type": "uint256"
            },
            {
              "internalType": "address",
              "name": "wallet",
              "type": "address"
            },
            {
              "internalType": "string",
              "name": "name",
              "type": "string"
            },
            {
              "internalType": "string",
              "name": "description",
              "type": "string"
            },
            {
              "internalType": "string",
              "name": "specialty",
              "type": "string"
            },
            {
              "internalType": "uint256",
              "name": "experience",
              "type": "uint256"
            },
            {
              "internalType": "uint256",
              "name": "reputation",
              "type": "uint256"
            },
            {
              "internalType": "uint256",
              "name": "totalPredictions",
              "type": "uint256"
            },
            {
              "internalType": "uint256",
              "name": "accuratePredictions",
              "type": "uint256"
            },
            {
              "internalType": "uint256",
              "name": "tokenContract",
              "type": "uint256"
            },
            {
              "internalType": "bool",
              "name": "isVerified",
              "type": "bool"
            },
            {
              "internalType": "bool",
              "name": "isActive",
              "type": "bool"
            },
            {
              "internalType": "uint256",
              "name": "registeredAt",
              "type": "uint256"
            },
            {
              "internalType": "uint256",
              "name": "lastActive",
              "type": "uint256"
            }
          ],
          "internalType": "struct AstrologerManager.Astrologer",
          "name": "",
          "type": "tuple"
        }
      ],
      "stateMutability": "view",
      "type": "function"
    },
    {
      "inputs": [
        {
          "internalType": "address",
          "name": "wallet",
          "type": "address"
        }
      ],
      "name": "getAstrologerId",
      "outputs": [
        {
          "internalType": "uint256",
          "name": "",
          "type": "uint256"
        }
      ],
      "stateMutability": "view",
      "type": "function"
    },
    {
      "inputs": [
        {
          "internalType": "uint256",
          "name": "astrologerId",
          "type": "uint256"
        }
      ],
      "name": "getAstrologerStats",
      "outputs": [
        {
          "components": [
            {
              "internalType": "uint256",
              "name": "totalSessions",
              "type": "uint256"
            },
            {
              "internalType": "uint256",
              "name": "totalEarnings",
              "type": "uint256"
            },
            {
              "internalType": "uint256",
              "name": "averageRating",
              "type": "uint256"
            },
            {
              "internalType": "uint256",
              "name": "totalReviews",
              "type": "uint256"
            }
          ],
          "internalType": "struct AstrologerManager.AstrologerStats",
          "name": "",
          "type": "tuple"
        }
      ],
      "stateMutability": "view",
      "type": "function"
    },
    {
      "inputs": [
        {
          "internalType": "string",
          "name": "specialty",
          "type": "string"
        }
      ],
      "name": "getAstrologersBySpecialty",
      "outputs": [
        {
          "internalType": "uint256[]",
          "name": "",
          "type": "uint256[]"
        }
      ],
      "stateMutability": "view",
      "type": "function"
    },
    {
      "inputs": [
        {
          "internalType": "address",
          "name": "_reputationScorer",
          "type": "address"
        },
        {
          "internalType": "address",
          "name": "_predictionCredibilityManager",
          "type": "address"
        },
        {
          "internalType": "address",
          "name": "_astroTokenLauncher",
          "type": "address"
        },
        {
          "internalType": "uint256",
          "name": "_verificationFee",
          "type": "uint256"
        }
      ],
      "name": "initialize",
      "outputs": [],
      "stateMutability": "nonpayable",
      "type": "function"
    },
    {
      "inputs": [
        {
          "internalType": "address",
          "name": "wallet",
          "type": "address"
        }
      ],
      "name": "isAstrologerVerified",
      "outputs": [
        {
          "internalType": "bool",
          "name": "",
          "type": "bool"
        }
      ],
      "stateMutability": "view",
      "type": "function"
    },
    {
      "inputs": [],
      "name": "owner",
      "outputs": [
        {
          "internalType": "address",
          "name": "",
          "type": "address"
        }
      ],
      "stateMutability": "view",
      "type": "function"
    },
    {
      "inputs": [],
      "name": "predictionCredibilityManager",
      "outputs": [
        {
          "internalType": "address",
          "name": "",
          "type": "address"
        }
      ],
      "stateMutability": "view",
      "type": "function"
    },
    {
      "inputs": [],
      "name": "proxiableUUID",
      "outputs": [
        {
          "internalType": "bytes32",
          "name": "",
          "type": "bytes32"
        }
      ],
      "stateMutability": "view",
      "type": "function"
    },
    {
      "inputs": [
        {
          "internalType": "uint256",
          "name": "astrologerId",
          "type": "uint256"
        },
        {
          "internalType": "bool",
          "name": "wasAccurate",
          "type": "bool"
        }
      ],
      "name": "recordPredictionResult",
      "outputs": [],
      "stateMutability": "nonpayable",
      "type": "function"
    },
    {
      "inputs": [
        {
          "internalType": "string",
          "name": "_name",
          "type": "string"
        },
        {
          "internalType": "string",
          "name": "_description",
          "type": "string"
        },
        {
          "internalType": "string",
          "name": "_specialty",
          "type": "string"
        },
        {
          "internalType": "uint256",
          "name": "_experience",
          "type": "uint256"
        }
      ],
      "name": "registerAstrologer",
      "outputs": [
        {
          "internalType": "uint256",
          "name": "",
          "type": "uint256"
        }
      ],
      "stateMutability": "payable",
      "type": "function"
    },
    {
      "inputs": [],
      "name": "renounceOwnership",
      "outputs": [],
      "stateMutability": "nonpayable",
      "type": "function"
    },
    {
      "inputs": [],
      "name": "reputationScorer",
      "outputs": [
        {
          "internalType": "address",
          "name": "",
          "type": "address"
        }
      ],
      "stateMutability": "view",
      "type": "function"
    },
    {
      "inputs": [
        {
          "internalType": "address",
          "name": "_astroTokenLauncher",
          "type": "address"
        }
      ],
      "name": "setAstroTokenLauncher",
      "outputs": [],
      "stateMutability": "nonpayable",
      "type": "function"
    },
    {
      "inputs": [
        {
          "internalType": "address",
          "name": "_predictionCredibilityManager",
          "type": "address"
        }
      ],
      "name": "setPredictionCredibilityManager",
      "outputs": [],
      "stateMutability": "nonpayable",
      "type": "function"
    },
    {
      "inputs": [
        {
          "internalType": "address",
          "name": "_reputationScorer",
          "type": "address"
        }
      ],
      "name": "setReputationScorer",
      "outputs": [],
      "stateMutability": "nonpayable",
      "type": "function"
    },
    {
      "inputs": [
        {
          "internalType": "uint256",
          "name": "astrologerId",
          "type": "uint256"
        },
        {
          "internalType": "uint256",
          "name": "tokenContract",
          "type": "uint256"
        }
      ],
      "name": "setTokenContract",
      "outputs": [],
      "stateMutability": "nonpayable",
      "type": "function"
    },
    {
      "inputs": [
        {
          "internalType": "uint256",
          "name": "_verificationFee",
          "type": "uint256"
        }
      ],
      "name": "setVerificationFee",
      "outputs": [],
      "stateMutability": "nonpayable",
      "type": "function"
    },
    {
      "inputs": [
        {
          "internalType": "string",
          "name": "",
          "type": "string"
        },
        {
          "internalType": "uint256",
          "name": "",
          "type": "uint256"
        }
      ],
      "name": "specialtyToAstrologers",
      "outputs": [
        {
          "internalType": "uint256",
          "name": "",
          "type": "uint256"
        }
      ],
      "stateMutability": "view",
      "type": "function"
    },
    {
      "inputs": [
        {
          "internalType": "uint256",
          "name": "astrologerId",
          "type": "uint256"
        }
      ],
      "name": "toggleAstrologerActive",
      "outputs": [],
      "stateMutability": "nonpayable",
      "type": "function"
    },
    {
      "inputs": [],
      "name": "totalAstrologers",
      "outputs": [
        {
          "internalType": "uint256",
          "name": "",
          "type": "uint256"
        }
      ],
      "stateMutability": "view",
      "type": "function"
    },
    {
      "inputs": [
        {
          "internalType": "address",
          "name": "newOwner",
          "type": "address"
        }
      ],
      "name": "transferOwnership",
      "outputs": [],
      "stateMutability": "nonpayable",
      "type": "function"
    },
    {
      "inputs": [
        {
          "internalType": "uint256",
          "name": "astrologerId",
          "type": "uint256"
        },
        {
          "internalType": "uint256",
          "name": "sessions",
          "type": "uint256"
        },
        {
          "internalType": "uint256",
          "name": "earnings",
          "type": "uint256"
        },
        {
          "internalType": "uint256",
          "name": "rating",
          "type": "uint256"
        },
        {
          "internalType": "uint256",
          "name": "reviews",
          "type": "uint256"
        }
      ],
      "name": "updateAstrologerStats",
      "outputs": [],
      "stateMutability": "nonpayable",
      "type": "function"
    },
    {
      "inputs": [
        {
          "internalType": "uint256",
          "name": "astrologerId",
          "type": "uint256"
        },
        {
          "internalType": "uint256",
          "name": "newReputation",
          "type": "uint256"
        }
      ],
      "name": "updateReputation",
      "outputs": [],
      "stateMutability": "nonpayable",
      "type": "function"
    },
    {
      "inputs": [
        {
          "internalType": "address",
          "name": "newImplementation",
          "type": "address"
        }
      ],
      "name": "upgradeTo",
      "outputs": [],
      "stateMutability": "nonpayable",
      "type": "function"
    },
    {
      "inputs": [
        {
          "internalType": "address",
          "name": "newImplementation",
          "type": "address"
        },
        {
          "internalType": "bytes",
          "name": "data",
          "type": "bytes"
        }
      ],
      "name": "upgradeToAndCall",
      "outputs": [],
      "stateMutability": "payable",
      "type": "function"
    },
    {
      "inputs": [],
      "name": "verificationFee",
      "outputs": [
        {
          "internalType": "uint256",
          "name": "",
          "type": "uint256"
        }
      ],
      "stateMutability": "view",
      "type": "function"
    },
    {
      "inputs": [
        {
          "internalType": "uint256",
          "name": "astrologerId",
          "type": "uint256"
        }
      ],
      "name": "verifyAstrologer",
      "outputs": [],
      "stateMutability": "nonpayable",
      "type": "function"
    },
    {
      "inputs": [
        {
          "internalType": "address",
          "name": "",
          "type": "address"
        }
      ],
      "name": "walletToAstrologerId",
      "outputs": [
        {
          "internalType": "uint256",
          "name": "",
          "type": "uint256"
        }
      ],
      "stateMutability": "view",
      "type": "function"
    },
    {
      "inputs": [],
      "name": "withdraw",
      "outputs": [],
      "stateMutability": "nonpayable",
      "type": "function"
    }
  ],
  "bytecode": "0x60a080604052346100dc57306080526000549060ff8260081c1661008a575060ff8082160361004f575b60405161268690816100e282396080518181816115570152818161170501526119ea0152f35b60ff90811916176000557f7f26b83ff96e1f2b6a682f133852f6798a09c465da95921460cefb3847402498602060405160ff8152a138610029565b62461bcd60e51b815260206004820152602760248201527f496e697469616c697a61626c653a20636f6e747261637420697320696e697469604482015266616c697a696e6760c81b6064820152608490fd5b600080fdfe608080604052600436101561001357600080fd5b60003560e01c9081630675f76314611d91575080631afe9e5c14611d295780632cb5f95a14611c8257806330a7d32a14611c555780633659cfe6146119c557806338dec5dd14610d205780633ccfd60b146119755780634f1ef286146116b75780635273496a1461160857806352d1902d1461154457806361cb82ba1461148a57806362761b7614610d5a578063656d0c3914610d205780636f7c0c7514610d02578063715018a614610ca557806373c84d2114610c7c57806384ebeab614610c035780638da5cb5b14610bda57806397206c0a14610b02578063a8c278a214610ae4578063aae9d5f214610ac3578063ab3dcd6a14610a9a578063b0d485b314610a57578063b56faf111461093e578063b76d03b214610915578063ba9e826c146108c7578063c1ef5cd2146107e9578063cc89c63414610737578063cf756fdf14610590578063daa8d1c6146104bf578063e2c3538c1461047c578063e47ef5a814610387578063e9725c2114610344578063f2fde38b146102b55763fc809bf5146101a057600080fd5b346102b05760203660031901126102b057600435600090815260ca60205260409020805460018201546001600160a01b0316916101df60028201612145565b6101eb60038301612145565b916101f860048201612145565b9260058201549360068301546007840154600885015491600986015493600a87015495600b88015497600c0154986040519c8d9c8d5260208d01528b6101c06040819201528c0161024891611fe4565b8b810360608d015261025991611fe4565b8a810360808c015261026a91611fe4565b9760a08a015260c089015260e088015261010087015261012086015260ff8116151561014086015260081c60ff1615156101608501526101808401526101a08301520390f35b600080fd5b346102b05760203660031901126102b0576102ce611fab565b6102d66121eb565b6001600160a01b038116156102f0576102ee90612243565b005b60405162461bcd60e51b815260206004820152602660248201527f4f776e61626c653a206e6577206f776e657220697320746865207a65726f206160448201526564647265737360d01b6064820152608490fd5b346102b05760203660031901126102b05761035d611fab565b6103656121eb565b60ce80546001600160a01b0319166001600160a01b0392909216919091179055005b346102b05760403660031901126102b0576004356024358015158082036102b05782151580610470575b6103ba906124ea565b8260005260ca6020526008604060002060078101936103d985546124db565b80955561045c575b015490606482029180830460641490151715610446578215610430577f756a61461a8776a88359f7becf7cd5ce80a583bd386fe18023fad70323ebc15b926040928351928352046020820152a2005b634e487b7160e01b600052601260045260246000fd5b634e487b7160e01b600052601160045260246000fd5b81810161046981546124db565b90556103e1565b5060c9548311156103b1565b346102b05760203660031901126102b057610495611fab565b61049d6121eb565b60d080546001600160a01b0319166001600160a01b0392909216919091179055005b346102b05760a03660031901126102b05760335460043590336001600160a01b0391821614908115610582575b501561054e5780151580610542575b610504906124ea565b60005260cc6020526040600020602435815560443560018201556064356002820155600360843591015560ca60205242600c60406000200155600080f35b5060c9548111156104fb565b60405162461bcd60e51b815260206004820152600c60248201526b155b985d5d1a1bdc9a5e995960a21b6044820152606490fd5b905060ce54163314826104ec565b346102b05760803660031901126102b0576105a9611fab565b6001600160a01b039060243582811691908290036102b057604435908382168092036102b0576000549260ff8460081c16159384809561072a575b8015610713575b156106b75760ff198116600117600055846106a5575b5061061c60ff60005460081c166106178161247b565b61247b565b61062533612243565b6000549461063860ff8760081c1661247b565b6bffffffffffffffffffffffff60a01b92168260ce54161760ce558160cf54161760cf5560d054161760d05560643560d15561067057005b61ff0019166000557f7f26b83ff96e1f2b6a682f133852f6798a09c465da95921460cefb3847402498602060405160018152a1005b61ffff19166101011760005585610601565b60405162461bcd60e51b815260206004820152602e60248201527f496e697469616c697a61626c653a20636f6e747261637420697320616c72656160448201526d191e481a5b9a5d1a585b1a5e995960921b6064820152608490fd5b50303b1580156105eb5750600160ff8216146105eb565b50600160ff8216106105e4565b346102b05760203660031901126102b0576004356000606060405161075b81611ea9565b8281528260208201528260408201520152801515806107dd575b61077e906124ea565b60005260cc6020526080604060002060405161079981611ea9565b815491828252600181015460208301908152606060036002840154936040860194855201549301928352604051938452516020840152516040830152516060820152f35b5060c954811115610775565b346102b05760203660031901126102b0576004356108056121eb565b801515806108bb575b610817906124ea565b8060005260ca60205260ff600a604060002001541661088357600081815260ca60205260408120600a8101805460ff1916600190811790915501546001600160a01b031691907f9364ac9420d2bc88a7ef976f848a23c6fc5d00ed9f7978139dc44958829c96909080a3005b60405162461bcd60e51b815260206004820152601060248201526f105b1c9958591e481d995c9a599a595960821b6044820152606490fd5b5060c95481111561080e565b346102b05760203660031901126102b05760043560005260cc602052608060406000208054906001810154906003600282015491015491604051938452602084015260408301526060820152f35b346102b05760003660031901126102b05760cf546040516001600160a01b039091168152602090f35b346102b05760203660031901126102b05760043561095a61252e565b5080151580610a4b575b61096d906124ea565b60005260ca602052610a476040600020600c6040519161098c83611e8d565b8054835260018101546001600160a01b031660208401526109af60028201612145565b60408401526109c060038201612145565b60608401526109d160048201612145565b6080840152600581015460a0840152600681015460c0840152600781015460e08401526008810154610100840152600981015461012084015260ff600a820154818116151561014086015260081c161515610160840152600b81015461018084015201546101a082015260405191829182612009565b0390f35b5060c954811115610964565b346102b05760203660031901126102b057610a70611fab565b610a786121eb565b60cf80546001600160a01b0319166001600160a01b0392909216919091179055005b346102b05760003660031901126102b05760d0546040516001600160a01b039091168152602090f35b346102b05760203660031901126102b057610adc6121eb565b60043560d155005b346102b05760003660031901126102b057602060d154604051908152f35b346102b05760003660031901126102b057610b1e60d2546125ea565b6000600160c954905b81811115610b77575050610b3a816125ea565b9160005b828110610b535760405180610a478682611f70565b80610b61610b72928461261c565b51610b6c828761261c565b526124db565b610b3e565b8060005260ca60205260ff600a90808260406000200154169182610bc6575b5050610bab575b610ba6906124db565b610b27565b91610bbe8184610b6c610ba6948861261c565b929050610b9d565b6040600020015460081c1690508580610b96565b346102b05760003660031901126102b0576033546040516001600160a01b039091168152602090f35b346102b05760403660031901126102b0576004356001600160401b0381116102b057610c33903690600401611f52565b610c4f6020602435928160405193828580945193849201611fc1565b810160cd81520301902080548210156102b057602091610c6e916120dd565b90546040519160031b1c8152f35b346102b05760003660031901126102b05760ce546040516001600160a01b039091168152602090f35b346102b05760003660031901126102b057610cbe6121eb565b603380546001600160a01b031981169091556000906001600160a01b03167f8be0079c531659141344cd1fd0a4f28419497f9722a3daafe3b4186f6b6457e08280a3005b346102b05760003660031901126102b057602060d254604051908152f35b346102b05760203660031901126102b0576001600160a01b03610d41611fab565b1660005260cb6020526020604060002054604051908152f35b60803660031901126102b0576004356001600160401b0381116102b057610d85903690600401611f52565b6024356001600160401b0381116102b057610da4903690600401611f52565b6044356001600160401b0381116102b057610dc3903690600401611f52565b60d154341061144557825115611409578051156113c4573360005260cb60205260406000205461138a57600160c95401918260c95560405190610e0582611e8d565b838252336020830152846040830152606082015281608082015260643560a0820152600060c0820152600060e0820152600061010082015260006101208201526001610140820152600161016082015242610180820152426101a08201528260005260ca602052604060002090805182556001820160018060a01b036020830151166bffffffffffffffffffffffff60a01b82541617905560408101518051906001600160401b03821161110c578190610ec2600286015461210b565b601f8111611337575b50602090601f83116001146112c5576000926112ba575b50508160011b916000199060031b1c19161760028301555b60608101518051906001600160401b03821161110c578190610f1f600386015461210b565b601f8111611267575b50602090601f83116001146111f5576000926111ea575b50508160011b916000199060031b1c19161760038301555b60808101518051906001600160401b03821161110c57610f7a600485015461210b565b601f81116111a3575b50602090601f831160011461112d579180600c94926101a094600092611122575b50508160011b916000199060031b1c19161760048501555b60a0810151600585015560c0810151600685015560e081015160078501556101008101516008850155610120810151600985015561102a600a8501610140830151151560ff80198354169116178155610160830151151561ff00825491151560081b169061ff001916179055565b610180810151600b85015501519101553360005260cb60205281604060002055604051602081835161105f8183858801611fc1565b810160cd8152030190209283546801000000000000000081101561110c576110f38492836110b68460209960017f52a90d339ad28a992917e650220b3e982d4d5a23ad19fc1f87004f11aedb6a4e970181556120dd565b819291549060031b600019811b9283911b169119161790556110d960d2546124db565b60d255611101604051928392604084526040840190611fe4565b828103898401523396611fe4565b0390a3604051908152f35b634e487b7160e01b600052604160045260246000fd5b015190508980610fa4565b906004850160005260206000209160005b601f198516811061118b575092600c94926001926101a09583601f19811610611172575b505050811b016004850155610fbc565b015160001960f88460031b161c19169055898080611162565b9192602060018192868501518155019401920161113e565b600485016000526020600020601f840160051c8101602085106111e3575b601f830160051c820181106111d7575050610f83565b600081556001016111c1565b50806111c1565b015190508780610f3f565b9250600385016000526020600020906000935b601f198416851061124c576001945083601f19811610611233575b505050811b016003830155610f57565b015160001960f88460031b161c19169055878080611223565b81810151835560209485019460019093019290910190611208565b909150600385016000526020600020601f840160051c8101602085106112b3575b90849392915b601f830160051c820181106112a4575050610f28565b6000815585945060010161128e565b5080611288565b015190508780610ee2565b9250600285016000526020600020906000935b601f198416851061131c576001945083601f19811610611303575b505050811b016002830155610efa565b015160001960f88460031b161c191690558780806112f3565b818101518355602094850194600190930192909101906112d8565b909150600285016000526020600020601f840160051c810160208510611383575b90849392915b601f830160051c82018110611374575050610ecb565b6000815585945060010161135e565b5080611358565b60405162461bcd60e51b8152602060048201526012602482015271105b1c9958591e481c9959da5cdd195c995960721b6044820152606490fd5b60405162461bcd60e51b815260206004820152601960248201527f5370656369616c74792063616e6e6f7420626520656d707479000000000000006044820152606490fd5b60405162461bcd60e51b81526020600482015260146024820152734e616d652063616e6e6f7420626520656d70747960601b6044820152606490fd5b60405162461bcd60e51b815260206004820152601d60248201527f496e73756666696369656e7420766572696669636174696f6e206665650000006044820152606490fd5b346102b05760203660031901126102b0576114a3611fab565b6114ab61252e565b506001600160a01b03908116600090815260cb602052604090205490811561150857610a479160005260ca602052600c6040600020604051926114ed84611e8d565b8154845260018201541660208401526109af60028201612145565b60405162461bcd60e51b8152602060048201526014602482015273105cdd1c9bdb1bd9d95c881b9bdd08199bdd5b9960621b6044820152606490fd5b346102b05760003660031901126102b0577f00000000000000000000000000000000000000000000000000000000000000006001600160a01b0316300361159d5760206040516000805160206126318339815191528152f35b60405162461bcd60e51b815260206004820152603860248201527f555550535570677261646561626c653a206d757374206e6f742062652063616c60448201527f6c6564207468726f7567682064656c656761746563616c6c00000000000000006064820152608490fd5b346102b05761161636611e77565b60d0549091906001600160a01b0316330361165f5780151580611653575b61163d906124ea565b60005260ca602052600960406000200155600080f35b5060c954811115611634565b60405162461bcd60e51b815260206004820152602a60248201527f4f6e6c7920746f6b656e206c61756e636865722063616e2073657420746f6b656044820152691b8818dbdb9d1c9858dd60b21b6064820152608490fd5b60403660031901126102b0576116cb611fab565b6024356001600160401b0381116102b057366023820112156102b0576116fb903690602481600401359101611f1b565b6001600160a01b037f0000000000000000000000000000000000000000000000000000000000000000811691906117343084141561228c565b6117516000805160206126318339815191529382855416146122ed565b6117596121eb565b7f4910fdfa16fed3260ed0e7147f7cc6da11a60208b5b9406d12a635614ffd91435460ff161561178f575050506102ee9061234e565b8316604051926352d1902d60e01b84526020938481600481865afa60009181611946575b506118145760405162461bcd60e51b815260048101869052602e60248201527f45524331393637557067726164653a206e657720696d706c656d656e7461746960448201526d6f6e206973206e6f74205555505360901b6064820152608490fd5b939293036118ef576118258461234e565b7fbc7cd75a20ee27fd9adebab32041f755214dbc6bffa90cc0225b39da2e5c2d3b600080a28151158015906118e7575b61185b57005b6102ee926000806040519461186f86611ec4565b602786527f416464726573733a206c6f772d6c6576656c2064656c65676174652063616c6c85870152660819985a5b195960ca1b60408701528481519101845af4903d156118de573d6118c181611f00565b906118cf6040519283611edf565b8152600081943d92013e6123de565b606092506123de565b506001611855565b60405162461bcd60e51b815260048101839052602960248201527f45524331393637557067726164653a20756e737570706f727465642070726f786044820152681a58589b195555525160ba1b6064820152608490fd5b9091508581813d831161196e575b61195e8183611edf565b810103126102b0575190876117b3565b503d611954565b346102b05760003660031901126102b05761198e6121eb565b600080808060018060a01b036033541647908282156119bc575bf1156119b057005b6040513d6000823e3d90fd5b506108fc6119a8565b346102b0576020806003193601126102b0576119df611fab565b6001600160a01b03917f00000000000000000000000000000000000000000000000000000000000000008316611a173082141561228c565b611a346000805160206126318339815191529185835416146122ed565b611a3c6121eb565b60405190828201948286106001600160401b0387111761110c57856040526000835260ff7f4910fdfa16fed3260ed0e7147f7cc6da11a60208b5b9406d12a635614ffd91435416600014611a9857505050506102ee915061234e565b8492939416906040516352d1902d60e01b81528581600481865afa60009181611c26575b50611b1d5760405162461bcd60e51b815260048101879052602e60248201527f45524331393637557067726164653a206e657720696d706c656d656e7461746960448201526d6f6e206973206e6f74205555505360901b6064820152608490fd5b94939403611bcf57611b2e8261234e565b7fbc7cd75a20ee27fd9adebab32041f755214dbc6bffa90cc0225b39da2e5c2d3b600080a2825115801590611bc7575b611b6457005b6000806102ee9560405195611b7887611ec4565b602787527f416464726573733a206c6f772d6c6576656c2064656c65676174652063616c6c86880152660819985a5b195960ca1b60408801525190845af4903d156118de573d6118c181611f00565b506000611b5e565b60405162461bcd60e51b815260048101849052602960248201527f45524331393637557067726164653a20756e737570706f727465642070726f786044820152681a58589b195555525160ba1b6064820152608490fd5b9091508681813d8311611c4e575b611c3e8183611edf565b810103126102b057519088611abc565b503d611c34565b346102b05760203660031901126102b0576020611c78611c73611fab565b612598565b6040519015158152f35b346102b0576020806003193601126102b0576004356001600160401b0381116102b05781611cb7611cca923690600401611f52565b8160405193828580945193849201611fc1565b810160cd81520301902090604051908181845491828152019360005281600020916000905b828210611d1257610a4785611d0681890382611edf565b60405191829182611f70565b835486529485019460019384019390910190611cef565b346102b05760203660031901126102b057600435611d456121eb565b80151580611d85575b611d57906124ea565b600090815260ca60205260409020600a01805461ff00198116600891821c60ff161590911b61ff0016179055005b5060c954811115611d4e565b346102b057611d9f36611e77565b60ce54919290916001600160a01b03163303611e20575060407fd9f66501c000653403d74ddfa62a75c8dd44cc05d910ee81bf1d852262dd5fa19183151580611e14575b611dec906124ea565b8360005260ca60205260068260002001549080600684600020015582519182526020820152a2005b5060c954841115611de3565b62461bcd60e51b815260206004820152602c60248201527f4f6e6c792072657075746174696f6e2073636f7265722063616e20757064617460448201526b32903932b83aba30ba34b7b760a11b6064820152608490fd5b60409060031901126102b0576004359060243590565b6101c081019081106001600160401b0382111761110c57604052565b608081019081106001600160401b0382111761110c57604052565b606081019081106001600160401b0382111761110c57604052565b90601f801991011681019081106001600160401b0382111761110c57604052565b6001600160401b03811161110c57601f01601f191660200190565b929192611f2782611f00565b91611f356040519384611edf565b8294818452818301116102b0578281602093846000960137010152565b9080601f830112156102b057816020611f6d93359101611f1b565b90565b6020908160408183019282815285518094520193019160005b828110611f97575050505090565b835185529381019392810192600101611f89565b600435906001600160a01b03821682036102b057565b60005b838110611fd45750506000910152565b8181015183820152602001611fc4565b90602091611ffd81518092818552858086019101611fc1565b601f01601f1916010190565b602081528151602082015260018060a01b03602083015116604082015260408201516120776120466101c0928360608601526101e0850190611fe4565b612062606086015191601f199283878303016080880152611fe4565b906080860151908583030160a0860152611fe4565b9260a081015160c084015260c081015160e084015260e08101516101009081850152810151610120908185015281015161014090818501528101511515610160908185015281015115156101809081850152810151906101a09182850152015191015290565b80548210156120f55760005260206000200190600090565b634e487b7160e01b600052603260045260246000fd5b90600182811c9216801561213b575b602083101461212557565b634e487b7160e01b600052602260045260246000fd5b91607f169161211a565b90604051918260008254926121598461210b565b9081845260019485811690816000146121c85750600114612185575b505061218392500383611edf565b565b9093915060005260209081600020936000915b8183106121b057505061218393508201013880612175565b85548884018501529485019487945091830191612198565b91505061218394506020925060ff191682840152151560051b8201013880612175565b6033546001600160a01b031633036121ff57565b606460405162461bcd60e51b815260206004820152602060248201527f4f776e61626c653a2063616c6c6572206973206e6f7420746865206f776e65726044820152fd5b603380546001600160a01b039283166001600160a01b0319821681179092559091167f8be0079c531659141344cd1fd0a4f28419497f9722a3daafe3b4186f6b6457e0600080a3565b1561229357565b60405162461bcd60e51b815260206004820152602c60248201527f46756e6374696f6e206d7573742062652063616c6c6564207468726f7567682060448201526b19195b1959d85d1958d85b1b60a21b6064820152608490fd5b156122f457565b60405162461bcd60e51b815260206004820152602c60248201527f46756e6374696f6e206d7573742062652063616c6c6564207468726f7567682060448201526b6163746976652070726f787960a01b6064820152608490fd5b803b156123835760008051602061263183398151915280546001600160a01b0319166001600160a01b03909216919091179055565b60405162461bcd60e51b815260206004820152602d60248201527f455243313936373a206e657720696d706c656d656e746174696f6e206973206e60448201526c1bdd08184818dbdb9d1c9858dd609a1b6064820152608490fd5b9192901561244057508151156123f2575090565b3b156123fb5790565b60405162461bcd60e51b815260206004820152601d60248201527f416464726573733a2063616c6c20746f206e6f6e2d636f6e74726163740000006044820152606490fd5b8251909150156124535750805190602001fd5b60405162461bcd60e51b815260206004820152908190612477906024830190611fe4565b0390fd5b1561248257565b60405162461bcd60e51b815260206004820152602b60248201527f496e697469616c697a61626c653a20636f6e7472616374206973206e6f74206960448201526a6e697469616c697a696e6760a81b6064820152608490fd5b60001981146104465760010190565b156124f157565b60405162461bcd60e51b8152602060048201526015602482015274125b9d985b1a5908185cdd1c9bdb1bd9d95c881251605a1b6044820152606490fd5b6040519061253b82611e8d565b816101a060009182815282602082015260606040820152606080820152606060808201528260a08201528260c08201528260e082015282610100820152826101208201528261014082015282610160820152826101808201520152565b6001600160a01b0316600090815260cb602052604090205480156125cd5760005260ca60205260ff600a604060002001541690565b50600090565b6001600160401b03811161110c5760051b60200190565b906125f4826125d3565b6126016040519182611edf565b8281528092612612601f19916125d3565b0190602036910137565b80518210156120f55760209160051b01019056fe360894a13ba1a3210667c828492db98dca3e2076cc3735a920a3ca505d382bbca264697066735822122087bd46d2b015f1a83be9bbf5eedb71024d6f8776c78ac037632bb8e5e7e0b90264736f6c63430008110033",
  "linkReferences": {},
  "deployedLinkReferences": {}
}