{
  "_format": "hh-sol-artifact-1",
  "contractName": "PredictionCredibilityManager",
  "sourceName": "contracts/PredictionCredibilityManager.sol",
  "abi": [
    {
      "inputs": [],
      "stateMutability": "nonpayable",
      "type": "constructor"
    },
    {
      "anonymous": false,
      "inputs": [
        {
          "indexed": false,
          "internalType": "address",
          "name": "previousAdmin",
          "type": "address"
        },
        {
          "indexed": false,
          "internalType": "address",
          "name": "newAdmin",
          "type": "address"
        }
      ],
      "name": "AdminChanged",
      "type": "event"
    },
    {
      "anonymous": false,
      "inputs": [
        {
          "indexed": true,
          "internalType": "address",
          "name": "beacon",
          "type": "address"
        }
      ],
      "name": "BeaconUpgraded",
      "type": "event"
    },
    {
      "anonymous": false,
      "inputs": [
        {
          "indexed": true,
          "internalType": "address",
          "name": "astrologer",
          "type": "address"
        },
        {
          "indexed": false,
          "internalType": "uint256",
          "name": "oldAccuracy",
          "type": "uint256"
        },
        {
          "indexed": false,
          "internalType": "uint256",
          "name": "newAccuracy",
          "type": "uint256"
        },
        {
          "indexed": false,
          "internalType": "uint256",
          "name": "newMultiplier",
          "type": "uint256"
        }
      ],
      "name": "CredibilityUpdated",
      "type": "event"
    },
    {
      "anonymous": false,
      "inputs": [
        {
          "indexed": false,
          "internalType": "uint8",
          "name": "version",
          "type": "uint8"
        }
      ],
      "name": "Initialized",
      "type": "event"
    },
    {
      "anonymous": false,
      "inputs": [
        {
          "indexed": true,
          "internalType": "address",
          "name": "previousOwner",
          "type": "address"
        },
        {
          "indexed": true,
          "internalType": "address",
          "name": "newOwner",
          "type": "address"
        }
      ],
      "name": "OwnershipTransferred",
      "type": "event"
    },
    {
      "anonymous": false,
      "inputs": [
        {
          "indexed": true,
          "internalType": "uint256",
          "name": "predictionId",
          "type": "uint256"
        },
        {
          "indexed": true,
          "internalType": "address",
          "name": "astrologer",
          "type": "address"
        },
        {
          "indexed": false,
          "internalType": "string",
          "name": "description",
          "type": "string"
        },
        {
          "indexed": false,
          "internalType": "uint256",
          "name": "predictionType",
          "type": "uint256"
        },
        {
          "indexed": false,
          "internalType": "uint256",
          "name": "deadline",
          "type": "uint256"
        }
      ],
      "name": "PredictionCreated",
      "type": "event"
    },
    {
      "anonymous": false,
      "inputs": [
        {
          "indexed": true,
          "internalType": "uint256",
          "name": "predictionId",
          "type": "uint256"
        },
        {
          "indexed": false,
          "internalType": "bool",
          "name": "outcome",
          "type": "bool"
        },
        {
          "indexed": false,
          "internalType": "bool",
          "name": "wasAccurate",
          "type": "bool"
        }
      ],
      "name": "PredictionResolved",
      "type": "event"
    },
    {
      "anonymous": false,
      "inputs": [
        {
          "indexed": true,
          "internalType": "address",
          "name": "implementation",
          "type": "address"
        }
      ],
      "name": "Upgraded",
      "type": "event"
    },
    {
      "inputs": [],
      "name": "astroTokenLauncher",
      "outputs": [
        {
          "internalType": "address",
          "name": "",
          "type": "address"
        }
      ],
      "stateMutability": "view",
      "type": "function"
    },
    {
      "inputs": [],
      "name": "astrologerManager",
      "outputs": [
        {
          "internalType": "address",
          "name": "",
          "type": "address"
        }
      ],
      "stateMutability": "view",
      "type": "function"
    },
    {
      "inputs": [
        {
          "internalType": "address",
          "name": "",
          "type": "address"
        },
        {
          "internalType": "uint256",
          "name": "",
          "type": "uint256"
        }
      ],
      "name": "astrologerPredictions",
      "outputs": [
        {
          "internalType": "uint256",
          "name": "",
          "type": "uint256"
        }
      ],
      "stateMutability": "view",
      "type": "function"
    },
    {
      "inputs": [],
      "name": "buyTokenContract",
      "outputs": [
        {
          "internalType": "address",
          "name": "",
          "type": "address"
        }
      ],
      "stateMutability": "view",
      "type": "function"
    },
    {
      "inputs": [
        {
          "internalType": "string",
          "name": "_description",
          "type": "string"
        },
        {
          "internalType": "uint256",
          "name": "_predictionType",
          "type": "uint256"
        },
        {
          "internalType": "uint256",
          "name": "_deadline",
          "type": "uint256"
        },
        {
          "internalType": "uint256",
          "name": "_stakeAmount",
          "type": "uint256"
        }
      ],
      "name": "createPrediction",
      "outputs": [
        {
          "internalType": "uint256",
          "name": "",
          "type": "uint256"
        }
      ],
      "stateMutability": "payable",
      "type": "function"
    },
    {
      "inputs": [
        {
          "internalType": "address",
          "name": "",
          "type": "address"
        }
      ],
      "name": "credibilityScores",
      "outputs": [
        {
          "internalType": "uint256",
          "name": "totalPredictions",
          "type": "uint256"
        },
        {
          "internalType": "uint256",
          "name": "accuratePredictions",
          "type": "uint256"
        },
        {
          "internalType": "uint256",
          "name": "accuracyPercentage",
          "type": "uint256"
        },
        {
          "internalType": "uint256",
          "name": "reputationMultiplier",
          "type": "uint256"
        },
        {
          "internalType": "uint256",
          "name": "lastUpdated",
          "type": "uint256"
        }
      ],
      "stateMutability": "view",
      "type": "function"
    },
    {
      "inputs": [],
      "name": "credibilityUpdateDelay",
      "outputs": [
        {
          "internalType": "uint256",
          "name": "",
          "type": "uint256"
        }
      ],
      "stateMutability": "view",
      "type": "function"
    },
    {
      "inputs": [
        {
          "internalType": "address",
          "name": "_astrologer",
          "type": "address"
        }
      ],
      "name": "getAstrologerAccuracy",
      "outputs": [
        {
          "internalType": "uint256",
          "name": "",
          "type": "uint256"
        }
      ],
      "stateMutability": "view",
      "type": "function"
    },
    {
      "inputs": [
        {
          "internalType": "address",
          "name": "_astrologer",
          "type": "address"
        }
      ],
      "name": "getAstrologerPredictions",
      "outputs": [
        {
          "internalType": "uint256[]",
          "name": "",
          "type": "uint256[]"
        }
      ],
      "stateMutability": "view",
      "type": "function"
    },
    {
      "inputs": [
        {
          "internalType": "address",
          "name": "_astrologer",
          "type": "address"
        }
      ],
      "name": "getCredibilityScore",
      "outputs": [
        {
          "components": [
            {
              "internalType": "uint256",
              "name": "totalPredictions",
              "type": "uint256"
            },
            {
              "internalType": "uint256",
              "name": "accuratePredictions",
              "type": "uint256"
            },
            {
              "internalType": "uint256",
              "name": "accuracyPercentage",
              "type": "uint256"
            },
            {
              "internalType": "uint256",
              "name": "reputationMultiplier",
              "type": "uint256"
            },
            {
              "internalType": "uint256",
              "name": "lastUpdated",
              "type": "uint256"
            }
          ],
          "internalType": "struct PredictionCredibilityManager.CredibilityScore",
          "name": "",
          "type": "tuple"
        }
      ],
      "stateMutability": "view",
      "type": "function"
    },
    {
      "inputs": [
        {
          "internalType": "uint256",
          "name": "_predictionId",
          "type": "uint256"
        }
      ],
      "name": "getPrediction",
      "outputs": [
        {
          "components": [
            {
              "internalType": "uint256",
              "name": "id",
              "type": "uint256"
            },
            {
              "internalType": "address",
              "name": "astrologer",
              "type": "address"
            },
            {
              "internalType": "uint256",
              "name": "astrologerId",
              "type": "uint256"
            },
            {
              "internalType": "string",
              "name": "description",
              "type": "string"
            },
            {
              "internalType": "uint256",
              "name": "predictionType",
              "type": "uint256"
            },
            {
              "internalType": "uint256",
              "name": "deadline",
              "type": "uint256"
            },
            {
              "internalType": "bool",
              "name": "outcome",
              "type": "bool"
            },
            {
              "internalType": "bool",
              "name": "isResolved",
              "type": "bool"
            },
            {
              "internalType": "bool",
              "name": "wasAccurate",
              "type": "bool"
            },
            {
              "internalType": "uint256",
              "name": "stakeAmount",
              "type": "uint256"
            },
            {
              "internalType": "uint256",
              "name": "totalStaked",
              "type": "uint256"
            },
            {
              "internalType": "uint256",
              "name": "createdAt",
              "type": "uint256"
            }
          ],
          "internalType": "struct PredictionCredibilityManager.Prediction",
          "name": "",
          "type": "tuple"
        }
      ],
      "stateMutability": "view",
      "type": "function"
    },
    {
      "inputs": [
        {
          "internalType": "address",
          "name": "_astrologer",
          "type": "address"
        }
      ],
      "name": "getReputationMultiplier",
      "outputs": [
        {
          "internalType": "uint256",
          "name": "",
          "type": "uint256"
        }
      ],
      "stateMutability": "view",
      "type": "function"
    },
    {
      "inputs": [
        {
          "internalType": "address",
          "name": "_astrologerManager",
          "type": "address"
        },
        {
          "internalType": "address",
          "name": "_buyTokenContract",
          "type": "address"
        },
        {
          "internalType": "address",
          "name": "_reputationScorer",
          "type": "address"
        },
        {
          "internalType": "address",
          "name": "_astroTokenLauncher",
          "type": "address"
        },
        {
          "internalType": "uint256",
          "name": "_minStakeAmount",
          "type": "uint256"
        },
        {
          "internalType": "uint256",
          "name": "_maxStakeAmount",
          "type": "uint256"
        }
      ],
      "name": "initialize",
      "outputs": [],
      "stateMutability": "nonpayable",
      "type": "function"
    },
    {
      "inputs": [],
      "name": "maxStakeAmount",
      "outputs": [
        {
          "internalType": "uint256",
          "name": "",
          "type": "uint256"
        }
      ],
      "stateMutability": "view",
      "type": "function"
    },
    {
      "inputs": [],
      "name": "minStakeAmount",
      "outputs": [
        {
          "internalType": "uint256",
          "name": "",
          "type": "uint256"
        }
      ],
      "stateMutability": "view",
      "type": "function"
    },
    {
      "inputs": [],
      "name": "owner",
      "outputs": [
        {
          "internalType": "address",
          "name": "",
          "type": "address"
        }
      ],
      "stateMutability": "view",
      "type": "function"
    },
    {
      "inputs": [
        {
          "internalType": "uint256",
          "name": "",
          "type": "uint256"
        }
      ],
      "name": "predictions",
      "outputs": [
        {
          "internalType": "uint256",
          "name": "id",
          "type": "uint256"
        },
        {
          "internalType": "address",
          "name": "astrologer",
          "type": "address"
        },
        {
          "internalType": "uint256",
          "name": "astrologerId",
          "type": "uint256"
        },
        {
          "internalType": "string",
          "name": "description",
          "type": "string"
        },
        {
          "internalType": "uint256",
          "name": "predictionType",
          "type": "uint256"
        },
        {
          "internalType": "uint256",
          "name": "deadline",
          "type": "uint256"
        },
        {
          "internalType": "bool",
          "name": "outcome",
          "type": "bool"
        },
        {
          "internalType": "bool",
          "name": "isResolved",
          "type": "bool"
        },
        {
          "internalType": "bool",
          "name": "wasAccurate",
          "type": "bool"
        },
        {
          "internalType": "uint256",
          "name": "stakeAmount",
          "type": "uint256"
        },
        {
          "internalType": "uint256",
          "name": "totalStaked",
          "type": "uint256"
        },
        {
          "internalType": "uint256",
          "name": "createdAt",
          "type": "uint256"
        }
      ],
      "stateMutability": "view",
      "type": "function"
    },
    {
      "inputs": [],
      "name": "proxiableUUID",
      "outputs": [
        {
          "internalType": "bytes32",
          "name": "",
          "type": "bytes32"
        }
      ],
      "stateMutability": "view",
      "type": "function"
    },
    {
      "inputs": [],
      "name": "renounceOwnership",
      "outputs": [],
      "stateMutability": "nonpayable",
      "type": "function"
    },
    {
      "inputs": [],
      "name": "reputationScorer",
      "outputs": [
        {
          "internalType": "address",
          "name": "",
          "type": "address"
        }
      ],
      "stateMutability": "view",
      "type": "function"
    },
    {
      "inputs": [
        {
          "internalType": "uint256",
          "name": "_predictionId",
          "type": "uint256"
        },
        {
          "internalType": "bool",
          "name": "_outcome",
          "type": "bool"
        }
      ],
      "name": "resolvePrediction",
      "outputs": [],
      "stateMutability": "nonpayable",
      "type": "function"
    },
    {
      "inputs": [
        {
          "internalType": "address",
          "name": "_astroTokenLauncher",
          "type": "address"
        }
      ],
      "name": "setAstroTokenLauncher",
      "outputs": [],
      "stateMutability": "nonpayable",
      "type": "function"
    },
    {
      "inputs": [
        {
          "internalType": "address",
          "name": "_astrologerManager",
          "type": "address"
        }
      ],
      "name": "setAstrologerManager",
      "outputs": [],
      "stateMutability": "nonpayable",
      "type": "function"
    },
    {
      "inputs": [
        {
          "internalType": "address",
          "name": "_buyTokenContract",
          "type": "address"
        }
      ],
      "name": "setBuyTokenContract",
      "outputs": [],
      "stateMutability": "nonpayable",
      "type": "function"
    },
    {
      "inputs": [
        {
          "internalType": "uint256",
          "name": "_delay",
          "type": "uint256"
        }
      ],
      "name": "setCredibilityUpdateDelay",
      "outputs": [],
      "stateMutability": "nonpayable",
      "type": "function"
    },
    {
      "inputs": [
        {
          "internalType": "address",
          "name": "_reputationScorer",
          "type": "address"
        }
      ],
      "name": "setReputationScorer",
      "outputs": [],
      "stateMutability": "nonpayable",
      "type": "function"
    },
    {
      "inputs": [
        {
          "internalType": "uint256",
          "name": "_minStakeAmount",
          "type": "uint256"
        },
        {
          "internalType": "uint256",
          "name": "_maxStakeAmount",
          "type": "uint256"
        }
      ],
      "name": "setStakeLimits",
      "outputs": [],
      "stateMutability": "nonpayable",
      "type": "function"
    },
    {
      "inputs": [
        {
          "internalType": "address",
          "name": "newOwner",
          "type": "address"
        }
      ],
      "name": "transferOwnership",
      "outputs": [],
      "stateMutability": "nonpayable",
      "type": "function"
    },
    {
      "inputs": [
        {
          "internalType": "address",
          "name": "newImplementation",
          "type": "address"
        }
      ],
      "name": "upgradeTo",
      "outputs": [],
      "stateMutability": "nonpayable",
      "type": "function"
    },
    {
      "inputs": [
        {
          "internalType": "address",
          "name": "newImplementation",
          "type": "address"
        },
        {
          "internalType": "bytes",
          "name": "data",
          "type": "bytes"
        }
      ],
      "name": "upgradeToAndCall",
      "outputs": [],
      "stateMutability": "payable",
      "type": "function"
    },
    {
      "inputs": [],
      "name": "withdraw",
      "outputs": [],
      "stateMutability": "nonpayable",
      "type": "function"
    }
  ],
  "bytecode": "0x60a080604052346100dc57306080526000549060ff8260081c1661008a575060ff8082160361004f575b60405161241590816100e28239608051818181611598015281816116980152611a230152f35b60ff90811916176000557f7f26b83ff96e1f2b6a682f133852f6798a09c465da95921460cefb3847402498602060405160ff8152a138610029565b62461bcd60e51b815260206004820152602760248201527f496e697469616c697a61626c653a20636f6e747261637420697320696e697469604482015266616c697a696e6760c81b6064820152608490fd5b600080fdfe6080604052600436101561001257600080fd5b6000803560e01c80624fbbb014611ce357806316d54f0914611cba5780632a2fa8c814611c9c5780633659cfe6146119fe57806337562b29146119a85780633ccfd60b1461195857806344cda485146119185780634f1ef2861461164957806352d1902d146115855780635d80ca32146115675780635ddb0e2b146115445780636882fc51146115195780636fd31a41146114f0578063715018a61461149357806373c84d211461146a57806376f3450114610dcd5780637d54f2a514610d675780638c9bd1b514610d3e5780638da5cb5b14610d15578063ab3dcd6a14610cec578063b107e88c14610caf578063bc85818514610c01578063c3a274c214610bc1578063c4faa808146106f5578063d7c41c791461052c578063e2c3538c146104ec578063e9725c21146104ac578063ec88c09b146103f7578063f1887684146103d9578063f2fde38b146103485763fe83bece1461017157600080fd5b346103455760203660031901126103455760409060043581610160845161019781611e16565b82815282602082015282868201526060808201528260808201528260a08201528260c08201528260e0820152826101008201528261012082015282610140820152015280151580610339575b6101ec906122fd565b815260ca6020522060096040519161020383611e16565b8054835260018101546001600160a01b031660208401526002810154604084015261023060038201611e89565b606084015260048101546080840152600581015460a084015260ff6006820154818116151560c0860152818160081c16151560e086015260101c1615156101008401526007810154610120840152600881015461014084015201546101608201526040518091602082528051602083015260018060a01b0360208201511660408301526040810151606083015260608101516101606102dd610180928360808701526101a0860190611f52565b92608081015160a086015260a081015160c086015260c0810151151560e086015260e081015115156101008601526101008101511515610120860152610120810151610140860152610140810151828601520151908301520390f35b5060c9548111156101e3565b80fd5b503461034557602036600319011261034557610362611f77565b61036a61200d565b6001600160a01b038116156103855761038290612065565b80f35b60405162461bcd60e51b815260206004820152602660248201527f4f776e61626c653a206e6577206f776e657220697320746865207a65726f206160448201526564647265737360d01b6064820152608490fd5b5034610345578060031936011261034557602060d154604051908152f35b503461034557602036600319011261034557604060a091610416611f77565b816080845161042481611e32565b82815282602082015282868201528260608201520152600180851b0316815260cb6020522060405161045581611e32565b81549182825260018101546020830190815260028201549060408401918252608060046003850154946060870195865201549401938452604051948552516020850152516040840152516060830152516080820152f35b5034610345576020366003190112610345576104c6611f77565b6104ce61200d565b60018060a01b03166001600160601b0360a01b60cf54161760cf5580f35b503461034557602036600319011261034557610506611f77565b61050e61200d565b60018060a01b03166001600160601b0360a01b60d054161760d05580f35b50346103455760c036600319011261034557610546611f77565b6001600160a01b039060243582811691908290036106f057604435908382168092036106f057606435918483168093036106f05785549360ff8560081c1615948580966106e3575b80156106cc575b156106705760ff19811660011788558561065f575b506105c460ff885460081c166105bf8161229d565b61229d565b6105cd33612065565b8654956105df60ff8860081c1661229d565b6001600160601b0360a01b93168360cd54161760cd558260ce54161760ce558160cf54161760cf5560d054161760d05560843560d15560a43560d2556201518060d35561062a575080f35b61ff00191681557f7f26b83ff96e1f2b6a682f133852f6798a09c465da95921460cefb3847402498602060405160018152a180f35b61ffff1916610101178755386105aa565b60405162461bcd60e51b815260206004820152602e60248201527f496e697469616c697a61626c653a20636f6e747261637420697320616c72656160448201526d191e481a5b9a5d1a585b1a5e995960921b6064820152608490fd5b50303b1580156105955750600160ff821614610595565b50600160ff82161061058e565b600080fd5b506080366003190112610345576004356001600160401b038111610bbd5736602382011215610bbd57610732903690602481600401359101611fd6565b60d1543410610b815760d2543411610b4457426044351115610aff57805115610aba57600260243511610a7557600160c95401908160c95560405161077681611e16565b828152336020820152836040820152816060820152602435608082015260443560a08201528360c08201528360e08201528361010082015234610120820152346101408201524261016082015282845260ca6020526040842090805182556001820160018060a01b036020830151166001600160601b0360a01b8254161790556040810151600283015560608101518051906001600160401b038211610a61576108236003850154611db3565b601f8111610a1c575b50602090601f83116001146109a957918060099492610160948a9261099e575b50508160011b916000199060031b1c19161760038501555b6080810151600485015560a081015160058501556108ce6006850161089b60c08401511515829060ff801983541691151516179055565b60e0830151815461010085015162ffff001990911691151560081b61ff00169190911790151560101b62ff000016179055565b61012081015160078501556101408101516008850155015191015533835260cc602052604083208054936801000000000000000085101561098a575061091d8484926001602097018155611f8d565b819291549060031b600019811b9283911b16911916179055817f37f3edf7ed237f91fd6999d49411c7e10b3602f2e561a5adf21934775659c61a61096c60405193606085526060850190611f52565b926024358682015260443560408201528033940390a3604051908152f35b634e487b7160e01b81526041600452602490fd5b01519050388061084c565b906003850188526020882091885b601f1985168110610a04575092600994926001926101609583601f198116106109eb575b505050811b016003850155610864565b015160001960f88460031b161c191690553880806109db565b919260206001819286850151815501940192016109b7565b60038501885260208820601f840160051c810160208510610a5a575b601f830160051c82018110610a4e57505061082c565b60008155600101610a38565b5080610a38565b634e487b7160e01b87526041600452602487fd5b60405162461bcd60e51b815260206004820152601760248201527f496e76616c69642070726564696374696f6e20747970650000000000000000006044820152606490fd5b60405162461bcd60e51b815260206004820152601b60248201527f4465736372697074696f6e2063616e6e6f7420626520656d70747900000000006044820152606490fd5b60405162461bcd60e51b815260206004820152601e60248201527f446561646c696e65206d75737420626520696e207468652066757475726500006044820152606490fd5b60405162461bcd60e51b81526020600482015260156024820152740a6e8c2d6ca40c2dadeeadce840e8dede40d0d2ced605b1b6044820152606490fd5b60405162461bcd60e51b81526020600482015260146024820152735374616b6520616d6f756e7420746f6f206c6f7760601b6044820152606490fd5b5080fd5b503461034557602036600319011261034557610bdb611f77565b610be361200d565b60018060a01b03166001600160601b0360a01b60ce54161760ce5580f35b503461034557602080600319360112610bbd576001600160a01b03610c24611f77565b16825260cc81526040822060405192838383549182815201908193835284832090835b818110610c9b5750505084610c5d910385611e68565b60405193838594850191818652518092526040850193925b828110610c8457505050500390f35b835185528695509381019392810192600101610c75565b825484529286019260019283019201610c47565b5034610345576020366003190112610345576020906003906040906001600160a01b03610cda611f77565b16815260cb8452200154604051908152f35b503461034557806003193601126103455760d0546040516001600160a01b039091168152602090f35b50346103455780600319360112610345576033546040516001600160a01b039091168152602090f35b503461034557604036600319011261034557610d5861200d565b60043560d15560243560d25580f35b50346103455760203660031901126103455760a0906040906001600160a01b03610d8f611f77565b16815260cb60205220805490600181015490600281015460046003830154920154926040519485526020850152604084015260608301526080820152f35b503461034557604036600319011261034557602435908115158203610345576033546001600160a01b031633148015611456575b1561142257600435151580611414575b610e1a906122fd565b600435815260ca6020526040812091600683019260ff845460081c166113cf576005810154421061139357835460ff191660ff83151516178455600190845462ffff00191683151560101b62ff00001617610100178555019260018060a01b038454169381549480855260cb602052604085209560ff610e9a8854612341565b9182895560101c1661137e575b60018701548060648102046064148115171561136a5781156113565760640204600287018181559690605a811061130957506105dc60038201555b42600482015560d0546001600160a01b03168061107a575b5060607f6a7ecd478c262bb3ab79078dfdd91746ac4294a080e783fcb6c01647a353d5f7916003889998969798549101546040519180835260208301526040820152a260cd546001600160a01b03169081610f95575b50505060ff905460101c166040519115158252151560208201527fce4539ae54088cf98525b0ed90db8b4271abcb31bd3a4b964aed59895698f72f604060043592a280f35b5460405163656d0c3960e01b81526001600160a01b039091166004820152602081602481855afa90811561106f57839161103d575b508015610f505760ff845460101c16823b156110395760448492836040519586948593631c8fdeb560e31b85526004850152151560248401525af1801561102e57611016575b80610f50565b61101f90611ded565b61102a578238611010565b8280fd5b6040513d84823e3d90fd5b8380fd5b90506020813d602011611067575b8161105860209383611e68565b8101031261102a575138610fca565b3d915061104b565b6040513d85823e3d90fd5b9686602498604051998a809263248bb6cd60e21b82528760048301525afa8088916111ab575b889950979596976110b6575b5096959493610efa565b60408101516001600160a01b03169081151580611195575b80611187575b6110df575b506110ac565b60600151600384015495969495939492936001600160a01b039091169291833b1561102a5760449083604051958694859363f6322a5f60e01b8552600485015260248401525af1801561117c5761113d575b908188959493926110d9565b7f6a7ecd478c262bb3ab79078dfdd91746ac4294a080e783fcb6c01647a353d5f791949392600398611170606093611ded565b98509293949150611131565b6040513d8a823e3d90fd5b5061010081015115156110d4565b5060608101516001600160a01b031615156110ce565b90503d988989823e6111bd8a82611e68565b6020818b810103126113055780516001600160401b0381116112e9576101408183018c840103126112e95760405191826101408101106001600160401b03610140850111176112f1578a9b610140849c9a9b9c01604052828201518452611228602084840101612366565b602085015261123b604084840101612366565b604085015261124e606084840101612366565b6060850152608083830101516001600160401b0381116112ed5761127990828401908585010161237a565b608085015260a083830101516001600160401b0381116112ed576112a3918301908484010161237a565b60a084015280820160c0818101519085015260e08082015190850152610100015180151581036112e95761010084015201610120908101519082015295979695906110a0565b8980fd5b8a80fd5b634e487b7160e01b8b52604160045260248bfd5b8880fd5b6050811061131f57506104b06003820155610ee2565b6046811061133557506103e86003820155610ee2565b603c11611349576103206003820155610ee2565b6101f46003820155610ee2565b634e487b7160e01b87526012600452602487fd5b634e487b7160e01b87526011600452602487fd5b6001870161138c8154612341565b9055610ea7565b60405162461bcd60e51b8152602060048201526014602482015273111958591b1a5b99481b9bdd081c995858da195960621b6044820152606490fd5b60405162461bcd60e51b815260206004820152601b60248201527f50726564696374696f6e20616c7265616479207265736f6c76656400000000006044820152606490fd5b5060c9546004351115610e11565b60405162461bcd60e51b815260206004820152600c60248201526b155b985d5d1a1bdc9a5e995960a21b6044820152606490fd5b5060cf546001600160a01b03163314610e01565b503461034557806003193601126103455760cf546040516001600160a01b039091168152602090f35b50346103455780600319360112610345576114ac61200d565b603380546001600160a01b0319811690915581906001600160a01b03167f8be0079c531659141344cd1fd0a4f28419497f9722a3daafe3b4186f6b6457e08280a380f35b503461034557806003193601126103455760cd546040516001600160a01b039091168152602090f35b5034610345576020366003190112610345576020906002906040906001600160a01b03610cda611f77565b50346103455760203660031901126103455761155e61200d565b60043560d35580f35b5034610345578060031936011261034557602060d254604051908152f35b50346103455780600319360112610345577f00000000000000000000000000000000000000000000000000000000000000006001600160a01b031630036115de5760206040516000805160206123c08339815191528152f35b60405162461bcd60e51b815260206004820152603860248201527f555550535570677261646561626c653a206d757374206e6f742062652063616c60448201527f6c6564207468726f7567682064656c656761746563616c6c00000000000000006064820152608490fd5b5060403660031901126103455761165e611f77565b6024356001600160401b03811161102a573660238201121561102a5761168e903690602481600401359101611fd6565b6001600160a01b037f000000000000000000000000000000000000000000000000000000000000000081169291906116c8308514156120ae565b6116e56000805160206123c083398151915294828654161461210f565b6116ed61200d565b7f4910fdfa16fed3260ed0e7147f7cc6da11a60208b5b9406d12a635614ffd91435460ff16156117235750506103829150612170565b8216604051936352d1902d60e01b85526020948581600481865afa8791816118e5575b506117a75760405162461bcd60e51b815260048101879052602e60248201527f45524331393637557067726164653a206e657720696d706c656d656e7461746960448201526d6f6e206973206e6f74205555505360901b6064820152608490fd5b949293940361188e576117b984612170565b7fbc7cd75a20ee27fd9adebab32041f755214dbc6bffa90cc0225b39da2e5c2d3b8580a2815115801590611886575b6117f3575b50505080f35b6118749284806040519461180686611e4d565b602786527f416464726573733a206c6f772d6c6576656c2064656c65676174652063616c6c85870152660819985a5b195960ca1b60408701528481519101845af4903d1561187d573d61185881611fbb565b906118666040519283611e68565b81528681943d92013e612200565b503880806117ed565b60609250612200565b5060016117e8565b60405162461bcd60e51b815260048101839052602960248201527f45524331393637557067726164653a20756e737570706f727465642070726f786044820152681a58589b195555525160ba1b6064820152608490fd5b9091508681813d8311611911575b6118fd8183611e68565b8101031261190d57519038611746565b8780fd5b503d6118f3565b503461034557602036600319011261034557611932611f77565b61193a61200d565b60018060a01b03166001600160601b0360a01b60cd54161760cd5580f35b503461034557806003193601126103455761197161200d565b8080808060018060a01b0360335416479082821561199f575bf1156119935780f35b604051903d90823e3d90fd5b506108fc61198a565b5034610345576040366003190112610345576119c2611f77565b6001600160a01b0316815260cc60205260408120805460243592908310156103455760206119f08484611f8d565b90546040519160031b1c8152f35b503461034557602080600319360112610bbd57611a19611f77565b6001600160a01b037f00000000000000000000000000000000000000000000000000000000000000008116611a50308214156120ae565b611a6d6000805160206123c083398151915291838354161461210f565b611a7561200d565b60405190848201928284106001600160401b03851117610a61578360405286835260ff7f4910fdfa16fed3260ed0e7147f7cc6da11a60208b5b9406d12a635614ffd91435416600014611ad057505050506103829150612170565b8492939416906040516352d1902d60e01b81528681600481865afa889181611c6d575b50611b545760405162461bcd60e51b815260048101889052602e60248201527f45524331393637557067726164653a206e657720696d706c656d656e7461746960448201526d6f6e206973206e6f74205555505360901b6064820152608490fd5b9593949503611c1657611b6682612170565b7fbc7cd75a20ee27fd9adebab32041f755214dbc6bffa90cc0225b39da2e5c2d3b8680a284835115801590611c0f575b611ba3575b505050505080f35b80611c049560405195611bb587611e4d565b602787527f416464726573733a206c6f772d6c6576656c2064656c65676174652063616c6c86880152660819985a5b195960ca1b60408801525190845af4903d1561187d573d61185881611fbb565b503880808084611b9b565b5080611b96565b60405162461bcd60e51b815260048101849052602960248201527f45524331393637557067726164653a20756e737570706f727465642070726f786044820152681a58589b195555525160ba1b6064820152608490fd5b9091508781813d8311611c95575b611c858183611e68565b8101031261130557519038611af3565b503d611c7b565b5034610345578060031936011261034557602060d354604051908152f35b503461034557806003193601126103455760ce546040516001600160a01b039091168152602090f35b503461034557602036600319011261034557604090600435815260ca60205220805460018060a01b03600183015416916002810154611d2460038301611e89565b9160048101549260ff6005830154600684015490611d6f60078601549460096008880154970154976040519b8c9b8c5260208c015260408b01526101808060608c01528a0190611f52565b96608089015260a0880152818116151560c0880152818160081c16151560e088015260101c1615156101008601526101208501526101408401526101608301520390f35b90600182811c92168015611de3575b6020831014611dcd57565b634e487b7160e01b600052602260045260246000fd5b91607f1691611dc2565b6001600160401b038111611e0057604052565b634e487b7160e01b600052604160045260246000fd5b61018081019081106001600160401b03821117611e0057604052565b60a081019081106001600160401b03821117611e0057604052565b606081019081106001600160401b03821117611e0057604052565b90601f801991011681019081106001600160401b03821117611e0057604052565b9060405191826000825492611e9d84611db3565b908184526001948581169081600014611f0c5750600114611ec9575b5050611ec792500383611e68565b565b9093915060005260209081600020936000915b818310611ef4575050611ec793508201013880611eb9565b85548884018501529485019487945091830191611edc565b915050611ec794506020925060ff191682840152151560051b8201013880611eb9565b60005b838110611f425750506000910152565b8181015183820152602001611f32565b90602091611f6b81518092818552858086019101611f2f565b601f01601f1916010190565b600435906001600160a01b03821682036106f057565b8054821015611fa55760005260206000200190600090565b634e487b7160e01b600052603260045260246000fd5b6001600160401b038111611e0057601f01601f191660200190565b929192611fe282611fbb565b91611ff06040519384611e68565b8294818452818301116106f0578281602093846000960137010152565b6033546001600160a01b0316330361202157565b606460405162461bcd60e51b815260206004820152602060248201527f4f776e61626c653a2063616c6c6572206973206e6f7420746865206f776e65726044820152fd5b603380546001600160a01b039283166001600160a01b0319821681179092559091167f8be0079c531659141344cd1fd0a4f28419497f9722a3daafe3b4186f6b6457e0600080a3565b156120b557565b60405162461bcd60e51b815260206004820152602c60248201527f46756e6374696f6e206d7573742062652063616c6c6564207468726f7567682060448201526b19195b1959d85d1958d85b1b60a21b6064820152608490fd5b1561211657565b60405162461bcd60e51b815260206004820152602c60248201527f46756e6374696f6e206d7573742062652063616c6c6564207468726f7567682060448201526b6163746976652070726f787960a01b6064820152608490fd5b803b156121a5576000805160206123c083398151915280546001600160a01b0319166001600160a01b03909216919091179055565b60405162461bcd60e51b815260206004820152602d60248201527f455243313936373a206e657720696d706c656d656e746174696f6e206973206e60448201526c1bdd08184818dbdb9d1c9858dd609a1b6064820152608490fd5b919290156122625750815115612214575090565b3b1561221d5790565b60405162461bcd60e51b815260206004820152601d60248201527f416464726573733a2063616c6c20746f206e6f6e2d636f6e74726163740000006044820152606490fd5b8251909150156122755750805190602001fd5b60405162461bcd60e51b815260206004820152908190612299906024830190611f52565b0390fd5b156122a457565b60405162461bcd60e51b815260206004820152602b60248201527f496e697469616c697a61626c653a20636f6e7472616374206973206e6f74206960448201526a6e697469616c697a696e6760a81b6064820152608490fd5b1561230457565b60405162461bcd60e51b8152602060048201526015602482015274125b9d985b1a59081c1c99591a58dd1a5bdb881251605a1b6044820152606490fd5b60001981146123505760010190565b634e487b7160e01b600052601160045260246000fd5b51906001600160a01b03821682036106f057565b81601f820112156106f057805161239081611fbb565b9261239e6040519485611e68565b818452602082840101116106f0576123bc9160208085019101611f2f565b9056fe360894a13ba1a3210667c828492db98dca3e2076cc3735a920a3ca505d382bbca26469706673582212201d1d809abf756a0d1183a8c27da3bbf771682288cc4360e2e26357f9dba0b48c64736f6c63430008110033",
  "linkReferences": {},
  "deployedLinkReferences": {}
}