{
  "_format": "hh-sol-artifact-1",
  "contractName": "TestContract",
  "sourceName": "contracts/TestContract.sol",
  "abi": [
    {
      "inputs": [
        {
          "internalType": "uint256",
          "name": "_param1",
          "type": "uint256"
        },
        {
          "internalType": "string",
          "name": "_param2",
          "type": "string"
        }
      ],
      "stateMutability": "nonpayable",
      "type": "constructor"
    },
    {
      "inputs": [],
      "name": "param1",
      "outputs": [
        {
          "internalType": "uint256",
          "name": "",
          "type": "uint256"
        }
      ],
      "stateMutability": "view",
      "type": "function"
    },
    {
      "inputs": [],
      "name": "param2",
      "outputs": [
        {
          "internalType": "string",
          "name": "",
          "type": "string"
        }
      ],
      "stateMutability": "view",
      "type": "function"
    },
    {
      "inputs": [
        {
          "internalType": "uint256",
          "name": "_newParam1",
          "type": "uint256"
        },
        {
          "internalType": "string",
          "name": "_newParam2",
          "type": "string"
        }
      ],
      "name": "updateParams",
      "outputs": [],
      "stateMutability": "nonpayable",
      "type": "function"
    }
  ],
  "bytecode": "0x6080604052346101f75761061080380380610019816101fc565b9283398101906040818303126101f757805160208083015190926001600160401b039291908382116101f7570192601f918583860112156101f75784518481116101cd57601f1995610070828601881685016101fc565b978289528483830101116101f757839060005b8381106101e35750506000918801015260005584519283116101cd5760019384548581811c911680156101c3575b838210146101ad57838111610167575b50819284116001146101085750508192936000926100fd575b5050600019600383901b1c191690821b1790555b6040516103ee90816102228239f35b0151905038806100da565b6000858152828120918516969193925b87821061015057505083859610610137575b505050811b0190556100ee565b015160001960f88460031b161c1916905538808061012a565b808785968294968601518155019501930190610118565b85600052826000208480870160051c8201928588106101a4575b0160051c019086905b8281106101985750506100c1565b6000815501869061018a565b92508192610181565b634e487b7160e01b600052602260045260246000fd5b90607f16906100b1565b634e487b7160e01b600052604160045260246000fd5b8181018301518a8201840152859201610083565b600080fd5b6040519190601f01601f191682016001600160401b038111838210176101cd5760405256fe6080604090808252600436101561001557600080fd5b600090813560e01c90816302d915181461032c575080631f049b6814610216576382c0a3401461004457600080fd5b346102135781600319360112610213576024359167ffffffffffffffff80841161020f573660238501121561020f578360040135918183116101f7575193602092601f199161009a601f83018416860188610380565b818752366024838301011161020b578186926024879301838a013787010152600435845584519182116101f7576001926100d48454610346565b601f8111610193575b508091601f841160011461011957505083948293949261010e575b5050600019600383901b1c191690821b17905580f35b0151905038806100f8565b8486528316957fb10e2d527612073b26eecdfd717e6a320cf44b4afac2b0732d9fcbe2b7fa0cf6929186905b88821061017c5750508385969710610163575b505050811b01905580f35b015160001960f88460031b161c19169055388080610158565b808785968294968601518155019501930190610145565b8486527fb10e2d527612073b26eecdfd717e6a320cf44b4afac2b0732d9fcbe2b7fa0cf6601f850160051c8101918386106101ed575b601f0160051c019085905b8281106101e25750506100dd565b8781550185906101d4565b90915081906101c9565b634e487b7160e01b84526041600452602484fd5b8580fd5b8280fd5b80fd5b5090346103285781600319360112610328578051828160019182549261023b84610346565b8084529381811690811561030657506001146102aa575b5061026292509492940384610380565b815192839160208084528251928382860152825b84811061029457505050828201840152601f01601f19168101030190f35b8181018301518882018801528795508201610276565b8087528691507fb10e2d527612073b26eecdfd717e6a320cf44b4afac2b0732d9fcbe2b7fa0cf65b8483106102eb5750610262935050810160200138610252565b819350908160209254838589010152019101909184926102d2565b90506020925061026294915060ff191682840152151560051b82010138610252565b5080fd5b905034610328578160031936011261032857602091548152f35b90600182811c92168015610376575b602083101461036057565b634e487b7160e01b600052602260045260246000fd5b91607f1691610355565b90601f8019910116810190811067ffffffffffffffff8211176103a257604052565b634e487b7160e01b600052604160045260246000fdfea2646970667358221220461b2ac808425dd944acd7c8d69dc35c8f63caaafadd4c62df502e268ffc8ce664736f6c63430008110033",
  "linkReferences": {},
  "deployedLinkReferences": {}
}