{"contracts/ReputationScorer.sol":{"ReputationScorer":{"abi":[{"inputs":[],"stateMutability":"nonpayable","type":"constructor"},{"anonymous":false,"inputs":[{"indexed":false,"internalType":"address","name":"previousAdmin","type":"address"},{"indexed":false,"internalType":"address","name":"newAdmin","type":"address"}],"name":"AdminChanged","type":"event"},{"anonymous":false,"inputs":[{"indexed":true,"internalType":"address","name":"beacon","type":"address"}],"name":"BeaconUpgraded","type":"event"},{"anonymous":false,"inputs":[{"indexed":false,"internalType":"uint8","name":"version","type":"uint8"}],"name":"Initialized","type":"event"},{"anonymous":false,"inputs":[{"indexed":true,"internalType":"address","name":"previousOwner","type":"address"},{"indexed":true,"internalType":"address","name":"newOwner","type":"address"}],"name":"OwnershipTransferred","type":"event"},{"anonymous":false,"inputs":[{"indexed":true,"internalType":"uint256","name":"moduleId","type":"uint256"},{"indexed":false,"internalType":"address","name":"contractAddress","type":"address"},{"indexed":false,"internalType":"uint256","name":"weight","type":"uint256"}],"name":"PredictionModuleAdded","type":"event"},{"anonymous":false,"inputs":[{"indexed":true,"internalType":"address","name":"astrologer","type":"address"},{"indexed":false,"internalType":"uint256","name":"oldAccuracy","type":"uint256"},{"indexed":false,"internalType":"uint256","name":"newAccuracy","type":"uint256"},{"indexed":false,"internalType":"uint256","name":"newMultiplier","type":"uint256"}],"name":"ReputationScoreUpdated","type":"event"},{"anonymous":false,"inputs":[{"indexed":true,"internalType":"address","name":"astrologer","type":"address"},{"indexed":false,"internalType":"uint256","name":"marketAccuracy","type":"uint256"},{"indexed":false,"internalType":"uint256","name":"dailyAccuracy","type":"uint256"},{"indexed":false,"internalType":"uint256","name":"oneToOneAccuracy","type":"uint256"},{"indexed":false,"internalType":"uint256","name":"weightedScore","type":"uint256"}],"name":"ScoreBreakdownUpdated","type":"event"},{"anonymous":false,"inputs":[{"indexed":true,"internalType":"address","name":"implementation","type":"address"}],"name":"Upgraded","type":"event"},{"inputs":[{"internalType":"address","name":"_contractAddress","type":"address"},{"internalType":"uint256","name":"_weight","type":"uint256"}],"name":"addPredictionModule","outputs":[{"internalType":"uint256","name":"","type":"uint256"}],"stateMutability":"nonpayable","type":"function"},{"inputs":[],"name":"astroTokenLauncher","outputs":[{"internalType":"address","name":"","type":"address"}],"stateMutability":"view","type":"function"},{"inputs":[],"name":"astrologerManager","outputs":[{"internalType":"address","name":"","type":"address"}],"stateMutability":"view","type":"function"},{"inputs":[],"name":"buyTokenContract","outputs":[{"internalType":"address","name":"","type":"address"}],"stateMutability":"view","type":"function"},{"inputs":[{"internalType":"address","name":"_astrologer","type":"address"}],"name":"getReputationMultiplier","outputs":[{"internalType":"uint256","name":"","type":"uint256"}],"stateMutability":"view","type":"function"},{"inputs":[],"name":"getReputationMultiplierRange","outputs":[{"internalType":"uint256","name":"max","type":"uint256"},{"internalType":"uint256","name":"min","type":"uint256"}],"stateMutability":"view","type":"function"},{"inputs":[{"internalType":"address","name":"_astrologer","type":"address"}],"name":"getReputationScore","outputs":[{"components":[{"internalType":"uint256","name":"id","type":"uint256"},{"internalType":"address","name":"astrologer","type":"address"},{"internalType":"uint256","name":"totalPredictions","type":"uint256"},{"internalType":"uint256","name":"accuratePredictions","type":"uint256"},{"internalType":"uint256","name":"accuracyPercentage","type":"uint256"},{"internalType":"uint256","name":"reputationMultiplier","type":"uint256"},{"internalType":"uint256","name":"marketPredictions","type":"uint256"},{"internalType":"uint256","name":"dailyPredictions","type":"uint256"},{"internalType":"uint256","name":"oneToOnePredictions","type":"uint256"},{"internalType":"uint256","name":"lastUpdated","type":"uint256"},{"internalType":"bool","name":"isActive","type":"bool"}],"internalType":"struct ReputationScorer.ReputationScore","name":"","type":"tuple"}],"stateMutability":"view","type":"function"},{"inputs":[{"internalType":"address","name":"_astrologer","type":"address"}],"name":"getReputationTier","outputs":[{"internalType":"uint256","name":"","type":"uint256"}],"stateMutability":"view","type":"function"},{"inputs":[{"internalType":"address","name":"_astrologer","type":"address"}],"name":"getScoreBreakdown","outputs":[{"components":[{"internalType":"uint256","name":"marketAccuracy","type":"uint256"},{"internalType":"uint256","name":"dailyAccuracy","type":"uint256"},{"internalType":"uint256","name":"oneToOneAccuracy","type":"uint256"},{"internalType":"uint256","name":"weightedScore","type":"uint256"},{"internalType":"uint256","name":"reputationTier","type":"uint256"}],"internalType":"struct ReputationScorer.ScoreBreakdown","name":"","type":"tuple"}],"stateMutability":"view","type":"function"},{"inputs":[{"internalType":"uint256","name":"_limit","type":"uint256"}],"name":"getTopAstrologers","outputs":[{"internalType":"address[]","name":"","type":"address[]"}],"stateMutability":"view","type":"function"},{"inputs":[{"internalType":"address","name":"_astrologerManager","type":"address"},{"internalType":"address","name":"_buyTokenContract","type":"address"},{"internalType":"address","name":"_zodiacDAO","type":"address"},{"internalType":"uint256","name":"_minPredictionsForScore","type":"uint256"},{"internalType":"uint256","name":"_scoreUpdateDelay","type":"uint256"}],"name":"initialize","outputs":[],"stateMutability":"nonpayable","type":"function"},{"inputs":[],"name":"maxReputationMultiplier","outputs":[{"internalType":"uint256","name":"","type":"uint256"}],"stateMutability":"view","type":"function"},{"inputs":[],"name":"minPredictionsForScore","outputs":[{"internalType":"uint256","name":"","type":"uint256"}],"stateMutability":"view","type":"function"},{"inputs":[],"name":"minReputationMultiplier","outputs":[{"internalType":"uint256","name":"","type":"uint256"}],"stateMutability":"view","type":"function"},{"inputs":[],"name":"owner","outputs":[{"internalType":"address","name":"","type":"address"}],"stateMutability":"view","type":"function"},{"inputs":[{"internalType":"uint256","name":"","type":"uint256"}],"name":"predictionModules","outputs":[{"internalType":"address","name":"contractAddress","type":"address"},{"internalType":"bool","name":"isActive","type":"bool"},{"internalType":"uint256","name":"weight","type":"uint256"},{"internalType":"uint256","name":"lastUpdate","type":"uint256"}],"stateMutability":"view","type":"function"},{"inputs":[],"name":"proxiableUUID","outputs":[{"internalType":"bytes32","name":"","type":"bytes32"}],"stateMutability":"view","type":"function"},{"inputs":[],"name":"renounceOwnership","outputs":[],"stateMutability":"nonpayable","type":"function"},{"inputs":[],"name":"reputationDecayRate","outputs":[{"internalType":"uint256","name":"","type":"uint256"}],"stateMutability":"view","type":"function"},{"inputs":[{"internalType":"address","name":"","type":"address"}],"name":"reputationScores","outputs":[{"internalType":"uint256","name":"id","type":"uint256"},{"internalType":"address","name":"astrologer","type":"address"},{"internalType":"uint256","name":"totalPredictions","type":"uint256"},{"internalType":"uint256","name":"accuratePredictions","type":"uint256"},{"internalType":"uint256","name":"accuracyPercentage","type":"uint256"},{"internalType":"uint256","name":"reputationMultiplier","type":"uint256"},{"internalType":"uint256","name":"marketPredictions","type":"uint256"},{"internalType":"uint256","name":"dailyPredictions","type":"uint256"},{"internalType":"uint256","name":"oneToOnePredictions","type":"uint256"},{"internalType":"uint256","name":"lastUpdated","type":"uint256"},{"internalType":"bool","name":"isActive","type":"bool"}],"stateMutability":"view","type":"function"},{"inputs":[{"internalType":"address","name":"","type":"address"}],"name":"scoreBreakdowns","outputs":[{"internalType":"uint256","name":"marketAccuracy","type":"uint256"},{"internalType":"uint256","name":"dailyAccuracy","type":"uint256"},{"internalType":"uint256","name":"oneToOneAccuracy","type":"uint256"},{"internalType":"uint256","name":"weightedScore","type":"uint256"},{"internalType":"uint256","name":"reputationTier","type":"uint256"}],"stateMutability":"view","type":"function"},{"inputs":[],"name":"scoreUpdateDelay","outputs":[{"internalType":"uint256","name":"","type":"uint256"}],"stateMutability":"view","type":"function"},{"inputs":[{"internalType":"address","name":"_astroTokenLauncher","type":"address"}],"name":"setAstroTokenLauncher","outputs":[],"stateMutability":"nonpayable","type":"function"},{"inputs":[{"internalType":"address","name":"_astrologerManager","type":"address"}],"name":"setAstrologerManager","outputs":[],"stateMutability":"nonpayable","type":"function"},{"inputs":[{"internalType":"address","name":"_buyTokenContract","type":"address"}],"name":"setBuyTokenContract","outputs":[],"stateMutability":"nonpayable","type":"function"},{"inputs":[{"internalType":"uint256","name":"_minPredictions","type":"uint256"}],"name":"setMinPredictionsForScore","outputs":[],"stateMutability":"nonpayable","type":"function"},{"inputs":[{"internalType":"uint256","name":"_decayRate","type":"uint256"}],"name":"setReputationDecayRate","outputs":[],"stateMutability":"nonpayable","type":"function"},{"inputs":[{"internalType":"uint256","name":"_maxMultiplier","type":"uint256"},{"internalType":"uint256","name":"_minMultiplier","type":"uint256"}],"name":"setReputationMultipliers","outputs":[],"stateMutability":"nonpayable","type":"function"},{"inputs":[{"internalType":"uint256","name":"_delay","type":"uint256"}],"name":"setScoreUpdateDelay","outputs":[],"stateMutability":"nonpayable","type":"function"},{"inputs":[{"internalType":"address","name":"_worldPredictionMarket","type":"address"}],"name":"setWorldPredictionMarket","outputs":[],"stateMutability":"nonpayable","type":"function"},{"inputs":[{"internalType":"address","name":"_zodiacDAO","type":"address"}],"name":"setZodiacDAO","outputs":[],"stateMutability":"nonpayable","type":"function"},{"inputs":[{"internalType":"uint256","name":"_moduleId","type":"uint256"}],"name":"togglePredictionModule","outputs":[],"stateMutability":"nonpayable","type":"function"},{"inputs":[],"name":"totalModules","outputs":[{"internalType":"uint256","name":"","type":"uint256"}],"stateMutability":"view","type":"function"},{"inputs":[{"internalType":"address","name":"newOwner","type":"address"}],"name":"transferOwnership","outputs":[],"stateMutability":"nonpayable","type":"function"},{"inputs":[{"internalType":"uint256","name":"_moduleId","type":"uint256"},{"internalType":"uint256","name":"_newWeight","type":"uint256"}],"name":"updateModuleWeight","outputs":[],"stateMutability":"nonpayable","type":"function"},{"inputs":[{"internalType":"address","name":"_astrologer","type":"address"},{"internalType":"bool","name":"_wasCorrect","type":"bool"}],"name":"updateReputationFromWorldPrediction","outputs":[],"stateMutability":"nonpayable","type":"function"},{"inputs":[{"internalType":"address","name":"_astrologer","type":"address"},{"internalType":"uint256","name":"_marketPredictions","type":"uint256"},{"internalType":"uint256","name":"_marketAccurate","type":"uint256"},{"internalType":"uint256","name":"_dailyPredictions","type":"uint256"},{"internalType":"uint256","name":"_dailyAccurate","type":"uint256"},{"internalType":"uint256","name":"_oneToOnePredictions","type":"uint256"},{"internalType":"uint256","name":"_oneToOneAccurate","type":"uint256"}],"name":"updateReputationScore","outputs":[],"stateMutability":"nonpayable","type":"function"},{"inputs":[{"internalType":"address","name":"newImplementation","type":"address"}],"name":"upgradeTo","outputs":[],"stateMutability":"nonpayable","type":"function"},{"inputs":[{"internalType":"address","name":"newImplementation","type":"address"},{"internalType":"bytes","name":"data","type":"bytes"}],"name":"upgradeToAndCall","outputs":[],"stateMutability":"payable","type":"function"},{"inputs":[],"name":"worldPredictionMarket","outputs":[{"internalType":"address","name":"","type":"address"}],"stateMutability":"view","type":"function"},{"inputs":[],"name":"zodiacDAO","outputs":[{"internalType":"address","name":"","type":"address"}],"stateMutability":"view","type":"function"}],"devdoc":{"kind":"dev","methods":{"constructor":{"custom:oz-upgrades-unsafe-allow":"constructor"},"owner()":{"details":"Returns the address of the current owner."},"proxiableUUID()":{"details":"Implementation of the ERC1822 {proxiableUUID} function. This returns the storage slot used by the implementation. It is used to validate the implementation's compatibility when performing an upgrade. IMPORTANT: A proxy pointing at a proxiable contract should not be considered proxiable itself, because this risks bricking a proxy that upgrades to it, by delegating to itself until out of gas. Thus it is critical that this function revert if invoked through a proxy. This is guaranteed by the `notDelegated` modifier."},"renounceOwnership()":{"details":"Leaves the contract without owner. It will not be possible to call `onlyOwner` functions. Can only be called by the current owner. NOTE: Renouncing ownership will leave the contract without an owner, thereby disabling any functionality that is only available to the owner."},"transferOwnership(address)":{"details":"Transfers ownership of the contract to a new account (`newOwner`). Can only be called by the current owner."},"upgradeTo(address)":{"custom:oz-upgrades-unsafe-allow-reachable":"delegatecall","details":"Upgrade the implementation of the proxy to `newImplementation`. Calls {_authorizeUpgrade}. Emits an {Upgraded} event."},"upgradeToAndCall(address,bytes)":{"custom:oz-upgrades-unsafe-allow-reachable":"delegatecall","details":"Upgrade the implementation of the proxy to `newImplementation`, and subsequently execute the function call encoded in `data`. Calls {_authorizeUpgrade}. Emits an {Upgraded} event."}},"version":1},"evm":{"bytecode":{"linkReferences":{},"object":"60a080604052346100dc57306080526000549060ff8260081c1661008a575060ff8082160361004f575b60405161266c90816100e282396080518181816114410152818161177b0152611ae50152f35b60ff90811916176000557f7f26b83ff96e1f2b6a682f133852f6798a09c465da95921460cefb3847402498602060405160ff8152a138610029565b62461bcd60e51b815260206004820152602760248201527f496e697469616c697a61626c653a20636f6e747261637420697320696e697469604482015266616c697a696e6760c81b6064820152608490fd5b600080fdfe608080604052600436101561001357600080fd5b600090813560e01c90816302bc7f4a14611e2457508063106bdcf514611de457806310d4f37414611d8c57806316d54f0914611d635780632c27750a14611cae5780633659cfe614611ac05780633d9617be14611a9b578063430cd57a14611a7d57806344cda48514611a3d578063450f144214611a1f5780634cba103e146119fc5780634f1ef2861461170057806351131876146115825780635245420d146114f257806352d1902d1461142e57806358bd9b931461130d5780635df4d161146112ef57806365af67bd146112af5780636be2cefb146112725780636fd31a4114611249578063715018a6146111ec57806375a67d5c1461107357806378bbd70114611055578063893849de14610fed5780638da5cb5b14610fc4578063960e6f8814610fa65780639754cfd114610f535780639f68871d14610f305780639f7c468814610bf7578063a6b63eb814610a32578063ab3dcd6a14610a09578063ab76c9ed146109e0578063adcbcde51461048c578063b107e88c1461044f578063c3a274c21461040f578063dc0a40bd146103a9578063e2c3538c14610369578063e6f9558314610346578063f2fde38b146102b5578063f92eadf6146102975763fe0438b2146101e457600080fd5b3461029457602036600319011261029457610160906001600160a01b03906040908261020e611e49565b16815260ca6020522080549160018201541690600281015460038201546004830154600584015460068501549160078601549360088701549560ff600a60098a015499015416986040519a8b5260208b015260408a01526060890152608088015260a087015260c086015260e08501526101008401526101208301521515610140820152f35b80fd5b5034610294578060031936011261029457602060d454604051908152f35b5034610294576020366003190112610294576102cf611e49565b6102d7611f32565b6001600160a01b038116156102f2576102ef90611f8a565b80f35b60405162461bcd60e51b815260206004820152602660248201527f4f776e61626c653a206e6577206f776e657220697320746865207a65726f206160448201526564647265737360d01b6064820152608490fd5b503461029457602036600319011261029457610360611f32565b60043560d45580f35b503461029457602036600319011261029457610383611e49565b61038b611f32565b60018060a01b03166001600160601b0360a01b60d054161760d05580f35b50346102945760203660031901126102945760a0906040906001600160a01b036103d1611e49565b16815260cb60205220805490600181015490600281015460046003830154920154926040519485526020850152604084015260608301526080820152f35b503461029457602036600319011261029457610429611e49565b610431611f32565b60018060a01b03166001600160601b0360a01b60ce54161760ce5580f35b5034610294576020366003190112610294576020906005906040906001600160a01b0361047a611e49565b16815260ca8452200154604051908152f35b50346102945760e0366003190112610294576104a6611e49565b602435604435916084359260018060a01b0360335416331480156109cc575b6104ce906122cc565b6104e26001600160a01b0383161515612307565b60018060a01b038216855260ca602052604085209260cb60205260408620948160068601556064359283600787015560a435600887015561052e60a43561052986866124b2565b6124b2565b600287015582156109c457606481029080820460641490151715610938578261055691612353565b905b81875583156109bd57606481029080820460641490151715610938578361057e91612353565b6001870181905560a435156109b65760c4358060648102046064148115171561097f576105b190606460a4359102612353565b905b600288019482865589938a95610993575b5061094c575b5060a4356108f3575b5080156108eb576105e391612353565b6003850190808255600a6105fd60048701928084556124bf565b956005810196875561060f8454612505565b600489015542600982015501805460ff1916600117905560cd5487906001600160a01b031680610815575b5060ce546001600160a01b031680151580610801575b6106f3575b50505493546040805186815260208101969096528501527fad4434fdebadb9d3b07e14eaea89a4f564780aca2d11dbf1d7fcd70d921a5d64936080939291906001600160a01b038416907f518d384ec8d284e293cfe22999e2961fcb70fae686352f14179033225f2ac24490606090a260018654960154915490549160405196875260208701526040860152606085015260018060a01b031692a280f35b60d05460405163248bb6cd60e21b81526001600160a01b0388811660048301529091849183916024918391165afa8391816107dd575b50610735575b50610655565b60408101516001600160a01b03169081151590816107ce575b501561072f578754823b156107ca5760405163f6322a5f60e01b81526001600160a01b0392909216600483015260248201529082908290604490829084905af180156107bf5761079f575b8061072f565b6107ad909594939295611eae565b6107bb579091928638610799565b8680fd5b6040513d84823e3d90fd5b8380fd5b6101009150015115153861074e565b6107fa9192503d8086833e6107f28183611ede565b8101906123cc565b9038610729565b5060d0546001600160a01b03161515610650565b60405163656d0c3960e01b81526001600160a01b0387166004820152602081602481855afa9081156108e05783916108a6575b5080610855575b5061063a565b8754823b156107ca5760448492836040519586948593630675f76360e01b8552600485015260248401525af180156107bf57610892575b8061084f565b61089b90611eae565b6107bb57863861088c565b9250506020823d6020116108d8575b816108c260209383611ede565b810103126108d35788915138610848565b600080fd5b3d91506108b5565b6040513d85823e3d90fd5b5050846105e3565b90918160021b91808304600414901517156109385790610912916124b2565b906004810180911161092457386105d3565b634e487b7160e01b87526011600452602487fd5b634e487b7160e01b88526011600452602488fd5b9091928160011b918083046002149015171561097f579061096c916124b2565b91600281018091116109385790386105ca565b634e487b7160e01b89526011600452602489fd5b80929550600391945002908082046003149015171561097f5792600392386105c4565b87906105b3565b508661057e565b508690610558565b506104ce6109d93361256b565b90506104c5565b503461029457806003193601126102945760cf546040516001600160a01b039091168152602090f35b503461029457806003193601126102945760d0546040516001600160a01b039091168152602090f35b50346102945760a036600319011261029457610a4c611e49565b6001600160a01b039060243582811691908290036108d3576044358381168091036108d35784549260ff8460081c161593848095610bea575b8015610bd3575b15610b775760ff198116600117875584610b66575b50610abb60ff875460081c16610ab6816121fb565b6121fb565b610ac433611f8a565b855494610ad660ff8760081c166121fb565b6001600160601b0360a01b93168360cd54161760cd558260ce54161760ce558160cf54161760cf558060d0541660d05560d1541660d15560643560d35560843560d455600560d55561138860d65560c860d755610b31575080f35b61ff00191681557f7f26b83ff96e1f2b6a682f133852f6798a09c465da95921460cefb3847402498602060405160018152a180f35b61ffff191661010117865538610aa1565b60405162461bcd60e51b815260206004820152602e60248201527f496e697469616c697a61626c653a20636f6e747261637420697320616c72656160448201526d191e481a5b9a5d1a585b1a5e995960921b6064820152608490fd5b50303b158015610a8c5750600160ff821614610a8c565b50600160ff821610610a85565b503461029457604036600319011261029457610c11611e49565b602435908115158203610eb65760d1546001600160a01b03918291821633148015610f23575b610c40906122cc565b1691610c4d831515612307565b82845260ca602052604084209060068201610c6881546122a7565b90556002820190610c7982546122a7565b809255610f0e575b6003820154606481029080820460641490151715610efa578591610ca491612353565b92610cb560048401948086556124bf565b600a600585019482865542600982015501600160ff198254161790558160cd54169081610e1f575b50508060ce54169081151580610e12575b610d35575b5050915490546040805183815260208101939093528201527f518d384ec8d284e293cfe22999e2961fcb70fae686352f14179033225f2ac2449150606090a280f35b808360249260d054166040519384809263248bb6cd60e21b82528b60048301525afa849281610df6575b50610d6b575b50610cf3565b604082015116908115159081610de7575b50610d88575b80610d65565b8354823b156107ca5760405163f6322a5f60e01b81526001600160a01b0392909216600483015260248201529082908290604490829084905af180156107bf57610dd3575b80610d82565b610ddc90611eae565b6107ca578338610dcd565b61010091500151151538610d7c565b610e0b9193503d8087833e6107f28183611ede565b9138610d5f565b508060d054161515610cee565b60405163656d0c3960e01b815260048101889052602081602481865afa908115610eef578591610eba575b5080610e57575b50610cdd565b829394923b15610eb657604490836040519586948593630675f76360e01b8552600485015260248401525af18015610eab57610e98575b9081808793610e51565b610ea490959195611eae565b9338610e8e565b6040513d88823e3d90fd5b8280fd5b90506020813d8211610ee7575b81610ed460209383611ede565b81010312610ee3575138610e4a565b8480fd5b3d9150610ec7565b6040513d87823e3d90fd5b634e487b7160e01b86526011600452602486fd5b60038201610f1c81546122a7565b9055610c81565b5060335482163314610c37565b503461029457602036600319011261029457610f4a611f32565b60043560d35580f35b503461029457610f6236611f1c565b90610f6b611f32565b80151580610f9a575b610f7d906125d6565b610f8882151561225b565b825260cc602052600160408320015580f35b5060d254811115610f74565b5034610294578060031936011261029457602060d554604051908152f35b50346102945780600319360112610294576033546040516001600160a01b039091168152602090f35b50346102945760203660031901126102945760043561100a611f32565b80151580611049575b61101c906125d6565b815260cc60205260408120805460ff60a01b19811660a091821c60ff161590911b60ff60a01b1617905580f35b5060d254811115611013565b5034610294578060031936011261029457602060d254604051908152f35b503461029457602036600319011261029457604061016091611093611e49565b8161014084516110a281611e91565b82815282602082015282868201528260608201528260808201528260a08201528260c08201528260e08201528261010082015282610120820152015260018060a01b0316815260ca602052206101406040516110fd81611e91565b60ff600a84549485845260018060a01b036001820154166020850152600281015460408501526003810154606085015260048101546080850152600581015460a0850152600681015460c0850152600781015460e08501526008810154610100850152600981015461012085015201541615158282015260405192835260018060a01b03602082015116602084015260408101516040840152606081015160608401526080810151608084015260a081015160a084015260c081015160c084015260e081015160e084015261010081015161010084015261012081015161012084015201511515610140820152f35b5034610294578060031936011261029457611205611f32565b603380546001600160a01b0319811690915581906001600160a01b03167f8be0079c531659141344cd1fd0a4f28419497f9722a3daafe3b4186f6b6457e08280a380f35b503461029457806003193601126102945760cd546040516001600160a01b039091168152602090f35b5034610294576020366003190112610294576020906004906040906001600160a01b0361129d611e49565b16815260cb8452200154604051908152f35b5034610294576020366003190112610294576112c9611e49565b6112d1611f32565b60018060a01b03166001600160601b0360a01b60cf54161760cf5580f35b5034610294578060031936011261029457602060d754604051908152f35b50346102945761131c36611f1c565b90611325611f32565b818111156113e957606482106113985761271081116113475760d65560d75580f35b60405162461bcd60e51b8152602060048201526024808201527f4d6178206d756c7469706c696572206d757374206265206174206d6f737420316044820152630605c60f60e31b6064820152608490fd5b60405162461bcd60e51b8152602060048201526024808201527f4d696e206d756c7469706c696572206d757374206265206174206c65617374206044820152630605c62f60e31b6064820152608490fd5b60405162461bcd60e51b815260206004820152601c60248201527f4d6178206d7573742062652067726561746572207468616e206d696e000000006044820152606490fd5b50346102945780600319360112610294577f00000000000000000000000000000000000000000000000000000000000000006001600160a01b031630036114875760206040516000805160206126178339815191528152f35b60405162461bcd60e51b815260206004820152603860248201527f555550535570677261646561626c653a206d757374206e6f742062652063616c60448201527f6c6564207468726f7567682064656c656761746563616c6c00000000000000006064820152608490fd5b50346102945760208060031936011261157e576004359161152b61151584612553565b936115236040519586611ede565b808552612553565b8383019190601f190136833760405193838594850191818652518092526040850193925b82811061155e57505050500390f35b83516001600160a01b03168552869550938101939281019260010161154f565b5080fd5b50346102945760403660031901126102945761159c611e49565b6024356115a7611f32565b6001600160a01b039180831680156116bb576115c483151561225b565b6115cf60d2546122a7565b938460d255604051916080830183811067ffffffffffffffff8211176116a7576020977faf31016049a06640f36fa55e20d2a8c9809bbdadf9fd3327a7763e5aa652346e959388979593600293604052845261167a8a8501600181526040860192888452604060608801954287528c815260cc8f52209651166001600160601b0360a01b875416178655511515859081549060ff60a01b90151560a01b169060ff60a01b1916179055565b51600184015551910155604080516001600160a01b039290921682526020820192909252a2604051908152f35b634e487b7160e01b88526041600452602488fd5b60405162461bcd60e51b815260206004820152601860248201527f496e76616c696420636f6e7472616374206164647265737300000000000000006044820152606490fd5b50604036600319011261029457611715611e49565b6024359067ffffffffffffffff8211610eb65736602383011215610eb657816004013561174181611f00565b61174e6040519182611ede565b81815284602094858301933660248284010111610eb6578060248893018637830101526001600160a01b037f00000000000000000000000000000000000000000000000000000000000000008116906117a930831415611fd3565b6117c6600080516020612617833981519152928284541614612034565b6117ce611f32565b7f4910fdfa16fed3260ed0e7147f7cc6da11a60208b5b9406d12a635614ffd91435460ff161561180657505050506102ef9150612095565b8492939416906040516352d1902d60e01b81528681600481865afa8891816119c9575b5061188a5760405162461bcd60e51b815260048101889052602e60248201527f45524331393637557067726164653a206e657720696d706c656d656e7461746960448201526d6f6e206973206e6f74205555505360901b6064820152608490fd5b95939495036119725761189c82612095565b7fbc7cd75a20ee27fd9adebab32041f755214dbc6bffa90cc0225b39da2e5c2d3b8680a28483511580159061196a575b6118d9575b505050505080f35b8061195695604051956118eb87611ec2565b602787527f416464726573733a206c6f772d6c6576656c2064656c65676174652063616c6c86880152660819985a5b195960ca1b60408801525190845af4903d15611961573d61193a81611f00565b906119486040519283611ede565b81528681943d92013e612125565b5038808080846118d1565b60609250612125565b5060016118cc565b60405162461bcd60e51b815260048101849052602960248201527f45524331393637557067726164653a20756e737570706f727465642070726f786044820152681a58589b195555525160ba1b6064820152608490fd5b9091508781813d83116119f5575b6119e18183611ede565b810103126119f157519038611829565b8880fd5b503d6119d7565b503461029457602036600319011261029457611a16611f32565b60043560d55580f35b5034610294578060031936011261029457602060d354604051908152f35b503461029457602036600319011261029457611a57611e49565b611a5f611f32565b60018060a01b03166001600160601b0360a01b60cd54161760cd5580f35b5034610294578060031936011261029457602060d654604051908152f35b5034610294578060031936011261029457604060d65460d75482519182526020820152f35b50346102945760208060031936011261157e57611adb611e49565b6001600160a01b037f00000000000000000000000000000000000000000000000000000000000000008116611b1230821415611fd3565b611b2f600080516020612617833981519152918383541614612034565b611b37611f32565b604051908482019282841067ffffffffffffffff851117611c9a578360405286835260ff7f4910fdfa16fed3260ed0e7147f7cc6da11a60208b5b9406d12a635614ffd91435416600014611b9357505050506102ef9150612095565b8492939416906040516352d1902d60e01b81528681600481865afa889181611c6b575b50611c175760405162461bcd60e51b815260048101889052602e60248201527f45524331393637557067726164653a206e657720696d706c656d656e7461746960448201526d6f6e206973206e6f74205555505360901b6064820152608490fd5b959394950361197257611c2982612095565b7fbc7cd75a20ee27fd9adebab32041f755214dbc6bffa90cc0225b39da2e5c2d3b8680a284835115801590611c64576118d957505050505080f35b50806118cc565b9091508781813d8311611c93575b611c838183611ede565b810103126119f157519038611bb6565b503d611c79565b634e487b7160e01b87526041600452602487fd5b503461029457602036600319011261029457604060a091611ccd611e49565b8160808451611cdb81611e5f565b82815282602082015282868201528260608201520152600180851b0316815260cb60205220604051611d0c81611e5f565b81549182825260018101546020830190815260028201549060408401918252608060046003850154946060870195865201549401938452604051948552516020850152516040840152516060830152516080820152f35b503461029457806003193601126102945760ce546040516001600160a01b039091168152602090f35b5034610294576020366003190112610294576040608091600435815260cc60205220805490600260018201549101549060ff6040519360018060a01b038116855260a01c161515602084015260408301526060820152f35b503461029457602036600319011261029457611dfe611e49565b611e06611f32565b60018060a01b03166001600160601b0360a01b60d154161760d15580f35b90503461157e578160031936011261157e5760d1546001600160a01b03168152602090f35b600435906001600160a01b03821682036108d357565b60a0810190811067ffffffffffffffff821117611e7b57604052565b634e487b7160e01b600052604160045260246000fd5b610160810190811067ffffffffffffffff821117611e7b57604052565b67ffffffffffffffff8111611e7b57604052565b6060810190811067ffffffffffffffff821117611e7b57604052565b90601f8019910116810190811067ffffffffffffffff821117611e7b57604052565b67ffffffffffffffff8111611e7b57601f01601f191660200190565b60409060031901126108d3576004359060243590565b6033546001600160a01b03163303611f4657565b606460405162461bcd60e51b815260206004820152602060248201527f4f776e61626c653a2063616c6c6572206973206e6f7420746865206f776e65726044820152fd5b603380546001600160a01b039283166001600160a01b0319821681179092559091167f8be0079c531659141344cd1fd0a4f28419497f9722a3daafe3b4186f6b6457e0600080a3565b15611fda57565b60405162461bcd60e51b815260206004820152602c60248201527f46756e6374696f6e206d7573742062652063616c6c6564207468726f7567682060448201526b19195b1959d85d1958d85b1b60a21b6064820152608490fd5b1561203b57565b60405162461bcd60e51b815260206004820152602c60248201527f46756e6374696f6e206d7573742062652063616c6c6564207468726f7567682060448201526b6163746976652070726f787960a01b6064820152608490fd5b803b156120ca5760008051602061261783398151915280546001600160a01b0319166001600160a01b03909216919091179055565b60405162461bcd60e51b815260206004820152602d60248201527f455243313936373a206e657720696d706c656d656e746174696f6e206973206e60448201526c1bdd08184818dbdb9d1c9858dd609a1b6064820152608490fd5b919290156121875750815115612139575090565b3b156121425790565b60405162461bcd60e51b815260206004820152601d60248201527f416464726573733a2063616c6c20746f206e6f6e2d636f6e74726163740000006044820152606490fd5b82519091501561219a5750805190602001fd5b6044604051809262461bcd60e51b8252602060048301526121ca81518092816024860152602086860191016121d8565b601f01601f19168101030190fd5b60005b8381106121eb5750506000910152565b81810151838201526020016121db565b1561220257565b60405162461bcd60e51b815260206004820152602b60248201527f496e697469616c697a61626c653a20636f6e7472616374206973206e6f74206960448201526a6e697469616c697a696e6760a81b6064820152608490fd5b1561226257565b60405162461bcd60e51b815260206004820152601d60248201527f576569676874206d7573742062652067726561746572207468616e20300000006044820152606490fd5b60001981146122b65760010190565b634e487b7160e01b600052601160045260246000fd5b156122d357565b60405162461bcd60e51b815260206004820152600c60248201526b155b985d5d1a1bdc9a5e995960a21b6044820152606490fd5b1561230e57565b60405162461bcd60e51b815260206004820152601a60248201527f496e76616c696420617374726f6c6f67657220616464726573730000000000006044820152606490fd5b811561235d570490565b634e487b7160e01b600052601260045260246000fd5b51906001600160a01b03821682036108d357565b81601f820112156108d357805161239d81611f00565b926123ab6040519485611ede565b818452602082840101116108d3576123c991602080850191016121d8565b90565b6020818303126108d357805167ffffffffffffffff918282116108d35701906101409283838203126108d35760405193840184811083821117611e7b576040528251845261241c60208401612373565b602085015261242d60408401612373565b604085015261243e60608401612373565b606085015260808301518281116108d3578161245b918501612387565b608085015260a08301519182116108d357612477918301612387565b60a083015260c081015160c083015260e081015160e0830152610100808201519081151582036108d357830152610120809101519082015290565b919082018092116122b657565b60648110156124fe5780156124f75760d65460d754908181039081116122b657808302928304036122b65760646123c99204906124b2565b5060d75490565b5060d65490565b605f81101561254d57605a81101561254757605581101561254157605081101561253b57604b111561253657600090565b600190565b50600290565b50600390565b50600490565b50600590565b67ffffffffffffffff8111611e7b5760051b60200190565b6001809160d254925b838111156125855750505050600090565b600081815260cc6020526040808220546001600160a01b0385811691161491826125c5575b50506125be576125b9906122a7565b612574565b5050905090565b60ff9250205460a01c1638806125aa565b156125dd57565b60405162461bcd60e51b8152602060048201526011602482015270125b9d985b1a59081b5bd91d5b19481251607a1b6044820152606490fdfe360894a13ba1a3210667c828492db98dca3e2076cc3735a920a3ca505d382bbca2646970667358221220ad1ecb0a5dda295c60e9b997c439f5836863b2eeb6d4a970f6d176c57f8f4cbe64736f6c63430008110033","opcodes":"PUSH1 0xA0 DUP1 PUSH1 0x40 MSTORE CALLVALUE PUSH2 0xDC JUMPI ADDRESS PUSH1 0x80 MSTORE PUSH1 0x0 SLOAD SWAP1 PUSH1 0xFF DUP3 PUSH1 0x8 SHR AND PUSH2 0x8A JUMPI POP PUSH1 0xFF DUP1 DUP3 AND SUB PUSH2 0x4F JUMPI JUMPDEST PUSH1 0x40 MLOAD PUSH2 0x266C SWAP1 DUP2 PUSH2 0xE2 DUP3 CODECOPY PUSH1 0x80 MLOAD DUP2 DUP2 DUP2 PUSH2 0x1441 ADD MSTORE DUP2 DUP2 PUSH2 0x177B ADD MSTORE PUSH2 0x1AE5 ADD MSTORE RETURN JUMPDEST PUSH1 0xFF SWAP1 DUP2 NOT AND OR PUSH1 0x0 SSTORE PUSH32 0x7F26B83FF96E1F2B6A682F133852F6798A09C465DA95921460CEFB3847402498 PUSH1 0x20 PUSH1 0x40 MLOAD PUSH1 0xFF DUP2 MSTORE LOG1 CODESIZE PUSH2 0x29 JUMP JUMPDEST PUSH3 0x461BCD PUSH1 0xE5 SHL DUP2 MSTORE PUSH1 0x20 PUSH1 0x4 DUP3 ADD MSTORE PUSH1 0x27 PUSH1 0x24 DUP3 ADD MSTORE PUSH32 0x496E697469616C697A61626C653A20636F6E747261637420697320696E697469 PUSH1 0x44 DUP3 ADD MSTORE PUSH7 0x616C697A696E67 PUSH1 0xC8 SHL PUSH1 0x64 DUP3 ADD MSTORE PUSH1 0x84 SWAP1 REVERT JUMPDEST PUSH1 0x0 DUP1 REVERT INVALID PUSH1 0x80 DUP1 PUSH1 0x40 MSTORE PUSH1 0x4 CALLDATASIZE LT ISZERO PUSH2 0x13 JUMPI PUSH1 0x0 DUP1 REVERT JUMPDEST PUSH1 0x0 SWAP1 DUP2 CALLDATALOAD PUSH1 0xE0 SHR SWAP1 DUP2 PUSH4 0x2BC7F4A EQ PUSH2 0x1E24 JUMPI POP DUP1 PUSH4 0x106BDCF5 EQ PUSH2 0x1DE4 JUMPI DUP1 PUSH4 0x10D4F374 EQ PUSH2 0x1D8C JUMPI DUP1 PUSH4 0x16D54F09 EQ PUSH2 0x1D63 JUMPI DUP1 PUSH4 0x2C27750A EQ PUSH2 0x1CAE JUMPI DUP1 PUSH4 0x3659CFE6 EQ PUSH2 0x1AC0 JUMPI DUP1 PUSH4 0x3D9617BE EQ PUSH2 0x1A9B JUMPI DUP1 PUSH4 0x430CD57A EQ PUSH2 0x1A7D JUMPI DUP1 PUSH4 0x44CDA485 EQ PUSH2 0x1A3D JUMPI DUP1 PUSH4 0x450F1442 EQ PUSH2 0x1A1F JUMPI DUP1 PUSH4 0x4CBA103E EQ PUSH2 0x19FC JUMPI DUP1 PUSH4 0x4F1EF286 EQ PUSH2 0x1700 JUMPI DUP1 PUSH4 0x51131876 EQ PUSH2 0x1582 JUMPI DUP1 PUSH4 0x5245420D EQ PUSH2 0x14F2 JUMPI DUP1 PUSH4 0x52D1902D EQ PUSH2 0x142E JUMPI DUP1 PUSH4 0x58BD9B93 EQ PUSH2 0x130D JUMPI DUP1 PUSH4 0x5DF4D161 EQ PUSH2 0x12EF JUMPI DUP1 PUSH4 0x65AF67BD EQ PUSH2 0x12AF JUMPI DUP1 PUSH4 0x6BE2CEFB EQ PUSH2 0x1272 JUMPI DUP1 PUSH4 0x6FD31A41 EQ PUSH2 0x1249 JUMPI DUP1 PUSH4 0x715018A6 EQ PUSH2 0x11EC JUMPI DUP1 PUSH4 0x75A67D5C EQ PUSH2 0x1073 JUMPI DUP1 PUSH4 0x78BBD701 EQ PUSH2 0x1055 JUMPI DUP1 PUSH4 0x893849DE EQ PUSH2 0xFED JUMPI DUP1 PUSH4 0x8DA5CB5B EQ PUSH2 0xFC4 JUMPI DUP1 PUSH4 0x960E6F88 EQ PUSH2 0xFA6 JUMPI DUP1 PUSH4 0x9754CFD1 EQ PUSH2 0xF53 JUMPI DUP1 PUSH4 0x9F68871D EQ PUSH2 0xF30 JUMPI DUP1 PUSH4 0x9F7C4688 EQ PUSH2 0xBF7 JUMPI DUP1 PUSH4 0xA6B63EB8 EQ PUSH2 0xA32 JUMPI DUP1 PUSH4 0xAB3DCD6A EQ PUSH2 0xA09 JUMPI DUP1 PUSH4 0xAB76C9ED EQ PUSH2 0x9E0 JUMPI DUP1 PUSH4 0xADCBCDE5 EQ PUSH2 0x48C JUMPI DUP1 PUSH4 0xB107E88C EQ PUSH2 0x44F JUMPI DUP1 PUSH4 0xC3A274C2 EQ PUSH2 0x40F JUMPI DUP1 PUSH4 0xDC0A40BD EQ PUSH2 0x3A9 JUMPI DUP1 PUSH4 0xE2C3538C EQ PUSH2 0x369 JUMPI DUP1 PUSH4 0xE6F95583 EQ PUSH2 0x346 JUMPI DUP1 PUSH4 0xF2FDE38B EQ PUSH2 0x2B5 JUMPI DUP1 PUSH4 0xF92EADF6 EQ PUSH2 0x297 JUMPI PUSH4 0xFE0438B2 EQ PUSH2 0x1E4 JUMPI PUSH1 0x0 DUP1 REVERT JUMPDEST CALLVALUE PUSH2 0x294 JUMPI PUSH1 0x20 CALLDATASIZE PUSH1 0x3 NOT ADD SLT PUSH2 0x294 JUMPI PUSH2 0x160 SWAP1 PUSH1 0x1 PUSH1 0x1 PUSH1 0xA0 SHL SUB SWAP1 PUSH1 0x40 SWAP1 DUP3 PUSH2 0x20E PUSH2 0x1E49 JUMP JUMPDEST AND DUP2 MSTORE PUSH1 0xCA PUSH1 0x20 MSTORE KECCAK256 DUP1 SLOAD SWAP2 PUSH1 0x1 DUP3 ADD SLOAD AND SWAP1 PUSH1 0x2 DUP2 ADD SLOAD PUSH1 0x3 DUP3 ADD SLOAD PUSH1 0x4 DUP4 ADD SLOAD PUSH1 0x5 DUP5 ADD SLOAD PUSH1 0x6 DUP6 ADD SLOAD SWAP2 PUSH1 0x7 DUP7 ADD SLOAD SWAP4 PUSH1 0x8 DUP8 ADD SLOAD SWAP6 PUSH1 0xFF PUSH1 0xA PUSH1 0x9 DUP11 ADD SLOAD SWAP10 ADD SLOAD AND SWAP9 PUSH1 0x40 MLOAD SWAP11 DUP12 MSTORE PUSH1 0x20 DUP12 ADD MSTORE PUSH1 0x40 DUP11 ADD MSTORE PUSH1 0x60 DUP10 ADD MSTORE PUSH1 0x80 DUP9 ADD MSTORE PUSH1 0xA0 DUP8 ADD MSTORE PUSH1 0xC0 DUP7 ADD MSTORE PUSH1 0xE0 DUP6 ADD MSTORE PUSH2 0x100 DUP5 ADD MSTORE PUSH2 0x120 DUP4 ADD MSTORE ISZERO ISZERO PUSH2 0x140 DUP3 ADD MSTORE RETURN JUMPDEST DUP1 REVERT JUMPDEST POP CALLVALUE PUSH2 0x294 JUMPI DUP1 PUSH1 0x3 NOT CALLDATASIZE ADD SLT PUSH2 0x294 JUMPI PUSH1 0x20 PUSH1 0xD4 SLOAD PUSH1 0x40 MLOAD SWAP1 DUP2 MSTORE RETURN JUMPDEST POP CALLVALUE PUSH2 0x294 JUMPI PUSH1 0x20 CALLDATASIZE PUSH1 0x3 NOT ADD SLT PUSH2 0x294 JUMPI PUSH2 0x2CF PUSH2 0x1E49 JUMP JUMPDEST PUSH2 0x2D7 PUSH2 0x1F32 JUMP JUMPDEST PUSH1 0x1 PUSH1 0x1 PUSH1 0xA0 SHL SUB DUP2 AND ISZERO PUSH2 0x2F2 JUMPI PUSH2 0x2EF SWAP1 PUSH2 0x1F8A JUMP JUMPDEST DUP1 RETURN JUMPDEST PUSH1 0x40 MLOAD PUSH3 0x461BCD PUSH1 0xE5 SHL DUP2 MSTORE PUSH1 0x20 PUSH1 0x4 DUP3 ADD MSTORE PUSH1 0x26 PUSH1 0x24 DUP3 ADD MSTORE PUSH32 0x4F776E61626C653A206E6577206F776E657220697320746865207A65726F2061 PUSH1 0x44 DUP3 ADD MSTORE PUSH6 0x646472657373 PUSH1 0xD0 SHL PUSH1 0x64 DUP3 ADD MSTORE PUSH1 0x84 SWAP1 REVERT JUMPDEST POP CALLVALUE PUSH2 0x294 JUMPI PUSH1 0x20 CALLDATASIZE PUSH1 0x3 NOT ADD SLT PUSH2 0x294 JUMPI PUSH2 0x360 PUSH2 0x1F32 JUMP JUMPDEST PUSH1 0x4 CALLDATALOAD PUSH1 0xD4 SSTORE DUP1 RETURN JUMPDEST POP CALLVALUE PUSH2 0x294 JUMPI PUSH1 0x20 CALLDATASIZE PUSH1 0x3 NOT ADD SLT PUSH2 0x294 JUMPI PUSH2 0x383 PUSH2 0x1E49 JUMP JUMPDEST PUSH2 0x38B PUSH2 0x1F32 JUMP JUMPDEST PUSH1 0x1 DUP1 PUSH1 0xA0 SHL SUB AND PUSH1 0x1 PUSH1 0x1 PUSH1 0x60 SHL SUB PUSH1 0xA0 SHL PUSH1 0xD0 SLOAD AND OR PUSH1 0xD0 SSTORE DUP1 RETURN JUMPDEST POP CALLVALUE PUSH2 0x294 JUMPI PUSH1 0x20 CALLDATASIZE PUSH1 0x3 NOT ADD SLT PUSH2 0x294 JUMPI PUSH1 0xA0 SWAP1 PUSH1 0x40 SWAP1 PUSH1 0x1 PUSH1 0x1 PUSH1 0xA0 SHL SUB PUSH2 0x3D1 PUSH2 0x1E49 JUMP JUMPDEST AND DUP2 MSTORE PUSH1 0xCB PUSH1 0x20 MSTORE KECCAK256 DUP1 SLOAD SWAP1 PUSH1 0x1 DUP2 ADD SLOAD SWAP1 PUSH1 0x2 DUP2 ADD SLOAD PUSH1 0x4 PUSH1 0x3 DUP4 ADD SLOAD SWAP3 ADD SLOAD SWAP3 PUSH1 0x40 MLOAD SWAP5 DUP6 MSTORE PUSH1 0x20 DUP6 ADD MSTORE PUSH1 0x40 DUP5 ADD MSTORE PUSH1 0x60 DUP4 ADD MSTORE PUSH1 0x80 DUP3 ADD MSTORE RETURN JUMPDEST POP CALLVALUE PUSH2 0x294 JUMPI PUSH1 0x20 CALLDATASIZE PUSH1 0x3 NOT ADD SLT PUSH2 0x294 JUMPI PUSH2 0x429 PUSH2 0x1E49 JUMP JUMPDEST PUSH2 0x431 PUSH2 0x1F32 JUMP JUMPDEST PUSH1 0x1 DUP1 PUSH1 0xA0 SHL SUB AND PUSH1 0x1 PUSH1 0x1 PUSH1 0x60 SHL SUB PUSH1 0xA0 SHL PUSH1 0xCE SLOAD AND OR PUSH1 0xCE SSTORE DUP1 RETURN JUMPDEST POP CALLVALUE PUSH2 0x294 JUMPI PUSH1 0x20 CALLDATASIZE PUSH1 0x3 NOT ADD SLT PUSH2 0x294 JUMPI PUSH1 0x20 SWAP1 PUSH1 0x5 SWAP1 PUSH1 0x40 SWAP1 PUSH1 0x1 PUSH1 0x1 PUSH1 0xA0 SHL SUB PUSH2 0x47A PUSH2 0x1E49 JUMP JUMPDEST AND DUP2 MSTORE PUSH1 0xCA DUP5 MSTORE KECCAK256 ADD SLOAD PUSH1 0x40 MLOAD SWAP1 DUP2 MSTORE RETURN JUMPDEST POP CALLVALUE PUSH2 0x294 JUMPI PUSH1 0xE0 CALLDATASIZE PUSH1 0x3 NOT ADD SLT PUSH2 0x294 JUMPI PUSH2 0x4A6 PUSH2 0x1E49 JUMP JUMPDEST PUSH1 0x24 CALLDATALOAD PUSH1 0x44 CALLDATALOAD SWAP2 PUSH1 0x84 CALLDATALOAD SWAP3 PUSH1 0x1 DUP1 PUSH1 0xA0 SHL SUB PUSH1 0x33 SLOAD AND CALLER EQ DUP1 ISZERO PUSH2 0x9CC JUMPI JUMPDEST PUSH2 0x4CE SWAP1 PUSH2 0x22CC JUMP JUMPDEST PUSH2 0x4E2 PUSH1 0x1 PUSH1 0x1 PUSH1 0xA0 SHL SUB DUP4 AND ISZERO ISZERO PUSH2 0x2307 JUMP JUMPDEST PUSH1 0x1 DUP1 PUSH1 0xA0 SHL SUB DUP3 AND DUP6 MSTORE PUSH1 0xCA PUSH1 0x20 MSTORE PUSH1 0x40 DUP6 KECCAK256 SWAP3 PUSH1 0xCB PUSH1 0x20 MSTORE PUSH1 0x40 DUP7 KECCAK256 SWAP5 DUP2 PUSH1 0x6 DUP7 ADD SSTORE PUSH1 0x64 CALLDATALOAD SWAP3 DUP4 PUSH1 0x7 DUP8 ADD SSTORE PUSH1 0xA4 CALLDATALOAD PUSH1 0x8 DUP8 ADD SSTORE PUSH2 0x52E PUSH1 0xA4 CALLDATALOAD PUSH2 0x529 DUP7 DUP7 PUSH2 0x24B2 JUMP JUMPDEST PUSH2 0x24B2 JUMP JUMPDEST PUSH1 0x2 DUP8 ADD SSTORE DUP3 ISZERO PUSH2 0x9C4 JUMPI PUSH1 0x64 DUP2 MUL SWAP1 DUP1 DUP3 DIV PUSH1 0x64 EQ SWAP1 ISZERO OR ISZERO PUSH2 0x938 JUMPI DUP3 PUSH2 0x556 SWAP2 PUSH2 0x2353 JUMP JUMPDEST SWAP1 JUMPDEST DUP2 DUP8 SSTORE DUP4 ISZERO PUSH2 0x9BD JUMPI PUSH1 0x64 DUP2 MUL SWAP1 DUP1 DUP3 DIV PUSH1 0x64 EQ SWAP1 ISZERO OR ISZERO PUSH2 0x938 JUMPI DUP4 PUSH2 0x57E SWAP2 PUSH2 0x2353 JUMP JUMPDEST PUSH1 0x1 DUP8 ADD DUP2 SWAP1 SSTORE PUSH1 0xA4 CALLDATALOAD ISZERO PUSH2 0x9B6 JUMPI PUSH1 0xC4 CALLDATALOAD DUP1 PUSH1 0x64 DUP2 MUL DIV PUSH1 0x64 EQ DUP2 ISZERO OR ISZERO PUSH2 0x97F JUMPI PUSH2 0x5B1 SWAP1 PUSH1 0x64 PUSH1 0xA4 CALLDATALOAD SWAP2 MUL PUSH2 0x2353 JUMP JUMPDEST SWAP1 JUMPDEST PUSH1 0x2 DUP9 ADD SWAP5 DUP3 DUP7 SSTORE DUP10 SWAP4 DUP11 SWAP6 PUSH2 0x993 JUMPI JUMPDEST POP PUSH2 0x94C JUMPI JUMPDEST POP PUSH1 0xA4 CALLDATALOAD PUSH2 0x8F3 JUMPI JUMPDEST POP DUP1 ISZERO PUSH2 0x8EB JUMPI PUSH2 0x5E3 SWAP2 PUSH2 0x2353 JUMP JUMPDEST PUSH1 0x3 DUP6 ADD SWAP1 DUP1 DUP3 SSTORE PUSH1 0xA PUSH2 0x5FD PUSH1 0x4 DUP8 ADD SWAP3 DUP1 DUP5 SSTORE PUSH2 0x24BF JUMP JUMPDEST SWAP6 PUSH1 0x5 DUP2 ADD SWAP7 DUP8 SSTORE PUSH2 0x60F DUP5 SLOAD PUSH2 0x2505 JUMP JUMPDEST PUSH1 0x4 DUP10 ADD SSTORE TIMESTAMP PUSH1 0x9 DUP3 ADD SSTORE ADD DUP1 SLOAD PUSH1 0xFF NOT AND PUSH1 0x1 OR SWAP1 SSTORE PUSH1 0xCD SLOAD DUP8 SWAP1 PUSH1 0x1 PUSH1 0x1 PUSH1 0xA0 SHL SUB AND DUP1 PUSH2 0x815 JUMPI JUMPDEST POP PUSH1 0xCE SLOAD PUSH1 0x1 PUSH1 0x1 PUSH1 0xA0 SHL SUB AND DUP1 ISZERO ISZERO DUP1 PUSH2 0x801 JUMPI JUMPDEST PUSH2 0x6F3 JUMPI JUMPDEST POP POP SLOAD SWAP4 SLOAD PUSH1 0x40 DUP1 MLOAD DUP7 DUP2 MSTORE PUSH1 0x20 DUP2 ADD SWAP7 SWAP1 SWAP7 MSTORE DUP6 ADD MSTORE PUSH32 0xAD4434FDEBADB9D3B07E14EAEA89A4F564780ACA2D11DBF1D7FCD70D921A5D64 SWAP4 PUSH1 0x80 SWAP4 SWAP3 SWAP2 SWAP1 PUSH1 0x1 PUSH1 0x1 PUSH1 0xA0 SHL SUB DUP5 AND SWAP1 PUSH32 0x518D384EC8D284E293CFE22999E2961FCB70FAE686352F14179033225F2AC244 SWAP1 PUSH1 0x60 SWAP1 LOG2 PUSH1 0x1 DUP7 SLOAD SWAP7 ADD SLOAD SWAP2 SLOAD SWAP1 SLOAD SWAP2 PUSH1 0x40 MLOAD SWAP7 DUP8 MSTORE PUSH1 0x20 DUP8 ADD MSTORE PUSH1 0x40 DUP7 ADD MSTORE PUSH1 0x60 DUP6 ADD MSTORE PUSH1 0x1 DUP1 PUSH1 0xA0 SHL SUB AND SWAP3 LOG2 DUP1 RETURN JUMPDEST PUSH1 0xD0 SLOAD PUSH1 0x40 MLOAD PUSH4 0x248BB6CD PUSH1 0xE2 SHL DUP2 MSTORE PUSH1 0x1 PUSH1 0x1 PUSH1 0xA0 SHL SUB DUP9 DUP2 AND PUSH1 0x4 DUP4 ADD MSTORE SWAP1 SWAP2 DUP5 SWAP2 DUP4 SWAP2 PUSH1 0x24 SWAP2 DUP4 SWAP2 AND GAS STATICCALL DUP4 SWAP2 DUP2 PUSH2 0x7DD JUMPI JUMPDEST POP PUSH2 0x735 JUMPI JUMPDEST POP PUSH2 0x655 JUMP JUMPDEST PUSH1 0x40 DUP2 ADD MLOAD PUSH1 0x1 PUSH1 0x1 PUSH1 0xA0 SHL SUB AND SWAP1 DUP2 ISZERO ISZERO SWAP1 DUP2 PUSH2 0x7CE JUMPI JUMPDEST POP ISZERO PUSH2 0x72F JUMPI DUP8 SLOAD DUP3 EXTCODESIZE ISZERO PUSH2 0x7CA JUMPI PUSH1 0x40 MLOAD PUSH4 0xF6322A5F PUSH1 0xE0 SHL DUP2 MSTORE PUSH1 0x1 PUSH1 0x1 PUSH1 0xA0 SHL SUB SWAP3 SWAP1 SWAP3 AND PUSH1 0x4 DUP4 ADD MSTORE PUSH1 0x24 DUP3 ADD MSTORE SWAP1 DUP3 SWAP1 DUP3 SWAP1 PUSH1 0x44 SWAP1 DUP3 SWAP1 DUP5 SWAP1 GAS CALL DUP1 ISZERO PUSH2 0x7BF JUMPI PUSH2 0x79F JUMPI JUMPDEST DUP1 PUSH2 0x72F JUMP JUMPDEST PUSH2 0x7AD SWAP1 SWAP6 SWAP5 SWAP4 SWAP3 SWAP6 PUSH2 0x1EAE JUMP JUMPDEST PUSH2 0x7BB JUMPI SWAP1 SWAP2 SWAP3 DUP7 CODESIZE PUSH2 0x799 JUMP JUMPDEST DUP7 DUP1 REVERT JUMPDEST PUSH1 0x40 MLOAD RETURNDATASIZE DUP5 DUP3 RETURNDATACOPY RETURNDATASIZE SWAP1 REVERT JUMPDEST DUP4 DUP1 REVERT JUMPDEST PUSH2 0x100 SWAP2 POP ADD MLOAD ISZERO ISZERO CODESIZE PUSH2 0x74E JUMP JUMPDEST PUSH2 0x7FA SWAP2 SWAP3 POP RETURNDATASIZE DUP1 DUP7 DUP4 RETURNDATACOPY PUSH2 0x7F2 DUP2 DUP4 PUSH2 0x1EDE JUMP JUMPDEST DUP2 ADD SWAP1 PUSH2 0x23CC JUMP JUMPDEST SWAP1 CODESIZE PUSH2 0x729 JUMP JUMPDEST POP PUSH1 0xD0 SLOAD PUSH1 0x1 PUSH1 0x1 PUSH1 0xA0 SHL SUB AND ISZERO ISZERO PUSH2 0x650 JUMP JUMPDEST PUSH1 0x40 MLOAD PUSH4 0x656D0C39 PUSH1 0xE0 SHL DUP2 MSTORE PUSH1 0x1 PUSH1 0x1 PUSH1 0xA0 SHL SUB DUP8 AND PUSH1 0x4 DUP3 ADD MSTORE PUSH1 0x20 DUP2 PUSH1 0x24 DUP2 DUP6 GAS STATICCALL SWAP1 DUP2 ISZERO PUSH2 0x8E0 JUMPI DUP4 SWAP2 PUSH2 0x8A6 JUMPI JUMPDEST POP DUP1 PUSH2 0x855 JUMPI JUMPDEST POP PUSH2 0x63A JUMP JUMPDEST DUP8 SLOAD DUP3 EXTCODESIZE ISZERO PUSH2 0x7CA JUMPI PUSH1 0x44 DUP5 SWAP3 DUP4 PUSH1 0x40 MLOAD SWAP6 DUP7 SWAP5 DUP6 SWAP4 PUSH4 0x675F763 PUSH1 0xE0 SHL DUP6 MSTORE PUSH1 0x4 DUP6 ADD MSTORE PUSH1 0x24 DUP5 ADD MSTORE GAS CALL DUP1 ISZERO PUSH2 0x7BF JUMPI PUSH2 0x892 JUMPI JUMPDEST DUP1 PUSH2 0x84F JUMP JUMPDEST PUSH2 0x89B SWAP1 PUSH2 0x1EAE JUMP JUMPDEST PUSH2 0x7BB JUMPI DUP7 CODESIZE PUSH2 0x88C JUMP JUMPDEST SWAP3 POP POP PUSH1 0x20 DUP3 RETURNDATASIZE PUSH1 0x20 GT PUSH2 0x8D8 JUMPI JUMPDEST DUP2 PUSH2 0x8C2 PUSH1 0x20 SWAP4 DUP4 PUSH2 0x1EDE JUMP JUMPDEST DUP2 ADD SUB SLT PUSH2 0x8D3 JUMPI DUP9 SWAP2 MLOAD CODESIZE PUSH2 0x848 JUMP JUMPDEST PUSH1 0x0 DUP1 REVERT JUMPDEST RETURNDATASIZE SWAP2 POP PUSH2 0x8B5 JUMP JUMPDEST PUSH1 0x40 MLOAD RETURNDATASIZE DUP6 DUP3 RETURNDATACOPY RETURNDATASIZE SWAP1 REVERT JUMPDEST POP POP DUP5 PUSH2 0x5E3 JUMP JUMPDEST SWAP1 SWAP2 DUP2 PUSH1 0x2 SHL SWAP2 DUP1 DUP4 DIV PUSH1 0x4 EQ SWAP1 ISZERO OR ISZERO PUSH2 0x938 JUMPI SWAP1 PUSH2 0x912 SWAP2 PUSH2 0x24B2 JUMP JUMPDEST SWAP1 PUSH1 0x4 DUP2 ADD DUP1 SWAP2 GT PUSH2 0x924 JUMPI CODESIZE PUSH2 0x5D3 JUMP JUMPDEST PUSH4 0x4E487B71 PUSH1 0xE0 SHL DUP8 MSTORE PUSH1 0x11 PUSH1 0x4 MSTORE PUSH1 0x24 DUP8 REVERT JUMPDEST PUSH4 0x4E487B71 PUSH1 0xE0 SHL DUP9 MSTORE PUSH1 0x11 PUSH1 0x4 MSTORE PUSH1 0x24 DUP9 REVERT JUMPDEST SWAP1 SWAP2 SWAP3 DUP2 PUSH1 0x1 SHL SWAP2 DUP1 DUP4 DIV PUSH1 0x2 EQ SWAP1 ISZERO OR ISZERO PUSH2 0x97F JUMPI SWAP1 PUSH2 0x96C SWAP2 PUSH2 0x24B2 JUMP JUMPDEST SWAP2 PUSH1 0x2 DUP2 ADD DUP1 SWAP2 GT PUSH2 0x938 JUMPI SWAP1 CODESIZE PUSH2 0x5CA JUMP JUMPDEST PUSH4 0x4E487B71 PUSH1 0xE0 SHL DUP10 MSTORE PUSH1 0x11 PUSH1 0x4 MSTORE PUSH1 0x24 DUP10 REVERT JUMPDEST DUP1 SWAP3 SWAP6 POP PUSH1 0x3 SWAP2 SWAP5 POP MUL SWAP1 DUP1 DUP3 DIV PUSH1 0x3 EQ SWAP1 ISZERO OR ISZERO PUSH2 0x97F JUMPI SWAP3 PUSH1 0x3 SWAP3 CODESIZE PUSH2 0x5C4 JUMP JUMPDEST DUP8 SWAP1 PUSH2 0x5B3 JUMP JUMPDEST POP DUP7 PUSH2 0x57E JUMP JUMPDEST POP DUP7 SWAP1 PUSH2 0x558 JUMP JUMPDEST POP PUSH2 0x4CE PUSH2 0x9D9 CALLER PUSH2 0x256B JUMP JUMPDEST SWAP1 POP PUSH2 0x4C5 JUMP JUMPDEST POP CALLVALUE PUSH2 0x294 JUMPI DUP1 PUSH1 0x3 NOT CALLDATASIZE ADD SLT PUSH2 0x294 JUMPI PUSH1 0xCF SLOAD PUSH1 0x40 MLOAD PUSH1 0x1 PUSH1 0x1 PUSH1 0xA0 SHL SUB SWAP1 SWAP2 AND DUP2 MSTORE PUSH1 0x20 SWAP1 RETURN JUMPDEST POP CALLVALUE PUSH2 0x294 JUMPI DUP1 PUSH1 0x3 NOT CALLDATASIZE ADD SLT PUSH2 0x294 JUMPI PUSH1 0xD0 SLOAD PUSH1 0x40 MLOAD PUSH1 0x1 PUSH1 0x1 PUSH1 0xA0 SHL SUB SWAP1 SWAP2 AND DUP2 MSTORE PUSH1 0x20 SWAP1 RETURN JUMPDEST POP CALLVALUE PUSH2 0x294 JUMPI PUSH1 0xA0 CALLDATASIZE PUSH1 0x3 NOT ADD SLT PUSH2 0x294 JUMPI PUSH2 0xA4C PUSH2 0x1E49 JUMP JUMPDEST PUSH1 0x1 PUSH1 0x1 PUSH1 0xA0 SHL SUB SWAP1 PUSH1 0x24 CALLDATALOAD DUP3 DUP2 AND SWAP2 SWAP1 DUP3 SWAP1 SUB PUSH2 0x8D3 JUMPI PUSH1 0x44 CALLDATALOAD DUP4 DUP2 AND DUP1 SWAP2 SUB PUSH2 0x8D3 JUMPI DUP5 SLOAD SWAP3 PUSH1 0xFF DUP5 PUSH1 0x8 SHR AND ISZERO SWAP4 DUP5 DUP1 SWAP6 PUSH2 0xBEA JUMPI JUMPDEST DUP1 ISZERO PUSH2 0xBD3 JUMPI JUMPDEST ISZERO PUSH2 0xB77 JUMPI PUSH1 0xFF NOT DUP2 AND PUSH1 0x1 OR DUP8 SSTORE DUP5 PUSH2 0xB66 JUMPI JUMPDEST POP PUSH2 0xABB PUSH1 0xFF DUP8 SLOAD PUSH1 0x8 SHR AND PUSH2 0xAB6 DUP2 PUSH2 0x21FB JUMP JUMPDEST PUSH2 0x21FB JUMP JUMPDEST PUSH2 0xAC4 CALLER PUSH2 0x1F8A JUMP JUMPDEST DUP6 SLOAD SWAP5 PUSH2 0xAD6 PUSH1 0xFF DUP8 PUSH1 0x8 SHR AND PUSH2 0x21FB JUMP JUMPDEST PUSH1 0x1 PUSH1 0x1 PUSH1 0x60 SHL SUB PUSH1 0xA0 SHL SWAP4 AND DUP4 PUSH1 0xCD SLOAD AND OR PUSH1 0xCD SSTORE DUP3 PUSH1 0xCE SLOAD AND OR PUSH1 0xCE SSTORE DUP2 PUSH1 0xCF SLOAD AND OR PUSH1 0xCF SSTORE DUP1 PUSH1 0xD0 SLOAD AND PUSH1 0xD0 SSTORE PUSH1 0xD1 SLOAD AND PUSH1 0xD1 SSTORE PUSH1 0x64 CALLDATALOAD PUSH1 0xD3 SSTORE PUSH1 0x84 CALLDATALOAD PUSH1 0xD4 SSTORE PUSH1 0x5 PUSH1 0xD5 SSTORE PUSH2 0x1388 PUSH1 0xD6 SSTORE PUSH1 0xC8 PUSH1 0xD7 SSTORE PUSH2 0xB31 JUMPI POP DUP1 RETURN JUMPDEST PUSH2 0xFF00 NOT AND DUP2 SSTORE PUSH32 0x7F26B83FF96E1F2B6A682F133852F6798A09C465DA95921460CEFB3847402498 PUSH1 0x20 PUSH1 0x40 MLOAD PUSH1 0x1 DUP2 MSTORE LOG1 DUP1 RETURN JUMPDEST PUSH2 0xFFFF NOT AND PUSH2 0x101 OR DUP7 SSTORE CODESIZE PUSH2 0xAA1 JUMP JUMPDEST PUSH1 0x40 MLOAD PUSH3 0x461BCD PUSH1 0xE5 SHL DUP2 MSTORE PUSH1 0x20 PUSH1 0x4 DUP3 ADD MSTORE PUSH1 0x2E PUSH1 0x24 DUP3 ADD MSTORE PUSH32 0x496E697469616C697A61626C653A20636F6E747261637420697320616C726561 PUSH1 0x44 DUP3 ADD MSTORE PUSH14 0x191E481A5B9A5D1A585B1A5E9959 PUSH1 0x92 SHL PUSH1 0x64 DUP3 ADD MSTORE PUSH1 0x84 SWAP1 REVERT JUMPDEST POP ADDRESS EXTCODESIZE ISZERO DUP1 ISZERO PUSH2 0xA8C JUMPI POP PUSH1 0x1 PUSH1 0xFF DUP3 AND EQ PUSH2 0xA8C JUMP JUMPDEST POP PUSH1 0x1 PUSH1 0xFF DUP3 AND LT PUSH2 0xA85 JUMP JUMPDEST POP CALLVALUE PUSH2 0x294 JUMPI PUSH1 0x40 CALLDATASIZE PUSH1 0x3 NOT ADD SLT PUSH2 0x294 JUMPI PUSH2 0xC11 PUSH2 0x1E49 JUMP JUMPDEST PUSH1 0x24 CALLDATALOAD SWAP1 DUP2 ISZERO ISZERO DUP3 SUB PUSH2 0xEB6 JUMPI PUSH1 0xD1 SLOAD PUSH1 0x1 PUSH1 0x1 PUSH1 0xA0 SHL SUB SWAP2 DUP3 SWAP2 DUP3 AND CALLER EQ DUP1 ISZERO PUSH2 0xF23 JUMPI JUMPDEST PUSH2 0xC40 SWAP1 PUSH2 0x22CC JUMP JUMPDEST AND SWAP2 PUSH2 0xC4D DUP4 ISZERO ISZERO PUSH2 0x2307 JUMP JUMPDEST DUP3 DUP5 MSTORE PUSH1 0xCA PUSH1 0x20 MSTORE PUSH1 0x40 DUP5 KECCAK256 SWAP1 PUSH1 0x6 DUP3 ADD PUSH2 0xC68 DUP2 SLOAD PUSH2 0x22A7 JUMP JUMPDEST SWAP1 SSTORE PUSH1 0x2 DUP3 ADD SWAP1 PUSH2 0xC79 DUP3 SLOAD PUSH2 0x22A7 JUMP JUMPDEST DUP1 SWAP3 SSTORE PUSH2 0xF0E JUMPI JUMPDEST PUSH1 0x3 DUP3 ADD SLOAD PUSH1 0x64 DUP2 MUL SWAP1 DUP1 DUP3 DIV PUSH1 0x64 EQ SWAP1 ISZERO OR ISZERO PUSH2 0xEFA JUMPI DUP6 SWAP2 PUSH2 0xCA4 SWAP2 PUSH2 0x2353 JUMP JUMPDEST SWAP3 PUSH2 0xCB5 PUSH1 0x4 DUP5 ADD SWAP5 DUP1 DUP7 SSTORE PUSH2 0x24BF JUMP JUMPDEST PUSH1 0xA PUSH1 0x5 DUP6 ADD SWAP5 DUP3 DUP7 SSTORE TIMESTAMP PUSH1 0x9 DUP3 ADD SSTORE ADD PUSH1 0x1 PUSH1 0xFF NOT DUP3 SLOAD AND OR SWAP1 SSTORE DUP2 PUSH1 0xCD SLOAD AND SWAP1 DUP2 PUSH2 0xE1F JUMPI JUMPDEST POP POP DUP1 PUSH1 0xCE SLOAD AND SWAP1 DUP2 ISZERO ISZERO DUP1 PUSH2 0xE12 JUMPI JUMPDEST PUSH2 0xD35 JUMPI JUMPDEST POP POP SWAP2 SLOAD SWAP1 SLOAD PUSH1 0x40 DUP1 MLOAD DUP4 DUP2 MSTORE PUSH1 0x20 DUP2 ADD SWAP4 SWAP1 SWAP4 MSTORE DUP3 ADD MSTORE PUSH32 0x518D384EC8D284E293CFE22999E2961FCB70FAE686352F14179033225F2AC244 SWAP2 POP PUSH1 0x60 SWAP1 LOG2 DUP1 RETURN JUMPDEST DUP1 DUP4 PUSH1 0x24 SWAP3 PUSH1 0xD0 SLOAD AND PUSH1 0x40 MLOAD SWAP4 DUP5 DUP1 SWAP3 PUSH4 0x248BB6CD PUSH1 0xE2 SHL DUP3 MSTORE DUP12 PUSH1 0x4 DUP4 ADD MSTORE GAS STATICCALL DUP5 SWAP3 DUP2 PUSH2 0xDF6 JUMPI JUMPDEST POP PUSH2 0xD6B JUMPI JUMPDEST POP PUSH2 0xCF3 JUMP JUMPDEST PUSH1 0x40 DUP3 ADD MLOAD AND SWAP1 DUP2 ISZERO ISZERO SWAP1 DUP2 PUSH2 0xDE7 JUMPI JUMPDEST POP PUSH2 0xD88 JUMPI JUMPDEST DUP1 PUSH2 0xD65 JUMP JUMPDEST DUP4 SLOAD DUP3 EXTCODESIZE ISZERO PUSH2 0x7CA JUMPI PUSH1 0x40 MLOAD PUSH4 0xF6322A5F PUSH1 0xE0 SHL DUP2 MSTORE PUSH1 0x1 PUSH1 0x1 PUSH1 0xA0 SHL SUB SWAP3 SWAP1 SWAP3 AND PUSH1 0x4 DUP4 ADD MSTORE PUSH1 0x24 DUP3 ADD MSTORE SWAP1 DUP3 SWAP1 DUP3 SWAP1 PUSH1 0x44 SWAP1 DUP3 SWAP1 DUP5 SWAP1 GAS CALL DUP1 ISZERO PUSH2 0x7BF JUMPI PUSH2 0xDD3 JUMPI JUMPDEST DUP1 PUSH2 0xD82 JUMP JUMPDEST PUSH2 0xDDC SWAP1 PUSH2 0x1EAE JUMP JUMPDEST PUSH2 0x7CA JUMPI DUP4 CODESIZE PUSH2 0xDCD JUMP JUMPDEST PUSH2 0x100 SWAP2 POP ADD MLOAD ISZERO ISZERO CODESIZE PUSH2 0xD7C JUMP JUMPDEST PUSH2 0xE0B SWAP2 SWAP4 POP RETURNDATASIZE DUP1 DUP8 DUP4 RETURNDATACOPY PUSH2 0x7F2 DUP2 DUP4 PUSH2 0x1EDE JUMP JUMPDEST SWAP2 CODESIZE PUSH2 0xD5F JUMP JUMPDEST POP DUP1 PUSH1 0xD0 SLOAD AND ISZERO ISZERO PUSH2 0xCEE JUMP JUMPDEST PUSH1 0x40 MLOAD PUSH4 0x656D0C39 PUSH1 0xE0 SHL DUP2 MSTORE PUSH1 0x4 DUP2 ADD DUP9 SWAP1 MSTORE PUSH1 0x20 DUP2 PUSH1 0x24 DUP2 DUP7 GAS STATICCALL SWAP1 DUP2 ISZERO PUSH2 0xEEF JUMPI DUP6 SWAP2 PUSH2 0xEBA JUMPI JUMPDEST POP DUP1 PUSH2 0xE57 JUMPI JUMPDEST POP PUSH2 0xCDD JUMP JUMPDEST DUP3 SWAP4 SWAP5 SWAP3 EXTCODESIZE ISZERO PUSH2 0xEB6 JUMPI PUSH1 0x44 SWAP1 DUP4 PUSH1 0x40 MLOAD SWAP6 DUP7 SWAP5 DUP6 SWAP4 PUSH4 0x675F763 PUSH1 0xE0 SHL DUP6 MSTORE PUSH1 0x4 DUP6 ADD MSTORE PUSH1 0x24 DUP5 ADD MSTORE GAS CALL DUP1 ISZERO PUSH2 0xEAB JUMPI PUSH2 0xE98 JUMPI JUMPDEST SWAP1 DUP2 DUP1 DUP8 SWAP4 PUSH2 0xE51 JUMP JUMPDEST PUSH2 0xEA4 SWAP1 SWAP6 SWAP2 SWAP6 PUSH2 0x1EAE JUMP JUMPDEST SWAP4 CODESIZE PUSH2 0xE8E JUMP JUMPDEST PUSH1 0x40 MLOAD RETURNDATASIZE DUP9 DUP3 RETURNDATACOPY RETURNDATASIZE SWAP1 REVERT JUMPDEST DUP3 DUP1 REVERT JUMPDEST SWAP1 POP PUSH1 0x20 DUP2 RETURNDATASIZE DUP3 GT PUSH2 0xEE7 JUMPI JUMPDEST DUP2 PUSH2 0xED4 PUSH1 0x20 SWAP4 DUP4 PUSH2 0x1EDE JUMP JUMPDEST DUP2 ADD SUB SLT PUSH2 0xEE3 JUMPI MLOAD CODESIZE PUSH2 0xE4A JUMP JUMPDEST DUP5 DUP1 REVERT JUMPDEST RETURNDATASIZE SWAP2 POP PUSH2 0xEC7 JUMP JUMPDEST PUSH1 0x40 MLOAD RETURNDATASIZE DUP8 DUP3 RETURNDATACOPY RETURNDATASIZE SWAP1 REVERT JUMPDEST PUSH4 0x4E487B71 PUSH1 0xE0 SHL DUP7 MSTORE PUSH1 0x11 PUSH1 0x4 MSTORE PUSH1 0x24 DUP7 REVERT JUMPDEST PUSH1 0x3 DUP3 ADD PUSH2 0xF1C DUP2 SLOAD PUSH2 0x22A7 JUMP JUMPDEST SWAP1 SSTORE PUSH2 0xC81 JUMP JUMPDEST POP PUSH1 0x33 SLOAD DUP3 AND CALLER EQ PUSH2 0xC37 JUMP JUMPDEST POP CALLVALUE PUSH2 0x294 JUMPI PUSH1 0x20 CALLDATASIZE PUSH1 0x3 NOT ADD SLT PUSH2 0x294 JUMPI PUSH2 0xF4A PUSH2 0x1F32 JUMP JUMPDEST PUSH1 0x4 CALLDATALOAD PUSH1 0xD3 SSTORE DUP1 RETURN JUMPDEST POP CALLVALUE PUSH2 0x294 JUMPI PUSH2 0xF62 CALLDATASIZE PUSH2 0x1F1C JUMP JUMPDEST SWAP1 PUSH2 0xF6B PUSH2 0x1F32 JUMP JUMPDEST DUP1 ISZERO ISZERO DUP1 PUSH2 0xF9A JUMPI JUMPDEST PUSH2 0xF7D SWAP1 PUSH2 0x25D6 JUMP JUMPDEST PUSH2 0xF88 DUP3 ISZERO ISZERO PUSH2 0x225B JUMP JUMPDEST DUP3 MSTORE PUSH1 0xCC PUSH1 0x20 MSTORE PUSH1 0x1 PUSH1 0x40 DUP4 KECCAK256 ADD SSTORE DUP1 RETURN JUMPDEST POP PUSH1 0xD2 SLOAD DUP2 GT ISZERO PUSH2 0xF74 JUMP JUMPDEST POP CALLVALUE PUSH2 0x294 JUMPI DUP1 PUSH1 0x3 NOT CALLDATASIZE ADD SLT PUSH2 0x294 JUMPI PUSH1 0x20 PUSH1 0xD5 SLOAD PUSH1 0x40 MLOAD SWAP1 DUP2 MSTORE RETURN JUMPDEST POP CALLVALUE PUSH2 0x294 JUMPI DUP1 PUSH1 0x3 NOT CALLDATASIZE ADD SLT PUSH2 0x294 JUMPI PUSH1 0x33 SLOAD PUSH1 0x40 MLOAD PUSH1 0x1 PUSH1 0x1 PUSH1 0xA0 SHL SUB SWAP1 SWAP2 AND DUP2 MSTORE PUSH1 0x20 SWAP1 RETURN JUMPDEST POP CALLVALUE PUSH2 0x294 JUMPI PUSH1 0x20 CALLDATASIZE PUSH1 0x3 NOT ADD SLT PUSH2 0x294 JUMPI PUSH1 0x4 CALLDATALOAD PUSH2 0x100A PUSH2 0x1F32 JUMP JUMPDEST DUP1 ISZERO ISZERO DUP1 PUSH2 0x1049 JUMPI JUMPDEST PUSH2 0x101C SWAP1 PUSH2 0x25D6 JUMP JUMPDEST DUP2 MSTORE PUSH1 0xCC PUSH1 0x20 MSTORE PUSH1 0x40 DUP2 KECCAK256 DUP1 SLOAD PUSH1 0xFF PUSH1 0xA0 SHL NOT DUP2 AND PUSH1 0xA0 SWAP2 DUP3 SHR PUSH1 0xFF AND ISZERO SWAP1 SWAP2 SHL PUSH1 0xFF PUSH1 0xA0 SHL AND OR SWAP1 SSTORE DUP1 RETURN JUMPDEST POP PUSH1 0xD2 SLOAD DUP2 GT ISZERO PUSH2 0x1013 JUMP JUMPDEST POP CALLVALUE PUSH2 0x294 JUMPI DUP1 PUSH1 0x3 NOT CALLDATASIZE ADD SLT PUSH2 0x294 JUMPI PUSH1 0x20 PUSH1 0xD2 SLOAD PUSH1 0x40 MLOAD SWAP1 DUP2 MSTORE RETURN JUMPDEST POP CALLVALUE PUSH2 0x294 JUMPI PUSH1 0x20 CALLDATASIZE PUSH1 0x3 NOT ADD SLT PUSH2 0x294 JUMPI PUSH1 0x40 PUSH2 0x160 SWAP2 PUSH2 0x1093 PUSH2 0x1E49 JUMP JUMPDEST DUP2 PUSH2 0x140 DUP5 MLOAD PUSH2 0x10A2 DUP2 PUSH2 0x1E91 JUMP JUMPDEST DUP3 DUP2 MSTORE DUP3 PUSH1 0x20 DUP3 ADD MSTORE DUP3 DUP7 DUP3 ADD MSTORE DUP3 PUSH1 0x60 DUP3 ADD MSTORE DUP3 PUSH1 0x80 DUP3 ADD MSTORE DUP3 PUSH1 0xA0 DUP3 ADD MSTORE DUP3 PUSH1 0xC0 DUP3 ADD MSTORE DUP3 PUSH1 0xE0 DUP3 ADD MSTORE DUP3 PUSH2 0x100 DUP3 ADD MSTORE DUP3 PUSH2 0x120 DUP3 ADD MSTORE ADD MSTORE PUSH1 0x1 DUP1 PUSH1 0xA0 SHL SUB AND DUP2 MSTORE PUSH1 0xCA PUSH1 0x20 MSTORE KECCAK256 PUSH2 0x140 PUSH1 0x40 MLOAD PUSH2 0x10FD DUP2 PUSH2 0x1E91 JUMP JUMPDEST PUSH1 0xFF PUSH1 0xA DUP5 SLOAD SWAP5 DUP6 DUP5 MSTORE PUSH1 0x1 DUP1 PUSH1 0xA0 SHL SUB PUSH1 0x1 DUP3 ADD SLOAD AND PUSH1 0x20 DUP6 ADD MSTORE PUSH1 0x2 DUP2 ADD SLOAD PUSH1 0x40 DUP6 ADD MSTORE PUSH1 0x3 DUP2 ADD SLOAD PUSH1 0x60 DUP6 ADD MSTORE PUSH1 0x4 DUP2 ADD SLOAD PUSH1 0x80 DUP6 ADD MSTORE PUSH1 0x5 DUP2 ADD SLOAD PUSH1 0xA0 DUP6 ADD MSTORE PUSH1 0x6 DUP2 ADD SLOAD PUSH1 0xC0 DUP6 ADD MSTORE PUSH1 0x7 DUP2 ADD SLOAD PUSH1 0xE0 DUP6 ADD MSTORE PUSH1 0x8 DUP2 ADD SLOAD PUSH2 0x100 DUP6 ADD MSTORE PUSH1 0x9 DUP2 ADD SLOAD PUSH2 0x120 DUP6 ADD MSTORE ADD SLOAD AND ISZERO ISZERO DUP3 DUP3 ADD MSTORE PUSH1 0x40 MLOAD SWAP3 DUP4 MSTORE PUSH1 0x1 DUP1 PUSH1 0xA0 SHL SUB PUSH1 0x20 DUP3 ADD MLOAD AND PUSH1 0x20 DUP5 ADD MSTORE PUSH1 0x40 DUP2 ADD MLOAD PUSH1 0x40 DUP5 ADD MSTORE PUSH1 0x60 DUP2 ADD MLOAD PUSH1 0x60 DUP5 ADD MSTORE PUSH1 0x80 DUP2 ADD MLOAD PUSH1 0x80 DUP5 ADD MSTORE PUSH1 0xA0 DUP2 ADD MLOAD PUSH1 0xA0 DUP5 ADD MSTORE PUSH1 0xC0 DUP2 ADD MLOAD PUSH1 0xC0 DUP5 ADD MSTORE PUSH1 0xE0 DUP2 ADD MLOAD PUSH1 0xE0 DUP5 ADD MSTORE PUSH2 0x100 DUP2 ADD MLOAD PUSH2 0x100 DUP5 ADD MSTORE PUSH2 0x120 DUP2 ADD MLOAD PUSH2 0x120 DUP5 ADD MSTORE ADD MLOAD ISZERO ISZERO PUSH2 0x140 DUP3 ADD MSTORE RETURN JUMPDEST POP CALLVALUE PUSH2 0x294 JUMPI DUP1 PUSH1 0x3 NOT CALLDATASIZE ADD SLT PUSH2 0x294 JUMPI PUSH2 0x1205 PUSH2 0x1F32 JUMP JUMPDEST PUSH1 0x33 DUP1 SLOAD PUSH1 0x1 PUSH1 0x1 PUSH1 0xA0 SHL SUB NOT DUP2 AND SWAP1 SWAP2 SSTORE DUP2 SWAP1 PUSH1 0x1 PUSH1 0x1 PUSH1 0xA0 SHL SUB AND PUSH32 0x8BE0079C531659141344CD1FD0A4F28419497F9722A3DAAFE3B4186F6B6457E0 DUP3 DUP1 LOG3 DUP1 RETURN JUMPDEST POP CALLVALUE PUSH2 0x294 JUMPI DUP1 PUSH1 0x3 NOT CALLDATASIZE ADD SLT PUSH2 0x294 JUMPI PUSH1 0xCD SLOAD PUSH1 0x40 MLOAD PUSH1 0x1 PUSH1 0x1 PUSH1 0xA0 SHL SUB SWAP1 SWAP2 AND DUP2 MSTORE PUSH1 0x20 SWAP1 RETURN JUMPDEST POP CALLVALUE PUSH2 0x294 JUMPI PUSH1 0x20 CALLDATASIZE PUSH1 0x3 NOT ADD SLT PUSH2 0x294 JUMPI PUSH1 0x20 SWAP1 PUSH1 0x4 SWAP1 PUSH1 0x40 SWAP1 PUSH1 0x1 PUSH1 0x1 PUSH1 0xA0 SHL SUB PUSH2 0x129D PUSH2 0x1E49 JUMP JUMPDEST AND DUP2 MSTORE PUSH1 0xCB DUP5 MSTORE KECCAK256 ADD SLOAD PUSH1 0x40 MLOAD SWAP1 DUP2 MSTORE RETURN JUMPDEST POP CALLVALUE PUSH2 0x294 JUMPI PUSH1 0x20 CALLDATASIZE PUSH1 0x3 NOT ADD SLT PUSH2 0x294 JUMPI PUSH2 0x12C9 PUSH2 0x1E49 JUMP JUMPDEST PUSH2 0x12D1 PUSH2 0x1F32 JUMP JUMPDEST PUSH1 0x1 DUP1 PUSH1 0xA0 SHL SUB AND PUSH1 0x1 PUSH1 0x1 PUSH1 0x60 SHL SUB PUSH1 0xA0 SHL PUSH1 0xCF SLOAD AND OR PUSH1 0xCF SSTORE DUP1 RETURN JUMPDEST POP CALLVALUE PUSH2 0x294 JUMPI DUP1 PUSH1 0x3 NOT CALLDATASIZE ADD SLT PUSH2 0x294 JUMPI PUSH1 0x20 PUSH1 0xD7 SLOAD PUSH1 0x40 MLOAD SWAP1 DUP2 MSTORE RETURN JUMPDEST POP CALLVALUE PUSH2 0x294 JUMPI PUSH2 0x131C CALLDATASIZE PUSH2 0x1F1C JUMP JUMPDEST SWAP1 PUSH2 0x1325 PUSH2 0x1F32 JUMP JUMPDEST DUP2 DUP2 GT ISZERO PUSH2 0x13E9 JUMPI PUSH1 0x64 DUP3 LT PUSH2 0x1398 JUMPI PUSH2 0x2710 DUP2 GT PUSH2 0x1347 JUMPI PUSH1 0xD6 SSTORE PUSH1 0xD7 SSTORE DUP1 RETURN JUMPDEST PUSH1 0x40 MLOAD PUSH3 0x461BCD PUSH1 0xE5 SHL DUP2 MSTORE PUSH1 0x20 PUSH1 0x4 DUP3 ADD MSTORE PUSH1 0x24 DUP1 DUP3 ADD MSTORE PUSH32 0x4D6178206D756C7469706C696572206D757374206265206174206D6F73742031 PUSH1 0x44 DUP3 ADD MSTORE PUSH4 0x605C60F PUSH1 0xE3 SHL PUSH1 0x64 DUP3 ADD MSTORE PUSH1 0x84 SWAP1 REVERT JUMPDEST PUSH1 0x40 MLOAD PUSH3 0x461BCD PUSH1 0xE5 SHL DUP2 MSTORE PUSH1 0x20 PUSH1 0x4 DUP3 ADD MSTORE PUSH1 0x24 DUP1 DUP3 ADD MSTORE PUSH32 0x4D696E206D756C7469706C696572206D757374206265206174206C6561737420 PUSH1 0x44 DUP3 ADD MSTORE PUSH4 0x605C62F PUSH1 0xE3 SHL PUSH1 0x64 DUP3 ADD MSTORE PUSH1 0x84 SWAP1 REVERT JUMPDEST PUSH1 0x40 MLOAD PUSH3 0x461BCD PUSH1 0xE5 SHL DUP2 MSTORE PUSH1 0x20 PUSH1 0x4 DUP3 ADD MSTORE PUSH1 0x1C PUSH1 0x24 DUP3 ADD MSTORE PUSH32 0x4D6178206D7573742062652067726561746572207468616E206D696E00000000 PUSH1 0x44 DUP3 ADD MSTORE PUSH1 0x64 SWAP1 REVERT JUMPDEST POP CALLVALUE PUSH2 0x294 JUMPI DUP1 PUSH1 0x3 NOT CALLDATASIZE ADD SLT PUSH2 0x294 JUMPI PUSH32 0x0 PUSH1 0x1 PUSH1 0x1 PUSH1 0xA0 SHL SUB AND ADDRESS SUB PUSH2 0x1487 JUMPI PUSH1 0x20 PUSH1 0x40 MLOAD PUSH1 0x0 DUP1 MLOAD PUSH1 0x20 PUSH2 0x2617 DUP4 CODECOPY DUP2 MLOAD SWAP2 MSTORE DUP2 MSTORE RETURN JUMPDEST PUSH1 0x40 MLOAD PUSH3 0x461BCD PUSH1 0xE5 SHL DUP2 MSTORE PUSH1 0x20 PUSH1 0x4 DUP3 ADD MSTORE PUSH1 0x38 PUSH1 0x24 DUP3 ADD MSTORE PUSH32 0x555550535570677261646561626C653A206D757374206E6F742062652063616C PUSH1 0x44 DUP3 ADD MSTORE PUSH32 0x6C6564207468726F7567682064656C656761746563616C6C0000000000000000 PUSH1 0x64 DUP3 ADD MSTORE PUSH1 0x84 SWAP1 REVERT JUMPDEST POP CALLVALUE PUSH2 0x294 JUMPI PUSH1 0x20 DUP1 PUSH1 0x3 NOT CALLDATASIZE ADD SLT PUSH2 0x157E JUMPI PUSH1 0x4 CALLDATALOAD SWAP2 PUSH2 0x152B PUSH2 0x1515 DUP5 PUSH2 0x2553 JUMP JUMPDEST SWAP4 PUSH2 0x1523 PUSH1 0x40 MLOAD SWAP6 DUP7 PUSH2 0x1EDE JUMP JUMPDEST DUP1 DUP6 MSTORE PUSH2 0x2553 JUMP JUMPDEST DUP4 DUP4 ADD SWAP2 SWAP1 PUSH1 0x1F NOT ADD CALLDATASIZE DUP4 CALLDATACOPY PUSH1 0x40 MLOAD SWAP4 DUP4 DUP6 SWAP5 DUP6 ADD SWAP2 DUP2 DUP7 MSTORE MLOAD DUP1 SWAP3 MSTORE PUSH1 0x40 DUP6 ADD SWAP4 SWAP3 JUMPDEST DUP3 DUP2 LT PUSH2 0x155E JUMPI POP POP POP POP SUB SWAP1 RETURN JUMPDEST DUP4 MLOAD PUSH1 0x1 PUSH1 0x1 PUSH1 0xA0 SHL SUB AND DUP6 MSTORE DUP7 SWAP6 POP SWAP4 DUP2 ADD SWAP4 SWAP3 DUP2 ADD SWAP3 PUSH1 0x1 ADD PUSH2 0x154F JUMP JUMPDEST POP DUP1 REVERT JUMPDEST POP CALLVALUE PUSH2 0x294 JUMPI PUSH1 0x40 CALLDATASIZE PUSH1 0x3 NOT ADD SLT PUSH2 0x294 JUMPI PUSH2 0x159C PUSH2 0x1E49 JUMP JUMPDEST PUSH1 0x24 CALLDATALOAD PUSH2 0x15A7 PUSH2 0x1F32 JUMP JUMPDEST PUSH1 0x1 PUSH1 0x1 PUSH1 0xA0 SHL SUB SWAP2 DUP1 DUP4 AND DUP1 ISZERO PUSH2 0x16BB JUMPI PUSH2 0x15C4 DUP4 ISZERO ISZERO PUSH2 0x225B JUMP JUMPDEST PUSH2 0x15CF PUSH1 0xD2 SLOAD PUSH2 0x22A7 JUMP JUMPDEST SWAP4 DUP5 PUSH1 0xD2 SSTORE PUSH1 0x40 MLOAD SWAP2 PUSH1 0x80 DUP4 ADD DUP4 DUP2 LT PUSH8 0xFFFFFFFFFFFFFFFF DUP3 GT OR PUSH2 0x16A7 JUMPI PUSH1 0x20 SWAP8 PUSH32 0xAF31016049A06640F36FA55E20D2A8C9809BBDADF9FD3327A7763E5AA652346E SWAP6 SWAP4 DUP9 SWAP8 SWAP6 SWAP4 PUSH1 0x2 SWAP4 PUSH1 0x40 MSTORE DUP5 MSTORE PUSH2 0x167A DUP11 DUP6 ADD PUSH1 0x1 DUP2 MSTORE PUSH1 0x40 DUP7 ADD SWAP3 DUP9 DUP5 MSTORE PUSH1 0x40 PUSH1 0x60 DUP9 ADD SWAP6 TIMESTAMP DUP8 MSTORE DUP13 DUP2 MSTORE PUSH1 0xCC DUP16 MSTORE KECCAK256 SWAP7 MLOAD AND PUSH1 0x1 PUSH1 0x1 PUSH1 0x60 SHL SUB PUSH1 0xA0 SHL DUP8 SLOAD AND OR DUP7 SSTORE MLOAD ISZERO ISZERO DUP6 SWAP1 DUP2 SLOAD SWAP1 PUSH1 0xFF PUSH1 0xA0 SHL SWAP1 ISZERO ISZERO PUSH1 0xA0 SHL AND SWAP1 PUSH1 0xFF PUSH1 0xA0 SHL NOT AND OR SWAP1 SSTORE JUMP JUMPDEST MLOAD PUSH1 0x1 DUP5 ADD SSTORE MLOAD SWAP2 ADD SSTORE PUSH1 0x40 DUP1 MLOAD PUSH1 0x1 PUSH1 0x1 PUSH1 0xA0 SHL SUB SWAP3 SWAP1 SWAP3 AND DUP3 MSTORE PUSH1 0x20 DUP3 ADD SWAP3 SWAP1 SWAP3 MSTORE LOG2 PUSH1 0x40 MLOAD SWAP1 DUP2 MSTORE RETURN JUMPDEST PUSH4 0x4E487B71 PUSH1 0xE0 SHL DUP9 MSTORE PUSH1 0x41 PUSH1 0x4 MSTORE PUSH1 0x24 DUP9 REVERT JUMPDEST PUSH1 0x40 MLOAD PUSH3 0x461BCD PUSH1 0xE5 SHL DUP2 MSTORE PUSH1 0x20 PUSH1 0x4 DUP3 ADD MSTORE PUSH1 0x18 PUSH1 0x24 DUP3 ADD MSTORE PUSH32 0x496E76616C696420636F6E747261637420616464726573730000000000000000 PUSH1 0x44 DUP3 ADD MSTORE PUSH1 0x64 SWAP1 REVERT JUMPDEST POP PUSH1 0x40 CALLDATASIZE PUSH1 0x3 NOT ADD SLT PUSH2 0x294 JUMPI PUSH2 0x1715 PUSH2 0x1E49 JUMP JUMPDEST PUSH1 0x24 CALLDATALOAD SWAP1 PUSH8 0xFFFFFFFFFFFFFFFF DUP3 GT PUSH2 0xEB6 JUMPI CALLDATASIZE PUSH1 0x23 DUP4 ADD SLT ISZERO PUSH2 0xEB6 JUMPI DUP2 PUSH1 0x4 ADD CALLDATALOAD PUSH2 0x1741 DUP2 PUSH2 0x1F00 JUMP JUMPDEST PUSH2 0x174E PUSH1 0x40 MLOAD SWAP2 DUP3 PUSH2 0x1EDE JUMP JUMPDEST DUP2 DUP2 MSTORE DUP5 PUSH1 0x20 SWAP5 DUP6 DUP4 ADD SWAP4 CALLDATASIZE PUSH1 0x24 DUP3 DUP5 ADD ADD GT PUSH2 0xEB6 JUMPI DUP1 PUSH1 0x24 DUP9 SWAP4 ADD DUP7 CALLDATACOPY DUP4 ADD ADD MSTORE PUSH1 0x1 PUSH1 0x1 PUSH1 0xA0 SHL SUB PUSH32 0x0 DUP2 AND SWAP1 PUSH2 0x17A9 ADDRESS DUP4 EQ ISZERO PUSH2 0x1FD3 JUMP JUMPDEST PUSH2 0x17C6 PUSH1 0x0 DUP1 MLOAD PUSH1 0x20 PUSH2 0x2617 DUP4 CODECOPY DUP2 MLOAD SWAP2 MSTORE SWAP3 DUP3 DUP5 SLOAD AND EQ PUSH2 0x2034 JUMP JUMPDEST PUSH2 0x17CE PUSH2 0x1F32 JUMP JUMPDEST PUSH32 0x4910FDFA16FED3260ED0E7147F7CC6DA11A60208B5B9406D12A635614FFD9143 SLOAD PUSH1 0xFF AND ISZERO PUSH2 0x1806 JUMPI POP POP POP POP PUSH2 0x2EF SWAP2 POP PUSH2 0x2095 JUMP JUMPDEST DUP5 SWAP3 SWAP4 SWAP5 AND SWAP1 PUSH1 0x40 MLOAD PUSH4 0x52D1902D PUSH1 0xE0 SHL DUP2 MSTORE DUP7 DUP2 PUSH1 0x4 DUP2 DUP7 GAS STATICCALL DUP9 SWAP2 DUP2 PUSH2 0x19C9 JUMPI JUMPDEST POP PUSH2 0x188A JUMPI PUSH1 0x40 MLOAD PUSH3 0x461BCD PUSH1 0xE5 SHL DUP2 MSTORE PUSH1 0x4 DUP2 ADD DUP9 SWAP1 MSTORE PUSH1 0x2E PUSH1 0x24 DUP3 ADD MSTORE PUSH32 0x45524331393637557067726164653A206E657720696D706C656D656E74617469 PUSH1 0x44 DUP3 ADD MSTORE PUSH14 0x6F6E206973206E6F742055555053 PUSH1 0x90 SHL PUSH1 0x64 DUP3 ADD MSTORE PUSH1 0x84 SWAP1 REVERT JUMPDEST SWAP6 SWAP4 SWAP5 SWAP6 SUB PUSH2 0x1972 JUMPI PUSH2 0x189C DUP3 PUSH2 0x2095 JUMP JUMPDEST PUSH32 0xBC7CD75A20EE27FD9ADEBAB32041F755214DBC6BFFA90CC0225B39DA2E5C2D3B DUP7 DUP1 LOG2 DUP5 DUP4 MLOAD ISZERO DUP1 ISZERO SWAP1 PUSH2 0x196A JUMPI JUMPDEST PUSH2 0x18D9 JUMPI JUMPDEST POP POP POP POP POP DUP1 RETURN JUMPDEST DUP1 PUSH2 0x1956 SWAP6 PUSH1 0x40 MLOAD SWAP6 PUSH2 0x18EB DUP8 PUSH2 0x1EC2 JUMP JUMPDEST PUSH1 0x27 DUP8 MSTORE PUSH32 0x416464726573733A206C6F772D6C6576656C2064656C65676174652063616C6C DUP7 DUP9 ADD MSTORE PUSH7 0x819985A5B1959 PUSH1 0xCA SHL PUSH1 0x40 DUP9 ADD MSTORE MLOAD SWAP1 DUP5 GAS DELEGATECALL SWAP1 RETURNDATASIZE ISZERO PUSH2 0x1961 JUMPI RETURNDATASIZE PUSH2 0x193A DUP2 PUSH2 0x1F00 JUMP JUMPDEST SWAP1 PUSH2 0x1948 PUSH1 0x40 MLOAD SWAP3 DUP4 PUSH2 0x1EDE JUMP JUMPDEST DUP2 MSTORE DUP7 DUP2 SWAP5 RETURNDATASIZE SWAP3 ADD RETURNDATACOPY PUSH2 0x2125 JUMP JUMPDEST POP CODESIZE DUP1 DUP1 DUP1 DUP5 PUSH2 0x18D1 JUMP JUMPDEST PUSH1 0x60 SWAP3 POP PUSH2 0x2125 JUMP JUMPDEST POP PUSH1 0x1 PUSH2 0x18CC JUMP JUMPDEST PUSH1 0x40 MLOAD PUSH3 0x461BCD PUSH1 0xE5 SHL DUP2 MSTORE PUSH1 0x4 DUP2 ADD DUP5 SWAP1 MSTORE PUSH1 0x29 PUSH1 0x24 DUP3 ADD MSTORE PUSH32 0x45524331393637557067726164653A20756E737570706F727465642070726F78 PUSH1 0x44 DUP3 ADD MSTORE PUSH9 0x1A58589B1955555251 PUSH1 0xBA SHL PUSH1 0x64 DUP3 ADD MSTORE PUSH1 0x84 SWAP1 REVERT JUMPDEST SWAP1 SWAP2 POP DUP8 DUP2 DUP2 RETURNDATASIZE DUP4 GT PUSH2 0x19F5 JUMPI JUMPDEST PUSH2 0x19E1 DUP2 DUP4 PUSH2 0x1EDE JUMP JUMPDEST DUP2 ADD SUB SLT PUSH2 0x19F1 JUMPI MLOAD SWAP1 CODESIZE PUSH2 0x1829 JUMP JUMPDEST DUP9 DUP1 REVERT JUMPDEST POP RETURNDATASIZE PUSH2 0x19D7 JUMP JUMPDEST POP CALLVALUE PUSH2 0x294 JUMPI PUSH1 0x20 CALLDATASIZE PUSH1 0x3 NOT ADD SLT PUSH2 0x294 JUMPI PUSH2 0x1A16 PUSH2 0x1F32 JUMP JUMPDEST PUSH1 0x4 CALLDATALOAD PUSH1 0xD5 SSTORE DUP1 RETURN JUMPDEST POP CALLVALUE PUSH2 0x294 JUMPI DUP1 PUSH1 0x3 NOT CALLDATASIZE ADD SLT PUSH2 0x294 JUMPI PUSH1 0x20 PUSH1 0xD3 SLOAD PUSH1 0x40 MLOAD SWAP1 DUP2 MSTORE RETURN JUMPDEST POP CALLVALUE PUSH2 0x294 JUMPI PUSH1 0x20 CALLDATASIZE PUSH1 0x3 NOT ADD SLT PUSH2 0x294 JUMPI PUSH2 0x1A57 PUSH2 0x1E49 JUMP JUMPDEST PUSH2 0x1A5F PUSH2 0x1F32 JUMP JUMPDEST PUSH1 0x1 DUP1 PUSH1 0xA0 SHL SUB AND PUSH1 0x1 PUSH1 0x1 PUSH1 0x60 SHL SUB PUSH1 0xA0 SHL PUSH1 0xCD SLOAD AND OR PUSH1 0xCD SSTORE DUP1 RETURN JUMPDEST POP CALLVALUE PUSH2 0x294 JUMPI DUP1 PUSH1 0x3 NOT CALLDATASIZE ADD SLT PUSH2 0x294 JUMPI PUSH1 0x20 PUSH1 0xD6 SLOAD PUSH1 0x40 MLOAD SWAP1 DUP2 MSTORE RETURN JUMPDEST POP CALLVALUE PUSH2 0x294 JUMPI DUP1 PUSH1 0x3 NOT CALLDATASIZE ADD SLT PUSH2 0x294 JUMPI PUSH1 0x40 PUSH1 0xD6 SLOAD PUSH1 0xD7 SLOAD DUP3 MLOAD SWAP2 DUP3 MSTORE PUSH1 0x20 DUP3 ADD MSTORE RETURN JUMPDEST POP CALLVALUE PUSH2 0x294 JUMPI PUSH1 0x20 DUP1 PUSH1 0x3 NOT CALLDATASIZE ADD SLT PUSH2 0x157E JUMPI PUSH2 0x1ADB PUSH2 0x1E49 JUMP JUMPDEST PUSH1 0x1 PUSH1 0x1 PUSH1 0xA0 SHL SUB PUSH32 0x0 DUP2 AND PUSH2 0x1B12 ADDRESS DUP3 EQ ISZERO PUSH2 0x1FD3 JUMP JUMPDEST PUSH2 0x1B2F PUSH1 0x0 DUP1 MLOAD PUSH1 0x20 PUSH2 0x2617 DUP4 CODECOPY DUP2 MLOAD SWAP2 MSTORE SWAP2 DUP4 DUP4 SLOAD AND EQ PUSH2 0x2034 JUMP JUMPDEST PUSH2 0x1B37 PUSH2 0x1F32 JUMP JUMPDEST PUSH1 0x40 MLOAD SWAP1 DUP5 DUP3 ADD SWAP3 DUP3 DUP5 LT PUSH8 0xFFFFFFFFFFFFFFFF DUP6 GT OR PUSH2 0x1C9A JUMPI DUP4 PUSH1 0x40 MSTORE DUP7 DUP4 MSTORE PUSH1 0xFF PUSH32 0x4910FDFA16FED3260ED0E7147F7CC6DA11A60208B5B9406D12A635614FFD9143 SLOAD AND PUSH1 0x0 EQ PUSH2 0x1B93 JUMPI POP POP POP POP PUSH2 0x2EF SWAP2 POP PUSH2 0x2095 JUMP JUMPDEST DUP5 SWAP3 SWAP4 SWAP5 AND SWAP1 PUSH1 0x40 MLOAD PUSH4 0x52D1902D PUSH1 0xE0 SHL DUP2 MSTORE DUP7 DUP2 PUSH1 0x4 DUP2 DUP7 GAS STATICCALL DUP9 SWAP2 DUP2 PUSH2 0x1C6B JUMPI JUMPDEST POP PUSH2 0x1C17 JUMPI PUSH1 0x40 MLOAD PUSH3 0x461BCD PUSH1 0xE5 SHL DUP2 MSTORE PUSH1 0x4 DUP2 ADD DUP9 SWAP1 MSTORE PUSH1 0x2E PUSH1 0x24 DUP3 ADD MSTORE PUSH32 0x45524331393637557067726164653A206E657720696D706C656D656E74617469 PUSH1 0x44 DUP3 ADD MSTORE PUSH14 0x6F6E206973206E6F742055555053 PUSH1 0x90 SHL PUSH1 0x64 DUP3 ADD MSTORE PUSH1 0x84 SWAP1 REVERT JUMPDEST SWAP6 SWAP4 SWAP5 SWAP6 SUB PUSH2 0x1972 JUMPI PUSH2 0x1C29 DUP3 PUSH2 0x2095 JUMP JUMPDEST PUSH32 0xBC7CD75A20EE27FD9ADEBAB32041F755214DBC6BFFA90CC0225B39DA2E5C2D3B DUP7 DUP1 LOG2 DUP5 DUP4 MLOAD ISZERO DUP1 ISZERO SWAP1 PUSH2 0x1C64 JUMPI PUSH2 0x18D9 JUMPI POP POP POP POP POP DUP1 RETURN JUMPDEST POP DUP1 PUSH2 0x18CC JUMP JUMPDEST SWAP1 SWAP2 POP DUP8 DUP2 DUP2 RETURNDATASIZE DUP4 GT PUSH2 0x1C93 JUMPI JUMPDEST PUSH2 0x1C83 DUP2 DUP4 PUSH2 0x1EDE JUMP JUMPDEST DUP2 ADD SUB SLT PUSH2 0x19F1 JUMPI MLOAD SWAP1 CODESIZE PUSH2 0x1BB6 JUMP JUMPDEST POP RETURNDATASIZE PUSH2 0x1C79 JUMP JUMPDEST PUSH4 0x4E487B71 PUSH1 0xE0 SHL DUP8 MSTORE PUSH1 0x41 PUSH1 0x4 MSTORE PUSH1 0x24 DUP8 REVERT JUMPDEST POP CALLVALUE PUSH2 0x294 JUMPI PUSH1 0x20 CALLDATASIZE PUSH1 0x3 NOT ADD SLT PUSH2 0x294 JUMPI PUSH1 0x40 PUSH1 0xA0 SWAP2 PUSH2 0x1CCD PUSH2 0x1E49 JUMP JUMPDEST DUP2 PUSH1 0x80 DUP5 MLOAD PUSH2 0x1CDB DUP2 PUSH2 0x1E5F JUMP JUMPDEST DUP3 DUP2 MSTORE DUP3 PUSH1 0x20 DUP3 ADD MSTORE DUP3 DUP7 DUP3 ADD MSTORE DUP3 PUSH1 0x60 DUP3 ADD MSTORE ADD MSTORE PUSH1 0x1 DUP1 DUP6 SHL SUB AND DUP2 MSTORE PUSH1 0xCB PUSH1 0x20 MSTORE KECCAK256 PUSH1 0x40 MLOAD PUSH2 0x1D0C DUP2 PUSH2 0x1E5F JUMP JUMPDEST DUP2 SLOAD SWAP2 DUP3 DUP3 MSTORE PUSH1 0x1 DUP2 ADD SLOAD PUSH1 0x20 DUP4 ADD SWAP1 DUP2 MSTORE PUSH1 0x2 DUP3 ADD SLOAD SWAP1 PUSH1 0x40 DUP5 ADD SWAP2 DUP3 MSTORE PUSH1 0x80 PUSH1 0x4 PUSH1 0x3 DUP6 ADD SLOAD SWAP5 PUSH1 0x60 DUP8 ADD SWAP6 DUP7 MSTORE ADD SLOAD SWAP5 ADD SWAP4 DUP5 MSTORE PUSH1 0x40 MLOAD SWAP5 DUP6 MSTORE MLOAD PUSH1 0x20 DUP6 ADD MSTORE MLOAD PUSH1 0x40 DUP5 ADD MSTORE MLOAD PUSH1 0x60 DUP4 ADD MSTORE MLOAD PUSH1 0x80 DUP3 ADD MSTORE RETURN JUMPDEST POP CALLVALUE PUSH2 0x294 JUMPI DUP1 PUSH1 0x3 NOT CALLDATASIZE ADD SLT PUSH2 0x294 JUMPI PUSH1 0xCE SLOAD PUSH1 0x40 MLOAD PUSH1 0x1 PUSH1 0x1 PUSH1 0xA0 SHL SUB SWAP1 SWAP2 AND DUP2 MSTORE PUSH1 0x20 SWAP1 RETURN JUMPDEST POP CALLVALUE PUSH2 0x294 JUMPI PUSH1 0x20 CALLDATASIZE PUSH1 0x3 NOT ADD SLT PUSH2 0x294 JUMPI PUSH1 0x40 PUSH1 0x80 SWAP2 PUSH1 0x4 CALLDATALOAD DUP2 MSTORE PUSH1 0xCC PUSH1 0x20 MSTORE KECCAK256 DUP1 SLOAD SWAP1 PUSH1 0x2 PUSH1 0x1 DUP3 ADD SLOAD SWAP2 ADD SLOAD SWAP1 PUSH1 0xFF PUSH1 0x40 MLOAD SWAP4 PUSH1 0x1 DUP1 PUSH1 0xA0 SHL SUB DUP2 AND DUP6 MSTORE PUSH1 0xA0 SHR AND ISZERO ISZERO PUSH1 0x20 DUP5 ADD MSTORE PUSH1 0x40 DUP4 ADD MSTORE PUSH1 0x60 DUP3 ADD MSTORE RETURN JUMPDEST POP CALLVALUE PUSH2 0x294 JUMPI PUSH1 0x20 CALLDATASIZE PUSH1 0x3 NOT ADD SLT PUSH2 0x294 JUMPI PUSH2 0x1DFE PUSH2 0x1E49 JUMP JUMPDEST PUSH2 0x1E06 PUSH2 0x1F32 JUMP JUMPDEST PUSH1 0x1 DUP1 PUSH1 0xA0 SHL SUB AND PUSH1 0x1 PUSH1 0x1 PUSH1 0x60 SHL SUB PUSH1 0xA0 SHL PUSH1 0xD1 SLOAD AND OR PUSH1 0xD1 SSTORE DUP1 RETURN JUMPDEST SWAP1 POP CALLVALUE PUSH2 0x157E JUMPI DUP2 PUSH1 0x3 NOT CALLDATASIZE ADD SLT PUSH2 0x157E JUMPI PUSH1 0xD1 SLOAD PUSH1 0x1 PUSH1 0x1 PUSH1 0xA0 SHL SUB AND DUP2 MSTORE PUSH1 0x20 SWAP1 RETURN JUMPDEST PUSH1 0x4 CALLDATALOAD SWAP1 PUSH1 0x1 PUSH1 0x1 PUSH1 0xA0 SHL SUB DUP3 AND DUP3 SUB PUSH2 0x8D3 JUMPI JUMP JUMPDEST PUSH1 0xA0 DUP2 ADD SWAP1 DUP2 LT PUSH8 0xFFFFFFFFFFFFFFFF DUP3 GT OR PUSH2 0x1E7B JUMPI PUSH1 0x40 MSTORE JUMP JUMPDEST PUSH4 0x4E487B71 PUSH1 0xE0 SHL PUSH1 0x0 MSTORE PUSH1 0x41 PUSH1 0x4 MSTORE PUSH1 0x24 PUSH1 0x0 REVERT JUMPDEST PUSH2 0x160 DUP2 ADD SWAP1 DUP2 LT PUSH8 0xFFFFFFFFFFFFFFFF DUP3 GT OR PUSH2 0x1E7B JUMPI PUSH1 0x40 MSTORE JUMP JUMPDEST PUSH8 0xFFFFFFFFFFFFFFFF DUP2 GT PUSH2 0x1E7B JUMPI PUSH1 0x40 MSTORE JUMP JUMPDEST PUSH1 0x60 DUP2 ADD SWAP1 DUP2 LT PUSH8 0xFFFFFFFFFFFFFFFF DUP3 GT OR PUSH2 0x1E7B JUMPI PUSH1 0x40 MSTORE JUMP JUMPDEST SWAP1 PUSH1 0x1F DUP1 NOT SWAP2 ADD AND DUP2 ADD SWAP1 DUP2 LT PUSH8 0xFFFFFFFFFFFFFFFF DUP3 GT OR PUSH2 0x1E7B JUMPI PUSH1 0x40 MSTORE JUMP JUMPDEST PUSH8 0xFFFFFFFFFFFFFFFF DUP2 GT PUSH2 0x1E7B JUMPI PUSH1 0x1F ADD PUSH1 0x1F NOT AND PUSH1 0x20 ADD SWAP1 JUMP JUMPDEST PUSH1 0x40 SWAP1 PUSH1 0x3 NOT ADD SLT PUSH2 0x8D3 JUMPI PUSH1 0x4 CALLDATALOAD SWAP1 PUSH1 0x24 CALLDATALOAD SWAP1 JUMP JUMPDEST PUSH1 0x33 SLOAD PUSH1 0x1 PUSH1 0x1 PUSH1 0xA0 SHL SUB AND CALLER SUB PUSH2 0x1F46 JUMPI JUMP JUMPDEST PUSH1 0x64 PUSH1 0x40 MLOAD PUSH3 0x461BCD PUSH1 0xE5 SHL DUP2 MSTORE PUSH1 0x20 PUSH1 0x4 DUP3 ADD MSTORE PUSH1 0x20 PUSH1 0x24 DUP3 ADD MSTORE PUSH32 0x4F776E61626C653A2063616C6C6572206973206E6F7420746865206F776E6572 PUSH1 0x44 DUP3 ADD MSTORE REVERT JUMPDEST PUSH1 0x33 DUP1 SLOAD PUSH1 0x1 PUSH1 0x1 PUSH1 0xA0 SHL SUB SWAP3 DUP4 AND PUSH1 0x1 PUSH1 0x1 PUSH1 0xA0 SHL SUB NOT DUP3 AND DUP2 OR SWAP1 SWAP3 SSTORE SWAP1 SWAP2 AND PUSH32 0x8BE0079C531659141344CD1FD0A4F28419497F9722A3DAAFE3B4186F6B6457E0 PUSH1 0x0 DUP1 LOG3 JUMP JUMPDEST ISZERO PUSH2 0x1FDA JUMPI JUMP JUMPDEST PUSH1 0x40 MLOAD PUSH3 0x461BCD PUSH1 0xE5 SHL DUP2 MSTORE PUSH1 0x20 PUSH1 0x4 DUP3 ADD MSTORE PUSH1 0x2C PUSH1 0x24 DUP3 ADD MSTORE PUSH32 0x46756E6374696F6E206D7573742062652063616C6C6564207468726F75676820 PUSH1 0x44 DUP3 ADD MSTORE PUSH12 0x19195B1959D85D1958D85B1B PUSH1 0xA2 SHL PUSH1 0x64 DUP3 ADD MSTORE PUSH1 0x84 SWAP1 REVERT JUMPDEST ISZERO PUSH2 0x203B JUMPI JUMP JUMPDEST PUSH1 0x40 MLOAD PUSH3 0x461BCD PUSH1 0xE5 SHL DUP2 MSTORE PUSH1 0x20 PUSH1 0x4 DUP3 ADD MSTORE PUSH1 0x2C PUSH1 0x24 DUP3 ADD MSTORE PUSH32 0x46756E6374696F6E206D7573742062652063616C6C6564207468726F75676820 PUSH1 0x44 DUP3 ADD MSTORE PUSH12 0x6163746976652070726F7879 PUSH1 0xA0 SHL PUSH1 0x64 DUP3 ADD MSTORE PUSH1 0x84 SWAP1 REVERT JUMPDEST DUP1 EXTCODESIZE ISZERO PUSH2 0x20CA JUMPI PUSH1 0x0 DUP1 MLOAD PUSH1 0x20 PUSH2 0x2617 DUP4 CODECOPY DUP2 MLOAD SWAP2 MSTORE DUP1 SLOAD PUSH1 0x1 PUSH1 0x1 PUSH1 0xA0 SHL SUB NOT AND PUSH1 0x1 PUSH1 0x1 PUSH1 0xA0 SHL SUB SWAP1 SWAP3 AND SWAP2 SWAP1 SWAP2 OR SWAP1 SSTORE JUMP JUMPDEST PUSH1 0x40 MLOAD PUSH3 0x461BCD PUSH1 0xE5 SHL DUP2 MSTORE PUSH1 0x20 PUSH1 0x4 DUP3 ADD MSTORE PUSH1 0x2D PUSH1 0x24 DUP3 ADD MSTORE PUSH32 0x455243313936373A206E657720696D706C656D656E746174696F6E206973206E PUSH1 0x44 DUP3 ADD MSTORE PUSH13 0x1BDD08184818DBDB9D1C9858DD PUSH1 0x9A SHL PUSH1 0x64 DUP3 ADD MSTORE PUSH1 0x84 SWAP1 REVERT JUMPDEST SWAP2 SWAP3 SWAP1 ISZERO PUSH2 0x2187 JUMPI POP DUP2 MLOAD ISZERO PUSH2 0x2139 JUMPI POP SWAP1 JUMP JUMPDEST EXTCODESIZE ISZERO PUSH2 0x2142 JUMPI SWAP1 JUMP JUMPDEST PUSH1 0x40 MLOAD PUSH3 0x461BCD PUSH1 0xE5 SHL DUP2 MSTORE PUSH1 0x20 PUSH1 0x4 DUP3 ADD MSTORE PUSH1 0x1D PUSH1 0x24 DUP3 ADD MSTORE PUSH32 0x416464726573733A2063616C6C20746F206E6F6E2D636F6E7472616374000000 PUSH1 0x44 DUP3 ADD MSTORE PUSH1 0x64 SWAP1 REVERT JUMPDEST DUP3 MLOAD SWAP1 SWAP2 POP ISZERO PUSH2 0x219A JUMPI POP DUP1 MLOAD SWAP1 PUSH1 0x20 ADD REVERT JUMPDEST PUSH1 0x44 PUSH1 0x40 MLOAD DUP1 SWAP3 PUSH3 0x461BCD PUSH1 0xE5 SHL DUP3 MSTORE PUSH1 0x20 PUSH1 0x4 DUP4 ADD MSTORE PUSH2 0x21CA DUP2 MLOAD DUP1 SWAP3 DUP2 PUSH1 0x24 DUP7 ADD MSTORE PUSH1 0x20 DUP7 DUP7 ADD SWAP2 ADD PUSH2 0x21D8 JUMP JUMPDEST PUSH1 0x1F ADD PUSH1 0x1F NOT AND DUP2 ADD SUB ADD SWAP1 REVERT JUMPDEST PUSH1 0x0 JUMPDEST DUP4 DUP2 LT PUSH2 0x21EB JUMPI POP POP PUSH1 0x0 SWAP2 ADD MSTORE JUMP JUMPDEST DUP2 DUP2 ADD MLOAD DUP4 DUP3 ADD MSTORE PUSH1 0x20 ADD PUSH2 0x21DB JUMP JUMPDEST ISZERO PUSH2 0x2202 JUMPI JUMP JUMPDEST PUSH1 0x40 MLOAD PUSH3 0x461BCD PUSH1 0xE5 SHL DUP2 MSTORE PUSH1 0x20 PUSH1 0x4 DUP3 ADD MSTORE PUSH1 0x2B PUSH1 0x24 DUP3 ADD MSTORE PUSH32 0x496E697469616C697A61626C653A20636F6E7472616374206973206E6F742069 PUSH1 0x44 DUP3 ADD MSTORE PUSH11 0x6E697469616C697A696E67 PUSH1 0xA8 SHL PUSH1 0x64 DUP3 ADD MSTORE PUSH1 0x84 SWAP1 REVERT JUMPDEST ISZERO PUSH2 0x2262 JUMPI JUMP JUMPDEST PUSH1 0x40 MLOAD PUSH3 0x461BCD PUSH1 0xE5 SHL DUP2 MSTORE PUSH1 0x20 PUSH1 0x4 DUP3 ADD MSTORE PUSH1 0x1D PUSH1 0x24 DUP3 ADD MSTORE PUSH32 0x576569676874206D7573742062652067726561746572207468616E2030000000 PUSH1 0x44 DUP3 ADD MSTORE PUSH1 0x64 SWAP1 REVERT JUMPDEST PUSH1 0x0 NOT DUP2 EQ PUSH2 0x22B6 JUMPI PUSH1 0x1 ADD SWAP1 JUMP JUMPDEST PUSH4 0x4E487B71 PUSH1 0xE0 SHL PUSH1 0x0 MSTORE PUSH1 0x11 PUSH1 0x4 MSTORE PUSH1 0x24 PUSH1 0x0 REVERT JUMPDEST ISZERO PUSH2 0x22D3 JUMPI JUMP JUMPDEST PUSH1 0x40 MLOAD PUSH3 0x461BCD PUSH1 0xE5 SHL DUP2 MSTORE PUSH1 0x20 PUSH1 0x4 DUP3 ADD MSTORE PUSH1 0xC PUSH1 0x24 DUP3 ADD MSTORE PUSH12 0x155B985D5D1A1BDC9A5E9959 PUSH1 0xA2 SHL PUSH1 0x44 DUP3 ADD MSTORE PUSH1 0x64 SWAP1 REVERT JUMPDEST ISZERO PUSH2 0x230E JUMPI JUMP JUMPDEST PUSH1 0x40 MLOAD PUSH3 0x461BCD PUSH1 0xE5 SHL DUP2 MSTORE PUSH1 0x20 PUSH1 0x4 DUP3 ADD MSTORE PUSH1 0x1A PUSH1 0x24 DUP3 ADD MSTORE PUSH32 0x496E76616C696420617374726F6C6F6765722061646472657373000000000000 PUSH1 0x44 DUP3 ADD MSTORE PUSH1 0x64 SWAP1 REVERT JUMPDEST DUP2 ISZERO PUSH2 0x235D JUMPI DIV SWAP1 JUMP JUMPDEST PUSH4 0x4E487B71 PUSH1 0xE0 SHL PUSH1 0x0 MSTORE PUSH1 0x12 PUSH1 0x4 MSTORE PUSH1 0x24 PUSH1 0x0 REVERT JUMPDEST MLOAD SWAP1 PUSH1 0x1 PUSH1 0x1 PUSH1 0xA0 SHL SUB DUP3 AND DUP3 SUB PUSH2 0x8D3 JUMPI JUMP JUMPDEST DUP2 PUSH1 0x1F DUP3 ADD SLT ISZERO PUSH2 0x8D3 JUMPI DUP1 MLOAD PUSH2 0x239D DUP2 PUSH2 0x1F00 JUMP JUMPDEST SWAP3 PUSH2 0x23AB PUSH1 0x40 MLOAD SWAP5 DUP6 PUSH2 0x1EDE JUMP JUMPDEST DUP2 DUP5 MSTORE PUSH1 0x20 DUP3 DUP5 ADD ADD GT PUSH2 0x8D3 JUMPI PUSH2 0x23C9 SWAP2 PUSH1 0x20 DUP1 DUP6 ADD SWAP2 ADD PUSH2 0x21D8 JUMP JUMPDEST SWAP1 JUMP JUMPDEST PUSH1 0x20 DUP2 DUP4 SUB SLT PUSH2 0x8D3 JUMPI DUP1 MLOAD PUSH8 0xFFFFFFFFFFFFFFFF SWAP2 DUP3 DUP3 GT PUSH2 0x8D3 JUMPI ADD SWAP1 PUSH2 0x140 SWAP3 DUP4 DUP4 DUP3 SUB SLT PUSH2 0x8D3 JUMPI PUSH1 0x40 MLOAD SWAP4 DUP5 ADD DUP5 DUP2 LT DUP4 DUP3 GT OR PUSH2 0x1E7B JUMPI PUSH1 0x40 MSTORE DUP3 MLOAD DUP5 MSTORE PUSH2 0x241C PUSH1 0x20 DUP5 ADD PUSH2 0x2373 JUMP JUMPDEST PUSH1 0x20 DUP6 ADD MSTORE PUSH2 0x242D PUSH1 0x40 DUP5 ADD PUSH2 0x2373 JUMP JUMPDEST PUSH1 0x40 DUP6 ADD MSTORE PUSH2 0x243E PUSH1 0x60 DUP5 ADD PUSH2 0x2373 JUMP JUMPDEST PUSH1 0x60 DUP6 ADD MSTORE PUSH1 0x80 DUP4 ADD MLOAD DUP3 DUP2 GT PUSH2 0x8D3 JUMPI DUP2 PUSH2 0x245B SWAP2 DUP6 ADD PUSH2 0x2387 JUMP JUMPDEST PUSH1 0x80 DUP6 ADD MSTORE PUSH1 0xA0 DUP4 ADD MLOAD SWAP2 DUP3 GT PUSH2 0x8D3 JUMPI PUSH2 0x2477 SWAP2 DUP4 ADD PUSH2 0x2387 JUMP JUMPDEST PUSH1 0xA0 DUP4 ADD MSTORE PUSH1 0xC0 DUP2 ADD MLOAD PUSH1 0xC0 DUP4 ADD MSTORE PUSH1 0xE0 DUP2 ADD MLOAD PUSH1 0xE0 DUP4 ADD MSTORE PUSH2 0x100 DUP1 DUP3 ADD MLOAD SWAP1 DUP2 ISZERO ISZERO DUP3 SUB PUSH2 0x8D3 JUMPI DUP4 ADD MSTORE PUSH2 0x120 DUP1 SWAP2 ADD MLOAD SWAP1 DUP3 ADD MSTORE SWAP1 JUMP JUMPDEST SWAP2 SWAP1 DUP3 ADD DUP1 SWAP3 GT PUSH2 0x22B6 JUMPI JUMP JUMPDEST PUSH1 0x64 DUP2 LT ISZERO PUSH2 0x24FE JUMPI DUP1 ISZERO PUSH2 0x24F7 JUMPI PUSH1 0xD6 SLOAD PUSH1 0xD7 SLOAD SWAP1 DUP2 DUP2 SUB SWAP1 DUP2 GT PUSH2 0x22B6 JUMPI DUP1 DUP4 MUL SWAP3 DUP4 DIV SUB PUSH2 0x22B6 JUMPI PUSH1 0x64 PUSH2 0x23C9 SWAP3 DIV SWAP1 PUSH2 0x24B2 JUMP JUMPDEST POP PUSH1 0xD7 SLOAD SWAP1 JUMP JUMPDEST POP PUSH1 0xD6 SLOAD SWAP1 JUMP JUMPDEST PUSH1 0x5F DUP2 LT ISZERO PUSH2 0x254D JUMPI PUSH1 0x5A DUP2 LT ISZERO PUSH2 0x2547 JUMPI PUSH1 0x55 DUP2 LT ISZERO PUSH2 0x2541 JUMPI PUSH1 0x50 DUP2 LT ISZERO PUSH2 0x253B JUMPI PUSH1 0x4B GT ISZERO PUSH2 0x2536 JUMPI PUSH1 0x0 SWAP1 JUMP JUMPDEST PUSH1 0x1 SWAP1 JUMP JUMPDEST POP PUSH1 0x2 SWAP1 JUMP JUMPDEST POP PUSH1 0x3 SWAP1 JUMP JUMPDEST POP PUSH1 0x4 SWAP1 JUMP JUMPDEST POP PUSH1 0x5 SWAP1 JUMP JUMPDEST PUSH8 0xFFFFFFFFFFFFFFFF DUP2 GT PUSH2 0x1E7B JUMPI PUSH1 0x5 SHL PUSH1 0x20 ADD SWAP1 JUMP JUMPDEST PUSH1 0x1 DUP1 SWAP2 PUSH1 0xD2 SLOAD SWAP3 JUMPDEST DUP4 DUP2 GT ISZERO PUSH2 0x2585 JUMPI POP POP POP POP PUSH1 0x0 SWAP1 JUMP JUMPDEST PUSH1 0x0 DUP2 DUP2 MSTORE PUSH1 0xCC PUSH1 0x20 MSTORE PUSH1 0x40 DUP1 DUP3 KECCAK256 SLOAD PUSH1 0x1 PUSH1 0x1 PUSH1 0xA0 SHL SUB DUP6 DUP2 AND SWAP2 AND EQ SWAP2 DUP3 PUSH2 0x25C5 JUMPI JUMPDEST POP POP PUSH2 0x25BE JUMPI PUSH2 0x25B9 SWAP1 PUSH2 0x22A7 JUMP JUMPDEST PUSH2 0x2574 JUMP JUMPDEST POP POP SWAP1 POP SWAP1 JUMP JUMPDEST PUSH1 0xFF SWAP3 POP KECCAK256 SLOAD PUSH1 0xA0 SHR AND CODESIZE DUP1 PUSH2 0x25AA JUMP JUMPDEST ISZERO PUSH2 0x25DD JUMPI JUMP JUMPDEST PUSH1 0x40 MLOAD PUSH3 0x461BCD PUSH1 0xE5 SHL DUP2 MSTORE PUSH1 0x20 PUSH1 0x4 DUP3 ADD MSTORE PUSH1 0x11 PUSH1 0x24 DUP3 ADD MSTORE PUSH17 0x125B9D985B1A59081B5BD91D5B19481251 PUSH1 0x7A SHL PUSH1 0x44 DUP3 ADD MSTORE PUSH1 0x64 SWAP1 REVERT INVALID CALLDATASIZE ADDMOD SWAP5 LOG1 EXTCODESIZE LOG1 LOG3 0x21 MOD PUSH8 0xC828492DB98DCA3E KECCAK256 PUSH23 0xCC3735A920A3CA505D382BBCA2646970667358221220AD 0x1E 0xCB EXP 0x5D 0xDA 0x29 0x5C PUSH1 0xE9 0xB9 SWAP8 0xC4 CODECOPY CREATE2 DUP4 PUSH9 0x63B2EEB6D4A970F6D1 PUSH23 0xC57F8F4CBE64736F6C6343000811003300000000000000 "},"gasEstimates":{"creation":{"codeDepositCost":"1967200","executionCost":"infinite","totalCost":"infinite"},"external":{"addPredictionModule(address,uint256)":"121712","astroTokenLauncher()":"2950","astrologerManager()":"2708","buyTokenContract()":"2356","getReputationMultiplier(address)":"3155","getReputationMultiplierRange()":"4516","getReputationScore(address)":"infinite","getReputationTier(address)":"2825","getScoreBreakdown(address)":"infinite","getTopAstrologers(uint256)":"infinite","initialize(address,address,address,uint256,uint256)":"infinite","maxReputationMultiplier()":"2420","minPredictionsForScore()":"2464","minReputationMultiplier()":"2618","owner()":"2818","predictionModules(uint256)":"6687","proxiableUUID()":"infinite","renounceOwnership()":"28514","reputationDecayRate()":"2816","reputationScores(address)":"24577","scoreBreakdowns(address)":"11698","scoreUpdateDelay()":"3124","setAstroTokenLauncher(address)":"27421","setAstrologerManager(address)":"26805","setBuyTokenContract(address)":"27377","setMinPredictionsForScore(uint256)":"25008","setReputationDecayRate(uint256)":"24634","setReputationMultipliers(uint256,uint256)":"46958","setScoreUpdateDelay(uint256)":"25228","setWorldPredictionMarket(address)":"26651","setZodiacDAO(address)":"27003","togglePredictionModule(uint256)":"29344","totalModules()":"2750","transferOwnership(address)":"29062","updateModuleWeight(uint256,uint256)":"27338","updateReputationFromWorldPrediction(address,bool)":"infinite","updateReputationScore(address,uint256,uint256,uint256,uint256,uint256,uint256)":"infinite","upgradeTo(address)":"infinite","upgradeToAndCall(address,bytes)":"infinite","worldPredictionMarket()":"2279","zodiacDAO()":"2972"},"internal":{"_authorizeUpgrade(address)":"infinite","calculateReputationMultiplier(uint256)":"4423","calculateReputationTier(uint256)":"138","isPredictionModule(address)":"infinite"}},"methodIdentifiers":{"addPredictionModule(address,uint256)":"51131876","astroTokenLauncher()":"ab3dcd6a","astrologerManager()":"6fd31a41","buyTokenContract()":"16d54f09","getReputationMultiplier(address)":"b107e88c","getReputationMultiplierRange()":"3d9617be","getReputationScore(address)":"75a67d5c","getReputationTier(address)":"6be2cefb","getScoreBreakdown(address)":"2c27750a","getTopAstrologers(uint256)":"5245420d","initialize(address,address,address,uint256,uint256)":"a6b63eb8","maxReputationMultiplier()":"430cd57a","minPredictionsForScore()":"450f1442","minReputationMultiplier()":"5df4d161","owner()":"8da5cb5b","predictionModules(uint256)":"10d4f374","proxiableUUID()":"52d1902d","renounceOwnership()":"715018a6","reputationDecayRate()":"960e6f88","reputationScores(address)":"fe0438b2","scoreBreakdowns(address)":"dc0a40bd","scoreUpdateDelay()":"f92eadf6","setAstroTokenLauncher(address)":"e2c3538c","setAstrologerManager(address)":"44cda485","setBuyTokenContract(address)":"c3a274c2","setMinPredictionsForScore(uint256)":"9f68871d","setReputationDecayRate(uint256)":"4cba103e","setReputationMultipliers(uint256,uint256)":"58bd9b93","setScoreUpdateDelay(uint256)":"e6f95583","setWorldPredictionMarket(address)":"106bdcf5","setZodiacDAO(address)":"65af67bd","togglePredictionModule(uint256)":"893849de","totalModules()":"78bbd701","transferOwnership(address)":"f2fde38b","updateModuleWeight(uint256,uint256)":"9754cfd1","updateReputationFromWorldPrediction(address,bool)":"9f7c4688","updateReputationScore(address,uint256,uint256,uint256,uint256,uint256,uint256)":"adcbcde5","upgradeTo(address)":"3659cfe6","upgradeToAndCall(address,bytes)":"4f1ef286","worldPredictionMarket()":"02bc7f4a","zodiacDAO()":"ab76c9ed"}},"storageLayout":{"storage":[{"astId":503,"contract":"contracts/ReputationScorer.sol:ReputationScorer","label":"_initialized","offset":0,"slot":"0","type":"t_uint8"},{"astId":506,"contract":"contracts/ReputationScorer.sol:ReputationScorer","label":"_initializing","offset":1,"slot":"0","type":"t_bool"},{"astId":1172,"contract":"contracts/ReputationScorer.sol:ReputationScorer","label":"__gap","offset":0,"slot":"1","type":"t_array(t_uint256)50_storage"},{"astId":10,"contract":"contracts/ReputationScorer.sol:ReputationScorer","label":"_owner","offset":0,"slot":"51","type":"t_address"},{"astId":130,"contract":"contracts/ReputationScorer.sol:ReputationScorer","label":"__gap","offset":0,"slot":"52","type":"t_array(t_uint256)49_storage"},{"astId":485,"contract":"contracts/ReputationScorer.sol:ReputationScorer","label":"__gap","offset":0,"slot":"101","type":"t_array(t_uint256)50_storage"},{"astId":800,"contract":"contracts/ReputationScorer.sol:ReputationScorer","label":"__gap","offset":0,"slot":"151","type":"t_array(t_uint256)50_storage"},{"astId":1379,"contract":"contracts/ReputationScorer.sol:ReputationScorer","label":"_scoreIds","offset":0,"slot":"201","type":"t_struct(Counter)1179_storage"},{"astId":1427,"contract":"contracts/ReputationScorer.sol:ReputationScorer","label":"reputationScores","offset":0,"slot":"202","type":"t_mapping(t_address,t_struct(ReputationScore)1402_storage)"},{"astId":1432,"contract":"contracts/ReputationScorer.sol:ReputationScorer","label":"scoreBreakdowns","offset":0,"slot":"203","type":"t_mapping(t_address,t_struct(ScoreBreakdown)1413_storage)"},{"astId":1437,"contract":"contracts/ReputationScorer.sol:ReputationScorer","label":"predictionModules","offset":0,"slot":"204","type":"t_mapping(t_uint256,t_struct(PredictionModule)1422_storage)"},{"astId":1439,"contract":"contracts/ReputationScorer.sol:ReputationScorer","label":"astrologerManager","offset":0,"slot":"205","type":"t_address"},{"astId":1441,"contract":"contracts/ReputationScorer.sol:ReputationScorer","label":"buyTokenContract","offset":0,"slot":"206","type":"t_address"},{"astId":1443,"contract":"contracts/ReputationScorer.sol:ReputationScorer","label":"zodiacDAO","offset":0,"slot":"207","type":"t_address"},{"astId":1445,"contract":"contracts/ReputationScorer.sol:ReputationScorer","label":"astroTokenLauncher","offset":0,"slot":"208","type":"t_address"},{"astId":1447,"contract":"contracts/ReputationScorer.sol:ReputationScorer","label":"worldPredictionMarket","offset":0,"slot":"209","type":"t_address"},{"astId":1449,"contract":"contracts/ReputationScorer.sol:ReputationScorer","label":"totalModules","offset":0,"slot":"210","type":"t_uint256"},{"astId":1451,"contract":"contracts/ReputationScorer.sol:ReputationScorer","label":"minPredictionsForScore","offset":0,"slot":"211","type":"t_uint256"},{"astId":1453,"contract":"contracts/ReputationScorer.sol:ReputationScorer","label":"scoreUpdateDelay","offset":0,"slot":"212","type":"t_uint256"},{"astId":1455,"contract":"contracts/ReputationScorer.sol:ReputationScorer","label":"reputationDecayRate","offset":0,"slot":"213","type":"t_uint256"},{"astId":1457,"contract":"contracts/ReputationScorer.sol:ReputationScorer","label":"maxReputationMultiplier","offset":0,"slot":"214","type":"t_uint256"},{"astId":1459,"contract":"contracts/ReputationScorer.sol:ReputationScorer","label":"minReputationMultiplier","offset":0,"slot":"215","type":"t_uint256"}],"types":{"t_address":{"encoding":"inplace","label":"address","numberOfBytes":"20"},"t_array(t_uint256)49_storage":{"base":"t_uint256","encoding":"inplace","label":"uint256[49]","numberOfBytes":"1568"},"t_array(t_uint256)50_storage":{"base":"t_uint256","encoding":"inplace","label":"uint256[50]","numberOfBytes":"1600"},"t_bool":{"encoding":"inplace","label":"bool","numberOfBytes":"1"},"t_mapping(t_address,t_struct(ReputationScore)1402_storage)":{"encoding":"mapping","key":"t_address","label":"mapping(address => struct ReputationScorer.ReputationScore)","numberOfBytes":"32","value":"t_struct(ReputationScore)1402_storage"},"t_mapping(t_address,t_struct(ScoreBreakdown)1413_storage)":{"encoding":"mapping","key":"t_address","label":"mapping(address => struct ReputationScorer.ScoreBreakdown)","numberOfBytes":"32","value":"t_struct(ScoreBreakdown)1413_storage"},"t_mapping(t_uint256,t_struct(PredictionModule)1422_storage)":{"encoding":"mapping","key":"t_uint256","label":"mapping(uint256 => struct ReputationScorer.PredictionModule)","numberOfBytes":"32","value":"t_struct(PredictionModule)1422_storage"},"t_struct(Counter)1179_storage":{"encoding":"inplace","label":"struct CountersUpgradeable.Counter","members":[{"astId":1178,"contract":"contracts/ReputationScorer.sol:ReputationScorer","label":"_value","offset":0,"slot":"0","type":"t_uint256"}],"numberOfBytes":"32"},"t_struct(PredictionModule)1422_storage":{"encoding":"inplace","label":"struct ReputationScorer.PredictionModule","members":[{"astId":1415,"contract":"contracts/ReputationScorer.sol:ReputationScorer","label":"contractAddress","offset":0,"slot":"0","type":"t_address"},{"astId":1417,"contract":"contracts/ReputationScorer.sol:ReputationScorer","label":"isActive","offset":20,"slot":"0","type":"t_bool"},{"astId":1419,"contract":"contracts/ReputationScorer.sol:ReputationScorer","label":"weight","offset":0,"slot":"1","type":"t_uint256"},{"astId":1421,"contract":"contracts/ReputationScorer.sol:ReputationScorer","label":"lastUpdate","offset":0,"slot":"2","type":"t_uint256"}],"numberOfBytes":"96"},"t_struct(ReputationScore)1402_storage":{"encoding":"inplace","label":"struct ReputationScorer.ReputationScore","members":[{"astId":1381,"contract":"contracts/ReputationScorer.sol:ReputationScorer","label":"id","offset":0,"slot":"0","type":"t_uint256"},{"astId":1383,"contract":"contracts/ReputationScorer.sol:ReputationScorer","label":"astrologer","offset":0,"slot":"1","type":"t_address"},{"astId":1385,"contract":"contracts/ReputationScorer.sol:ReputationScorer","label":"totalPredictions","offset":0,"slot":"2","type":"t_uint256"},{"astId":1387,"contract":"contracts/ReputationScorer.sol:ReputationScorer","label":"accuratePredictions","offset":0,"slot":"3","type":"t_uint256"},{"astId":1389,"contract":"contracts/ReputationScorer.sol:ReputationScorer","label":"accuracyPercentage","offset":0,"slot":"4","type":"t_uint256"},{"astId":1391,"contract":"contracts/ReputationScorer.sol:ReputationScorer","label":"reputationMultiplier","offset":0,"slot":"5","type":"t_uint256"},{"astId":1393,"contract":"contracts/ReputationScorer.sol:ReputationScorer","label":"marketPredictions","offset":0,"slot":"6","type":"t_uint256"},{"astId":1395,"contract":"contracts/ReputationScorer.sol:ReputationScorer","label":"dailyPredictions","offset":0,"slot":"7","type":"t_uint256"},{"astId":1397,"contract":"contracts/ReputationScorer.sol:ReputationScorer","label":"oneToOnePredictions","offset":0,"slot":"8","type":"t_uint256"},{"astId":1399,"contract":"contracts/ReputationScorer.sol:ReputationScorer","label":"lastUpdated","offset":0,"slot":"9","type":"t_uint256"},{"astId":1401,"contract":"contracts/ReputationScorer.sol:ReputationScorer","label":"isActive","offset":0,"slot":"10","type":"t_bool"}],"numberOfBytes":"352"},"t_struct(ScoreBreakdown)1413_storage":{"encoding":"inplace","label":"struct ReputationScorer.ScoreBreakdown","members":[{"astId":1404,"contract":"contracts/ReputationScorer.sol:ReputationScorer","label":"marketAccuracy","offset":0,"slot":"0","type":"t_uint256"},{"astId":1406,"contract":"contracts/ReputationScorer.sol:ReputationScorer","label":"dailyAccuracy","offset":0,"slot":"1","type":"t_uint256"},{"astId":1408,"contract":"contracts/ReputationScorer.sol:ReputationScorer","label":"oneToOneAccuracy","offset":0,"slot":"2","type":"t_uint256"},{"astId":1410,"contract":"contracts/ReputationScorer.sol:ReputationScorer","label":"weightedScore","offset":0,"slot":"3","type":"t_uint256"},{"astId":1412,"contract":"contracts/ReputationScorer.sol:ReputationScorer","label":"reputationTier","offset":0,"slot":"4","type":"t_uint256"}],"numberOfBytes":"160"},"t_uint256":{"encoding":"inplace","label":"uint256","numberOfBytes":"32"},"t_uint8":{"encoding":"inplace","label":"uint8","numberOfBytes":"1"}}},"userdoc":{"kind":"user","methods":{},"version":1}}}}