{"contracts/WorldPredictionMarket.sol":{"WorldPredictionMarket":{"abi":[{"inputs":[],"stateMutability":"nonpayable","type":"constructor"},{"anonymous":false,"inputs":[{"indexed":false,"internalType":"address","name":"previousAdmin","type":"address"},{"indexed":false,"internalType":"address","name":"newAdmin","type":"address"}],"name":"AdminChanged","type":"event"},{"anonymous":false,"inputs":[{"indexed":true,"internalType":"address","name":"beacon","type":"address"}],"name":"BeaconUpgraded","type":"event"},{"anonymous":false,"inputs":[{"indexed":true,"internalType":"uint256","name":"predictionId","type":"uint256"},{"indexed":true,"internalType":"address","name":"daoMember","type":"address"},{"indexed":false,"internalType":"bool","name":"vote","type":"bool"},{"indexed":false,"internalType":"uint256","name":"tokenId","type":"uint256"}],"name":"DAOVoteCast","type":"event"},{"anonymous":false,"inputs":[{"indexed":true,"internalType":"uint256","name":"predictionId","type":"uint256"},{"indexed":false,"internalType":"uint256","name":"endTime","type":"uint256"}],"name":"DAOVotingStarted","type":"event"},{"anonymous":false,"inputs":[{"indexed":false,"internalType":"uint8","name":"version","type":"uint8"}],"name":"Initialized","type":"event"},{"anonymous":false,"inputs":[{"indexed":true,"internalType":"address","name":"previousOwner","type":"address"},{"indexed":true,"internalType":"address","name":"newOwner","type":"address"}],"name":"OwnershipTransferred","type":"event"},{"anonymous":false,"inputs":[{"indexed":true,"internalType":"uint256","name":"predictionId","type":"uint256"},{"indexed":true,"internalType":"address","name":"astrologer","type":"address"},{"indexed":false,"internalType":"string","name":"title","type":"string"},{"indexed":false,"internalType":"uint256","name":"deadline","type":"uint256"},{"indexed":false,"internalType":"uint256","name":"astrologerStake","type":"uint256"}],"name":"PredictionCreated","type":"event"},{"anonymous":false,"inputs":[{"indexed":true,"internalType":"uint256","name":"predictionId","type":"uint256"},{"indexed":false,"internalType":"bool","name":"outcome","type":"bool"},{"indexed":false,"internalType":"uint256","name":"totalStake","type":"uint256"},{"indexed":false,"internalType":"uint256","name":"astrologerReward","type":"uint256"}],"name":"PredictionResolved","type":"event"},{"anonymous":false,"inputs":[{"indexed":true,"internalType":"uint256","name":"predictionId","type":"uint256"},{"indexed":true,"internalType":"address","name":"claimer","type":"address"},{"indexed":false,"internalType":"uint256","name":"rewardAmount","type":"uint256"}],"name":"RewardClaimed","type":"event"},{"anonymous":false,"inputs":[{"indexed":true,"internalType":"address","name":"implementation","type":"address"}],"name":"Upgraded","type":"event"},{"anonymous":false,"inputs":[{"indexed":true,"internalType":"uint256","name":"predictionId","type":"uint256"},{"indexed":true,"internalType":"address","name":"voter","type":"address"},{"indexed":false,"internalType":"bool","name":"vote","type":"bool"},{"indexed":false,"internalType":"uint256","name":"stakeAmount","type":"uint256"}],"name":"VoteCast","type":"event"},{"inputs":[],"name":"astroChartNFT","outputs":[{"internalType":"address","name":"","type":"address"}],"stateMutability":"view","type":"function"},{"inputs":[],"name":"astrologerManager","outputs":[{"internalType":"address","name":"","type":"address"}],"stateMutability":"view","type":"function"},{"inputs":[{"internalType":"address","name":"","type":"address"},{"internalType":"uint256","name":"","type":"uint256"}],"name":"astrologerPredictions","outputs":[{"internalType":"uint256","name":"","type":"uint256"}],"stateMutability":"view","type":"function"},{"inputs":[],"name":"astrologerRewardPercentage","outputs":[{"internalType":"uint256","name":"","type":"uint256"}],"stateMutability":"view","type":"function"},{"inputs":[{"internalType":"uint256","name":"_predictionId","type":"uint256"},{"internalType":"address","name":"_voter","type":"address"}],"name":"calculateVoterReward","outputs":[{"internalType":"uint256","name":"","type":"uint256"}],"stateMutability":"view","type":"function"},{"inputs":[{"internalType":"uint256","name":"_predictionId","type":"uint256"},{"internalType":"bool","name":"_outcome","type":"bool"},{"internalType":"uint256","name":"_tokenId","type":"uint256"}],"name":"castDAOVote","outputs":[],"stateMutability":"nonpayable","type":"function"},{"inputs":[{"internalType":"uint256","name":"_predictionId","type":"uint256"}],"name":"claimReward","outputs":[],"stateMutability":"nonpayable","type":"function"},{"inputs":[{"internalType":"string","name":"_title","type":"string"},{"internalType":"string","name":"_description","type":"string"},{"internalType":"uint256","name":"_deadline","type":"uint256"}],"name":"createPrediction","outputs":[{"internalType":"uint256","name":"","type":"uint256"}],"stateMutability":"payable","type":"function"},{"inputs":[{"internalType":"uint256","name":"","type":"uint256"}],"name":"daoNoVotes","outputs":[{"internalType":"uint256","name":"","type":"uint256"}],"stateMutability":"view","type":"function"},{"inputs":[{"internalType":"uint256","name":"","type":"uint256"},{"internalType":"address","name":"","type":"address"}],"name":"daoVotes","outputs":[{"internalType":"bool","name":"hasVoted","type":"bool"},{"internalType":"bool","name":"vote","type":"bool"},{"internalType":"uint256","name":"tokenId","type":"uint256"}],"stateMutability":"view","type":"function"},{"inputs":[],"name":"daoVotingDuration","outputs":[{"internalType":"uint256","name":"","type":"uint256"}],"stateMutability":"view","type":"function"},{"inputs":[{"internalType":"uint256","name":"","type":"uint256"}],"name":"daoYesVotes","outputs":[{"internalType":"uint256","name":"","type":"uint256"}],"stateMutability":"view","type":"function"},{"inputs":[],"name":"getActivePredictions","outputs":[{"internalType":"uint256[]","name":"","type":"uint256[]"}],"stateMutability":"view","type":"function"},{"inputs":[{"internalType":"address","name":"_astrologer","type":"address"}],"name":"getAstrologerPredictions","outputs":[{"internalType":"uint256[]","name":"","type":"uint256[]"}],"stateMutability":"view","type":"function"},{"inputs":[{"internalType":"uint256","name":"_predictionId","type":"uint256"},{"internalType":"address","name":"_voter","type":"address"}],"name":"getDAOVote","outputs":[{"components":[{"internalType":"bool","name":"hasVoted","type":"bool"},{"internalType":"bool","name":"vote","type":"bool"},{"internalType":"uint256","name":"tokenId","type":"uint256"}],"internalType":"struct WorldPredictionMarket.DAOVote","name":"","type":"tuple"}],"stateMutability":"view","type":"function"},{"inputs":[{"internalType":"uint256","name":"_predictionId","type":"uint256"}],"name":"getDAOVoteCounts","outputs":[{"internalType":"uint256","name":"yesVotes","type":"uint256"},{"internalType":"uint256","name":"noVotes","type":"uint256"}],"stateMutability":"view","type":"function"},{"inputs":[{"internalType":"uint256","name":"_predictionId","type":"uint256"}],"name":"getPrediction","outputs":[{"components":[{"internalType":"uint256","name":"id","type":"uint256"},{"internalType":"address","name":"astrologer","type":"address"},{"internalType":"uint256","name":"astrologerId","type":"uint256"},{"internalType":"string","name":"title","type":"string"},{"internalType":"string","name":"description","type":"string"},{"internalType":"uint256","name":"deadline","type":"uint256"},{"internalType":"uint256","name":"astrologerStake","type":"uint256"},{"internalType":"uint256","name":"totalVoterStake","type":"uint256"},{"internalType":"uint256","name":"yesVoterStake","type":"uint256"},{"internalType":"uint256","name":"noVoterStake","type":"uint256"},{"internalType":"uint256","name":"totalVoters","type":"uint256"},{"internalType":"bool","name":"isResolved","type":"bool"},{"internalType":"bool","name":"outcome","type":"bool"},{"internalType":"bool","name":"daoVotingActive","type":"bool"},{"internalType":"uint256","name":"createdAt","type":"uint256"},{"internalType":"uint256","name":"resolvedAt","type":"uint256"}],"internalType":"struct WorldPredictionMarket.WorldPrediction","name":"","type":"tuple"}],"stateMutability":"view","type":"function"},{"inputs":[{"internalType":"address","name":"_user","type":"address"}],"name":"getUserVotes","outputs":[{"internalType":"uint256[]","name":"","type":"uint256[]"}],"stateMutability":"view","type":"function"},{"inputs":[{"internalType":"uint256","name":"_predictionId","type":"uint256"},{"internalType":"address","name":"_voter","type":"address"}],"name":"getVote","outputs":[{"components":[{"internalType":"bool","name":"hasVoted","type":"bool"},{"internalType":"bool","name":"vote","type":"bool"},{"internalType":"uint256","name":"stakeAmount","type":"uint256"},{"internalType":"bool","name":"rewardClaimed","type":"bool"}],"internalType":"struct WorldPredictionMarket.Vote","name":"","type":"tuple"}],"stateMutability":"view","type":"function"},{"inputs":[{"internalType":"address","name":"_astrologerManager","type":"address"},{"internalType":"address","name":"_astroChartNFT","type":"address"},{"internalType":"address","name":"_zodiacDAO","type":"address"},{"internalType":"address","name":"_reputationScorer","type":"address"},{"internalType":"uint256","name":"_minAstrologerStake","type":"uint256"},{"internalType":"uint256","name":"_minVoterStake","type":"uint256"},{"internalType":"uint256","name":"_maxVoterStake","type":"uint256"}],"name":"initialize","outputs":[],"stateMutability":"nonpayable","type":"function"},{"inputs":[],"name":"maxVoterStake","outputs":[{"internalType":"uint256","name":"","type":"uint256"}],"stateMutability":"view","type":"function"},{"inputs":[],"name":"minAstrologerStake","outputs":[{"internalType":"uint256","name":"","type":"uint256"}],"stateMutability":"view","type":"function"},{"inputs":[],"name":"minVoterStake","outputs":[{"internalType":"uint256","name":"","type":"uint256"}],"stateMutability":"view","type":"function"},{"inputs":[],"name":"owner","outputs":[{"internalType":"address","name":"","type":"address"}],"stateMutability":"view","type":"function"},{"inputs":[],"name":"platformFeePercentage","outputs":[{"internalType":"uint256","name":"","type":"uint256"}],"stateMutability":"view","type":"function"},{"inputs":[],"name":"predictionStats","outputs":[{"internalType":"uint256","name":"totalPredictions","type":"uint256"},{"internalType":"uint256","name":"activePredictions","type":"uint256"},{"internalType":"uint256","name":"resolvedPredictions","type":"uint256"},{"internalType":"uint256","name":"totalVolume","type":"uint256"}],"stateMutability":"view","type":"function"},{"inputs":[{"internalType":"uint256","name":"","type":"uint256"}],"name":"predictions","outputs":[{"internalType":"uint256","name":"id","type":"uint256"},{"internalType":"address","name":"astrologer","type":"address"},{"internalType":"uint256","name":"astrologerId","type":"uint256"},{"internalType":"string","name":"title","type":"string"},{"internalType":"string","name":"description","type":"string"},{"internalType":"uint256","name":"deadline","type":"uint256"},{"internalType":"uint256","name":"astrologerStake","type":"uint256"},{"internalType":"uint256","name":"totalVoterStake","type":"uint256"},{"internalType":"uint256","name":"yesVoterStake","type":"uint256"},{"internalType":"uint256","name":"noVoterStake","type":"uint256"},{"internalType":"uint256","name":"totalVoters","type":"uint256"},{"internalType":"bool","name":"isResolved","type":"bool"},{"internalType":"bool","name":"outcome","type":"bool"},{"internalType":"bool","name":"daoVotingActive","type":"bool"},{"internalType":"uint256","name":"createdAt","type":"uint256"},{"internalType":"uint256","name":"resolvedAt","type":"uint256"}],"stateMutability":"view","type":"function"},{"inputs":[],"name":"proxiableUUID","outputs":[{"internalType":"bytes32","name":"","type":"bytes32"}],"stateMutability":"view","type":"function"},{"inputs":[],"name":"renounceOwnership","outputs":[],"stateMutability":"nonpayable","type":"function"},{"inputs":[],"name":"reputationScorer","outputs":[{"internalType":"address","name":"","type":"address"}],"stateMutability":"view","type":"function"},{"inputs":[{"internalType":"uint256","name":"_predictionId","type":"uint256"}],"name":"resolvePrediction","outputs":[],"stateMutability":"nonpayable","type":"function"},{"inputs":[{"internalType":"address","name":"_astroChartNFT","type":"address"}],"name":"setAstroChartNFT","outputs":[],"stateMutability":"nonpayable","type":"function"},{"inputs":[{"internalType":"address","name":"_astrologerManager","type":"address"}],"name":"setAstrologerManager","outputs":[],"stateMutability":"nonpayable","type":"function"},{"inputs":[{"internalType":"uint256","name":"_duration","type":"uint256"}],"name":"setDAOVotingDuration","outputs":[],"stateMutability":"nonpayable","type":"function"},{"inputs":[{"internalType":"address","name":"_reputationScorer","type":"address"}],"name":"setReputationScorer","outputs":[],"stateMutability":"nonpayable","type":"function"},{"inputs":[{"internalType":"uint256","name":"_astrologerRewardPercentage","type":"uint256"},{"internalType":"uint256","name":"_platformFeePercentage","type":"uint256"}],"name":"setRewardPercentages","outputs":[],"stateMutability":"nonpayable","type":"function"},{"inputs":[{"internalType":"uint256","name":"_minAstrologerStake","type":"uint256"},{"internalType":"uint256","name":"_minVoterStake","type":"uint256"},{"internalType":"uint256","name":"_maxVoterStake","type":"uint256"}],"name":"setStakeLimits","outputs":[],"stateMutability":"nonpayable","type":"function"},{"inputs":[{"internalType":"address","name":"_zodiacDAO","type":"address"}],"name":"setZodiacDAO","outputs":[],"stateMutability":"nonpayable","type":"function"},{"inputs":[{"internalType":"uint256","name":"_predictionId","type":"uint256"}],"name":"startDAOVoting","outputs":[],"stateMutability":"nonpayable","type":"function"},{"inputs":[{"internalType":"address","name":"newOwner","type":"address"}],"name":"transferOwnership","outputs":[],"stateMutability":"nonpayable","type":"function"},{"inputs":[{"internalType":"address","name":"newImplementation","type":"address"}],"name":"upgradeTo","outputs":[],"stateMutability":"nonpayable","type":"function"},{"inputs":[{"internalType":"address","name":"newImplementation","type":"address"},{"internalType":"bytes","name":"data","type":"bytes"}],"name":"upgradeToAndCall","outputs":[],"stateMutability":"payable","type":"function"},{"inputs":[{"internalType":"address","name":"","type":"address"},{"internalType":"uint256","name":"","type":"uint256"}],"name":"userVotes","outputs":[{"internalType":"uint256","name":"","type":"uint256"}],"stateMutability":"view","type":"function"},{"inputs":[{"internalType":"uint256","name":"_predictionId","type":"uint256"},{"internalType":"bool","name":"_vote","type":"bool"}],"name":"voteOnPrediction","outputs":[],"stateMutability":"payable","type":"function"},{"inputs":[{"internalType":"uint256","name":"","type":"uint256"},{"internalType":"address","name":"","type":"address"}],"name":"votes","outputs":[{"internalType":"bool","name":"hasVoted","type":"bool"},{"internalType":"bool","name":"vote","type":"bool"},{"internalType":"uint256","name":"stakeAmount","type":"uint256"},{"internalType":"bool","name":"rewardClaimed","type":"bool"}],"stateMutability":"view","type":"function"},{"inputs":[],"name":"withdraw","outputs":[],"stateMutability":"nonpayable","type":"function"},{"inputs":[],"name":"zodiacDAO","outputs":[{"internalType":"address","name":"","type":"address"}],"stateMutability":"view","type":"function"}],"devdoc":{"kind":"dev","methods":{"castDAOVote(uint256,bool,uint256)":{"params":{"_outcome":"True if prediction was correct, false if incorrect","_predictionId":"The prediction ID","_tokenId":"The DAO token ID for voting"}},"claimReward(uint256)":{"params":{"_predictionId":"The prediction ID"}},"constructor":{"custom:oz-upgrades-unsafe-allow":"constructor"},"createPrediction(string,string,uint256)":{"params":{"_deadline":"The deadline for the prediction","_description":"The detailed description","_title":"The title of the prediction"}},"owner()":{"details":"Returns the address of the current owner."},"proxiableUUID()":{"details":"Implementation of the ERC1822 {proxiableUUID} function. This returns the storage slot used by the implementation. It is used to validate the implementation's compatibility when performing an upgrade. IMPORTANT: A proxy pointing at a proxiable contract should not be considered proxiable itself, because this risks bricking a proxy that upgrades to it, by delegating to itself until out of gas. Thus it is critical that this function revert if invoked through a proxy. This is guaranteed by the `notDelegated` modifier."},"renounceOwnership()":{"details":"Leaves the contract without owner. It will not be possible to call `onlyOwner` functions. Can only be called by the current owner. NOTE: Renouncing ownership will leave the contract without an owner, thereby disabling any functionality that is only available to the owner."},"resolvePrediction(uint256)":{"params":{"_predictionId":"The prediction ID"}},"startDAOVoting(uint256)":{"params":{"_predictionId":"The prediction ID"}},"transferOwnership(address)":{"details":"Transfers ownership of the contract to a new account (`newOwner`). Can only be called by the current owner."},"upgradeTo(address)":{"custom:oz-upgrades-unsafe-allow-reachable":"delegatecall","details":"Upgrade the implementation of the proxy to `newImplementation`. Calls {_authorizeUpgrade}. Emits an {Upgraded} event."},"upgradeToAndCall(address,bytes)":{"custom:oz-upgrades-unsafe-allow-reachable":"delegatecall","details":"Upgrade the implementation of the proxy to `newImplementation`, and subsequently execute the function call encoded in `data`. Calls {_authorizeUpgrade}. Emits an {Upgraded} event."},"voteOnPrediction(uint256,bool)":{"params":{"_predictionId":"The prediction ID","_vote":"True for YES, false for NO"}}},"version":1},"evm":{"bytecode":{"linkReferences":{},"object":"60a08060405234620000e157306080526000549060ff8260081c166200008f575060ff8082160362000053575b6040516133bf9081620000e7823960805181818161216d0152818161226d01526126850152f35b60ff90811916176000557f7f26b83ff96e1f2b6a682f133852f6798a09c465da95921460cefb3847402498602060405160ff8152a1386200002c565b62461bcd60e51b815260206004820152602760248201527f496e697469616c697a61626c653a20636f6e747261637420697320696e697469604482015266616c697a696e6760c81b6064820152608490fd5b600080fdfe6080604052600436101561001257600080fd5b6000803560e01c80624fbbb01461296d5780630e8c47f21461294f578063256c52d31461292557806334954999146129025780633659cfe61461266057806337562b29146126185780633ccfd60b146125c8578063444a50c21461252d57806344cda485146124ed5780634f1ef2861461221e57806352d1902d1461215a578063533a12a5146121305780635aa76be01461210157806363ab68ef146120e357806365af67bd146120a35780636f502056146120175780636fd31a4114611fee578063700c836714611cae578063715018a614611c5157806372f022c214611c3357806373c84d2114611c0a5780637864066814611ba957806384ebaae1146119b2578063886dbdf9146118785780638b3511f7146118225780638da5cb5b146117f9578063950c7822146117865780639dcf0b7a1461174e578063a9d6921b14611689578063ab76c9ed14611660578063ae169a50146114ac578063b488202d14611483578063b6bb17541461144c578063bc3f931f14611390578063bc8581851461130d578063c8ab686a146112de578063cdd78cfc146112c0578063ce083d7314611280578063d23254b41461120e578063d472a57014610b20578063d75ebce514610b02578063e69fe3dc1461074b578063e77fc7a414610576578063e9725c2114610536578063f2fde38b146104a5578063f7333e33146104875763fe83bece1461022157600080fd5b3461048457602036600319011261048457806040916101e0835161024481612b0c565b8281528260208201528285820152606080820152606060808201528260a08201528260c08201528260e08201528261010082015282610120820152826101408201528261016082015282610180820152826101a0820152826101c0820152015260043580151580610478575b6102b9906130a7565b815260ca60205220600d604051916102d083612b0c565b8054835260018101546001600160a01b03166020840152600281015460408401526102fd60038201612b5c565b606084015261030e60048201612b5c565b6080840152600581015460a0840152600681015460c0840152600781015460e084015260088101546101008401526009810154610120840152600a81015461014084015260ff600b8201548181161515610160860152818160081c16151561018086015260101c1615156101a0840152600c8101546101c084015201546101e08201526040518091602082528051602083015260018060a01b036020820151166040830152604081015160608301526101e06103f46103de60608401516102006080870152610220860190612c02565b6080840151858203601f190160a0870152612c02565b9160a081015160c085015260c081015160e085015260e0810151610100850152610100810151610120850152610120810151610140850152610140810151610160850152610160810151151561018085015261018081015115156101a08501526101a081015115156101c08501526101c08101518285015201516102008301520390f35b5060c9548111156102b0565b80fd5b5034610484578060031936011261048457602060d654604051908152f35b5034610484576020366003190112610484576104bf612c42565b6104c7612d56565b6001600160a01b038116156104e2576104df90612dae565b80f35b60405162461bcd60e51b815260206004820152602660248201527f4f776e61626c653a206e6577206f776e657220697320746865207a65726f206160448201526564647265737360d01b6064820152608490fd5b503461048457602036600319011261048457610550612c42565b610558612d56565b60018060a01b03166001600160601b0360a01b60d454161760d45580f35b50346104845760e036600319011261048457610590612c42565b610598612c58565b906001600160a01b0390604435828116919082900361074657606435918383168093036107465785549360ff8560081c161594858096610739575b8015610722575b156106c65760ff1981166001178855856106b5575b5061060960ff885460081c1661060481612fe6565b612fe6565b61061233612dae565b86549561062460ff8860081c16612fe6565b816001600160601b0360a01b94168460d154161760d155168260d254161760d2558160d354161760d35560d454161760d45560843560d55560a43560d65560c43560d755607860d8556101f460d95560c860da55610680575080f35b61ff00191681557f7f26b83ff96e1f2b6a682f133852f6798a09c465da95921460cefb3847402498602060405160018152a180f35b61ffff1916610101178755386105ef565b60405162461bcd60e51b815260206004820152602e60248201527f496e697469616c697a61626c653a20636f6e747261637420697320616c72656160448201526d191e481a5b9a5d1a585b1a5e995960921b6064820152608490fd5b50303b1580156105da5750600160ff8216146105da565b50600160ff8216106105d3565b600080fd5b503461048457602080600319360112610afe576004359081151580610af2575b610774906130a7565b81835260ca815260408320600b810180549061079360ff8316156130eb565b60ff8260101c1615610ab4576107b0600584015460d85490613173565b4210610a6f5784865260cd84526107d4604087205460ce8652604088205490613173565b15610a365784865260cd845260408087205460ce86529087205461ffff199093169210600881901b61ff00169290921760011790559042600d82015560dc548015610a22576000190160dc5561082b60dd54613082565b60dd5583855260ca835260408520908561084e6007840154600685015490613173565b610869612710918261086260da5483613180565b0490613193565b828615610a185750828092610882829360d95490613180565b60019097015496049586906001600160a01b0316828215610a0f575bf115610a04575b6001810154600282015460d45488926001600160a01b0391908216908216806109a1575b505060d154169081151580610998575b61092e575b505050907f1ee447de28c6ff53bc0403bdbc8f4114866f73b12fc451b0605fc923b02b65bf9361091b836006600760609796015491015490613173565b906040519384528301526040820152a280f35b813b15610994578291604483926040519485938492631c8fdeb560e31b845260048401528a60248401525af180156109895761096b575b806108de565b6109789094939294612b28565b6109855790918538610965565b8580fd5b6040513d84823e3d90fd5b8280fd5b508015156108d9565b80949293943b15610994576044839260405194859384926313ef88d160e31b845260048401528b60248401525af180156109f9576109e4575b90818993926108c9565b6109f19098919298612b28565b9690386109da565b6040513d8b823e3d90fd5b6040513d87823e3d90fd5b506108fc61089e565b94505050506108a5565b634e487b7160e01b86526011600452602486fd5b60405162461bcd60e51b8152600481018590526011602482015270139bc8111053c81d9bdd195cc818d85cdd607a1b6044820152606490fd5b60405162461bcd60e51b815260048101859052601b60248201527f44414f20766f74696e6720706572696f64206e6f7420656e64656400000000006044820152606490fd5b60405162461bcd60e51b8152600481018590526016602482015275111053c81d9bdd1a5b99c81b9bdd081cdd185c9d195960521b6044820152606490fd5b5060c95482111561076b565b5080fd5b5034610484578060031936011261048457602060d954604051908152f35b506060366003190112610484576004356001600160401b038111610afe57610b4c903690600401612d38565b6024356001600160401b03811161099457610b6b903690600401612d38565b9060d55434106111c95780511561118c57815115611147574260443511156111025760d1546001600160a01b03169182611054575b6024906020600160c95401948560c9556040519384809263656d0c3960e01b82523360048301525afa918215610a0457859261101c575b5060405191610be583612b0c565b8483523360208401526040830152826060830152608082015260443560a08201523460c08201528360e08201528361010082015283610120820152836101408201528361016082015283610180820152836101a0820152426101c0820152836101e082015282845260ca6020526040842090805182556001820160018060a01b036020830151166001600160601b0360a01b8254161790556040810151600283015560608101518051906001600160401b038211610f43578190610cac6003860154612a86565b601f8111610fcc575b50602090601f8311600114610f62578892610f57575b50508160011b916000199060031b1c19161760038301555b60808101518051906001600160401b038211610f4357610d066004850154612a86565b601f8111610eff575b50918693918693602098508890601f8311600114610e845786938360409694600d946101e094610e0a9b92610e79575b50508160011b916000199060031b1c19161760048501555b60a0810151600585015560c0810151600685015560e0810151600785015561010081015160088501556101208101516009850155610140810151600a850155600b8401610db76101608301511515829060ff801983541691151516179055565b610180820151815461ff00191690151560081b61ff00161781556101a0820151815462ff0000191690151560101b62ff0000161790556101c0810151600c850155015191015533815260cf875220613046565b610e1560db54613082565b60db55610e2360dc54613082565b60dc55817f37f3edf7ed237f91fd6999d49411c7e10b3602f2e561a5adf21934775659c61a610e5d60405193606085526060850190612c02565b92604435868201523460408201528033940390a3604051908152f35b015190503880610d3f565b9060048501875289872091875b601f1985168110610ee5575093600184600d946101e094610e0a9b9860409a98601f19811610610ecc575b505050811b016004850155610d57565b015160001960f88460031b161c19169055388080610ebc565b8183015184558a9750600190930192918b01918b01610e91565b60048501885260208820601f840160051c810160208510610f3c575b601f830160051c82018110610f31575050610d0f565b898155600101610f1b565b5080610f1b565b634e487b7160e01b87526041600452602487fd5b015190503880610ccb565b600386018952602089209250601f198416895b818110610fb45750908460019594939210610f9b575b505050811b016003830155610ce3565b015160001960f88460031b161c19169055388080610f8b565b92936020600181928786015181550195019301610f75565b90915060038501885260208820601f840160051c810160208510611015575b90849392915b601f830160051c82018110611007575050610cb5565b8a8155859450600101610ff1565b5080610feb565b9091506020813d60201161104c575b8161103860209383612b3b565b8101031261104857519038610bd7565b8480fd5b3d915061102b565b604051631853e99560e11b8152336004820152602081602481875afa908115610a045785916110c8575b50610ba05760405162461bcd60e51b815260206004820152601760248201527f417374726f6c6f676572206e6f742076657269666965640000000000000000006044820152606490fd5b90506020813d82116110fa575b816110e260209383612b3b565b8101031261104857518015158103611048573861107e565b3d91506110d5565b60405162461bcd60e51b815260206004820152601e60248201527f446561646c696e65206d75737420626520696e207468652066757475726500006044820152606490fd5b60405162461bcd60e51b815260206004820152601b60248201527f4465736372697074696f6e2063616e6e6f7420626520656d70747900000000006044820152606490fd5b60405162461bcd60e51b81526020600482015260156024820152745469746c652063616e6e6f7420626520656d70747960581b6044820152606490fd5b60405162461bcd60e51b815260206004820152601d60248201527f496e73756666696369656e7420617374726f6c6f676572207374616b650000006044820152606490fd5b503461048457604036600319011261048457604060809161122d612c58565b600435825260cb6020528282209060018060a01b031682526020522080549060ff60026001830154920154169060ff604051938181161515855260081c1615156020840152604083015215156060820152f35b50346104845760203660031901126104845761129a612c42565b6112a2612d56565b60018060a01b03166001600160601b0360a01b60d254161760d25580f35b5034610484578060031936011261048457602060da54604051908152f35b5034610484576060366003190112610484576112f8612d56565b60043560d55560243560d65560443560d75580f35b503461048457602080600319360112610afe576001600160a01b03611330612c42565b16825260cf815260408220916040518092808554928381520194835280832092905b828210611379576113758561136981890382612b3b565b60405191829182612cfd565b0390f35b835486529485019460019384019390910190611352565b50346104845760403660031901126104845760406080916113af612c58565b81606084516113bd81612af1565b82815282602082015282868201520152600435825260cb6020528282209060018060a01b03168252602052206040516113f581612af1565b81549160ff831615159283835260ff602084019160081c1615158152606060ff6002600185015494604087019586520154169301921515835260405193845251151560208401525160408301525115156060820152f35b5034610484578060031936011261048457608060db5460dc5460dd5460de5491604051938452602084015260408301526060820152f35b503461048457806003193601126104845760d2546040516001600160a01b039091168152602090f35b503461048457602080600319360112610afe5760043580151580611654575b6114d4906130a7565b80835260ca825260ff600b604085200154161561160f5780835260cb82526040832033845282526040832060ff815416156115da5760020191825460ff811661159c57849061152333856131a0565b948515918215611531578380f35b60ff1916600117905581908590611592575b8280929181923390f115611587577f24b5efa61dd1cfc659205a97fb8ed868f3cb8c81922bab2b96423e5de1de2cb7906040519384523393a3388080838180808380f35b6040513d85823e3d90fd5b6108fc9150611543565b60405162461bcd60e51b815260048101839052601660248201527514995dd85c9908185b1c9958591e4818db185a5b595960521b6044820152606490fd5b60405162461bcd60e51b815260048101849052600d60248201526c139bc81d9bdd1948199bdd5b99609a1b6044820152606490fd5b60405162461bcd60e51b815260048101839052601760248201527f50726564696374696f6e206e6f74207265736f6c7665640000000000000000006044820152606490fd5b5060c9548111156114cb565b503461048457806003193601126104845760d3546040516001600160a01b039091168152602090f35b503461048457806003193601126104845760dc546116a681613352565b906116b46040519283612b3b565b8082526116c3601f1991613352565b0191602092368484013760c95490928360015b838111156116ec57604051806113758782612cfd565b80825260ca835260ff600b6040842001541615611712575b61170d90613082565b6116d6565b94845181101561173a5761173281878561170d9460051b89010152613082565b959050611704565b634e487b7160e01b82526032600452602482fd5b503461048457602036600319011261048457604090600435815260cd60205281808220549160ce602052205482519182526020820152f35b503461048457602080600319360112610afe576001600160a01b036117a9612c42565b16825260d0815260408220916040518092808554928381520194835280832092905b8282106117e2576113758561136981890382612b3b565b8354865294850194600193840193909101906117cb565b50346104845780600319360112610484576033546040516001600160a01b039091168152602090f35b50346104845760403660031901126104845761183c612c42565b6001600160a01b0316815260d0602052604081208054602435929083101561048457602061186a8484612c6e565b90546040519160031b1c8152f35b503461048457602036600319011261048457600435801515806119a6575b61189f906130a7565b80825260ca60205260408220600b81019060058254916118c260ff8416156130eb565b015442106119615760ff8160101c1661191c57620100009062ff000019161790557fc83104e48f44c8c7b89a4dec1259a93bffcef18013dc1ac5891a260de98a50e5602061191260d85442613173565b604051908152a280f35b60405162461bcd60e51b815260206004820152601960248201527f44414f20766f74696e6720616c726561647920616374697665000000000000006044820152606490fd5b60405162461bcd60e51b815260206004820152601f60248201527f50726564696374696f6e20646561646c696e65206e6f742072656163686564006044820152606490fd5b5060c954811115611896565b5034610484576060366003190112610484576004356119cf612cee565b9060443581151580611b9d575b6119e5906130a7565b818452602060ca815260ff600b604087200154611a04828216156130eb565b60101c1615611b615782855260cc8152604085203386528152611a2e60ff60408720541615613137565b611a37336132c9565b15611b2a577ff34f077f143d412407a903c03d8d2132b5dd9c006763fdf1fc57f5133610e64f91611b0891604051611a6e81612ac0565b6001815260018282018815158152611acb6040840191868352898c5260cc865260408c20338d528652611ab460408d2095511515869060ff801983541691151516179055565b51845461ff00191690151560081b61ff0016178455565b519101558515611b0e5760cd908588525260408620611aea8154613082565b90555b60408051951515865260208601919091523394918291820190565b0390a380f35b60ce908588525260408620611b238154613082565b9055611aed565b6064906040519062461bcd60e51b82526004820152601060248201526f2737ba1030902220a79036b2b6b132b960811b6044820152fd5b6064906040519062461bcd60e51b82526004820152601560248201527444414f20766f74696e67206e6f742061637469766560581b6044820152fd5b5060c9548211156119dc565b5034610484576040366003190112610484576040606091611bc8612c58565b600435825260cc6020528282209060018060a01b03168252602052206001815491015460ff604051928181161515845260081c16151560208301526040820152f35b503461048457806003193601126104845760d4546040516001600160a01b039091168152602090f35b5034610484578060031936011261048457602060d854604051908152f35b5034610484578060031936011261048457611c6a612d56565b603380546001600160a01b0319811690915581906001600160a01b03167f8be0079c531659141344cd1fd0a4f28419497f9722a3daafe3b4186f6b6457e08280a380f35b50604036600319011261048457600435611cc6612cee565b9080151580611fe2575b611cd9906130a7565b60d6543410611f9d5760d7543411611f6057808352602060ca815260408420611d0960ff600b83015416156130eb565b6005810154421015611f255782855260cb8252604085203386528252611d3660ff60408720541615613137565b611d3f336132c9565b15611ee05760068101543410611e8b579060d091611de2604051611d6281612af1565b600181526002888583018915158152611dc66040850191348352611daf604060608801958087528d815260cb8c528181203382528c522096511515879060ff801983541691151516179055565b51855461ff00191690151560081b61ff0016178555565b51600184015551151591019060ff801983541691151516179055565b60078101611df1348254613173565b9055600a8101611e018154613082565b90558415611e7657600801611e17348254613173565b90555b33855252611e2b8160408520613046565b611e373460de54613173565b60de5560408051921515835234602084015233927fcbdf6214089cba887ecbf35a0b6a734589959c9763342c756bb2a80ca2bc9f6e9181908101611b08565b600901611e84348254613173565b9055611e1a565b60405162461bcd60e51b815260048101839052602760248201527f566f746572207374616b65206d757374206265203e3d20617374726f6c6f676560448201526672207374616b6560c81b6064820152608490fd5b60405162461bcd60e51b815260048101839052601f60248201527f4d757374206f776e20417374726f4368617274204e465420746f20766f7465006044820152606490fd5b60405162461bcd60e51b8152600481018390526013602482015272159bdd1a5b99c81c195c9a5bd908195b991959606a1b6044820152606490fd5b60405162461bcd60e51b81526020600482015260156024820152740a6e8c2d6ca40c2dadeeadce840e8dede40d0d2ced605b1b6044820152606490fd5b60405162461bcd60e51b815260206004820152601860248201527f496e73756666696369656e7420766f746572207374616b6500000000000000006044820152606490fd5b5060c954811115611cd0565b503461048457806003193601126104845760d1546040516001600160a01b039091168152602090f35b503461048457604036600319011261048457602435600435612037612d56565b6103e86120448383613173565b116120525760d95560da5580f35b60405162461bcd60e51b815260206004820152602360248201527f546f74616c2070657263656e74616765732063616e6e6f74206578636565642060448201526231302560e81b6064820152608490fd5b5034610484576020366003190112610484576120bd612c42565b6120c5612d56565b60018060a01b03166001600160601b0360a01b60d354161760d35580f35b5034610484578060031936011261048457602060d554604051908152f35b5034610484576040366003190112610484576020612128612120612c58565b6004356131a0565b604051908152f35b5034610484576020366003190112610484576040602091600435815260cd83522054604051908152f35b50346104845780600319360112610484577f00000000000000000000000000000000000000000000000000000000000000006001600160a01b031630036121b357602060405160008051602061336a8339815191528152f35b60405162461bcd60e51b815260206004820152603860248201527f555550535570677261646561626c653a206d757374206e6f742062652063616c60448201527f6c6564207468726f7567682064656c656761746563616c6c00000000000000006064820152608490fd5b50604036600319011261048457612233612c42565b6024356001600160401b038111610994573660238201121561099457612263903690602481600401359101612cb7565b6001600160a01b037f0000000000000000000000000000000000000000000000000000000000000000811692919061229d30851415612df7565b6122ba60008051602061336a833981519152948286541614612e58565b6122c2612d56565b7f4910fdfa16fed3260ed0e7147f7cc6da11a60208b5b9406d12a635614ffd91435460ff16156122f85750506104df9150612eb9565b8216604051936352d1902d60e01b85526020948581600481865afa8791816124ba575b5061237c5760405162461bcd60e51b815260048101879052602e60248201527f45524331393637557067726164653a206e657720696d706c656d656e7461746960448201526d6f6e206973206e6f74205555505360901b6064820152608490fd5b94929394036124635761238e84612eb9565b7fbc7cd75a20ee27fd9adebab32041f755214dbc6bffa90cc0225b39da2e5c2d3b8580a281511580159061245b575b6123c8575b50505080f35b612449928480604051946123db86612ac0565b602786527f416464726573733a206c6f772d6c6576656c2064656c65676174652063616c6c85870152660819985a5b195960ca1b60408701528481519101845af4903d15612452573d61242d81612c9c565b9061243b6040519283612b3b565b81528681943d92013e612f49565b503880806123c2565b60609250612f49565b5060016123bd565b60405162461bcd60e51b815260048101839052602960248201527f45524331393637557067726164653a20756e737570706f727465642070726f786044820152681a58589b195555525160ba1b6064820152608490fd5b9091508681813d83116124e6575b6124d28183612b3b565b810103126124e25751903861231b565b8780fd5b503d6124c8565b503461048457602036600319011261048457612507612c42565b61250f612d56565b60018060a01b03166001600160601b0360a01b60d154161760d15580f35b503461048457604036600319011261048457604060609161254c612c58565b8183805161255981612ac0565b8281528260208201520152600435825260cc6020528282209060018060a01b031682526020522060405161258c81612ac0565b81546040600160ff831615159485855260ff602086019460081c1615158452015492019182526040519283525115156020830152516040820152f35b50346104845780600319360112610484576125e1612d56565b8080808060018060a01b0360335416479082821561260f575bf1156126035780f35b604051903d90823e3d90fd5b506108fc6125fa565b503461048457604036600319011261048457612632612c42565b6001600160a01b0316815260cf602052604081208054602435929083101561048457602061186a8484612c6e565b503461048457602080600319360112610afe5761267b612c42565b6001600160a01b037f000000000000000000000000000000000000000000000000000000000000000081166126b230821415612df7565b6126cf60008051602061336a833981519152918383541614612e58565b6126d7612d56565b60405190848201928284106001600160401b03851117610f43578360405286835260ff7f4910fdfa16fed3260ed0e7147f7cc6da11a60208b5b9406d12a635614ffd9143541660001461273257505050506104df9150612eb9565b8492939416906040516352d1902d60e01b81528681600481865afa8891816128cf575b506127b65760405162461bcd60e51b815260048101889052602e60248201527f45524331393637557067726164653a206e657720696d706c656d656e7461746960448201526d6f6e206973206e6f74205555505360901b6064820152608490fd5b9593949503612878576127c882612eb9565b7fbc7cd75a20ee27fd9adebab32041f755214dbc6bffa90cc0225b39da2e5c2d3b8680a284835115801590612871575b612805575b505050505080f35b80612866956040519561281787612ac0565b602787527f416464726573733a206c6f772d6c6576656c2064656c65676174652063616c6c86880152660819985a5b195960ca1b60408801525190845af4903d15612452573d61242d81612c9c565b5038808080846127fd565b50806127f8565b60405162461bcd60e51b815260048101849052602960248201527f45524331393637557067726164653a20756e737570706f727465642070726f786044820152681a58589b195555525160ba1b6064820152608490fd5b9091508781813d83116128fb575b6128e78183612b3b565b810103126128f757519038612755565b8880fd5b503d6128dd565b50346104845760203660031901126104845761291c612d56565b60043560d85580f35b5034610484576020366003190112610484576040602091600435815260ce83522054604051908152f35b5034610484578060031936011261048457602060d754604051908152f35b503461048457602036600319011261048457600435815260ca602052604090208054600182015460028301546001600160a01b0390911692906129b260038301612b5c565b916129bf60048201612b5c565b9260058201549360068301546007840154600885015490600986015492600a87015494600b88015496600c89015498600d0154996040519d8e809e81526020015260408d01528b6102006060819201528c01612a1a91612c02565b8b810360808d0152612a2b91612c02565b9860a08b015260c08a015260e089015261010088015261012087015261014086015260ff811615156101608601528060081c60ff16151561018086015260101c60ff1615156101a08501526101c08401526101e08301520390f35b90600182811c92168015612ab6575b6020831014612aa057565b634e487b7160e01b600052602260045260246000fd5b91607f1691612a95565b606081019081106001600160401b03821117612adb57604052565b634e487b7160e01b600052604160045260246000fd5b608081019081106001600160401b03821117612adb57604052565b61020081019081106001600160401b03821117612adb57604052565b6001600160401b038111612adb57604052565b90601f801991011681019081106001600160401b03821117612adb57604052565b9060405191826000825492612b7084612a86565b908184526001948581169081600014612bdf5750600114612b9c575b5050612b9a92500383612b3b565b565b9093915060005260209081600020936000915b818310612bc7575050612b9a93508201013880612b8c565b85548884018501529485019487945091830191612baf565b915050612b9a94506020925060ff191682840152151560051b8201013880612b8c565b919082519283825260005b848110612c2e575050826000602080949584010152601f8019910116010190565b602081830181015184830182015201612c0d565b600435906001600160a01b038216820361074657565b602435906001600160a01b038216820361074657565b8054821015612c865760005260206000200190600090565b634e487b7160e01b600052603260045260246000fd5b6001600160401b038111612adb57601f01601f191660200190565b929192612cc382612c9c565b91612cd16040519384612b3b565b829481845281830111610746578281602093846000960137010152565b60243590811515820361074657565b6020908160408183019282815285518094520193019160005b828110612d24575050505090565b835185529381019392810192600101612d16565b9080601f8301121561074657816020612d5393359101612cb7565b90565b6033546001600160a01b03163303612d6a57565b606460405162461bcd60e51b815260206004820152602060248201527f4f776e61626c653a2063616c6c6572206973206e6f7420746865206f776e65726044820152fd5b603380546001600160a01b039283166001600160a01b0319821681179092559091167f8be0079c531659141344cd1fd0a4f28419497f9722a3daafe3b4186f6b6457e0600080a3565b15612dfe57565b60405162461bcd60e51b815260206004820152602c60248201527f46756e6374696f6e206d7573742062652063616c6c6564207468726f7567682060448201526b19195b1959d85d1958d85b1b60a21b6064820152608490fd5b15612e5f57565b60405162461bcd60e51b815260206004820152602c60248201527f46756e6374696f6e206d7573742062652063616c6c6564207468726f7567682060448201526b6163746976652070726f787960a01b6064820152608490fd5b803b15612eee5760008051602061336a83398151915280546001600160a01b0319166001600160a01b03909216919091179055565b60405162461bcd60e51b815260206004820152602d60248201527f455243313936373a206e657720696d706c656d656e746174696f6e206973206e60448201526c1bdd08184818dbdb9d1c9858dd609a1b6064820152608490fd5b91929015612fab5750815115612f5d575090565b3b15612f665790565b60405162461bcd60e51b815260206004820152601d60248201527f416464726573733a2063616c6c20746f206e6f6e2d636f6e74726163740000006044820152606490fd5b825190915015612fbe5750805190602001fd5b60405162461bcd60e51b815260206004820152908190612fe2906024830190612c02565b0390fd5b15612fed57565b60405162461bcd60e51b815260206004820152602b60248201527f496e697469616c697a61626c653a20636f6e7472616374206973206e6f74206960448201526a6e697469616c697a696e6760a81b6064820152608490fd5b805468010000000000000000811015612adb5761306891600182018155612c6e565b819291549060031b600019811b9283911b16911916179055565b60001981146130915760010190565b634e487b7160e01b600052601160045260246000fd5b156130ae57565b60405162461bcd60e51b8152602060048201526015602482015274125b9d985b1a59081c1c99591a58dd1a5bdb881251605a1b6044820152606490fd5b156130f257565b60405162461bcd60e51b815260206004820152601b60248201527f50726564696374696f6e20616c7265616479207265736f6c76656400000000006044820152606490fd5b1561313e57565b60405162461bcd60e51b815260206004820152600d60248201526c105b1c9958591e481d9bdd1959609a1b6044820152606490fd5b9190820180921161309157565b8181029291811591840414171561309157565b9190820391821161309157565b600090815260ca602052604081209160cb602052604082209060018060a01b031682526020526040812091600b8101549060ff82161580156132bd575b80156132af575b6132a85760ff84549260081c169160ff8315159160081c161515036132a85761323c8261321a6007840154600685015490613173565b61322e612710918261086260da5483613180565b908692613291575b50613193565b91156132875760080154905b811590811561325957505050905090565b6001613269929493950154613180565b9161327357500490565b634e487b7160e01b81526012600452602490fd5b6009015490613248565b9091506132a060d95483613180565b049038613236565b5050905090565b5060ff6002850154166131e4565b5060ff845416156131dd565b60d2546001600160a01b039081169190821561334a57602460209260405194859384926370a0823160e01b84521660048301525afa60009181613317575b506133125750600090565b151590565b90916020823d8211613342575b8161333160209383612b3b565b810103126104845750519038613307565b3d9150613324565b505050600190565b6001600160401b038111612adb5760051b6020019056fe360894a13ba1a3210667c828492db98dca3e2076cc3735a920a3ca505d382bbca2646970667358221220d71107118490e872f156994dc33d3bf3a3f4ad2907b297fafdc09cab7acf719c64736f6c63430008110033","opcodes":"PUSH1 0xA0 DUP1 PUSH1 0x40 MSTORE CALLVALUE PUSH3 0xE1 JUMPI ADDRESS PUSH1 0x80 MSTORE PUSH1 0x0 SLOAD SWAP1 PUSH1 0xFF DUP3 PUSH1 0x8 SHR AND PUSH3 0x8F JUMPI POP PUSH1 0xFF DUP1 DUP3 AND SUB PUSH3 0x53 JUMPI JUMPDEST PUSH1 0x40 MLOAD PUSH2 0x33BF SWAP1 DUP2 PUSH3 0xE7 DUP3 CODECOPY PUSH1 0x80 MLOAD DUP2 DUP2 DUP2 PUSH2 0x216D ADD MSTORE DUP2 DUP2 PUSH2 0x226D ADD MSTORE PUSH2 0x2685 ADD MSTORE RETURN JUMPDEST PUSH1 0xFF SWAP1 DUP2 NOT AND OR PUSH1 0x0 SSTORE PUSH32 0x7F26B83FF96E1F2B6A682F133852F6798A09C465DA95921460CEFB3847402498 PUSH1 0x20 PUSH1 0x40 MLOAD PUSH1 0xFF DUP2 MSTORE LOG1 CODESIZE PUSH3 0x2C JUMP JUMPDEST PUSH3 0x461BCD PUSH1 0xE5 SHL DUP2 MSTORE PUSH1 0x20 PUSH1 0x4 DUP3 ADD MSTORE PUSH1 0x27 PUSH1 0x24 DUP3 ADD MSTORE PUSH32 0x496E697469616C697A61626C653A20636F6E747261637420697320696E697469 PUSH1 0x44 DUP3 ADD MSTORE PUSH7 0x616C697A696E67 PUSH1 0xC8 SHL PUSH1 0x64 DUP3 ADD MSTORE PUSH1 0x84 SWAP1 REVERT JUMPDEST PUSH1 0x0 DUP1 REVERT INVALID PUSH1 0x80 PUSH1 0x40 MSTORE PUSH1 0x4 CALLDATASIZE LT ISZERO PUSH2 0x12 JUMPI PUSH1 0x0 DUP1 REVERT JUMPDEST PUSH1 0x0 DUP1 CALLDATALOAD PUSH1 0xE0 SHR DUP1 PUSH3 0x4FBBB0 EQ PUSH2 0x296D JUMPI DUP1 PUSH4 0xE8C47F2 EQ PUSH2 0x294F JUMPI DUP1 PUSH4 0x256C52D3 EQ PUSH2 0x2925 JUMPI DUP1 PUSH4 0x34954999 EQ PUSH2 0x2902 JUMPI DUP1 PUSH4 0x3659CFE6 EQ PUSH2 0x2660 JUMPI DUP1 PUSH4 0x37562B29 EQ PUSH2 0x2618 JUMPI DUP1 PUSH4 0x3CCFD60B EQ PUSH2 0x25C8 JUMPI DUP1 PUSH4 0x444A50C2 EQ PUSH2 0x252D JUMPI DUP1 PUSH4 0x44CDA485 EQ PUSH2 0x24ED JUMPI DUP1 PUSH4 0x4F1EF286 EQ PUSH2 0x221E JUMPI DUP1 PUSH4 0x52D1902D EQ PUSH2 0x215A JUMPI DUP1 PUSH4 0x533A12A5 EQ PUSH2 0x2130 JUMPI DUP1 PUSH4 0x5AA76BE0 EQ PUSH2 0x2101 JUMPI DUP1 PUSH4 0x63AB68EF EQ PUSH2 0x20E3 JUMPI DUP1 PUSH4 0x65AF67BD EQ PUSH2 0x20A3 JUMPI DUP1 PUSH4 0x6F502056 EQ PUSH2 0x2017 JUMPI DUP1 PUSH4 0x6FD31A41 EQ PUSH2 0x1FEE JUMPI DUP1 PUSH4 0x700C8367 EQ PUSH2 0x1CAE JUMPI DUP1 PUSH4 0x715018A6 EQ PUSH2 0x1C51 JUMPI DUP1 PUSH4 0x72F022C2 EQ PUSH2 0x1C33 JUMPI DUP1 PUSH4 0x73C84D21 EQ PUSH2 0x1C0A JUMPI DUP1 PUSH4 0x78640668 EQ PUSH2 0x1BA9 JUMPI DUP1 PUSH4 0x84EBAAE1 EQ PUSH2 0x19B2 JUMPI DUP1 PUSH4 0x886DBDF9 EQ PUSH2 0x1878 JUMPI DUP1 PUSH4 0x8B3511F7 EQ PUSH2 0x1822 JUMPI DUP1 PUSH4 0x8DA5CB5B EQ PUSH2 0x17F9 JUMPI DUP1 PUSH4 0x950C7822 EQ PUSH2 0x1786 JUMPI DUP1 PUSH4 0x9DCF0B7A EQ PUSH2 0x174E JUMPI DUP1 PUSH4 0xA9D6921B EQ PUSH2 0x1689 JUMPI DUP1 PUSH4 0xAB76C9ED EQ PUSH2 0x1660 JUMPI DUP1 PUSH4 0xAE169A50 EQ PUSH2 0x14AC JUMPI DUP1 PUSH4 0xB488202D EQ PUSH2 0x1483 JUMPI DUP1 PUSH4 0xB6BB1754 EQ PUSH2 0x144C JUMPI DUP1 PUSH4 0xBC3F931F EQ PUSH2 0x1390 JUMPI DUP1 PUSH4 0xBC858185 EQ PUSH2 0x130D JUMPI DUP1 PUSH4 0xC8AB686A EQ PUSH2 0x12DE JUMPI DUP1 PUSH4 0xCDD78CFC EQ PUSH2 0x12C0 JUMPI DUP1 PUSH4 0xCE083D73 EQ PUSH2 0x1280 JUMPI DUP1 PUSH4 0xD23254B4 EQ PUSH2 0x120E JUMPI DUP1 PUSH4 0xD472A570 EQ PUSH2 0xB20 JUMPI DUP1 PUSH4 0xD75EBCE5 EQ PUSH2 0xB02 JUMPI DUP1 PUSH4 0xE69FE3DC EQ PUSH2 0x74B JUMPI DUP1 PUSH4 0xE77FC7A4 EQ PUSH2 0x576 JUMPI DUP1 PUSH4 0xE9725C21 EQ PUSH2 0x536 JUMPI DUP1 PUSH4 0xF2FDE38B EQ PUSH2 0x4A5 JUMPI DUP1 PUSH4 0xF7333E33 EQ PUSH2 0x487 JUMPI PUSH4 0xFE83BECE EQ PUSH2 0x221 JUMPI PUSH1 0x0 DUP1 REVERT JUMPDEST CALLVALUE PUSH2 0x484 JUMPI PUSH1 0x20 CALLDATASIZE PUSH1 0x3 NOT ADD SLT PUSH2 0x484 JUMPI DUP1 PUSH1 0x40 SWAP2 PUSH2 0x1E0 DUP4 MLOAD PUSH2 0x244 DUP2 PUSH2 0x2B0C JUMP JUMPDEST DUP3 DUP2 MSTORE DUP3 PUSH1 0x20 DUP3 ADD MSTORE DUP3 DUP6 DUP3 ADD MSTORE PUSH1 0x60 DUP1 DUP3 ADD MSTORE PUSH1 0x60 PUSH1 0x80 DUP3 ADD MSTORE DUP3 PUSH1 0xA0 DUP3 ADD MSTORE DUP3 PUSH1 0xC0 DUP3 ADD MSTORE DUP3 PUSH1 0xE0 DUP3 ADD MSTORE DUP3 PUSH2 0x100 DUP3 ADD MSTORE DUP3 PUSH2 0x120 DUP3 ADD MSTORE DUP3 PUSH2 0x140 DUP3 ADD MSTORE DUP3 PUSH2 0x160 DUP3 ADD MSTORE DUP3 PUSH2 0x180 DUP3 ADD MSTORE DUP3 PUSH2 0x1A0 DUP3 ADD MSTORE DUP3 PUSH2 0x1C0 DUP3 ADD MSTORE ADD MSTORE PUSH1 0x4 CALLDATALOAD DUP1 ISZERO ISZERO DUP1 PUSH2 0x478 JUMPI JUMPDEST PUSH2 0x2B9 SWAP1 PUSH2 0x30A7 JUMP JUMPDEST DUP2 MSTORE PUSH1 0xCA PUSH1 0x20 MSTORE KECCAK256 PUSH1 0xD PUSH1 0x40 MLOAD SWAP2 PUSH2 0x2D0 DUP4 PUSH2 0x2B0C JUMP JUMPDEST DUP1 SLOAD DUP4 MSTORE PUSH1 0x1 DUP2 ADD SLOAD PUSH1 0x1 PUSH1 0x1 PUSH1 0xA0 SHL SUB AND PUSH1 0x20 DUP5 ADD MSTORE PUSH1 0x2 DUP2 ADD SLOAD PUSH1 0x40 DUP5 ADD MSTORE PUSH2 0x2FD PUSH1 0x3 DUP3 ADD PUSH2 0x2B5C JUMP JUMPDEST PUSH1 0x60 DUP5 ADD MSTORE PUSH2 0x30E PUSH1 0x4 DUP3 ADD PUSH2 0x2B5C JUMP JUMPDEST PUSH1 0x80 DUP5 ADD MSTORE PUSH1 0x5 DUP2 ADD SLOAD PUSH1 0xA0 DUP5 ADD MSTORE PUSH1 0x6 DUP2 ADD SLOAD PUSH1 0xC0 DUP5 ADD MSTORE PUSH1 0x7 DUP2 ADD SLOAD PUSH1 0xE0 DUP5 ADD MSTORE PUSH1 0x8 DUP2 ADD SLOAD PUSH2 0x100 DUP5 ADD MSTORE PUSH1 0x9 DUP2 ADD SLOAD PUSH2 0x120 DUP5 ADD MSTORE PUSH1 0xA DUP2 ADD SLOAD PUSH2 0x140 DUP5 ADD MSTORE PUSH1 0xFF PUSH1 0xB DUP3 ADD SLOAD DUP2 DUP2 AND ISZERO ISZERO PUSH2 0x160 DUP7 ADD MSTORE DUP2 DUP2 PUSH1 0x8 SHR AND ISZERO ISZERO PUSH2 0x180 DUP7 ADD MSTORE PUSH1 0x10 SHR AND ISZERO ISZERO PUSH2 0x1A0 DUP5 ADD MSTORE PUSH1 0xC DUP2 ADD SLOAD PUSH2 0x1C0 DUP5 ADD MSTORE ADD SLOAD PUSH2 0x1E0 DUP3 ADD MSTORE PUSH1 0x40 MLOAD DUP1 SWAP2 PUSH1 0x20 DUP3 MSTORE DUP1 MLOAD PUSH1 0x20 DUP4 ADD MSTORE PUSH1 0x1 DUP1 PUSH1 0xA0 SHL SUB PUSH1 0x20 DUP3 ADD MLOAD AND PUSH1 0x40 DUP4 ADD MSTORE PUSH1 0x40 DUP2 ADD MLOAD PUSH1 0x60 DUP4 ADD MSTORE PUSH2 0x1E0 PUSH2 0x3F4 PUSH2 0x3DE PUSH1 0x60 DUP5 ADD MLOAD PUSH2 0x200 PUSH1 0x80 DUP8 ADD MSTORE PUSH2 0x220 DUP7 ADD SWAP1 PUSH2 0x2C02 JUMP JUMPDEST PUSH1 0x80 DUP5 ADD MLOAD DUP6 DUP3 SUB PUSH1 0x1F NOT ADD PUSH1 0xA0 DUP8 ADD MSTORE PUSH2 0x2C02 JUMP JUMPDEST SWAP2 PUSH1 0xA0 DUP2 ADD MLOAD PUSH1 0xC0 DUP6 ADD MSTORE PUSH1 0xC0 DUP2 ADD MLOAD PUSH1 0xE0 DUP6 ADD MSTORE PUSH1 0xE0 DUP2 ADD MLOAD PUSH2 0x100 DUP6 ADD MSTORE PUSH2 0x100 DUP2 ADD MLOAD PUSH2 0x120 DUP6 ADD MSTORE PUSH2 0x120 DUP2 ADD MLOAD PUSH2 0x140 DUP6 ADD MSTORE PUSH2 0x140 DUP2 ADD MLOAD PUSH2 0x160 DUP6 ADD MSTORE PUSH2 0x160 DUP2 ADD MLOAD ISZERO ISZERO PUSH2 0x180 DUP6 ADD MSTORE PUSH2 0x180 DUP2 ADD MLOAD ISZERO ISZERO PUSH2 0x1A0 DUP6 ADD MSTORE PUSH2 0x1A0 DUP2 ADD MLOAD ISZERO ISZERO PUSH2 0x1C0 DUP6 ADD MSTORE PUSH2 0x1C0 DUP2 ADD MLOAD DUP3 DUP6 ADD MSTORE ADD MLOAD PUSH2 0x200 DUP4 ADD MSTORE SUB SWAP1 RETURN JUMPDEST POP PUSH1 0xC9 SLOAD DUP2 GT ISZERO PUSH2 0x2B0 JUMP JUMPDEST DUP1 REVERT JUMPDEST POP CALLVALUE PUSH2 0x484 JUMPI DUP1 PUSH1 0x3 NOT CALLDATASIZE ADD SLT PUSH2 0x484 JUMPI PUSH1 0x20 PUSH1 0xD6 SLOAD PUSH1 0x40 MLOAD SWAP1 DUP2 MSTORE RETURN JUMPDEST POP CALLVALUE PUSH2 0x484 JUMPI PUSH1 0x20 CALLDATASIZE PUSH1 0x3 NOT ADD SLT PUSH2 0x484 JUMPI PUSH2 0x4BF PUSH2 0x2C42 JUMP JUMPDEST PUSH2 0x4C7 PUSH2 0x2D56 JUMP JUMPDEST PUSH1 0x1 PUSH1 0x1 PUSH1 0xA0 SHL SUB DUP2 AND ISZERO PUSH2 0x4E2 JUMPI PUSH2 0x4DF SWAP1 PUSH2 0x2DAE JUMP JUMPDEST DUP1 RETURN JUMPDEST PUSH1 0x40 MLOAD PUSH3 0x461BCD PUSH1 0xE5 SHL DUP2 MSTORE PUSH1 0x20 PUSH1 0x4 DUP3 ADD MSTORE PUSH1 0x26 PUSH1 0x24 DUP3 ADD MSTORE PUSH32 0x4F776E61626C653A206E6577206F776E657220697320746865207A65726F2061 PUSH1 0x44 DUP3 ADD MSTORE PUSH6 0x646472657373 PUSH1 0xD0 SHL PUSH1 0x64 DUP3 ADD MSTORE PUSH1 0x84 SWAP1 REVERT JUMPDEST POP CALLVALUE PUSH2 0x484 JUMPI PUSH1 0x20 CALLDATASIZE PUSH1 0x3 NOT ADD SLT PUSH2 0x484 JUMPI PUSH2 0x550 PUSH2 0x2C42 JUMP JUMPDEST PUSH2 0x558 PUSH2 0x2D56 JUMP JUMPDEST PUSH1 0x1 DUP1 PUSH1 0xA0 SHL SUB AND PUSH1 0x1 PUSH1 0x1 PUSH1 0x60 SHL SUB PUSH1 0xA0 SHL PUSH1 0xD4 SLOAD AND OR PUSH1 0xD4 SSTORE DUP1 RETURN JUMPDEST POP CALLVALUE PUSH2 0x484 JUMPI PUSH1 0xE0 CALLDATASIZE PUSH1 0x3 NOT ADD SLT PUSH2 0x484 JUMPI PUSH2 0x590 PUSH2 0x2C42 JUMP JUMPDEST PUSH2 0x598 PUSH2 0x2C58 JUMP JUMPDEST SWAP1 PUSH1 0x1 PUSH1 0x1 PUSH1 0xA0 SHL SUB SWAP1 PUSH1 0x44 CALLDATALOAD DUP3 DUP2 AND SWAP2 SWAP1 DUP3 SWAP1 SUB PUSH2 0x746 JUMPI PUSH1 0x64 CALLDATALOAD SWAP2 DUP4 DUP4 AND DUP1 SWAP4 SUB PUSH2 0x746 JUMPI DUP6 SLOAD SWAP4 PUSH1 0xFF DUP6 PUSH1 0x8 SHR AND ISZERO SWAP5 DUP6 DUP1 SWAP7 PUSH2 0x739 JUMPI JUMPDEST DUP1 ISZERO PUSH2 0x722 JUMPI JUMPDEST ISZERO PUSH2 0x6C6 JUMPI PUSH1 0xFF NOT DUP2 AND PUSH1 0x1 OR DUP9 SSTORE DUP6 PUSH2 0x6B5 JUMPI JUMPDEST POP PUSH2 0x609 PUSH1 0xFF DUP9 SLOAD PUSH1 0x8 SHR AND PUSH2 0x604 DUP2 PUSH2 0x2FE6 JUMP JUMPDEST PUSH2 0x2FE6 JUMP JUMPDEST PUSH2 0x612 CALLER PUSH2 0x2DAE JUMP JUMPDEST DUP7 SLOAD SWAP6 PUSH2 0x624 PUSH1 0xFF DUP9 PUSH1 0x8 SHR AND PUSH2 0x2FE6 JUMP JUMPDEST DUP2 PUSH1 0x1 PUSH1 0x1 PUSH1 0x60 SHL SUB PUSH1 0xA0 SHL SWAP5 AND DUP5 PUSH1 0xD1 SLOAD AND OR PUSH1 0xD1 SSTORE AND DUP3 PUSH1 0xD2 SLOAD AND OR PUSH1 0xD2 SSTORE DUP2 PUSH1 0xD3 SLOAD AND OR PUSH1 0xD3 SSTORE PUSH1 0xD4 SLOAD AND OR PUSH1 0xD4 SSTORE PUSH1 0x84 CALLDATALOAD PUSH1 0xD5 SSTORE PUSH1 0xA4 CALLDATALOAD PUSH1 0xD6 SSTORE PUSH1 0xC4 CALLDATALOAD PUSH1 0xD7 SSTORE PUSH1 0x78 PUSH1 0xD8 SSTORE PUSH2 0x1F4 PUSH1 0xD9 SSTORE PUSH1 0xC8 PUSH1 0xDA SSTORE PUSH2 0x680 JUMPI POP DUP1 RETURN JUMPDEST PUSH2 0xFF00 NOT AND DUP2 SSTORE PUSH32 0x7F26B83FF96E1F2B6A682F133852F6798A09C465DA95921460CEFB3847402498 PUSH1 0x20 PUSH1 0x40 MLOAD PUSH1 0x1 DUP2 MSTORE LOG1 DUP1 RETURN JUMPDEST PUSH2 0xFFFF NOT AND PUSH2 0x101 OR DUP8 SSTORE CODESIZE PUSH2 0x5EF JUMP JUMPDEST PUSH1 0x40 MLOAD PUSH3 0x461BCD PUSH1 0xE5 SHL DUP2 MSTORE PUSH1 0x20 PUSH1 0x4 DUP3 ADD MSTORE PUSH1 0x2E PUSH1 0x24 DUP3 ADD MSTORE PUSH32 0x496E697469616C697A61626C653A20636F6E747261637420697320616C726561 PUSH1 0x44 DUP3 ADD MSTORE PUSH14 0x191E481A5B9A5D1A585B1A5E9959 PUSH1 0x92 SHL PUSH1 0x64 DUP3 ADD MSTORE PUSH1 0x84 SWAP1 REVERT JUMPDEST POP ADDRESS EXTCODESIZE ISZERO DUP1 ISZERO PUSH2 0x5DA JUMPI POP PUSH1 0x1 PUSH1 0xFF DUP3 AND EQ PUSH2 0x5DA JUMP JUMPDEST POP PUSH1 0x1 PUSH1 0xFF DUP3 AND LT PUSH2 0x5D3 JUMP JUMPDEST PUSH1 0x0 DUP1 REVERT JUMPDEST POP CALLVALUE PUSH2 0x484 JUMPI PUSH1 0x20 DUP1 PUSH1 0x3 NOT CALLDATASIZE ADD SLT PUSH2 0xAFE JUMPI PUSH1 0x4 CALLDATALOAD SWAP1 DUP2 ISZERO ISZERO DUP1 PUSH2 0xAF2 JUMPI JUMPDEST PUSH2 0x774 SWAP1 PUSH2 0x30A7 JUMP JUMPDEST DUP2 DUP4 MSTORE PUSH1 0xCA DUP2 MSTORE PUSH1 0x40 DUP4 KECCAK256 PUSH1 0xB DUP2 ADD DUP1 SLOAD SWAP1 PUSH2 0x793 PUSH1 0xFF DUP4 AND ISZERO PUSH2 0x30EB JUMP JUMPDEST PUSH1 0xFF DUP3 PUSH1 0x10 SHR AND ISZERO PUSH2 0xAB4 JUMPI PUSH2 0x7B0 PUSH1 0x5 DUP5 ADD SLOAD PUSH1 0xD8 SLOAD SWAP1 PUSH2 0x3173 JUMP JUMPDEST TIMESTAMP LT PUSH2 0xA6F JUMPI DUP5 DUP7 MSTORE PUSH1 0xCD DUP5 MSTORE PUSH2 0x7D4 PUSH1 0x40 DUP8 KECCAK256 SLOAD PUSH1 0xCE DUP7 MSTORE PUSH1 0x40 DUP9 KECCAK256 SLOAD SWAP1 PUSH2 0x3173 JUMP JUMPDEST ISZERO PUSH2 0xA36 JUMPI DUP5 DUP7 MSTORE PUSH1 0xCD DUP5 MSTORE PUSH1 0x40 DUP1 DUP8 KECCAK256 SLOAD PUSH1 0xCE DUP7 MSTORE SWAP1 DUP8 KECCAK256 SLOAD PUSH2 0xFFFF NOT SWAP1 SWAP4 AND SWAP3 LT PUSH1 0x8 DUP2 SWAP1 SHL PUSH2 0xFF00 AND SWAP3 SWAP1 SWAP3 OR PUSH1 0x1 OR SWAP1 SSTORE SWAP1 TIMESTAMP PUSH1 0xD DUP3 ADD SSTORE PUSH1 0xDC SLOAD DUP1 ISZERO PUSH2 0xA22 JUMPI PUSH1 0x0 NOT ADD PUSH1 0xDC SSTORE PUSH2 0x82B PUSH1 0xDD SLOAD PUSH2 0x3082 JUMP JUMPDEST PUSH1 0xDD SSTORE DUP4 DUP6 MSTORE PUSH1 0xCA DUP4 MSTORE PUSH1 0x40 DUP6 KECCAK256 SWAP1 DUP6 PUSH2 0x84E PUSH1 0x7 DUP5 ADD SLOAD PUSH1 0x6 DUP6 ADD SLOAD SWAP1 PUSH2 0x3173 JUMP JUMPDEST PUSH2 0x869 PUSH2 0x2710 SWAP2 DUP3 PUSH2 0x862 PUSH1 0xDA SLOAD DUP4 PUSH2 0x3180 JUMP JUMPDEST DIV SWAP1 PUSH2 0x3193 JUMP JUMPDEST DUP3 DUP7 ISZERO PUSH2 0xA18 JUMPI POP DUP3 DUP1 SWAP3 PUSH2 0x882 DUP3 SWAP4 PUSH1 0xD9 SLOAD SWAP1 PUSH2 0x3180 JUMP JUMPDEST PUSH1 0x1 SWAP1 SWAP8 ADD SLOAD SWAP7 DIV SWAP6 DUP7 SWAP1 PUSH1 0x1 PUSH1 0x1 PUSH1 0xA0 SHL SUB AND DUP3 DUP3 ISZERO PUSH2 0xA0F JUMPI JUMPDEST CALL ISZERO PUSH2 0xA04 JUMPI JUMPDEST PUSH1 0x1 DUP2 ADD SLOAD PUSH1 0x2 DUP3 ADD SLOAD PUSH1 0xD4 SLOAD DUP9 SWAP3 PUSH1 0x1 PUSH1 0x1 PUSH1 0xA0 SHL SUB SWAP2 SWAP1 DUP3 AND SWAP1 DUP3 AND DUP1 PUSH2 0x9A1 JUMPI JUMPDEST POP POP PUSH1 0xD1 SLOAD AND SWAP1 DUP2 ISZERO ISZERO DUP1 PUSH2 0x998 JUMPI JUMPDEST PUSH2 0x92E JUMPI JUMPDEST POP POP POP SWAP1 PUSH32 0x1EE447DE28C6FF53BC0403BDBC8F4114866F73B12FC451B0605FC923B02B65BF SWAP4 PUSH2 0x91B DUP4 PUSH1 0x6 PUSH1 0x7 PUSH1 0x60 SWAP8 SWAP7 ADD SLOAD SWAP2 ADD SLOAD SWAP1 PUSH2 0x3173 JUMP JUMPDEST SWAP1 PUSH1 0x40 MLOAD SWAP4 DUP5 MSTORE DUP4 ADD MSTORE PUSH1 0x40 DUP3 ADD MSTORE LOG2 DUP1 RETURN JUMPDEST DUP2 EXTCODESIZE ISZERO PUSH2 0x994 JUMPI DUP3 SWAP2 PUSH1 0x44 DUP4 SWAP3 PUSH1 0x40 MLOAD SWAP5 DUP6 SWAP4 DUP5 SWAP3 PUSH4 0x1C8FDEB5 PUSH1 0xE3 SHL DUP5 MSTORE PUSH1 0x4 DUP5 ADD MSTORE DUP11 PUSH1 0x24 DUP5 ADD MSTORE GAS CALL DUP1 ISZERO PUSH2 0x989 JUMPI PUSH2 0x96B JUMPI JUMPDEST DUP1 PUSH2 0x8DE JUMP JUMPDEST PUSH2 0x978 SWAP1 SWAP5 SWAP4 SWAP3 SWAP5 PUSH2 0x2B28 JUMP JUMPDEST PUSH2 0x985 JUMPI SWAP1 SWAP2 DUP6 CODESIZE PUSH2 0x965 JUMP JUMPDEST DUP6 DUP1 REVERT JUMPDEST PUSH1 0x40 MLOAD RETURNDATASIZE DUP5 DUP3 RETURNDATACOPY RETURNDATASIZE SWAP1 REVERT JUMPDEST DUP3 DUP1 REVERT JUMPDEST POP DUP1 ISZERO ISZERO PUSH2 0x8D9 JUMP JUMPDEST DUP1 SWAP5 SWAP3 SWAP4 SWAP5 EXTCODESIZE ISZERO PUSH2 0x994 JUMPI PUSH1 0x44 DUP4 SWAP3 PUSH1 0x40 MLOAD SWAP5 DUP6 SWAP4 DUP5 SWAP3 PUSH4 0x13EF88D1 PUSH1 0xE3 SHL DUP5 MSTORE PUSH1 0x4 DUP5 ADD MSTORE DUP12 PUSH1 0x24 DUP5 ADD MSTORE GAS CALL DUP1 ISZERO PUSH2 0x9F9 JUMPI PUSH2 0x9E4 JUMPI JUMPDEST SWAP1 DUP2 DUP10 SWAP4 SWAP3 PUSH2 0x8C9 JUMP JUMPDEST PUSH2 0x9F1 SWAP1 SWAP9 SWAP2 SWAP3 SWAP9 PUSH2 0x2B28 JUMP JUMPDEST SWAP7 SWAP1 CODESIZE PUSH2 0x9DA JUMP JUMPDEST PUSH1 0x40 MLOAD RETURNDATASIZE DUP12 DUP3 RETURNDATACOPY RETURNDATASIZE SWAP1 REVERT JUMPDEST PUSH1 0x40 MLOAD RETURNDATASIZE DUP8 DUP3 RETURNDATACOPY RETURNDATASIZE SWAP1 REVERT JUMPDEST POP PUSH2 0x8FC PUSH2 0x89E JUMP JUMPDEST SWAP5 POP POP POP POP PUSH2 0x8A5 JUMP JUMPDEST PUSH4 0x4E487B71 PUSH1 0xE0 SHL DUP7 MSTORE PUSH1 0x11 PUSH1 0x4 MSTORE PUSH1 0x24 DUP7 REVERT JUMPDEST PUSH1 0x40 MLOAD PUSH3 0x461BCD PUSH1 0xE5 SHL DUP2 MSTORE PUSH1 0x4 DUP2 ADD DUP6 SWAP1 MSTORE PUSH1 0x11 PUSH1 0x24 DUP3 ADD MSTORE PUSH17 0x139BC8111053C81D9BDD195CC818D85CDD PUSH1 0x7A SHL PUSH1 0x44 DUP3 ADD MSTORE PUSH1 0x64 SWAP1 REVERT JUMPDEST PUSH1 0x40 MLOAD PUSH3 0x461BCD PUSH1 0xE5 SHL DUP2 MSTORE PUSH1 0x4 DUP2 ADD DUP6 SWAP1 MSTORE PUSH1 0x1B PUSH1 0x24 DUP3 ADD MSTORE PUSH32 0x44414F20766F74696E6720706572696F64206E6F7420656E6465640000000000 PUSH1 0x44 DUP3 ADD MSTORE PUSH1 0x64 SWAP1 REVERT JUMPDEST PUSH1 0x40 MLOAD PUSH3 0x461BCD PUSH1 0xE5 SHL DUP2 MSTORE PUSH1 0x4 DUP2 ADD DUP6 SWAP1 MSTORE PUSH1 0x16 PUSH1 0x24 DUP3 ADD MSTORE PUSH22 0x111053C81D9BDD1A5B99C81B9BDD081CDD185C9D1959 PUSH1 0x52 SHL PUSH1 0x44 DUP3 ADD MSTORE PUSH1 0x64 SWAP1 REVERT JUMPDEST POP PUSH1 0xC9 SLOAD DUP3 GT ISZERO PUSH2 0x76B JUMP JUMPDEST POP DUP1 REVERT JUMPDEST POP CALLVALUE PUSH2 0x484 JUMPI DUP1 PUSH1 0x3 NOT CALLDATASIZE ADD SLT PUSH2 0x484 JUMPI PUSH1 0x20 PUSH1 0xD9 SLOAD PUSH1 0x40 MLOAD SWAP1 DUP2 MSTORE RETURN JUMPDEST POP PUSH1 0x60 CALLDATASIZE PUSH1 0x3 NOT ADD SLT PUSH2 0x484 JUMPI PUSH1 0x4 CALLDATALOAD PUSH1 0x1 PUSH1 0x1 PUSH1 0x40 SHL SUB DUP2 GT PUSH2 0xAFE JUMPI PUSH2 0xB4C SWAP1 CALLDATASIZE SWAP1 PUSH1 0x4 ADD PUSH2 0x2D38 JUMP JUMPDEST PUSH1 0x24 CALLDATALOAD PUSH1 0x1 PUSH1 0x1 PUSH1 0x40 SHL SUB DUP2 GT PUSH2 0x994 JUMPI PUSH2 0xB6B SWAP1 CALLDATASIZE SWAP1 PUSH1 0x4 ADD PUSH2 0x2D38 JUMP JUMPDEST SWAP1 PUSH1 0xD5 SLOAD CALLVALUE LT PUSH2 0x11C9 JUMPI DUP1 MLOAD ISZERO PUSH2 0x118C JUMPI DUP2 MLOAD ISZERO PUSH2 0x1147 JUMPI TIMESTAMP PUSH1 0x44 CALLDATALOAD GT ISZERO PUSH2 0x1102 JUMPI PUSH1 0xD1 SLOAD PUSH1 0x1 PUSH1 0x1 PUSH1 0xA0 SHL SUB AND SWAP2 DUP3 PUSH2 0x1054 JUMPI JUMPDEST PUSH1 0x24 SWAP1 PUSH1 0x20 PUSH1 0x1 PUSH1 0xC9 SLOAD ADD SWAP5 DUP6 PUSH1 0xC9 SSTORE PUSH1 0x40 MLOAD SWAP4 DUP5 DUP1 SWAP3 PUSH4 0x656D0C39 PUSH1 0xE0 SHL DUP3 MSTORE CALLER PUSH1 0x4 DUP4 ADD MSTORE GAS STATICCALL SWAP2 DUP3 ISZERO PUSH2 0xA04 JUMPI DUP6 SWAP3 PUSH2 0x101C JUMPI JUMPDEST POP PUSH1 0x40 MLOAD SWAP2 PUSH2 0xBE5 DUP4 PUSH2 0x2B0C JUMP JUMPDEST DUP5 DUP4 MSTORE CALLER PUSH1 0x20 DUP5 ADD MSTORE PUSH1 0x40 DUP4 ADD MSTORE DUP3 PUSH1 0x60 DUP4 ADD MSTORE PUSH1 0x80 DUP3 ADD MSTORE PUSH1 0x44 CALLDATALOAD PUSH1 0xA0 DUP3 ADD MSTORE CALLVALUE PUSH1 0xC0 DUP3 ADD MSTORE DUP4 PUSH1 0xE0 DUP3 ADD MSTORE DUP4 PUSH2 0x100 DUP3 ADD MSTORE DUP4 PUSH2 0x120 DUP3 ADD MSTORE DUP4 PUSH2 0x140 DUP3 ADD MSTORE DUP4 PUSH2 0x160 DUP3 ADD MSTORE DUP4 PUSH2 0x180 DUP3 ADD MSTORE DUP4 PUSH2 0x1A0 DUP3 ADD MSTORE TIMESTAMP PUSH2 0x1C0 DUP3 ADD MSTORE DUP4 PUSH2 0x1E0 DUP3 ADD MSTORE DUP3 DUP5 MSTORE PUSH1 0xCA PUSH1 0x20 MSTORE PUSH1 0x40 DUP5 KECCAK256 SWAP1 DUP1 MLOAD DUP3 SSTORE PUSH1 0x1 DUP3 ADD PUSH1 0x1 DUP1 PUSH1 0xA0 SHL SUB PUSH1 0x20 DUP4 ADD MLOAD AND PUSH1 0x1 PUSH1 0x1 PUSH1 0x60 SHL SUB PUSH1 0xA0 SHL DUP3 SLOAD AND OR SWAP1 SSTORE PUSH1 0x40 DUP2 ADD MLOAD PUSH1 0x2 DUP4 ADD SSTORE PUSH1 0x60 DUP2 ADD MLOAD DUP1 MLOAD SWAP1 PUSH1 0x1 PUSH1 0x1 PUSH1 0x40 SHL SUB DUP3 GT PUSH2 0xF43 JUMPI DUP2 SWAP1 PUSH2 0xCAC PUSH1 0x3 DUP7 ADD SLOAD PUSH2 0x2A86 JUMP JUMPDEST PUSH1 0x1F DUP2 GT PUSH2 0xFCC JUMPI JUMPDEST POP PUSH1 0x20 SWAP1 PUSH1 0x1F DUP4 GT PUSH1 0x1 EQ PUSH2 0xF62 JUMPI DUP9 SWAP3 PUSH2 0xF57 JUMPI JUMPDEST POP POP DUP2 PUSH1 0x1 SHL SWAP2 PUSH1 0x0 NOT SWAP1 PUSH1 0x3 SHL SHR NOT AND OR PUSH1 0x3 DUP4 ADD SSTORE JUMPDEST PUSH1 0x80 DUP2 ADD MLOAD DUP1 MLOAD SWAP1 PUSH1 0x1 PUSH1 0x1 PUSH1 0x40 SHL SUB DUP3 GT PUSH2 0xF43 JUMPI PUSH2 0xD06 PUSH1 0x4 DUP6 ADD SLOAD PUSH2 0x2A86 JUMP JUMPDEST PUSH1 0x1F DUP2 GT PUSH2 0xEFF JUMPI JUMPDEST POP SWAP2 DUP7 SWAP4 SWAP2 DUP7 SWAP4 PUSH1 0x20 SWAP9 POP DUP9 SWAP1 PUSH1 0x1F DUP4 GT PUSH1 0x1 EQ PUSH2 0xE84 JUMPI DUP7 SWAP4 DUP4 PUSH1 0x40 SWAP7 SWAP5 PUSH1 0xD SWAP5 PUSH2 0x1E0 SWAP5 PUSH2 0xE0A SWAP12 SWAP3 PUSH2 0xE79 JUMPI JUMPDEST POP POP DUP2 PUSH1 0x1 SHL SWAP2 PUSH1 0x0 NOT SWAP1 PUSH1 0x3 SHL SHR NOT AND OR PUSH1 0x4 DUP6 ADD SSTORE JUMPDEST PUSH1 0xA0 DUP2 ADD MLOAD PUSH1 0x5 DUP6 ADD SSTORE PUSH1 0xC0 DUP2 ADD MLOAD PUSH1 0x6 DUP6 ADD SSTORE PUSH1 0xE0 DUP2 ADD MLOAD PUSH1 0x7 DUP6 ADD SSTORE PUSH2 0x100 DUP2 ADD MLOAD PUSH1 0x8 DUP6 ADD SSTORE PUSH2 0x120 DUP2 ADD MLOAD PUSH1 0x9 DUP6 ADD SSTORE PUSH2 0x140 DUP2 ADD MLOAD PUSH1 0xA DUP6 ADD SSTORE PUSH1 0xB DUP5 ADD PUSH2 0xDB7 PUSH2 0x160 DUP4 ADD MLOAD ISZERO ISZERO DUP3 SWAP1 PUSH1 0xFF DUP1 NOT DUP4 SLOAD AND SWAP2 ISZERO ISZERO AND OR SWAP1 SSTORE JUMP JUMPDEST PUSH2 0x180 DUP3 ADD MLOAD DUP2 SLOAD PUSH2 0xFF00 NOT AND SWAP1 ISZERO ISZERO PUSH1 0x8 SHL PUSH2 0xFF00 AND OR DUP2 SSTORE PUSH2 0x1A0 DUP3 ADD MLOAD DUP2 SLOAD PUSH3 0xFF0000 NOT AND SWAP1 ISZERO ISZERO PUSH1 0x10 SHL PUSH3 0xFF0000 AND OR SWAP1 SSTORE PUSH2 0x1C0 DUP2 ADD MLOAD PUSH1 0xC DUP6 ADD SSTORE ADD MLOAD SWAP2 ADD SSTORE CALLER DUP2 MSTORE PUSH1 0xCF DUP8 MSTORE KECCAK256 PUSH2 0x3046 JUMP JUMPDEST PUSH2 0xE15 PUSH1 0xDB SLOAD PUSH2 0x3082 JUMP JUMPDEST PUSH1 0xDB SSTORE PUSH2 0xE23 PUSH1 0xDC SLOAD PUSH2 0x3082 JUMP JUMPDEST PUSH1 0xDC SSTORE DUP2 PUSH32 0x37F3EDF7ED237F91FD6999D49411C7E10B3602F2E561A5ADF21934775659C61A PUSH2 0xE5D PUSH1 0x40 MLOAD SWAP4 PUSH1 0x60 DUP6 MSTORE PUSH1 0x60 DUP6 ADD SWAP1 PUSH2 0x2C02 JUMP JUMPDEST SWAP3 PUSH1 0x44 CALLDATALOAD DUP7 DUP3 ADD MSTORE CALLVALUE PUSH1 0x40 DUP3 ADD MSTORE DUP1 CALLER SWAP5 SUB SWAP1 LOG3 PUSH1 0x40 MLOAD SWAP1 DUP2 MSTORE RETURN JUMPDEST ADD MLOAD SWAP1 POP CODESIZE DUP1 PUSH2 0xD3F JUMP JUMPDEST SWAP1 PUSH1 0x4 DUP6 ADD DUP8 MSTORE DUP10 DUP8 KECCAK256 SWAP2 DUP8 JUMPDEST PUSH1 0x1F NOT DUP6 AND DUP2 LT PUSH2 0xEE5 JUMPI POP SWAP4 PUSH1 0x1 DUP5 PUSH1 0xD SWAP5 PUSH2 0x1E0 SWAP5 PUSH2 0xE0A SWAP12 SWAP9 PUSH1 0x40 SWAP11 SWAP9 PUSH1 0x1F NOT DUP2 AND LT PUSH2 0xECC JUMPI JUMPDEST POP POP POP DUP2 SHL ADD PUSH1 0x4 DUP6 ADD SSTORE PUSH2 0xD57 JUMP JUMPDEST ADD MLOAD PUSH1 0x0 NOT PUSH1 0xF8 DUP5 PUSH1 0x3 SHL AND SHR NOT AND SWAP1 SSTORE CODESIZE DUP1 DUP1 PUSH2 0xEBC JUMP JUMPDEST DUP2 DUP4 ADD MLOAD DUP5 SSTORE DUP11 SWAP8 POP PUSH1 0x1 SWAP1 SWAP4 ADD SWAP3 SWAP2 DUP12 ADD SWAP2 DUP12 ADD PUSH2 0xE91 JUMP JUMPDEST PUSH1 0x4 DUP6 ADD DUP9 MSTORE PUSH1 0x20 DUP9 KECCAK256 PUSH1 0x1F DUP5 ADD PUSH1 0x5 SHR DUP2 ADD PUSH1 0x20 DUP6 LT PUSH2 0xF3C JUMPI JUMPDEST PUSH1 0x1F DUP4 ADD PUSH1 0x5 SHR DUP3 ADD DUP2 LT PUSH2 0xF31 JUMPI POP POP PUSH2 0xD0F JUMP JUMPDEST DUP10 DUP2 SSTORE PUSH1 0x1 ADD PUSH2 0xF1B JUMP JUMPDEST POP DUP1 PUSH2 0xF1B JUMP JUMPDEST PUSH4 0x4E487B71 PUSH1 0xE0 SHL DUP8 MSTORE PUSH1 0x41 PUSH1 0x4 MSTORE PUSH1 0x24 DUP8 REVERT JUMPDEST ADD MLOAD SWAP1 POP CODESIZE DUP1 PUSH2 0xCCB JUMP JUMPDEST PUSH1 0x3 DUP7 ADD DUP10 MSTORE PUSH1 0x20 DUP10 KECCAK256 SWAP3 POP PUSH1 0x1F NOT DUP5 AND DUP10 JUMPDEST DUP2 DUP2 LT PUSH2 0xFB4 JUMPI POP SWAP1 DUP5 PUSH1 0x1 SWAP6 SWAP5 SWAP4 SWAP3 LT PUSH2 0xF9B JUMPI JUMPDEST POP POP POP DUP2 SHL ADD PUSH1 0x3 DUP4 ADD SSTORE PUSH2 0xCE3 JUMP JUMPDEST ADD MLOAD PUSH1 0x0 NOT PUSH1 0xF8 DUP5 PUSH1 0x3 SHL AND SHR NOT AND SWAP1 SSTORE CODESIZE DUP1 DUP1 PUSH2 0xF8B JUMP JUMPDEST SWAP3 SWAP4 PUSH1 0x20 PUSH1 0x1 DUP2 SWAP3 DUP8 DUP7 ADD MLOAD DUP2 SSTORE ADD SWAP6 ADD SWAP4 ADD PUSH2 0xF75 JUMP JUMPDEST SWAP1 SWAP2 POP PUSH1 0x3 DUP6 ADD DUP9 MSTORE PUSH1 0x20 DUP9 KECCAK256 PUSH1 0x1F DUP5 ADD PUSH1 0x5 SHR DUP2 ADD PUSH1 0x20 DUP6 LT PUSH2 0x1015 JUMPI JUMPDEST SWAP1 DUP5 SWAP4 SWAP3 SWAP2 JUMPDEST PUSH1 0x1F DUP4 ADD PUSH1 0x5 SHR DUP3 ADD DUP2 LT PUSH2 0x1007 JUMPI POP POP PUSH2 0xCB5 JUMP JUMPDEST DUP11 DUP2 SSTORE DUP6 SWAP5 POP PUSH1 0x1 ADD PUSH2 0xFF1 JUMP JUMPDEST POP DUP1 PUSH2 0xFEB JUMP JUMPDEST SWAP1 SWAP2 POP PUSH1 0x20 DUP2 RETURNDATASIZE PUSH1 0x20 GT PUSH2 0x104C JUMPI JUMPDEST DUP2 PUSH2 0x1038 PUSH1 0x20 SWAP4 DUP4 PUSH2 0x2B3B JUMP JUMPDEST DUP2 ADD SUB SLT PUSH2 0x1048 JUMPI MLOAD SWAP1 CODESIZE PUSH2 0xBD7 JUMP JUMPDEST DUP5 DUP1 REVERT JUMPDEST RETURNDATASIZE SWAP2 POP PUSH2 0x102B JUMP JUMPDEST PUSH1 0x40 MLOAD PUSH4 0x1853E995 PUSH1 0xE1 SHL DUP2 MSTORE CALLER PUSH1 0x4 DUP3 ADD MSTORE PUSH1 0x20 DUP2 PUSH1 0x24 DUP2 DUP8 GAS STATICCALL SWAP1 DUP2 ISZERO PUSH2 0xA04 JUMPI DUP6 SWAP2 PUSH2 0x10C8 JUMPI JUMPDEST POP PUSH2 0xBA0 JUMPI PUSH1 0x40 MLOAD PUSH3 0x461BCD PUSH1 0xE5 SHL DUP2 MSTORE PUSH1 0x20 PUSH1 0x4 DUP3 ADD MSTORE PUSH1 0x17 PUSH1 0x24 DUP3 ADD MSTORE PUSH32 0x417374726F6C6F676572206E6F74207665726966696564000000000000000000 PUSH1 0x44 DUP3 ADD MSTORE PUSH1 0x64 SWAP1 REVERT JUMPDEST SWAP1 POP PUSH1 0x20 DUP2 RETURNDATASIZE DUP3 GT PUSH2 0x10FA JUMPI JUMPDEST DUP2 PUSH2 0x10E2 PUSH1 0x20 SWAP4 DUP4 PUSH2 0x2B3B JUMP JUMPDEST DUP2 ADD SUB SLT PUSH2 0x1048 JUMPI MLOAD DUP1 ISZERO ISZERO DUP2 SUB PUSH2 0x1048 JUMPI CODESIZE PUSH2 0x107E JUMP JUMPDEST RETURNDATASIZE SWAP2 POP PUSH2 0x10D5 JUMP JUMPDEST PUSH1 0x40 MLOAD PUSH3 0x461BCD PUSH1 0xE5 SHL DUP2 MSTORE PUSH1 0x20 PUSH1 0x4 DUP3 ADD MSTORE PUSH1 0x1E PUSH1 0x24 DUP3 ADD MSTORE PUSH32 0x446561646C696E65206D75737420626520696E20746865206675747572650000 PUSH1 0x44 DUP3 ADD MSTORE PUSH1 0x64 SWAP1 REVERT JUMPDEST PUSH1 0x40 MLOAD PUSH3 0x461BCD PUSH1 0xE5 SHL DUP2 MSTORE PUSH1 0x20 PUSH1 0x4 DUP3 ADD MSTORE PUSH1 0x1B PUSH1 0x24 DUP3 ADD MSTORE PUSH32 0x4465736372697074696F6E2063616E6E6F7420626520656D7074790000000000 PUSH1 0x44 DUP3 ADD MSTORE PUSH1 0x64 SWAP1 REVERT JUMPDEST PUSH1 0x40 MLOAD PUSH3 0x461BCD PUSH1 0xE5 SHL DUP2 MSTORE PUSH1 0x20 PUSH1 0x4 DUP3 ADD MSTORE PUSH1 0x15 PUSH1 0x24 DUP3 ADD MSTORE PUSH21 0x5469746C652063616E6E6F7420626520656D707479 PUSH1 0x58 SHL PUSH1 0x44 DUP3 ADD MSTORE PUSH1 0x64 SWAP1 REVERT JUMPDEST PUSH1 0x40 MLOAD PUSH3 0x461BCD PUSH1 0xE5 SHL DUP2 MSTORE PUSH1 0x20 PUSH1 0x4 DUP3 ADD MSTORE PUSH1 0x1D PUSH1 0x24 DUP3 ADD MSTORE PUSH32 0x496E73756666696369656E7420617374726F6C6F676572207374616B65000000 PUSH1 0x44 DUP3 ADD MSTORE PUSH1 0x64 SWAP1 REVERT JUMPDEST POP CALLVALUE PUSH2 0x484 JUMPI PUSH1 0x40 CALLDATASIZE PUSH1 0x3 NOT ADD SLT PUSH2 0x484 JUMPI PUSH1 0x40 PUSH1 0x80 SWAP2 PUSH2 0x122D PUSH2 0x2C58 JUMP JUMPDEST PUSH1 0x4 CALLDATALOAD DUP3 MSTORE PUSH1 0xCB PUSH1 0x20 MSTORE DUP3 DUP3 KECCAK256 SWAP1 PUSH1 0x1 DUP1 PUSH1 0xA0 SHL SUB AND DUP3 MSTORE PUSH1 0x20 MSTORE KECCAK256 DUP1 SLOAD SWAP1 PUSH1 0xFF PUSH1 0x2 PUSH1 0x1 DUP4 ADD SLOAD SWAP3 ADD SLOAD AND SWAP1 PUSH1 0xFF PUSH1 0x40 MLOAD SWAP4 DUP2 DUP2 AND ISZERO ISZERO DUP6 MSTORE PUSH1 0x8 SHR AND ISZERO ISZERO PUSH1 0x20 DUP5 ADD MSTORE PUSH1 0x40 DUP4 ADD MSTORE ISZERO ISZERO PUSH1 0x60 DUP3 ADD MSTORE RETURN JUMPDEST POP CALLVALUE PUSH2 0x484 JUMPI PUSH1 0x20 CALLDATASIZE PUSH1 0x3 NOT ADD SLT PUSH2 0x484 JUMPI PUSH2 0x129A PUSH2 0x2C42 JUMP JUMPDEST PUSH2 0x12A2 PUSH2 0x2D56 JUMP JUMPDEST PUSH1 0x1 DUP1 PUSH1 0xA0 SHL SUB AND PUSH1 0x1 PUSH1 0x1 PUSH1 0x60 SHL SUB PUSH1 0xA0 SHL PUSH1 0xD2 SLOAD AND OR PUSH1 0xD2 SSTORE DUP1 RETURN JUMPDEST POP CALLVALUE PUSH2 0x484 JUMPI DUP1 PUSH1 0x3 NOT CALLDATASIZE ADD SLT PUSH2 0x484 JUMPI PUSH1 0x20 PUSH1 0xDA SLOAD PUSH1 0x40 MLOAD SWAP1 DUP2 MSTORE RETURN JUMPDEST POP CALLVALUE PUSH2 0x484 JUMPI PUSH1 0x60 CALLDATASIZE PUSH1 0x3 NOT ADD SLT PUSH2 0x484 JUMPI PUSH2 0x12F8 PUSH2 0x2D56 JUMP JUMPDEST PUSH1 0x4 CALLDATALOAD PUSH1 0xD5 SSTORE PUSH1 0x24 CALLDATALOAD PUSH1 0xD6 SSTORE PUSH1 0x44 CALLDATALOAD PUSH1 0xD7 SSTORE DUP1 RETURN JUMPDEST POP CALLVALUE PUSH2 0x484 JUMPI PUSH1 0x20 DUP1 PUSH1 0x3 NOT CALLDATASIZE ADD SLT PUSH2 0xAFE JUMPI PUSH1 0x1 PUSH1 0x1 PUSH1 0xA0 SHL SUB PUSH2 0x1330 PUSH2 0x2C42 JUMP JUMPDEST AND DUP3 MSTORE PUSH1 0xCF DUP2 MSTORE PUSH1 0x40 DUP3 KECCAK256 SWAP2 PUSH1 0x40 MLOAD DUP1 SWAP3 DUP1 DUP6 SLOAD SWAP3 DUP4 DUP2 MSTORE ADD SWAP5 DUP4 MSTORE DUP1 DUP4 KECCAK256 SWAP3 SWAP1 JUMPDEST DUP3 DUP3 LT PUSH2 0x1379 JUMPI PUSH2 0x1375 DUP6 PUSH2 0x1369 DUP2 DUP10 SUB DUP3 PUSH2 0x2B3B JUMP JUMPDEST PUSH1 0x40 MLOAD SWAP2 DUP3 SWAP2 DUP3 PUSH2 0x2CFD JUMP JUMPDEST SUB SWAP1 RETURN JUMPDEST DUP4 SLOAD DUP7 MSTORE SWAP5 DUP6 ADD SWAP5 PUSH1 0x1 SWAP4 DUP5 ADD SWAP4 SWAP1 SWAP2 ADD SWAP1 PUSH2 0x1352 JUMP JUMPDEST POP CALLVALUE PUSH2 0x484 JUMPI PUSH1 0x40 CALLDATASIZE PUSH1 0x3 NOT ADD SLT PUSH2 0x484 JUMPI PUSH1 0x40 PUSH1 0x80 SWAP2 PUSH2 0x13AF PUSH2 0x2C58 JUMP JUMPDEST DUP2 PUSH1 0x60 DUP5 MLOAD PUSH2 0x13BD DUP2 PUSH2 0x2AF1 JUMP JUMPDEST DUP3 DUP2 MSTORE DUP3 PUSH1 0x20 DUP3 ADD MSTORE DUP3 DUP7 DUP3 ADD MSTORE ADD MSTORE PUSH1 0x4 CALLDATALOAD DUP3 MSTORE PUSH1 0xCB PUSH1 0x20 MSTORE DUP3 DUP3 KECCAK256 SWAP1 PUSH1 0x1 DUP1 PUSH1 0xA0 SHL SUB AND DUP3 MSTORE PUSH1 0x20 MSTORE KECCAK256 PUSH1 0x40 MLOAD PUSH2 0x13F5 DUP2 PUSH2 0x2AF1 JUMP JUMPDEST DUP2 SLOAD SWAP2 PUSH1 0xFF DUP4 AND ISZERO ISZERO SWAP3 DUP4 DUP4 MSTORE PUSH1 0xFF PUSH1 0x20 DUP5 ADD SWAP2 PUSH1 0x8 SHR AND ISZERO ISZERO DUP2 MSTORE PUSH1 0x60 PUSH1 0xFF PUSH1 0x2 PUSH1 0x1 DUP6 ADD SLOAD SWAP5 PUSH1 0x40 DUP8 ADD SWAP6 DUP7 MSTORE ADD SLOAD AND SWAP4 ADD SWAP3 ISZERO ISZERO DUP4 MSTORE PUSH1 0x40 MLOAD SWAP4 DUP5 MSTORE MLOAD ISZERO ISZERO PUSH1 0x20 DUP5 ADD MSTORE MLOAD PUSH1 0x40 DUP4 ADD MSTORE MLOAD ISZERO ISZERO PUSH1 0x60 DUP3 ADD MSTORE RETURN JUMPDEST POP CALLVALUE PUSH2 0x484 JUMPI DUP1 PUSH1 0x3 NOT CALLDATASIZE ADD SLT PUSH2 0x484 JUMPI PUSH1 0x80 PUSH1 0xDB SLOAD PUSH1 0xDC SLOAD PUSH1 0xDD SLOAD PUSH1 0xDE SLOAD SWAP2 PUSH1 0x40 MLOAD SWAP4 DUP5 MSTORE PUSH1 0x20 DUP5 ADD MSTORE PUSH1 0x40 DUP4 ADD MSTORE PUSH1 0x60 DUP3 ADD MSTORE RETURN JUMPDEST POP CALLVALUE PUSH2 0x484 JUMPI DUP1 PUSH1 0x3 NOT CALLDATASIZE ADD SLT PUSH2 0x484 JUMPI PUSH1 0xD2 SLOAD PUSH1 0x40 MLOAD PUSH1 0x1 PUSH1 0x1 PUSH1 0xA0 SHL SUB SWAP1 SWAP2 AND DUP2 MSTORE PUSH1 0x20 SWAP1 RETURN JUMPDEST POP CALLVALUE PUSH2 0x484 JUMPI PUSH1 0x20 DUP1 PUSH1 0x3 NOT CALLDATASIZE ADD SLT PUSH2 0xAFE JUMPI PUSH1 0x4 CALLDATALOAD DUP1 ISZERO ISZERO DUP1 PUSH2 0x1654 JUMPI JUMPDEST PUSH2 0x14D4 SWAP1 PUSH2 0x30A7 JUMP JUMPDEST DUP1 DUP4 MSTORE PUSH1 0xCA DUP3 MSTORE PUSH1 0xFF PUSH1 0xB PUSH1 0x40 DUP6 KECCAK256 ADD SLOAD AND ISZERO PUSH2 0x160F JUMPI DUP1 DUP4 MSTORE PUSH1 0xCB DUP3 MSTORE PUSH1 0x40 DUP4 KECCAK256 CALLER DUP5 MSTORE DUP3 MSTORE PUSH1 0x40 DUP4 KECCAK256 PUSH1 0xFF DUP2 SLOAD AND ISZERO PUSH2 0x15DA JUMPI PUSH1 0x2 ADD SWAP2 DUP3 SLOAD PUSH1 0xFF DUP2 AND PUSH2 0x159C JUMPI DUP5 SWAP1 PUSH2 0x1523 CALLER DUP6 PUSH2 0x31A0 JUMP JUMPDEST SWAP5 DUP6 ISZERO SWAP2 DUP3 ISZERO PUSH2 0x1531 JUMPI DUP4 DUP1 RETURN JUMPDEST PUSH1 0xFF NOT AND PUSH1 0x1 OR SWAP1 SSTORE DUP2 SWAP1 DUP6 SWAP1 PUSH2 0x1592 JUMPI JUMPDEST DUP3 DUP1 SWAP3 SWAP2 DUP2 SWAP3 CALLER SWAP1 CALL ISZERO PUSH2 0x1587 JUMPI PUSH32 0x24B5EFA61DD1CFC659205A97FB8ED868F3CB8C81922BAB2B96423E5DE1DE2CB7 SWAP1 PUSH1 0x40 MLOAD SWAP4 DUP5 MSTORE CALLER SWAP4 LOG3 CODESIZE DUP1 DUP1 DUP4 DUP2 DUP1 DUP1 DUP4 DUP1 RETURN JUMPDEST PUSH1 0x40 MLOAD RETURNDATASIZE DUP6 DUP3 RETURNDATACOPY RETURNDATASIZE SWAP1 REVERT JUMPDEST PUSH2 0x8FC SWAP2 POP PUSH2 0x1543 JUMP JUMPDEST PUSH1 0x40 MLOAD PUSH3 0x461BCD PUSH1 0xE5 SHL DUP2 MSTORE PUSH1 0x4 DUP2 ADD DUP4 SWAP1 MSTORE PUSH1 0x16 PUSH1 0x24 DUP3 ADD MSTORE PUSH22 0x14995DD85C9908185B1C9958591E4818DB185A5B5959 PUSH1 0x52 SHL PUSH1 0x44 DUP3 ADD MSTORE PUSH1 0x64 SWAP1 REVERT JUMPDEST PUSH1 0x40 MLOAD PUSH3 0x461BCD PUSH1 0xE5 SHL DUP2 MSTORE PUSH1 0x4 DUP2 ADD DUP5 SWAP1 MSTORE PUSH1 0xD PUSH1 0x24 DUP3 ADD MSTORE PUSH13 0x139BC81D9BDD1948199BDD5B99 PUSH1 0x9A SHL PUSH1 0x44 DUP3 ADD MSTORE PUSH1 0x64 SWAP1 REVERT JUMPDEST PUSH1 0x40 MLOAD PUSH3 0x461BCD PUSH1 0xE5 SHL DUP2 MSTORE PUSH1 0x4 DUP2 ADD DUP4 SWAP1 MSTORE PUSH1 0x17 PUSH1 0x24 DUP3 ADD MSTORE PUSH32 0x50726564696374696F6E206E6F74207265736F6C766564000000000000000000 PUSH1 0x44 DUP3 ADD MSTORE PUSH1 0x64 SWAP1 REVERT JUMPDEST POP PUSH1 0xC9 SLOAD DUP2 GT ISZERO PUSH2 0x14CB JUMP JUMPDEST POP CALLVALUE PUSH2 0x484 JUMPI DUP1 PUSH1 0x3 NOT CALLDATASIZE ADD SLT PUSH2 0x484 JUMPI PUSH1 0xD3 SLOAD PUSH1 0x40 MLOAD PUSH1 0x1 PUSH1 0x1 PUSH1 0xA0 SHL SUB SWAP1 SWAP2 AND DUP2 MSTORE PUSH1 0x20 SWAP1 RETURN JUMPDEST POP CALLVALUE PUSH2 0x484 JUMPI DUP1 PUSH1 0x3 NOT CALLDATASIZE ADD SLT PUSH2 0x484 JUMPI PUSH1 0xDC SLOAD PUSH2 0x16A6 DUP2 PUSH2 0x3352 JUMP JUMPDEST SWAP1 PUSH2 0x16B4 PUSH1 0x40 MLOAD SWAP3 DUP4 PUSH2 0x2B3B JUMP JUMPDEST DUP1 DUP3 MSTORE PUSH2 0x16C3 PUSH1 0x1F NOT SWAP2 PUSH2 0x3352 JUMP JUMPDEST ADD SWAP2 PUSH1 0x20 SWAP3 CALLDATASIZE DUP5 DUP5 ADD CALLDATACOPY PUSH1 0xC9 SLOAD SWAP1 SWAP3 DUP4 PUSH1 0x1 JUMPDEST DUP4 DUP2 GT ISZERO PUSH2 0x16EC JUMPI PUSH1 0x40 MLOAD DUP1 PUSH2 0x1375 DUP8 DUP3 PUSH2 0x2CFD JUMP JUMPDEST DUP1 DUP3 MSTORE PUSH1 0xCA DUP4 MSTORE PUSH1 0xFF PUSH1 0xB PUSH1 0x40 DUP5 KECCAK256 ADD SLOAD AND ISZERO PUSH2 0x1712 JUMPI JUMPDEST PUSH2 0x170D SWAP1 PUSH2 0x3082 JUMP JUMPDEST PUSH2 0x16D6 JUMP JUMPDEST SWAP5 DUP5 MLOAD DUP2 LT ISZERO PUSH2 0x173A JUMPI PUSH2 0x1732 DUP2 DUP8 DUP6 PUSH2 0x170D SWAP5 PUSH1 0x5 SHL DUP10 ADD ADD MSTORE PUSH2 0x3082 JUMP JUMPDEST SWAP6 SWAP1 POP PUSH2 0x1704 JUMP JUMPDEST PUSH4 0x4E487B71 PUSH1 0xE0 SHL DUP3 MSTORE PUSH1 0x32 PUSH1 0x4 MSTORE PUSH1 0x24 DUP3 REVERT JUMPDEST POP CALLVALUE PUSH2 0x484 JUMPI PUSH1 0x20 CALLDATASIZE PUSH1 0x3 NOT ADD SLT PUSH2 0x484 JUMPI PUSH1 0x40 SWAP1 PUSH1 0x4 CALLDATALOAD DUP2 MSTORE PUSH1 0xCD PUSH1 0x20 MSTORE DUP2 DUP1 DUP3 KECCAK256 SLOAD SWAP2 PUSH1 0xCE PUSH1 0x20 MSTORE KECCAK256 SLOAD DUP3 MLOAD SWAP2 DUP3 MSTORE PUSH1 0x20 DUP3 ADD MSTORE RETURN JUMPDEST POP CALLVALUE PUSH2 0x484 JUMPI PUSH1 0x20 DUP1 PUSH1 0x3 NOT CALLDATASIZE ADD SLT PUSH2 0xAFE JUMPI PUSH1 0x1 PUSH1 0x1 PUSH1 0xA0 SHL SUB PUSH2 0x17A9 PUSH2 0x2C42 JUMP JUMPDEST AND DUP3 MSTORE PUSH1 0xD0 DUP2 MSTORE PUSH1 0x40 DUP3 KECCAK256 SWAP2 PUSH1 0x40 MLOAD DUP1 SWAP3 DUP1 DUP6 SLOAD SWAP3 DUP4 DUP2 MSTORE ADD SWAP5 DUP4 MSTORE DUP1 DUP4 KECCAK256 SWAP3 SWAP1 JUMPDEST DUP3 DUP3 LT PUSH2 0x17E2 JUMPI PUSH2 0x1375 DUP6 PUSH2 0x1369 DUP2 DUP10 SUB DUP3 PUSH2 0x2B3B JUMP JUMPDEST DUP4 SLOAD DUP7 MSTORE SWAP5 DUP6 ADD SWAP5 PUSH1 0x1 SWAP4 DUP5 ADD SWAP4 SWAP1 SWAP2 ADD SWAP1 PUSH2 0x17CB JUMP JUMPDEST POP CALLVALUE PUSH2 0x484 JUMPI DUP1 PUSH1 0x3 NOT CALLDATASIZE ADD SLT PUSH2 0x484 JUMPI PUSH1 0x33 SLOAD PUSH1 0x40 MLOAD PUSH1 0x1 PUSH1 0x1 PUSH1 0xA0 SHL SUB SWAP1 SWAP2 AND DUP2 MSTORE PUSH1 0x20 SWAP1 RETURN JUMPDEST POP CALLVALUE PUSH2 0x484 JUMPI PUSH1 0x40 CALLDATASIZE PUSH1 0x3 NOT ADD SLT PUSH2 0x484 JUMPI PUSH2 0x183C PUSH2 0x2C42 JUMP JUMPDEST PUSH1 0x1 PUSH1 0x1 PUSH1 0xA0 SHL SUB AND DUP2 MSTORE PUSH1 0xD0 PUSH1 0x20 MSTORE PUSH1 0x40 DUP2 KECCAK256 DUP1 SLOAD PUSH1 0x24 CALLDATALOAD SWAP3 SWAP1 DUP4 LT ISZERO PUSH2 0x484 JUMPI PUSH1 0x20 PUSH2 0x186A DUP5 DUP5 PUSH2 0x2C6E JUMP JUMPDEST SWAP1 SLOAD PUSH1 0x40 MLOAD SWAP2 PUSH1 0x3 SHL SHR DUP2 MSTORE RETURN JUMPDEST POP CALLVALUE PUSH2 0x484 JUMPI PUSH1 0x20 CALLDATASIZE PUSH1 0x3 NOT ADD SLT PUSH2 0x484 JUMPI PUSH1 0x4 CALLDATALOAD DUP1 ISZERO ISZERO DUP1 PUSH2 0x19A6 JUMPI JUMPDEST PUSH2 0x189F SWAP1 PUSH2 0x30A7 JUMP JUMPDEST DUP1 DUP3 MSTORE PUSH1 0xCA PUSH1 0x20 MSTORE PUSH1 0x40 DUP3 KECCAK256 PUSH1 0xB DUP2 ADD SWAP1 PUSH1 0x5 DUP3 SLOAD SWAP2 PUSH2 0x18C2 PUSH1 0xFF DUP5 AND ISZERO PUSH2 0x30EB JUMP JUMPDEST ADD SLOAD TIMESTAMP LT PUSH2 0x1961 JUMPI PUSH1 0xFF DUP2 PUSH1 0x10 SHR AND PUSH2 0x191C JUMPI PUSH3 0x10000 SWAP1 PUSH3 0xFF0000 NOT AND OR SWAP1 SSTORE PUSH32 0xC83104E48F44C8C7B89A4DEC1259A93BFFCEF18013DC1AC5891A260DE98A50E5 PUSH1 0x20 PUSH2 0x1912 PUSH1 0xD8 SLOAD TIMESTAMP PUSH2 0x3173 JUMP JUMPDEST PUSH1 0x40 MLOAD SWAP1 DUP2 MSTORE LOG2 DUP1 RETURN JUMPDEST PUSH1 0x40 MLOAD PUSH3 0x461BCD PUSH1 0xE5 SHL DUP2 MSTORE PUSH1 0x20 PUSH1 0x4 DUP3 ADD MSTORE PUSH1 0x19 PUSH1 0x24 DUP3 ADD MSTORE PUSH32 0x44414F20766F74696E6720616C72656164792061637469766500000000000000 PUSH1 0x44 DUP3 ADD MSTORE PUSH1 0x64 SWAP1 REVERT JUMPDEST PUSH1 0x40 MLOAD PUSH3 0x461BCD PUSH1 0xE5 SHL DUP2 MSTORE PUSH1 0x20 PUSH1 0x4 DUP3 ADD MSTORE PUSH1 0x1F PUSH1 0x24 DUP3 ADD MSTORE PUSH32 0x50726564696374696F6E20646561646C696E65206E6F74207265616368656400 PUSH1 0x44 DUP3 ADD MSTORE PUSH1 0x64 SWAP1 REVERT JUMPDEST POP PUSH1 0xC9 SLOAD DUP2 GT ISZERO PUSH2 0x1896 JUMP JUMPDEST POP CALLVALUE PUSH2 0x484 JUMPI PUSH1 0x60 CALLDATASIZE PUSH1 0x3 NOT ADD SLT PUSH2 0x484 JUMPI PUSH1 0x4 CALLDATALOAD PUSH2 0x19CF PUSH2 0x2CEE JUMP JUMPDEST SWAP1 PUSH1 0x44 CALLDATALOAD DUP2 ISZERO ISZERO DUP1 PUSH2 0x1B9D JUMPI JUMPDEST PUSH2 0x19E5 SWAP1 PUSH2 0x30A7 JUMP JUMPDEST DUP2 DUP5 MSTORE PUSH1 0x20 PUSH1 0xCA DUP2 MSTORE PUSH1 0xFF PUSH1 0xB PUSH1 0x40 DUP8 KECCAK256 ADD SLOAD PUSH2 0x1A04 DUP3 DUP3 AND ISZERO PUSH2 0x30EB JUMP JUMPDEST PUSH1 0x10 SHR AND ISZERO PUSH2 0x1B61 JUMPI DUP3 DUP6 MSTORE PUSH1 0xCC DUP2 MSTORE PUSH1 0x40 DUP6 KECCAK256 CALLER DUP7 MSTORE DUP2 MSTORE PUSH2 0x1A2E PUSH1 0xFF PUSH1 0x40 DUP8 KECCAK256 SLOAD AND ISZERO PUSH2 0x3137 JUMP JUMPDEST PUSH2 0x1A37 CALLER PUSH2 0x32C9 JUMP JUMPDEST ISZERO PUSH2 0x1B2A JUMPI PUSH32 0xF34F077F143D412407A903C03D8D2132B5DD9C006763FDF1FC57F5133610E64F SWAP2 PUSH2 0x1B08 SWAP2 PUSH1 0x40 MLOAD PUSH2 0x1A6E DUP2 PUSH2 0x2AC0 JUMP JUMPDEST PUSH1 0x1 DUP2 MSTORE PUSH1 0x1 DUP3 DUP3 ADD DUP9 ISZERO ISZERO DUP2 MSTORE PUSH2 0x1ACB PUSH1 0x40 DUP5 ADD SWAP2 DUP7 DUP4 MSTORE DUP10 DUP13 MSTORE PUSH1 0xCC DUP7 MSTORE PUSH1 0x40 DUP13 KECCAK256 CALLER DUP14 MSTORE DUP7 MSTORE PUSH2 0x1AB4 PUSH1 0x40 DUP14 KECCAK256 SWAP6 MLOAD ISZERO ISZERO DUP7 SWAP1 PUSH1 0xFF DUP1 NOT DUP4 SLOAD AND SWAP2 ISZERO ISZERO AND OR SWAP1 SSTORE JUMP JUMPDEST MLOAD DUP5 SLOAD PUSH2 0xFF00 NOT AND SWAP1 ISZERO ISZERO PUSH1 0x8 SHL PUSH2 0xFF00 AND OR DUP5 SSTORE JUMP JUMPDEST MLOAD SWAP2 ADD SSTORE DUP6 ISZERO PUSH2 0x1B0E JUMPI PUSH1 0xCD SWAP1 DUP6 DUP9 MSTORE MSTORE PUSH1 0x40 DUP7 KECCAK256 PUSH2 0x1AEA DUP2 SLOAD PUSH2 0x3082 JUMP JUMPDEST SWAP1 SSTORE JUMPDEST PUSH1 0x40 DUP1 MLOAD SWAP6 ISZERO ISZERO DUP7 MSTORE PUSH1 0x20 DUP7 ADD SWAP2 SWAP1 SWAP2 MSTORE CALLER SWAP5 SWAP2 DUP3 SWAP2 DUP3 ADD SWAP1 JUMP JUMPDEST SUB SWAP1 LOG3 DUP1 RETURN JUMPDEST PUSH1 0xCE SWAP1 DUP6 DUP9 MSTORE MSTORE PUSH1 0x40 DUP7 KECCAK256 PUSH2 0x1B23 DUP2 SLOAD PUSH2 0x3082 JUMP JUMPDEST SWAP1 SSTORE PUSH2 0x1AED JUMP JUMPDEST PUSH1 0x64 SWAP1 PUSH1 0x40 MLOAD SWAP1 PUSH3 0x461BCD PUSH1 0xE5 SHL DUP3 MSTORE PUSH1 0x4 DUP3 ADD MSTORE PUSH1 0x10 PUSH1 0x24 DUP3 ADD MSTORE PUSH16 0x2737BA1030902220A79036B2B6B132B9 PUSH1 0x81 SHL PUSH1 0x44 DUP3 ADD MSTORE REVERT JUMPDEST PUSH1 0x64 SWAP1 PUSH1 0x40 MLOAD SWAP1 PUSH3 0x461BCD PUSH1 0xE5 SHL DUP3 MSTORE PUSH1 0x4 DUP3 ADD MSTORE PUSH1 0x15 PUSH1 0x24 DUP3 ADD MSTORE PUSH21 0x44414F20766F74696E67206E6F7420616374697665 PUSH1 0x58 SHL PUSH1 0x44 DUP3 ADD MSTORE REVERT JUMPDEST POP PUSH1 0xC9 SLOAD DUP3 GT ISZERO PUSH2 0x19DC JUMP JUMPDEST POP CALLVALUE PUSH2 0x484 JUMPI PUSH1 0x40 CALLDATASIZE PUSH1 0x3 NOT ADD SLT PUSH2 0x484 JUMPI PUSH1 0x40 PUSH1 0x60 SWAP2 PUSH2 0x1BC8 PUSH2 0x2C58 JUMP JUMPDEST PUSH1 0x4 CALLDATALOAD DUP3 MSTORE PUSH1 0xCC PUSH1 0x20 MSTORE DUP3 DUP3 KECCAK256 SWAP1 PUSH1 0x1 DUP1 PUSH1 0xA0 SHL SUB AND DUP3 MSTORE PUSH1 0x20 MSTORE KECCAK256 PUSH1 0x1 DUP2 SLOAD SWAP2 ADD SLOAD PUSH1 0xFF PUSH1 0x40 MLOAD SWAP3 DUP2 DUP2 AND ISZERO ISZERO DUP5 MSTORE PUSH1 0x8 SHR AND ISZERO ISZERO PUSH1 0x20 DUP4 ADD MSTORE PUSH1 0x40 DUP3 ADD MSTORE RETURN JUMPDEST POP CALLVALUE PUSH2 0x484 JUMPI DUP1 PUSH1 0x3 NOT CALLDATASIZE ADD SLT PUSH2 0x484 JUMPI PUSH1 0xD4 SLOAD PUSH1 0x40 MLOAD PUSH1 0x1 PUSH1 0x1 PUSH1 0xA0 SHL SUB SWAP1 SWAP2 AND DUP2 MSTORE PUSH1 0x20 SWAP1 RETURN JUMPDEST POP CALLVALUE PUSH2 0x484 JUMPI DUP1 PUSH1 0x3 NOT CALLDATASIZE ADD SLT PUSH2 0x484 JUMPI PUSH1 0x20 PUSH1 0xD8 SLOAD PUSH1 0x40 MLOAD SWAP1 DUP2 MSTORE RETURN JUMPDEST POP CALLVALUE PUSH2 0x484 JUMPI DUP1 PUSH1 0x3 NOT CALLDATASIZE ADD SLT PUSH2 0x484 JUMPI PUSH2 0x1C6A PUSH2 0x2D56 JUMP JUMPDEST PUSH1 0x33 DUP1 SLOAD PUSH1 0x1 PUSH1 0x1 PUSH1 0xA0 SHL SUB NOT DUP2 AND SWAP1 SWAP2 SSTORE DUP2 SWAP1 PUSH1 0x1 PUSH1 0x1 PUSH1 0xA0 SHL SUB AND PUSH32 0x8BE0079C531659141344CD1FD0A4F28419497F9722A3DAAFE3B4186F6B6457E0 DUP3 DUP1 LOG3 DUP1 RETURN JUMPDEST POP PUSH1 0x40 CALLDATASIZE PUSH1 0x3 NOT ADD SLT PUSH2 0x484 JUMPI PUSH1 0x4 CALLDATALOAD PUSH2 0x1CC6 PUSH2 0x2CEE JUMP JUMPDEST SWAP1 DUP1 ISZERO ISZERO DUP1 PUSH2 0x1FE2 JUMPI JUMPDEST PUSH2 0x1CD9 SWAP1 PUSH2 0x30A7 JUMP JUMPDEST PUSH1 0xD6 SLOAD CALLVALUE LT PUSH2 0x1F9D JUMPI PUSH1 0xD7 SLOAD CALLVALUE GT PUSH2 0x1F60 JUMPI DUP1 DUP4 MSTORE PUSH1 0x20 PUSH1 0xCA DUP2 MSTORE PUSH1 0x40 DUP5 KECCAK256 PUSH2 0x1D09 PUSH1 0xFF PUSH1 0xB DUP4 ADD SLOAD AND ISZERO PUSH2 0x30EB JUMP JUMPDEST PUSH1 0x5 DUP2 ADD SLOAD TIMESTAMP LT ISZERO PUSH2 0x1F25 JUMPI DUP3 DUP6 MSTORE PUSH1 0xCB DUP3 MSTORE PUSH1 0x40 DUP6 KECCAK256 CALLER DUP7 MSTORE DUP3 MSTORE PUSH2 0x1D36 PUSH1 0xFF PUSH1 0x40 DUP8 KECCAK256 SLOAD AND ISZERO PUSH2 0x3137 JUMP JUMPDEST PUSH2 0x1D3F CALLER PUSH2 0x32C9 JUMP JUMPDEST ISZERO PUSH2 0x1EE0 JUMPI PUSH1 0x6 DUP2 ADD SLOAD CALLVALUE LT PUSH2 0x1E8B JUMPI SWAP1 PUSH1 0xD0 SWAP2 PUSH2 0x1DE2 PUSH1 0x40 MLOAD PUSH2 0x1D62 DUP2 PUSH2 0x2AF1 JUMP JUMPDEST PUSH1 0x1 DUP2 MSTORE PUSH1 0x2 DUP9 DUP6 DUP4 ADD DUP10 ISZERO ISZERO DUP2 MSTORE PUSH2 0x1DC6 PUSH1 0x40 DUP6 ADD SWAP2 CALLVALUE DUP4 MSTORE PUSH2 0x1DAF PUSH1 0x40 PUSH1 0x60 DUP9 ADD SWAP6 DUP1 DUP8 MSTORE DUP14 DUP2 MSTORE PUSH1 0xCB DUP13 MSTORE DUP2 DUP2 KECCAK256 CALLER DUP3 MSTORE DUP13 MSTORE KECCAK256 SWAP7 MLOAD ISZERO ISZERO DUP8 SWAP1 PUSH1 0xFF DUP1 NOT DUP4 SLOAD AND SWAP2 ISZERO ISZERO AND OR SWAP1 SSTORE JUMP JUMPDEST MLOAD DUP6 SLOAD PUSH2 0xFF00 NOT AND SWAP1 ISZERO ISZERO PUSH1 0x8 SHL PUSH2 0xFF00 AND OR DUP6 SSTORE JUMP JUMPDEST MLOAD PUSH1 0x1 DUP5 ADD SSTORE MLOAD ISZERO ISZERO SWAP2 ADD SWAP1 PUSH1 0xFF DUP1 NOT DUP4 SLOAD AND SWAP2 ISZERO ISZERO AND OR SWAP1 SSTORE JUMP JUMPDEST PUSH1 0x7 DUP2 ADD PUSH2 0x1DF1 CALLVALUE DUP3 SLOAD PUSH2 0x3173 JUMP JUMPDEST SWAP1 SSTORE PUSH1 0xA DUP2 ADD PUSH2 0x1E01 DUP2 SLOAD PUSH2 0x3082 JUMP JUMPDEST SWAP1 SSTORE DUP5 ISZERO PUSH2 0x1E76 JUMPI PUSH1 0x8 ADD PUSH2 0x1E17 CALLVALUE DUP3 SLOAD PUSH2 0x3173 JUMP JUMPDEST SWAP1 SSTORE JUMPDEST CALLER DUP6 MSTORE MSTORE PUSH2 0x1E2B DUP2 PUSH1 0x40 DUP6 KECCAK256 PUSH2 0x3046 JUMP JUMPDEST PUSH2 0x1E37 CALLVALUE PUSH1 0xDE SLOAD PUSH2 0x3173 JUMP JUMPDEST PUSH1 0xDE SSTORE PUSH1 0x40 DUP1 MLOAD SWAP3 ISZERO ISZERO DUP4 MSTORE CALLVALUE PUSH1 0x20 DUP5 ADD MSTORE CALLER SWAP3 PUSH32 0xCBDF6214089CBA887ECBF35A0B6A734589959C9763342C756BB2A80CA2BC9F6E SWAP2 DUP2 SWAP1 DUP2 ADD PUSH2 0x1B08 JUMP JUMPDEST PUSH1 0x9 ADD PUSH2 0x1E84 CALLVALUE DUP3 SLOAD PUSH2 0x3173 JUMP JUMPDEST SWAP1 SSTORE PUSH2 0x1E1A JUMP JUMPDEST PUSH1 0x40 MLOAD PUSH3 0x461BCD PUSH1 0xE5 SHL DUP2 MSTORE PUSH1 0x4 DUP2 ADD DUP4 SWAP1 MSTORE PUSH1 0x27 PUSH1 0x24 DUP3 ADD MSTORE PUSH32 0x566F746572207374616B65206D757374206265203E3D20617374726F6C6F6765 PUSH1 0x44 DUP3 ADD MSTORE PUSH7 0x72207374616B65 PUSH1 0xC8 SHL PUSH1 0x64 DUP3 ADD MSTORE PUSH1 0x84 SWAP1 REVERT JUMPDEST PUSH1 0x40 MLOAD PUSH3 0x461BCD PUSH1 0xE5 SHL DUP2 MSTORE PUSH1 0x4 DUP2 ADD DUP4 SWAP1 MSTORE PUSH1 0x1F PUSH1 0x24 DUP3 ADD MSTORE PUSH32 0x4D757374206F776E20417374726F4368617274204E465420746F20766F746500 PUSH1 0x44 DUP3 ADD MSTORE PUSH1 0x64 SWAP1 REVERT JUMPDEST PUSH1 0x40 MLOAD PUSH3 0x461BCD PUSH1 0xE5 SHL DUP2 MSTORE PUSH1 0x4 DUP2 ADD DUP4 SWAP1 MSTORE PUSH1 0x13 PUSH1 0x24 DUP3 ADD MSTORE PUSH19 0x159BDD1A5B99C81C195C9A5BD908195B991959 PUSH1 0x6A SHL PUSH1 0x44 DUP3 ADD MSTORE PUSH1 0x64 SWAP1 REVERT JUMPDEST PUSH1 0x40 MLOAD PUSH3 0x461BCD PUSH1 0xE5 SHL DUP2 MSTORE PUSH1 0x20 PUSH1 0x4 DUP3 ADD MSTORE PUSH1 0x15 PUSH1 0x24 DUP3 ADD MSTORE PUSH21 0xA6E8C2D6CA40C2DADEEADCE840E8DEDE40D0D2CED PUSH1 0x5B SHL PUSH1 0x44 DUP3 ADD MSTORE PUSH1 0x64 SWAP1 REVERT JUMPDEST PUSH1 0x40 MLOAD PUSH3 0x461BCD PUSH1 0xE5 SHL DUP2 MSTORE PUSH1 0x20 PUSH1 0x4 DUP3 ADD MSTORE PUSH1 0x18 PUSH1 0x24 DUP3 ADD MSTORE PUSH32 0x496E73756666696369656E7420766F746572207374616B650000000000000000 PUSH1 0x44 DUP3 ADD MSTORE PUSH1 0x64 SWAP1 REVERT JUMPDEST POP PUSH1 0xC9 SLOAD DUP2 GT ISZERO PUSH2 0x1CD0 JUMP JUMPDEST POP CALLVALUE PUSH2 0x484 JUMPI DUP1 PUSH1 0x3 NOT CALLDATASIZE ADD SLT PUSH2 0x484 JUMPI PUSH1 0xD1 SLOAD PUSH1 0x40 MLOAD PUSH1 0x1 PUSH1 0x1 PUSH1 0xA0 SHL SUB SWAP1 SWAP2 AND DUP2 MSTORE PUSH1 0x20 SWAP1 RETURN JUMPDEST POP CALLVALUE PUSH2 0x484 JUMPI PUSH1 0x40 CALLDATASIZE PUSH1 0x3 NOT ADD SLT PUSH2 0x484 JUMPI PUSH1 0x24 CALLDATALOAD PUSH1 0x4 CALLDATALOAD PUSH2 0x2037 PUSH2 0x2D56 JUMP JUMPDEST PUSH2 0x3E8 PUSH2 0x2044 DUP4 DUP4 PUSH2 0x3173 JUMP JUMPDEST GT PUSH2 0x2052 JUMPI PUSH1 0xD9 SSTORE PUSH1 0xDA SSTORE DUP1 RETURN JUMPDEST PUSH1 0x40 MLOAD PUSH3 0x461BCD PUSH1 0xE5 SHL DUP2 MSTORE PUSH1 0x20 PUSH1 0x4 DUP3 ADD MSTORE PUSH1 0x23 PUSH1 0x24 DUP3 ADD MSTORE PUSH32 0x546F74616C2070657263656E74616765732063616E6E6F742065786365656420 PUSH1 0x44 DUP3 ADD MSTORE PUSH3 0x313025 PUSH1 0xE8 SHL PUSH1 0x64 DUP3 ADD MSTORE PUSH1 0x84 SWAP1 REVERT JUMPDEST POP CALLVALUE PUSH2 0x484 JUMPI PUSH1 0x20 CALLDATASIZE PUSH1 0x3 NOT ADD SLT PUSH2 0x484 JUMPI PUSH2 0x20BD PUSH2 0x2C42 JUMP JUMPDEST PUSH2 0x20C5 PUSH2 0x2D56 JUMP JUMPDEST PUSH1 0x1 DUP1 PUSH1 0xA0 SHL SUB AND PUSH1 0x1 PUSH1 0x1 PUSH1 0x60 SHL SUB PUSH1 0xA0 SHL PUSH1 0xD3 SLOAD AND OR PUSH1 0xD3 SSTORE DUP1 RETURN JUMPDEST POP CALLVALUE PUSH2 0x484 JUMPI DUP1 PUSH1 0x3 NOT CALLDATASIZE ADD SLT PUSH2 0x484 JUMPI PUSH1 0x20 PUSH1 0xD5 SLOAD PUSH1 0x40 MLOAD SWAP1 DUP2 MSTORE RETURN JUMPDEST POP CALLVALUE PUSH2 0x484 JUMPI PUSH1 0x40 CALLDATASIZE PUSH1 0x3 NOT ADD SLT PUSH2 0x484 JUMPI PUSH1 0x20 PUSH2 0x2128 PUSH2 0x2120 PUSH2 0x2C58 JUMP JUMPDEST PUSH1 0x4 CALLDATALOAD PUSH2 0x31A0 JUMP JUMPDEST PUSH1 0x40 MLOAD SWAP1 DUP2 MSTORE RETURN JUMPDEST POP CALLVALUE PUSH2 0x484 JUMPI PUSH1 0x20 CALLDATASIZE PUSH1 0x3 NOT ADD SLT PUSH2 0x484 JUMPI PUSH1 0x40 PUSH1 0x20 SWAP2 PUSH1 0x4 CALLDATALOAD DUP2 MSTORE PUSH1 0xCD DUP4 MSTORE KECCAK256 SLOAD PUSH1 0x40 MLOAD SWAP1 DUP2 MSTORE RETURN JUMPDEST POP CALLVALUE PUSH2 0x484 JUMPI DUP1 PUSH1 0x3 NOT CALLDATASIZE ADD SLT PUSH2 0x484 JUMPI PUSH32 0x0 PUSH1 0x1 PUSH1 0x1 PUSH1 0xA0 SHL SUB AND ADDRESS SUB PUSH2 0x21B3 JUMPI PUSH1 0x20 PUSH1 0x40 MLOAD PUSH1 0x0 DUP1 MLOAD PUSH1 0x20 PUSH2 0x336A DUP4 CODECOPY DUP2 MLOAD SWAP2 MSTORE DUP2 MSTORE RETURN JUMPDEST PUSH1 0x40 MLOAD PUSH3 0x461BCD PUSH1 0xE5 SHL DUP2 MSTORE PUSH1 0x20 PUSH1 0x4 DUP3 ADD MSTORE PUSH1 0x38 PUSH1 0x24 DUP3 ADD MSTORE PUSH32 0x555550535570677261646561626C653A206D757374206E6F742062652063616C PUSH1 0x44 DUP3 ADD MSTORE PUSH32 0x6C6564207468726F7567682064656C656761746563616C6C0000000000000000 PUSH1 0x64 DUP3 ADD MSTORE PUSH1 0x84 SWAP1 REVERT JUMPDEST POP PUSH1 0x40 CALLDATASIZE PUSH1 0x3 NOT ADD SLT PUSH2 0x484 JUMPI PUSH2 0x2233 PUSH2 0x2C42 JUMP JUMPDEST PUSH1 0x24 CALLDATALOAD PUSH1 0x1 PUSH1 0x1 PUSH1 0x40 SHL SUB DUP2 GT PUSH2 0x994 JUMPI CALLDATASIZE PUSH1 0x23 DUP3 ADD SLT ISZERO PUSH2 0x994 JUMPI PUSH2 0x2263 SWAP1 CALLDATASIZE SWAP1 PUSH1 0x24 DUP2 PUSH1 0x4 ADD CALLDATALOAD SWAP2 ADD PUSH2 0x2CB7 JUMP JUMPDEST PUSH1 0x1 PUSH1 0x1 PUSH1 0xA0 SHL SUB PUSH32 0x0 DUP2 AND SWAP3 SWAP2 SWAP1 PUSH2 0x229D ADDRESS DUP6 EQ ISZERO PUSH2 0x2DF7 JUMP JUMPDEST PUSH2 0x22BA PUSH1 0x0 DUP1 MLOAD PUSH1 0x20 PUSH2 0x336A DUP4 CODECOPY DUP2 MLOAD SWAP2 MSTORE SWAP5 DUP3 DUP7 SLOAD AND EQ PUSH2 0x2E58 JUMP JUMPDEST PUSH2 0x22C2 PUSH2 0x2D56 JUMP JUMPDEST PUSH32 0x4910FDFA16FED3260ED0E7147F7CC6DA11A60208B5B9406D12A635614FFD9143 SLOAD PUSH1 0xFF AND ISZERO PUSH2 0x22F8 JUMPI POP POP PUSH2 0x4DF SWAP2 POP PUSH2 0x2EB9 JUMP JUMPDEST DUP3 AND PUSH1 0x40 MLOAD SWAP4 PUSH4 0x52D1902D PUSH1 0xE0 SHL DUP6 MSTORE PUSH1 0x20 SWAP5 DUP6 DUP2 PUSH1 0x4 DUP2 DUP7 GAS STATICCALL DUP8 SWAP2 DUP2 PUSH2 0x24BA JUMPI JUMPDEST POP PUSH2 0x237C JUMPI PUSH1 0x40 MLOAD PUSH3 0x461BCD PUSH1 0xE5 SHL DUP2 MSTORE PUSH1 0x4 DUP2 ADD DUP8 SWAP1 MSTORE PUSH1 0x2E PUSH1 0x24 DUP3 ADD MSTORE PUSH32 0x45524331393637557067726164653A206E657720696D706C656D656E74617469 PUSH1 0x44 DUP3 ADD MSTORE PUSH14 0x6F6E206973206E6F742055555053 PUSH1 0x90 SHL PUSH1 0x64 DUP3 ADD MSTORE PUSH1 0x84 SWAP1 REVERT JUMPDEST SWAP5 SWAP3 SWAP4 SWAP5 SUB PUSH2 0x2463 JUMPI PUSH2 0x238E DUP5 PUSH2 0x2EB9 JUMP JUMPDEST PUSH32 0xBC7CD75A20EE27FD9ADEBAB32041F755214DBC6BFFA90CC0225B39DA2E5C2D3B DUP6 DUP1 LOG2 DUP2 MLOAD ISZERO DUP1 ISZERO SWAP1 PUSH2 0x245B JUMPI JUMPDEST PUSH2 0x23C8 JUMPI JUMPDEST POP POP POP DUP1 RETURN JUMPDEST PUSH2 0x2449 SWAP3 DUP5 DUP1 PUSH1 0x40 MLOAD SWAP5 PUSH2 0x23DB DUP7 PUSH2 0x2AC0 JUMP JUMPDEST PUSH1 0x27 DUP7 MSTORE PUSH32 0x416464726573733A206C6F772D6C6576656C2064656C65676174652063616C6C DUP6 DUP8 ADD MSTORE PUSH7 0x819985A5B1959 PUSH1 0xCA SHL PUSH1 0x40 DUP8 ADD MSTORE DUP5 DUP2 MLOAD SWAP2 ADD DUP5 GAS DELEGATECALL SWAP1 RETURNDATASIZE ISZERO PUSH2 0x2452 JUMPI RETURNDATASIZE PUSH2 0x242D DUP2 PUSH2 0x2C9C JUMP JUMPDEST SWAP1 PUSH2 0x243B PUSH1 0x40 MLOAD SWAP3 DUP4 PUSH2 0x2B3B JUMP JUMPDEST DUP2 MSTORE DUP7 DUP2 SWAP5 RETURNDATASIZE SWAP3 ADD RETURNDATACOPY PUSH2 0x2F49 JUMP JUMPDEST POP CODESIZE DUP1 DUP1 PUSH2 0x23C2 JUMP JUMPDEST PUSH1 0x60 SWAP3 POP PUSH2 0x2F49 JUMP JUMPDEST POP PUSH1 0x1 PUSH2 0x23BD JUMP JUMPDEST PUSH1 0x40 MLOAD PUSH3 0x461BCD PUSH1 0xE5 SHL DUP2 MSTORE PUSH1 0x4 DUP2 ADD DUP4 SWAP1 MSTORE PUSH1 0x29 PUSH1 0x24 DUP3 ADD MSTORE PUSH32 0x45524331393637557067726164653A20756E737570706F727465642070726F78 PUSH1 0x44 DUP3 ADD MSTORE PUSH9 0x1A58589B1955555251 PUSH1 0xBA SHL PUSH1 0x64 DUP3 ADD MSTORE PUSH1 0x84 SWAP1 REVERT JUMPDEST SWAP1 SWAP2 POP DUP7 DUP2 DUP2 RETURNDATASIZE DUP4 GT PUSH2 0x24E6 JUMPI JUMPDEST PUSH2 0x24D2 DUP2 DUP4 PUSH2 0x2B3B JUMP JUMPDEST DUP2 ADD SUB SLT PUSH2 0x24E2 JUMPI MLOAD SWAP1 CODESIZE PUSH2 0x231B JUMP JUMPDEST DUP8 DUP1 REVERT JUMPDEST POP RETURNDATASIZE PUSH2 0x24C8 JUMP JUMPDEST POP CALLVALUE PUSH2 0x484 JUMPI PUSH1 0x20 CALLDATASIZE PUSH1 0x3 NOT ADD SLT PUSH2 0x484 JUMPI PUSH2 0x2507 PUSH2 0x2C42 JUMP JUMPDEST PUSH2 0x250F PUSH2 0x2D56 JUMP JUMPDEST PUSH1 0x1 DUP1 PUSH1 0xA0 SHL SUB AND PUSH1 0x1 PUSH1 0x1 PUSH1 0x60 SHL SUB PUSH1 0xA0 SHL PUSH1 0xD1 SLOAD AND OR PUSH1 0xD1 SSTORE DUP1 RETURN JUMPDEST POP CALLVALUE PUSH2 0x484 JUMPI PUSH1 0x40 CALLDATASIZE PUSH1 0x3 NOT ADD SLT PUSH2 0x484 JUMPI PUSH1 0x40 PUSH1 0x60 SWAP2 PUSH2 0x254C PUSH2 0x2C58 JUMP JUMPDEST DUP2 DUP4 DUP1 MLOAD PUSH2 0x2559 DUP2 PUSH2 0x2AC0 JUMP JUMPDEST DUP3 DUP2 MSTORE DUP3 PUSH1 0x20 DUP3 ADD MSTORE ADD MSTORE PUSH1 0x4 CALLDATALOAD DUP3 MSTORE PUSH1 0xCC PUSH1 0x20 MSTORE DUP3 DUP3 KECCAK256 SWAP1 PUSH1 0x1 DUP1 PUSH1 0xA0 SHL SUB AND DUP3 MSTORE PUSH1 0x20 MSTORE KECCAK256 PUSH1 0x40 MLOAD PUSH2 0x258C DUP2 PUSH2 0x2AC0 JUMP JUMPDEST DUP2 SLOAD PUSH1 0x40 PUSH1 0x1 PUSH1 0xFF DUP4 AND ISZERO ISZERO SWAP5 DUP6 DUP6 MSTORE PUSH1 0xFF PUSH1 0x20 DUP7 ADD SWAP5 PUSH1 0x8 SHR AND ISZERO ISZERO DUP5 MSTORE ADD SLOAD SWAP3 ADD SWAP2 DUP3 MSTORE PUSH1 0x40 MLOAD SWAP3 DUP4 MSTORE MLOAD ISZERO ISZERO PUSH1 0x20 DUP4 ADD MSTORE MLOAD PUSH1 0x40 DUP3 ADD MSTORE RETURN JUMPDEST POP CALLVALUE PUSH2 0x484 JUMPI DUP1 PUSH1 0x3 NOT CALLDATASIZE ADD SLT PUSH2 0x484 JUMPI PUSH2 0x25E1 PUSH2 0x2D56 JUMP JUMPDEST DUP1 DUP1 DUP1 DUP1 PUSH1 0x1 DUP1 PUSH1 0xA0 SHL SUB PUSH1 0x33 SLOAD AND SELFBALANCE SWAP1 DUP3 DUP3 ISZERO PUSH2 0x260F JUMPI JUMPDEST CALL ISZERO PUSH2 0x2603 JUMPI DUP1 RETURN JUMPDEST PUSH1 0x40 MLOAD SWAP1 RETURNDATASIZE SWAP1 DUP3 RETURNDATACOPY RETURNDATASIZE SWAP1 REVERT JUMPDEST POP PUSH2 0x8FC PUSH2 0x25FA JUMP JUMPDEST POP CALLVALUE PUSH2 0x484 JUMPI PUSH1 0x40 CALLDATASIZE PUSH1 0x3 NOT ADD SLT PUSH2 0x484 JUMPI PUSH2 0x2632 PUSH2 0x2C42 JUMP JUMPDEST PUSH1 0x1 PUSH1 0x1 PUSH1 0xA0 SHL SUB AND DUP2 MSTORE PUSH1 0xCF PUSH1 0x20 MSTORE PUSH1 0x40 DUP2 KECCAK256 DUP1 SLOAD PUSH1 0x24 CALLDATALOAD SWAP3 SWAP1 DUP4 LT ISZERO PUSH2 0x484 JUMPI PUSH1 0x20 PUSH2 0x186A DUP5 DUP5 PUSH2 0x2C6E JUMP JUMPDEST POP CALLVALUE PUSH2 0x484 JUMPI PUSH1 0x20 DUP1 PUSH1 0x3 NOT CALLDATASIZE ADD SLT PUSH2 0xAFE JUMPI PUSH2 0x267B PUSH2 0x2C42 JUMP JUMPDEST PUSH1 0x1 PUSH1 0x1 PUSH1 0xA0 SHL SUB PUSH32 0x0 DUP2 AND PUSH2 0x26B2 ADDRESS DUP3 EQ ISZERO PUSH2 0x2DF7 JUMP JUMPDEST PUSH2 0x26CF PUSH1 0x0 DUP1 MLOAD PUSH1 0x20 PUSH2 0x336A DUP4 CODECOPY DUP2 MLOAD SWAP2 MSTORE SWAP2 DUP4 DUP4 SLOAD AND EQ PUSH2 0x2E58 JUMP JUMPDEST PUSH2 0x26D7 PUSH2 0x2D56 JUMP JUMPDEST PUSH1 0x40 MLOAD SWAP1 DUP5 DUP3 ADD SWAP3 DUP3 DUP5 LT PUSH1 0x1 PUSH1 0x1 PUSH1 0x40 SHL SUB DUP6 GT OR PUSH2 0xF43 JUMPI DUP4 PUSH1 0x40 MSTORE DUP7 DUP4 MSTORE PUSH1 0xFF PUSH32 0x4910FDFA16FED3260ED0E7147F7CC6DA11A60208B5B9406D12A635614FFD9143 SLOAD AND PUSH1 0x0 EQ PUSH2 0x2732 JUMPI POP POP POP POP PUSH2 0x4DF SWAP2 POP PUSH2 0x2EB9 JUMP JUMPDEST DUP5 SWAP3 SWAP4 SWAP5 AND SWAP1 PUSH1 0x40 MLOAD PUSH4 0x52D1902D PUSH1 0xE0 SHL DUP2 MSTORE DUP7 DUP2 PUSH1 0x4 DUP2 DUP7 GAS STATICCALL DUP9 SWAP2 DUP2 PUSH2 0x28CF JUMPI JUMPDEST POP PUSH2 0x27B6 JUMPI PUSH1 0x40 MLOAD PUSH3 0x461BCD PUSH1 0xE5 SHL DUP2 MSTORE PUSH1 0x4 DUP2 ADD DUP9 SWAP1 MSTORE PUSH1 0x2E PUSH1 0x24 DUP3 ADD MSTORE PUSH32 0x45524331393637557067726164653A206E657720696D706C656D656E74617469 PUSH1 0x44 DUP3 ADD MSTORE PUSH14 0x6F6E206973206E6F742055555053 PUSH1 0x90 SHL PUSH1 0x64 DUP3 ADD MSTORE PUSH1 0x84 SWAP1 REVERT JUMPDEST SWAP6 SWAP4 SWAP5 SWAP6 SUB PUSH2 0x2878 JUMPI PUSH2 0x27C8 DUP3 PUSH2 0x2EB9 JUMP JUMPDEST PUSH32 0xBC7CD75A20EE27FD9ADEBAB32041F755214DBC6BFFA90CC0225B39DA2E5C2D3B DUP7 DUP1 LOG2 DUP5 DUP4 MLOAD ISZERO DUP1 ISZERO SWAP1 PUSH2 0x2871 JUMPI JUMPDEST PUSH2 0x2805 JUMPI JUMPDEST POP POP POP POP POP DUP1 RETURN JUMPDEST DUP1 PUSH2 0x2866 SWAP6 PUSH1 0x40 MLOAD SWAP6 PUSH2 0x2817 DUP8 PUSH2 0x2AC0 JUMP JUMPDEST PUSH1 0x27 DUP8 MSTORE PUSH32 0x416464726573733A206C6F772D6C6576656C2064656C65676174652063616C6C DUP7 DUP9 ADD MSTORE PUSH7 0x819985A5B1959 PUSH1 0xCA SHL PUSH1 0x40 DUP9 ADD MSTORE MLOAD SWAP1 DUP5 GAS DELEGATECALL SWAP1 RETURNDATASIZE ISZERO PUSH2 0x2452 JUMPI RETURNDATASIZE PUSH2 0x242D DUP2 PUSH2 0x2C9C JUMP JUMPDEST POP CODESIZE DUP1 DUP1 DUP1 DUP5 PUSH2 0x27FD JUMP JUMPDEST POP DUP1 PUSH2 0x27F8 JUMP JUMPDEST PUSH1 0x40 MLOAD PUSH3 0x461BCD PUSH1 0xE5 SHL DUP2 MSTORE PUSH1 0x4 DUP2 ADD DUP5 SWAP1 MSTORE PUSH1 0x29 PUSH1 0x24 DUP3 ADD MSTORE PUSH32 0x45524331393637557067726164653A20756E737570706F727465642070726F78 PUSH1 0x44 DUP3 ADD MSTORE PUSH9 0x1A58589B1955555251 PUSH1 0xBA SHL PUSH1 0x64 DUP3 ADD MSTORE PUSH1 0x84 SWAP1 REVERT JUMPDEST SWAP1 SWAP2 POP DUP8 DUP2 DUP2 RETURNDATASIZE DUP4 GT PUSH2 0x28FB JUMPI JUMPDEST PUSH2 0x28E7 DUP2 DUP4 PUSH2 0x2B3B JUMP JUMPDEST DUP2 ADD SUB SLT PUSH2 0x28F7 JUMPI MLOAD SWAP1 CODESIZE PUSH2 0x2755 JUMP JUMPDEST DUP9 DUP1 REVERT JUMPDEST POP RETURNDATASIZE PUSH2 0x28DD JUMP JUMPDEST POP CALLVALUE PUSH2 0x484 JUMPI PUSH1 0x20 CALLDATASIZE PUSH1 0x3 NOT ADD SLT PUSH2 0x484 JUMPI PUSH2 0x291C PUSH2 0x2D56 JUMP JUMPDEST PUSH1 0x4 CALLDATALOAD PUSH1 0xD8 SSTORE DUP1 RETURN JUMPDEST POP CALLVALUE PUSH2 0x484 JUMPI PUSH1 0x20 CALLDATASIZE PUSH1 0x3 NOT ADD SLT PUSH2 0x484 JUMPI PUSH1 0x40 PUSH1 0x20 SWAP2 PUSH1 0x4 CALLDATALOAD DUP2 MSTORE PUSH1 0xCE DUP4 MSTORE KECCAK256 SLOAD PUSH1 0x40 MLOAD SWAP1 DUP2 MSTORE RETURN JUMPDEST POP CALLVALUE PUSH2 0x484 JUMPI DUP1 PUSH1 0x3 NOT CALLDATASIZE ADD SLT PUSH2 0x484 JUMPI PUSH1 0x20 PUSH1 0xD7 SLOAD PUSH1 0x40 MLOAD SWAP1 DUP2 MSTORE RETURN JUMPDEST POP CALLVALUE PUSH2 0x484 JUMPI PUSH1 0x20 CALLDATASIZE PUSH1 0x3 NOT ADD SLT PUSH2 0x484 JUMPI PUSH1 0x4 CALLDATALOAD DUP2 MSTORE PUSH1 0xCA PUSH1 0x20 MSTORE PUSH1 0x40 SWAP1 KECCAK256 DUP1 SLOAD PUSH1 0x1 DUP3 ADD SLOAD PUSH1 0x2 DUP4 ADD SLOAD PUSH1 0x1 PUSH1 0x1 PUSH1 0xA0 SHL SUB SWAP1 SWAP2 AND SWAP3 SWAP1 PUSH2 0x29B2 PUSH1 0x3 DUP4 ADD PUSH2 0x2B5C JUMP JUMPDEST SWAP2 PUSH2 0x29BF PUSH1 0x4 DUP3 ADD PUSH2 0x2B5C JUMP JUMPDEST SWAP3 PUSH1 0x5 DUP3 ADD SLOAD SWAP4 PUSH1 0x6 DUP4 ADD SLOAD PUSH1 0x7 DUP5 ADD SLOAD PUSH1 0x8 DUP6 ADD SLOAD SWAP1 PUSH1 0x9 DUP7 ADD SLOAD SWAP3 PUSH1 0xA DUP8 ADD SLOAD SWAP5 PUSH1 0xB DUP9 ADD SLOAD SWAP7 PUSH1 0xC DUP10 ADD SLOAD SWAP9 PUSH1 0xD ADD SLOAD SWAP10 PUSH1 0x40 MLOAD SWAP14 DUP15 DUP1 SWAP15 DUP2 MSTORE PUSH1 0x20 ADD MSTORE PUSH1 0x40 DUP14 ADD MSTORE DUP12 PUSH2 0x200 PUSH1 0x60 DUP2 SWAP3 ADD MSTORE DUP13 ADD PUSH2 0x2A1A SWAP2 PUSH2 0x2C02 JUMP JUMPDEST DUP12 DUP2 SUB PUSH1 0x80 DUP14 ADD MSTORE PUSH2 0x2A2B SWAP2 PUSH2 0x2C02 JUMP JUMPDEST SWAP9 PUSH1 0xA0 DUP12 ADD MSTORE PUSH1 0xC0 DUP11 ADD MSTORE PUSH1 0xE0 DUP10 ADD MSTORE PUSH2 0x100 DUP9 ADD MSTORE PUSH2 0x120 DUP8 ADD MSTORE PUSH2 0x140 DUP7 ADD MSTORE PUSH1 0xFF DUP2 AND ISZERO ISZERO PUSH2 0x160 DUP7 ADD MSTORE DUP1 PUSH1 0x8 SHR PUSH1 0xFF AND ISZERO ISZERO PUSH2 0x180 DUP7 ADD MSTORE PUSH1 0x10 SHR PUSH1 0xFF AND ISZERO ISZERO PUSH2 0x1A0 DUP6 ADD MSTORE PUSH2 0x1C0 DUP5 ADD MSTORE PUSH2 0x1E0 DUP4 ADD MSTORE SUB SWAP1 RETURN JUMPDEST SWAP1 PUSH1 0x1 DUP3 DUP2 SHR SWAP3 AND DUP1 ISZERO PUSH2 0x2AB6 JUMPI JUMPDEST PUSH1 0x20 DUP4 LT EQ PUSH2 0x2AA0 JUMPI JUMP JUMPDEST PUSH4 0x4E487B71 PUSH1 0xE0 SHL PUSH1 0x0 MSTORE PUSH1 0x22 PUSH1 0x4 MSTORE PUSH1 0x24 PUSH1 0x0 REVERT JUMPDEST SWAP2 PUSH1 0x7F AND SWAP2 PUSH2 0x2A95 JUMP JUMPDEST PUSH1 0x60 DUP2 ADD SWAP1 DUP2 LT PUSH1 0x1 PUSH1 0x1 PUSH1 0x40 SHL SUB DUP3 GT OR PUSH2 0x2ADB JUMPI PUSH1 0x40 MSTORE JUMP JUMPDEST PUSH4 0x4E487B71 PUSH1 0xE0 SHL PUSH1 0x0 MSTORE PUSH1 0x41 PUSH1 0x4 MSTORE PUSH1 0x24 PUSH1 0x0 REVERT JUMPDEST PUSH1 0x80 DUP2 ADD SWAP1 DUP2 LT PUSH1 0x1 PUSH1 0x1 PUSH1 0x40 SHL SUB DUP3 GT OR PUSH2 0x2ADB JUMPI PUSH1 0x40 MSTORE JUMP JUMPDEST PUSH2 0x200 DUP2 ADD SWAP1 DUP2 LT PUSH1 0x1 PUSH1 0x1 PUSH1 0x40 SHL SUB DUP3 GT OR PUSH2 0x2ADB JUMPI PUSH1 0x40 MSTORE JUMP JUMPDEST PUSH1 0x1 PUSH1 0x1 PUSH1 0x40 SHL SUB DUP2 GT PUSH2 0x2ADB JUMPI PUSH1 0x40 MSTORE JUMP JUMPDEST SWAP1 PUSH1 0x1F DUP1 NOT SWAP2 ADD AND DUP2 ADD SWAP1 DUP2 LT PUSH1 0x1 PUSH1 0x1 PUSH1 0x40 SHL SUB DUP3 GT OR PUSH2 0x2ADB JUMPI PUSH1 0x40 MSTORE JUMP JUMPDEST SWAP1 PUSH1 0x40 MLOAD SWAP2 DUP3 PUSH1 0x0 DUP3 SLOAD SWAP3 PUSH2 0x2B70 DUP5 PUSH2 0x2A86 JUMP JUMPDEST SWAP1 DUP2 DUP5 MSTORE PUSH1 0x1 SWAP5 DUP6 DUP2 AND SWAP1 DUP2 PUSH1 0x0 EQ PUSH2 0x2BDF JUMPI POP PUSH1 0x1 EQ PUSH2 0x2B9C JUMPI JUMPDEST POP POP PUSH2 0x2B9A SWAP3 POP SUB DUP4 PUSH2 0x2B3B JUMP JUMPDEST JUMP JUMPDEST SWAP1 SWAP4 SWAP2 POP PUSH1 0x0 MSTORE PUSH1 0x20 SWAP1 DUP2 PUSH1 0x0 KECCAK256 SWAP4 PUSH1 0x0 SWAP2 JUMPDEST DUP2 DUP4 LT PUSH2 0x2BC7 JUMPI POP POP PUSH2 0x2B9A SWAP4 POP DUP3 ADD ADD CODESIZE DUP1 PUSH2 0x2B8C JUMP JUMPDEST DUP6 SLOAD DUP9 DUP5 ADD DUP6 ADD MSTORE SWAP5 DUP6 ADD SWAP5 DUP8 SWAP5 POP SWAP2 DUP4 ADD SWAP2 PUSH2 0x2BAF JUMP JUMPDEST SWAP2 POP POP PUSH2 0x2B9A SWAP5 POP PUSH1 0x20 SWAP3 POP PUSH1 0xFF NOT AND DUP3 DUP5 ADD MSTORE ISZERO ISZERO PUSH1 0x5 SHL DUP3 ADD ADD CODESIZE DUP1 PUSH2 0x2B8C JUMP JUMPDEST SWAP2 SWAP1 DUP3 MLOAD SWAP3 DUP4 DUP3 MSTORE PUSH1 0x0 JUMPDEST DUP5 DUP2 LT PUSH2 0x2C2E JUMPI POP POP DUP3 PUSH1 0x0 PUSH1 0x20 DUP1 SWAP5 SWAP6 DUP5 ADD ADD MSTORE PUSH1 0x1F DUP1 NOT SWAP2 ADD AND ADD ADD SWAP1 JUMP JUMPDEST PUSH1 0x20 DUP2 DUP4 ADD DUP2 ADD MLOAD DUP5 DUP4 ADD DUP3 ADD MSTORE ADD PUSH2 0x2C0D JUMP JUMPDEST PUSH1 0x4 CALLDATALOAD SWAP1 PUSH1 0x1 PUSH1 0x1 PUSH1 0xA0 SHL SUB DUP3 AND DUP3 SUB PUSH2 0x746 JUMPI JUMP JUMPDEST PUSH1 0x24 CALLDATALOAD SWAP1 PUSH1 0x1 PUSH1 0x1 PUSH1 0xA0 SHL SUB DUP3 AND DUP3 SUB PUSH2 0x746 JUMPI JUMP JUMPDEST DUP1 SLOAD DUP3 LT ISZERO PUSH2 0x2C86 JUMPI PUSH1 0x0 MSTORE PUSH1 0x20 PUSH1 0x0 KECCAK256 ADD SWAP1 PUSH1 0x0 SWAP1 JUMP JUMPDEST PUSH4 0x4E487B71 PUSH1 0xE0 SHL PUSH1 0x0 MSTORE PUSH1 0x32 PUSH1 0x4 MSTORE PUSH1 0x24 PUSH1 0x0 REVERT JUMPDEST PUSH1 0x1 PUSH1 0x1 PUSH1 0x40 SHL SUB DUP2 GT PUSH2 0x2ADB JUMPI PUSH1 0x1F ADD PUSH1 0x1F NOT AND PUSH1 0x20 ADD SWAP1 JUMP JUMPDEST SWAP3 SWAP2 SWAP3 PUSH2 0x2CC3 DUP3 PUSH2 0x2C9C JUMP JUMPDEST SWAP2 PUSH2 0x2CD1 PUSH1 0x40 MLOAD SWAP4 DUP5 PUSH2 0x2B3B JUMP JUMPDEST DUP3 SWAP5 DUP2 DUP5 MSTORE DUP2 DUP4 ADD GT PUSH2 0x746 JUMPI DUP3 DUP2 PUSH1 0x20 SWAP4 DUP5 PUSH1 0x0 SWAP7 ADD CALLDATACOPY ADD ADD MSTORE JUMP JUMPDEST PUSH1 0x24 CALLDATALOAD SWAP1 DUP2 ISZERO ISZERO DUP3 SUB PUSH2 0x746 JUMPI JUMP JUMPDEST PUSH1 0x20 SWAP1 DUP2 PUSH1 0x40 DUP2 DUP4 ADD SWAP3 DUP3 DUP2 MSTORE DUP6 MLOAD DUP1 SWAP5 MSTORE ADD SWAP4 ADD SWAP2 PUSH1 0x0 JUMPDEST DUP3 DUP2 LT PUSH2 0x2D24 JUMPI POP POP POP POP SWAP1 JUMP JUMPDEST DUP4 MLOAD DUP6 MSTORE SWAP4 DUP2 ADD SWAP4 SWAP3 DUP2 ADD SWAP3 PUSH1 0x1 ADD PUSH2 0x2D16 JUMP JUMPDEST SWAP1 DUP1 PUSH1 0x1F DUP4 ADD SLT ISZERO PUSH2 0x746 JUMPI DUP2 PUSH1 0x20 PUSH2 0x2D53 SWAP4 CALLDATALOAD SWAP2 ADD PUSH2 0x2CB7 JUMP JUMPDEST SWAP1 JUMP JUMPDEST PUSH1 0x33 SLOAD PUSH1 0x1 PUSH1 0x1 PUSH1 0xA0 SHL SUB AND CALLER SUB PUSH2 0x2D6A JUMPI JUMP JUMPDEST PUSH1 0x64 PUSH1 0x40 MLOAD PUSH3 0x461BCD PUSH1 0xE5 SHL DUP2 MSTORE PUSH1 0x20 PUSH1 0x4 DUP3 ADD MSTORE PUSH1 0x20 PUSH1 0x24 DUP3 ADD MSTORE PUSH32 0x4F776E61626C653A2063616C6C6572206973206E6F7420746865206F776E6572 PUSH1 0x44 DUP3 ADD MSTORE REVERT JUMPDEST PUSH1 0x33 DUP1 SLOAD PUSH1 0x1 PUSH1 0x1 PUSH1 0xA0 SHL SUB SWAP3 DUP4 AND PUSH1 0x1 PUSH1 0x1 PUSH1 0xA0 SHL SUB NOT DUP3 AND DUP2 OR SWAP1 SWAP3 SSTORE SWAP1 SWAP2 AND PUSH32 0x8BE0079C531659141344CD1FD0A4F28419497F9722A3DAAFE3B4186F6B6457E0 PUSH1 0x0 DUP1 LOG3 JUMP JUMPDEST ISZERO PUSH2 0x2DFE JUMPI JUMP JUMPDEST PUSH1 0x40 MLOAD PUSH3 0x461BCD PUSH1 0xE5 SHL DUP2 MSTORE PUSH1 0x20 PUSH1 0x4 DUP3 ADD MSTORE PUSH1 0x2C PUSH1 0x24 DUP3 ADD MSTORE PUSH32 0x46756E6374696F6E206D7573742062652063616C6C6564207468726F75676820 PUSH1 0x44 DUP3 ADD MSTORE PUSH12 0x19195B1959D85D1958D85B1B PUSH1 0xA2 SHL PUSH1 0x64 DUP3 ADD MSTORE PUSH1 0x84 SWAP1 REVERT JUMPDEST ISZERO PUSH2 0x2E5F JUMPI JUMP JUMPDEST PUSH1 0x40 MLOAD PUSH3 0x461BCD PUSH1 0xE5 SHL DUP2 MSTORE PUSH1 0x20 PUSH1 0x4 DUP3 ADD MSTORE PUSH1 0x2C PUSH1 0x24 DUP3 ADD MSTORE PUSH32 0x46756E6374696F6E206D7573742062652063616C6C6564207468726F75676820 PUSH1 0x44 DUP3 ADD MSTORE PUSH12 0x6163746976652070726F7879 PUSH1 0xA0 SHL PUSH1 0x64 DUP3 ADD MSTORE PUSH1 0x84 SWAP1 REVERT JUMPDEST DUP1 EXTCODESIZE ISZERO PUSH2 0x2EEE JUMPI PUSH1 0x0 DUP1 MLOAD PUSH1 0x20 PUSH2 0x336A DUP4 CODECOPY DUP2 MLOAD SWAP2 MSTORE DUP1 SLOAD PUSH1 0x1 PUSH1 0x1 PUSH1 0xA0 SHL SUB NOT AND PUSH1 0x1 PUSH1 0x1 PUSH1 0xA0 SHL SUB SWAP1 SWAP3 AND SWAP2 SWAP1 SWAP2 OR SWAP1 SSTORE JUMP JUMPDEST PUSH1 0x40 MLOAD PUSH3 0x461BCD PUSH1 0xE5 SHL DUP2 MSTORE PUSH1 0x20 PUSH1 0x4 DUP3 ADD MSTORE PUSH1 0x2D PUSH1 0x24 DUP3 ADD MSTORE PUSH32 0x455243313936373A206E657720696D706C656D656E746174696F6E206973206E PUSH1 0x44 DUP3 ADD MSTORE PUSH13 0x1BDD08184818DBDB9D1C9858DD PUSH1 0x9A SHL PUSH1 0x64 DUP3 ADD MSTORE PUSH1 0x84 SWAP1 REVERT JUMPDEST SWAP2 SWAP3 SWAP1 ISZERO PUSH2 0x2FAB JUMPI POP DUP2 MLOAD ISZERO PUSH2 0x2F5D JUMPI POP SWAP1 JUMP JUMPDEST EXTCODESIZE ISZERO PUSH2 0x2F66 JUMPI SWAP1 JUMP JUMPDEST PUSH1 0x40 MLOAD PUSH3 0x461BCD PUSH1 0xE5 SHL DUP2 MSTORE PUSH1 0x20 PUSH1 0x4 DUP3 ADD MSTORE PUSH1 0x1D PUSH1 0x24 DUP3 ADD MSTORE PUSH32 0x416464726573733A2063616C6C20746F206E6F6E2D636F6E7472616374000000 PUSH1 0x44 DUP3 ADD MSTORE PUSH1 0x64 SWAP1 REVERT JUMPDEST DUP3 MLOAD SWAP1 SWAP2 POP ISZERO PUSH2 0x2FBE JUMPI POP DUP1 MLOAD SWAP1 PUSH1 0x20 ADD REVERT JUMPDEST PUSH1 0x40 MLOAD PUSH3 0x461BCD PUSH1 0xE5 SHL DUP2 MSTORE PUSH1 0x20 PUSH1 0x4 DUP3 ADD MSTORE SWAP1 DUP2 SWAP1 PUSH2 0x2FE2 SWAP1 PUSH1 0x24 DUP4 ADD SWAP1 PUSH2 0x2C02 JUMP JUMPDEST SUB SWAP1 REVERT JUMPDEST ISZERO PUSH2 0x2FED JUMPI JUMP JUMPDEST PUSH1 0x40 MLOAD PUSH3 0x461BCD PUSH1 0xE5 SHL DUP2 MSTORE PUSH1 0x20 PUSH1 0x4 DUP3 ADD MSTORE PUSH1 0x2B PUSH1 0x24 DUP3 ADD MSTORE PUSH32 0x496E697469616C697A61626C653A20636F6E7472616374206973206E6F742069 PUSH1 0x44 DUP3 ADD MSTORE PUSH11 0x6E697469616C697A696E67 PUSH1 0xA8 SHL PUSH1 0x64 DUP3 ADD MSTORE PUSH1 0x84 SWAP1 REVERT JUMPDEST DUP1 SLOAD PUSH9 0x10000000000000000 DUP2 LT ISZERO PUSH2 0x2ADB JUMPI PUSH2 0x3068 SWAP2 PUSH1 0x1 DUP3 ADD DUP2 SSTORE PUSH2 0x2C6E JUMP JUMPDEST DUP2 SWAP3 SWAP2 SLOAD SWAP1 PUSH1 0x3 SHL PUSH1 0x0 NOT DUP2 SHL SWAP3 DUP4 SWAP2 SHL AND SWAP2 NOT AND OR SWAP1 SSTORE JUMP JUMPDEST PUSH1 0x0 NOT DUP2 EQ PUSH2 0x3091 JUMPI PUSH1 0x1 ADD SWAP1 JUMP JUMPDEST PUSH4 0x4E487B71 PUSH1 0xE0 SHL PUSH1 0x0 MSTORE PUSH1 0x11 PUSH1 0x4 MSTORE PUSH1 0x24 PUSH1 0x0 REVERT JUMPDEST ISZERO PUSH2 0x30AE JUMPI JUMP JUMPDEST PUSH1 0x40 MLOAD PUSH3 0x461BCD PUSH1 0xE5 SHL DUP2 MSTORE PUSH1 0x20 PUSH1 0x4 DUP3 ADD MSTORE PUSH1 0x15 PUSH1 0x24 DUP3 ADD MSTORE PUSH21 0x125B9D985B1A59081C1C99591A58DD1A5BDB881251 PUSH1 0x5A SHL PUSH1 0x44 DUP3 ADD MSTORE PUSH1 0x64 SWAP1 REVERT JUMPDEST ISZERO PUSH2 0x30F2 JUMPI JUMP JUMPDEST PUSH1 0x40 MLOAD PUSH3 0x461BCD PUSH1 0xE5 SHL DUP2 MSTORE PUSH1 0x20 PUSH1 0x4 DUP3 ADD MSTORE PUSH1 0x1B PUSH1 0x24 DUP3 ADD MSTORE PUSH32 0x50726564696374696F6E20616C7265616479207265736F6C7665640000000000 PUSH1 0x44 DUP3 ADD MSTORE PUSH1 0x64 SWAP1 REVERT JUMPDEST ISZERO PUSH2 0x313E JUMPI JUMP JUMPDEST PUSH1 0x40 MLOAD PUSH3 0x461BCD PUSH1 0xE5 SHL DUP2 MSTORE PUSH1 0x20 PUSH1 0x4 DUP3 ADD MSTORE PUSH1 0xD PUSH1 0x24 DUP3 ADD MSTORE PUSH13 0x105B1C9958591E481D9BDD1959 PUSH1 0x9A SHL PUSH1 0x44 DUP3 ADD MSTORE PUSH1 0x64 SWAP1 REVERT JUMPDEST SWAP2 SWAP1 DUP3 ADD DUP1 SWAP3 GT PUSH2 0x3091 JUMPI JUMP JUMPDEST DUP2 DUP2 MUL SWAP3 SWAP2 DUP2 ISZERO SWAP2 DUP5 DIV EQ OR ISZERO PUSH2 0x3091 JUMPI JUMP JUMPDEST SWAP2 SWAP1 DUP3 SUB SWAP2 DUP3 GT PUSH2 0x3091 JUMPI JUMP JUMPDEST PUSH1 0x0 SWAP1 DUP2 MSTORE PUSH1 0xCA PUSH1 0x20 MSTORE PUSH1 0x40 DUP2 KECCAK256 SWAP2 PUSH1 0xCB PUSH1 0x20 MSTORE PUSH1 0x40 DUP3 KECCAK256 SWAP1 PUSH1 0x1 DUP1 PUSH1 0xA0 SHL SUB AND DUP3 MSTORE PUSH1 0x20 MSTORE PUSH1 0x40 DUP2 KECCAK256 SWAP2 PUSH1 0xB DUP2 ADD SLOAD SWAP1 PUSH1 0xFF DUP3 AND ISZERO DUP1 ISZERO PUSH2 0x32BD JUMPI JUMPDEST DUP1 ISZERO PUSH2 0x32AF JUMPI JUMPDEST PUSH2 0x32A8 JUMPI PUSH1 0xFF DUP5 SLOAD SWAP3 PUSH1 0x8 SHR AND SWAP2 PUSH1 0xFF DUP4 ISZERO ISZERO SWAP2 PUSH1 0x8 SHR AND ISZERO ISZERO SUB PUSH2 0x32A8 JUMPI PUSH2 0x323C DUP3 PUSH2 0x321A PUSH1 0x7 DUP5 ADD SLOAD PUSH1 0x6 DUP6 ADD SLOAD SWAP1 PUSH2 0x3173 JUMP JUMPDEST PUSH2 0x322E PUSH2 0x2710 SWAP2 DUP3 PUSH2 0x862 PUSH1 0xDA SLOAD DUP4 PUSH2 0x3180 JUMP JUMPDEST SWAP1 DUP7 SWAP3 PUSH2 0x3291 JUMPI JUMPDEST POP PUSH2 0x3193 JUMP JUMPDEST SWAP2 ISZERO PUSH2 0x3287 JUMPI PUSH1 0x8 ADD SLOAD SWAP1 JUMPDEST DUP2 ISZERO SWAP1 DUP2 ISZERO PUSH2 0x3259 JUMPI POP POP POP SWAP1 POP SWAP1 JUMP JUMPDEST PUSH1 0x1 PUSH2 0x3269 SWAP3 SWAP5 SWAP4 SWAP6 ADD SLOAD PUSH2 0x3180 JUMP JUMPDEST SWAP2 PUSH2 0x3273 JUMPI POP DIV SWAP1 JUMP JUMPDEST PUSH4 0x4E487B71 PUSH1 0xE0 SHL DUP2 MSTORE PUSH1 0x12 PUSH1 0x4 MSTORE PUSH1 0x24 SWAP1 REVERT JUMPDEST PUSH1 0x9 ADD SLOAD SWAP1 PUSH2 0x3248 JUMP JUMPDEST SWAP1 SWAP2 POP PUSH2 0x32A0 PUSH1 0xD9 SLOAD DUP4 PUSH2 0x3180 JUMP JUMPDEST DIV SWAP1 CODESIZE PUSH2 0x3236 JUMP JUMPDEST POP POP SWAP1 POP SWAP1 JUMP JUMPDEST POP PUSH1 0xFF PUSH1 0x2 DUP6 ADD SLOAD AND PUSH2 0x31E4 JUMP JUMPDEST POP PUSH1 0xFF DUP5 SLOAD AND ISZERO PUSH2 0x31DD JUMP JUMPDEST PUSH1 0xD2 SLOAD PUSH1 0x1 PUSH1 0x1 PUSH1 0xA0 SHL SUB SWAP1 DUP2 AND SWAP2 SWAP1 DUP3 ISZERO PUSH2 0x334A JUMPI PUSH1 0x24 PUSH1 0x20 SWAP3 PUSH1 0x40 MLOAD SWAP5 DUP6 SWAP4 DUP5 SWAP3 PUSH4 0x70A08231 PUSH1 0xE0 SHL DUP5 MSTORE AND PUSH1 0x4 DUP4 ADD MSTORE GAS STATICCALL PUSH1 0x0 SWAP2 DUP2 PUSH2 0x3317 JUMPI JUMPDEST POP PUSH2 0x3312 JUMPI POP PUSH1 0x0 SWAP1 JUMP JUMPDEST ISZERO ISZERO SWAP1 JUMP JUMPDEST SWAP1 SWAP2 PUSH1 0x20 DUP3 RETURNDATASIZE DUP3 GT PUSH2 0x3342 JUMPI JUMPDEST DUP2 PUSH2 0x3331 PUSH1 0x20 SWAP4 DUP4 PUSH2 0x2B3B JUMP JUMPDEST DUP2 ADD SUB SLT PUSH2 0x484 JUMPI POP MLOAD SWAP1 CODESIZE PUSH2 0x3307 JUMP JUMPDEST RETURNDATASIZE SWAP2 POP PUSH2 0x3324 JUMP JUMPDEST POP POP POP PUSH1 0x1 SWAP1 JUMP JUMPDEST PUSH1 0x1 PUSH1 0x1 PUSH1 0x40 SHL SUB DUP2 GT PUSH2 0x2ADB JUMPI PUSH1 0x5 SHL PUSH1 0x20 ADD SWAP1 JUMP INVALID CALLDATASIZE ADDMOD SWAP5 LOG1 EXTCODESIZE LOG1 LOG3 0x21 MOD PUSH8 0xC828492DB98DCA3E KECCAK256 PUSH23 0xCC3735A920A3CA505D382BBCA2646970667358221220D7 GT SMOD GT DUP5 SWAP1 0xE8 PUSH19 0xF156994DC33D3BF3A3F4AD2907B297FAFDC09C 0xAB PUSH27 0xCF719C64736F6C6343000811003300000000000000000000000000 "},"gasEstimates":{"creation":{"codeDepositCost":"2649400","executionCost":"infinite","totalCost":"infinite"},"external":{"astroChartNFT()":"2961","astrologerManager()":"2631","astrologerPredictions(address,uint256)":"6880","astrologerRewardPercentage()":"3135","calculateVoterReward(uint256,address)":"infinite","castDAOVote(uint256,bool,uint256)":"infinite","claimReward(uint256)":"infinite","createPrediction(string,string,uint256)":"infinite","daoNoVotes(uint256)":"2365","daoVotes(uint256,address)":"5112","daoVotingDuration()":"2673","daoYesVotes(uint256)":"2563","getActivePredictions()":"infinite","getAstrologerPredictions(address)":"infinite","getDAOVote(uint256,address)":"infinite","getDAOVoteCounts(uint256)":"5090","getPrediction(uint256)":"infinite","getUserVotes(address)":"infinite","getVote(uint256,address)":"infinite","initialize(address,address,address,address,uint256,uint256,uint256)":"infinite","maxVoterStake()":"2277","minAstrologerStake()":"2541","minVoterStake()":"3245","owner()":"2829","platformFeePercentage()":"3047","predictionStats()":"9316","predictions(uint256)":"infinite","proxiableUUID()":"infinite","renounceOwnership()":"28459","reputationScorer()":"2719","resolvePrediction(uint256)":"infinite","setAstroChartNFT(address)":"27432","setAstrologerManager(address)":"26794","setDAOVotingDuration(uint256)":"24469","setReputationScorer(address)":"27564","setRewardPercentages(uint256,uint256)":"46925","setStakeLimits(uint256,uint256,uint256)":"69391","setZodiacDAO(address)":"26926","startDAOVoting(uint256)":"32918","transferOwnership(address)":"29183","upgradeTo(address)":"infinite","upgradeToAndCall(address,bytes)":"infinite","userVotes(address,uint256)":"7298","voteOnPrediction(uint256,bool)":"infinite","votes(uint256,address)":"7628","withdraw()":"infinite","zodiacDAO()":"2917"},"internal":{"_authorizeUpgrade(address)":"infinite","distributeRewards(uint256,bool)":"infinite","hasAstroChartNFT(address)":"infinite","isDAOMember(address,uint256)":"infinite","updateAstrologerReputation(address,uint256,bool)":"infinite"}},"methodIdentifiers":{"astroChartNFT()":"b488202d","astrologerManager()":"6fd31a41","astrologerPredictions(address,uint256)":"37562b29","astrologerRewardPercentage()":"d75ebce5","calculateVoterReward(uint256,address)":"5aa76be0","castDAOVote(uint256,bool,uint256)":"84ebaae1","claimReward(uint256)":"ae169a50","createPrediction(string,string,uint256)":"d472a570","daoNoVotes(uint256)":"256c52d3","daoVotes(uint256,address)":"78640668","daoVotingDuration()":"72f022c2","daoYesVotes(uint256)":"533a12a5","getActivePredictions()":"a9d6921b","getAstrologerPredictions(address)":"bc858185","getDAOVote(uint256,address)":"444a50c2","getDAOVoteCounts(uint256)":"9dcf0b7a","getPrediction(uint256)":"fe83bece","getUserVotes(address)":"950c7822","getVote(uint256,address)":"bc3f931f","initialize(address,address,address,address,uint256,uint256,uint256)":"e77fc7a4","maxVoterStake()":"0e8c47f2","minAstrologerStake()":"63ab68ef","minVoterStake()":"f7333e33","owner()":"8da5cb5b","platformFeePercentage()":"cdd78cfc","predictionStats()":"b6bb1754","predictions(uint256)":"004fbbb0","proxiableUUID()":"52d1902d","renounceOwnership()":"715018a6","reputationScorer()":"73c84d21","resolvePrediction(uint256)":"e69fe3dc","setAstroChartNFT(address)":"ce083d73","setAstrologerManager(address)":"44cda485","setDAOVotingDuration(uint256)":"34954999","setReputationScorer(address)":"e9725c21","setRewardPercentages(uint256,uint256)":"6f502056","setStakeLimits(uint256,uint256,uint256)":"c8ab686a","setZodiacDAO(address)":"65af67bd","startDAOVoting(uint256)":"886dbdf9","transferOwnership(address)":"f2fde38b","upgradeTo(address)":"3659cfe6","upgradeToAndCall(address,bytes)":"4f1ef286","userVotes(address,uint256)":"8b3511f7","voteOnPrediction(uint256,bool)":"700c8367","votes(uint256,address)":"d23254b4","withdraw()":"3ccfd60b","zodiacDAO()":"ab76c9ed"}},"storageLayout":{"storage":[{"astId":503,"contract":"contracts/WorldPredictionMarket.sol:WorldPredictionMarket","label":"_initialized","offset":0,"slot":"0","type":"t_uint8"},{"astId":506,"contract":"contracts/WorldPredictionMarket.sol:WorldPredictionMarket","label":"_initializing","offset":1,"slot":"0","type":"t_bool"},{"astId":1172,"contract":"contracts/WorldPredictionMarket.sol:WorldPredictionMarket","label":"__gap","offset":0,"slot":"1","type":"t_array(t_uint256)50_storage"},{"astId":10,"contract":"contracts/WorldPredictionMarket.sol:WorldPredictionMarket","label":"_owner","offset":0,"slot":"51","type":"t_address"},{"astId":130,"contract":"contracts/WorldPredictionMarket.sol:WorldPredictionMarket","label":"__gap","offset":0,"slot":"52","type":"t_array(t_uint256)49_storage"},{"astId":485,"contract":"contracts/WorldPredictionMarket.sol:WorldPredictionMarket","label":"__gap","offset":0,"slot":"101","type":"t_array(t_uint256)50_storage"},{"astId":800,"contract":"contracts/WorldPredictionMarket.sol:WorldPredictionMarket","label":"__gap","offset":0,"slot":"151","type":"t_array(t_uint256)50_storage"},{"astId":1378,"contract":"contracts/WorldPredictionMarket.sol:WorldPredictionMarket","label":"_predictionIds","offset":0,"slot":"201","type":"t_struct(Counter)1179_storage"},{"astId":1441,"contract":"contracts/WorldPredictionMarket.sol:WorldPredictionMarket","label":"predictions","offset":0,"slot":"202","type":"t_mapping(t_uint256,t_struct(WorldPrediction)1411_storage)"},{"astId":1448,"contract":"contracts/WorldPredictionMarket.sol:WorldPredictionMarket","label":"votes","offset":0,"slot":"203","type":"t_mapping(t_uint256,t_mapping(t_address,t_struct(Vote)1420_storage))"},{"astId":1455,"contract":"contracts/WorldPredictionMarket.sol:WorldPredictionMarket","label":"daoVotes","offset":0,"slot":"204","type":"t_mapping(t_uint256,t_mapping(t_address,t_struct(DAOVote)1427_storage))"},{"astId":1459,"contract":"contracts/WorldPredictionMarket.sol:WorldPredictionMarket","label":"daoYesVotes","offset":0,"slot":"205","type":"t_mapping(t_uint256,t_uint256)"},{"astId":1463,"contract":"contracts/WorldPredictionMarket.sol:WorldPredictionMarket","label":"daoNoVotes","offset":0,"slot":"206","type":"t_mapping(t_uint256,t_uint256)"},{"astId":1468,"contract":"contracts/WorldPredictionMarket.sol:WorldPredictionMarket","label":"astrologerPredictions","offset":0,"slot":"207","type":"t_mapping(t_address,t_array(t_uint256)dyn_storage)"},{"astId":1473,"contract":"contracts/WorldPredictionMarket.sol:WorldPredictionMarket","label":"userVotes","offset":0,"slot":"208","type":"t_mapping(t_address,t_array(t_uint256)dyn_storage)"},{"astId":1475,"contract":"contracts/WorldPredictionMarket.sol:WorldPredictionMarket","label":"astrologerManager","offset":0,"slot":"209","type":"t_address"},{"astId":1477,"contract":"contracts/WorldPredictionMarket.sol:WorldPredictionMarket","label":"astroChartNFT","offset":0,"slot":"210","type":"t_address"},{"astId":1479,"contract":"contracts/WorldPredictionMarket.sol:WorldPredictionMarket","label":"zodiacDAO","offset":0,"slot":"211","type":"t_address"},{"astId":1481,"contract":"contracts/WorldPredictionMarket.sol:WorldPredictionMarket","label":"reputationScorer","offset":0,"slot":"212","type":"t_address"},{"astId":1483,"contract":"contracts/WorldPredictionMarket.sol:WorldPredictionMarket","label":"minAstrologerStake","offset":0,"slot":"213","type":"t_uint256"},{"astId":1485,"contract":"contracts/WorldPredictionMarket.sol:WorldPredictionMarket","label":"minVoterStake","offset":0,"slot":"214","type":"t_uint256"},{"astId":1487,"contract":"contracts/WorldPredictionMarket.sol:WorldPredictionMarket","label":"maxVoterStake","offset":0,"slot":"215","type":"t_uint256"},{"astId":1489,"contract":"contracts/WorldPredictionMarket.sol:WorldPredictionMarket","label":"daoVotingDuration","offset":0,"slot":"216","type":"t_uint256"},{"astId":1491,"contract":"contracts/WorldPredictionMarket.sol:WorldPredictionMarket","label":"astrologerRewardPercentage","offset":0,"slot":"217","type":"t_uint256"},{"astId":1493,"contract":"contracts/WorldPredictionMarket.sol:WorldPredictionMarket","label":"platformFeePercentage","offset":0,"slot":"218","type":"t_uint256"},{"astId":1496,"contract":"contracts/WorldPredictionMarket.sol:WorldPredictionMarket","label":"predictionStats","offset":0,"slot":"219","type":"t_struct(PredictionStats)1436_storage"}],"types":{"t_address":{"encoding":"inplace","label":"address","numberOfBytes":"20"},"t_array(t_uint256)49_storage":{"base":"t_uint256","encoding":"inplace","label":"uint256[49]","numberOfBytes":"1568"},"t_array(t_uint256)50_storage":{"base":"t_uint256","encoding":"inplace","label":"uint256[50]","numberOfBytes":"1600"},"t_array(t_uint256)dyn_storage":{"base":"t_uint256","encoding":"dynamic_array","label":"uint256[]","numberOfBytes":"32"},"t_bool":{"encoding":"inplace","label":"bool","numberOfBytes":"1"},"t_mapping(t_address,t_array(t_uint256)dyn_storage)":{"encoding":"mapping","key":"t_address","label":"mapping(address => uint256[])","numberOfBytes":"32","value":"t_array(t_uint256)dyn_storage"},"t_mapping(t_address,t_struct(DAOVote)1427_storage)":{"encoding":"mapping","key":"t_address","label":"mapping(address => struct WorldPredictionMarket.DAOVote)","numberOfBytes":"32","value":"t_struct(DAOVote)1427_storage"},"t_mapping(t_address,t_struct(Vote)1420_storage)":{"encoding":"mapping","key":"t_address","label":"mapping(address => struct WorldPredictionMarket.Vote)","numberOfBytes":"32","value":"t_struct(Vote)1420_storage"},"t_mapping(t_uint256,t_mapping(t_address,t_struct(DAOVote)1427_storage))":{"encoding":"mapping","key":"t_uint256","label":"mapping(uint256 => mapping(address => struct WorldPredictionMarket.DAOVote))","numberOfBytes":"32","value":"t_mapping(t_address,t_struct(DAOVote)1427_storage)"},"t_mapping(t_uint256,t_mapping(t_address,t_struct(Vote)1420_storage))":{"encoding":"mapping","key":"t_uint256","label":"mapping(uint256 => mapping(address => struct WorldPredictionMarket.Vote))","numberOfBytes":"32","value":"t_mapping(t_address,t_struct(Vote)1420_storage)"},"t_mapping(t_uint256,t_struct(WorldPrediction)1411_storage)":{"encoding":"mapping","key":"t_uint256","label":"mapping(uint256 => struct WorldPredictionMarket.WorldPrediction)","numberOfBytes":"32","value":"t_struct(WorldPrediction)1411_storage"},"t_mapping(t_uint256,t_uint256)":{"encoding":"mapping","key":"t_uint256","label":"mapping(uint256 => uint256)","numberOfBytes":"32","value":"t_uint256"},"t_string_storage":{"encoding":"bytes","label":"string","numberOfBytes":"32"},"t_struct(Counter)1179_storage":{"encoding":"inplace","label":"struct CountersUpgradeable.Counter","members":[{"astId":1178,"contract":"contracts/WorldPredictionMarket.sol:WorldPredictionMarket","label":"_value","offset":0,"slot":"0","type":"t_uint256"}],"numberOfBytes":"32"},"t_struct(DAOVote)1427_storage":{"encoding":"inplace","label":"struct WorldPredictionMarket.DAOVote","members":[{"astId":1422,"contract":"contracts/WorldPredictionMarket.sol:WorldPredictionMarket","label":"hasVoted","offset":0,"slot":"0","type":"t_bool"},{"astId":1424,"contract":"contracts/WorldPredictionMarket.sol:WorldPredictionMarket","label":"vote","offset":1,"slot":"0","type":"t_bool"},{"astId":1426,"contract":"contracts/WorldPredictionMarket.sol:WorldPredictionMarket","label":"tokenId","offset":0,"slot":"1","type":"t_uint256"}],"numberOfBytes":"64"},"t_struct(PredictionStats)1436_storage":{"encoding":"inplace","label":"struct WorldPredictionMarket.PredictionStats","members":[{"astId":1429,"contract":"contracts/WorldPredictionMarket.sol:WorldPredictionMarket","label":"totalPredictions","offset":0,"slot":"0","type":"t_uint256"},{"astId":1431,"contract":"contracts/WorldPredictionMarket.sol:WorldPredictionMarket","label":"activePredictions","offset":0,"slot":"1","type":"t_uint256"},{"astId":1433,"contract":"contracts/WorldPredictionMarket.sol:WorldPredictionMarket","label":"resolvedPredictions","offset":0,"slot":"2","type":"t_uint256"},{"astId":1435,"contract":"contracts/WorldPredictionMarket.sol:WorldPredictionMarket","label":"totalVolume","offset":0,"slot":"3","type":"t_uint256"}],"numberOfBytes":"128"},"t_struct(Vote)1420_storage":{"encoding":"inplace","label":"struct WorldPredictionMarket.Vote","members":[{"astId":1413,"contract":"contracts/WorldPredictionMarket.sol:WorldPredictionMarket","label":"hasVoted","offset":0,"slot":"0","type":"t_bool"},{"astId":1415,"contract":"contracts/WorldPredictionMarket.sol:WorldPredictionMarket","label":"vote","offset":1,"slot":"0","type":"t_bool"},{"astId":1417,"contract":"contracts/WorldPredictionMarket.sol:WorldPredictionMarket","label":"stakeAmount","offset":0,"slot":"1","type":"t_uint256"},{"astId":1419,"contract":"contracts/WorldPredictionMarket.sol:WorldPredictionMarket","label":"rewardClaimed","offset":0,"slot":"2","type":"t_bool"}],"numberOfBytes":"96"},"t_struct(WorldPrediction)1411_storage":{"encoding":"inplace","label":"struct WorldPredictionMarket.WorldPrediction","members":[{"astId":1380,"contract":"contracts/WorldPredictionMarket.sol:WorldPredictionMarket","label":"id","offset":0,"slot":"0","type":"t_uint256"},{"astId":1382,"contract":"contracts/WorldPredictionMarket.sol:WorldPredictionMarket","label":"astrologer","offset":0,"slot":"1","type":"t_address"},{"astId":1384,"contract":"contracts/WorldPredictionMarket.sol:WorldPredictionMarket","label":"astrologerId","offset":0,"slot":"2","type":"t_uint256"},{"astId":1386,"contract":"contracts/WorldPredictionMarket.sol:WorldPredictionMarket","label":"title","offset":0,"slot":"3","type":"t_string_storage"},{"astId":1388,"contract":"contracts/WorldPredictionMarket.sol:WorldPredictionMarket","label":"description","offset":0,"slot":"4","type":"t_string_storage"},{"astId":1390,"contract":"contracts/WorldPredictionMarket.sol:WorldPredictionMarket","label":"deadline","offset":0,"slot":"5","type":"t_uint256"},{"astId":1392,"contract":"contracts/WorldPredictionMarket.sol:WorldPredictionMarket","label":"astrologerStake","offset":0,"slot":"6","type":"t_uint256"},{"astId":1394,"contract":"contracts/WorldPredictionMarket.sol:WorldPredictionMarket","label":"totalVoterStake","offset":0,"slot":"7","type":"t_uint256"},{"astId":1396,"contract":"contracts/WorldPredictionMarket.sol:WorldPredictionMarket","label":"yesVoterStake","offset":0,"slot":"8","type":"t_uint256"},{"astId":1398,"contract":"contracts/WorldPredictionMarket.sol:WorldPredictionMarket","label":"noVoterStake","offset":0,"slot":"9","type":"t_uint256"},{"astId":1400,"contract":"contracts/WorldPredictionMarket.sol:WorldPredictionMarket","label":"totalVoters","offset":0,"slot":"10","type":"t_uint256"},{"astId":1402,"contract":"contracts/WorldPredictionMarket.sol:WorldPredictionMarket","label":"isResolved","offset":0,"slot":"11","type":"t_bool"},{"astId":1404,"contract":"contracts/WorldPredictionMarket.sol:WorldPredictionMarket","label":"outcome","offset":1,"slot":"11","type":"t_bool"},{"astId":1406,"contract":"contracts/WorldPredictionMarket.sol:WorldPredictionMarket","label":"daoVotingActive","offset":2,"slot":"11","type":"t_bool"},{"astId":1408,"contract":"contracts/WorldPredictionMarket.sol:WorldPredictionMarket","label":"createdAt","offset":0,"slot":"12","type":"t_uint256"},{"astId":1410,"contract":"contracts/WorldPredictionMarket.sol:WorldPredictionMarket","label":"resolvedAt","offset":0,"slot":"13","type":"t_uint256"}],"numberOfBytes":"448"},"t_uint256":{"encoding":"inplace","label":"uint256","numberOfBytes":"32"},"t_uint8":{"encoding":"inplace","label":"uint8","numberOfBytes":"1"}}},"userdoc":{"kind":"user","methods":{"calculateVoterReward(uint256,address)":{"notice":"Calculate voter reward amount"},"castDAOVote(uint256,bool,uint256)":{"notice":"DAO members vote on prediction outcome"},"claimReward(uint256)":{"notice":"Claim rewards for correct predictions"},"createPrediction(string,string,uint256)":{"notice":"Create a world prediction by staking FLOW"},"resolvePrediction(uint256)":{"notice":"Resolve prediction based on DAO votes"},"startDAOVoting(uint256)":{"notice":"Start DAO voting after prediction deadline"},"voteOnPrediction(uint256,bool)":{"notice":"Vote on a prediction (requires AstroChart NFT)"}},"version":1}}}}