{"contracts/AstrologerManager.sol":{"AstrologerManager":{"abi":[{"inputs":[],"stateMutability":"nonpayable","type":"constructor"},{"anonymous":false,"inputs":[{"indexed":false,"internalType":"address","name":"previousAdmin","type":"address"},{"indexed":false,"internalType":"address","name":"newAdmin","type":"address"}],"name":"AdminChanged","type":"event"},{"anonymous":false,"inputs":[{"indexed":true,"internalType":"uint256","name":"astrologerId","type":"uint256"},{"indexed":true,"internalType":"address","name":"wallet","type":"address"},{"indexed":false,"internalType":"string","name":"name","type":"string"},{"indexed":false,"internalType":"string","name":"specialty","type":"string"}],"name":"AstrologerRegistered","type":"event"},{"anonymous":false,"inputs":[{"indexed":true,"internalType":"uint256","name":"astrologerId","type":"uint256"},{"indexed":true,"internalType":"address","name":"wallet","type":"address"}],"name":"AstrologerVerified","type":"event"},{"anonymous":false,"inputs":[{"indexed":true,"internalType":"address","name":"beacon","type":"address"}],"name":"BeaconUpgraded","type":"event"},{"anonymous":false,"inputs":[{"indexed":false,"internalType":"uint8","name":"version","type":"uint8"}],"name":"Initialized","type":"event"},{"anonymous":false,"inputs":[{"indexed":true,"internalType":"address","name":"previousOwner","type":"address"},{"indexed":true,"internalType":"address","name":"newOwner","type":"address"}],"name":"OwnershipTransferred","type":"event"},{"anonymous":false,"inputs":[{"indexed":true,"internalType":"uint256","name":"astrologerId","type":"uint256"},{"indexed":false,"internalType":"bool","name":"wasAccurate","type":"bool"},{"indexed":false,"internalType":"uint256","name":"newAccuracy","type":"uint256"}],"name":"PredictionResult","type":"event"},{"anonymous":false,"inputs":[{"indexed":true,"internalType":"uint256","name":"astrologerId","type":"uint256"},{"indexed":false,"internalType":"uint256","name":"oldReputation","type":"uint256"},{"indexed":false,"internalType":"uint256","name":"newReputation","type":"uint256"}],"name":"ReputationUpdated","type":"event"},{"anonymous":false,"inputs":[{"indexed":true,"internalType":"address","name":"implementation","type":"address"}],"name":"Upgraded","type":"event"},{"inputs":[],"name":"astroTokenLauncher","outputs":[{"internalType":"address","name":"","type":"address"}],"stateMutability":"view","type":"function"},{"inputs":[{"internalType":"uint256","name":"","type":"uint256"}],"name":"astrologerStats","outputs":[{"internalType":"uint256","name":"totalSessions","type":"uint256"},{"internalType":"uint256","name":"totalEarnings","type":"uint256"},{"internalType":"uint256","name":"averageRating","type":"uint256"},{"internalType":"uint256","name":"totalReviews","type":"uint256"}],"stateMutability":"view","type":"function"},{"inputs":[{"internalType":"uint256","name":"","type":"uint256"}],"name":"astrologers","outputs":[{"internalType":"uint256","name":"id","type":"uint256"},{"internalType":"address","name":"wallet","type":"address"},{"internalType":"string","name":"name","type":"string"},{"internalType":"string","name":"description","type":"string"},{"internalType":"string","name":"specialty","type":"string"},{"internalType":"uint256","name":"experience","type":"uint256"},{"internalType":"uint256","name":"reputation","type":"uint256"},{"internalType":"uint256","name":"totalPredictions","type":"uint256"},{"internalType":"uint256","name":"accuratePredictions","type":"uint256"},{"internalType":"uint256","name":"tokenContract","type":"uint256"},{"internalType":"bool","name":"isVerified","type":"bool"},{"internalType":"bool","name":"isActive","type":"bool"},{"internalType":"uint256","name":"registeredAt","type":"uint256"},{"internalType":"uint256","name":"lastActive","type":"uint256"}],"stateMutability":"view","type":"function"},{"inputs":[],"name":"getAllVerifiedAstrologers","outputs":[{"internalType":"uint256[]","name":"","type":"uint256[]"}],"stateMutability":"view","type":"function"},{"inputs":[{"internalType":"uint256","name":"astrologerId","type":"uint256"}],"name":"getAstrologer","outputs":[{"components":[{"internalType":"uint256","name":"id","type":"uint256"},{"internalType":"address","name":"wallet","type":"address"},{"internalType":"string","name":"name","type":"string"},{"internalType":"string","name":"description","type":"string"},{"internalType":"string","name":"specialty","type":"string"},{"internalType":"uint256","name":"experience","type":"uint256"},{"internalType":"uint256","name":"reputation","type":"uint256"},{"internalType":"uint256","name":"totalPredictions","type":"uint256"},{"internalType":"uint256","name":"accuratePredictions","type":"uint256"},{"internalType":"uint256","name":"tokenContract","type":"uint256"},{"internalType":"bool","name":"isVerified","type":"bool"},{"internalType":"bool","name":"isActive","type":"bool"},{"internalType":"uint256","name":"registeredAt","type":"uint256"},{"internalType":"uint256","name":"lastActive","type":"uint256"}],"internalType":"struct AstrologerManager.Astrologer","name":"","type":"tuple"}],"stateMutability":"view","type":"function"},{"inputs":[{"internalType":"address","name":"wallet","type":"address"}],"name":"getAstrologerByWallet","outputs":[{"components":[{"internalType":"uint256","name":"id","type":"uint256"},{"internalType":"address","name":"wallet","type":"address"},{"internalType":"string","name":"name","type":"string"},{"internalType":"string","name":"description","type":"string"},{"internalType":"string","name":"specialty","type":"string"},{"internalType":"uint256","name":"experience","type":"uint256"},{"internalType":"uint256","name":"reputation","type":"uint256"},{"internalType":"uint256","name":"totalPredictions","type":"uint256"},{"internalType":"uint256","name":"accuratePredictions","type":"uint256"},{"internalType":"uint256","name":"tokenContract","type":"uint256"},{"internalType":"bool","name":"isVerified","type":"bool"},{"internalType":"bool","name":"isActive","type":"bool"},{"internalType":"uint256","name":"registeredAt","type":"uint256"},{"internalType":"uint256","name":"lastActive","type":"uint256"}],"internalType":"struct AstrologerManager.Astrologer","name":"","type":"tuple"}],"stateMutability":"view","type":"function"},{"inputs":[{"internalType":"address","name":"wallet","type":"address"}],"name":"getAstrologerId","outputs":[{"internalType":"uint256","name":"","type":"uint256"}],"stateMutability":"view","type":"function"},{"inputs":[{"internalType":"uint256","name":"astrologerId","type":"uint256"}],"name":"getAstrologerStats","outputs":[{"components":[{"internalType":"uint256","name":"totalSessions","type":"uint256"},{"internalType":"uint256","name":"totalEarnings","type":"uint256"},{"internalType":"uint256","name":"averageRating","type":"uint256"},{"internalType":"uint256","name":"totalReviews","type":"uint256"}],"internalType":"struct AstrologerManager.AstrologerStats","name":"","type":"tuple"}],"stateMutability":"view","type":"function"},{"inputs":[{"internalType":"string","name":"specialty","type":"string"}],"name":"getAstrologersBySpecialty","outputs":[{"internalType":"uint256[]","name":"","type":"uint256[]"}],"stateMutability":"view","type":"function"},{"inputs":[{"internalType":"address","name":"_reputationScorer","type":"address"},{"internalType":"address","name":"_predictionCredibilityManager","type":"address"},{"internalType":"address","name":"_astroTokenLauncher","type":"address"},{"internalType":"uint256","name":"_verificationFee","type":"uint256"}],"name":"initialize","outputs":[],"stateMutability":"nonpayable","type":"function"},{"inputs":[{"internalType":"address","name":"wallet","type":"address"}],"name":"isAstrologerVerified","outputs":[{"internalType":"bool","name":"","type":"bool"}],"stateMutability":"view","type":"function"},{"inputs":[],"name":"owner","outputs":[{"internalType":"address","name":"","type":"address"}],"stateMutability":"view","type":"function"},{"inputs":[],"name":"predictionCredibilityManager","outputs":[{"internalType":"address","name":"","type":"address"}],"stateMutability":"view","type":"function"},{"inputs":[],"name":"proxiableUUID","outputs":[{"internalType":"bytes32","name":"","type":"bytes32"}],"stateMutability":"view","type":"function"},{"inputs":[{"internalType":"uint256","name":"astrologerId","type":"uint256"},{"internalType":"bool","name":"wasAccurate","type":"bool"}],"name":"recordPredictionResult","outputs":[],"stateMutability":"nonpayable","type":"function"},{"inputs":[{"internalType":"string","name":"_name","type":"string"},{"internalType":"string","name":"_description","type":"string"},{"internalType":"string","name":"_specialty","type":"string"},{"internalType":"uint256","name":"_experience","type":"uint256"}],"name":"registerAstrologer","outputs":[{"internalType":"uint256","name":"","type":"uint256"}],"stateMutability":"payable","type":"function"},{"inputs":[],"name":"renounceOwnership","outputs":[],"stateMutability":"nonpayable","type":"function"},{"inputs":[],"name":"reputationScorer","outputs":[{"internalType":"address","name":"","type":"address"}],"stateMutability":"view","type":"function"},{"inputs":[{"internalType":"address","name":"_astroTokenLauncher","type":"address"}],"name":"setAstroTokenLauncher","outputs":[],"stateMutability":"nonpayable","type":"function"},{"inputs":[{"internalType":"address","name":"_predictionCredibilityManager","type":"address"}],"name":"setPredictionCredibilityManager","outputs":[],"stateMutability":"nonpayable","type":"function"},{"inputs":[{"internalType":"address","name":"_reputationScorer","type":"address"}],"name":"setReputationScorer","outputs":[],"stateMutability":"nonpayable","type":"function"},{"inputs":[{"internalType":"uint256","name":"astrologerId","type":"uint256"},{"internalType":"uint256","name":"tokenContract","type":"uint256"}],"name":"setTokenContract","outputs":[],"stateMutability":"nonpayable","type":"function"},{"inputs":[{"internalType":"uint256","name":"_verificationFee","type":"uint256"}],"name":"setVerificationFee","outputs":[],"stateMutability":"nonpayable","type":"function"},{"inputs":[{"internalType":"string","name":"","type":"string"},{"internalType":"uint256","name":"","type":"uint256"}],"name":"specialtyToAstrologers","outputs":[{"internalType":"uint256","name":"","type":"uint256"}],"stateMutability":"view","type":"function"},{"inputs":[{"internalType":"uint256","name":"astrologerId","type":"uint256"}],"name":"toggleAstrologerActive","outputs":[],"stateMutability":"nonpayable","type":"function"},{"inputs":[],"name":"totalAstrologers","outputs":[{"internalType":"uint256","name":"","type":"uint256"}],"stateMutability":"view","type":"function"},{"inputs":[{"internalType":"address","name":"newOwner","type":"address"}],"name":"transferOwnership","outputs":[],"stateMutability":"nonpayable","type":"function"},{"inputs":[{"internalType":"uint256","name":"astrologerId","type":"uint256"},{"internalType":"uint256","name":"sessions","type":"uint256"},{"internalType":"uint256","name":"earnings","type":"uint256"},{"internalType":"uint256","name":"rating","type":"uint256"},{"internalType":"uint256","name":"reviews","type":"uint256"}],"name":"updateAstrologerStats","outputs":[],"stateMutability":"nonpayable","type":"function"},{"inputs":[{"internalType":"uint256","name":"astrologerId","type":"uint256"},{"internalType":"uint256","name":"newReputation","type":"uint256"}],"name":"updateReputation","outputs":[],"stateMutability":"nonpayable","type":"function"},{"inputs":[{"internalType":"address","name":"newImplementation","type":"address"}],"name":"upgradeTo","outputs":[],"stateMutability":"nonpayable","type":"function"},{"inputs":[{"internalType":"address","name":"newImplementation","type":"address"},{"internalType":"bytes","name":"data","type":"bytes"}],"name":"upgradeToAndCall","outputs":[],"stateMutability":"payable","type":"function"},{"inputs":[],"name":"verificationFee","outputs":[{"internalType":"uint256","name":"","type":"uint256"}],"stateMutability":"view","type":"function"},{"inputs":[{"internalType":"uint256","name":"astrologerId","type":"uint256"}],"name":"verifyAstrologer","outputs":[],"stateMutability":"nonpayable","type":"function"},{"inputs":[{"internalType":"address","name":"","type":"address"}],"name":"walletToAstrologerId","outputs":[{"internalType":"uint256","name":"","type":"uint256"}],"stateMutability":"view","type":"function"},{"inputs":[],"name":"withdraw","outputs":[],"stateMutability":"nonpayable","type":"function"}],"devdoc":{"kind":"dev","methods":{"constructor":{"custom:oz-upgrades-unsafe-allow":"constructor"},"owner()":{"details":"Returns the address of the current owner."},"proxiableUUID()":{"details":"Implementation of the ERC1822 {proxiableUUID} function. This returns the storage slot used by the implementation. It is used to validate the implementation's compatibility when performing an upgrade. IMPORTANT: A proxy pointing at a proxiable contract should not be considered proxiable itself, because this risks bricking a proxy that upgrades to it, by delegating to itself until out of gas. Thus it is critical that this function revert if invoked through a proxy. This is guaranteed by the `notDelegated` modifier."},"renounceOwnership()":{"details":"Leaves the contract without owner. It will not be possible to call `onlyOwner` functions. Can only be called by the current owner. NOTE: Renouncing ownership will leave the contract without an owner, thereby disabling any functionality that is only available to the owner."},"transferOwnership(address)":{"details":"Transfers ownership of the contract to a new account (`newOwner`). Can only be called by the current owner."},"upgradeTo(address)":{"custom:oz-upgrades-unsafe-allow-reachable":"delegatecall","details":"Upgrade the implementation of the proxy to `newImplementation`. Calls {_authorizeUpgrade}. Emits an {Upgraded} event."},"upgradeToAndCall(address,bytes)":{"custom:oz-upgrades-unsafe-allow-reachable":"delegatecall","details":"Upgrade the implementation of the proxy to `newImplementation`, and subsequently execute the function call encoded in `data`. Calls {_authorizeUpgrade}. Emits an {Upgraded} event."}},"version":1},"evm":{"bytecode":{"linkReferences":{},"object":"60a080604052346100dc57306080526000549060ff8260081c1661008a575060ff8082160361004f575b60405161268690816100e282396080518181816115570152818161170501526119ea0152f35b60ff90811916176000557f7f26b83ff96e1f2b6a682f133852f6798a09c465da95921460cefb3847402498602060405160ff8152a138610029565b62461bcd60e51b815260206004820152602760248201527f496e697469616c697a61626c653a20636f6e747261637420697320696e697469604482015266616c697a696e6760c81b6064820152608490fd5b600080fdfe608080604052600436101561001357600080fd5b60003560e01c9081630675f76314611d91575080631afe9e5c14611d295780632cb5f95a14611c8257806330a7d32a14611c555780633659cfe6146119c557806338dec5dd14610d205780633ccfd60b146119755780634f1ef286146116b75780635273496a1461160857806352d1902d1461154457806361cb82ba1461148a57806362761b7614610d5a578063656d0c3914610d205780636f7c0c7514610d02578063715018a614610ca557806373c84d2114610c7c57806384ebeab614610c035780638da5cb5b14610bda57806397206c0a14610b02578063a8c278a214610ae4578063aae9d5f214610ac3578063ab3dcd6a14610a9a578063b0d485b314610a57578063b56faf111461093e578063b76d03b214610915578063ba9e826c146108c7578063c1ef5cd2146107e9578063cc89c63414610737578063cf756fdf14610590578063daa8d1c6146104bf578063e2c3538c1461047c578063e47ef5a814610387578063e9725c2114610344578063f2fde38b146102b55763fc809bf5146101a057600080fd5b346102b05760203660031901126102b057600435600090815260ca60205260409020805460018201546001600160a01b0316916101df60028201612145565b6101eb60038301612145565b916101f860048201612145565b9260058201549360068301546007840154600885015491600986015493600a87015495600b88015497600c0154986040519c8d9c8d5260208d01528b6101c06040819201528c0161024891611fe4565b8b810360608d015261025991611fe4565b8a810360808c015261026a91611fe4565b9760a08a015260c089015260e088015261010087015261012086015260ff8116151561014086015260081c60ff1615156101608501526101808401526101a08301520390f35b600080fd5b346102b05760203660031901126102b0576102ce611fab565b6102d66121eb565b6001600160a01b038116156102f0576102ee90612243565b005b60405162461bcd60e51b815260206004820152602660248201527f4f776e61626c653a206e6577206f776e657220697320746865207a65726f206160448201526564647265737360d01b6064820152608490fd5b346102b05760203660031901126102b05761035d611fab565b6103656121eb565b60ce80546001600160a01b0319166001600160a01b0392909216919091179055005b346102b05760403660031901126102b0576004356024358015158082036102b05782151580610470575b6103ba906124ea565b8260005260ca6020526008604060002060078101936103d985546124db565b80955561045c575b015490606482029180830460641490151715610446578215610430577f756a61461a8776a88359f7becf7cd5ce80a583bd386fe18023fad70323ebc15b926040928351928352046020820152a2005b634e487b7160e01b600052601260045260246000fd5b634e487b7160e01b600052601160045260246000fd5b81810161046981546124db565b90556103e1565b5060c9548311156103b1565b346102b05760203660031901126102b057610495611fab565b61049d6121eb565b60d080546001600160a01b0319166001600160a01b0392909216919091179055005b346102b05760a03660031901126102b05760335460043590336001600160a01b0391821614908115610582575b501561054e5780151580610542575b610504906124ea565b60005260cc6020526040600020602435815560443560018201556064356002820155600360843591015560ca60205242600c60406000200155600080f35b5060c9548111156104fb565b60405162461bcd60e51b815260206004820152600c60248201526b155b985d5d1a1bdc9a5e995960a21b6044820152606490fd5b905060ce54163314826104ec565b346102b05760803660031901126102b0576105a9611fab565b6001600160a01b039060243582811691908290036102b057604435908382168092036102b0576000549260ff8460081c16159384809561072a575b8015610713575b156106b75760ff198116600117600055846106a5575b5061061c60ff60005460081c166106178161247b565b61247b565b61062533612243565b6000549461063860ff8760081c1661247b565b6bffffffffffffffffffffffff60a01b92168260ce54161760ce558160cf54161760cf5560d054161760d05560643560d15561067057005b61ff0019166000557f7f26b83ff96e1f2b6a682f133852f6798a09c465da95921460cefb3847402498602060405160018152a1005b61ffff19166101011760005585610601565b60405162461bcd60e51b815260206004820152602e60248201527f496e697469616c697a61626c653a20636f6e747261637420697320616c72656160448201526d191e481a5b9a5d1a585b1a5e995960921b6064820152608490fd5b50303b1580156105eb5750600160ff8216146105eb565b50600160ff8216106105e4565b346102b05760203660031901126102b0576004356000606060405161075b81611ea9565b8281528260208201528260408201520152801515806107dd575b61077e906124ea565b60005260cc6020526080604060002060405161079981611ea9565b815491828252600181015460208301908152606060036002840154936040860194855201549301928352604051938452516020840152516040830152516060820152f35b5060c954811115610775565b346102b05760203660031901126102b0576004356108056121eb565b801515806108bb575b610817906124ea565b8060005260ca60205260ff600a604060002001541661088357600081815260ca60205260408120600a8101805460ff1916600190811790915501546001600160a01b031691907f9364ac9420d2bc88a7ef976f848a23c6fc5d00ed9f7978139dc44958829c96909080a3005b60405162461bcd60e51b815260206004820152601060248201526f105b1c9958591e481d995c9a599a595960821b6044820152606490fd5b5060c95481111561080e565b346102b05760203660031901126102b05760043560005260cc602052608060406000208054906001810154906003600282015491015491604051938452602084015260408301526060820152f35b346102b05760003660031901126102b05760cf546040516001600160a01b039091168152602090f35b346102b05760203660031901126102b05760043561095a61252e565b5080151580610a4b575b61096d906124ea565b60005260ca602052610a476040600020600c6040519161098c83611e8d565b8054835260018101546001600160a01b031660208401526109af60028201612145565b60408401526109c060038201612145565b60608401526109d160048201612145565b6080840152600581015460a0840152600681015460c0840152600781015460e08401526008810154610100840152600981015461012084015260ff600a820154818116151561014086015260081c161515610160840152600b81015461018084015201546101a082015260405191829182612009565b0390f35b5060c954811115610964565b346102b05760203660031901126102b057610a70611fab565b610a786121eb565b60cf80546001600160a01b0319166001600160a01b0392909216919091179055005b346102b05760003660031901126102b05760d0546040516001600160a01b039091168152602090f35b346102b05760203660031901126102b057610adc6121eb565b60043560d155005b346102b05760003660031901126102b057602060d154604051908152f35b346102b05760003660031901126102b057610b1e60d2546125ea565b6000600160c954905b81811115610b77575050610b3a816125ea565b9160005b828110610b535760405180610a478682611f70565b80610b61610b72928461261c565b51610b6c828761261c565b526124db565b610b3e565b8060005260ca60205260ff600a90808260406000200154169182610bc6575b5050610bab575b610ba6906124db565b610b27565b91610bbe8184610b6c610ba6948861261c565b929050610b9d565b6040600020015460081c1690508580610b96565b346102b05760003660031901126102b0576033546040516001600160a01b039091168152602090f35b346102b05760403660031901126102b0576004356001600160401b0381116102b057610c33903690600401611f52565b610c4f6020602435928160405193828580945193849201611fc1565b810160cd81520301902080548210156102b057602091610c6e916120dd565b90546040519160031b1c8152f35b346102b05760003660031901126102b05760ce546040516001600160a01b039091168152602090f35b346102b05760003660031901126102b057610cbe6121eb565b603380546001600160a01b031981169091556000906001600160a01b03167f8be0079c531659141344cd1fd0a4f28419497f9722a3daafe3b4186f6b6457e08280a3005b346102b05760003660031901126102b057602060d254604051908152f35b346102b05760203660031901126102b0576001600160a01b03610d41611fab565b1660005260cb6020526020604060002054604051908152f35b60803660031901126102b0576004356001600160401b0381116102b057610d85903690600401611f52565b6024356001600160401b0381116102b057610da4903690600401611f52565b6044356001600160401b0381116102b057610dc3903690600401611f52565b60d154341061144557825115611409578051156113c4573360005260cb60205260406000205461138a57600160c95401918260c95560405190610e0582611e8d565b838252336020830152846040830152606082015281608082015260643560a0820152600060c0820152600060e0820152600061010082015260006101208201526001610140820152600161016082015242610180820152426101a08201528260005260ca602052604060002090805182556001820160018060a01b036020830151166bffffffffffffffffffffffff60a01b82541617905560408101518051906001600160401b03821161110c578190610ec2600286015461210b565b601f8111611337575b50602090601f83116001146112c5576000926112ba575b50508160011b916000199060031b1c19161760028301555b60608101518051906001600160401b03821161110c578190610f1f600386015461210b565b601f8111611267575b50602090601f83116001146111f5576000926111ea575b50508160011b916000199060031b1c19161760038301555b60808101518051906001600160401b03821161110c57610f7a600485015461210b565b601f81116111a3575b50602090601f831160011461112d579180600c94926101a094600092611122575b50508160011b916000199060031b1c19161760048501555b60a0810151600585015560c0810151600685015560e081015160078501556101008101516008850155610120810151600985015561102a600a8501610140830151151560ff80198354169116178155610160830151151561ff00825491151560081b169061ff001916179055565b610180810151600b85015501519101553360005260cb60205281604060002055604051602081835161105f8183858801611fc1565b810160cd8152030190209283546801000000000000000081101561110c576110f38492836110b68460209960017f52a90d339ad28a992917e650220b3e982d4d5a23ad19fc1f87004f11aedb6a4e970181556120dd565b819291549060031b600019811b9283911b169119161790556110d960d2546124db565b60d255611101604051928392604084526040840190611fe4565b828103898401523396611fe4565b0390a3604051908152f35b634e487b7160e01b600052604160045260246000fd5b015190508980610fa4565b906004850160005260206000209160005b601f198516811061118b575092600c94926001926101a09583601f19811610611172575b505050811b016004850155610fbc565b015160001960f88460031b161c19169055898080611162565b9192602060018192868501518155019401920161113e565b600485016000526020600020601f840160051c8101602085106111e3575b601f830160051c820181106111d7575050610f83565b600081556001016111c1565b50806111c1565b015190508780610f3f565b9250600385016000526020600020906000935b601f198416851061124c576001945083601f19811610611233575b505050811b016003830155610f57565b015160001960f88460031b161c19169055878080611223565b81810151835560209485019460019093019290910190611208565b909150600385016000526020600020601f840160051c8101602085106112b3575b90849392915b601f830160051c820181106112a4575050610f28565b6000815585945060010161128e565b5080611288565b015190508780610ee2565b9250600285016000526020600020906000935b601f198416851061131c576001945083601f19811610611303575b505050811b016002830155610efa565b015160001960f88460031b161c191690558780806112f3565b818101518355602094850194600190930192909101906112d8565b909150600285016000526020600020601f840160051c810160208510611383575b90849392915b601f830160051c82018110611374575050610ecb565b6000815585945060010161135e565b5080611358565b60405162461bcd60e51b8152602060048201526012602482015271105b1c9958591e481c9959da5cdd195c995960721b6044820152606490fd5b60405162461bcd60e51b815260206004820152601960248201527f5370656369616c74792063616e6e6f7420626520656d707479000000000000006044820152606490fd5b60405162461bcd60e51b81526020600482015260146024820152734e616d652063616e6e6f7420626520656d70747960601b6044820152606490fd5b60405162461bcd60e51b815260206004820152601d60248201527f496e73756666696369656e7420766572696669636174696f6e206665650000006044820152606490fd5b346102b05760203660031901126102b0576114a3611fab565b6114ab61252e565b506001600160a01b03908116600090815260cb602052604090205490811561150857610a479160005260ca602052600c6040600020604051926114ed84611e8d565b8154845260018201541660208401526109af60028201612145565b60405162461bcd60e51b8152602060048201526014602482015273105cdd1c9bdb1bd9d95c881b9bdd08199bdd5b9960621b6044820152606490fd5b346102b05760003660031901126102b0577f00000000000000000000000000000000000000000000000000000000000000006001600160a01b0316300361159d5760206040516000805160206126318339815191528152f35b60405162461bcd60e51b815260206004820152603860248201527f555550535570677261646561626c653a206d757374206e6f742062652063616c60448201527f6c6564207468726f7567682064656c656761746563616c6c00000000000000006064820152608490fd5b346102b05761161636611e77565b60d0549091906001600160a01b0316330361165f5780151580611653575b61163d906124ea565b60005260ca602052600960406000200155600080f35b5060c954811115611634565b60405162461bcd60e51b815260206004820152602a60248201527f4f6e6c7920746f6b656e206c61756e636865722063616e2073657420746f6b656044820152691b8818dbdb9d1c9858dd60b21b6064820152608490fd5b60403660031901126102b0576116cb611fab565b6024356001600160401b0381116102b057366023820112156102b0576116fb903690602481600401359101611f1b565b6001600160a01b037f0000000000000000000000000000000000000000000000000000000000000000811691906117343084141561228c565b6117516000805160206126318339815191529382855416146122ed565b6117596121eb565b7f4910fdfa16fed3260ed0e7147f7cc6da11a60208b5b9406d12a635614ffd91435460ff161561178f575050506102ee9061234e565b8316604051926352d1902d60e01b84526020938481600481865afa60009181611946575b506118145760405162461bcd60e51b815260048101869052602e60248201527f45524331393637557067726164653a206e657720696d706c656d656e7461746960448201526d6f6e206973206e6f74205555505360901b6064820152608490fd5b939293036118ef576118258461234e565b7fbc7cd75a20ee27fd9adebab32041f755214dbc6bffa90cc0225b39da2e5c2d3b600080a28151158015906118e7575b61185b57005b6102ee926000806040519461186f86611ec4565b602786527f416464726573733a206c6f772d6c6576656c2064656c65676174652063616c6c85870152660819985a5b195960ca1b60408701528481519101845af4903d156118de573d6118c181611f00565b906118cf6040519283611edf565b8152600081943d92013e6123de565b606092506123de565b506001611855565b60405162461bcd60e51b815260048101839052602960248201527f45524331393637557067726164653a20756e737570706f727465642070726f786044820152681a58589b195555525160ba1b6064820152608490fd5b9091508581813d831161196e575b61195e8183611edf565b810103126102b0575190876117b3565b503d611954565b346102b05760003660031901126102b05761198e6121eb565b600080808060018060a01b036033541647908282156119bc575bf1156119b057005b6040513d6000823e3d90fd5b506108fc6119a8565b346102b0576020806003193601126102b0576119df611fab565b6001600160a01b03917f00000000000000000000000000000000000000000000000000000000000000008316611a173082141561228c565b611a346000805160206126318339815191529185835416146122ed565b611a3c6121eb565b60405190828201948286106001600160401b0387111761110c57856040526000835260ff7f4910fdfa16fed3260ed0e7147f7cc6da11a60208b5b9406d12a635614ffd91435416600014611a9857505050506102ee915061234e565b8492939416906040516352d1902d60e01b81528581600481865afa60009181611c26575b50611b1d5760405162461bcd60e51b815260048101879052602e60248201527f45524331393637557067726164653a206e657720696d706c656d656e7461746960448201526d6f6e206973206e6f74205555505360901b6064820152608490fd5b94939403611bcf57611b2e8261234e565b7fbc7cd75a20ee27fd9adebab32041f755214dbc6bffa90cc0225b39da2e5c2d3b600080a2825115801590611bc7575b611b6457005b6000806102ee9560405195611b7887611ec4565b602787527f416464726573733a206c6f772d6c6576656c2064656c65676174652063616c6c86880152660819985a5b195960ca1b60408801525190845af4903d156118de573d6118c181611f00565b506000611b5e565b60405162461bcd60e51b815260048101849052602960248201527f45524331393637557067726164653a20756e737570706f727465642070726f786044820152681a58589b195555525160ba1b6064820152608490fd5b9091508681813d8311611c4e575b611c3e8183611edf565b810103126102b057519088611abc565b503d611c34565b346102b05760203660031901126102b0576020611c78611c73611fab565b612598565b6040519015158152f35b346102b0576020806003193601126102b0576004356001600160401b0381116102b05781611cb7611cca923690600401611f52565b8160405193828580945193849201611fc1565b810160cd81520301902090604051908181845491828152019360005281600020916000905b828210611d1257610a4785611d0681890382611edf565b60405191829182611f70565b835486529485019460019384019390910190611cef565b346102b05760203660031901126102b057600435611d456121eb565b80151580611d85575b611d57906124ea565b600090815260ca60205260409020600a01805461ff00198116600891821c60ff161590911b61ff0016179055005b5060c954811115611d4e565b346102b057611d9f36611e77565b60ce54919290916001600160a01b03163303611e20575060407fd9f66501c000653403d74ddfa62a75c8dd44cc05d910ee81bf1d852262dd5fa19183151580611e14575b611dec906124ea565b8360005260ca60205260068260002001549080600684600020015582519182526020820152a2005b5060c954841115611de3565b62461bcd60e51b815260206004820152602c60248201527f4f6e6c792072657075746174696f6e2073636f7265722063616e20757064617460448201526b32903932b83aba30ba34b7b760a11b6064820152608490fd5b60409060031901126102b0576004359060243590565b6101c081019081106001600160401b0382111761110c57604052565b608081019081106001600160401b0382111761110c57604052565b606081019081106001600160401b0382111761110c57604052565b90601f801991011681019081106001600160401b0382111761110c57604052565b6001600160401b03811161110c57601f01601f191660200190565b929192611f2782611f00565b91611f356040519384611edf565b8294818452818301116102b0578281602093846000960137010152565b9080601f830112156102b057816020611f6d93359101611f1b565b90565b6020908160408183019282815285518094520193019160005b828110611f97575050505090565b835185529381019392810192600101611f89565b600435906001600160a01b03821682036102b057565b60005b838110611fd45750506000910152565b8181015183820152602001611fc4565b90602091611ffd81518092818552858086019101611fc1565b601f01601f1916010190565b602081528151602082015260018060a01b03602083015116604082015260408201516120776120466101c0928360608601526101e0850190611fe4565b612062606086015191601f199283878303016080880152611fe4565b906080860151908583030160a0860152611fe4565b9260a081015160c084015260c081015160e084015260e08101516101009081850152810151610120908185015281015161014090818501528101511515610160908185015281015115156101809081850152810151906101a09182850152015191015290565b80548210156120f55760005260206000200190600090565b634e487b7160e01b600052603260045260246000fd5b90600182811c9216801561213b575b602083101461212557565b634e487b7160e01b600052602260045260246000fd5b91607f169161211a565b90604051918260008254926121598461210b565b9081845260019485811690816000146121c85750600114612185575b505061218392500383611edf565b565b9093915060005260209081600020936000915b8183106121b057505061218393508201013880612175565b85548884018501529485019487945091830191612198565b91505061218394506020925060ff191682840152151560051b8201013880612175565b6033546001600160a01b031633036121ff57565b606460405162461bcd60e51b815260206004820152602060248201527f4f776e61626c653a2063616c6c6572206973206e6f7420746865206f776e65726044820152fd5b603380546001600160a01b039283166001600160a01b0319821681179092559091167f8be0079c531659141344cd1fd0a4f28419497f9722a3daafe3b4186f6b6457e0600080a3565b1561229357565b60405162461bcd60e51b815260206004820152602c60248201527f46756e6374696f6e206d7573742062652063616c6c6564207468726f7567682060448201526b19195b1959d85d1958d85b1b60a21b6064820152608490fd5b156122f457565b60405162461bcd60e51b815260206004820152602c60248201527f46756e6374696f6e206d7573742062652063616c6c6564207468726f7567682060448201526b6163746976652070726f787960a01b6064820152608490fd5b803b156123835760008051602061263183398151915280546001600160a01b0319166001600160a01b03909216919091179055565b60405162461bcd60e51b815260206004820152602d60248201527f455243313936373a206e657720696d706c656d656e746174696f6e206973206e60448201526c1bdd08184818dbdb9d1c9858dd609a1b6064820152608490fd5b9192901561244057508151156123f2575090565b3b156123fb5790565b60405162461bcd60e51b815260206004820152601d60248201527f416464726573733a2063616c6c20746f206e6f6e2d636f6e74726163740000006044820152606490fd5b8251909150156124535750805190602001fd5b60405162461bcd60e51b815260206004820152908190612477906024830190611fe4565b0390fd5b1561248257565b60405162461bcd60e51b815260206004820152602b60248201527f496e697469616c697a61626c653a20636f6e7472616374206973206e6f74206960448201526a6e697469616c697a696e6760a81b6064820152608490fd5b60001981146104465760010190565b156124f157565b60405162461bcd60e51b8152602060048201526015602482015274125b9d985b1a5908185cdd1c9bdb1bd9d95c881251605a1b6044820152606490fd5b6040519061253b82611e8d565b816101a060009182815282602082015260606040820152606080820152606060808201528260a08201528260c08201528260e082015282610100820152826101208201528261014082015282610160820152826101808201520152565b6001600160a01b0316600090815260cb602052604090205480156125cd5760005260ca60205260ff600a604060002001541690565b50600090565b6001600160401b03811161110c5760051b60200190565b906125f4826125d3565b6126016040519182611edf565b8281528092612612601f19916125d3565b0190602036910137565b80518210156120f55760209160051b01019056fe360894a13ba1a3210667c828492db98dca3e2076cc3735a920a3ca505d382bbca264697066735822122087bd46d2b015f1a83be9bbf5eedb71024d6f8776c78ac037632bb8e5e7e0b90264736f6c63430008110033","opcodes":"PUSH1 0xA0 DUP1 PUSH1 0x40 MSTORE CALLVALUE PUSH2 0xDC JUMPI ADDRESS PUSH1 0x80 MSTORE PUSH1 0x0 SLOAD SWAP1 PUSH1 0xFF DUP3 PUSH1 0x8 SHR AND PUSH2 0x8A JUMPI POP PUSH1 0xFF DUP1 DUP3 AND SUB PUSH2 0x4F JUMPI JUMPDEST PUSH1 0x40 MLOAD PUSH2 0x2686 SWAP1 DUP2 PUSH2 0xE2 DUP3 CODECOPY PUSH1 0x80 MLOAD DUP2 DUP2 DUP2 PUSH2 0x1557 ADD MSTORE DUP2 DUP2 PUSH2 0x1705 ADD MSTORE PUSH2 0x19EA ADD MSTORE RETURN JUMPDEST PUSH1 0xFF SWAP1 DUP2 NOT AND OR PUSH1 0x0 SSTORE PUSH32 0x7F26B83FF96E1F2B6A682F133852F6798A09C465DA95921460CEFB3847402498 PUSH1 0x20 PUSH1 0x40 MLOAD PUSH1 0xFF DUP2 MSTORE LOG1 CODESIZE PUSH2 0x29 JUMP JUMPDEST PUSH3 0x461BCD PUSH1 0xE5 SHL DUP2 MSTORE PUSH1 0x20 PUSH1 0x4 DUP3 ADD MSTORE PUSH1 0x27 PUSH1 0x24 DUP3 ADD MSTORE PUSH32 0x496E697469616C697A61626C653A20636F6E747261637420697320696E697469 PUSH1 0x44 DUP3 ADD MSTORE PUSH7 0x616C697A696E67 PUSH1 0xC8 SHL PUSH1 0x64 DUP3 ADD MSTORE PUSH1 0x84 SWAP1 REVERT JUMPDEST PUSH1 0x0 DUP1 REVERT INVALID PUSH1 0x80 DUP1 PUSH1 0x40 MSTORE PUSH1 0x4 CALLDATASIZE LT ISZERO PUSH2 0x13 JUMPI PUSH1 0x0 DUP1 REVERT JUMPDEST PUSH1 0x0 CALLDATALOAD PUSH1 0xE0 SHR SWAP1 DUP2 PUSH4 0x675F763 EQ PUSH2 0x1D91 JUMPI POP DUP1 PUSH4 0x1AFE9E5C EQ PUSH2 0x1D29 JUMPI DUP1 PUSH4 0x2CB5F95A EQ PUSH2 0x1C82 JUMPI DUP1 PUSH4 0x30A7D32A EQ PUSH2 0x1C55 JUMPI DUP1 PUSH4 0x3659CFE6 EQ PUSH2 0x19C5 JUMPI DUP1 PUSH4 0x38DEC5DD EQ PUSH2 0xD20 JUMPI DUP1 PUSH4 0x3CCFD60B EQ PUSH2 0x1975 JUMPI DUP1 PUSH4 0x4F1EF286 EQ PUSH2 0x16B7 JUMPI DUP1 PUSH4 0x5273496A EQ PUSH2 0x1608 JUMPI DUP1 PUSH4 0x52D1902D EQ PUSH2 0x1544 JUMPI DUP1 PUSH4 0x61CB82BA EQ PUSH2 0x148A JUMPI DUP1 PUSH4 0x62761B76 EQ PUSH2 0xD5A JUMPI DUP1 PUSH4 0x656D0C39 EQ PUSH2 0xD20 JUMPI DUP1 PUSH4 0x6F7C0C75 EQ PUSH2 0xD02 JUMPI DUP1 PUSH4 0x715018A6 EQ PUSH2 0xCA5 JUMPI DUP1 PUSH4 0x73C84D21 EQ PUSH2 0xC7C JUMPI DUP1 PUSH4 0x84EBEAB6 EQ PUSH2 0xC03 JUMPI DUP1 PUSH4 0x8DA5CB5B EQ PUSH2 0xBDA JUMPI DUP1 PUSH4 0x97206C0A EQ PUSH2 0xB02 JUMPI DUP1 PUSH4 0xA8C278A2 EQ PUSH2 0xAE4 JUMPI DUP1 PUSH4 0xAAE9D5F2 EQ PUSH2 0xAC3 JUMPI DUP1 PUSH4 0xAB3DCD6A EQ PUSH2 0xA9A JUMPI DUP1 PUSH4 0xB0D485B3 EQ PUSH2 0xA57 JUMPI DUP1 PUSH4 0xB56FAF11 EQ PUSH2 0x93E JUMPI DUP1 PUSH4 0xB76D03B2 EQ PUSH2 0x915 JUMPI DUP1 PUSH4 0xBA9E826C EQ PUSH2 0x8C7 JUMPI DUP1 PUSH4 0xC1EF5CD2 EQ PUSH2 0x7E9 JUMPI DUP1 PUSH4 0xCC89C634 EQ PUSH2 0x737 JUMPI DUP1 PUSH4 0xCF756FDF EQ PUSH2 0x590 JUMPI DUP1 PUSH4 0xDAA8D1C6 EQ PUSH2 0x4BF JUMPI DUP1 PUSH4 0xE2C3538C EQ PUSH2 0x47C JUMPI DUP1 PUSH4 0xE47EF5A8 EQ PUSH2 0x387 JUMPI DUP1 PUSH4 0xE9725C21 EQ PUSH2 0x344 JUMPI DUP1 PUSH4 0xF2FDE38B EQ PUSH2 0x2B5 JUMPI PUSH4 0xFC809BF5 EQ PUSH2 0x1A0 JUMPI PUSH1 0x0 DUP1 REVERT JUMPDEST CALLVALUE PUSH2 0x2B0 JUMPI PUSH1 0x20 CALLDATASIZE PUSH1 0x3 NOT ADD SLT PUSH2 0x2B0 JUMPI PUSH1 0x4 CALLDATALOAD PUSH1 0x0 SWAP1 DUP2 MSTORE PUSH1 0xCA PUSH1 0x20 MSTORE PUSH1 0x40 SWAP1 KECCAK256 DUP1 SLOAD PUSH1 0x1 DUP3 ADD SLOAD PUSH1 0x1 PUSH1 0x1 PUSH1 0xA0 SHL SUB AND SWAP2 PUSH2 0x1DF PUSH1 0x2 DUP3 ADD PUSH2 0x2145 JUMP JUMPDEST PUSH2 0x1EB PUSH1 0x3 DUP4 ADD PUSH2 0x2145 JUMP JUMPDEST SWAP2 PUSH2 0x1F8 PUSH1 0x4 DUP3 ADD PUSH2 0x2145 JUMP JUMPDEST SWAP3 PUSH1 0x5 DUP3 ADD SLOAD SWAP4 PUSH1 0x6 DUP4 ADD SLOAD PUSH1 0x7 DUP5 ADD SLOAD PUSH1 0x8 DUP6 ADD SLOAD SWAP2 PUSH1 0x9 DUP7 ADD SLOAD SWAP4 PUSH1 0xA DUP8 ADD SLOAD SWAP6 PUSH1 0xB DUP9 ADD SLOAD SWAP8 PUSH1 0xC ADD SLOAD SWAP9 PUSH1 0x40 MLOAD SWAP13 DUP14 SWAP13 DUP14 MSTORE PUSH1 0x20 DUP14 ADD MSTORE DUP12 PUSH2 0x1C0 PUSH1 0x40 DUP2 SWAP3 ADD MSTORE DUP13 ADD PUSH2 0x248 SWAP2 PUSH2 0x1FE4 JUMP JUMPDEST DUP12 DUP2 SUB PUSH1 0x60 DUP14 ADD MSTORE PUSH2 0x259 SWAP2 PUSH2 0x1FE4 JUMP JUMPDEST DUP11 DUP2 SUB PUSH1 0x80 DUP13 ADD MSTORE PUSH2 0x26A SWAP2 PUSH2 0x1FE4 JUMP JUMPDEST SWAP8 PUSH1 0xA0 DUP11 ADD MSTORE PUSH1 0xC0 DUP10 ADD MSTORE PUSH1 0xE0 DUP9 ADD MSTORE PUSH2 0x100 DUP8 ADD MSTORE PUSH2 0x120 DUP7 ADD MSTORE PUSH1 0xFF DUP2 AND ISZERO ISZERO PUSH2 0x140 DUP7 ADD MSTORE PUSH1 0x8 SHR PUSH1 0xFF AND ISZERO ISZERO PUSH2 0x160 DUP6 ADD MSTORE PUSH2 0x180 DUP5 ADD MSTORE PUSH2 0x1A0 DUP4 ADD MSTORE SUB SWAP1 RETURN JUMPDEST PUSH1 0x0 DUP1 REVERT JUMPDEST CALLVALUE PUSH2 0x2B0 JUMPI PUSH1 0x20 CALLDATASIZE PUSH1 0x3 NOT ADD SLT PUSH2 0x2B0 JUMPI PUSH2 0x2CE PUSH2 0x1FAB JUMP JUMPDEST PUSH2 0x2D6 PUSH2 0x21EB JUMP JUMPDEST PUSH1 0x1 PUSH1 0x1 PUSH1 0xA0 SHL SUB DUP2 AND ISZERO PUSH2 0x2F0 JUMPI PUSH2 0x2EE SWAP1 PUSH2 0x2243 JUMP JUMPDEST STOP JUMPDEST PUSH1 0x40 MLOAD PUSH3 0x461BCD PUSH1 0xE5 SHL DUP2 MSTORE PUSH1 0x20 PUSH1 0x4 DUP3 ADD MSTORE PUSH1 0x26 PUSH1 0x24 DUP3 ADD MSTORE PUSH32 0x4F776E61626C653A206E6577206F776E657220697320746865207A65726F2061 PUSH1 0x44 DUP3 ADD MSTORE PUSH6 0x646472657373 PUSH1 0xD0 SHL PUSH1 0x64 DUP3 ADD MSTORE PUSH1 0x84 SWAP1 REVERT JUMPDEST CALLVALUE PUSH2 0x2B0 JUMPI PUSH1 0x20 CALLDATASIZE PUSH1 0x3 NOT ADD SLT PUSH2 0x2B0 JUMPI PUSH2 0x35D PUSH2 0x1FAB JUMP JUMPDEST PUSH2 0x365 PUSH2 0x21EB JUMP JUMPDEST PUSH1 0xCE DUP1 SLOAD PUSH1 0x1 PUSH1 0x1 PUSH1 0xA0 SHL SUB NOT AND PUSH1 0x1 PUSH1 0x1 PUSH1 0xA0 SHL SUB SWAP3 SWAP1 SWAP3 AND SWAP2 SWAP1 SWAP2 OR SWAP1 SSTORE STOP JUMPDEST CALLVALUE PUSH2 0x2B0 JUMPI PUSH1 0x40 CALLDATASIZE PUSH1 0x3 NOT ADD SLT PUSH2 0x2B0 JUMPI PUSH1 0x4 CALLDATALOAD PUSH1 0x24 CALLDATALOAD DUP1 ISZERO ISZERO DUP1 DUP3 SUB PUSH2 0x2B0 JUMPI DUP3 ISZERO ISZERO DUP1 PUSH2 0x470 JUMPI JUMPDEST PUSH2 0x3BA SWAP1 PUSH2 0x24EA JUMP JUMPDEST DUP3 PUSH1 0x0 MSTORE PUSH1 0xCA PUSH1 0x20 MSTORE PUSH1 0x8 PUSH1 0x40 PUSH1 0x0 KECCAK256 PUSH1 0x7 DUP2 ADD SWAP4 PUSH2 0x3D9 DUP6 SLOAD PUSH2 0x24DB JUMP JUMPDEST DUP1 SWAP6 SSTORE PUSH2 0x45C JUMPI JUMPDEST ADD SLOAD SWAP1 PUSH1 0x64 DUP3 MUL SWAP2 DUP1 DUP4 DIV PUSH1 0x64 EQ SWAP1 ISZERO OR ISZERO PUSH2 0x446 JUMPI DUP3 ISZERO PUSH2 0x430 JUMPI PUSH32 0x756A61461A8776A88359F7BECF7CD5CE80A583BD386FE18023FAD70323EBC15B SWAP3 PUSH1 0x40 SWAP3 DUP4 MLOAD SWAP3 DUP4 MSTORE DIV PUSH1 0x20 DUP3 ADD MSTORE LOG2 STOP JUMPDEST PUSH4 0x4E487B71 PUSH1 0xE0 SHL PUSH1 0x0 MSTORE PUSH1 0x12 PUSH1 0x4 MSTORE PUSH1 0x24 PUSH1 0x0 REVERT JUMPDEST PUSH4 0x4E487B71 PUSH1 0xE0 SHL PUSH1 0x0 MSTORE PUSH1 0x11 PUSH1 0x4 MSTORE PUSH1 0x24 PUSH1 0x0 REVERT JUMPDEST DUP2 DUP2 ADD PUSH2 0x469 DUP2 SLOAD PUSH2 0x24DB JUMP JUMPDEST SWAP1 SSTORE PUSH2 0x3E1 JUMP JUMPDEST POP PUSH1 0xC9 SLOAD DUP4 GT ISZERO PUSH2 0x3B1 JUMP JUMPDEST CALLVALUE PUSH2 0x2B0 JUMPI PUSH1 0x20 CALLDATASIZE PUSH1 0x3 NOT ADD SLT PUSH2 0x2B0 JUMPI PUSH2 0x495 PUSH2 0x1FAB JUMP JUMPDEST PUSH2 0x49D PUSH2 0x21EB JUMP JUMPDEST PUSH1 0xD0 DUP1 SLOAD PUSH1 0x1 PUSH1 0x1 PUSH1 0xA0 SHL SUB NOT AND PUSH1 0x1 PUSH1 0x1 PUSH1 0xA0 SHL SUB SWAP3 SWAP1 SWAP3 AND SWAP2 SWAP1 SWAP2 OR SWAP1 SSTORE STOP JUMPDEST CALLVALUE PUSH2 0x2B0 JUMPI PUSH1 0xA0 CALLDATASIZE PUSH1 0x3 NOT ADD SLT PUSH2 0x2B0 JUMPI PUSH1 0x33 SLOAD PUSH1 0x4 CALLDATALOAD SWAP1 CALLER PUSH1 0x1 PUSH1 0x1 PUSH1 0xA0 SHL SUB SWAP2 DUP3 AND EQ SWAP1 DUP2 ISZERO PUSH2 0x582 JUMPI JUMPDEST POP ISZERO PUSH2 0x54E JUMPI DUP1 ISZERO ISZERO DUP1 PUSH2 0x542 JUMPI JUMPDEST PUSH2 0x504 SWAP1 PUSH2 0x24EA JUMP JUMPDEST PUSH1 0x0 MSTORE PUSH1 0xCC PUSH1 0x20 MSTORE PUSH1 0x40 PUSH1 0x0 KECCAK256 PUSH1 0x24 CALLDATALOAD DUP2 SSTORE PUSH1 0x44 CALLDATALOAD PUSH1 0x1 DUP3 ADD SSTORE PUSH1 0x64 CALLDATALOAD PUSH1 0x2 DUP3 ADD SSTORE PUSH1 0x3 PUSH1 0x84 CALLDATALOAD SWAP2 ADD SSTORE PUSH1 0xCA PUSH1 0x20 MSTORE TIMESTAMP PUSH1 0xC PUSH1 0x40 PUSH1 0x0 KECCAK256 ADD SSTORE PUSH1 0x0 DUP1 RETURN JUMPDEST POP PUSH1 0xC9 SLOAD DUP2 GT ISZERO PUSH2 0x4FB JUMP JUMPDEST PUSH1 0x40 MLOAD PUSH3 0x461BCD PUSH1 0xE5 SHL DUP2 MSTORE PUSH1 0x20 PUSH1 0x4 DUP3 ADD MSTORE PUSH1 0xC PUSH1 0x24 DUP3 ADD MSTORE PUSH12 0x155B985D5D1A1BDC9A5E9959 PUSH1 0xA2 SHL PUSH1 0x44 DUP3 ADD MSTORE PUSH1 0x64 SWAP1 REVERT JUMPDEST SWAP1 POP PUSH1 0xCE SLOAD AND CALLER EQ DUP3 PUSH2 0x4EC JUMP JUMPDEST CALLVALUE PUSH2 0x2B0 JUMPI PUSH1 0x80 CALLDATASIZE PUSH1 0x3 NOT ADD SLT PUSH2 0x2B0 JUMPI PUSH2 0x5A9 PUSH2 0x1FAB JUMP JUMPDEST PUSH1 0x1 PUSH1 0x1 PUSH1 0xA0 SHL SUB SWAP1 PUSH1 0x24 CALLDATALOAD DUP3 DUP2 AND SWAP2 SWAP1 DUP3 SWAP1 SUB PUSH2 0x2B0 JUMPI PUSH1 0x44 CALLDATALOAD SWAP1 DUP4 DUP3 AND DUP1 SWAP3 SUB PUSH2 0x2B0 JUMPI PUSH1 0x0 SLOAD SWAP3 PUSH1 0xFF DUP5 PUSH1 0x8 SHR AND ISZERO SWAP4 DUP5 DUP1 SWAP6 PUSH2 0x72A JUMPI JUMPDEST DUP1 ISZERO PUSH2 0x713 JUMPI JUMPDEST ISZERO PUSH2 0x6B7 JUMPI PUSH1 0xFF NOT DUP2 AND PUSH1 0x1 OR PUSH1 0x0 SSTORE DUP5 PUSH2 0x6A5 JUMPI JUMPDEST POP PUSH2 0x61C PUSH1 0xFF PUSH1 0x0 SLOAD PUSH1 0x8 SHR AND PUSH2 0x617 DUP2 PUSH2 0x247B JUMP JUMPDEST PUSH2 0x247B JUMP JUMPDEST PUSH2 0x625 CALLER PUSH2 0x2243 JUMP JUMPDEST PUSH1 0x0 SLOAD SWAP5 PUSH2 0x638 PUSH1 0xFF DUP8 PUSH1 0x8 SHR AND PUSH2 0x247B JUMP JUMPDEST PUSH12 0xFFFFFFFFFFFFFFFFFFFFFFFF PUSH1 0xA0 SHL SWAP3 AND DUP3 PUSH1 0xCE SLOAD AND OR PUSH1 0xCE SSTORE DUP2 PUSH1 0xCF SLOAD AND OR PUSH1 0xCF SSTORE PUSH1 0xD0 SLOAD AND OR PUSH1 0xD0 SSTORE PUSH1 0x64 CALLDATALOAD PUSH1 0xD1 SSTORE PUSH2 0x670 JUMPI STOP JUMPDEST PUSH2 0xFF00 NOT AND PUSH1 0x0 SSTORE PUSH32 0x7F26B83FF96E1F2B6A682F133852F6798A09C465DA95921460CEFB3847402498 PUSH1 0x20 PUSH1 0x40 MLOAD PUSH1 0x1 DUP2 MSTORE LOG1 STOP JUMPDEST PUSH2 0xFFFF NOT AND PUSH2 0x101 OR PUSH1 0x0 SSTORE DUP6 PUSH2 0x601 JUMP JUMPDEST PUSH1 0x40 MLOAD PUSH3 0x461BCD PUSH1 0xE5 SHL DUP2 MSTORE PUSH1 0x20 PUSH1 0x4 DUP3 ADD MSTORE PUSH1 0x2E PUSH1 0x24 DUP3 ADD MSTORE PUSH32 0x496E697469616C697A61626C653A20636F6E747261637420697320616C726561 PUSH1 0x44 DUP3 ADD MSTORE PUSH14 0x191E481A5B9A5D1A585B1A5E9959 PUSH1 0x92 SHL PUSH1 0x64 DUP3 ADD MSTORE PUSH1 0x84 SWAP1 REVERT JUMPDEST POP ADDRESS EXTCODESIZE ISZERO DUP1 ISZERO PUSH2 0x5EB JUMPI POP PUSH1 0x1 PUSH1 0xFF DUP3 AND EQ PUSH2 0x5EB JUMP JUMPDEST POP PUSH1 0x1 PUSH1 0xFF DUP3 AND LT PUSH2 0x5E4 JUMP JUMPDEST CALLVALUE PUSH2 0x2B0 JUMPI PUSH1 0x20 CALLDATASIZE PUSH1 0x3 NOT ADD SLT PUSH2 0x2B0 JUMPI PUSH1 0x4 CALLDATALOAD PUSH1 0x0 PUSH1 0x60 PUSH1 0x40 MLOAD PUSH2 0x75B DUP2 PUSH2 0x1EA9 JUMP JUMPDEST DUP3 DUP2 MSTORE DUP3 PUSH1 0x20 DUP3 ADD MSTORE DUP3 PUSH1 0x40 DUP3 ADD MSTORE ADD MSTORE DUP1 ISZERO ISZERO DUP1 PUSH2 0x7DD JUMPI JUMPDEST PUSH2 0x77E SWAP1 PUSH2 0x24EA JUMP JUMPDEST PUSH1 0x0 MSTORE PUSH1 0xCC PUSH1 0x20 MSTORE PUSH1 0x80 PUSH1 0x40 PUSH1 0x0 KECCAK256 PUSH1 0x40 MLOAD PUSH2 0x799 DUP2 PUSH2 0x1EA9 JUMP JUMPDEST DUP2 SLOAD SWAP2 DUP3 DUP3 MSTORE PUSH1 0x1 DUP2 ADD SLOAD PUSH1 0x20 DUP4 ADD SWAP1 DUP2 MSTORE PUSH1 0x60 PUSH1 0x3 PUSH1 0x2 DUP5 ADD SLOAD SWAP4 PUSH1 0x40 DUP7 ADD SWAP5 DUP6 MSTORE ADD SLOAD SWAP4 ADD SWAP3 DUP4 MSTORE PUSH1 0x40 MLOAD SWAP4 DUP5 MSTORE MLOAD PUSH1 0x20 DUP5 ADD MSTORE MLOAD PUSH1 0x40 DUP4 ADD MSTORE MLOAD PUSH1 0x60 DUP3 ADD MSTORE RETURN JUMPDEST POP PUSH1 0xC9 SLOAD DUP2 GT ISZERO PUSH2 0x775 JUMP JUMPDEST CALLVALUE PUSH2 0x2B0 JUMPI PUSH1 0x20 CALLDATASIZE PUSH1 0x3 NOT ADD SLT PUSH2 0x2B0 JUMPI PUSH1 0x4 CALLDATALOAD PUSH2 0x805 PUSH2 0x21EB JUMP JUMPDEST DUP1 ISZERO ISZERO DUP1 PUSH2 0x8BB JUMPI JUMPDEST PUSH2 0x817 SWAP1 PUSH2 0x24EA JUMP JUMPDEST DUP1 PUSH1 0x0 MSTORE PUSH1 0xCA PUSH1 0x20 MSTORE PUSH1 0xFF PUSH1 0xA PUSH1 0x40 PUSH1 0x0 KECCAK256 ADD SLOAD AND PUSH2 0x883 JUMPI PUSH1 0x0 DUP2 DUP2 MSTORE PUSH1 0xCA PUSH1 0x20 MSTORE PUSH1 0x40 DUP2 KECCAK256 PUSH1 0xA DUP2 ADD DUP1 SLOAD PUSH1 0xFF NOT AND PUSH1 0x1 SWAP1 DUP2 OR SWAP1 SWAP2 SSTORE ADD SLOAD PUSH1 0x1 PUSH1 0x1 PUSH1 0xA0 SHL SUB AND SWAP2 SWAP1 PUSH32 0x9364AC9420D2BC88A7EF976F848A23C6FC5D00ED9F7978139DC44958829C9690 SWAP1 DUP1 LOG3 STOP JUMPDEST PUSH1 0x40 MLOAD PUSH3 0x461BCD PUSH1 0xE5 SHL DUP2 MSTORE PUSH1 0x20 PUSH1 0x4 DUP3 ADD MSTORE PUSH1 0x10 PUSH1 0x24 DUP3 ADD MSTORE PUSH16 0x105B1C9958591E481D995C9A599A5959 PUSH1 0x82 SHL PUSH1 0x44 DUP3 ADD MSTORE PUSH1 0x64 SWAP1 REVERT JUMPDEST POP PUSH1 0xC9 SLOAD DUP2 GT ISZERO PUSH2 0x80E JUMP JUMPDEST CALLVALUE PUSH2 0x2B0 JUMPI PUSH1 0x20 CALLDATASIZE PUSH1 0x3 NOT ADD SLT PUSH2 0x2B0 JUMPI PUSH1 0x4 CALLDATALOAD PUSH1 0x0 MSTORE PUSH1 0xCC PUSH1 0x20 MSTORE PUSH1 0x80 PUSH1 0x40 PUSH1 0x0 KECCAK256 DUP1 SLOAD SWAP1 PUSH1 0x1 DUP2 ADD SLOAD SWAP1 PUSH1 0x3 PUSH1 0x2 DUP3 ADD SLOAD SWAP2 ADD SLOAD SWAP2 PUSH1 0x40 MLOAD SWAP4 DUP5 MSTORE PUSH1 0x20 DUP5 ADD MSTORE PUSH1 0x40 DUP4 ADD MSTORE PUSH1 0x60 DUP3 ADD MSTORE RETURN JUMPDEST CALLVALUE PUSH2 0x2B0 JUMPI PUSH1 0x0 CALLDATASIZE PUSH1 0x3 NOT ADD SLT PUSH2 0x2B0 JUMPI PUSH1 0xCF SLOAD PUSH1 0x40 MLOAD PUSH1 0x1 PUSH1 0x1 PUSH1 0xA0 SHL SUB SWAP1 SWAP2 AND DUP2 MSTORE PUSH1 0x20 SWAP1 RETURN JUMPDEST CALLVALUE PUSH2 0x2B0 JUMPI PUSH1 0x20 CALLDATASIZE PUSH1 0x3 NOT ADD SLT PUSH2 0x2B0 JUMPI PUSH1 0x4 CALLDATALOAD PUSH2 0x95A PUSH2 0x252E JUMP JUMPDEST POP DUP1 ISZERO ISZERO DUP1 PUSH2 0xA4B JUMPI JUMPDEST PUSH2 0x96D SWAP1 PUSH2 0x24EA JUMP JUMPDEST PUSH1 0x0 MSTORE PUSH1 0xCA PUSH1 0x20 MSTORE PUSH2 0xA47 PUSH1 0x40 PUSH1 0x0 KECCAK256 PUSH1 0xC PUSH1 0x40 MLOAD SWAP2 PUSH2 0x98C DUP4 PUSH2 0x1E8D JUMP JUMPDEST DUP1 SLOAD DUP4 MSTORE PUSH1 0x1 DUP2 ADD SLOAD PUSH1 0x1 PUSH1 0x1 PUSH1 0xA0 SHL SUB AND PUSH1 0x20 DUP5 ADD MSTORE PUSH2 0x9AF PUSH1 0x2 DUP3 ADD PUSH2 0x2145 JUMP JUMPDEST PUSH1 0x40 DUP5 ADD MSTORE PUSH2 0x9C0 PUSH1 0x3 DUP3 ADD PUSH2 0x2145 JUMP JUMPDEST PUSH1 0x60 DUP5 ADD MSTORE PUSH2 0x9D1 PUSH1 0x4 DUP3 ADD PUSH2 0x2145 JUMP JUMPDEST PUSH1 0x80 DUP5 ADD MSTORE PUSH1 0x5 DUP2 ADD SLOAD PUSH1 0xA0 DUP5 ADD MSTORE PUSH1 0x6 DUP2 ADD SLOAD PUSH1 0xC0 DUP5 ADD MSTORE PUSH1 0x7 DUP2 ADD SLOAD PUSH1 0xE0 DUP5 ADD MSTORE PUSH1 0x8 DUP2 ADD SLOAD PUSH2 0x100 DUP5 ADD MSTORE PUSH1 0x9 DUP2 ADD SLOAD PUSH2 0x120 DUP5 ADD MSTORE PUSH1 0xFF PUSH1 0xA DUP3 ADD SLOAD DUP2 DUP2 AND ISZERO ISZERO PUSH2 0x140 DUP7 ADD MSTORE PUSH1 0x8 SHR AND ISZERO ISZERO PUSH2 0x160 DUP5 ADD MSTORE PUSH1 0xB DUP2 ADD SLOAD PUSH2 0x180 DUP5 ADD MSTORE ADD SLOAD PUSH2 0x1A0 DUP3 ADD MSTORE PUSH1 0x40 MLOAD SWAP2 DUP3 SWAP2 DUP3 PUSH2 0x2009 JUMP JUMPDEST SUB SWAP1 RETURN JUMPDEST POP PUSH1 0xC9 SLOAD DUP2 GT ISZERO PUSH2 0x964 JUMP JUMPDEST CALLVALUE PUSH2 0x2B0 JUMPI PUSH1 0x20 CALLDATASIZE PUSH1 0x3 NOT ADD SLT PUSH2 0x2B0 JUMPI PUSH2 0xA70 PUSH2 0x1FAB JUMP JUMPDEST PUSH2 0xA78 PUSH2 0x21EB JUMP JUMPDEST PUSH1 0xCF DUP1 SLOAD PUSH1 0x1 PUSH1 0x1 PUSH1 0xA0 SHL SUB NOT AND PUSH1 0x1 PUSH1 0x1 PUSH1 0xA0 SHL SUB SWAP3 SWAP1 SWAP3 AND SWAP2 SWAP1 SWAP2 OR SWAP1 SSTORE STOP JUMPDEST CALLVALUE PUSH2 0x2B0 JUMPI PUSH1 0x0 CALLDATASIZE PUSH1 0x3 NOT ADD SLT PUSH2 0x2B0 JUMPI PUSH1 0xD0 SLOAD PUSH1 0x40 MLOAD PUSH1 0x1 PUSH1 0x1 PUSH1 0xA0 SHL SUB SWAP1 SWAP2 AND DUP2 MSTORE PUSH1 0x20 SWAP1 RETURN JUMPDEST CALLVALUE PUSH2 0x2B0 JUMPI PUSH1 0x20 CALLDATASIZE PUSH1 0x3 NOT ADD SLT PUSH2 0x2B0 JUMPI PUSH2 0xADC PUSH2 0x21EB JUMP JUMPDEST PUSH1 0x4 CALLDATALOAD PUSH1 0xD1 SSTORE STOP JUMPDEST CALLVALUE PUSH2 0x2B0 JUMPI PUSH1 0x0 CALLDATASIZE PUSH1 0x3 NOT ADD SLT PUSH2 0x2B0 JUMPI PUSH1 0x20 PUSH1 0xD1 SLOAD PUSH1 0x40 MLOAD SWAP1 DUP2 MSTORE RETURN JUMPDEST CALLVALUE PUSH2 0x2B0 JUMPI PUSH1 0x0 CALLDATASIZE PUSH1 0x3 NOT ADD SLT PUSH2 0x2B0 JUMPI PUSH2 0xB1E PUSH1 0xD2 SLOAD PUSH2 0x25EA JUMP JUMPDEST PUSH1 0x0 PUSH1 0x1 PUSH1 0xC9 SLOAD SWAP1 JUMPDEST DUP2 DUP2 GT ISZERO PUSH2 0xB77 JUMPI POP POP PUSH2 0xB3A DUP2 PUSH2 0x25EA JUMP JUMPDEST SWAP2 PUSH1 0x0 JUMPDEST DUP3 DUP2 LT PUSH2 0xB53 JUMPI PUSH1 0x40 MLOAD DUP1 PUSH2 0xA47 DUP7 DUP3 PUSH2 0x1F70 JUMP JUMPDEST DUP1 PUSH2 0xB61 PUSH2 0xB72 SWAP3 DUP5 PUSH2 0x261C JUMP JUMPDEST MLOAD PUSH2 0xB6C DUP3 DUP8 PUSH2 0x261C JUMP JUMPDEST MSTORE PUSH2 0x24DB JUMP JUMPDEST PUSH2 0xB3E JUMP JUMPDEST DUP1 PUSH1 0x0 MSTORE PUSH1 0xCA PUSH1 0x20 MSTORE PUSH1 0xFF PUSH1 0xA SWAP1 DUP1 DUP3 PUSH1 0x40 PUSH1 0x0 KECCAK256 ADD SLOAD AND SWAP2 DUP3 PUSH2 0xBC6 JUMPI JUMPDEST POP POP PUSH2 0xBAB JUMPI JUMPDEST PUSH2 0xBA6 SWAP1 PUSH2 0x24DB JUMP JUMPDEST PUSH2 0xB27 JUMP JUMPDEST SWAP2 PUSH2 0xBBE DUP2 DUP5 PUSH2 0xB6C PUSH2 0xBA6 SWAP5 DUP9 PUSH2 0x261C JUMP JUMPDEST SWAP3 SWAP1 POP PUSH2 0xB9D JUMP JUMPDEST PUSH1 0x40 PUSH1 0x0 KECCAK256 ADD SLOAD PUSH1 0x8 SHR AND SWAP1 POP DUP6 DUP1 PUSH2 0xB96 JUMP JUMPDEST CALLVALUE PUSH2 0x2B0 JUMPI PUSH1 0x0 CALLDATASIZE PUSH1 0x3 NOT ADD SLT PUSH2 0x2B0 JUMPI PUSH1 0x33 SLOAD PUSH1 0x40 MLOAD PUSH1 0x1 PUSH1 0x1 PUSH1 0xA0 SHL SUB SWAP1 SWAP2 AND DUP2 MSTORE PUSH1 0x20 SWAP1 RETURN JUMPDEST CALLVALUE PUSH2 0x2B0 JUMPI PUSH1 0x40 CALLDATASIZE PUSH1 0x3 NOT ADD SLT PUSH2 0x2B0 JUMPI PUSH1 0x4 CALLDATALOAD PUSH1 0x1 PUSH1 0x1 PUSH1 0x40 SHL SUB DUP2 GT PUSH2 0x2B0 JUMPI PUSH2 0xC33 SWAP1 CALLDATASIZE SWAP1 PUSH1 0x4 ADD PUSH2 0x1F52 JUMP JUMPDEST PUSH2 0xC4F PUSH1 0x20 PUSH1 0x24 CALLDATALOAD SWAP3 DUP2 PUSH1 0x40 MLOAD SWAP4 DUP3 DUP6 DUP1 SWAP5 MLOAD SWAP4 DUP5 SWAP3 ADD PUSH2 0x1FC1 JUMP JUMPDEST DUP2 ADD PUSH1 0xCD DUP2 MSTORE SUB ADD SWAP1 KECCAK256 DUP1 SLOAD DUP3 LT ISZERO PUSH2 0x2B0 JUMPI PUSH1 0x20 SWAP2 PUSH2 0xC6E SWAP2 PUSH2 0x20DD JUMP JUMPDEST SWAP1 SLOAD PUSH1 0x40 MLOAD SWAP2 PUSH1 0x3 SHL SHR DUP2 MSTORE RETURN JUMPDEST CALLVALUE PUSH2 0x2B0 JUMPI PUSH1 0x0 CALLDATASIZE PUSH1 0x3 NOT ADD SLT PUSH2 0x2B0 JUMPI PUSH1 0xCE SLOAD PUSH1 0x40 MLOAD PUSH1 0x1 PUSH1 0x1 PUSH1 0xA0 SHL SUB SWAP1 SWAP2 AND DUP2 MSTORE PUSH1 0x20 SWAP1 RETURN JUMPDEST CALLVALUE PUSH2 0x2B0 JUMPI PUSH1 0x0 CALLDATASIZE PUSH1 0x3 NOT ADD SLT PUSH2 0x2B0 JUMPI PUSH2 0xCBE PUSH2 0x21EB JUMP JUMPDEST PUSH1 0x33 DUP1 SLOAD PUSH1 0x1 PUSH1 0x1 PUSH1 0xA0 SHL SUB NOT DUP2 AND SWAP1 SWAP2 SSTORE PUSH1 0x0 SWAP1 PUSH1 0x1 PUSH1 0x1 PUSH1 0xA0 SHL SUB AND PUSH32 0x8BE0079C531659141344CD1FD0A4F28419497F9722A3DAAFE3B4186F6B6457E0 DUP3 DUP1 LOG3 STOP JUMPDEST CALLVALUE PUSH2 0x2B0 JUMPI PUSH1 0x0 CALLDATASIZE PUSH1 0x3 NOT ADD SLT PUSH2 0x2B0 JUMPI PUSH1 0x20 PUSH1 0xD2 SLOAD PUSH1 0x40 MLOAD SWAP1 DUP2 MSTORE RETURN JUMPDEST CALLVALUE PUSH2 0x2B0 JUMPI PUSH1 0x20 CALLDATASIZE PUSH1 0x3 NOT ADD SLT PUSH2 0x2B0 JUMPI PUSH1 0x1 PUSH1 0x1 PUSH1 0xA0 SHL SUB PUSH2 0xD41 PUSH2 0x1FAB JUMP JUMPDEST AND PUSH1 0x0 MSTORE PUSH1 0xCB PUSH1 0x20 MSTORE PUSH1 0x20 PUSH1 0x40 PUSH1 0x0 KECCAK256 SLOAD PUSH1 0x40 MLOAD SWAP1 DUP2 MSTORE RETURN JUMPDEST PUSH1 0x80 CALLDATASIZE PUSH1 0x3 NOT ADD SLT PUSH2 0x2B0 JUMPI PUSH1 0x4 CALLDATALOAD PUSH1 0x1 PUSH1 0x1 PUSH1 0x40 SHL SUB DUP2 GT PUSH2 0x2B0 JUMPI PUSH2 0xD85 SWAP1 CALLDATASIZE SWAP1 PUSH1 0x4 ADD PUSH2 0x1F52 JUMP JUMPDEST PUSH1 0x24 CALLDATALOAD PUSH1 0x1 PUSH1 0x1 PUSH1 0x40 SHL SUB DUP2 GT PUSH2 0x2B0 JUMPI PUSH2 0xDA4 SWAP1 CALLDATASIZE SWAP1 PUSH1 0x4 ADD PUSH2 0x1F52 JUMP JUMPDEST PUSH1 0x44 CALLDATALOAD PUSH1 0x1 PUSH1 0x1 PUSH1 0x40 SHL SUB DUP2 GT PUSH2 0x2B0 JUMPI PUSH2 0xDC3 SWAP1 CALLDATASIZE SWAP1 PUSH1 0x4 ADD PUSH2 0x1F52 JUMP JUMPDEST PUSH1 0xD1 SLOAD CALLVALUE LT PUSH2 0x1445 JUMPI DUP3 MLOAD ISZERO PUSH2 0x1409 JUMPI DUP1 MLOAD ISZERO PUSH2 0x13C4 JUMPI CALLER PUSH1 0x0 MSTORE PUSH1 0xCB PUSH1 0x20 MSTORE PUSH1 0x40 PUSH1 0x0 KECCAK256 SLOAD PUSH2 0x138A JUMPI PUSH1 0x1 PUSH1 0xC9 SLOAD ADD SWAP2 DUP3 PUSH1 0xC9 SSTORE PUSH1 0x40 MLOAD SWAP1 PUSH2 0xE05 DUP3 PUSH2 0x1E8D JUMP JUMPDEST DUP4 DUP3 MSTORE CALLER PUSH1 0x20 DUP4 ADD MSTORE DUP5 PUSH1 0x40 DUP4 ADD MSTORE PUSH1 0x60 DUP3 ADD MSTORE DUP2 PUSH1 0x80 DUP3 ADD MSTORE PUSH1 0x64 CALLDATALOAD PUSH1 0xA0 DUP3 ADD MSTORE PUSH1 0x0 PUSH1 0xC0 DUP3 ADD MSTORE PUSH1 0x0 PUSH1 0xE0 DUP3 ADD MSTORE PUSH1 0x0 PUSH2 0x100 DUP3 ADD MSTORE PUSH1 0x0 PUSH2 0x120 DUP3 ADD MSTORE PUSH1 0x1 PUSH2 0x140 DUP3 ADD MSTORE PUSH1 0x1 PUSH2 0x160 DUP3 ADD MSTORE TIMESTAMP PUSH2 0x180 DUP3 ADD MSTORE TIMESTAMP PUSH2 0x1A0 DUP3 ADD MSTORE DUP3 PUSH1 0x0 MSTORE PUSH1 0xCA PUSH1 0x20 MSTORE PUSH1 0x40 PUSH1 0x0 KECCAK256 SWAP1 DUP1 MLOAD DUP3 SSTORE PUSH1 0x1 DUP3 ADD PUSH1 0x1 DUP1 PUSH1 0xA0 SHL SUB PUSH1 0x20 DUP4 ADD MLOAD AND PUSH12 0xFFFFFFFFFFFFFFFFFFFFFFFF PUSH1 0xA0 SHL DUP3 SLOAD AND OR SWAP1 SSTORE PUSH1 0x40 DUP2 ADD MLOAD DUP1 MLOAD SWAP1 PUSH1 0x1 PUSH1 0x1 PUSH1 0x40 SHL SUB DUP3 GT PUSH2 0x110C JUMPI DUP2 SWAP1 PUSH2 0xEC2 PUSH1 0x2 DUP7 ADD SLOAD PUSH2 0x210B JUMP JUMPDEST PUSH1 0x1F DUP2 GT PUSH2 0x1337 JUMPI JUMPDEST POP PUSH1 0x20 SWAP1 PUSH1 0x1F DUP4 GT PUSH1 0x1 EQ PUSH2 0x12C5 JUMPI PUSH1 0x0 SWAP3 PUSH2 0x12BA JUMPI JUMPDEST POP POP DUP2 PUSH1 0x1 SHL SWAP2 PUSH1 0x0 NOT SWAP1 PUSH1 0x3 SHL SHR NOT AND OR PUSH1 0x2 DUP4 ADD SSTORE JUMPDEST PUSH1 0x60 DUP2 ADD MLOAD DUP1 MLOAD SWAP1 PUSH1 0x1 PUSH1 0x1 PUSH1 0x40 SHL SUB DUP3 GT PUSH2 0x110C JUMPI DUP2 SWAP1 PUSH2 0xF1F PUSH1 0x3 DUP7 ADD SLOAD PUSH2 0x210B JUMP JUMPDEST PUSH1 0x1F DUP2 GT PUSH2 0x1267 JUMPI JUMPDEST POP PUSH1 0x20 SWAP1 PUSH1 0x1F DUP4 GT PUSH1 0x1 EQ PUSH2 0x11F5 JUMPI PUSH1 0x0 SWAP3 PUSH2 0x11EA JUMPI JUMPDEST POP POP DUP2 PUSH1 0x1 SHL SWAP2 PUSH1 0x0 NOT SWAP1 PUSH1 0x3 SHL SHR NOT AND OR PUSH1 0x3 DUP4 ADD SSTORE JUMPDEST PUSH1 0x80 DUP2 ADD MLOAD DUP1 MLOAD SWAP1 PUSH1 0x1 PUSH1 0x1 PUSH1 0x40 SHL SUB DUP3 GT PUSH2 0x110C JUMPI PUSH2 0xF7A PUSH1 0x4 DUP6 ADD SLOAD PUSH2 0x210B JUMP JUMPDEST PUSH1 0x1F DUP2 GT PUSH2 0x11A3 JUMPI JUMPDEST POP PUSH1 0x20 SWAP1 PUSH1 0x1F DUP4 GT PUSH1 0x1 EQ PUSH2 0x112D JUMPI SWAP2 DUP1 PUSH1 0xC SWAP5 SWAP3 PUSH2 0x1A0 SWAP5 PUSH1 0x0 SWAP3 PUSH2 0x1122 JUMPI JUMPDEST POP POP DUP2 PUSH1 0x1 SHL SWAP2 PUSH1 0x0 NOT SWAP1 PUSH1 0x3 SHL SHR NOT AND OR PUSH1 0x4 DUP6 ADD SSTORE JUMPDEST PUSH1 0xA0 DUP2 ADD MLOAD PUSH1 0x5 DUP6 ADD SSTORE PUSH1 0xC0 DUP2 ADD MLOAD PUSH1 0x6 DUP6 ADD SSTORE PUSH1 0xE0 DUP2 ADD MLOAD PUSH1 0x7 DUP6 ADD SSTORE PUSH2 0x100 DUP2 ADD MLOAD PUSH1 0x8 DUP6 ADD SSTORE PUSH2 0x120 DUP2 ADD MLOAD PUSH1 0x9 DUP6 ADD SSTORE PUSH2 0x102A PUSH1 0xA DUP6 ADD PUSH2 0x140 DUP4 ADD MLOAD ISZERO ISZERO PUSH1 0xFF DUP1 NOT DUP4 SLOAD AND SWAP2 AND OR DUP2 SSTORE PUSH2 0x160 DUP4 ADD MLOAD ISZERO ISZERO PUSH2 0xFF00 DUP3 SLOAD SWAP2 ISZERO ISZERO PUSH1 0x8 SHL AND SWAP1 PUSH2 0xFF00 NOT AND OR SWAP1 SSTORE JUMP JUMPDEST PUSH2 0x180 DUP2 ADD MLOAD PUSH1 0xB DUP6 ADD SSTORE ADD MLOAD SWAP2 ADD SSTORE CALLER PUSH1 0x0 MSTORE PUSH1 0xCB PUSH1 0x20 MSTORE DUP2 PUSH1 0x40 PUSH1 0x0 KECCAK256 SSTORE PUSH1 0x40 MLOAD PUSH1 0x20 DUP2 DUP4 MLOAD PUSH2 0x105F DUP2 DUP4 DUP6 DUP9 ADD PUSH2 0x1FC1 JUMP JUMPDEST DUP2 ADD PUSH1 0xCD DUP2 MSTORE SUB ADD SWAP1 KECCAK256 SWAP3 DUP4 SLOAD PUSH9 0x10000000000000000 DUP2 LT ISZERO PUSH2 0x110C JUMPI PUSH2 0x10F3 DUP5 SWAP3 DUP4 PUSH2 0x10B6 DUP5 PUSH1 0x20 SWAP10 PUSH1 0x1 PUSH32 0x52A90D339AD28A992917E650220B3E982D4D5A23AD19FC1F87004F11AEDB6A4E SWAP8 ADD DUP2 SSTORE PUSH2 0x20DD JUMP JUMPDEST DUP2 SWAP3 SWAP2 SLOAD SWAP1 PUSH1 0x3 SHL PUSH1 0x0 NOT DUP2 SHL SWAP3 DUP4 SWAP2 SHL AND SWAP2 NOT AND OR SWAP1 SSTORE PUSH2 0x10D9 PUSH1 0xD2 SLOAD PUSH2 0x24DB JUMP JUMPDEST PUSH1 0xD2 SSTORE PUSH2 0x1101 PUSH1 0x40 MLOAD SWAP3 DUP4 SWAP3 PUSH1 0x40 DUP5 MSTORE PUSH1 0x40 DUP5 ADD SWAP1 PUSH2 0x1FE4 JUMP JUMPDEST DUP3 DUP2 SUB DUP10 DUP5 ADD MSTORE CALLER SWAP7 PUSH2 0x1FE4 JUMP JUMPDEST SUB SWAP1 LOG3 PUSH1 0x40 MLOAD SWAP1 DUP2 MSTORE RETURN JUMPDEST PUSH4 0x4E487B71 PUSH1 0xE0 SHL PUSH1 0x0 MSTORE PUSH1 0x41 PUSH1 0x4 MSTORE PUSH1 0x24 PUSH1 0x0 REVERT JUMPDEST ADD MLOAD SWAP1 POP DUP10 DUP1 PUSH2 0xFA4 JUMP JUMPDEST SWAP1 PUSH1 0x4 DUP6 ADD PUSH1 0x0 MSTORE PUSH1 0x20 PUSH1 0x0 KECCAK256 SWAP2 PUSH1 0x0 JUMPDEST PUSH1 0x1F NOT DUP6 AND DUP2 LT PUSH2 0x118B JUMPI POP SWAP3 PUSH1 0xC SWAP5 SWAP3 PUSH1 0x1 SWAP3 PUSH2 0x1A0 SWAP6 DUP4 PUSH1 0x1F NOT DUP2 AND LT PUSH2 0x1172 JUMPI JUMPDEST POP POP POP DUP2 SHL ADD PUSH1 0x4 DUP6 ADD SSTORE PUSH2 0xFBC JUMP JUMPDEST ADD MLOAD PUSH1 0x0 NOT PUSH1 0xF8 DUP5 PUSH1 0x3 SHL AND SHR NOT AND SWAP1 SSTORE DUP10 DUP1 DUP1 PUSH2 0x1162 JUMP JUMPDEST SWAP2 SWAP3 PUSH1 0x20 PUSH1 0x1 DUP2 SWAP3 DUP7 DUP6 ADD MLOAD DUP2 SSTORE ADD SWAP5 ADD SWAP3 ADD PUSH2 0x113E JUMP JUMPDEST PUSH1 0x4 DUP6 ADD PUSH1 0x0 MSTORE PUSH1 0x20 PUSH1 0x0 KECCAK256 PUSH1 0x1F DUP5 ADD PUSH1 0x5 SHR DUP2 ADD PUSH1 0x20 DUP6 LT PUSH2 0x11E3 JUMPI JUMPDEST PUSH1 0x1F DUP4 ADD PUSH1 0x5 SHR DUP3 ADD DUP2 LT PUSH2 0x11D7 JUMPI POP POP PUSH2 0xF83 JUMP JUMPDEST PUSH1 0x0 DUP2 SSTORE PUSH1 0x1 ADD PUSH2 0x11C1 JUMP JUMPDEST POP DUP1 PUSH2 0x11C1 JUMP JUMPDEST ADD MLOAD SWAP1 POP DUP8 DUP1 PUSH2 0xF3F JUMP JUMPDEST SWAP3 POP PUSH1 0x3 DUP6 ADD PUSH1 0x0 MSTORE PUSH1 0x20 PUSH1 0x0 KECCAK256 SWAP1 PUSH1 0x0 SWAP4 JUMPDEST PUSH1 0x1F NOT DUP5 AND DUP6 LT PUSH2 0x124C JUMPI PUSH1 0x1 SWAP5 POP DUP4 PUSH1 0x1F NOT DUP2 AND LT PUSH2 0x1233 JUMPI JUMPDEST POP POP POP DUP2 SHL ADD PUSH1 0x3 DUP4 ADD SSTORE PUSH2 0xF57 JUMP JUMPDEST ADD MLOAD PUSH1 0x0 NOT PUSH1 0xF8 DUP5 PUSH1 0x3 SHL AND SHR NOT AND SWAP1 SSTORE DUP8 DUP1 DUP1 PUSH2 0x1223 JUMP JUMPDEST DUP2 DUP2 ADD MLOAD DUP4 SSTORE PUSH1 0x20 SWAP5 DUP6 ADD SWAP5 PUSH1 0x1 SWAP1 SWAP4 ADD SWAP3 SWAP1 SWAP2 ADD SWAP1 PUSH2 0x1208 JUMP JUMPDEST SWAP1 SWAP2 POP PUSH1 0x3 DUP6 ADD PUSH1 0x0 MSTORE PUSH1 0x20 PUSH1 0x0 KECCAK256 PUSH1 0x1F DUP5 ADD PUSH1 0x5 SHR DUP2 ADD PUSH1 0x20 DUP6 LT PUSH2 0x12B3 JUMPI JUMPDEST SWAP1 DUP5 SWAP4 SWAP3 SWAP2 JUMPDEST PUSH1 0x1F DUP4 ADD PUSH1 0x5 SHR DUP3 ADD DUP2 LT PUSH2 0x12A4 JUMPI POP POP PUSH2 0xF28 JUMP JUMPDEST PUSH1 0x0 DUP2 SSTORE DUP6 SWAP5 POP PUSH1 0x1 ADD PUSH2 0x128E JUMP JUMPDEST POP DUP1 PUSH2 0x1288 JUMP JUMPDEST ADD MLOAD SWAP1 POP DUP8 DUP1 PUSH2 0xEE2 JUMP JUMPDEST SWAP3 POP PUSH1 0x2 DUP6 ADD PUSH1 0x0 MSTORE PUSH1 0x20 PUSH1 0x0 KECCAK256 SWAP1 PUSH1 0x0 SWAP4 JUMPDEST PUSH1 0x1F NOT DUP5 AND DUP6 LT PUSH2 0x131C JUMPI PUSH1 0x1 SWAP5 POP DUP4 PUSH1 0x1F NOT DUP2 AND LT PUSH2 0x1303 JUMPI JUMPDEST POP POP POP DUP2 SHL ADD PUSH1 0x2 DUP4 ADD SSTORE PUSH2 0xEFA JUMP JUMPDEST ADD MLOAD PUSH1 0x0 NOT PUSH1 0xF8 DUP5 PUSH1 0x3 SHL AND SHR NOT AND SWAP1 SSTORE DUP8 DUP1 DUP1 PUSH2 0x12F3 JUMP JUMPDEST DUP2 DUP2 ADD MLOAD DUP4 SSTORE PUSH1 0x20 SWAP5 DUP6 ADD SWAP5 PUSH1 0x1 SWAP1 SWAP4 ADD SWAP3 SWAP1 SWAP2 ADD SWAP1 PUSH2 0x12D8 JUMP JUMPDEST SWAP1 SWAP2 POP PUSH1 0x2 DUP6 ADD PUSH1 0x0 MSTORE PUSH1 0x20 PUSH1 0x0 KECCAK256 PUSH1 0x1F DUP5 ADD PUSH1 0x5 SHR DUP2 ADD PUSH1 0x20 DUP6 LT PUSH2 0x1383 JUMPI JUMPDEST SWAP1 DUP5 SWAP4 SWAP3 SWAP2 JUMPDEST PUSH1 0x1F DUP4 ADD PUSH1 0x5 SHR DUP3 ADD DUP2 LT PUSH2 0x1374 JUMPI POP POP PUSH2 0xECB JUMP JUMPDEST PUSH1 0x0 DUP2 SSTORE DUP6 SWAP5 POP PUSH1 0x1 ADD PUSH2 0x135E JUMP JUMPDEST POP DUP1 PUSH2 0x1358 JUMP JUMPDEST PUSH1 0x40 MLOAD PUSH3 0x461BCD PUSH1 0xE5 SHL DUP2 MSTORE PUSH1 0x20 PUSH1 0x4 DUP3 ADD MSTORE PUSH1 0x12 PUSH1 0x24 DUP3 ADD MSTORE PUSH18 0x105B1C9958591E481C9959DA5CDD195C9959 PUSH1 0x72 SHL PUSH1 0x44 DUP3 ADD MSTORE PUSH1 0x64 SWAP1 REVERT JUMPDEST PUSH1 0x40 MLOAD PUSH3 0x461BCD PUSH1 0xE5 SHL DUP2 MSTORE PUSH1 0x20 PUSH1 0x4 DUP3 ADD MSTORE PUSH1 0x19 PUSH1 0x24 DUP3 ADD MSTORE PUSH32 0x5370656369616C74792063616E6E6F7420626520656D70747900000000000000 PUSH1 0x44 DUP3 ADD MSTORE PUSH1 0x64 SWAP1 REVERT JUMPDEST PUSH1 0x40 MLOAD PUSH3 0x461BCD PUSH1 0xE5 SHL DUP2 MSTORE PUSH1 0x20 PUSH1 0x4 DUP3 ADD MSTORE PUSH1 0x14 PUSH1 0x24 DUP3 ADD MSTORE PUSH20 0x4E616D652063616E6E6F7420626520656D707479 PUSH1 0x60 SHL PUSH1 0x44 DUP3 ADD MSTORE PUSH1 0x64 SWAP1 REVERT JUMPDEST PUSH1 0x40 MLOAD PUSH3 0x461BCD PUSH1 0xE5 SHL DUP2 MSTORE PUSH1 0x20 PUSH1 0x4 DUP3 ADD MSTORE PUSH1 0x1D PUSH1 0x24 DUP3 ADD MSTORE PUSH32 0x496E73756666696369656E7420766572696669636174696F6E20666565000000 PUSH1 0x44 DUP3 ADD MSTORE PUSH1 0x64 SWAP1 REVERT JUMPDEST CALLVALUE PUSH2 0x2B0 JUMPI PUSH1 0x20 CALLDATASIZE PUSH1 0x3 NOT ADD SLT PUSH2 0x2B0 JUMPI PUSH2 0x14A3 PUSH2 0x1FAB JUMP JUMPDEST PUSH2 0x14AB PUSH2 0x252E JUMP JUMPDEST POP PUSH1 0x1 PUSH1 0x1 PUSH1 0xA0 SHL SUB SWAP1 DUP2 AND PUSH1 0x0 SWAP1 DUP2 MSTORE PUSH1 0xCB PUSH1 0x20 MSTORE PUSH1 0x40 SWAP1 KECCAK256 SLOAD SWAP1 DUP2 ISZERO PUSH2 0x1508 JUMPI PUSH2 0xA47 SWAP2 PUSH1 0x0 MSTORE PUSH1 0xCA PUSH1 0x20 MSTORE PUSH1 0xC PUSH1 0x40 PUSH1 0x0 KECCAK256 PUSH1 0x40 MLOAD SWAP3 PUSH2 0x14ED DUP5 PUSH2 0x1E8D JUMP JUMPDEST DUP2 SLOAD DUP5 MSTORE PUSH1 0x1 DUP3 ADD SLOAD AND PUSH1 0x20 DUP5 ADD MSTORE PUSH2 0x9AF PUSH1 0x2 DUP3 ADD PUSH2 0x2145 JUMP JUMPDEST PUSH1 0x40 MLOAD PUSH3 0x461BCD PUSH1 0xE5 SHL DUP2 MSTORE PUSH1 0x20 PUSH1 0x4 DUP3 ADD MSTORE PUSH1 0x14 PUSH1 0x24 DUP3 ADD MSTORE PUSH20 0x105CDD1C9BDB1BD9D95C881B9BDD08199BDD5B99 PUSH1 0x62 SHL PUSH1 0x44 DUP3 ADD MSTORE PUSH1 0x64 SWAP1 REVERT JUMPDEST CALLVALUE PUSH2 0x2B0 JUMPI PUSH1 0x0 CALLDATASIZE PUSH1 0x3 NOT ADD SLT PUSH2 0x2B0 JUMPI PUSH32 0x0 PUSH1 0x1 PUSH1 0x1 PUSH1 0xA0 SHL SUB AND ADDRESS SUB PUSH2 0x159D JUMPI PUSH1 0x20 PUSH1 0x40 MLOAD PUSH1 0x0 DUP1 MLOAD PUSH1 0x20 PUSH2 0x2631 DUP4 CODECOPY DUP2 MLOAD SWAP2 MSTORE DUP2 MSTORE RETURN JUMPDEST PUSH1 0x40 MLOAD PUSH3 0x461BCD PUSH1 0xE5 SHL DUP2 MSTORE PUSH1 0x20 PUSH1 0x4 DUP3 ADD MSTORE PUSH1 0x38 PUSH1 0x24 DUP3 ADD MSTORE PUSH32 0x555550535570677261646561626C653A206D757374206E6F742062652063616C PUSH1 0x44 DUP3 ADD MSTORE PUSH32 0x6C6564207468726F7567682064656C656761746563616C6C0000000000000000 PUSH1 0x64 DUP3 ADD MSTORE PUSH1 0x84 SWAP1 REVERT JUMPDEST CALLVALUE PUSH2 0x2B0 JUMPI PUSH2 0x1616 CALLDATASIZE PUSH2 0x1E77 JUMP JUMPDEST PUSH1 0xD0 SLOAD SWAP1 SWAP2 SWAP1 PUSH1 0x1 PUSH1 0x1 PUSH1 0xA0 SHL SUB AND CALLER SUB PUSH2 0x165F JUMPI DUP1 ISZERO ISZERO DUP1 PUSH2 0x1653 JUMPI JUMPDEST PUSH2 0x163D SWAP1 PUSH2 0x24EA JUMP JUMPDEST PUSH1 0x0 MSTORE PUSH1 0xCA PUSH1 0x20 MSTORE PUSH1 0x9 PUSH1 0x40 PUSH1 0x0 KECCAK256 ADD SSTORE PUSH1 0x0 DUP1 RETURN JUMPDEST POP PUSH1 0xC9 SLOAD DUP2 GT ISZERO PUSH2 0x1634 JUMP JUMPDEST PUSH1 0x40 MLOAD PUSH3 0x461BCD PUSH1 0xE5 SHL DUP2 MSTORE PUSH1 0x20 PUSH1 0x4 DUP3 ADD MSTORE PUSH1 0x2A PUSH1 0x24 DUP3 ADD MSTORE PUSH32 0x4F6E6C7920746F6B656E206C61756E636865722063616E2073657420746F6B65 PUSH1 0x44 DUP3 ADD MSTORE PUSH10 0x1B8818DBDB9D1C9858DD PUSH1 0xB2 SHL PUSH1 0x64 DUP3 ADD MSTORE PUSH1 0x84 SWAP1 REVERT JUMPDEST PUSH1 0x40 CALLDATASIZE PUSH1 0x3 NOT ADD SLT PUSH2 0x2B0 JUMPI PUSH2 0x16CB PUSH2 0x1FAB JUMP JUMPDEST PUSH1 0x24 CALLDATALOAD PUSH1 0x1 PUSH1 0x1 PUSH1 0x40 SHL SUB DUP2 GT PUSH2 0x2B0 JUMPI CALLDATASIZE PUSH1 0x23 DUP3 ADD SLT ISZERO PUSH2 0x2B0 JUMPI PUSH2 0x16FB SWAP1 CALLDATASIZE SWAP1 PUSH1 0x24 DUP2 PUSH1 0x4 ADD CALLDATALOAD SWAP2 ADD PUSH2 0x1F1B JUMP JUMPDEST PUSH1 0x1 PUSH1 0x1 PUSH1 0xA0 SHL SUB PUSH32 0x0 DUP2 AND SWAP2 SWAP1 PUSH2 0x1734 ADDRESS DUP5 EQ ISZERO PUSH2 0x228C JUMP JUMPDEST PUSH2 0x1751 PUSH1 0x0 DUP1 MLOAD PUSH1 0x20 PUSH2 0x2631 DUP4 CODECOPY DUP2 MLOAD SWAP2 MSTORE SWAP4 DUP3 DUP6 SLOAD AND EQ PUSH2 0x22ED JUMP JUMPDEST PUSH2 0x1759 PUSH2 0x21EB JUMP JUMPDEST PUSH32 0x4910FDFA16FED3260ED0E7147F7CC6DA11A60208B5B9406D12A635614FFD9143 SLOAD PUSH1 0xFF AND ISZERO PUSH2 0x178F JUMPI POP POP POP PUSH2 0x2EE SWAP1 PUSH2 0x234E JUMP JUMPDEST DUP4 AND PUSH1 0x40 MLOAD SWAP3 PUSH4 0x52D1902D PUSH1 0xE0 SHL DUP5 MSTORE PUSH1 0x20 SWAP4 DUP5 DUP2 PUSH1 0x4 DUP2 DUP7 GAS STATICCALL PUSH1 0x0 SWAP2 DUP2 PUSH2 0x1946 JUMPI JUMPDEST POP PUSH2 0x1814 JUMPI PUSH1 0x40 MLOAD PUSH3 0x461BCD PUSH1 0xE5 SHL DUP2 MSTORE PUSH1 0x4 DUP2 ADD DUP7 SWAP1 MSTORE PUSH1 0x2E PUSH1 0x24 DUP3 ADD MSTORE PUSH32 0x45524331393637557067726164653A206E657720696D706C656D656E74617469 PUSH1 0x44 DUP3 ADD MSTORE PUSH14 0x6F6E206973206E6F742055555053 PUSH1 0x90 SHL PUSH1 0x64 DUP3 ADD MSTORE PUSH1 0x84 SWAP1 REVERT JUMPDEST SWAP4 SWAP3 SWAP4 SUB PUSH2 0x18EF JUMPI PUSH2 0x1825 DUP5 PUSH2 0x234E JUMP JUMPDEST PUSH32 0xBC7CD75A20EE27FD9ADEBAB32041F755214DBC6BFFA90CC0225B39DA2E5C2D3B PUSH1 0x0 DUP1 LOG2 DUP2 MLOAD ISZERO DUP1 ISZERO SWAP1 PUSH2 0x18E7 JUMPI JUMPDEST PUSH2 0x185B JUMPI STOP JUMPDEST PUSH2 0x2EE SWAP3 PUSH1 0x0 DUP1 PUSH1 0x40 MLOAD SWAP5 PUSH2 0x186F DUP7 PUSH2 0x1EC4 JUMP JUMPDEST PUSH1 0x27 DUP7 MSTORE PUSH32 0x416464726573733A206C6F772D6C6576656C2064656C65676174652063616C6C DUP6 DUP8 ADD MSTORE PUSH7 0x819985A5B1959 PUSH1 0xCA SHL PUSH1 0x40 DUP8 ADD MSTORE DUP5 DUP2 MLOAD SWAP2 ADD DUP5 GAS DELEGATECALL SWAP1 RETURNDATASIZE ISZERO PUSH2 0x18DE JUMPI RETURNDATASIZE PUSH2 0x18C1 DUP2 PUSH2 0x1F00 JUMP JUMPDEST SWAP1 PUSH2 0x18CF PUSH1 0x40 MLOAD SWAP3 DUP4 PUSH2 0x1EDF JUMP JUMPDEST DUP2 MSTORE PUSH1 0x0 DUP2 SWAP5 RETURNDATASIZE SWAP3 ADD RETURNDATACOPY PUSH2 0x23DE JUMP JUMPDEST PUSH1 0x60 SWAP3 POP PUSH2 0x23DE JUMP JUMPDEST POP PUSH1 0x1 PUSH2 0x1855 JUMP JUMPDEST PUSH1 0x40 MLOAD PUSH3 0x461BCD PUSH1 0xE5 SHL DUP2 MSTORE PUSH1 0x4 DUP2 ADD DUP4 SWAP1 MSTORE PUSH1 0x29 PUSH1 0x24 DUP3 ADD MSTORE PUSH32 0x45524331393637557067726164653A20756E737570706F727465642070726F78 PUSH1 0x44 DUP3 ADD MSTORE PUSH9 0x1A58589B1955555251 PUSH1 0xBA SHL PUSH1 0x64 DUP3 ADD MSTORE PUSH1 0x84 SWAP1 REVERT JUMPDEST SWAP1 SWAP2 POP DUP6 DUP2 DUP2 RETURNDATASIZE DUP4 GT PUSH2 0x196E JUMPI JUMPDEST PUSH2 0x195E DUP2 DUP4 PUSH2 0x1EDF JUMP JUMPDEST DUP2 ADD SUB SLT PUSH2 0x2B0 JUMPI MLOAD SWAP1 DUP8 PUSH2 0x17B3 JUMP JUMPDEST POP RETURNDATASIZE PUSH2 0x1954 JUMP JUMPDEST CALLVALUE PUSH2 0x2B0 JUMPI PUSH1 0x0 CALLDATASIZE PUSH1 0x3 NOT ADD SLT PUSH2 0x2B0 JUMPI PUSH2 0x198E PUSH2 0x21EB JUMP JUMPDEST PUSH1 0x0 DUP1 DUP1 DUP1 PUSH1 0x1 DUP1 PUSH1 0xA0 SHL SUB PUSH1 0x33 SLOAD AND SELFBALANCE SWAP1 DUP3 DUP3 ISZERO PUSH2 0x19BC JUMPI JUMPDEST CALL ISZERO PUSH2 0x19B0 JUMPI STOP JUMPDEST PUSH1 0x40 MLOAD RETURNDATASIZE PUSH1 0x0 DUP3 RETURNDATACOPY RETURNDATASIZE SWAP1 REVERT JUMPDEST POP PUSH2 0x8FC PUSH2 0x19A8 JUMP JUMPDEST CALLVALUE PUSH2 0x2B0 JUMPI PUSH1 0x20 DUP1 PUSH1 0x3 NOT CALLDATASIZE ADD SLT PUSH2 0x2B0 JUMPI PUSH2 0x19DF PUSH2 0x1FAB JUMP JUMPDEST PUSH1 0x1 PUSH1 0x1 PUSH1 0xA0 SHL SUB SWAP2 PUSH32 0x0 DUP4 AND PUSH2 0x1A17 ADDRESS DUP3 EQ ISZERO PUSH2 0x228C JUMP JUMPDEST PUSH2 0x1A34 PUSH1 0x0 DUP1 MLOAD PUSH1 0x20 PUSH2 0x2631 DUP4 CODECOPY DUP2 MLOAD SWAP2 MSTORE SWAP2 DUP6 DUP4 SLOAD AND EQ PUSH2 0x22ED JUMP JUMPDEST PUSH2 0x1A3C PUSH2 0x21EB JUMP JUMPDEST PUSH1 0x40 MLOAD SWAP1 DUP3 DUP3 ADD SWAP5 DUP3 DUP7 LT PUSH1 0x1 PUSH1 0x1 PUSH1 0x40 SHL SUB DUP8 GT OR PUSH2 0x110C JUMPI DUP6 PUSH1 0x40 MSTORE PUSH1 0x0 DUP4 MSTORE PUSH1 0xFF PUSH32 0x4910FDFA16FED3260ED0E7147F7CC6DA11A60208B5B9406D12A635614FFD9143 SLOAD AND PUSH1 0x0 EQ PUSH2 0x1A98 JUMPI POP POP POP POP PUSH2 0x2EE SWAP2 POP PUSH2 0x234E JUMP JUMPDEST DUP5 SWAP3 SWAP4 SWAP5 AND SWAP1 PUSH1 0x40 MLOAD PUSH4 0x52D1902D PUSH1 0xE0 SHL DUP2 MSTORE DUP6 DUP2 PUSH1 0x4 DUP2 DUP7 GAS STATICCALL PUSH1 0x0 SWAP2 DUP2 PUSH2 0x1C26 JUMPI JUMPDEST POP PUSH2 0x1B1D JUMPI PUSH1 0x40 MLOAD PUSH3 0x461BCD PUSH1 0xE5 SHL DUP2 MSTORE PUSH1 0x4 DUP2 ADD DUP8 SWAP1 MSTORE PUSH1 0x2E PUSH1 0x24 DUP3 ADD MSTORE PUSH32 0x45524331393637557067726164653A206E657720696D706C656D656E74617469 PUSH1 0x44 DUP3 ADD MSTORE PUSH14 0x6F6E206973206E6F742055555053 PUSH1 0x90 SHL PUSH1 0x64 DUP3 ADD MSTORE PUSH1 0x84 SWAP1 REVERT JUMPDEST SWAP5 SWAP4 SWAP5 SUB PUSH2 0x1BCF JUMPI PUSH2 0x1B2E DUP3 PUSH2 0x234E JUMP JUMPDEST PUSH32 0xBC7CD75A20EE27FD9ADEBAB32041F755214DBC6BFFA90CC0225B39DA2E5C2D3B PUSH1 0x0 DUP1 LOG2 DUP3 MLOAD ISZERO DUP1 ISZERO SWAP1 PUSH2 0x1BC7 JUMPI JUMPDEST PUSH2 0x1B64 JUMPI STOP JUMPDEST PUSH1 0x0 DUP1 PUSH2 0x2EE SWAP6 PUSH1 0x40 MLOAD SWAP6 PUSH2 0x1B78 DUP8 PUSH2 0x1EC4 JUMP JUMPDEST PUSH1 0x27 DUP8 MSTORE PUSH32 0x416464726573733A206C6F772D6C6576656C2064656C65676174652063616C6C DUP7 DUP9 ADD MSTORE PUSH7 0x819985A5B1959 PUSH1 0xCA SHL PUSH1 0x40 DUP9 ADD MSTORE MLOAD SWAP1 DUP5 GAS DELEGATECALL SWAP1 RETURNDATASIZE ISZERO PUSH2 0x18DE JUMPI RETURNDATASIZE PUSH2 0x18C1 DUP2 PUSH2 0x1F00 JUMP JUMPDEST POP PUSH1 0x0 PUSH2 0x1B5E JUMP JUMPDEST PUSH1 0x40 MLOAD PUSH3 0x461BCD PUSH1 0xE5 SHL DUP2 MSTORE PUSH1 0x4 DUP2 ADD DUP5 SWAP1 MSTORE PUSH1 0x29 PUSH1 0x24 DUP3 ADD MSTORE PUSH32 0x45524331393637557067726164653A20756E737570706F727465642070726F78 PUSH1 0x44 DUP3 ADD MSTORE PUSH9 0x1A58589B1955555251 PUSH1 0xBA SHL PUSH1 0x64 DUP3 ADD MSTORE PUSH1 0x84 SWAP1 REVERT JUMPDEST SWAP1 SWAP2 POP DUP7 DUP2 DUP2 RETURNDATASIZE DUP4 GT PUSH2 0x1C4E JUMPI JUMPDEST PUSH2 0x1C3E DUP2 DUP4 PUSH2 0x1EDF JUMP JUMPDEST DUP2 ADD SUB SLT PUSH2 0x2B0 JUMPI MLOAD SWAP1 DUP9 PUSH2 0x1ABC JUMP JUMPDEST POP RETURNDATASIZE PUSH2 0x1C34 JUMP JUMPDEST CALLVALUE PUSH2 0x2B0 JUMPI PUSH1 0x20 CALLDATASIZE PUSH1 0x3 NOT ADD SLT PUSH2 0x2B0 JUMPI PUSH1 0x20 PUSH2 0x1C78 PUSH2 0x1C73 PUSH2 0x1FAB JUMP JUMPDEST PUSH2 0x2598 JUMP JUMPDEST PUSH1 0x40 MLOAD SWAP1 ISZERO ISZERO DUP2 MSTORE RETURN JUMPDEST CALLVALUE PUSH2 0x2B0 JUMPI PUSH1 0x20 DUP1 PUSH1 0x3 NOT CALLDATASIZE ADD SLT PUSH2 0x2B0 JUMPI PUSH1 0x4 CALLDATALOAD PUSH1 0x1 PUSH1 0x1 PUSH1 0x40 SHL SUB DUP2 GT PUSH2 0x2B0 JUMPI DUP2 PUSH2 0x1CB7 PUSH2 0x1CCA SWAP3 CALLDATASIZE SWAP1 PUSH1 0x4 ADD PUSH2 0x1F52 JUMP JUMPDEST DUP2 PUSH1 0x40 MLOAD SWAP4 DUP3 DUP6 DUP1 SWAP5 MLOAD SWAP4 DUP5 SWAP3 ADD PUSH2 0x1FC1 JUMP JUMPDEST DUP2 ADD PUSH1 0xCD DUP2 MSTORE SUB ADD SWAP1 KECCAK256 SWAP1 PUSH1 0x40 MLOAD SWAP1 DUP2 DUP2 DUP5 SLOAD SWAP2 DUP3 DUP2 MSTORE ADD SWAP4 PUSH1 0x0 MSTORE DUP2 PUSH1 0x0 KECCAK256 SWAP2 PUSH1 0x0 SWAP1 JUMPDEST DUP3 DUP3 LT PUSH2 0x1D12 JUMPI PUSH2 0xA47 DUP6 PUSH2 0x1D06 DUP2 DUP10 SUB DUP3 PUSH2 0x1EDF JUMP JUMPDEST PUSH1 0x40 MLOAD SWAP2 DUP3 SWAP2 DUP3 PUSH2 0x1F70 JUMP JUMPDEST DUP4 SLOAD DUP7 MSTORE SWAP5 DUP6 ADD SWAP5 PUSH1 0x1 SWAP4 DUP5 ADD SWAP4 SWAP1 SWAP2 ADD SWAP1 PUSH2 0x1CEF JUMP JUMPDEST CALLVALUE PUSH2 0x2B0 JUMPI PUSH1 0x20 CALLDATASIZE PUSH1 0x3 NOT ADD SLT PUSH2 0x2B0 JUMPI PUSH1 0x4 CALLDATALOAD PUSH2 0x1D45 PUSH2 0x21EB JUMP JUMPDEST DUP1 ISZERO ISZERO DUP1 PUSH2 0x1D85 JUMPI JUMPDEST PUSH2 0x1D57 SWAP1 PUSH2 0x24EA JUMP JUMPDEST PUSH1 0x0 SWAP1 DUP2 MSTORE PUSH1 0xCA PUSH1 0x20 MSTORE PUSH1 0x40 SWAP1 KECCAK256 PUSH1 0xA ADD DUP1 SLOAD PUSH2 0xFF00 NOT DUP2 AND PUSH1 0x8 SWAP2 DUP3 SHR PUSH1 0xFF AND ISZERO SWAP1 SWAP2 SHL PUSH2 0xFF00 AND OR SWAP1 SSTORE STOP JUMPDEST POP PUSH1 0xC9 SLOAD DUP2 GT ISZERO PUSH2 0x1D4E JUMP JUMPDEST CALLVALUE PUSH2 0x2B0 JUMPI PUSH2 0x1D9F CALLDATASIZE PUSH2 0x1E77 JUMP JUMPDEST PUSH1 0xCE SLOAD SWAP2 SWAP3 SWAP1 SWAP2 PUSH1 0x1 PUSH1 0x1 PUSH1 0xA0 SHL SUB AND CALLER SUB PUSH2 0x1E20 JUMPI POP PUSH1 0x40 PUSH32 0xD9F66501C000653403D74DDFA62A75C8DD44CC05D910EE81BF1D852262DD5FA1 SWAP2 DUP4 ISZERO ISZERO DUP1 PUSH2 0x1E14 JUMPI JUMPDEST PUSH2 0x1DEC SWAP1 PUSH2 0x24EA JUMP JUMPDEST DUP4 PUSH1 0x0 MSTORE PUSH1 0xCA PUSH1 0x20 MSTORE PUSH1 0x6 DUP3 PUSH1 0x0 KECCAK256 ADD SLOAD SWAP1 DUP1 PUSH1 0x6 DUP5 PUSH1 0x0 KECCAK256 ADD SSTORE DUP3 MLOAD SWAP2 DUP3 MSTORE PUSH1 0x20 DUP3 ADD MSTORE LOG2 STOP JUMPDEST POP PUSH1 0xC9 SLOAD DUP5 GT ISZERO PUSH2 0x1DE3 JUMP JUMPDEST PUSH3 0x461BCD PUSH1 0xE5 SHL DUP2 MSTORE PUSH1 0x20 PUSH1 0x4 DUP3 ADD MSTORE PUSH1 0x2C PUSH1 0x24 DUP3 ADD MSTORE PUSH32 0x4F6E6C792072657075746174696F6E2073636F7265722063616E207570646174 PUSH1 0x44 DUP3 ADD MSTORE PUSH12 0x32903932B83ABA30BA34B7B7 PUSH1 0xA1 SHL PUSH1 0x64 DUP3 ADD MSTORE PUSH1 0x84 SWAP1 REVERT JUMPDEST PUSH1 0x40 SWAP1 PUSH1 0x3 NOT ADD SLT PUSH2 0x2B0 JUMPI PUSH1 0x4 CALLDATALOAD SWAP1 PUSH1 0x24 CALLDATALOAD SWAP1 JUMP JUMPDEST PUSH2 0x1C0 DUP2 ADD SWAP1 DUP2 LT PUSH1 0x1 PUSH1 0x1 PUSH1 0x40 SHL SUB DUP3 GT OR PUSH2 0x110C JUMPI PUSH1 0x40 MSTORE JUMP JUMPDEST PUSH1 0x80 DUP2 ADD SWAP1 DUP2 LT PUSH1 0x1 PUSH1 0x1 PUSH1 0x40 SHL SUB DUP3 GT OR PUSH2 0x110C JUMPI PUSH1 0x40 MSTORE JUMP JUMPDEST PUSH1 0x60 DUP2 ADD SWAP1 DUP2 LT PUSH1 0x1 PUSH1 0x1 PUSH1 0x40 SHL SUB DUP3 GT OR PUSH2 0x110C JUMPI PUSH1 0x40 MSTORE JUMP JUMPDEST SWAP1 PUSH1 0x1F DUP1 NOT SWAP2 ADD AND DUP2 ADD SWAP1 DUP2 LT PUSH1 0x1 PUSH1 0x1 PUSH1 0x40 SHL SUB DUP3 GT OR PUSH2 0x110C JUMPI PUSH1 0x40 MSTORE JUMP JUMPDEST PUSH1 0x1 PUSH1 0x1 PUSH1 0x40 SHL SUB DUP2 GT PUSH2 0x110C JUMPI PUSH1 0x1F ADD PUSH1 0x1F NOT AND PUSH1 0x20 ADD SWAP1 JUMP JUMPDEST SWAP3 SWAP2 SWAP3 PUSH2 0x1F27 DUP3 PUSH2 0x1F00 JUMP JUMPDEST SWAP2 PUSH2 0x1F35 PUSH1 0x40 MLOAD SWAP4 DUP5 PUSH2 0x1EDF JUMP JUMPDEST DUP3 SWAP5 DUP2 DUP5 MSTORE DUP2 DUP4 ADD GT PUSH2 0x2B0 JUMPI DUP3 DUP2 PUSH1 0x20 SWAP4 DUP5 PUSH1 0x0 SWAP7 ADD CALLDATACOPY ADD ADD MSTORE JUMP JUMPDEST SWAP1 DUP1 PUSH1 0x1F DUP4 ADD SLT ISZERO PUSH2 0x2B0 JUMPI DUP2 PUSH1 0x20 PUSH2 0x1F6D SWAP4 CALLDATALOAD SWAP2 ADD PUSH2 0x1F1B JUMP JUMPDEST SWAP1 JUMP JUMPDEST PUSH1 0x20 SWAP1 DUP2 PUSH1 0x40 DUP2 DUP4 ADD SWAP3 DUP3 DUP2 MSTORE DUP6 MLOAD DUP1 SWAP5 MSTORE ADD SWAP4 ADD SWAP2 PUSH1 0x0 JUMPDEST DUP3 DUP2 LT PUSH2 0x1F97 JUMPI POP POP POP POP SWAP1 JUMP JUMPDEST DUP4 MLOAD DUP6 MSTORE SWAP4 DUP2 ADD SWAP4 SWAP3 DUP2 ADD SWAP3 PUSH1 0x1 ADD PUSH2 0x1F89 JUMP JUMPDEST PUSH1 0x4 CALLDATALOAD SWAP1 PUSH1 0x1 PUSH1 0x1 PUSH1 0xA0 SHL SUB DUP3 AND DUP3 SUB PUSH2 0x2B0 JUMPI JUMP JUMPDEST PUSH1 0x0 JUMPDEST DUP4 DUP2 LT PUSH2 0x1FD4 JUMPI POP POP PUSH1 0x0 SWAP2 ADD MSTORE JUMP JUMPDEST DUP2 DUP2 ADD MLOAD DUP4 DUP3 ADD MSTORE PUSH1 0x20 ADD PUSH2 0x1FC4 JUMP JUMPDEST SWAP1 PUSH1 0x20 SWAP2 PUSH2 0x1FFD DUP2 MLOAD DUP1 SWAP3 DUP2 DUP6 MSTORE DUP6 DUP1 DUP7 ADD SWAP2 ADD PUSH2 0x1FC1 JUMP JUMPDEST PUSH1 0x1F ADD PUSH1 0x1F NOT AND ADD ADD SWAP1 JUMP JUMPDEST PUSH1 0x20 DUP2 MSTORE DUP2 MLOAD PUSH1 0x20 DUP3 ADD MSTORE PUSH1 0x1 DUP1 PUSH1 0xA0 SHL SUB PUSH1 0x20 DUP4 ADD MLOAD AND PUSH1 0x40 DUP3 ADD MSTORE PUSH1 0x40 DUP3 ADD MLOAD PUSH2 0x2077 PUSH2 0x2046 PUSH2 0x1C0 SWAP3 DUP4 PUSH1 0x60 DUP7 ADD MSTORE PUSH2 0x1E0 DUP6 ADD SWAP1 PUSH2 0x1FE4 JUMP JUMPDEST PUSH2 0x2062 PUSH1 0x60 DUP7 ADD MLOAD SWAP2 PUSH1 0x1F NOT SWAP3 DUP4 DUP8 DUP4 SUB ADD PUSH1 0x80 DUP9 ADD MSTORE PUSH2 0x1FE4 JUMP JUMPDEST SWAP1 PUSH1 0x80 DUP7 ADD MLOAD SWAP1 DUP6 DUP4 SUB ADD PUSH1 0xA0 DUP7 ADD MSTORE PUSH2 0x1FE4 JUMP JUMPDEST SWAP3 PUSH1 0xA0 DUP2 ADD MLOAD PUSH1 0xC0 DUP5 ADD MSTORE PUSH1 0xC0 DUP2 ADD MLOAD PUSH1 0xE0 DUP5 ADD MSTORE PUSH1 0xE0 DUP2 ADD MLOAD PUSH2 0x100 SWAP1 DUP2 DUP6 ADD MSTORE DUP2 ADD MLOAD PUSH2 0x120 SWAP1 DUP2 DUP6 ADD MSTORE DUP2 ADD MLOAD PUSH2 0x140 SWAP1 DUP2 DUP6 ADD MSTORE DUP2 ADD MLOAD ISZERO ISZERO PUSH2 0x160 SWAP1 DUP2 DUP6 ADD MSTORE DUP2 ADD MLOAD ISZERO ISZERO PUSH2 0x180 SWAP1 DUP2 DUP6 ADD MSTORE DUP2 ADD MLOAD SWAP1 PUSH2 0x1A0 SWAP2 DUP3 DUP6 ADD MSTORE ADD MLOAD SWAP2 ADD MSTORE SWAP1 JUMP JUMPDEST DUP1 SLOAD DUP3 LT ISZERO PUSH2 0x20F5 JUMPI PUSH1 0x0 MSTORE PUSH1 0x20 PUSH1 0x0 KECCAK256 ADD SWAP1 PUSH1 0x0 SWAP1 JUMP JUMPDEST PUSH4 0x4E487B71 PUSH1 0xE0 SHL PUSH1 0x0 MSTORE PUSH1 0x32 PUSH1 0x4 MSTORE PUSH1 0x24 PUSH1 0x0 REVERT JUMPDEST SWAP1 PUSH1 0x1 DUP3 DUP2 SHR SWAP3 AND DUP1 ISZERO PUSH2 0x213B JUMPI JUMPDEST PUSH1 0x20 DUP4 LT EQ PUSH2 0x2125 JUMPI JUMP JUMPDEST PUSH4 0x4E487B71 PUSH1 0xE0 SHL PUSH1 0x0 MSTORE PUSH1 0x22 PUSH1 0x4 MSTORE PUSH1 0x24 PUSH1 0x0 REVERT JUMPDEST SWAP2 PUSH1 0x7F AND SWAP2 PUSH2 0x211A JUMP JUMPDEST SWAP1 PUSH1 0x40 MLOAD SWAP2 DUP3 PUSH1 0x0 DUP3 SLOAD SWAP3 PUSH2 0x2159 DUP5 PUSH2 0x210B JUMP JUMPDEST SWAP1 DUP2 DUP5 MSTORE PUSH1 0x1 SWAP5 DUP6 DUP2 AND SWAP1 DUP2 PUSH1 0x0 EQ PUSH2 0x21C8 JUMPI POP PUSH1 0x1 EQ PUSH2 0x2185 JUMPI JUMPDEST POP POP PUSH2 0x2183 SWAP3 POP SUB DUP4 PUSH2 0x1EDF JUMP JUMPDEST JUMP JUMPDEST SWAP1 SWAP4 SWAP2 POP PUSH1 0x0 MSTORE PUSH1 0x20 SWAP1 DUP2 PUSH1 0x0 KECCAK256 SWAP4 PUSH1 0x0 SWAP2 JUMPDEST DUP2 DUP4 LT PUSH2 0x21B0 JUMPI POP POP PUSH2 0x2183 SWAP4 POP DUP3 ADD ADD CODESIZE DUP1 PUSH2 0x2175 JUMP JUMPDEST DUP6 SLOAD DUP9 DUP5 ADD DUP6 ADD MSTORE SWAP5 DUP6 ADD SWAP5 DUP8 SWAP5 POP SWAP2 DUP4 ADD SWAP2 PUSH2 0x2198 JUMP JUMPDEST SWAP2 POP POP PUSH2 0x2183 SWAP5 POP PUSH1 0x20 SWAP3 POP PUSH1 0xFF NOT AND DUP3 DUP5 ADD MSTORE ISZERO ISZERO PUSH1 0x5 SHL DUP3 ADD ADD CODESIZE DUP1 PUSH2 0x2175 JUMP JUMPDEST PUSH1 0x33 SLOAD PUSH1 0x1 PUSH1 0x1 PUSH1 0xA0 SHL SUB AND CALLER SUB PUSH2 0x21FF JUMPI JUMP JUMPDEST PUSH1 0x64 PUSH1 0x40 MLOAD PUSH3 0x461BCD PUSH1 0xE5 SHL DUP2 MSTORE PUSH1 0x20 PUSH1 0x4 DUP3 ADD MSTORE PUSH1 0x20 PUSH1 0x24 DUP3 ADD MSTORE PUSH32 0x4F776E61626C653A2063616C6C6572206973206E6F7420746865206F776E6572 PUSH1 0x44 DUP3 ADD MSTORE REVERT JUMPDEST PUSH1 0x33 DUP1 SLOAD PUSH1 0x1 PUSH1 0x1 PUSH1 0xA0 SHL SUB SWAP3 DUP4 AND PUSH1 0x1 PUSH1 0x1 PUSH1 0xA0 SHL SUB NOT DUP3 AND DUP2 OR SWAP1 SWAP3 SSTORE SWAP1 SWAP2 AND PUSH32 0x8BE0079C531659141344CD1FD0A4F28419497F9722A3DAAFE3B4186F6B6457E0 PUSH1 0x0 DUP1 LOG3 JUMP JUMPDEST ISZERO PUSH2 0x2293 JUMPI JUMP JUMPDEST PUSH1 0x40 MLOAD PUSH3 0x461BCD PUSH1 0xE5 SHL DUP2 MSTORE PUSH1 0x20 PUSH1 0x4 DUP3 ADD MSTORE PUSH1 0x2C PUSH1 0x24 DUP3 ADD MSTORE PUSH32 0x46756E6374696F6E206D7573742062652063616C6C6564207468726F75676820 PUSH1 0x44 DUP3 ADD MSTORE PUSH12 0x19195B1959D85D1958D85B1B PUSH1 0xA2 SHL PUSH1 0x64 DUP3 ADD MSTORE PUSH1 0x84 SWAP1 REVERT JUMPDEST ISZERO PUSH2 0x22F4 JUMPI JUMP JUMPDEST PUSH1 0x40 MLOAD PUSH3 0x461BCD PUSH1 0xE5 SHL DUP2 MSTORE PUSH1 0x20 PUSH1 0x4 DUP3 ADD MSTORE PUSH1 0x2C PUSH1 0x24 DUP3 ADD MSTORE PUSH32 0x46756E6374696F6E206D7573742062652063616C6C6564207468726F75676820 PUSH1 0x44 DUP3 ADD MSTORE PUSH12 0x6163746976652070726F7879 PUSH1 0xA0 SHL PUSH1 0x64 DUP3 ADD MSTORE PUSH1 0x84 SWAP1 REVERT JUMPDEST DUP1 EXTCODESIZE ISZERO PUSH2 0x2383 JUMPI PUSH1 0x0 DUP1 MLOAD PUSH1 0x20 PUSH2 0x2631 DUP4 CODECOPY DUP2 MLOAD SWAP2 MSTORE DUP1 SLOAD PUSH1 0x1 PUSH1 0x1 PUSH1 0xA0 SHL SUB NOT AND PUSH1 0x1 PUSH1 0x1 PUSH1 0xA0 SHL SUB SWAP1 SWAP3 AND SWAP2 SWAP1 SWAP2 OR SWAP1 SSTORE JUMP JUMPDEST PUSH1 0x40 MLOAD PUSH3 0x461BCD PUSH1 0xE5 SHL DUP2 MSTORE PUSH1 0x20 PUSH1 0x4 DUP3 ADD MSTORE PUSH1 0x2D PUSH1 0x24 DUP3 ADD MSTORE PUSH32 0x455243313936373A206E657720696D706C656D656E746174696F6E206973206E PUSH1 0x44 DUP3 ADD MSTORE PUSH13 0x1BDD08184818DBDB9D1C9858DD PUSH1 0x9A SHL PUSH1 0x64 DUP3 ADD MSTORE PUSH1 0x84 SWAP1 REVERT JUMPDEST SWAP2 SWAP3 SWAP1 ISZERO PUSH2 0x2440 JUMPI POP DUP2 MLOAD ISZERO PUSH2 0x23F2 JUMPI POP SWAP1 JUMP JUMPDEST EXTCODESIZE ISZERO PUSH2 0x23FB JUMPI SWAP1 JUMP JUMPDEST PUSH1 0x40 MLOAD PUSH3 0x461BCD PUSH1 0xE5 SHL DUP2 MSTORE PUSH1 0x20 PUSH1 0x4 DUP3 ADD MSTORE PUSH1 0x1D PUSH1 0x24 DUP3 ADD MSTORE PUSH32 0x416464726573733A2063616C6C20746F206E6F6E2D636F6E7472616374000000 PUSH1 0x44 DUP3 ADD MSTORE PUSH1 0x64 SWAP1 REVERT JUMPDEST DUP3 MLOAD SWAP1 SWAP2 POP ISZERO PUSH2 0x2453 JUMPI POP DUP1 MLOAD SWAP1 PUSH1 0x20 ADD REVERT JUMPDEST PUSH1 0x40 MLOAD PUSH3 0x461BCD PUSH1 0xE5 SHL DUP2 MSTORE PUSH1 0x20 PUSH1 0x4 DUP3 ADD MSTORE SWAP1 DUP2 SWAP1 PUSH2 0x2477 SWAP1 PUSH1 0x24 DUP4 ADD SWAP1 PUSH2 0x1FE4 JUMP JUMPDEST SUB SWAP1 REVERT JUMPDEST ISZERO PUSH2 0x2482 JUMPI JUMP JUMPDEST PUSH1 0x40 MLOAD PUSH3 0x461BCD PUSH1 0xE5 SHL DUP2 MSTORE PUSH1 0x20 PUSH1 0x4 DUP3 ADD MSTORE PUSH1 0x2B PUSH1 0x24 DUP3 ADD MSTORE PUSH32 0x496E697469616C697A61626C653A20636F6E7472616374206973206E6F742069 PUSH1 0x44 DUP3 ADD MSTORE PUSH11 0x6E697469616C697A696E67 PUSH1 0xA8 SHL PUSH1 0x64 DUP3 ADD MSTORE PUSH1 0x84 SWAP1 REVERT JUMPDEST PUSH1 0x0 NOT DUP2 EQ PUSH2 0x446 JUMPI PUSH1 0x1 ADD SWAP1 JUMP JUMPDEST ISZERO PUSH2 0x24F1 JUMPI JUMP JUMPDEST PUSH1 0x40 MLOAD PUSH3 0x461BCD PUSH1 0xE5 SHL DUP2 MSTORE PUSH1 0x20 PUSH1 0x4 DUP3 ADD MSTORE PUSH1 0x15 PUSH1 0x24 DUP3 ADD MSTORE PUSH21 0x125B9D985B1A5908185CDD1C9BDB1BD9D95C881251 PUSH1 0x5A SHL PUSH1 0x44 DUP3 ADD MSTORE PUSH1 0x64 SWAP1 REVERT JUMPDEST PUSH1 0x40 MLOAD SWAP1 PUSH2 0x253B DUP3 PUSH2 0x1E8D JUMP JUMPDEST DUP2 PUSH2 0x1A0 PUSH1 0x0 SWAP2 DUP3 DUP2 MSTORE DUP3 PUSH1 0x20 DUP3 ADD MSTORE PUSH1 0x60 PUSH1 0x40 DUP3 ADD MSTORE PUSH1 0x60 DUP1 DUP3 ADD MSTORE PUSH1 0x60 PUSH1 0x80 DUP3 ADD MSTORE DUP3 PUSH1 0xA0 DUP3 ADD MSTORE DUP3 PUSH1 0xC0 DUP3 ADD MSTORE DUP3 PUSH1 0xE0 DUP3 ADD MSTORE DUP3 PUSH2 0x100 DUP3 ADD MSTORE DUP3 PUSH2 0x120 DUP3 ADD MSTORE DUP3 PUSH2 0x140 DUP3 ADD MSTORE DUP3 PUSH2 0x160 DUP3 ADD MSTORE DUP3 PUSH2 0x180 DUP3 ADD MSTORE ADD MSTORE JUMP JUMPDEST PUSH1 0x1 PUSH1 0x1 PUSH1 0xA0 SHL SUB AND PUSH1 0x0 SWAP1 DUP2 MSTORE PUSH1 0xCB PUSH1 0x20 MSTORE PUSH1 0x40 SWAP1 KECCAK256 SLOAD DUP1 ISZERO PUSH2 0x25CD JUMPI PUSH1 0x0 MSTORE PUSH1 0xCA PUSH1 0x20 MSTORE PUSH1 0xFF PUSH1 0xA PUSH1 0x40 PUSH1 0x0 KECCAK256 ADD SLOAD AND SWAP1 JUMP JUMPDEST POP PUSH1 0x0 SWAP1 JUMP JUMPDEST PUSH1 0x1 PUSH1 0x1 PUSH1 0x40 SHL SUB DUP2 GT PUSH2 0x110C JUMPI PUSH1 0x5 SHL PUSH1 0x20 ADD SWAP1 JUMP JUMPDEST SWAP1 PUSH2 0x25F4 DUP3 PUSH2 0x25D3 JUMP JUMPDEST PUSH2 0x2601 PUSH1 0x40 MLOAD SWAP2 DUP3 PUSH2 0x1EDF JUMP JUMPDEST DUP3 DUP2 MSTORE DUP1 SWAP3 PUSH2 0x2612 PUSH1 0x1F NOT SWAP2 PUSH2 0x25D3 JUMP JUMPDEST ADD SWAP1 PUSH1 0x20 CALLDATASIZE SWAP2 ADD CALLDATACOPY JUMP JUMPDEST DUP1 MLOAD DUP3 LT ISZERO PUSH2 0x20F5 JUMPI PUSH1 0x20 SWAP2 PUSH1 0x5 SHL ADD ADD SWAP1 JUMP INVALID CALLDATASIZE ADDMOD SWAP5 LOG1 EXTCODESIZE LOG1 LOG3 0x21 MOD PUSH8 0xC828492DB98DCA3E KECCAK256 PUSH23 0xCC3735A920A3CA505D382BBCA264697066735822122087 0xBD CHAINID 0xD2 0xB0 ISZERO CALL 0xA8 EXTCODESIZE 0xE9 0xBB CREATE2 0xEE 0xDB PUSH18 0x24D6F8776C78AC037632BB8E5E7E0B90264 PUSH20 0x6F6C634300081100330000000000000000000000 "},"gasEstimates":{"creation":{"codeDepositCost":"1972400","executionCost":"infinite","totalCost":"infinite"},"external":{"astroTokenLauncher()":"2744","astrologerStats(uint256)":"9258","astrologers(uint256)":"infinite","getAllVerifiedAstrologers()":"infinite","getAstrologer(uint256)":"infinite","getAstrologerByWallet(address)":"infinite","getAstrologerId(address)":"2673","getAstrologerStats(uint256)":"infinite","getAstrologersBySpecialty(string)":"infinite","initialize(address,address,address,uint256)":"infinite","isAstrologerVerified(address)":"4708","owner()":"2656","predictionCredibilityManager()":"2810","proxiableUUID()":"infinite","recordPredictionResult(uint256,bool)":"infinite","registerAstrologer(string,string,string,uint256)":"infinite","renounceOwnership()":"28371","reputationScorer()":"2612","setAstroTokenLauncher(address)":"27296","setPredictionCredibilityManager(address)":"27120","setReputationScorer(address)":"27340","setTokenContract(uint256,uint256)":"26870","setVerificationFee(uint256)":"24843","specialtyToAstrologers(string,uint256)":"infinite","toggleAstrologerActive(uint256)":"28849","totalAstrologers()":"2544","transferOwnership(address)":"28941","updateAstrologerStats(uint256,uint256,uint256,uint256,uint256)":"117965","updateReputation(uint256,uint256)":"30536","upgradeTo(address)":"infinite","upgradeToAndCall(address,bytes)":"infinite","verificationFee()":"2676","verifyAstrologer(uint256)":"35202","walletToAstrologerId(address)":"2519","withdraw()":"infinite"},"internal":{"_authorizeUpgrade(address)":"infinite"}},"methodIdentifiers":{"astroTokenLauncher()":"ab3dcd6a","astrologerStats(uint256)":"ba9e826c","astrologers(uint256)":"fc809bf5","getAllVerifiedAstrologers()":"97206c0a","getAstrologer(uint256)":"b56faf11","getAstrologerByWallet(address)":"61cb82ba","getAstrologerId(address)":"656d0c39","getAstrologerStats(uint256)":"cc89c634","getAstrologersBySpecialty(string)":"2cb5f95a","initialize(address,address,address,uint256)":"cf756fdf","isAstrologerVerified(address)":"30a7d32a","owner()":"8da5cb5b","predictionCredibilityManager()":"b76d03b2","proxiableUUID()":"52d1902d","recordPredictionResult(uint256,bool)":"e47ef5a8","registerAstrologer(string,string,string,uint256)":"62761b76","renounceOwnership()":"715018a6","reputationScorer()":"73c84d21","setAstroTokenLauncher(address)":"e2c3538c","setPredictionCredibilityManager(address)":"b0d485b3","setReputationScorer(address)":"e9725c21","setTokenContract(uint256,uint256)":"5273496a","setVerificationFee(uint256)":"aae9d5f2","specialtyToAstrologers(string,uint256)":"84ebeab6","toggleAstrologerActive(uint256)":"1afe9e5c","totalAstrologers()":"6f7c0c75","transferOwnership(address)":"f2fde38b","updateAstrologerStats(uint256,uint256,uint256,uint256,uint256)":"daa8d1c6","updateReputation(uint256,uint256)":"0675f763","upgradeTo(address)":"3659cfe6","upgradeToAndCall(address,bytes)":"4f1ef286","verificationFee()":"a8c278a2","verifyAstrologer(uint256)":"c1ef5cd2","walletToAstrologerId(address)":"38dec5dd","withdraw()":"3ccfd60b"}},"storageLayout":{"storage":[{"astId":503,"contract":"contracts/AstrologerManager.sol:AstrologerManager","label":"_initialized","offset":0,"slot":"0","type":"t_uint8"},{"astId":506,"contract":"contracts/AstrologerManager.sol:AstrologerManager","label":"_initializing","offset":1,"slot":"0","type":"t_bool"},{"astId":1172,"contract":"contracts/AstrologerManager.sol:AstrologerManager","label":"__gap","offset":0,"slot":"1","type":"t_array(t_uint256)50_storage"},{"astId":10,"contract":"contracts/AstrologerManager.sol:AstrologerManager","label":"_owner","offset":0,"slot":"51","type":"t_address"},{"astId":130,"contract":"contracts/AstrologerManager.sol:AstrologerManager","label":"__gap","offset":0,"slot":"52","type":"t_array(t_uint256)49_storage"},{"astId":485,"contract":"contracts/AstrologerManager.sol:AstrologerManager","label":"__gap","offset":0,"slot":"101","type":"t_array(t_uint256)50_storage"},{"astId":800,"contract":"contracts/AstrologerManager.sol:AstrologerManager","label":"__gap","offset":0,"slot":"151","type":"t_array(t_uint256)50_storage"},{"astId":1376,"contract":"contracts/AstrologerManager.sol:AstrologerManager","label":"_astrologerIds","offset":0,"slot":"201","type":"t_struct(Counter)1179_storage"},{"astId":1419,"contract":"contracts/AstrologerManager.sol:AstrologerManager","label":"astrologers","offset":0,"slot":"202","type":"t_mapping(t_uint256,t_struct(Astrologer)1405_storage)"},{"astId":1423,"contract":"contracts/AstrologerManager.sol:AstrologerManager","label":"walletToAstrologerId","offset":0,"slot":"203","type":"t_mapping(t_address,t_uint256)"},{"astId":1428,"contract":"contracts/AstrologerManager.sol:AstrologerManager","label":"astrologerStats","offset":0,"slot":"204","type":"t_mapping(t_uint256,t_struct(AstrologerStats)1414_storage)"},{"astId":1433,"contract":"contracts/AstrologerManager.sol:AstrologerManager","label":"specialtyToAstrologers","offset":0,"slot":"205","type":"t_mapping(t_string_memory_ptr,t_array(t_uint256)dyn_storage)"},{"astId":1435,"contract":"contracts/AstrologerManager.sol:AstrologerManager","label":"reputationScorer","offset":0,"slot":"206","type":"t_address"},{"astId":1437,"contract":"contracts/AstrologerManager.sol:AstrologerManager","label":"predictionCredibilityManager","offset":0,"slot":"207","type":"t_address"},{"astId":1439,"contract":"contracts/AstrologerManager.sol:AstrologerManager","label":"astroTokenLauncher","offset":0,"slot":"208","type":"t_address"},{"astId":1441,"contract":"contracts/AstrologerManager.sol:AstrologerManager","label":"verificationFee","offset":0,"slot":"209","type":"t_uint256"},{"astId":1443,"contract":"contracts/AstrologerManager.sol:AstrologerManager","label":"totalAstrologers","offset":0,"slot":"210","type":"t_uint256"}],"types":{"t_address":{"encoding":"inplace","label":"address","numberOfBytes":"20"},"t_array(t_uint256)49_storage":{"base":"t_uint256","encoding":"inplace","label":"uint256[49]","numberOfBytes":"1568"},"t_array(t_uint256)50_storage":{"base":"t_uint256","encoding":"inplace","label":"uint256[50]","numberOfBytes":"1600"},"t_array(t_uint256)dyn_storage":{"base":"t_uint256","encoding":"dynamic_array","label":"uint256[]","numberOfBytes":"32"},"t_bool":{"encoding":"inplace","label":"bool","numberOfBytes":"1"},"t_mapping(t_address,t_uint256)":{"encoding":"mapping","key":"t_address","label":"mapping(address => uint256)","numberOfBytes":"32","value":"t_uint256"},"t_mapping(t_string_memory_ptr,t_array(t_uint256)dyn_storage)":{"encoding":"mapping","key":"t_string_memory_ptr","label":"mapping(string => uint256[])","numberOfBytes":"32","value":"t_array(t_uint256)dyn_storage"},"t_mapping(t_uint256,t_struct(Astrologer)1405_storage)":{"encoding":"mapping","key":"t_uint256","label":"mapping(uint256 => struct AstrologerManager.Astrologer)","numberOfBytes":"32","value":"t_struct(Astrologer)1405_storage"},"t_mapping(t_uint256,t_struct(AstrologerStats)1414_storage)":{"encoding":"mapping","key":"t_uint256","label":"mapping(uint256 => struct AstrologerManager.AstrologerStats)","numberOfBytes":"32","value":"t_struct(AstrologerStats)1414_storage"},"t_string_memory_ptr":{"encoding":"bytes","label":"string","numberOfBytes":"32"},"t_string_storage":{"encoding":"bytes","label":"string","numberOfBytes":"32"},"t_struct(Astrologer)1405_storage":{"encoding":"inplace","label":"struct AstrologerManager.Astrologer","members":[{"astId":1378,"contract":"contracts/AstrologerManager.sol:AstrologerManager","label":"id","offset":0,"slot":"0","type":"t_uint256"},{"astId":1380,"contract":"contracts/AstrologerManager.sol:AstrologerManager","label":"wallet","offset":0,"slot":"1","type":"t_address"},{"astId":1382,"contract":"contracts/AstrologerManager.sol:AstrologerManager","label":"name","offset":0,"slot":"2","type":"t_string_storage"},{"astId":1384,"contract":"contracts/AstrologerManager.sol:AstrologerManager","label":"description","offset":0,"slot":"3","type":"t_string_storage"},{"astId":1386,"contract":"contracts/AstrologerManager.sol:AstrologerManager","label":"specialty","offset":0,"slot":"4","type":"t_string_storage"},{"astId":1388,"contract":"contracts/AstrologerManager.sol:AstrologerManager","label":"experience","offset":0,"slot":"5","type":"t_uint256"},{"astId":1390,"contract":"contracts/AstrologerManager.sol:AstrologerManager","label":"reputation","offset":0,"slot":"6","type":"t_uint256"},{"astId":1392,"contract":"contracts/AstrologerManager.sol:AstrologerManager","label":"totalPredictions","offset":0,"slot":"7","type":"t_uint256"},{"astId":1394,"contract":"contracts/AstrologerManager.sol:AstrologerManager","label":"accuratePredictions","offset":0,"slot":"8","type":"t_uint256"},{"astId":1396,"contract":"contracts/AstrologerManager.sol:AstrologerManager","label":"tokenContract","offset":0,"slot":"9","type":"t_uint256"},{"astId":1398,"contract":"contracts/AstrologerManager.sol:AstrologerManager","label":"isVerified","offset":0,"slot":"10","type":"t_bool"},{"astId":1400,"contract":"contracts/AstrologerManager.sol:AstrologerManager","label":"isActive","offset":1,"slot":"10","type":"t_bool"},{"astId":1402,"contract":"contracts/AstrologerManager.sol:AstrologerManager","label":"registeredAt","offset":0,"slot":"11","type":"t_uint256"},{"astId":1404,"contract":"contracts/AstrologerManager.sol:AstrologerManager","label":"lastActive","offset":0,"slot":"12","type":"t_uint256"}],"numberOfBytes":"416"},"t_struct(AstrologerStats)1414_storage":{"encoding":"inplace","label":"struct AstrologerManager.AstrologerStats","members":[{"astId":1407,"contract":"contracts/AstrologerManager.sol:AstrologerManager","label":"totalSessions","offset":0,"slot":"0","type":"t_uint256"},{"astId":1409,"contract":"contracts/AstrologerManager.sol:AstrologerManager","label":"totalEarnings","offset":0,"slot":"1","type":"t_uint256"},{"astId":1411,"contract":"contracts/AstrologerManager.sol:AstrologerManager","label":"averageRating","offset":0,"slot":"2","type":"t_uint256"},{"astId":1413,"contract":"contracts/AstrologerManager.sol:AstrologerManager","label":"totalReviews","offset":0,"slot":"3","type":"t_uint256"}],"numberOfBytes":"128"},"t_struct(Counter)1179_storage":{"encoding":"inplace","label":"struct CountersUpgradeable.Counter","members":[{"astId":1178,"contract":"contracts/AstrologerManager.sol:AstrologerManager","label":"_value","offset":0,"slot":"0","type":"t_uint256"}],"numberOfBytes":"32"},"t_uint256":{"encoding":"inplace","label":"uint256","numberOfBytes":"32"},"t_uint8":{"encoding":"inplace","label":"uint8","numberOfBytes":"1"}}},"userdoc":{"kind":"user","methods":{},"version":1}}}}