{"contracts/BuyTokenContract.sol":{"BuyTokenContract":{"abi":[{"inputs":[],"stateMutability":"nonpayable","type":"constructor"},{"anonymous":false,"inputs":[{"indexed":false,"internalType":"address","name":"previousAdmin","type":"address"},{"indexed":false,"internalType":"address","name":"newAdmin","type":"address"}],"name":"AdminChanged","type":"event"},{"anonymous":false,"inputs":[{"indexed":true,"internalType":"address","name":"beacon","type":"address"}],"name":"BeaconUpgraded","type":"event"},{"anonymous":false,"inputs":[{"indexed":false,"internalType":"uint256","name":"k","type":"uint256"},{"indexed":false,"internalType":"uint256","name":"reserveRatio","type":"uint256"},{"indexed":false,"internalType":"uint256","name":"slippageTolerance","type":"uint256"},{"indexed":false,"internalType":"uint256","name":"maxReputationMultiplier","type":"uint256"}],"name":"BondingCurveUpdated","type":"event"},{"anonymous":false,"inputs":[{"indexed":true,"internalType":"address","name":"tokenContract","type":"address"},{"indexed":false,"internalType":"uint256","name":"oldMultiplier","type":"uint256"},{"indexed":false,"internalType":"uint256","name":"newMultiplier","type":"uint256"}],"name":"CredibilityUpdated","type":"event"},{"anonymous":false,"inputs":[{"indexed":false,"internalType":"uint8","name":"version","type":"uint8"}],"name":"Initialized","type":"event"},{"anonymous":false,"inputs":[{"indexed":true,"internalType":"address","name":"previousOwner","type":"address"},{"indexed":true,"internalType":"address","name":"newOwner","type":"address"}],"name":"OwnershipTransferred","type":"event"},{"anonymous":false,"inputs":[{"indexed":true,"internalType":"address","name":"tokenContract","type":"address"},{"indexed":true,"internalType":"address","name":"buyer","type":"address"},{"indexed":false,"internalType":"uint256","name":"ethAmount","type":"uint256"},{"indexed":false,"internalType":"uint256","name":"tokenAmount","type":"uint256"},{"indexed":false,"internalType":"uint256","name":"price","type":"uint256"}],"name":"TokenBought","type":"event"},{"anonymous":false,"inputs":[{"indexed":true,"internalType":"address","name":"tokenContract","type":"address"},{"indexed":true,"internalType":"address","name":"seller","type":"address"},{"indexed":false,"internalType":"uint256","name":"tokenAmount","type":"uint256"},{"indexed":false,"internalType":"uint256","name":"ethAmount","type":"uint256"},{"indexed":false,"internalType":"uint256","name":"price","type":"uint256"}],"name":"TokenSold","type":"event"},{"anonymous":false,"inputs":[{"indexed":true,"internalType":"address","name":"implementation","type":"address"}],"name":"Upgraded","type":"event"},{"inputs":[],"name":"astrologerManager","outputs":[{"internalType":"address","name":"","type":"address"}],"stateMutability":"view","type":"function"},{"inputs":[],"name":"bondingCurve","outputs":[{"internalType":"uint256","name":"k","type":"uint256"},{"internalType":"uint256","name":"reserveRatio","type":"uint256"},{"internalType":"uint256","name":"slippageTolerance","type":"uint256"},{"internalType":"uint256","name":"maxReputationMultiplier","type":"uint256"}],"stateMutability":"view","type":"function"},{"inputs":[{"internalType":"address","name":"_tokenContract","type":"address"}],"name":"buyTokens","outputs":[{"internalType":"uint256","name":"","type":"uint256"}],"stateMutability":"payable","type":"function"},{"inputs":[{"internalType":"address","name":"_tokenContract","type":"address"},{"internalType":"uint256","name":"_ethAmount","type":"uint256"}],"name":"calculateBuyAmount","outputs":[{"internalType":"uint256","name":"","type":"uint256"}],"stateMutability":"view","type":"function"},{"inputs":[{"internalType":"address","name":"_tokenContract","type":"address"},{"internalType":"uint256","name":"_tokenAmount","type":"uint256"}],"name":"calculateSellAmount","outputs":[{"internalType":"uint256","name":"","type":"uint256"}],"stateMutability":"view","type":"function"},{"inputs":[{"internalType":"address","name":"_tokenContract","type":"address"}],"name":"getCurrentPrice","outputs":[{"internalType":"uint256","name":"","type":"uint256"}],"stateMutability":"view","type":"function"},{"inputs":[{"internalType":"address","name":"_tokenContract","type":"address"}],"name":"getTokenInfo","outputs":[{"components":[{"internalType":"address","name":"tokenContract","type":"address"},{"internalType":"address","name":"astrologer","type":"address"},{"internalType":"uint256","name":"totalSupply","type":"uint256"},{"internalType":"uint256","name":"circulatingSupply","type":"uint256"},{"internalType":"uint256","name":"basePrice","type":"uint256"},{"internalType":"uint256","name":"credibilityMultiplier","type":"uint256"},{"internalType":"bool","name":"isActive","type":"bool"}],"internalType":"struct BuyTokenContract.TokenInfo","name":"","type":"tuple"}],"stateMutability":"view","type":"function"},{"inputs":[{"internalType":"address","name":"_tokenContract","type":"address"}],"name":"getUserBalance","outputs":[{"internalType":"uint256","name":"","type":"uint256"}],"stateMutability":"view","type":"function"},{"inputs":[{"internalType":"address","name":"_user","type":"address"}],"name":"getUserContribution","outputs":[{"internalType":"uint256","name":"","type":"uint256"}],"stateMutability":"view","type":"function"},{"inputs":[{"internalType":"address","name":"_astrologerManager","type":"address"},{"internalType":"address","name":"_predictionCredibilityManager","type":"address"},{"internalType":"uint256","name":"_platformFee","type":"uint256"}],"name":"initialize","outputs":[],"stateMutability":"nonpayable","type":"function"},{"inputs":[],"name":"owner","outputs":[{"internalType":"address","name":"","type":"address"}],"stateMutability":"view","type":"function"},{"inputs":[],"name":"platformFee","outputs":[{"internalType":"uint256","name":"","type":"uint256"}],"stateMutability":"view","type":"function"},{"inputs":[],"name":"predictionCredibilityManager","outputs":[{"internalType":"address","name":"","type":"address"}],"stateMutability":"view","type":"function"},{"inputs":[],"name":"proxiableUUID","outputs":[{"internalType":"bytes32","name":"","type":"bytes32"}],"stateMutability":"view","type":"function"},{"inputs":[{"internalType":"address","name":"_tokenContract","type":"address"},{"internalType":"address","name":"_astrologer","type":"address"},{"internalType":"uint256","name":"_totalSupply","type":"uint256"},{"internalType":"uint256","name":"_basePrice","type":"uint256"}],"name":"registerToken","outputs":[],"stateMutability":"nonpayable","type":"function"},{"inputs":[],"name":"renounceOwnership","outputs":[],"stateMutability":"nonpayable","type":"function"},{"inputs":[],"name":"reputationScorer","outputs":[{"internalType":"address","name":"","type":"address"}],"stateMutability":"view","type":"function"},{"inputs":[{"internalType":"address","name":"_tokenContract","type":"address"},{"internalType":"uint256","name":"_tokenAmount","type":"uint256"}],"name":"sellTokens","outputs":[{"internalType":"uint256","name":"","type":"uint256"}],"stateMutability":"nonpayable","type":"function"},{"inputs":[{"internalType":"address","name":"_astrologerManager","type":"address"}],"name":"setAstrologerManager","outputs":[],"stateMutability":"nonpayable","type":"function"},{"inputs":[{"internalType":"uint256","name":"_k","type":"uint256"},{"internalType":"uint256","name":"_reserveRatio","type":"uint256"},{"internalType":"uint256","name":"_slippageTolerance","type":"uint256"},{"internalType":"uint256","name":"_maxReputationMultiplier","type":"uint256"}],"name":"setBondingCurve","outputs":[],"stateMutability":"nonpayable","type":"function"},{"inputs":[{"internalType":"uint256","name":"_platformFee","type":"uint256"}],"name":"setPlatformFee","outputs":[],"stateMutability":"nonpayable","type":"function"},{"inputs":[{"internalType":"address","name":"_predictionCredibilityManager","type":"address"}],"name":"setPredictionCredibilityManager","outputs":[],"stateMutability":"nonpayable","type":"function"},{"inputs":[{"internalType":"address","name":"_reputationScorer","type":"address"}],"name":"setReputationScorer","outputs":[],"stateMutability":"nonpayable","type":"function"},{"inputs":[{"internalType":"address","name":"_tokenContract","type":"address"}],"name":"toggleTokenActive","outputs":[],"stateMutability":"nonpayable","type":"function"},{"inputs":[{"internalType":"address","name":"","type":"address"}],"name":"tokenInfos","outputs":[{"internalType":"address","name":"tokenContract","type":"address"},{"internalType":"address","name":"astrologer","type":"address"},{"internalType":"uint256","name":"totalSupply","type":"uint256"},{"internalType":"uint256","name":"circulatingSupply","type":"uint256"},{"internalType":"uint256","name":"basePrice","type":"uint256"},{"internalType":"uint256","name":"credibilityMultiplier","type":"uint256"},{"internalType":"bool","name":"isActive","type":"bool"}],"stateMutability":"view","type":"function"},{"inputs":[],"name":"totalVolume","outputs":[{"internalType":"uint256","name":"","type":"uint256"}],"stateMutability":"view","type":"function"},{"inputs":[{"internalType":"address","name":"newOwner","type":"address"}],"name":"transferOwnership","outputs":[],"stateMutability":"nonpayable","type":"function"},{"inputs":[{"internalType":"address","name":"_tokenContract","type":"address"},{"internalType":"uint256","name":"_newMultiplier","type":"uint256"}],"name":"updateCredibility","outputs":[],"stateMutability":"nonpayable","type":"function"},{"inputs":[{"internalType":"address","name":"newImplementation","type":"address"}],"name":"upgradeTo","outputs":[],"stateMutability":"nonpayable","type":"function"},{"inputs":[{"internalType":"address","name":"newImplementation","type":"address"},{"internalType":"bytes","name":"data","type":"bytes"}],"name":"upgradeToAndCall","outputs":[],"stateMutability":"payable","type":"function"},{"inputs":[{"internalType":"address","name":"","type":"address"}],"name":"userBalances","outputs":[{"internalType":"uint256","name":"","type":"uint256"}],"stateMutability":"view","type":"function"},{"inputs":[{"internalType":"address","name":"","type":"address"}],"name":"userContributions","outputs":[{"internalType":"uint256","name":"","type":"uint256"}],"stateMutability":"view","type":"function"},{"inputs":[],"name":"withdraw","outputs":[],"stateMutability":"nonpayable","type":"function"}],"devdoc":{"kind":"dev","methods":{"constructor":{"custom:oz-upgrades-unsafe-allow":"constructor"},"owner()":{"details":"Returns the address of the current owner."},"proxiableUUID()":{"details":"Implementation of the ERC1822 {proxiableUUID} function. This returns the storage slot used by the implementation. It is used to validate the implementation's compatibility when performing an upgrade. IMPORTANT: A proxy pointing at a proxiable contract should not be considered proxiable itself, because this risks bricking a proxy that upgrades to it, by delegating to itself until out of gas. Thus it is critical that this function revert if invoked through a proxy. This is guaranteed by the `notDelegated` modifier."},"renounceOwnership()":{"details":"Leaves the contract without owner. It will not be possible to call `onlyOwner` functions. Can only be called by the current owner. NOTE: Renouncing ownership will leave the contract without an owner, thereby disabling any functionality that is only available to the owner."},"transferOwnership(address)":{"details":"Transfers ownership of the contract to a new account (`newOwner`). Can only be called by the current owner."},"upgradeTo(address)":{"custom:oz-upgrades-unsafe-allow-reachable":"delegatecall","details":"Upgrade the implementation of the proxy to `newImplementation`. Calls {_authorizeUpgrade}. Emits an {Upgraded} event."},"upgradeToAndCall(address,bytes)":{"custom:oz-upgrades-unsafe-allow-reachable":"delegatecall","details":"Upgrade the implementation of the proxy to `newImplementation`, and subsequently execute the function call encoded in `data`. Calls {_authorizeUpgrade}. Emits an {Upgraded} event."}},"version":1},"evm":{"bytecode":{"linkReferences":{},"object":"60a080604052346100dc57306080526000549060ff8260081c1661008a575060ff8082160361004f575b604051611e6b90816100e28239608051818181610d3201528181610e5a01526112280152f35b60ff90811916176000557f7f26b83ff96e1f2b6a682f133852f6798a09c465da95921460cefb3847402498602060405160ff8152a138610029565b62461bcd60e51b815260206004820152602760248201527f496e697469616c697a61626c653a20636f6e747261637420697320696e697469604482015266616c697a696e6760c81b6064820152608490fd5b600080fdfe6040608081526004908136101561001557600080fd5b600091823560e01c908163078bfd9b146116e85781630f6ca1a814610ab257816312e8e2c3146116c65781631794bb3c146115055781631f69565f1461141157816326224c641461113857816326232a2e146113f25781633659cfe6146112005781633ccfd60b146111b057816344cda4851461117057816347734892146111385781634f1d052d146110dd5781634f1ef28614610ddf57816352d1902d14610d1c578163573a5b6b14610cf35781635f81a57c14610cd45781636fd31a4114610cab578163715018a614610c4e57816373c84d2114610c2557816384cc315b14610bff5781638da5cb5b14610bd6578163b0d485b314610b96578163b76d03b214610b6d578163ba46ae7214610aea578163bb8b2b4714610ab2578163c464fe6514610839578163cea9f4b51461060e578163e9725c21146105ce578163ec8ac4d81461031c578163eff1d50e146102db578163f2f2c5c4146102ab578163f2fde38b14610215575063f6322a5f1461018e57600080fd5b346102115780600319360112610211577f35a172ee9b7bba49ce50c0ba9b35893a8948f2d53ca31ce2890a07a54e1f548a6101c761178a565b6001600160a01b0316916024356101df841515611b9e565b83855260c960205260058286206101fc60ff600683015416611be3565b0190808254925582519182526020820152a280f35b5080fd5b9050346102a75760203660031901126102a75761023061178a565b91610239611877565b6001600160a01b038316156102555783610252846118cf565b80f35b906020608492519162461bcd60e51b8352820152602660248201527f4f776e61626c653a206e6577206f776e657220697320746865207a65726f206160448201526564647265737360d01b6064820152fd5b8280fd5b5050346102115780600319360112610211576020906102d46102cb61178a565b60243590611d4e565b9051908152f35b8284346103195780600319360112610319575060ce5460cf5460d05460d1549351928352602083019190915260408201526060810191909152608090f35b80fd5b8383602092836003193601126102a75761033461178a565b9060018060a01b03938483169182825260c9875284822061035b60ff600683015416611be3565b341561058b5761037561036d86611c85565b953490611d4e565b96871561053657600382019283549361038e8a86611c22565b6002850154106104f3576103bb8a6103b56127106103ae60d25434611c45565b0434611c78565b96611c22565b905585855260ca8a528785206103d28a8254611c22565b905533855260cb8a528785206103e9348254611c22565b90556103f73460d354611c22565b60d355853b156104ef5787516340c10f1960e01b815233918101918252602082018a9052908590829081906040010381838a5af180156104e5579085916104cd575b50508215918215610495575b50505050507f8692cf5ba66abd64f88cdc1ffa0ee9d9c21ee2d999322a20445ae32393394e3e83518061048c33958834846040919493926060820195825260208201520152565b0390a351908152f35b849384938493600185940154169083906104c4575bf1156104b95780808080610445565b8351903d90823e3d90fd5b506108fc6104aa565b6104d690611809565b6104e157838a610439565b8380fd5b88513d87823e3d90fd5b8480fd5b885162461bcd60e51b81528083018c9052601960248201527f576f756c642065786365656420746f74616c20737570706c79000000000000006044820152606490fd5b865162461bcd60e51b81528084018a9052602960248201527f496e73756666696369656e742045544820666f72206d696e696d756d20746f6b604482015268195b88185b5bdd5b9d60ba1b6064820152608490fd5b855162461bcd60e51b8152808301899052601b60248201527f4d7573742073656e642045544820746f2062757920746f6b656e7300000000006044820152606490fd5b8334610319576020366003190112610319576105e861178a565b6105f0611877565b60018060a01b03166001600160601b0360a01b60d454161760d45580f35b839150346102115760803660031901126102115761062a61178a565b906106336117a5565b906044356064359060018060a01b0394856033541633036107f657858091169461065e861515611b9e565b1680156107b3578115610764578215610717579286928861025297969360069682519861068a8a6117ed565b868a5260208a01918252838a019283528060608b019489865260808c0196875260a08c01986103e88a5260c08d019a60018c525260c96020528d209a5116906001600160601b0360a01b91828c5416178b5560018b0192511690825416179055516002880155516003870155519085015551600584015551151591019060ff801983541691151516179055565b875162461bcd60e51b8152602081860152602160248201527f42617365207072696365206d7573742062652067726561746572207468616e206044820152600360fc1b6064820152608490fd5b875162461bcd60e51b8152602081860152602360248201527f546f74616c20737570706c79206d75737420626520677265617465722074686160448201526206e20360ec1b6064820152608490fd5b875162461bcd60e51b8152602081860152601a60248201527f496e76616c696420617374726f6c6f67657220616464726573730000000000006044820152606490fd5b875162461bcd60e51b8152602081860152601e60248201527f4f6e6c79206f776e65722063616e20726567697374657220746f6b656e7300006044820152606490fd5b919050346102a757806003193601126102a75761085461178a565b6001600160a01b03811680855260c960209081528386206006810154919660243594926108839060ff16611be3565b8415610a6f5783815260ca8852848682205410610a2c576108ad856108a785611c85565b94611dc3565b9687156109d65760036108cf6127106108c860d2548c611c45565b048a611c78565b93016108dc878254611c78565b905584825260ca89528682206108f3878254611c78565b90556109018860d354611c22565b60d355843b1561021157865163079cc67960e41b8152339181019182526020820187905290829082908190604001038183895af180156109cc576109bd575b50908015801561098d575b505084519384525060208301859052604083015233917f9387a595ac4be9038bbb9751abad8baa3dcf219dd9e19abb81552bd521fe354690806060810161048c565b82808093819382906109b4575b3390f1156109a957808061094b565b8451903d90823e3d90fd5b506108fc61099a565b6109c690611809565b38610940565b87513d84823e3d90fd5b865162461bcd60e51b8152908101899052602a60248201527f496e73756666696369656e7420746f6b656e7320666f72206d696e696d756d2060448201526911551208185b5bdd5b9d60b21b6064820152608490fd5b855162461bcd60e51b8152808801899052601a60248201527f496e73756666696369656e7420746f6b656e2062616c616e63650000000000006044820152606490fd5b855162461bcd60e51b8152808801899052601960248201527f4d7573742073656c6c20706f73697469766520616d6f756e74000000000000006044820152606490fd5b5050346102115760203660031901126102115760209181906001600160a01b03610ada61178a565b16815260cb845220549051908152f35b839150346102115760203660031901126102115760e0926001600160a01b0392819084610b1561178a565b16815260c9602052209083825416936001830154169260028301546003840154918401549260ff600660058701549601541695815197885260208801528601526060850152608084015260a0830152151560c0820152f35b50503461021157816003193601126102115760cd5490516001600160a01b039091168152602090f35b833461031957602036600319011261031957610bb061178a565b610bb8611877565b60018060a01b03166001600160601b0360a01b60cd54161760cd5580f35b50503461021157816003193601126102115760335490516001600160a01b039091168152602090f35b505034610211576020366003190112610211576020906102d4610c2061178a565b611c85565b50503461021157816003193601126102115760d45490516001600160a01b039091168152602090f35b8334610319578060031936011261031957610c67611877565b603380546001600160a01b0319811690915581906001600160a01b03167f8be0079c531659141344cd1fd0a4f28419497f9722a3daafe3b4186f6b6457e08280a380f35b50503461021157816003193601126102115760cc5490516001600160a01b039091168152602090f35b50503461021157816003193601126102115760209060d3549051908152f35b5050346102115780600319360112610211576020906102d4610d1361178a565b60243590611dc3565b90508234610319578060031936011261031957507f00000000000000000000000000000000000000000000000000000000000000006001600160a01b03163003610d775760208251600080516020611e168339815191528152f35b6020608492519162461bcd60e51b8352820152603860248201527f555550535570677261646561626c653a206d757374206e6f742062652063616c60448201527f6c6564207468726f7567682064656c656761746563616c6c00000000000000006064820152fd5b918091506003193601126102a757610df561178a565b906024359067ffffffffffffffff82116104ef57366023830112156104ef5781840135610e218161185b565b610e2d83519182611839565b818152866020948583019336602482840101116102a7578060248893018637830101526001600160a01b037f0000000000000000000000000000000000000000000000000000000000000000811690610e8830831415611918565b610ea5600080516020611e16833981519152928284541614611979565b610ead611877565b7f4910fdfa16fed3260ed0e7147f7cc6da11a60208b5b9406d12a635614ffd91435460ff1615610ee75750505050505061025291506119da565b869293949596169085516352d1902d60e01b815287818a81865afa8a91816110aa575b50610f6957865162461bcd60e51b8152808a01899052602e60248201527f45524331393637557067726164653a206e657720696d706c656d656e7461746960448201526d6f6e206973206e6f74205555505360901b6064820152608490fd5b9791929396959497036110555750610f80826119da565b7fbc7cd75a20ee27fd9adebab32041f755214dbc6bffa90cc0225b39da2e5c2d3b8780a28584511580159061104d575b610fbe575b50505050505080f35b8061103796845196610fcf8861181d565b602788527f416464726573733a206c6f772d6c6576656c2064656c65676174652063616c6c87890152660819985a5b195960ca1b868901525190845af4913d15611043573d6110296110208261185b565b92519283611839565b81528681943d92013e611a6a565b50388080808085610fb5565b5060609250611a6a565b506001610fb0565b835162461bcd60e51b8152908101859052602960248201527f45524331393637557067726164653a20756e737570706f727465642070726f786044820152681a58589b195555525160ba1b6064820152608490fd5b9091508881813d83116110d6575b6110c28183611839565b810103126110d257519038610f0a565b8a80fd5b503d6110b8565b50503461021157602036600319011261021157610252906110fc61178a565b611104611877565b6001600160a01b0316611118811515611b9e565b835260c96020528220600601805460ff818116151660ff19909116179055565b5050346102115760203660031901126102115760209181906001600160a01b0361116061178a565b16815260ca845220549051908152f35b83346103195760203660031901126103195761118a61178a565b611192611877565b60018060a01b03166001600160601b0360a01b60cc54161760cc5580f35b5050346102115781600319360112610211576111ca611877565b8180808060018060a01b036033541647908282156111f7575bf1156111ed575080f35b51903d90823e3d90fd5b506108fc6111e3565b919050346102a7576020806003193601126104e15761121d61178a565b916001600160a01b037f0000000000000000000000000000000000000000000000000000000000000000811661125530821415611918565b611272600080516020611e16833981519152918383541614611979565b61127a611877565b8251908482019282841067ffffffffffffffff8511176113df578385528883527f4910fdfa16fed3260ed0e7147f7cc6da11a60208b5b9406d12a635614ffd91435460ff16156112d45750505050505061025291506119da565b869293949596169085516352d1902d60e01b815287818a81865afa8a91816113b0575b5061135657865162461bcd60e51b8152808a01899052602e60248201527f45524331393637557067726164653a206e657720696d706c656d656e7461746960448201526d6f6e206973206e6f74205555505360901b6064820152608490fd5b979192939695949703611055575061136d826119da565b7fbc7cd75a20ee27fd9adebab32041f755214dbc6bffa90cc0225b39da2e5c2d3b8780a2858451158015906113a957610fbe5750505050505080f35b5080610fb0565b9091508881813d83116113d8575b6113c88183611839565b810103126110d2575190386112f7565b503d6113be565b634e487b7160e01b895260418852602489fd5b50503461021157816003193601126102115760209060d2549051908152f35b9050346102a75760203660031901126102a75760e0928261143061178a565b918060c0835161143f816117ed565b82815282602082015282858201528260608201528260808201528260a0820152015260018060a01b03809316815260c96020522090835192611480846117ed565b818354169485855282600185015416926020860193845260028501549082870191825260038601549360608801948552860154946080880195865260c060ff600660058a01549960a08c019a8b520154169801971515885283519889525116602088015251908601525160608501525160808401525160a083015251151560c0820152f35b9050346102a75760603660031901126102a75761152061178a565b906115296117a5565b91845460ff8160081c1615928380946116b9575b80156116a2575b15611648575060ff198116600117865582611637575b5061157460ff865460081c1661156f81611b3e565b611b3e565b61157d336118cf565b84549261158f60ff8560081c16611b3e565b60018060a01b0390816001600160601b0360a01b93168360cc54161760cc55169060cd54161760cd5560443560d255606083516115cb816117bb565b6103e88082526101f491826020820152606487820152611388938491015260ce5560cf55606460d05560d1556115ff578280f35b61ff001916825551600181527f7f26b83ff96e1f2b6a682f133852f6798a09c465da95921460cefb384740249890602090a138808280f35b61ffff19166101011785553861155a565b608490602087519162461bcd60e51b8352820152602e60248201527f496e697469616c697a61626c653a20636f6e747261637420697320616c72656160448201526d191e481a5b9a5d1a585b1a5e995960921b6064820152fd5b50303b1580156115445750600160ff831614611544565b50600160ff83161061153d565b839034610211576020366003190112610211576116e1611877565b3560d25580f35b919050346102a75760803660031901126102a7577f642a2328272d9e8f7996714d21dad1230999171aabf9dc477fb696136713eef891356117846024359260443560643591611735611877565b8260608251611743816117bb565b878152886020820152848482015201528460ce558560cf558160d0558260d15551948594859094939260609260808301968352602083015260408201520152565b0390a180f35b600435906001600160a01b03821682036117a057565b600080fd5b602435906001600160a01b03821682036117a057565b6080810190811067ffffffffffffffff8211176117d757604052565b634e487b7160e01b600052604160045260246000fd5b60e0810190811067ffffffffffffffff8211176117d757604052565b67ffffffffffffffff81116117d757604052565b6060810190811067ffffffffffffffff8211176117d757604052565b90601f8019910116810190811067ffffffffffffffff8211176117d757604052565b67ffffffffffffffff81116117d757601f01601f191660200190565b6033546001600160a01b0316330361188b57565b606460405162461bcd60e51b815260206004820152602060248201527f4f776e61626c653a2063616c6c6572206973206e6f7420746865206f776e65726044820152fd5b603380546001600160a01b039283166001600160a01b0319821681179092559091167f8be0079c531659141344cd1fd0a4f28419497f9722a3daafe3b4186f6b6457e0600080a3565b1561191f57565b60405162461bcd60e51b815260206004820152602c60248201527f46756e6374696f6e206d7573742062652063616c6c6564207468726f7567682060448201526b19195b1959d85d1958d85b1b60a21b6064820152608490fd5b1561198057565b60405162461bcd60e51b815260206004820152602c60248201527f46756e6374696f6e206d7573742062652063616c6c6564207468726f7567682060448201526b6163746976652070726f787960a01b6064820152608490fd5b803b15611a0f57600080516020611e1683398151915280546001600160a01b0319166001600160a01b03909216919091179055565b60405162461bcd60e51b815260206004820152602d60248201527f455243313936373a206e657720696d706c656d656e746174696f6e206973206e60448201526c1bdd08184818dbdb9d1c9858dd609a1b6064820152608490fd5b91929015611acc5750815115611a7e575090565b3b15611a875790565b60405162461bcd60e51b815260206004820152601d60248201527f416464726573733a2063616c6c20746f206e6f6e2d636f6e74726163740000006044820152606490fd5b825190915015611adf5750805190602001fd5b6040519062461bcd60e51b82528160208060048301528251908160248401526000935b828510611b25575050604492506000838284010152601f80199101168101030190fd5b8481018201518686016044015293810193859350611b02565b15611b4557565b60405162461bcd60e51b815260206004820152602b60248201527f496e697469616c697a61626c653a20636f6e7472616374206973206e6f74206960448201526a6e697469616c697a696e6760a81b6064820152608490fd5b15611ba557565b60405162461bcd60e51b8152602060048201526016602482015275125b9d985b1a59081d1bdad95b8818dbdb9d1c9858dd60521b6044820152606490fd5b15611bea57565b60405162461bcd60e51b815260206004820152601060248201526f546f6b656e206e6f742061637469766560801b6044820152606490fd5b91908201809211611c2f57565b634e487b7160e01b600052601160045260246000fd5b81810292918115918404141715611c2f57565b8115611c62570490565b634e487b7160e01b600052601260045260246000fd5b91908203918211611c2f57565b6001600160a01b0316600090815260c960205260408120600681015490919060ff1615611d4957600382015490670de0b6b3a76400009182810290808204841490151715611d3557611cec611ce3620f424092600287015490611c58565b60ce5490611c45565b048201809211611d21575081611d18611d1d9260046005683635c9adc5dea00000960154930154611c45565b611c45565b0490565b634e487b7160e01b81526011600452602490fd5b634e487b7160e01b82526011600452602482fd5b905090565b6001600160a01b038116600090815260c9602052604090206006015460ff1615611dbc57611d7b90611c85565b90670de0b6b3a764000090818102918183041490151715611c2f57611db991611da391611c58565b612710611db260d05483611c45565b0490611c78565b90565b5050600090565b9060018060a01b03821660005260c960205260ff6006604060002001541615611dbc57611e05670de0b6b3a764000091611dff611db994611c85565b90611c45565b04612710611db260d05483611c4556fe360894a13ba1a3210667c828492db98dca3e2076cc3735a920a3ca505d382bbca26469706673582212206f99c619d21c271393bdf41a66432716c9b462203e4616764f5bb0d51103474264736f6c63430008110033","opcodes":"PUSH1 0xA0 DUP1 PUSH1 0x40 MSTORE CALLVALUE PUSH2 0xDC JUMPI ADDRESS PUSH1 0x80 MSTORE PUSH1 0x0 SLOAD SWAP1 PUSH1 0xFF DUP3 PUSH1 0x8 SHR AND PUSH2 0x8A JUMPI POP PUSH1 0xFF DUP1 DUP3 AND SUB PUSH2 0x4F JUMPI JUMPDEST PUSH1 0x40 MLOAD PUSH2 0x1E6B SWAP1 DUP2 PUSH2 0xE2 DUP3 CODECOPY PUSH1 0x80 MLOAD DUP2 DUP2 DUP2 PUSH2 0xD32 ADD MSTORE DUP2 DUP2 PUSH2 0xE5A ADD MSTORE PUSH2 0x1228 ADD MSTORE RETURN JUMPDEST PUSH1 0xFF SWAP1 DUP2 NOT AND OR PUSH1 0x0 SSTORE PUSH32 0x7F26B83FF96E1F2B6A682F133852F6798A09C465DA95921460CEFB3847402498 PUSH1 0x20 PUSH1 0x40 MLOAD PUSH1 0xFF DUP2 MSTORE LOG1 CODESIZE PUSH2 0x29 JUMP JUMPDEST PUSH3 0x461BCD PUSH1 0xE5 SHL DUP2 MSTORE PUSH1 0x20 PUSH1 0x4 DUP3 ADD MSTORE PUSH1 0x27 PUSH1 0x24 DUP3 ADD MSTORE PUSH32 0x496E697469616C697A61626C653A20636F6E747261637420697320696E697469 PUSH1 0x44 DUP3 ADD MSTORE PUSH7 0x616C697A696E67 PUSH1 0xC8 SHL PUSH1 0x64 DUP3 ADD MSTORE PUSH1 0x84 SWAP1 REVERT JUMPDEST PUSH1 0x0 DUP1 REVERT INVALID PUSH1 0x40 PUSH1 0x80 DUP2 MSTORE PUSH1 0x4 SWAP1 DUP2 CALLDATASIZE LT ISZERO PUSH2 0x15 JUMPI PUSH1 0x0 DUP1 REVERT JUMPDEST PUSH1 0x0 SWAP2 DUP3 CALLDATALOAD PUSH1 0xE0 SHR SWAP1 DUP2 PUSH4 0x78BFD9B EQ PUSH2 0x16E8 JUMPI DUP2 PUSH4 0xF6CA1A8 EQ PUSH2 0xAB2 JUMPI DUP2 PUSH4 0x12E8E2C3 EQ PUSH2 0x16C6 JUMPI DUP2 PUSH4 0x1794BB3C EQ PUSH2 0x1505 JUMPI DUP2 PUSH4 0x1F69565F EQ PUSH2 0x1411 JUMPI DUP2 PUSH4 0x26224C64 EQ PUSH2 0x1138 JUMPI DUP2 PUSH4 0x26232A2E EQ PUSH2 0x13F2 JUMPI DUP2 PUSH4 0x3659CFE6 EQ PUSH2 0x1200 JUMPI DUP2 PUSH4 0x3CCFD60B EQ PUSH2 0x11B0 JUMPI DUP2 PUSH4 0x44CDA485 EQ PUSH2 0x1170 JUMPI DUP2 PUSH4 0x47734892 EQ PUSH2 0x1138 JUMPI DUP2 PUSH4 0x4F1D052D EQ PUSH2 0x10DD JUMPI DUP2 PUSH4 0x4F1EF286 EQ PUSH2 0xDDF JUMPI DUP2 PUSH4 0x52D1902D EQ PUSH2 0xD1C JUMPI DUP2 PUSH4 0x573A5B6B EQ PUSH2 0xCF3 JUMPI DUP2 PUSH4 0x5F81A57C EQ PUSH2 0xCD4 JUMPI DUP2 PUSH4 0x6FD31A41 EQ PUSH2 0xCAB JUMPI DUP2 PUSH4 0x715018A6 EQ PUSH2 0xC4E JUMPI DUP2 PUSH4 0x73C84D21 EQ PUSH2 0xC25 JUMPI DUP2 PUSH4 0x84CC315B EQ PUSH2 0xBFF JUMPI DUP2 PUSH4 0x8DA5CB5B EQ PUSH2 0xBD6 JUMPI DUP2 PUSH4 0xB0D485B3 EQ PUSH2 0xB96 JUMPI DUP2 PUSH4 0xB76D03B2 EQ PUSH2 0xB6D JUMPI DUP2 PUSH4 0xBA46AE72 EQ PUSH2 0xAEA JUMPI DUP2 PUSH4 0xBB8B2B47 EQ PUSH2 0xAB2 JUMPI DUP2 PUSH4 0xC464FE65 EQ PUSH2 0x839 JUMPI DUP2 PUSH4 0xCEA9F4B5 EQ PUSH2 0x60E JUMPI DUP2 PUSH4 0xE9725C21 EQ PUSH2 0x5CE JUMPI DUP2 PUSH4 0xEC8AC4D8 EQ PUSH2 0x31C JUMPI DUP2 PUSH4 0xEFF1D50E EQ PUSH2 0x2DB JUMPI DUP2 PUSH4 0xF2F2C5C4 EQ PUSH2 0x2AB JUMPI DUP2 PUSH4 0xF2FDE38B EQ PUSH2 0x215 JUMPI POP PUSH4 0xF6322A5F EQ PUSH2 0x18E JUMPI PUSH1 0x0 DUP1 REVERT JUMPDEST CALLVALUE PUSH2 0x211 JUMPI DUP1 PUSH1 0x3 NOT CALLDATASIZE ADD SLT PUSH2 0x211 JUMPI PUSH32 0x35A172EE9B7BBA49CE50C0BA9B35893A8948F2D53CA31CE2890A07A54E1F548A PUSH2 0x1C7 PUSH2 0x178A JUMP JUMPDEST PUSH1 0x1 PUSH1 0x1 PUSH1 0xA0 SHL SUB AND SWAP2 PUSH1 0x24 CALLDATALOAD PUSH2 0x1DF DUP5 ISZERO ISZERO PUSH2 0x1B9E JUMP JUMPDEST DUP4 DUP6 MSTORE PUSH1 0xC9 PUSH1 0x20 MSTORE PUSH1 0x5 DUP3 DUP7 KECCAK256 PUSH2 0x1FC PUSH1 0xFF PUSH1 0x6 DUP4 ADD SLOAD AND PUSH2 0x1BE3 JUMP JUMPDEST ADD SWAP1 DUP1 DUP3 SLOAD SWAP3 SSTORE DUP3 MLOAD SWAP2 DUP3 MSTORE PUSH1 0x20 DUP3 ADD MSTORE LOG2 DUP1 RETURN JUMPDEST POP DUP1 REVERT JUMPDEST SWAP1 POP CALLVALUE PUSH2 0x2A7 JUMPI PUSH1 0x20 CALLDATASIZE PUSH1 0x3 NOT ADD SLT PUSH2 0x2A7 JUMPI PUSH2 0x230 PUSH2 0x178A JUMP JUMPDEST SWAP2 PUSH2 0x239 PUSH2 0x1877 JUMP JUMPDEST PUSH1 0x1 PUSH1 0x1 PUSH1 0xA0 SHL SUB DUP4 AND ISZERO PUSH2 0x255 JUMPI DUP4 PUSH2 0x252 DUP5 PUSH2 0x18CF JUMP JUMPDEST DUP1 RETURN JUMPDEST SWAP1 PUSH1 0x20 PUSH1 0x84 SWAP3 MLOAD SWAP2 PUSH3 0x461BCD PUSH1 0xE5 SHL DUP4 MSTORE DUP3 ADD MSTORE PUSH1 0x26 PUSH1 0x24 DUP3 ADD MSTORE PUSH32 0x4F776E61626C653A206E6577206F776E657220697320746865207A65726F2061 PUSH1 0x44 DUP3 ADD MSTORE PUSH6 0x646472657373 PUSH1 0xD0 SHL PUSH1 0x64 DUP3 ADD MSTORE REVERT JUMPDEST DUP3 DUP1 REVERT JUMPDEST POP POP CALLVALUE PUSH2 0x211 JUMPI DUP1 PUSH1 0x3 NOT CALLDATASIZE ADD SLT PUSH2 0x211 JUMPI PUSH1 0x20 SWAP1 PUSH2 0x2D4 PUSH2 0x2CB PUSH2 0x178A JUMP JUMPDEST PUSH1 0x24 CALLDATALOAD SWAP1 PUSH2 0x1D4E JUMP JUMPDEST SWAP1 MLOAD SWAP1 DUP2 MSTORE RETURN JUMPDEST DUP3 DUP5 CALLVALUE PUSH2 0x319 JUMPI DUP1 PUSH1 0x3 NOT CALLDATASIZE ADD SLT PUSH2 0x319 JUMPI POP PUSH1 0xCE SLOAD PUSH1 0xCF SLOAD PUSH1 0xD0 SLOAD PUSH1 0xD1 SLOAD SWAP4 MLOAD SWAP3 DUP4 MSTORE PUSH1 0x20 DUP4 ADD SWAP2 SWAP1 SWAP2 MSTORE PUSH1 0x40 DUP3 ADD MSTORE PUSH1 0x60 DUP2 ADD SWAP2 SWAP1 SWAP2 MSTORE PUSH1 0x80 SWAP1 RETURN JUMPDEST DUP1 REVERT JUMPDEST DUP4 DUP4 PUSH1 0x20 SWAP3 DUP4 PUSH1 0x3 NOT CALLDATASIZE ADD SLT PUSH2 0x2A7 JUMPI PUSH2 0x334 PUSH2 0x178A JUMP JUMPDEST SWAP1 PUSH1 0x1 DUP1 PUSH1 0xA0 SHL SUB SWAP4 DUP5 DUP4 AND SWAP2 DUP3 DUP3 MSTORE PUSH1 0xC9 DUP8 MSTORE DUP5 DUP3 KECCAK256 PUSH2 0x35B PUSH1 0xFF PUSH1 0x6 DUP4 ADD SLOAD AND PUSH2 0x1BE3 JUMP JUMPDEST CALLVALUE ISZERO PUSH2 0x58B JUMPI PUSH2 0x375 PUSH2 0x36D DUP7 PUSH2 0x1C85 JUMP JUMPDEST SWAP6 CALLVALUE SWAP1 PUSH2 0x1D4E JUMP JUMPDEST SWAP7 DUP8 ISZERO PUSH2 0x536 JUMPI PUSH1 0x3 DUP3 ADD SWAP3 DUP4 SLOAD SWAP4 PUSH2 0x38E DUP11 DUP7 PUSH2 0x1C22 JUMP JUMPDEST PUSH1 0x2 DUP6 ADD SLOAD LT PUSH2 0x4F3 JUMPI PUSH2 0x3BB DUP11 PUSH2 0x3B5 PUSH2 0x2710 PUSH2 0x3AE PUSH1 0xD2 SLOAD CALLVALUE PUSH2 0x1C45 JUMP JUMPDEST DIV CALLVALUE PUSH2 0x1C78 JUMP JUMPDEST SWAP7 PUSH2 0x1C22 JUMP JUMPDEST SWAP1 SSTORE DUP6 DUP6 MSTORE PUSH1 0xCA DUP11 MSTORE DUP8 DUP6 KECCAK256 PUSH2 0x3D2 DUP11 DUP3 SLOAD PUSH2 0x1C22 JUMP JUMPDEST SWAP1 SSTORE CALLER DUP6 MSTORE PUSH1 0xCB DUP11 MSTORE DUP8 DUP6 KECCAK256 PUSH2 0x3E9 CALLVALUE DUP3 SLOAD PUSH2 0x1C22 JUMP JUMPDEST SWAP1 SSTORE PUSH2 0x3F7 CALLVALUE PUSH1 0xD3 SLOAD PUSH2 0x1C22 JUMP JUMPDEST PUSH1 0xD3 SSTORE DUP6 EXTCODESIZE ISZERO PUSH2 0x4EF JUMPI DUP8 MLOAD PUSH4 0x40C10F19 PUSH1 0xE0 SHL DUP2 MSTORE CALLER SWAP2 DUP2 ADD SWAP2 DUP3 MSTORE PUSH1 0x20 DUP3 ADD DUP11 SWAP1 MSTORE SWAP1 DUP6 SWAP1 DUP3 SWAP1 DUP2 SWAP1 PUSH1 0x40 ADD SUB DUP2 DUP4 DUP11 GAS CALL DUP1 ISZERO PUSH2 0x4E5 JUMPI SWAP1 DUP6 SWAP2 PUSH2 0x4CD JUMPI JUMPDEST POP POP DUP3 ISZERO SWAP2 DUP3 ISZERO PUSH2 0x495 JUMPI JUMPDEST POP POP POP POP POP PUSH32 0x8692CF5BA66ABD64F88CDC1FFA0EE9D9C21EE2D999322A20445AE32393394E3E DUP4 MLOAD DUP1 PUSH2 0x48C CALLER SWAP6 DUP9 CALLVALUE DUP5 PUSH1 0x40 SWAP2 SWAP5 SWAP4 SWAP3 PUSH1 0x60 DUP3 ADD SWAP6 DUP3 MSTORE PUSH1 0x20 DUP3 ADD MSTORE ADD MSTORE JUMP JUMPDEST SUB SWAP1 LOG3 MLOAD SWAP1 DUP2 MSTORE RETURN JUMPDEST DUP5 SWAP4 DUP5 SWAP4 DUP5 SWAP4 PUSH1 0x1 DUP6 SWAP5 ADD SLOAD AND SWAP1 DUP4 SWAP1 PUSH2 0x4C4 JUMPI JUMPDEST CALL ISZERO PUSH2 0x4B9 JUMPI DUP1 DUP1 DUP1 DUP1 PUSH2 0x445 JUMP JUMPDEST DUP4 MLOAD SWAP1 RETURNDATASIZE SWAP1 DUP3 RETURNDATACOPY RETURNDATASIZE SWAP1 REVERT JUMPDEST POP PUSH2 0x8FC PUSH2 0x4AA JUMP JUMPDEST PUSH2 0x4D6 SWAP1 PUSH2 0x1809 JUMP JUMPDEST PUSH2 0x4E1 JUMPI DUP4 DUP11 PUSH2 0x439 JUMP JUMPDEST DUP4 DUP1 REVERT JUMPDEST DUP9 MLOAD RETURNDATASIZE DUP8 DUP3 RETURNDATACOPY RETURNDATASIZE SWAP1 REVERT JUMPDEST DUP5 DUP1 REVERT JUMPDEST DUP9 MLOAD PUSH3 0x461BCD PUSH1 0xE5 SHL DUP2 MSTORE DUP1 DUP4 ADD DUP13 SWAP1 MSTORE PUSH1 0x19 PUSH1 0x24 DUP3 ADD MSTORE PUSH32 0x576F756C642065786365656420746F74616C20737570706C7900000000000000 PUSH1 0x44 DUP3 ADD MSTORE PUSH1 0x64 SWAP1 REVERT JUMPDEST DUP7 MLOAD PUSH3 0x461BCD PUSH1 0xE5 SHL DUP2 MSTORE DUP1 DUP5 ADD DUP11 SWAP1 MSTORE PUSH1 0x29 PUSH1 0x24 DUP3 ADD MSTORE PUSH32 0x496E73756666696369656E742045544820666F72206D696E696D756D20746F6B PUSH1 0x44 DUP3 ADD MSTORE PUSH9 0x195B88185B5BDD5B9D PUSH1 0xBA SHL PUSH1 0x64 DUP3 ADD MSTORE PUSH1 0x84 SWAP1 REVERT JUMPDEST DUP6 MLOAD PUSH3 0x461BCD PUSH1 0xE5 SHL DUP2 MSTORE DUP1 DUP4 ADD DUP10 SWAP1 MSTORE PUSH1 0x1B PUSH1 0x24 DUP3 ADD MSTORE PUSH32 0x4D7573742073656E642045544820746F2062757920746F6B656E730000000000 PUSH1 0x44 DUP3 ADD MSTORE PUSH1 0x64 SWAP1 REVERT JUMPDEST DUP4 CALLVALUE PUSH2 0x319 JUMPI PUSH1 0x20 CALLDATASIZE PUSH1 0x3 NOT ADD SLT PUSH2 0x319 JUMPI PUSH2 0x5E8 PUSH2 0x178A JUMP JUMPDEST PUSH2 0x5F0 PUSH2 0x1877 JUMP JUMPDEST PUSH1 0x1 DUP1 PUSH1 0xA0 SHL SUB AND PUSH1 0x1 PUSH1 0x1 PUSH1 0x60 SHL SUB PUSH1 0xA0 SHL PUSH1 0xD4 SLOAD AND OR PUSH1 0xD4 SSTORE DUP1 RETURN JUMPDEST DUP4 SWAP2 POP CALLVALUE PUSH2 0x211 JUMPI PUSH1 0x80 CALLDATASIZE PUSH1 0x3 NOT ADD SLT PUSH2 0x211 JUMPI PUSH2 0x62A PUSH2 0x178A JUMP JUMPDEST SWAP1 PUSH2 0x633 PUSH2 0x17A5 JUMP JUMPDEST SWAP1 PUSH1 0x44 CALLDATALOAD PUSH1 0x64 CALLDATALOAD SWAP1 PUSH1 0x1 DUP1 PUSH1 0xA0 SHL SUB SWAP5 DUP6 PUSH1 0x33 SLOAD AND CALLER SUB PUSH2 0x7F6 JUMPI DUP6 DUP1 SWAP2 AND SWAP5 PUSH2 0x65E DUP7 ISZERO ISZERO PUSH2 0x1B9E JUMP JUMPDEST AND DUP1 ISZERO PUSH2 0x7B3 JUMPI DUP2 ISZERO PUSH2 0x764 JUMPI DUP3 ISZERO PUSH2 0x717 JUMPI SWAP3 DUP7 SWAP3 DUP9 PUSH2 0x252 SWAP8 SWAP7 SWAP4 PUSH1 0x6 SWAP7 DUP3 MLOAD SWAP9 PUSH2 0x68A DUP11 PUSH2 0x17ED JUMP JUMPDEST DUP7 DUP11 MSTORE PUSH1 0x20 DUP11 ADD SWAP2 DUP3 MSTORE DUP4 DUP11 ADD SWAP3 DUP4 MSTORE DUP1 PUSH1 0x60 DUP12 ADD SWAP5 DUP10 DUP7 MSTORE PUSH1 0x80 DUP13 ADD SWAP7 DUP8 MSTORE PUSH1 0xA0 DUP13 ADD SWAP9 PUSH2 0x3E8 DUP11 MSTORE PUSH1 0xC0 DUP14 ADD SWAP11 PUSH1 0x1 DUP13 MSTORE MSTORE PUSH1 0xC9 PUSH1 0x20 MSTORE DUP14 KECCAK256 SWAP11 MLOAD AND SWAP1 PUSH1 0x1 PUSH1 0x1 PUSH1 0x60 SHL SUB PUSH1 0xA0 SHL SWAP2 DUP3 DUP13 SLOAD AND OR DUP12 SSTORE PUSH1 0x1 DUP12 ADD SWAP3 MLOAD AND SWAP1 DUP3 SLOAD AND OR SWAP1 SSTORE MLOAD PUSH1 0x2 DUP9 ADD SSTORE MLOAD PUSH1 0x3 DUP8 ADD SSTORE MLOAD SWAP1 DUP6 ADD SSTORE MLOAD PUSH1 0x5 DUP5 ADD SSTORE MLOAD ISZERO ISZERO SWAP2 ADD SWAP1 PUSH1 0xFF DUP1 NOT DUP4 SLOAD AND SWAP2 ISZERO ISZERO AND OR SWAP1 SSTORE JUMP JUMPDEST DUP8 MLOAD PUSH3 0x461BCD PUSH1 0xE5 SHL DUP2 MSTORE PUSH1 0x20 DUP2 DUP7 ADD MSTORE PUSH1 0x21 PUSH1 0x24 DUP3 ADD MSTORE PUSH32 0x42617365207072696365206D7573742062652067726561746572207468616E20 PUSH1 0x44 DUP3 ADD MSTORE PUSH1 0x3 PUSH1 0xFC SHL PUSH1 0x64 DUP3 ADD MSTORE PUSH1 0x84 SWAP1 REVERT JUMPDEST DUP8 MLOAD PUSH3 0x461BCD PUSH1 0xE5 SHL DUP2 MSTORE PUSH1 0x20 DUP2 DUP7 ADD MSTORE PUSH1 0x23 PUSH1 0x24 DUP3 ADD MSTORE PUSH32 0x546F74616C20737570706C79206D757374206265206772656174657220746861 PUSH1 0x44 DUP3 ADD MSTORE PUSH3 0x6E203 PUSH1 0xEC SHL PUSH1 0x64 DUP3 ADD MSTORE PUSH1 0x84 SWAP1 REVERT JUMPDEST DUP8 MLOAD PUSH3 0x461BCD PUSH1 0xE5 SHL DUP2 MSTORE PUSH1 0x20 DUP2 DUP7 ADD MSTORE PUSH1 0x1A PUSH1 0x24 DUP3 ADD MSTORE PUSH32 0x496E76616C696420617374726F6C6F6765722061646472657373000000000000 PUSH1 0x44 DUP3 ADD MSTORE PUSH1 0x64 SWAP1 REVERT JUMPDEST DUP8 MLOAD PUSH3 0x461BCD PUSH1 0xE5 SHL DUP2 MSTORE PUSH1 0x20 DUP2 DUP7 ADD MSTORE PUSH1 0x1E PUSH1 0x24 DUP3 ADD MSTORE PUSH32 0x4F6E6C79206F776E65722063616E20726567697374657220746F6B656E730000 PUSH1 0x44 DUP3 ADD MSTORE PUSH1 0x64 SWAP1 REVERT JUMPDEST SWAP2 SWAP1 POP CALLVALUE PUSH2 0x2A7 JUMPI DUP1 PUSH1 0x3 NOT CALLDATASIZE ADD SLT PUSH2 0x2A7 JUMPI PUSH2 0x854 PUSH2 0x178A JUMP JUMPDEST PUSH1 0x1 PUSH1 0x1 PUSH1 0xA0 SHL SUB DUP2 AND DUP1 DUP6 MSTORE PUSH1 0xC9 PUSH1 0x20 SWAP1 DUP2 MSTORE DUP4 DUP7 KECCAK256 PUSH1 0x6 DUP2 ADD SLOAD SWAP2 SWAP7 PUSH1 0x24 CALLDATALOAD SWAP5 SWAP3 PUSH2 0x883 SWAP1 PUSH1 0xFF AND PUSH2 0x1BE3 JUMP JUMPDEST DUP5 ISZERO PUSH2 0xA6F JUMPI DUP4 DUP2 MSTORE PUSH1 0xCA DUP9 MSTORE DUP5 DUP7 DUP3 KECCAK256 SLOAD LT PUSH2 0xA2C JUMPI PUSH2 0x8AD DUP6 PUSH2 0x8A7 DUP6 PUSH2 0x1C85 JUMP JUMPDEST SWAP5 PUSH2 0x1DC3 JUMP JUMPDEST SWAP7 DUP8 ISZERO PUSH2 0x9D6 JUMPI PUSH1 0x3 PUSH2 0x8CF PUSH2 0x2710 PUSH2 0x8C8 PUSH1 0xD2 SLOAD DUP13 PUSH2 0x1C45 JUMP JUMPDEST DIV DUP11 PUSH2 0x1C78 JUMP JUMPDEST SWAP4 ADD PUSH2 0x8DC DUP8 DUP3 SLOAD PUSH2 0x1C78 JUMP JUMPDEST SWAP1 SSTORE DUP5 DUP3 MSTORE PUSH1 0xCA DUP10 MSTORE DUP7 DUP3 KECCAK256 PUSH2 0x8F3 DUP8 DUP3 SLOAD PUSH2 0x1C78 JUMP JUMPDEST SWAP1 SSTORE PUSH2 0x901 DUP9 PUSH1 0xD3 SLOAD PUSH2 0x1C22 JUMP JUMPDEST PUSH1 0xD3 SSTORE DUP5 EXTCODESIZE ISZERO PUSH2 0x211 JUMPI DUP7 MLOAD PUSH4 0x79CC679 PUSH1 0xE4 SHL DUP2 MSTORE CALLER SWAP2 DUP2 ADD SWAP2 DUP3 MSTORE PUSH1 0x20 DUP3 ADD DUP8 SWAP1 MSTORE SWAP1 DUP3 SWAP1 DUP3 SWAP1 DUP2 SWAP1 PUSH1 0x40 ADD SUB DUP2 DUP4 DUP10 GAS CALL DUP1 ISZERO PUSH2 0x9CC JUMPI PUSH2 0x9BD JUMPI JUMPDEST POP SWAP1 DUP1 ISZERO DUP1 ISZERO PUSH2 0x98D JUMPI JUMPDEST POP POP DUP5 MLOAD SWAP4 DUP5 MSTORE POP PUSH1 0x20 DUP4 ADD DUP6 SWAP1 MSTORE PUSH1 0x40 DUP4 ADD MSTORE CALLER SWAP2 PUSH32 0x9387A595AC4BE9038BBB9751ABAD8BAA3DCF219DD9E19ABB81552BD521FE3546 SWAP1 DUP1 PUSH1 0x60 DUP2 ADD PUSH2 0x48C JUMP JUMPDEST DUP3 DUP1 DUP1 SWAP4 DUP2 SWAP4 DUP3 SWAP1 PUSH2 0x9B4 JUMPI JUMPDEST CALLER SWAP1 CALL ISZERO PUSH2 0x9A9 JUMPI DUP1 DUP1 PUSH2 0x94B JUMP JUMPDEST DUP5 MLOAD SWAP1 RETURNDATASIZE SWAP1 DUP3 RETURNDATACOPY RETURNDATASIZE SWAP1 REVERT JUMPDEST POP PUSH2 0x8FC PUSH2 0x99A JUMP JUMPDEST PUSH2 0x9C6 SWAP1 PUSH2 0x1809 JUMP JUMPDEST CODESIZE PUSH2 0x940 JUMP JUMPDEST DUP8 MLOAD RETURNDATASIZE DUP5 DUP3 RETURNDATACOPY RETURNDATASIZE SWAP1 REVERT JUMPDEST DUP7 MLOAD PUSH3 0x461BCD PUSH1 0xE5 SHL DUP2 MSTORE SWAP1 DUP2 ADD DUP10 SWAP1 MSTORE PUSH1 0x2A PUSH1 0x24 DUP3 ADD MSTORE PUSH32 0x496E73756666696369656E7420746F6B656E7320666F72206D696E696D756D20 PUSH1 0x44 DUP3 ADD MSTORE PUSH10 0x11551208185B5BDD5B9D PUSH1 0xB2 SHL PUSH1 0x64 DUP3 ADD MSTORE PUSH1 0x84 SWAP1 REVERT JUMPDEST DUP6 MLOAD PUSH3 0x461BCD PUSH1 0xE5 SHL DUP2 MSTORE DUP1 DUP9 ADD DUP10 SWAP1 MSTORE PUSH1 0x1A PUSH1 0x24 DUP3 ADD MSTORE PUSH32 0x496E73756666696369656E7420746F6B656E2062616C616E6365000000000000 PUSH1 0x44 DUP3 ADD MSTORE PUSH1 0x64 SWAP1 REVERT JUMPDEST DUP6 MLOAD PUSH3 0x461BCD PUSH1 0xE5 SHL DUP2 MSTORE DUP1 DUP9 ADD DUP10 SWAP1 MSTORE PUSH1 0x19 PUSH1 0x24 DUP3 ADD MSTORE PUSH32 0x4D7573742073656C6C20706F73697469766520616D6F756E7400000000000000 PUSH1 0x44 DUP3 ADD MSTORE PUSH1 0x64 SWAP1 REVERT JUMPDEST POP POP CALLVALUE PUSH2 0x211 JUMPI PUSH1 0x20 CALLDATASIZE PUSH1 0x3 NOT ADD SLT PUSH2 0x211 JUMPI PUSH1 0x20 SWAP2 DUP2 SWAP1 PUSH1 0x1 PUSH1 0x1 PUSH1 0xA0 SHL SUB PUSH2 0xADA PUSH2 0x178A JUMP JUMPDEST AND DUP2 MSTORE PUSH1 0xCB DUP5 MSTORE KECCAK256 SLOAD SWAP1 MLOAD SWAP1 DUP2 MSTORE RETURN JUMPDEST DUP4 SWAP2 POP CALLVALUE PUSH2 0x211 JUMPI PUSH1 0x20 CALLDATASIZE PUSH1 0x3 NOT ADD SLT PUSH2 0x211 JUMPI PUSH1 0xE0 SWAP3 PUSH1 0x1 PUSH1 0x1 PUSH1 0xA0 SHL SUB SWAP3 DUP2 SWAP1 DUP5 PUSH2 0xB15 PUSH2 0x178A JUMP JUMPDEST AND DUP2 MSTORE PUSH1 0xC9 PUSH1 0x20 MSTORE KECCAK256 SWAP1 DUP4 DUP3 SLOAD AND SWAP4 PUSH1 0x1 DUP4 ADD SLOAD AND SWAP3 PUSH1 0x2 DUP4 ADD SLOAD PUSH1 0x3 DUP5 ADD SLOAD SWAP2 DUP5 ADD SLOAD SWAP3 PUSH1 0xFF PUSH1 0x6 PUSH1 0x5 DUP8 ADD SLOAD SWAP7 ADD SLOAD AND SWAP6 DUP2 MLOAD SWAP8 DUP9 MSTORE PUSH1 0x20 DUP9 ADD MSTORE DUP7 ADD MSTORE PUSH1 0x60 DUP6 ADD MSTORE PUSH1 0x80 DUP5 ADD MSTORE PUSH1 0xA0 DUP4 ADD MSTORE ISZERO ISZERO PUSH1 0xC0 DUP3 ADD MSTORE RETURN JUMPDEST POP POP CALLVALUE PUSH2 0x211 JUMPI DUP2 PUSH1 0x3 NOT CALLDATASIZE ADD SLT PUSH2 0x211 JUMPI PUSH1 0xCD SLOAD SWAP1 MLOAD PUSH1 0x1 PUSH1 0x1 PUSH1 0xA0 SHL SUB SWAP1 SWAP2 AND DUP2 MSTORE PUSH1 0x20 SWAP1 RETURN JUMPDEST DUP4 CALLVALUE PUSH2 0x319 JUMPI PUSH1 0x20 CALLDATASIZE PUSH1 0x3 NOT ADD SLT PUSH2 0x319 JUMPI PUSH2 0xBB0 PUSH2 0x178A JUMP JUMPDEST PUSH2 0xBB8 PUSH2 0x1877 JUMP JUMPDEST PUSH1 0x1 DUP1 PUSH1 0xA0 SHL SUB AND PUSH1 0x1 PUSH1 0x1 PUSH1 0x60 SHL SUB PUSH1 0xA0 SHL PUSH1 0xCD SLOAD AND OR PUSH1 0xCD SSTORE DUP1 RETURN JUMPDEST POP POP CALLVALUE PUSH2 0x211 JUMPI DUP2 PUSH1 0x3 NOT CALLDATASIZE ADD SLT PUSH2 0x211 JUMPI PUSH1 0x33 SLOAD SWAP1 MLOAD PUSH1 0x1 PUSH1 0x1 PUSH1 0xA0 SHL SUB SWAP1 SWAP2 AND DUP2 MSTORE PUSH1 0x20 SWAP1 RETURN JUMPDEST POP POP CALLVALUE PUSH2 0x211 JUMPI PUSH1 0x20 CALLDATASIZE PUSH1 0x3 NOT ADD SLT PUSH2 0x211 JUMPI PUSH1 0x20 SWAP1 PUSH2 0x2D4 PUSH2 0xC20 PUSH2 0x178A JUMP JUMPDEST PUSH2 0x1C85 JUMP JUMPDEST POP POP CALLVALUE PUSH2 0x211 JUMPI DUP2 PUSH1 0x3 NOT CALLDATASIZE ADD SLT PUSH2 0x211 JUMPI PUSH1 0xD4 SLOAD SWAP1 MLOAD PUSH1 0x1 PUSH1 0x1 PUSH1 0xA0 SHL SUB SWAP1 SWAP2 AND DUP2 MSTORE PUSH1 0x20 SWAP1 RETURN JUMPDEST DUP4 CALLVALUE PUSH2 0x319 JUMPI DUP1 PUSH1 0x3 NOT CALLDATASIZE ADD SLT PUSH2 0x319 JUMPI PUSH2 0xC67 PUSH2 0x1877 JUMP JUMPDEST PUSH1 0x33 DUP1 SLOAD PUSH1 0x1 PUSH1 0x1 PUSH1 0xA0 SHL SUB NOT DUP2 AND SWAP1 SWAP2 SSTORE DUP2 SWAP1 PUSH1 0x1 PUSH1 0x1 PUSH1 0xA0 SHL SUB AND PUSH32 0x8BE0079C531659141344CD1FD0A4F28419497F9722A3DAAFE3B4186F6B6457E0 DUP3 DUP1 LOG3 DUP1 RETURN JUMPDEST POP POP CALLVALUE PUSH2 0x211 JUMPI DUP2 PUSH1 0x3 NOT CALLDATASIZE ADD SLT PUSH2 0x211 JUMPI PUSH1 0xCC SLOAD SWAP1 MLOAD PUSH1 0x1 PUSH1 0x1 PUSH1 0xA0 SHL SUB SWAP1 SWAP2 AND DUP2 MSTORE PUSH1 0x20 SWAP1 RETURN JUMPDEST POP POP CALLVALUE PUSH2 0x211 JUMPI DUP2 PUSH1 0x3 NOT CALLDATASIZE ADD SLT PUSH2 0x211 JUMPI PUSH1 0x20 SWAP1 PUSH1 0xD3 SLOAD SWAP1 MLOAD SWAP1 DUP2 MSTORE RETURN JUMPDEST POP POP CALLVALUE PUSH2 0x211 JUMPI DUP1 PUSH1 0x3 NOT CALLDATASIZE ADD SLT PUSH2 0x211 JUMPI PUSH1 0x20 SWAP1 PUSH2 0x2D4 PUSH2 0xD13 PUSH2 0x178A JUMP JUMPDEST PUSH1 0x24 CALLDATALOAD SWAP1 PUSH2 0x1DC3 JUMP JUMPDEST SWAP1 POP DUP3 CALLVALUE PUSH2 0x319 JUMPI DUP1 PUSH1 0x3 NOT CALLDATASIZE ADD SLT PUSH2 0x319 JUMPI POP PUSH32 0x0 PUSH1 0x1 PUSH1 0x1 PUSH1 0xA0 SHL SUB AND ADDRESS SUB PUSH2 0xD77 JUMPI PUSH1 0x20 DUP3 MLOAD PUSH1 0x0 DUP1 MLOAD PUSH1 0x20 PUSH2 0x1E16 DUP4 CODECOPY DUP2 MLOAD SWAP2 MSTORE DUP2 MSTORE RETURN JUMPDEST PUSH1 0x20 PUSH1 0x84 SWAP3 MLOAD SWAP2 PUSH3 0x461BCD PUSH1 0xE5 SHL DUP4 MSTORE DUP3 ADD MSTORE PUSH1 0x38 PUSH1 0x24 DUP3 ADD MSTORE PUSH32 0x555550535570677261646561626C653A206D757374206E6F742062652063616C PUSH1 0x44 DUP3 ADD MSTORE PUSH32 0x6C6564207468726F7567682064656C656761746563616C6C0000000000000000 PUSH1 0x64 DUP3 ADD MSTORE REVERT JUMPDEST SWAP2 DUP1 SWAP2 POP PUSH1 0x3 NOT CALLDATASIZE ADD SLT PUSH2 0x2A7 JUMPI PUSH2 0xDF5 PUSH2 0x178A JUMP JUMPDEST SWAP1 PUSH1 0x24 CALLDATALOAD SWAP1 PUSH8 0xFFFFFFFFFFFFFFFF DUP3 GT PUSH2 0x4EF JUMPI CALLDATASIZE PUSH1 0x23 DUP4 ADD SLT ISZERO PUSH2 0x4EF JUMPI DUP2 DUP5 ADD CALLDATALOAD PUSH2 0xE21 DUP2 PUSH2 0x185B JUMP JUMPDEST PUSH2 0xE2D DUP4 MLOAD SWAP2 DUP3 PUSH2 0x1839 JUMP JUMPDEST DUP2 DUP2 MSTORE DUP7 PUSH1 0x20 SWAP5 DUP6 DUP4 ADD SWAP4 CALLDATASIZE PUSH1 0x24 DUP3 DUP5 ADD ADD GT PUSH2 0x2A7 JUMPI DUP1 PUSH1 0x24 DUP9 SWAP4 ADD DUP7 CALLDATACOPY DUP4 ADD ADD MSTORE PUSH1 0x1 PUSH1 0x1 PUSH1 0xA0 SHL SUB PUSH32 0x0 DUP2 AND SWAP1 PUSH2 0xE88 ADDRESS DUP4 EQ ISZERO PUSH2 0x1918 JUMP JUMPDEST PUSH2 0xEA5 PUSH1 0x0 DUP1 MLOAD PUSH1 0x20 PUSH2 0x1E16 DUP4 CODECOPY DUP2 MLOAD SWAP2 MSTORE SWAP3 DUP3 DUP5 SLOAD AND EQ PUSH2 0x1979 JUMP JUMPDEST PUSH2 0xEAD PUSH2 0x1877 JUMP JUMPDEST PUSH32 0x4910FDFA16FED3260ED0E7147F7CC6DA11A60208B5B9406D12A635614FFD9143 SLOAD PUSH1 0xFF AND ISZERO PUSH2 0xEE7 JUMPI POP POP POP POP POP POP PUSH2 0x252 SWAP2 POP PUSH2 0x19DA JUMP JUMPDEST DUP7 SWAP3 SWAP4 SWAP5 SWAP6 SWAP7 AND SWAP1 DUP6 MLOAD PUSH4 0x52D1902D PUSH1 0xE0 SHL DUP2 MSTORE DUP8 DUP2 DUP11 DUP2 DUP7 GAS STATICCALL DUP11 SWAP2 DUP2 PUSH2 0x10AA JUMPI JUMPDEST POP PUSH2 0xF69 JUMPI DUP7 MLOAD PUSH3 0x461BCD PUSH1 0xE5 SHL DUP2 MSTORE DUP1 DUP11 ADD DUP10 SWAP1 MSTORE PUSH1 0x2E PUSH1 0x24 DUP3 ADD MSTORE PUSH32 0x45524331393637557067726164653A206E657720696D706C656D656E74617469 PUSH1 0x44 DUP3 ADD MSTORE PUSH14 0x6F6E206973206E6F742055555053 PUSH1 0x90 SHL PUSH1 0x64 DUP3 ADD MSTORE PUSH1 0x84 SWAP1 REVERT JUMPDEST SWAP8 SWAP2 SWAP3 SWAP4 SWAP7 SWAP6 SWAP5 SWAP8 SUB PUSH2 0x1055 JUMPI POP PUSH2 0xF80 DUP3 PUSH2 0x19DA JUMP JUMPDEST PUSH32 0xBC7CD75A20EE27FD9ADEBAB32041F755214DBC6BFFA90CC0225B39DA2E5C2D3B DUP8 DUP1 LOG2 DUP6 DUP5 MLOAD ISZERO DUP1 ISZERO SWAP1 PUSH2 0x104D JUMPI JUMPDEST PUSH2 0xFBE JUMPI JUMPDEST POP POP POP POP POP POP DUP1 RETURN JUMPDEST DUP1 PUSH2 0x1037 SWAP7 DUP5 MLOAD SWAP7 PUSH2 0xFCF DUP9 PUSH2 0x181D JUMP JUMPDEST PUSH1 0x27 DUP9 MSTORE PUSH32 0x416464726573733A206C6F772D6C6576656C2064656C65676174652063616C6C DUP8 DUP10 ADD MSTORE PUSH7 0x819985A5B1959 PUSH1 0xCA SHL DUP7 DUP10 ADD MSTORE MLOAD SWAP1 DUP5 GAS DELEGATECALL SWAP2 RETURNDATASIZE ISZERO PUSH2 0x1043 JUMPI RETURNDATASIZE PUSH2 0x1029 PUSH2 0x1020 DUP3 PUSH2 0x185B JUMP JUMPDEST SWAP3 MLOAD SWAP3 DUP4 PUSH2 0x1839 JUMP JUMPDEST DUP2 MSTORE DUP7 DUP2 SWAP5 RETURNDATASIZE SWAP3 ADD RETURNDATACOPY PUSH2 0x1A6A JUMP JUMPDEST POP CODESIZE DUP1 DUP1 DUP1 DUP1 DUP6 PUSH2 0xFB5 JUMP JUMPDEST POP PUSH1 0x60 SWAP3 POP PUSH2 0x1A6A JUMP JUMPDEST POP PUSH1 0x1 PUSH2 0xFB0 JUMP JUMPDEST DUP4 MLOAD PUSH3 0x461BCD PUSH1 0xE5 SHL DUP2 MSTORE SWAP1 DUP2 ADD DUP6 SWAP1 MSTORE PUSH1 0x29 PUSH1 0x24 DUP3 ADD MSTORE PUSH32 0x45524331393637557067726164653A20756E737570706F727465642070726F78 PUSH1 0x44 DUP3 ADD MSTORE PUSH9 0x1A58589B1955555251 PUSH1 0xBA SHL PUSH1 0x64 DUP3 ADD MSTORE PUSH1 0x84 SWAP1 REVERT JUMPDEST SWAP1 SWAP2 POP DUP9 DUP2 DUP2 RETURNDATASIZE DUP4 GT PUSH2 0x10D6 JUMPI JUMPDEST PUSH2 0x10C2 DUP2 DUP4 PUSH2 0x1839 JUMP JUMPDEST DUP2 ADD SUB SLT PUSH2 0x10D2 JUMPI MLOAD SWAP1 CODESIZE PUSH2 0xF0A JUMP JUMPDEST DUP11 DUP1 REVERT JUMPDEST POP RETURNDATASIZE PUSH2 0x10B8 JUMP JUMPDEST POP POP CALLVALUE PUSH2 0x211 JUMPI PUSH1 0x20 CALLDATASIZE PUSH1 0x3 NOT ADD SLT PUSH2 0x211 JUMPI PUSH2 0x252 SWAP1 PUSH2 0x10FC PUSH2 0x178A JUMP JUMPDEST PUSH2 0x1104 PUSH2 0x1877 JUMP JUMPDEST PUSH1 0x1 PUSH1 0x1 PUSH1 0xA0 SHL SUB AND PUSH2 0x1118 DUP2 ISZERO ISZERO PUSH2 0x1B9E JUMP JUMPDEST DUP4 MSTORE PUSH1 0xC9 PUSH1 0x20 MSTORE DUP3 KECCAK256 PUSH1 0x6 ADD DUP1 SLOAD PUSH1 0xFF DUP2 DUP2 AND ISZERO AND PUSH1 0xFF NOT SWAP1 SWAP2 AND OR SWAP1 SSTORE JUMP JUMPDEST POP POP CALLVALUE PUSH2 0x211 JUMPI PUSH1 0x20 CALLDATASIZE PUSH1 0x3 NOT ADD SLT PUSH2 0x211 JUMPI PUSH1 0x20 SWAP2 DUP2 SWAP1 PUSH1 0x1 PUSH1 0x1 PUSH1 0xA0 SHL SUB PUSH2 0x1160 PUSH2 0x178A JUMP JUMPDEST AND DUP2 MSTORE PUSH1 0xCA DUP5 MSTORE KECCAK256 SLOAD SWAP1 MLOAD SWAP1 DUP2 MSTORE RETURN JUMPDEST DUP4 CALLVALUE PUSH2 0x319 JUMPI PUSH1 0x20 CALLDATASIZE PUSH1 0x3 NOT ADD SLT PUSH2 0x319 JUMPI PUSH2 0x118A PUSH2 0x178A JUMP JUMPDEST PUSH2 0x1192 PUSH2 0x1877 JUMP JUMPDEST PUSH1 0x1 DUP1 PUSH1 0xA0 SHL SUB AND PUSH1 0x1 PUSH1 0x1 PUSH1 0x60 SHL SUB PUSH1 0xA0 SHL PUSH1 0xCC SLOAD AND OR PUSH1 0xCC SSTORE DUP1 RETURN JUMPDEST POP POP CALLVALUE PUSH2 0x211 JUMPI DUP2 PUSH1 0x3 NOT CALLDATASIZE ADD SLT PUSH2 0x211 JUMPI PUSH2 0x11CA PUSH2 0x1877 JUMP JUMPDEST DUP2 DUP1 DUP1 DUP1 PUSH1 0x1 DUP1 PUSH1 0xA0 SHL SUB PUSH1 0x33 SLOAD AND SELFBALANCE SWAP1 DUP3 DUP3 ISZERO PUSH2 0x11F7 JUMPI JUMPDEST CALL ISZERO PUSH2 0x11ED JUMPI POP DUP1 RETURN JUMPDEST MLOAD SWAP1 RETURNDATASIZE SWAP1 DUP3 RETURNDATACOPY RETURNDATASIZE SWAP1 REVERT JUMPDEST POP PUSH2 0x8FC PUSH2 0x11E3 JUMP JUMPDEST SWAP2 SWAP1 POP CALLVALUE PUSH2 0x2A7 JUMPI PUSH1 0x20 DUP1 PUSH1 0x3 NOT CALLDATASIZE ADD SLT PUSH2 0x4E1 JUMPI PUSH2 0x121D PUSH2 0x178A JUMP JUMPDEST SWAP2 PUSH1 0x1 PUSH1 0x1 PUSH1 0xA0 SHL SUB PUSH32 0x0 DUP2 AND PUSH2 0x1255 ADDRESS DUP3 EQ ISZERO PUSH2 0x1918 JUMP JUMPDEST PUSH2 0x1272 PUSH1 0x0 DUP1 MLOAD PUSH1 0x20 PUSH2 0x1E16 DUP4 CODECOPY DUP2 MLOAD SWAP2 MSTORE SWAP2 DUP4 DUP4 SLOAD AND EQ PUSH2 0x1979 JUMP JUMPDEST PUSH2 0x127A PUSH2 0x1877 JUMP JUMPDEST DUP3 MLOAD SWAP1 DUP5 DUP3 ADD SWAP3 DUP3 DUP5 LT PUSH8 0xFFFFFFFFFFFFFFFF DUP6 GT OR PUSH2 0x13DF JUMPI DUP4 DUP6 MSTORE DUP9 DUP4 MSTORE PUSH32 0x4910FDFA16FED3260ED0E7147F7CC6DA11A60208B5B9406D12A635614FFD9143 SLOAD PUSH1 0xFF AND ISZERO PUSH2 0x12D4 JUMPI POP POP POP POP POP POP PUSH2 0x252 SWAP2 POP PUSH2 0x19DA JUMP JUMPDEST DUP7 SWAP3 SWAP4 SWAP5 SWAP6 SWAP7 AND SWAP1 DUP6 MLOAD PUSH4 0x52D1902D PUSH1 0xE0 SHL DUP2 MSTORE DUP8 DUP2 DUP11 DUP2 DUP7 GAS STATICCALL DUP11 SWAP2 DUP2 PUSH2 0x13B0 JUMPI JUMPDEST POP PUSH2 0x1356 JUMPI DUP7 MLOAD PUSH3 0x461BCD PUSH1 0xE5 SHL DUP2 MSTORE DUP1 DUP11 ADD DUP10 SWAP1 MSTORE PUSH1 0x2E PUSH1 0x24 DUP3 ADD MSTORE PUSH32 0x45524331393637557067726164653A206E657720696D706C656D656E74617469 PUSH1 0x44 DUP3 ADD MSTORE PUSH14 0x6F6E206973206E6F742055555053 PUSH1 0x90 SHL PUSH1 0x64 DUP3 ADD MSTORE PUSH1 0x84 SWAP1 REVERT JUMPDEST SWAP8 SWAP2 SWAP3 SWAP4 SWAP7 SWAP6 SWAP5 SWAP8 SUB PUSH2 0x1055 JUMPI POP PUSH2 0x136D DUP3 PUSH2 0x19DA JUMP JUMPDEST PUSH32 0xBC7CD75A20EE27FD9ADEBAB32041F755214DBC6BFFA90CC0225B39DA2E5C2D3B DUP8 DUP1 LOG2 DUP6 DUP5 MLOAD ISZERO DUP1 ISZERO SWAP1 PUSH2 0x13A9 JUMPI PUSH2 0xFBE JUMPI POP POP POP POP POP POP DUP1 RETURN JUMPDEST POP DUP1 PUSH2 0xFB0 JUMP JUMPDEST SWAP1 SWAP2 POP DUP9 DUP2 DUP2 RETURNDATASIZE DUP4 GT PUSH2 0x13D8 JUMPI JUMPDEST PUSH2 0x13C8 DUP2 DUP4 PUSH2 0x1839 JUMP JUMPDEST DUP2 ADD SUB SLT PUSH2 0x10D2 JUMPI MLOAD SWAP1 CODESIZE PUSH2 0x12F7 JUMP JUMPDEST POP RETURNDATASIZE PUSH2 0x13BE JUMP JUMPDEST PUSH4 0x4E487B71 PUSH1 0xE0 SHL DUP10 MSTORE PUSH1 0x41 DUP9 MSTORE PUSH1 0x24 DUP10 REVERT JUMPDEST POP POP CALLVALUE PUSH2 0x211 JUMPI DUP2 PUSH1 0x3 NOT CALLDATASIZE ADD SLT PUSH2 0x211 JUMPI PUSH1 0x20 SWAP1 PUSH1 0xD2 SLOAD SWAP1 MLOAD SWAP1 DUP2 MSTORE RETURN JUMPDEST SWAP1 POP CALLVALUE PUSH2 0x2A7 JUMPI PUSH1 0x20 CALLDATASIZE PUSH1 0x3 NOT ADD SLT PUSH2 0x2A7 JUMPI PUSH1 0xE0 SWAP3 DUP3 PUSH2 0x1430 PUSH2 0x178A JUMP JUMPDEST SWAP2 DUP1 PUSH1 0xC0 DUP4 MLOAD PUSH2 0x143F DUP2 PUSH2 0x17ED JUMP JUMPDEST DUP3 DUP2 MSTORE DUP3 PUSH1 0x20 DUP3 ADD MSTORE DUP3 DUP6 DUP3 ADD MSTORE DUP3 PUSH1 0x60 DUP3 ADD MSTORE DUP3 PUSH1 0x80 DUP3 ADD MSTORE DUP3 PUSH1 0xA0 DUP3 ADD MSTORE ADD MSTORE PUSH1 0x1 DUP1 PUSH1 0xA0 SHL SUB DUP1 SWAP4 AND DUP2 MSTORE PUSH1 0xC9 PUSH1 0x20 MSTORE KECCAK256 SWAP1 DUP4 MLOAD SWAP3 PUSH2 0x1480 DUP5 PUSH2 0x17ED JUMP JUMPDEST DUP2 DUP4 SLOAD AND SWAP5 DUP6 DUP6 MSTORE DUP3 PUSH1 0x1 DUP6 ADD SLOAD AND SWAP3 PUSH1 0x20 DUP7 ADD SWAP4 DUP5 MSTORE PUSH1 0x2 DUP6 ADD SLOAD SWAP1 DUP3 DUP8 ADD SWAP2 DUP3 MSTORE PUSH1 0x3 DUP7 ADD SLOAD SWAP4 PUSH1 0x60 DUP9 ADD SWAP5 DUP6 MSTORE DUP7 ADD SLOAD SWAP5 PUSH1 0x80 DUP9 ADD SWAP6 DUP7 MSTORE PUSH1 0xC0 PUSH1 0xFF PUSH1 0x6 PUSH1 0x5 DUP11 ADD SLOAD SWAP10 PUSH1 0xA0 DUP13 ADD SWAP11 DUP12 MSTORE ADD SLOAD AND SWAP9 ADD SWAP8 ISZERO ISZERO DUP9 MSTORE DUP4 MLOAD SWAP9 DUP10 MSTORE MLOAD AND PUSH1 0x20 DUP9 ADD MSTORE MLOAD SWAP1 DUP7 ADD MSTORE MLOAD PUSH1 0x60 DUP6 ADD MSTORE MLOAD PUSH1 0x80 DUP5 ADD MSTORE MLOAD PUSH1 0xA0 DUP4 ADD MSTORE MLOAD ISZERO ISZERO PUSH1 0xC0 DUP3 ADD MSTORE RETURN JUMPDEST SWAP1 POP CALLVALUE PUSH2 0x2A7 JUMPI PUSH1 0x60 CALLDATASIZE PUSH1 0x3 NOT ADD SLT PUSH2 0x2A7 JUMPI PUSH2 0x1520 PUSH2 0x178A JUMP JUMPDEST SWAP1 PUSH2 0x1529 PUSH2 0x17A5 JUMP JUMPDEST SWAP2 DUP5 SLOAD PUSH1 0xFF DUP2 PUSH1 0x8 SHR AND ISZERO SWAP3 DUP4 DUP1 SWAP5 PUSH2 0x16B9 JUMPI JUMPDEST DUP1 ISZERO PUSH2 0x16A2 JUMPI JUMPDEST ISZERO PUSH2 0x1648 JUMPI POP PUSH1 0xFF NOT DUP2 AND PUSH1 0x1 OR DUP7 SSTORE DUP3 PUSH2 0x1637 JUMPI JUMPDEST POP PUSH2 0x1574 PUSH1 0xFF DUP7 SLOAD PUSH1 0x8 SHR AND PUSH2 0x156F DUP2 PUSH2 0x1B3E JUMP JUMPDEST PUSH2 0x1B3E JUMP JUMPDEST PUSH2 0x157D CALLER PUSH2 0x18CF JUMP JUMPDEST DUP5 SLOAD SWAP3 PUSH2 0x158F PUSH1 0xFF DUP6 PUSH1 0x8 SHR AND PUSH2 0x1B3E JUMP JUMPDEST PUSH1 0x1 DUP1 PUSH1 0xA0 SHL SUB SWAP1 DUP2 PUSH1 0x1 PUSH1 0x1 PUSH1 0x60 SHL SUB PUSH1 0xA0 SHL SWAP4 AND DUP4 PUSH1 0xCC SLOAD AND OR PUSH1 0xCC SSTORE AND SWAP1 PUSH1 0xCD SLOAD AND OR PUSH1 0xCD SSTORE PUSH1 0x44 CALLDATALOAD PUSH1 0xD2 SSTORE PUSH1 0x60 DUP4 MLOAD PUSH2 0x15CB DUP2 PUSH2 0x17BB JUMP JUMPDEST PUSH2 0x3E8 DUP1 DUP3 MSTORE PUSH2 0x1F4 SWAP2 DUP3 PUSH1 0x20 DUP3 ADD MSTORE PUSH1 0x64 DUP8 DUP3 ADD MSTORE PUSH2 0x1388 SWAP4 DUP5 SWAP2 ADD MSTORE PUSH1 0xCE SSTORE PUSH1 0xCF SSTORE PUSH1 0x64 PUSH1 0xD0 SSTORE PUSH1 0xD1 SSTORE PUSH2 0x15FF JUMPI DUP3 DUP1 RETURN JUMPDEST PUSH2 0xFF00 NOT AND DUP3 SSTORE MLOAD PUSH1 0x1 DUP2 MSTORE PUSH32 0x7F26B83FF96E1F2B6A682F133852F6798A09C465DA95921460CEFB3847402498 SWAP1 PUSH1 0x20 SWAP1 LOG1 CODESIZE DUP1 DUP3 DUP1 RETURN JUMPDEST PUSH2 0xFFFF NOT AND PUSH2 0x101 OR DUP6 SSTORE CODESIZE PUSH2 0x155A JUMP JUMPDEST PUSH1 0x84 SWAP1 PUSH1 0x20 DUP8 MLOAD SWAP2 PUSH3 0x461BCD PUSH1 0xE5 SHL DUP4 MSTORE DUP3 ADD MSTORE PUSH1 0x2E PUSH1 0x24 DUP3 ADD MSTORE PUSH32 0x496E697469616C697A61626C653A20636F6E747261637420697320616C726561 PUSH1 0x44 DUP3 ADD MSTORE PUSH14 0x191E481A5B9A5D1A585B1A5E9959 PUSH1 0x92 SHL PUSH1 0x64 DUP3 ADD MSTORE REVERT JUMPDEST POP ADDRESS EXTCODESIZE ISZERO DUP1 ISZERO PUSH2 0x1544 JUMPI POP PUSH1 0x1 PUSH1 0xFF DUP4 AND EQ PUSH2 0x1544 JUMP JUMPDEST POP PUSH1 0x1 PUSH1 0xFF DUP4 AND LT PUSH2 0x153D JUMP JUMPDEST DUP4 SWAP1 CALLVALUE PUSH2 0x211 JUMPI PUSH1 0x20 CALLDATASIZE PUSH1 0x3 NOT ADD SLT PUSH2 0x211 JUMPI PUSH2 0x16E1 PUSH2 0x1877 JUMP JUMPDEST CALLDATALOAD PUSH1 0xD2 SSTORE DUP1 RETURN JUMPDEST SWAP2 SWAP1 POP CALLVALUE PUSH2 0x2A7 JUMPI PUSH1 0x80 CALLDATASIZE PUSH1 0x3 NOT ADD SLT PUSH2 0x2A7 JUMPI PUSH32 0x642A2328272D9E8F7996714D21DAD1230999171AABF9DC477FB696136713EEF8 SWAP2 CALLDATALOAD PUSH2 0x1784 PUSH1 0x24 CALLDATALOAD SWAP3 PUSH1 0x44 CALLDATALOAD PUSH1 0x64 CALLDATALOAD SWAP2 PUSH2 0x1735 PUSH2 0x1877 JUMP JUMPDEST DUP3 PUSH1 0x60 DUP3 MLOAD PUSH2 0x1743 DUP2 PUSH2 0x17BB JUMP JUMPDEST DUP8 DUP2 MSTORE DUP9 PUSH1 0x20 DUP3 ADD MSTORE DUP5 DUP5 DUP3 ADD MSTORE ADD MSTORE DUP5 PUSH1 0xCE SSTORE DUP6 PUSH1 0xCF SSTORE DUP2 PUSH1 0xD0 SSTORE DUP3 PUSH1 0xD1 SSTORE MLOAD SWAP5 DUP6 SWAP5 DUP6 SWAP1 SWAP5 SWAP4 SWAP3 PUSH1 0x60 SWAP3 PUSH1 0x80 DUP4 ADD SWAP7 DUP4 MSTORE PUSH1 0x20 DUP4 ADD MSTORE PUSH1 0x40 DUP3 ADD MSTORE ADD MSTORE JUMP JUMPDEST SUB SWAP1 LOG1 DUP1 RETURN JUMPDEST PUSH1 0x4 CALLDATALOAD SWAP1 PUSH1 0x1 PUSH1 0x1 PUSH1 0xA0 SHL SUB DUP3 AND DUP3 SUB PUSH2 0x17A0 JUMPI JUMP JUMPDEST PUSH1 0x0 DUP1 REVERT JUMPDEST PUSH1 0x24 CALLDATALOAD SWAP1 PUSH1 0x1 PUSH1 0x1 PUSH1 0xA0 SHL SUB DUP3 AND DUP3 SUB PUSH2 0x17A0 JUMPI JUMP JUMPDEST PUSH1 0x80 DUP2 ADD SWAP1 DUP2 LT PUSH8 0xFFFFFFFFFFFFFFFF DUP3 GT OR PUSH2 0x17D7 JUMPI PUSH1 0x40 MSTORE JUMP JUMPDEST PUSH4 0x4E487B71 PUSH1 0xE0 SHL PUSH1 0x0 MSTORE PUSH1 0x41 PUSH1 0x4 MSTORE PUSH1 0x24 PUSH1 0x0 REVERT JUMPDEST PUSH1 0xE0 DUP2 ADD SWAP1 DUP2 LT PUSH8 0xFFFFFFFFFFFFFFFF DUP3 GT OR PUSH2 0x17D7 JUMPI PUSH1 0x40 MSTORE JUMP JUMPDEST PUSH8 0xFFFFFFFFFFFFFFFF DUP2 GT PUSH2 0x17D7 JUMPI PUSH1 0x40 MSTORE JUMP JUMPDEST PUSH1 0x60 DUP2 ADD SWAP1 DUP2 LT PUSH8 0xFFFFFFFFFFFFFFFF DUP3 GT OR PUSH2 0x17D7 JUMPI PUSH1 0x40 MSTORE JUMP JUMPDEST SWAP1 PUSH1 0x1F DUP1 NOT SWAP2 ADD AND DUP2 ADD SWAP1 DUP2 LT PUSH8 0xFFFFFFFFFFFFFFFF DUP3 GT OR PUSH2 0x17D7 JUMPI PUSH1 0x40 MSTORE JUMP JUMPDEST PUSH8 0xFFFFFFFFFFFFFFFF DUP2 GT PUSH2 0x17D7 JUMPI PUSH1 0x1F ADD PUSH1 0x1F NOT AND PUSH1 0x20 ADD SWAP1 JUMP JUMPDEST PUSH1 0x33 SLOAD PUSH1 0x1 PUSH1 0x1 PUSH1 0xA0 SHL SUB AND CALLER SUB PUSH2 0x188B JUMPI JUMP JUMPDEST PUSH1 0x64 PUSH1 0x40 MLOAD PUSH3 0x461BCD PUSH1 0xE5 SHL DUP2 MSTORE PUSH1 0x20 PUSH1 0x4 DUP3 ADD MSTORE PUSH1 0x20 PUSH1 0x24 DUP3 ADD MSTORE PUSH32 0x4F776E61626C653A2063616C6C6572206973206E6F7420746865206F776E6572 PUSH1 0x44 DUP3 ADD MSTORE REVERT JUMPDEST PUSH1 0x33 DUP1 SLOAD PUSH1 0x1 PUSH1 0x1 PUSH1 0xA0 SHL SUB SWAP3 DUP4 AND PUSH1 0x1 PUSH1 0x1 PUSH1 0xA0 SHL SUB NOT DUP3 AND DUP2 OR SWAP1 SWAP3 SSTORE SWAP1 SWAP2 AND PUSH32 0x8BE0079C531659141344CD1FD0A4F28419497F9722A3DAAFE3B4186F6B6457E0 PUSH1 0x0 DUP1 LOG3 JUMP JUMPDEST ISZERO PUSH2 0x191F JUMPI JUMP JUMPDEST PUSH1 0x40 MLOAD PUSH3 0x461BCD PUSH1 0xE5 SHL DUP2 MSTORE PUSH1 0x20 PUSH1 0x4 DUP3 ADD MSTORE PUSH1 0x2C PUSH1 0x24 DUP3 ADD MSTORE PUSH32 0x46756E6374696F6E206D7573742062652063616C6C6564207468726F75676820 PUSH1 0x44 DUP3 ADD MSTORE PUSH12 0x19195B1959D85D1958D85B1B PUSH1 0xA2 SHL PUSH1 0x64 DUP3 ADD MSTORE PUSH1 0x84 SWAP1 REVERT JUMPDEST ISZERO PUSH2 0x1980 JUMPI JUMP JUMPDEST PUSH1 0x40 MLOAD PUSH3 0x461BCD PUSH1 0xE5 SHL DUP2 MSTORE PUSH1 0x20 PUSH1 0x4 DUP3 ADD MSTORE PUSH1 0x2C PUSH1 0x24 DUP3 ADD MSTORE PUSH32 0x46756E6374696F6E206D7573742062652063616C6C6564207468726F75676820 PUSH1 0x44 DUP3 ADD MSTORE PUSH12 0x6163746976652070726F7879 PUSH1 0xA0 SHL PUSH1 0x64 DUP3 ADD MSTORE PUSH1 0x84 SWAP1 REVERT JUMPDEST DUP1 EXTCODESIZE ISZERO PUSH2 0x1A0F JUMPI PUSH1 0x0 DUP1 MLOAD PUSH1 0x20 PUSH2 0x1E16 DUP4 CODECOPY DUP2 MLOAD SWAP2 MSTORE DUP1 SLOAD PUSH1 0x1 PUSH1 0x1 PUSH1 0xA0 SHL SUB NOT AND PUSH1 0x1 PUSH1 0x1 PUSH1 0xA0 SHL SUB SWAP1 SWAP3 AND SWAP2 SWAP1 SWAP2 OR SWAP1 SSTORE JUMP JUMPDEST PUSH1 0x40 MLOAD PUSH3 0x461BCD PUSH1 0xE5 SHL DUP2 MSTORE PUSH1 0x20 PUSH1 0x4 DUP3 ADD MSTORE PUSH1 0x2D PUSH1 0x24 DUP3 ADD MSTORE PUSH32 0x455243313936373A206E657720696D706C656D656E746174696F6E206973206E PUSH1 0x44 DUP3 ADD MSTORE PUSH13 0x1BDD08184818DBDB9D1C9858DD PUSH1 0x9A SHL PUSH1 0x64 DUP3 ADD MSTORE PUSH1 0x84 SWAP1 REVERT JUMPDEST SWAP2 SWAP3 SWAP1 ISZERO PUSH2 0x1ACC JUMPI POP DUP2 MLOAD ISZERO PUSH2 0x1A7E JUMPI POP SWAP1 JUMP JUMPDEST EXTCODESIZE ISZERO PUSH2 0x1A87 JUMPI SWAP1 JUMP JUMPDEST PUSH1 0x40 MLOAD PUSH3 0x461BCD PUSH1 0xE5 SHL DUP2 MSTORE PUSH1 0x20 PUSH1 0x4 DUP3 ADD MSTORE PUSH1 0x1D PUSH1 0x24 DUP3 ADD MSTORE PUSH32 0x416464726573733A2063616C6C20746F206E6F6E2D636F6E7472616374000000 PUSH1 0x44 DUP3 ADD MSTORE PUSH1 0x64 SWAP1 REVERT JUMPDEST DUP3 MLOAD SWAP1 SWAP2 POP ISZERO PUSH2 0x1ADF JUMPI POP DUP1 MLOAD SWAP1 PUSH1 0x20 ADD REVERT JUMPDEST PUSH1 0x40 MLOAD SWAP1 PUSH3 0x461BCD PUSH1 0xE5 SHL DUP3 MSTORE DUP2 PUSH1 0x20 DUP1 PUSH1 0x4 DUP4 ADD MSTORE DUP3 MLOAD SWAP1 DUP2 PUSH1 0x24 DUP5 ADD MSTORE PUSH1 0x0 SWAP4 JUMPDEST DUP3 DUP6 LT PUSH2 0x1B25 JUMPI POP POP PUSH1 0x44 SWAP3 POP PUSH1 0x0 DUP4 DUP3 DUP5 ADD ADD MSTORE PUSH1 0x1F DUP1 NOT SWAP2 ADD AND DUP2 ADD SUB ADD SWAP1 REVERT JUMPDEST DUP5 DUP2 ADD DUP3 ADD MLOAD DUP7 DUP7 ADD PUSH1 0x44 ADD MSTORE SWAP4 DUP2 ADD SWAP4 DUP6 SWAP4 POP PUSH2 0x1B02 JUMP JUMPDEST ISZERO PUSH2 0x1B45 JUMPI JUMP JUMPDEST PUSH1 0x40 MLOAD PUSH3 0x461BCD PUSH1 0xE5 SHL DUP2 MSTORE PUSH1 0x20 PUSH1 0x4 DUP3 ADD MSTORE PUSH1 0x2B PUSH1 0x24 DUP3 ADD MSTORE PUSH32 0x496E697469616C697A61626C653A20636F6E7472616374206973206E6F742069 PUSH1 0x44 DUP3 ADD MSTORE PUSH11 0x6E697469616C697A696E67 PUSH1 0xA8 SHL PUSH1 0x64 DUP3 ADD MSTORE PUSH1 0x84 SWAP1 REVERT JUMPDEST ISZERO PUSH2 0x1BA5 JUMPI JUMP JUMPDEST PUSH1 0x40 MLOAD PUSH3 0x461BCD PUSH1 0xE5 SHL DUP2 MSTORE PUSH1 0x20 PUSH1 0x4 DUP3 ADD MSTORE PUSH1 0x16 PUSH1 0x24 DUP3 ADD MSTORE PUSH22 0x125B9D985B1A59081D1BDAD95B8818DBDB9D1C9858DD PUSH1 0x52 SHL PUSH1 0x44 DUP3 ADD MSTORE PUSH1 0x64 SWAP1 REVERT JUMPDEST ISZERO PUSH2 0x1BEA JUMPI JUMP JUMPDEST PUSH1 0x40 MLOAD PUSH3 0x461BCD PUSH1 0xE5 SHL DUP2 MSTORE PUSH1 0x20 PUSH1 0x4 DUP3 ADD MSTORE PUSH1 0x10 PUSH1 0x24 DUP3 ADD MSTORE PUSH16 0x546F6B656E206E6F7420616374697665 PUSH1 0x80 SHL PUSH1 0x44 DUP3 ADD MSTORE PUSH1 0x64 SWAP1 REVERT JUMPDEST SWAP2 SWAP1 DUP3 ADD DUP1 SWAP3 GT PUSH2 0x1C2F JUMPI JUMP JUMPDEST PUSH4 0x4E487B71 PUSH1 0xE0 SHL PUSH1 0x0 MSTORE PUSH1 0x11 PUSH1 0x4 MSTORE PUSH1 0x24 PUSH1 0x0 REVERT JUMPDEST DUP2 DUP2 MUL SWAP3 SWAP2 DUP2 ISZERO SWAP2 DUP5 DIV EQ OR ISZERO PUSH2 0x1C2F JUMPI JUMP JUMPDEST DUP2 ISZERO PUSH2 0x1C62 JUMPI DIV SWAP1 JUMP JUMPDEST PUSH4 0x4E487B71 PUSH1 0xE0 SHL PUSH1 0x0 MSTORE PUSH1 0x12 PUSH1 0x4 MSTORE PUSH1 0x24 PUSH1 0x0 REVERT JUMPDEST SWAP2 SWAP1 DUP3 SUB SWAP2 DUP3 GT PUSH2 0x1C2F JUMPI JUMP JUMPDEST PUSH1 0x1 PUSH1 0x1 PUSH1 0xA0 SHL SUB AND PUSH1 0x0 SWAP1 DUP2 MSTORE PUSH1 0xC9 PUSH1 0x20 MSTORE PUSH1 0x40 DUP2 KECCAK256 PUSH1 0x6 DUP2 ADD SLOAD SWAP1 SWAP2 SWAP1 PUSH1 0xFF AND ISZERO PUSH2 0x1D49 JUMPI PUSH1 0x3 DUP3 ADD SLOAD SWAP1 PUSH8 0xDE0B6B3A7640000 SWAP2 DUP3 DUP2 MUL SWAP1 DUP1 DUP3 DIV DUP5 EQ SWAP1 ISZERO OR ISZERO PUSH2 0x1D35 JUMPI PUSH2 0x1CEC PUSH2 0x1CE3 PUSH3 0xF4240 SWAP3 PUSH1 0x2 DUP8 ADD SLOAD SWAP1 PUSH2 0x1C58 JUMP JUMPDEST PUSH1 0xCE SLOAD SWAP1 PUSH2 0x1C45 JUMP JUMPDEST DIV DUP3 ADD DUP1 SWAP3 GT PUSH2 0x1D21 JUMPI POP DUP2 PUSH2 0x1D18 PUSH2 0x1D1D SWAP3 PUSH1 0x4 PUSH1 0x5 PUSH9 0x3635C9ADC5DEA00000 SWAP7 ADD SLOAD SWAP4 ADD SLOAD PUSH2 0x1C45 JUMP JUMPDEST PUSH2 0x1C45 JUMP JUMPDEST DIV SWAP1 JUMP JUMPDEST PUSH4 0x4E487B71 PUSH1 0xE0 SHL DUP2 MSTORE PUSH1 0x11 PUSH1 0x4 MSTORE PUSH1 0x24 SWAP1 REVERT JUMPDEST PUSH4 0x4E487B71 PUSH1 0xE0 SHL DUP3 MSTORE PUSH1 0x11 PUSH1 0x4 MSTORE PUSH1 0x24 DUP3 REVERT JUMPDEST SWAP1 POP SWAP1 JUMP JUMPDEST PUSH1 0x1 PUSH1 0x1 PUSH1 0xA0 SHL SUB DUP2 AND PUSH1 0x0 SWAP1 DUP2 MSTORE PUSH1 0xC9 PUSH1 0x20 MSTORE PUSH1 0x40 SWAP1 KECCAK256 PUSH1 0x6 ADD SLOAD PUSH1 0xFF AND ISZERO PUSH2 0x1DBC JUMPI PUSH2 0x1D7B SWAP1 PUSH2 0x1C85 JUMP JUMPDEST SWAP1 PUSH8 0xDE0B6B3A7640000 SWAP1 DUP2 DUP2 MUL SWAP2 DUP2 DUP4 DIV EQ SWAP1 ISZERO OR ISZERO PUSH2 0x1C2F JUMPI PUSH2 0x1DB9 SWAP2 PUSH2 0x1DA3 SWAP2 PUSH2 0x1C58 JUMP JUMPDEST PUSH2 0x2710 PUSH2 0x1DB2 PUSH1 0xD0 SLOAD DUP4 PUSH2 0x1C45 JUMP JUMPDEST DIV SWAP1 PUSH2 0x1C78 JUMP JUMPDEST SWAP1 JUMP JUMPDEST POP POP PUSH1 0x0 SWAP1 JUMP JUMPDEST SWAP1 PUSH1 0x1 DUP1 PUSH1 0xA0 SHL SUB DUP3 AND PUSH1 0x0 MSTORE PUSH1 0xC9 PUSH1 0x20 MSTORE PUSH1 0xFF PUSH1 0x6 PUSH1 0x40 PUSH1 0x0 KECCAK256 ADD SLOAD AND ISZERO PUSH2 0x1DBC JUMPI PUSH2 0x1E05 PUSH8 0xDE0B6B3A7640000 SWAP2 PUSH2 0x1DFF PUSH2 0x1DB9 SWAP5 PUSH2 0x1C85 JUMP JUMPDEST SWAP1 PUSH2 0x1C45 JUMP JUMPDEST DIV PUSH2 0x2710 PUSH2 0x1DB2 PUSH1 0xD0 SLOAD DUP4 PUSH2 0x1C45 JUMP INVALID CALLDATASIZE ADDMOD SWAP5 LOG1 EXTCODESIZE LOG1 LOG3 0x21 MOD PUSH8 0xC828492DB98DCA3E KECCAK256 PUSH23 0xCC3735A920A3CA505D382BBCA26469706673582212206F SWAP10 0xC6 NOT 0xD2 SHR 0x27 SGT SWAP4 0xBD DELEGATECALL BYTE PUSH7 0x432716C9B46220 RETURNDATACOPY CHAINID AND PUSH23 0x4F5BB0D51103474264736F6C6343000811003300000000 "},"gasEstimates":{"creation":{"codeDepositCost":"1557400","executionCost":"infinite","totalCost":"infinite"},"external":{"astrologerManager()":"2648","bondingCurve()":"9289","buyTokens(address)":"infinite","calculateBuyAmount(address,uint256)":"infinite","calculateSellAmount(address,uint256)":"infinite","getCurrentPrice(address)":"infinite","getTokenInfo(address)":"infinite","getUserBalance(address)":"2646","getUserContribution(address)":"2954","initialize(address,address,uint256)":"infinite","owner()":"2736","platformFee()":"2407","predictionCredibilityManager()":"2780","proxiableUUID()":"infinite","registerToken(address,address,uint256,uint256)":"147577","renounceOwnership()":"28453","reputationScorer()":"2692","sellTokens(address,uint256)":"infinite","setAstrologerManager(address)":"26832","setBondingCurve(uint256,uint256,uint256,uint256)":"92805","setPlatformFee(uint256)":"24463","setPredictionCredibilityManager(address)":"27096","setReputationScorer(address)":"27228","toggleTokenActive(address)":"27016","tokenInfos(address)":"15722","totalVolume()":"2605","transferOwnership(address)":"28921","updateCredibility(address,uint256)":"29111","upgradeTo(address)":"infinite","upgradeToAndCall(address,bytes)":"infinite","userBalances(address)":"2536","userContributions(address)":"2448","withdraw()":"infinite"},"internal":{"_authorizeUpgrade(address)":"infinite"}},"methodIdentifiers":{"astrologerManager()":"6fd31a41","bondingCurve()":"eff1d50e","buyTokens(address)":"ec8ac4d8","calculateBuyAmount(address,uint256)":"f2f2c5c4","calculateSellAmount(address,uint256)":"573a5b6b","getCurrentPrice(address)":"84cc315b","getTokenInfo(address)":"1f69565f","getUserBalance(address)":"47734892","getUserContribution(address)":"bb8b2b47","initialize(address,address,uint256)":"1794bb3c","owner()":"8da5cb5b","platformFee()":"26232a2e","predictionCredibilityManager()":"b76d03b2","proxiableUUID()":"52d1902d","registerToken(address,address,uint256,uint256)":"cea9f4b5","renounceOwnership()":"715018a6","reputationScorer()":"73c84d21","sellTokens(address,uint256)":"c464fe65","setAstrologerManager(address)":"44cda485","setBondingCurve(uint256,uint256,uint256,uint256)":"078bfd9b","setPlatformFee(uint256)":"12e8e2c3","setPredictionCredibilityManager(address)":"b0d485b3","setReputationScorer(address)":"e9725c21","toggleTokenActive(address)":"4f1d052d","tokenInfos(address)":"ba46ae72","totalVolume()":"5f81a57c","transferOwnership(address)":"f2fde38b","updateCredibility(address,uint256)":"f6322a5f","upgradeTo(address)":"3659cfe6","upgradeToAndCall(address,bytes)":"4f1ef286","userBalances(address)":"26224c64","userContributions(address)":"0f6ca1a8","withdraw()":"3ccfd60b"}},"storageLayout":{"storage":[{"astId":503,"contract":"contracts/BuyTokenContract.sol:BuyTokenContract","label":"_initialized","offset":0,"slot":"0","type":"t_uint8"},{"astId":506,"contract":"contracts/BuyTokenContract.sol:BuyTokenContract","label":"_initializing","offset":1,"slot":"0","type":"t_bool"},{"astId":2363,"contract":"contracts/BuyTokenContract.sol:BuyTokenContract","label":"__gap","offset":0,"slot":"1","type":"t_array(t_uint256)50_storage"},{"astId":10,"contract":"contracts/BuyTokenContract.sol:BuyTokenContract","label":"_owner","offset":0,"slot":"51","type":"t_address"},{"astId":130,"contract":"contracts/BuyTokenContract.sol:BuyTokenContract","label":"__gap","offset":0,"slot":"52","type":"t_array(t_uint256)49_storage"},{"astId":485,"contract":"contracts/BuyTokenContract.sol:BuyTokenContract","label":"__gap","offset":0,"slot":"101","type":"t_array(t_uint256)50_storage"},{"astId":800,"contract":"contracts/BuyTokenContract.sol:BuyTokenContract","label":"__gap","offset":0,"slot":"151","type":"t_array(t_uint256)50_storage"},{"astId":3767,"contract":"contracts/BuyTokenContract.sol:BuyTokenContract","label":"tokenInfos","offset":0,"slot":"201","type":"t_mapping(t_address,t_struct(TokenInfo)3753_storage)"},{"astId":3771,"contract":"contracts/BuyTokenContract.sol:BuyTokenContract","label":"userBalances","offset":0,"slot":"202","type":"t_mapping(t_address,t_uint256)"},{"astId":3775,"contract":"contracts/BuyTokenContract.sol:BuyTokenContract","label":"userContributions","offset":0,"slot":"203","type":"t_mapping(t_address,t_uint256)"},{"astId":3777,"contract":"contracts/BuyTokenContract.sol:BuyTokenContract","label":"astrologerManager","offset":0,"slot":"204","type":"t_address"},{"astId":3779,"contract":"contracts/BuyTokenContract.sol:BuyTokenContract","label":"predictionCredibilityManager","offset":0,"slot":"205","type":"t_address"},{"astId":3782,"contract":"contracts/BuyTokenContract.sol:BuyTokenContract","label":"bondingCurve","offset":0,"slot":"206","type":"t_struct(BondingCurve)3762_storage"},{"astId":3784,"contract":"contracts/BuyTokenContract.sol:BuyTokenContract","label":"platformFee","offset":0,"slot":"210","type":"t_uint256"},{"astId":3786,"contract":"contracts/BuyTokenContract.sol:BuyTokenContract","label":"totalVolume","offset":0,"slot":"211","type":"t_uint256"},{"astId":3788,"contract":"contracts/BuyTokenContract.sol:BuyTokenContract","label":"reputationScorer","offset":0,"slot":"212","type":"t_address"}],"types":{"t_address":{"encoding":"inplace","label":"address","numberOfBytes":"20"},"t_array(t_uint256)49_storage":{"base":"t_uint256","encoding":"inplace","label":"uint256[49]","numberOfBytes":"1568"},"t_array(t_uint256)50_storage":{"base":"t_uint256","encoding":"inplace","label":"uint256[50]","numberOfBytes":"1600"},"t_bool":{"encoding":"inplace","label":"bool","numberOfBytes":"1"},"t_mapping(t_address,t_struct(TokenInfo)3753_storage)":{"encoding":"mapping","key":"t_address","label":"mapping(address => struct BuyTokenContract.TokenInfo)","numberOfBytes":"32","value":"t_struct(TokenInfo)3753_storage"},"t_mapping(t_address,t_uint256)":{"encoding":"mapping","key":"t_address","label":"mapping(address => uint256)","numberOfBytes":"32","value":"t_uint256"},"t_struct(BondingCurve)3762_storage":{"encoding":"inplace","label":"struct BuyTokenContract.BondingCurve","members":[{"astId":3755,"contract":"contracts/BuyTokenContract.sol:BuyTokenContract","label":"k","offset":0,"slot":"0","type":"t_uint256"},{"astId":3757,"contract":"contracts/BuyTokenContract.sol:BuyTokenContract","label":"reserveRatio","offset":0,"slot":"1","type":"t_uint256"},{"astId":3759,"contract":"contracts/BuyTokenContract.sol:BuyTokenContract","label":"slippageTolerance","offset":0,"slot":"2","type":"t_uint256"},{"astId":3761,"contract":"contracts/BuyTokenContract.sol:BuyTokenContract","label":"maxReputationMultiplier","offset":0,"slot":"3","type":"t_uint256"}],"numberOfBytes":"128"},"t_struct(TokenInfo)3753_storage":{"encoding":"inplace","label":"struct BuyTokenContract.TokenInfo","members":[{"astId":3740,"contract":"contracts/BuyTokenContract.sol:BuyTokenContract","label":"tokenContract","offset":0,"slot":"0","type":"t_address"},{"astId":3742,"contract":"contracts/BuyTokenContract.sol:BuyTokenContract","label":"astrologer","offset":0,"slot":"1","type":"t_address"},{"astId":3744,"contract":"contracts/BuyTokenContract.sol:BuyTokenContract","label":"totalSupply","offset":0,"slot":"2","type":"t_uint256"},{"astId":3746,"contract":"contracts/BuyTokenContract.sol:BuyTokenContract","label":"circulatingSupply","offset":0,"slot":"3","type":"t_uint256"},{"astId":3748,"contract":"contracts/BuyTokenContract.sol:BuyTokenContract","label":"basePrice","offset":0,"slot":"4","type":"t_uint256"},{"astId":3750,"contract":"contracts/BuyTokenContract.sol:BuyTokenContract","label":"credibilityMultiplier","offset":0,"slot":"5","type":"t_uint256"},{"astId":3752,"contract":"contracts/BuyTokenContract.sol:BuyTokenContract","label":"isActive","offset":0,"slot":"6","type":"t_bool"}],"numberOfBytes":"224"},"t_uint256":{"encoding":"inplace","label":"uint256","numberOfBytes":"32"},"t_uint8":{"encoding":"inplace","label":"uint8","numberOfBytes":"1"}}},"userdoc":{"kind":"user","methods":{},"version":1}}}}