{"contracts/AstroTokenLauncher.sol":{"AstroTokenLauncher":{"abi":[{"inputs":[],"stateMutability":"nonpayable","type":"constructor"},{"anonymous":false,"inputs":[{"indexed":false,"internalType":"address","name":"previousAdmin","type":"address"},{"indexed":false,"internalType":"address","name":"newAdmin","type":"address"}],"name":"AdminChanged","type":"event"},{"anonymous":false,"inputs":[{"indexed":true,"internalType":"address","name":"beacon","type":"address"}],"name":"BeaconUpgraded","type":"event"},{"anonymous":false,"inputs":[{"indexed":false,"internalType":"uint8","name":"version","type":"uint8"}],"name":"Initialized","type":"event"},{"anonymous":false,"inputs":[{"indexed":true,"internalType":"address","name":"previousOwner","type":"address"},{"indexed":true,"internalType":"address","name":"newOwner","type":"address"}],"name":"OwnershipTransferred","type":"event"},{"anonymous":false,"inputs":[{"indexed":true,"internalType":"uint256","name":"tokenId","type":"uint256"},{"indexed":true,"internalType":"address","name":"astrologer","type":"address"}],"name":"TokenDeactivated","type":"event"},{"anonymous":false,"inputs":[{"indexed":true,"internalType":"uint256","name":"tokenId","type":"uint256"},{"indexed":true,"internalType":"address","name":"astrologer","type":"address"},{"indexed":false,"internalType":"address","name":"tokenContract","type":"address"},{"indexed":false,"internalType":"address","name":"buyContract","type":"address"},{"indexed":false,"internalType":"string","name":"name","type":"string"},{"indexed":false,"internalType":"string","name":"symbol","type":"string"}],"name":"TokenLaunched","type":"event"},{"anonymous":false,"inputs":[{"indexed":true,"internalType":"address","name":"implementation","type":"address"}],"name":"Upgraded","type":"event"},{"inputs":[],"name":"astrologerManager","outputs":[{"internalType":"address","name":"","type":"address"}],"stateMutability":"view","type":"function"},{"inputs":[{"internalType":"address","name":"","type":"address"}],"name":"astrologerToTokenId","outputs":[{"internalType":"uint256","name":"","type":"uint256"}],"stateMutability":"view","type":"function"},{"inputs":[{"internalType":"uint256","name":"tokenId","type":"uint256"}],"name":"deactivateToken","outputs":[],"stateMutability":"nonpayable","type":"function"},{"inputs":[],"name":"getAllActiveTokens","outputs":[{"internalType":"uint256[]","name":"","type":"uint256[]"}],"stateMutability":"view","type":"function"},{"inputs":[{"internalType":"address","name":"astrologer","type":"address"}],"name":"getTokenByAstrologer","outputs":[{"components":[{"internalType":"uint256","name":"id","type":"uint256"},{"internalType":"address","name":"astrologer","type":"address"},{"internalType":"address","name":"tokenContract","type":"address"},{"internalType":"address","name":"buyContract","type":"address"},{"internalType":"string","name":"name","type":"string"},{"internalType":"string","name":"symbol","type":"string"},{"internalType":"uint256","name":"totalSupply","type":"uint256"},{"internalType":"uint256","name":"initialPrice","type":"uint256"},{"internalType":"bool","name":"isActive","type":"bool"},{"internalType":"uint256","name":"createdAt","type":"uint256"}],"internalType":"struct AstroTokenLauncher.TokenInfo","name":"","type":"tuple"}],"stateMutability":"view","type":"function"},{"inputs":[{"internalType":"address","name":"tokenContract","type":"address"}],"name":"getTokenByContract","outputs":[{"components":[{"internalType":"uint256","name":"id","type":"uint256"},{"internalType":"address","name":"astrologer","type":"address"},{"internalType":"address","name":"tokenContract","type":"address"},{"internalType":"address","name":"buyContract","type":"address"},{"internalType":"string","name":"name","type":"string"},{"internalType":"string","name":"symbol","type":"string"},{"internalType":"uint256","name":"totalSupply","type":"uint256"},{"internalType":"uint256","name":"initialPrice","type":"uint256"},{"internalType":"bool","name":"isActive","type":"bool"},{"internalType":"uint256","name":"createdAt","type":"uint256"}],"internalType":"struct AstroTokenLauncher.TokenInfo","name":"","type":"tuple"}],"stateMutability":"view","type":"function"},{"inputs":[{"internalType":"uint256","name":"tokenId","type":"uint256"}],"name":"getTokenInfo","outputs":[{"components":[{"internalType":"uint256","name":"id","type":"uint256"},{"internalType":"address","name":"astrologer","type":"address"},{"internalType":"address","name":"tokenContract","type":"address"},{"internalType":"address","name":"buyContract","type":"address"},{"internalType":"string","name":"name","type":"string"},{"internalType":"string","name":"symbol","type":"string"},{"internalType":"uint256","name":"totalSupply","type":"uint256"},{"internalType":"uint256","name":"initialPrice","type":"uint256"},{"internalType":"bool","name":"isActive","type":"bool"},{"internalType":"uint256","name":"createdAt","type":"uint256"}],"internalType":"struct AstroTokenLauncher.TokenInfo","name":"","type":"tuple"}],"stateMutability":"view","type":"function"},{"inputs":[{"internalType":"address","name":"_astrologerManager","type":"address"},{"internalType":"address","name":"_tokenFactory","type":"address"},{"internalType":"uint256","name":"_launchFee","type":"uint256"}],"name":"initialize","outputs":[],"stateMutability":"nonpayable","type":"function"},{"inputs":[],"name":"launchFee","outputs":[{"internalType":"uint256","name":"","type":"uint256"}],"stateMutability":"view","type":"function"},{"inputs":[{"internalType":"string","name":"_name","type":"string"},{"internalType":"string","name":"_symbol","type":"string"},{"internalType":"uint256","name":"_totalSupply","type":"uint256"},{"internalType":"uint256","name":"_initialPrice","type":"uint256"},{"internalType":"string","name":"_description","type":"string"}],"name":"launchToken","outputs":[{"internalType":"uint256","name":"","type":"uint256"}],"stateMutability":"payable","type":"function"},{"inputs":[],"name":"owner","outputs":[{"internalType":"address","name":"","type":"address"}],"stateMutability":"view","type":"function"},{"inputs":[],"name":"proxiableUUID","outputs":[{"internalType":"bytes32","name":"","type":"bytes32"}],"stateMutability":"view","type":"function"},{"inputs":[],"name":"renounceOwnership","outputs":[],"stateMutability":"nonpayable","type":"function"},{"inputs":[{"internalType":"address","name":"_astrologerManager","type":"address"}],"name":"setAstrologerManager","outputs":[],"stateMutability":"nonpayable","type":"function"},{"inputs":[{"internalType":"uint256","name":"_launchFee","type":"uint256"}],"name":"setLaunchFee","outputs":[],"stateMutability":"nonpayable","type":"function"},{"inputs":[{"internalType":"address","name":"_tokenFactory","type":"address"}],"name":"setTokenFactory","outputs":[],"stateMutability":"nonpayable","type":"function"},{"inputs":[{"internalType":"address","name":"","type":"address"}],"name":"tokenContractToId","outputs":[{"internalType":"uint256","name":"","type":"uint256"}],"stateMutability":"view","type":"function"},{"inputs":[],"name":"tokenFactory","outputs":[{"internalType":"address","name":"","type":"address"}],"stateMutability":"view","type":"function"},{"inputs":[{"internalType":"uint256","name":"","type":"uint256"}],"name":"tokens","outputs":[{"internalType":"uint256","name":"id","type":"uint256"},{"internalType":"address","name":"astrologer","type":"address"},{"internalType":"address","name":"tokenContract","type":"address"},{"internalType":"address","name":"buyContract","type":"address"},{"internalType":"string","name":"name","type":"string"},{"internalType":"string","name":"symbol","type":"string"},{"internalType":"uint256","name":"totalSupply","type":"uint256"},{"internalType":"uint256","name":"initialPrice","type":"uint256"},{"internalType":"bool","name":"isActive","type":"bool"},{"internalType":"uint256","name":"createdAt","type":"uint256"}],"stateMutability":"view","type":"function"},{"inputs":[{"internalType":"address","name":"newOwner","type":"address"}],"name":"transferOwnership","outputs":[],"stateMutability":"nonpayable","type":"function"},{"inputs":[{"internalType":"address","name":"newImplementation","type":"address"}],"name":"upgradeTo","outputs":[],"stateMutability":"nonpayable","type":"function"},{"inputs":[{"internalType":"address","name":"newImplementation","type":"address"},{"internalType":"bytes","name":"data","type":"bytes"}],"name":"upgradeToAndCall","outputs":[],"stateMutability":"payable","type":"function"},{"inputs":[],"name":"withdraw","outputs":[],"stateMutability":"nonpayable","type":"function"}],"devdoc":{"kind":"dev","methods":{"constructor":{"custom:oz-upgrades-unsafe-allow":"constructor"},"owner()":{"details":"Returns the address of the current owner."},"proxiableUUID()":{"details":"Implementation of the ERC1822 {proxiableUUID} function. This returns the storage slot used by the implementation. It is used to validate the implementation's compatibility when performing an upgrade. IMPORTANT: A proxy pointing at a proxiable contract should not be considered proxiable itself, because this risks bricking a proxy that upgrades to it, by delegating to itself until out of gas. Thus it is critical that this function revert if invoked through a proxy. This is guaranteed by the `notDelegated` modifier."},"renounceOwnership()":{"details":"Leaves the contract without owner. It will not be possible to call `onlyOwner` functions. Can only be called by the current owner. NOTE: Renouncing ownership will leave the contract without an owner, thereby disabling any functionality that is only available to the owner."},"transferOwnership(address)":{"details":"Transfers ownership of the contract to a new account (`newOwner`). Can only be called by the current owner."},"upgradeTo(address)":{"custom:oz-upgrades-unsafe-allow-reachable":"delegatecall","details":"Upgrade the implementation of the proxy to `newImplementation`. Calls {_authorizeUpgrade}. Emits an {Upgraded} event."},"upgradeToAndCall(address,bytes)":{"custom:oz-upgrades-unsafe-allow-reachable":"delegatecall","details":"Upgrade the implementation of the proxy to `newImplementation`, and subsequently execute the function call encoded in `data`. Calls {_authorizeUpgrade}. Emits an {Upgraded} event."}},"version":1},"evm":{"bytecode":{"linkReferences":{},"object":"60a080604052346100dc57306080526000549060ff8260081c1661008a575060ff8082160361004f575b60405161205590816100e28239608051818181610e730152818161104001526114510152f35b60ff90811916176000557f7f26b83ff96e1f2b6a682f133852f6798a09c465da95921460cefb3847402498602060405160ff8152a138610029565b62461bcd60e51b815260206004820152602760248201527f496e697469616c697a61626c653a20636f6e747261637420697320696e697469604482015266616c697a696e6760c81b6064820152608490fd5b600080fdfe608080604052600436101561001357600080fd5b60003560e01c9081631794bb3c146117735750806321dd6760146117395780632f73a9f8146116f657806336203131146116bc5780633659cfe61461142c5780633ccfd60b146113e857806342fbbf4f146112f357806344cda485146112b05780634f1ef28614610ff25780634f64b2be14610f2457806352d1902d14610e605780635313be2c14610e3f5780636fd31a4114610e16578063715018a614610db95780638c7a63ae14610d235780638d84289e14610cd95780638da5cb5b14610cb0578063922edb3414610bc5578063ad19748b1461031f578063cf3cf57314610301578063e77772fe146102d8578063ec991da9146101b05763f2fde38b1461011c57600080fd5b346101ab5760203660031901126101ab57610135611901565b61013d611b98565b6001600160a01b038116156101575761015590611bf0565b005b60405162461bcd60e51b815260206004820152602660248201527f4f776e61626c653a206e6577206f776e657220697320746865207a65726f206160448201526564647265737360d01b6064820152608490fd5b600080fd5b346101ab576020806003193601126101ab5760043590811515806102cc575b6101d890611e9c565b600082815260ca825260409020600101546001600160a01b03163303610296578160005260ca815260ff60086040600020015416156102525760ca908260005252600860406000200160ff19815416905533907fc5bc70dcbaa7453c88acb052849608a31643ca7b9865b086176cfc8fa995720b600080a3005b6064906040519062461bcd60e51b82526004820152601960248201527f546f6b656e20616c7265616479206465616374697661746564000000000000006044820152fd5b6064906040519062461bcd60e51b82526004820152600f60248201526e2737ba103a37b5b2b71037bbb732b960891b6044820152fd5b5060c9548211156101cf565b346101ab5760003660031901126101ab5760ce546040516001600160a01b039091168152602090f35b346101ab5760003660031901126101ab57602060cf54604051908152f35b60a03660031901126101ab576004356001600160401b0381116101ab5761034a903690600401611b7a565b6024356001600160401b0381116101ab57610369903690600401611b7a565b6084356001600160401b0381116101ab57610388903690600401611b7a565b5060cf543410610b8057815115610b4457805115610b065760443515610ab55760643515610a64573360005260cb602052604060002054610a1f5760cd546001600160a01b031680610966575b5060c980546001019081905560ce5460408051630cb8743b60e21b815260a06004820152949293929185906001600160a01b03168160008161042f61041d60a4830189611aa1565b82810360031901602484015289611aa1565b6044356044830152606435606483015233608483015203925af19081156107475760009460009261091d575b5060405161046881611917565b8481523360208083019182526001600160a01b038881166040808601918252878316606087019081526080870188815260a088018b905260443560c089015260643560e089015260016101008901819052426101208a015260008d815260ca9097529290952087518155955191860180549285166001600160a01b031993841617905591516002860180549185169183169190911790559051600385018054919093169116179055518051919291906001600160401b03821161073157819061053460048601546119c1565b601f81116108ca575b50602090601f83116001146108585760009261084d575b50508160011b916000199060031b1c19161760048301555b60a08101518051906001600160401b0382116107315761058f60058501546119c1565b601f8111610806575b50602090601f83116001146107905791806009949261012094600092610785575b50508160011b916000199060031b1c19161760058501555b60c0810151600685015560e0810151600785015560088401610100820151151560ff8019835416911617905501519101553360005260cb6020528360406000205560018060a01b03851660005260cc6020528360406000205560018060a01b0360cd5416806106b0575b5083916020956106a56106967f5a43e6dd8ff6dde13675567b53b8d147e61f48ec2bc7d6dadaf8e96904e348fe9460405194859460018060a01b0316855260018060a01b03168a850152608060408501526080840190611aa1565b82810360608401523396611aa1565b0390a3604051908152f35b60405163656d0c3960e01b8152336004820152602081602481855afa90811561074757600091610753575b50813b156101ab57600091604483926040519485938492632939a4b560e11b845260048401528a60248401525af18015610747571561063b5790916001600160401b03821161073157604091909152908361063b565b634e487b7160e01b600052604160045260246000fd5b6040513d6000823e3d90fd5b90506020813d60201161077d575b8161076e6020938361194e565b810103126101ab5751876106db565b3d9150610761565b015190508b806105b9565b906005850160005260206000209160005b601f19851681106107ee575092600994926001926101209583601f198116106107d5575b505050811b0160058501556105d1565b015160001960f88460031b161c191690558b80806107c5565b919260206001819286850151815501940192016107a1565b600585016000526020600020601f840160051c810160208510610846575b601f830160051c8201811061083a575050610598565b60008155600101610824565b5080610824565b015190508980610554565b9250600485016000526020600020906000935b601f19841685106108af576001945083601f19811610610896575b505050811b01600483015561056c565b015160001960f88460031b161c19169055898080610886565b8181015183556020948501946001909301929091019061086b565b909150600485016000526020600020601f840160051c810160208510610916575b90849392915b601f830160051c8201811061090757505061053d565b600081558594506001016108f1565b50806108eb565b945090506040843d60401161095e575b8161093a6040938361194e565b810103126101ab57610957602061095086611e88565b9501611e88565b908561045b565b3d915061092d565b602060249160405192838092631853e99560e11b82523360048301525afa908115610747576000916109e4575b501561099f57826103d5565b60405162461bcd60e51b815260206004820152601760248201527f417374726f6c6f676572206e6f742076657269666965640000000000000000006044820152606490fd5b90506020813d602011610a17575b816109ff6020938361194e565b810103126101ab575180151581036101ab5783610993565b3d91506109f2565b60405162461bcd60e51b815260206004820152601e60248201527f417374726f6c6f67657220616c726561647920686173206120746f6b656e00006044820152606490fd5b60405162461bcd60e51b8152602060048201526024808201527f496e697469616c207072696365206d75737420626520677265617465722074686044820152630616e20360e41b6064820152608490fd5b60405162461bcd60e51b815260206004820152602360248201527f546f74616c20737570706c79206d75737420626520677265617465722074686160448201526206e20360ec1b6064820152608490fd5b60405162461bcd60e51b815260206004820152601660248201527553796d626f6c2063616e6e6f7420626520656d70747960501b6044820152606490fd5b60405162461bcd60e51b81526020600482015260146024820152734e616d652063616e6e6f7420626520656d70747960601b6044820152606490fd5b60405162461bcd60e51b815260206004820152601760248201527f496e73756666696369656e74206c61756e6368206665650000000000000000006044820152606490fd5b346101ab5760203660031901126101ab57610cac610be1611901565b610be9611edb565b506001600160a01b03908116600090815260cb6020526040902054610c0f811515611f29565b60005260ca6020526009604060002060405192610c2b84611917565b815484528060018301541660208501528060028301541660408501526003820154166060840152610c5e600482016119fb565b6080840152610c6f600582016119fb565b60a0840152600681015460c0840152600781015460e084015260ff6008820154161515610100840152015461012082015260405191829182611ae1565b0390f35b346101ab5760003660031901126101ab576033546040516001600160a01b039091168152602090f35b346101ab5760203660031901126101ab57610cac610cf5611901565b610cfd611edb565b506001600160a01b03908116600090815260cc6020526040902054610c0f811515611f29565b346101ab5760203660031901126101ab57600435610d3f611edb565b5080151580610dad575b610d5290611e9c565b60005260ca602052610cac6040600020600960405191610d7183611917565b8054835260018101546001600160a01b0390811660208501526002820154811660408501526003820154166060840152610c5e600482016119fb565b5060c954811115610d49565b346101ab5760003660031901126101ab57610dd2611b98565b603380546001600160a01b031981169091556000906001600160a01b03167f8be0079c531659141344cd1fd0a4f28419497f9722a3daafe3b4186f6b6457e08280a3005b346101ab5760003660031901126101ab5760cd546040516001600160a01b039091168152602090f35b346101ab5760203660031901126101ab57610e58611b98565b60043560cf55005b346101ab5760003660031901126101ab577f00000000000000000000000000000000000000000000000000000000000000006001600160a01b03163003610eb95760206040516000805160206120008339815191528152f35b60405162461bcd60e51b815260206004820152603860248201527f555550535570677261646561626c653a206d757374206e6f742062652063616c60448201527f6c6564207468726f7567682064656c656761746563616c6c00000000000000006064820152608490fd5b346101ab5760203660031901126101ab5760043560005260ca6020526040600020805460018060a01b03918260018201541692806002830154169060038301541691610f72600482016119fb565b92610fd5610f82600584016119fb565b610fc7600685015496600786015494600960ff600889015416970154976040519b8c9b8c5260208c015260408b015260608a01526101408060808b0152890190611aa1565b9087820360a0890152611aa1565b9360c086015260e085015215156101008401526101208301520390f35b60403660031901126101ab57611006611901565b6024356001600160401b0381116101ab57366023820112156101ab5761103690369060248160040135910161198a565b6001600160a01b037f00000000000000000000000000000000000000000000000000000000000000008116919061106f30841415611c39565b61108c600080516020612000833981519152938285541614611c9a565b611094611b98565b7f4910fdfa16fed3260ed0e7147f7cc6da11a60208b5b9406d12a635614ffd91435460ff16156110ca5750505061015590611cfb565b8316604051926352d1902d60e01b84526020938481600481865afa60009181611281575b5061114f5760405162461bcd60e51b815260048101869052602e60248201527f45524331393637557067726164653a206e657720696d706c656d656e7461746960448201526d6f6e206973206e6f74205555505360901b6064820152608490fd5b9392930361122a5761116084611cfb565b7fbc7cd75a20ee27fd9adebab32041f755214dbc6bffa90cc0225b39da2e5c2d3b600080a2815115801590611222575b61119657005b61015592600080604051946111aa86611933565b602786527f416464726573733a206c6f772d6c6576656c2064656c65676174652063616c6c85870152660819985a5b195960ca1b60408701528481519101845af4903d15611219573d6111fc8161196f565b9061120a604051928361194e565b8152600081943d92013e611d8b565b60609250611d8b565b506001611190565b60405162461bcd60e51b815260048101839052602960248201527f45524331393637557067726164653a20756e737570706f727465642070726f786044820152681a58589b195555525160ba1b6064820152608490fd5b9091508581813d83116112a9575b611299818361194e565b810103126101ab575190876110ee565b503d61128f565b346101ab5760203660031901126101ab576112c9611901565b6112d1611b98565b60cd80546001600160a01b0319166001600160a01b0392909216919091179055005b346101ab5760003660031901126101ab5760c95461131081611f7e565b90600091600191825b8181111561139f57505061132c83611f7e565b9260005b818110611376575050506040519060208083018184528451809152816040850195019160005b8281106113635785870386f35b8351875295810195928101928401611356565b8061138661139792859795611fd5565b516113918286611fd5565b52611fb0565b939193611330565b8060009593955260ca60205260ff600860406000200154166113cd575b6113c590611fb0565b939193611319565b916113e081846113916113c59489611fd5565b9290506113bc565b346101ab5760003660031901126101ab57611401611b98565b600080808060018060a01b03603354164790828215611423575bf11561074757005b506108fc61141b565b346101ab576020806003193601126101ab57611446611901565b6001600160a01b03917f0000000000000000000000000000000000000000000000000000000000000000831661147e30821415611c39565b61149b600080516020612000833981519152918583541614611c9a565b6114a3611b98565b60405190828201948286106001600160401b0387111761073157856040526000835260ff7f4910fdfa16fed3260ed0e7147f7cc6da11a60208b5b9406d12a635614ffd914354166000146114ff57505050506101559150611cfb565b8492939416906040516352d1902d60e01b81528581600481865afa6000918161168d575b506115845760405162461bcd60e51b815260048101879052602e60248201527f45524331393637557067726164653a206e657720696d706c656d656e7461746960448201526d6f6e206973206e6f74205555505360901b6064820152608490fd5b949394036116365761159582611cfb565b7fbc7cd75a20ee27fd9adebab32041f755214dbc6bffa90cc0225b39da2e5c2d3b600080a282511580159061162e575b6115cb57005b60008061015595604051956115df87611933565b602787527f416464726573733a206c6f772d6c6576656c2064656c65676174652063616c6c86880152660819985a5b195960ca1b60408801525190845af4903d15611219573d6111fc8161196f565b5060006115c5565b60405162461bcd60e51b815260048101849052602960248201527f45524331393637557067726164653a20756e737570706f727465642070726f786044820152681a58589b195555525160ba1b6064820152608490fd5b9091508681813d83116116b5575b6116a5818361194e565b810103126101ab57519088611523565b503d61169b565b346101ab5760203660031901126101ab576001600160a01b036116dd611901565b1660005260cc6020526020604060002054604051908152f35b346101ab5760203660031901126101ab5761170f611901565b611717611b98565b60ce80546001600160a01b0319166001600160a01b0392909216919091179055005b346101ab5760203660031901126101ab576001600160a01b0361175a611901565b1660005260cb6020526020604060002054604051908152f35b346101ab5760603660031901126101ab5761178c611901565b6001600160a01b03919060243583811691908290036101ab5760005460ff8160081c1615938480956118f4575b80156118dd575b15611884575060ff19811660011760005583611872575b506117f260ff60005460081c166117ed81611e28565b611e28565b6117fb33611bf0565b6000549361180e60ff8660081c16611e28565b6bffffffffffffffffffffffff60a01b91168160cd54161760cd5560ce54161760ce5560443560cf5561183d57005b61ff0019166000557f7f26b83ff96e1f2b6a682f133852f6798a09c465da95921460cefb3847402498602060405160018152a1005b61ffff191661010117600055846117d7565b62461bcd60e51b815260206004820152602e60248201527f496e697469616c697a61626c653a20636f6e747261637420697320616c72656160448201526d191e481a5b9a5d1a585b1a5e995960921b6064820152608490fd5b50303b1580156117c05750600160ff8316146117c0565b50600160ff8316106117b9565b600435906001600160a01b03821682036101ab57565b61014081019081106001600160401b0382111761073157604052565b606081019081106001600160401b0382111761073157604052565b90601f801991011681019081106001600160401b0382111761073157604052565b6001600160401b03811161073157601f01601f191660200190565b9291926119968261196f565b916119a4604051938461194e565b8294818452818301116101ab578281602093846000960137010152565b90600182811c921680156119f1575b60208310146119db57565b634e487b7160e01b600052602260045260246000fd5b91607f16916119d0565b9060405191826000825492611a0f846119c1565b908184526001948581169081600014611a7e5750600114611a3b575b5050611a399250038361194e565b565b9093915060005260209081600020936000915b818310611a66575050611a3993508201013880611a2b565b85548884018501529485019487945091830191611a4e565b915050611a3994506020925060ff191682840152151560051b8201013880611a2b565b919082519283825260005b848110611acd575050826000602080949584010152601f8019910116010190565b602081830181015184830182015201611aac565b602081528151602082015260018060a01b0380602084015116604083015280604084015116606083015260608301511660808201526080820151611b4c611b36610140928360a0860152610160850190611aa1565b60a0850151848203601f190160c0860152611aa1565b9260c081015160e084015260e081015161010090818501528101511515906101209182850152015191015290565b9080601f830112156101ab57816020611b959335910161198a565b90565b6033546001600160a01b03163303611bac57565b606460405162461bcd60e51b815260206004820152602060248201527f4f776e61626c653a2063616c6c6572206973206e6f7420746865206f776e65726044820152fd5b603380546001600160a01b039283166001600160a01b0319821681179092559091167f8be0079c531659141344cd1fd0a4f28419497f9722a3daafe3b4186f6b6457e0600080a3565b15611c4057565b60405162461bcd60e51b815260206004820152602c60248201527f46756e6374696f6e206d7573742062652063616c6c6564207468726f7567682060448201526b19195b1959d85d1958d85b1b60a21b6064820152608490fd5b15611ca157565b60405162461bcd60e51b815260206004820152602c60248201527f46756e6374696f6e206d7573742062652063616c6c6564207468726f7567682060448201526b6163746976652070726f787960a01b6064820152608490fd5b803b15611d305760008051602061200083398151915280546001600160a01b0319166001600160a01b03909216919091179055565b60405162461bcd60e51b815260206004820152602d60248201527f455243313936373a206e657720696d706c656d656e746174696f6e206973206e60448201526c1bdd08184818dbdb9d1c9858dd609a1b6064820152608490fd5b91929015611ded5750815115611d9f575090565b3b15611da85790565b60405162461bcd60e51b815260206004820152601d60248201527f416464726573733a2063616c6c20746f206e6f6e2d636f6e74726163740000006044820152606490fd5b825190915015611e005750805190602001fd5b60405162461bcd60e51b815260206004820152908190611e24906024830190611aa1565b0390fd5b15611e2f57565b60405162461bcd60e51b815260206004820152602b60248201527f496e697469616c697a61626c653a20636f6e7472616374206973206e6f74206960448201526a6e697469616c697a696e6760a81b6064820152608490fd5b51906001600160a01b03821682036101ab57565b15611ea357565b60405162461bcd60e51b815260206004820152601060248201526f125b9d985b1a59081d1bdad95b88125160821b6044820152606490fd5b60405190611ee882611917565b8161012060009182815282602082015282604082015282606082015260606080820152606060a08201528260c08201528260e0820152826101008201520152565b15611f3057565b60405162461bcd60e51b815260206004820152600f60248201526e151bdad95b881b9bdd08199bdd5b99608a1b6044820152606490fd5b6001600160401b0381116107315760051b60200190565b90611f8882611f67565b611f95604051918261194e565b8281528092611fa6601f1991611f67565b0190602036910137565b6000198114611fbf5760010190565b634e487b7160e01b600052601160045260246000fd5b8051821015611fe95760209160051b010190565b634e487b7160e01b600052603260045260246000fdfe360894a13ba1a3210667c828492db98dca3e2076cc3735a920a3ca505d382bbca264697066735822122089c326d37d883b1ae1b4989df96b1bbae11b04b3214f9666947fb00066a0f27264736f6c63430008110033","opcodes":"PUSH1 0xA0 DUP1 PUSH1 0x40 MSTORE CALLVALUE PUSH2 0xDC JUMPI ADDRESS PUSH1 0x80 MSTORE PUSH1 0x0 SLOAD SWAP1 PUSH1 0xFF DUP3 PUSH1 0x8 SHR AND PUSH2 0x8A JUMPI POP PUSH1 0xFF DUP1 DUP3 AND SUB PUSH2 0x4F JUMPI JUMPDEST PUSH1 0x40 MLOAD PUSH2 0x2055 SWAP1 DUP2 PUSH2 0xE2 DUP3 CODECOPY PUSH1 0x80 MLOAD DUP2 DUP2 DUP2 PUSH2 0xE73 ADD MSTORE DUP2 DUP2 PUSH2 0x1040 ADD MSTORE PUSH2 0x1451 ADD MSTORE RETURN JUMPDEST PUSH1 0xFF SWAP1 DUP2 NOT AND OR PUSH1 0x0 SSTORE PUSH32 0x7F26B83FF96E1F2B6A682F133852F6798A09C465DA95921460CEFB3847402498 PUSH1 0x20 PUSH1 0x40 MLOAD PUSH1 0xFF DUP2 MSTORE LOG1 CODESIZE PUSH2 0x29 JUMP JUMPDEST PUSH3 0x461BCD PUSH1 0xE5 SHL DUP2 MSTORE PUSH1 0x20 PUSH1 0x4 DUP3 ADD MSTORE PUSH1 0x27 PUSH1 0x24 DUP3 ADD MSTORE PUSH32 0x496E697469616C697A61626C653A20636F6E747261637420697320696E697469 PUSH1 0x44 DUP3 ADD MSTORE PUSH7 0x616C697A696E67 PUSH1 0xC8 SHL PUSH1 0x64 DUP3 ADD MSTORE PUSH1 0x84 SWAP1 REVERT JUMPDEST PUSH1 0x0 DUP1 REVERT INVALID PUSH1 0x80 DUP1 PUSH1 0x40 MSTORE PUSH1 0x4 CALLDATASIZE LT ISZERO PUSH2 0x13 JUMPI PUSH1 0x0 DUP1 REVERT JUMPDEST PUSH1 0x0 CALLDATALOAD PUSH1 0xE0 SHR SWAP1 DUP2 PUSH4 0x1794BB3C EQ PUSH2 0x1773 JUMPI POP DUP1 PUSH4 0x21DD6760 EQ PUSH2 0x1739 JUMPI DUP1 PUSH4 0x2F73A9F8 EQ PUSH2 0x16F6 JUMPI DUP1 PUSH4 0x36203131 EQ PUSH2 0x16BC JUMPI DUP1 PUSH4 0x3659CFE6 EQ PUSH2 0x142C JUMPI DUP1 PUSH4 0x3CCFD60B EQ PUSH2 0x13E8 JUMPI DUP1 PUSH4 0x42FBBF4F EQ PUSH2 0x12F3 JUMPI DUP1 PUSH4 0x44CDA485 EQ PUSH2 0x12B0 JUMPI DUP1 PUSH4 0x4F1EF286 EQ PUSH2 0xFF2 JUMPI DUP1 PUSH4 0x4F64B2BE EQ PUSH2 0xF24 JUMPI DUP1 PUSH4 0x52D1902D EQ PUSH2 0xE60 JUMPI DUP1 PUSH4 0x5313BE2C EQ PUSH2 0xE3F JUMPI DUP1 PUSH4 0x6FD31A41 EQ PUSH2 0xE16 JUMPI DUP1 PUSH4 0x715018A6 EQ PUSH2 0xDB9 JUMPI DUP1 PUSH4 0x8C7A63AE EQ PUSH2 0xD23 JUMPI DUP1 PUSH4 0x8D84289E EQ PUSH2 0xCD9 JUMPI DUP1 PUSH4 0x8DA5CB5B EQ PUSH2 0xCB0 JUMPI DUP1 PUSH4 0x922EDB34 EQ PUSH2 0xBC5 JUMPI DUP1 PUSH4 0xAD19748B EQ PUSH2 0x31F JUMPI DUP1 PUSH4 0xCF3CF573 EQ PUSH2 0x301 JUMPI DUP1 PUSH4 0xE77772FE EQ PUSH2 0x2D8 JUMPI DUP1 PUSH4 0xEC991DA9 EQ PUSH2 0x1B0 JUMPI PUSH4 0xF2FDE38B EQ PUSH2 0x11C JUMPI PUSH1 0x0 DUP1 REVERT JUMPDEST CALLVALUE PUSH2 0x1AB JUMPI PUSH1 0x20 CALLDATASIZE PUSH1 0x3 NOT ADD SLT PUSH2 0x1AB JUMPI PUSH2 0x135 PUSH2 0x1901 JUMP JUMPDEST PUSH2 0x13D PUSH2 0x1B98 JUMP JUMPDEST PUSH1 0x1 PUSH1 0x1 PUSH1 0xA0 SHL SUB DUP2 AND ISZERO PUSH2 0x157 JUMPI PUSH2 0x155 SWAP1 PUSH2 0x1BF0 JUMP JUMPDEST STOP JUMPDEST PUSH1 0x40 MLOAD PUSH3 0x461BCD PUSH1 0xE5 SHL DUP2 MSTORE PUSH1 0x20 PUSH1 0x4 DUP3 ADD MSTORE PUSH1 0x26 PUSH1 0x24 DUP3 ADD MSTORE PUSH32 0x4F776E61626C653A206E6577206F776E657220697320746865207A65726F2061 PUSH1 0x44 DUP3 ADD MSTORE PUSH6 0x646472657373 PUSH1 0xD0 SHL PUSH1 0x64 DUP3 ADD MSTORE PUSH1 0x84 SWAP1 REVERT JUMPDEST PUSH1 0x0 DUP1 REVERT JUMPDEST CALLVALUE PUSH2 0x1AB JUMPI PUSH1 0x20 DUP1 PUSH1 0x3 NOT CALLDATASIZE ADD SLT PUSH2 0x1AB JUMPI PUSH1 0x4 CALLDATALOAD SWAP1 DUP2 ISZERO ISZERO DUP1 PUSH2 0x2CC JUMPI JUMPDEST PUSH2 0x1D8 SWAP1 PUSH2 0x1E9C JUMP JUMPDEST PUSH1 0x0 DUP3 DUP2 MSTORE PUSH1 0xCA DUP3 MSTORE PUSH1 0x40 SWAP1 KECCAK256 PUSH1 0x1 ADD SLOAD PUSH1 0x1 PUSH1 0x1 PUSH1 0xA0 SHL SUB AND CALLER SUB PUSH2 0x296 JUMPI DUP2 PUSH1 0x0 MSTORE PUSH1 0xCA DUP2 MSTORE PUSH1 0xFF PUSH1 0x8 PUSH1 0x40 PUSH1 0x0 KECCAK256 ADD SLOAD AND ISZERO PUSH2 0x252 JUMPI PUSH1 0xCA SWAP1 DUP3 PUSH1 0x0 MSTORE MSTORE PUSH1 0x8 PUSH1 0x40 PUSH1 0x0 KECCAK256 ADD PUSH1 0xFF NOT DUP2 SLOAD AND SWAP1 SSTORE CALLER SWAP1 PUSH32 0xC5BC70DCBAA7453C88ACB052849608A31643CA7B9865B086176CFC8FA995720B PUSH1 0x0 DUP1 LOG3 STOP JUMPDEST PUSH1 0x64 SWAP1 PUSH1 0x40 MLOAD SWAP1 PUSH3 0x461BCD PUSH1 0xE5 SHL DUP3 MSTORE PUSH1 0x4 DUP3 ADD MSTORE PUSH1 0x19 PUSH1 0x24 DUP3 ADD MSTORE PUSH32 0x546F6B656E20616C726561647920646561637469766174656400000000000000 PUSH1 0x44 DUP3 ADD MSTORE REVERT JUMPDEST PUSH1 0x64 SWAP1 PUSH1 0x40 MLOAD SWAP1 PUSH3 0x461BCD PUSH1 0xE5 SHL DUP3 MSTORE PUSH1 0x4 DUP3 ADD MSTORE PUSH1 0xF PUSH1 0x24 DUP3 ADD MSTORE PUSH15 0x2737BA103A37B5B2B71037BBB732B9 PUSH1 0x89 SHL PUSH1 0x44 DUP3 ADD MSTORE REVERT JUMPDEST POP PUSH1 0xC9 SLOAD DUP3 GT ISZERO PUSH2 0x1CF JUMP JUMPDEST CALLVALUE PUSH2 0x1AB JUMPI PUSH1 0x0 CALLDATASIZE PUSH1 0x3 NOT ADD SLT PUSH2 0x1AB JUMPI PUSH1 0xCE SLOAD PUSH1 0x40 MLOAD PUSH1 0x1 PUSH1 0x1 PUSH1 0xA0 SHL SUB SWAP1 SWAP2 AND DUP2 MSTORE PUSH1 0x20 SWAP1 RETURN JUMPDEST CALLVALUE PUSH2 0x1AB JUMPI PUSH1 0x0 CALLDATASIZE PUSH1 0x3 NOT ADD SLT PUSH2 0x1AB JUMPI PUSH1 0x20 PUSH1 0xCF SLOAD PUSH1 0x40 MLOAD SWAP1 DUP2 MSTORE RETURN JUMPDEST PUSH1 0xA0 CALLDATASIZE PUSH1 0x3 NOT ADD SLT PUSH2 0x1AB JUMPI PUSH1 0x4 CALLDATALOAD PUSH1 0x1 PUSH1 0x1 PUSH1 0x40 SHL SUB DUP2 GT PUSH2 0x1AB JUMPI PUSH2 0x34A SWAP1 CALLDATASIZE SWAP1 PUSH1 0x4 ADD PUSH2 0x1B7A JUMP JUMPDEST PUSH1 0x24 CALLDATALOAD PUSH1 0x1 PUSH1 0x1 PUSH1 0x40 SHL SUB DUP2 GT PUSH2 0x1AB JUMPI PUSH2 0x369 SWAP1 CALLDATASIZE SWAP1 PUSH1 0x4 ADD PUSH2 0x1B7A JUMP JUMPDEST PUSH1 0x84 CALLDATALOAD PUSH1 0x1 PUSH1 0x1 PUSH1 0x40 SHL SUB DUP2 GT PUSH2 0x1AB JUMPI PUSH2 0x388 SWAP1 CALLDATASIZE SWAP1 PUSH1 0x4 ADD PUSH2 0x1B7A JUMP JUMPDEST POP PUSH1 0xCF SLOAD CALLVALUE LT PUSH2 0xB80 JUMPI DUP2 MLOAD ISZERO PUSH2 0xB44 JUMPI DUP1 MLOAD ISZERO PUSH2 0xB06 JUMPI PUSH1 0x44 CALLDATALOAD ISZERO PUSH2 0xAB5 JUMPI PUSH1 0x64 CALLDATALOAD ISZERO PUSH2 0xA64 JUMPI CALLER PUSH1 0x0 MSTORE PUSH1 0xCB PUSH1 0x20 MSTORE PUSH1 0x40 PUSH1 0x0 KECCAK256 SLOAD PUSH2 0xA1F JUMPI PUSH1 0xCD SLOAD PUSH1 0x1 PUSH1 0x1 PUSH1 0xA0 SHL SUB AND DUP1 PUSH2 0x966 JUMPI JUMPDEST POP PUSH1 0xC9 DUP1 SLOAD PUSH1 0x1 ADD SWAP1 DUP2 SWAP1 SSTORE PUSH1 0xCE SLOAD PUSH1 0x40 DUP1 MLOAD PUSH4 0xCB8743B PUSH1 0xE2 SHL DUP2 MSTORE PUSH1 0xA0 PUSH1 0x4 DUP3 ADD MSTORE SWAP5 SWAP3 SWAP4 SWAP3 SWAP2 DUP6 SWAP1 PUSH1 0x1 PUSH1 0x1 PUSH1 0xA0 SHL SUB AND DUP2 PUSH1 0x0 DUP2 PUSH2 0x42F PUSH2 0x41D PUSH1 0xA4 DUP4 ADD DUP10 PUSH2 0x1AA1 JUMP JUMPDEST DUP3 DUP2 SUB PUSH1 0x3 NOT ADD PUSH1 0x24 DUP5 ADD MSTORE DUP10 PUSH2 0x1AA1 JUMP JUMPDEST PUSH1 0x44 CALLDATALOAD PUSH1 0x44 DUP4 ADD MSTORE PUSH1 0x64 CALLDATALOAD PUSH1 0x64 DUP4 ADD MSTORE CALLER PUSH1 0x84 DUP4 ADD MSTORE SUB SWAP3 GAS CALL SWAP1 DUP2 ISZERO PUSH2 0x747 JUMPI PUSH1 0x0 SWAP5 PUSH1 0x0 SWAP3 PUSH2 0x91D JUMPI JUMPDEST POP PUSH1 0x40 MLOAD PUSH2 0x468 DUP2 PUSH2 0x1917 JUMP JUMPDEST DUP5 DUP2 MSTORE CALLER PUSH1 0x20 DUP1 DUP4 ADD SWAP2 DUP3 MSTORE PUSH1 0x1 PUSH1 0x1 PUSH1 0xA0 SHL SUB DUP9 DUP2 AND PUSH1 0x40 DUP1 DUP7 ADD SWAP2 DUP3 MSTORE DUP8 DUP4 AND PUSH1 0x60 DUP8 ADD SWAP1 DUP2 MSTORE PUSH1 0x80 DUP8 ADD DUP9 DUP2 MSTORE PUSH1 0xA0 DUP9 ADD DUP12 SWAP1 MSTORE PUSH1 0x44 CALLDATALOAD PUSH1 0xC0 DUP10 ADD MSTORE PUSH1 0x64 CALLDATALOAD PUSH1 0xE0 DUP10 ADD MSTORE PUSH1 0x1 PUSH2 0x100 DUP10 ADD DUP2 SWAP1 MSTORE TIMESTAMP PUSH2 0x120 DUP11 ADD MSTORE PUSH1 0x0 DUP14 DUP2 MSTORE PUSH1 0xCA SWAP1 SWAP8 MSTORE SWAP3 SWAP1 SWAP6 KECCAK256 DUP8 MLOAD DUP2 SSTORE SWAP6 MLOAD SWAP2 DUP7 ADD DUP1 SLOAD SWAP3 DUP6 AND PUSH1 0x1 PUSH1 0x1 PUSH1 0xA0 SHL SUB NOT SWAP4 DUP5 AND OR SWAP1 SSTORE SWAP2 MLOAD PUSH1 0x2 DUP7 ADD DUP1 SLOAD SWAP2 DUP6 AND SWAP2 DUP4 AND SWAP2 SWAP1 SWAP2 OR SWAP1 SSTORE SWAP1 MLOAD PUSH1 0x3 DUP6 ADD DUP1 SLOAD SWAP2 SWAP1 SWAP4 AND SWAP2 AND OR SWAP1 SSTORE MLOAD DUP1 MLOAD SWAP2 SWAP3 SWAP2 SWAP1 PUSH1 0x1 PUSH1 0x1 PUSH1 0x40 SHL SUB DUP3 GT PUSH2 0x731 JUMPI DUP2 SWAP1 PUSH2 0x534 PUSH1 0x4 DUP7 ADD SLOAD PUSH2 0x19C1 JUMP JUMPDEST PUSH1 0x1F DUP2 GT PUSH2 0x8CA JUMPI JUMPDEST POP PUSH1 0x20 SWAP1 PUSH1 0x1F DUP4 GT PUSH1 0x1 EQ PUSH2 0x858 JUMPI PUSH1 0x0 SWAP3 PUSH2 0x84D JUMPI JUMPDEST POP POP DUP2 PUSH1 0x1 SHL SWAP2 PUSH1 0x0 NOT SWAP1 PUSH1 0x3 SHL SHR NOT AND OR PUSH1 0x4 DUP4 ADD SSTORE JUMPDEST PUSH1 0xA0 DUP2 ADD MLOAD DUP1 MLOAD SWAP1 PUSH1 0x1 PUSH1 0x1 PUSH1 0x40 SHL SUB DUP3 GT PUSH2 0x731 JUMPI PUSH2 0x58F PUSH1 0x5 DUP6 ADD SLOAD PUSH2 0x19C1 JUMP JUMPDEST PUSH1 0x1F DUP2 GT PUSH2 0x806 JUMPI JUMPDEST POP PUSH1 0x20 SWAP1 PUSH1 0x1F DUP4 GT PUSH1 0x1 EQ PUSH2 0x790 JUMPI SWAP2 DUP1 PUSH1 0x9 SWAP5 SWAP3 PUSH2 0x120 SWAP5 PUSH1 0x0 SWAP3 PUSH2 0x785 JUMPI JUMPDEST POP POP DUP2 PUSH1 0x1 SHL SWAP2 PUSH1 0x0 NOT SWAP1 PUSH1 0x3 SHL SHR NOT AND OR PUSH1 0x5 DUP6 ADD SSTORE JUMPDEST PUSH1 0xC0 DUP2 ADD MLOAD PUSH1 0x6 DUP6 ADD SSTORE PUSH1 0xE0 DUP2 ADD MLOAD PUSH1 0x7 DUP6 ADD SSTORE PUSH1 0x8 DUP5 ADD PUSH2 0x100 DUP3 ADD MLOAD ISZERO ISZERO PUSH1 0xFF DUP1 NOT DUP4 SLOAD AND SWAP2 AND OR SWAP1 SSTORE ADD MLOAD SWAP2 ADD SSTORE CALLER PUSH1 0x0 MSTORE PUSH1 0xCB PUSH1 0x20 MSTORE DUP4 PUSH1 0x40 PUSH1 0x0 KECCAK256 SSTORE PUSH1 0x1 DUP1 PUSH1 0xA0 SHL SUB DUP6 AND PUSH1 0x0 MSTORE PUSH1 0xCC PUSH1 0x20 MSTORE DUP4 PUSH1 0x40 PUSH1 0x0 KECCAK256 SSTORE PUSH1 0x1 DUP1 PUSH1 0xA0 SHL SUB PUSH1 0xCD SLOAD AND DUP1 PUSH2 0x6B0 JUMPI JUMPDEST POP DUP4 SWAP2 PUSH1 0x20 SWAP6 PUSH2 0x6A5 PUSH2 0x696 PUSH32 0x5A43E6DD8FF6DDE13675567B53B8D147E61F48EC2BC7D6DADAF8E96904E348FE SWAP5 PUSH1 0x40 MLOAD SWAP5 DUP6 SWAP5 PUSH1 0x1 DUP1 PUSH1 0xA0 SHL SUB AND DUP6 MSTORE PUSH1 0x1 DUP1 PUSH1 0xA0 SHL SUB AND DUP11 DUP6 ADD MSTORE PUSH1 0x80 PUSH1 0x40 DUP6 ADD MSTORE PUSH1 0x80 DUP5 ADD SWAP1 PUSH2 0x1AA1 JUMP JUMPDEST DUP3 DUP2 SUB PUSH1 0x60 DUP5 ADD MSTORE CALLER SWAP7 PUSH2 0x1AA1 JUMP JUMPDEST SUB SWAP1 LOG3 PUSH1 0x40 MLOAD SWAP1 DUP2 MSTORE RETURN JUMPDEST PUSH1 0x40 MLOAD PUSH4 0x656D0C39 PUSH1 0xE0 SHL DUP2 MSTORE CALLER PUSH1 0x4 DUP3 ADD MSTORE PUSH1 0x20 DUP2 PUSH1 0x24 DUP2 DUP6 GAS STATICCALL SWAP1 DUP2 ISZERO PUSH2 0x747 JUMPI PUSH1 0x0 SWAP2 PUSH2 0x753 JUMPI JUMPDEST POP DUP2 EXTCODESIZE ISZERO PUSH2 0x1AB JUMPI PUSH1 0x0 SWAP2 PUSH1 0x44 DUP4 SWAP3 PUSH1 0x40 MLOAD SWAP5 DUP6 SWAP4 DUP5 SWAP3 PUSH4 0x2939A4B5 PUSH1 0xE1 SHL DUP5 MSTORE PUSH1 0x4 DUP5 ADD MSTORE DUP11 PUSH1 0x24 DUP5 ADD MSTORE GAS CALL DUP1 ISZERO PUSH2 0x747 JUMPI ISZERO PUSH2 0x63B JUMPI SWAP1 SWAP2 PUSH1 0x1 PUSH1 0x1 PUSH1 0x40 SHL SUB DUP3 GT PUSH2 0x731 JUMPI PUSH1 0x40 SWAP2 SWAP1 SWAP2 MSTORE SWAP1 DUP4 PUSH2 0x63B JUMP JUMPDEST PUSH4 0x4E487B71 PUSH1 0xE0 SHL PUSH1 0x0 MSTORE PUSH1 0x41 PUSH1 0x4 MSTORE PUSH1 0x24 PUSH1 0x0 REVERT JUMPDEST PUSH1 0x40 MLOAD RETURNDATASIZE PUSH1 0x0 DUP3 RETURNDATACOPY RETURNDATASIZE SWAP1 REVERT JUMPDEST SWAP1 POP PUSH1 0x20 DUP2 RETURNDATASIZE PUSH1 0x20 GT PUSH2 0x77D JUMPI JUMPDEST DUP2 PUSH2 0x76E PUSH1 0x20 SWAP4 DUP4 PUSH2 0x194E JUMP JUMPDEST DUP2 ADD SUB SLT PUSH2 0x1AB JUMPI MLOAD DUP8 PUSH2 0x6DB JUMP JUMPDEST RETURNDATASIZE SWAP2 POP PUSH2 0x761 JUMP JUMPDEST ADD MLOAD SWAP1 POP DUP12 DUP1 PUSH2 0x5B9 JUMP JUMPDEST SWAP1 PUSH1 0x5 DUP6 ADD PUSH1 0x0 MSTORE PUSH1 0x20 PUSH1 0x0 KECCAK256 SWAP2 PUSH1 0x0 JUMPDEST PUSH1 0x1F NOT DUP6 AND DUP2 LT PUSH2 0x7EE JUMPI POP SWAP3 PUSH1 0x9 SWAP5 SWAP3 PUSH1 0x1 SWAP3 PUSH2 0x120 SWAP6 DUP4 PUSH1 0x1F NOT DUP2 AND LT PUSH2 0x7D5 JUMPI JUMPDEST POP POP POP DUP2 SHL ADD PUSH1 0x5 DUP6 ADD SSTORE PUSH2 0x5D1 JUMP JUMPDEST ADD MLOAD PUSH1 0x0 NOT PUSH1 0xF8 DUP5 PUSH1 0x3 SHL AND SHR NOT AND SWAP1 SSTORE DUP12 DUP1 DUP1 PUSH2 0x7C5 JUMP JUMPDEST SWAP2 SWAP3 PUSH1 0x20 PUSH1 0x1 DUP2 SWAP3 DUP7 DUP6 ADD MLOAD DUP2 SSTORE ADD SWAP5 ADD SWAP3 ADD PUSH2 0x7A1 JUMP JUMPDEST PUSH1 0x5 DUP6 ADD PUSH1 0x0 MSTORE PUSH1 0x20 PUSH1 0x0 KECCAK256 PUSH1 0x1F DUP5 ADD PUSH1 0x5 SHR DUP2 ADD PUSH1 0x20 DUP6 LT PUSH2 0x846 JUMPI JUMPDEST PUSH1 0x1F DUP4 ADD PUSH1 0x5 SHR DUP3 ADD DUP2 LT PUSH2 0x83A JUMPI POP POP PUSH2 0x598 JUMP JUMPDEST PUSH1 0x0 DUP2 SSTORE PUSH1 0x1 ADD PUSH2 0x824 JUMP JUMPDEST POP DUP1 PUSH2 0x824 JUMP JUMPDEST ADD MLOAD SWAP1 POP DUP10 DUP1 PUSH2 0x554 JUMP JUMPDEST SWAP3 POP PUSH1 0x4 DUP6 ADD PUSH1 0x0 MSTORE PUSH1 0x20 PUSH1 0x0 KECCAK256 SWAP1 PUSH1 0x0 SWAP4 JUMPDEST PUSH1 0x1F NOT DUP5 AND DUP6 LT PUSH2 0x8AF JUMPI PUSH1 0x1 SWAP5 POP DUP4 PUSH1 0x1F NOT DUP2 AND LT PUSH2 0x896 JUMPI JUMPDEST POP POP POP DUP2 SHL ADD PUSH1 0x4 DUP4 ADD SSTORE PUSH2 0x56C JUMP JUMPDEST ADD MLOAD PUSH1 0x0 NOT PUSH1 0xF8 DUP5 PUSH1 0x3 SHL AND SHR NOT AND SWAP1 SSTORE DUP10 DUP1 DUP1 PUSH2 0x886 JUMP JUMPDEST DUP2 DUP2 ADD MLOAD DUP4 SSTORE PUSH1 0x20 SWAP5 DUP6 ADD SWAP5 PUSH1 0x1 SWAP1 SWAP4 ADD SWAP3 SWAP1 SWAP2 ADD SWAP1 PUSH2 0x86B JUMP JUMPDEST SWAP1 SWAP2 POP PUSH1 0x4 DUP6 ADD PUSH1 0x0 MSTORE PUSH1 0x20 PUSH1 0x0 KECCAK256 PUSH1 0x1F DUP5 ADD PUSH1 0x5 SHR DUP2 ADD PUSH1 0x20 DUP6 LT PUSH2 0x916 JUMPI JUMPDEST SWAP1 DUP5 SWAP4 SWAP3 SWAP2 JUMPDEST PUSH1 0x1F DUP4 ADD PUSH1 0x5 SHR DUP3 ADD DUP2 LT PUSH2 0x907 JUMPI POP POP PUSH2 0x53D JUMP JUMPDEST PUSH1 0x0 DUP2 SSTORE DUP6 SWAP5 POP PUSH1 0x1 ADD PUSH2 0x8F1 JUMP JUMPDEST POP DUP1 PUSH2 0x8EB JUMP JUMPDEST SWAP5 POP SWAP1 POP PUSH1 0x40 DUP5 RETURNDATASIZE PUSH1 0x40 GT PUSH2 0x95E JUMPI JUMPDEST DUP2 PUSH2 0x93A PUSH1 0x40 SWAP4 DUP4 PUSH2 0x194E JUMP JUMPDEST DUP2 ADD SUB SLT PUSH2 0x1AB JUMPI PUSH2 0x957 PUSH1 0x20 PUSH2 0x950 DUP7 PUSH2 0x1E88 JUMP JUMPDEST SWAP6 ADD PUSH2 0x1E88 JUMP JUMPDEST SWAP1 DUP6 PUSH2 0x45B JUMP JUMPDEST RETURNDATASIZE SWAP2 POP PUSH2 0x92D JUMP JUMPDEST PUSH1 0x20 PUSH1 0x24 SWAP2 PUSH1 0x40 MLOAD SWAP3 DUP4 DUP1 SWAP3 PUSH4 0x1853E995 PUSH1 0xE1 SHL DUP3 MSTORE CALLER PUSH1 0x4 DUP4 ADD MSTORE GAS STATICCALL SWAP1 DUP2 ISZERO PUSH2 0x747 JUMPI PUSH1 0x0 SWAP2 PUSH2 0x9E4 JUMPI JUMPDEST POP ISZERO PUSH2 0x99F JUMPI DUP3 PUSH2 0x3D5 JUMP JUMPDEST PUSH1 0x40 MLOAD PUSH3 0x461BCD PUSH1 0xE5 SHL DUP2 MSTORE PUSH1 0x20 PUSH1 0x4 DUP3 ADD MSTORE PUSH1 0x17 PUSH1 0x24 DUP3 ADD MSTORE PUSH32 0x417374726F6C6F676572206E6F74207665726966696564000000000000000000 PUSH1 0x44 DUP3 ADD MSTORE PUSH1 0x64 SWAP1 REVERT JUMPDEST SWAP1 POP PUSH1 0x20 DUP2 RETURNDATASIZE PUSH1 0x20 GT PUSH2 0xA17 JUMPI JUMPDEST DUP2 PUSH2 0x9FF PUSH1 0x20 SWAP4 DUP4 PUSH2 0x194E JUMP JUMPDEST DUP2 ADD SUB SLT PUSH2 0x1AB JUMPI MLOAD DUP1 ISZERO ISZERO DUP2 SUB PUSH2 0x1AB JUMPI DUP4 PUSH2 0x993 JUMP JUMPDEST RETURNDATASIZE SWAP2 POP PUSH2 0x9F2 JUMP JUMPDEST PUSH1 0x40 MLOAD PUSH3 0x461BCD PUSH1 0xE5 SHL DUP2 MSTORE PUSH1 0x20 PUSH1 0x4 DUP3 ADD MSTORE PUSH1 0x1E PUSH1 0x24 DUP3 ADD MSTORE PUSH32 0x417374726F6C6F67657220616C726561647920686173206120746F6B656E0000 PUSH1 0x44 DUP3 ADD MSTORE PUSH1 0x64 SWAP1 REVERT JUMPDEST PUSH1 0x40 MLOAD PUSH3 0x461BCD PUSH1 0xE5 SHL DUP2 MSTORE PUSH1 0x20 PUSH1 0x4 DUP3 ADD MSTORE PUSH1 0x24 DUP1 DUP3 ADD MSTORE PUSH32 0x496E697469616C207072696365206D7573742062652067726561746572207468 PUSH1 0x44 DUP3 ADD MSTORE PUSH4 0x616E203 PUSH1 0xE4 SHL PUSH1 0x64 DUP3 ADD MSTORE PUSH1 0x84 SWAP1 REVERT JUMPDEST PUSH1 0x40 MLOAD PUSH3 0x461BCD PUSH1 0xE5 SHL DUP2 MSTORE PUSH1 0x20 PUSH1 0x4 DUP3 ADD MSTORE PUSH1 0x23 PUSH1 0x24 DUP3 ADD MSTORE PUSH32 0x546F74616C20737570706C79206D757374206265206772656174657220746861 PUSH1 0x44 DUP3 ADD MSTORE PUSH3 0x6E203 PUSH1 0xEC SHL PUSH1 0x64 DUP3 ADD MSTORE PUSH1 0x84 SWAP1 REVERT JUMPDEST PUSH1 0x40 MLOAD PUSH3 0x461BCD PUSH1 0xE5 SHL DUP2 MSTORE PUSH1 0x20 PUSH1 0x4 DUP3 ADD MSTORE PUSH1 0x16 PUSH1 0x24 DUP3 ADD MSTORE PUSH22 0x53796D626F6C2063616E6E6F7420626520656D707479 PUSH1 0x50 SHL PUSH1 0x44 DUP3 ADD MSTORE PUSH1 0x64 SWAP1 REVERT JUMPDEST PUSH1 0x40 MLOAD PUSH3 0x461BCD PUSH1 0xE5 SHL DUP2 MSTORE PUSH1 0x20 PUSH1 0x4 DUP3 ADD MSTORE PUSH1 0x14 PUSH1 0x24 DUP3 ADD MSTORE PUSH20 0x4E616D652063616E6E6F7420626520656D707479 PUSH1 0x60 SHL PUSH1 0x44 DUP3 ADD MSTORE PUSH1 0x64 SWAP1 REVERT JUMPDEST PUSH1 0x40 MLOAD PUSH3 0x461BCD PUSH1 0xE5 SHL DUP2 MSTORE PUSH1 0x20 PUSH1 0x4 DUP3 ADD MSTORE PUSH1 0x17 PUSH1 0x24 DUP3 ADD MSTORE PUSH32 0x496E73756666696369656E74206C61756E636820666565000000000000000000 PUSH1 0x44 DUP3 ADD MSTORE PUSH1 0x64 SWAP1 REVERT JUMPDEST CALLVALUE PUSH2 0x1AB JUMPI PUSH1 0x20 CALLDATASIZE PUSH1 0x3 NOT ADD SLT PUSH2 0x1AB JUMPI PUSH2 0xCAC PUSH2 0xBE1 PUSH2 0x1901 JUMP JUMPDEST PUSH2 0xBE9 PUSH2 0x1EDB JUMP JUMPDEST POP PUSH1 0x1 PUSH1 0x1 PUSH1 0xA0 SHL SUB SWAP1 DUP2 AND PUSH1 0x0 SWAP1 DUP2 MSTORE PUSH1 0xCB PUSH1 0x20 MSTORE PUSH1 0x40 SWAP1 KECCAK256 SLOAD PUSH2 0xC0F DUP2 ISZERO ISZERO PUSH2 0x1F29 JUMP JUMPDEST PUSH1 0x0 MSTORE PUSH1 0xCA PUSH1 0x20 MSTORE PUSH1 0x9 PUSH1 0x40 PUSH1 0x0 KECCAK256 PUSH1 0x40 MLOAD SWAP3 PUSH2 0xC2B DUP5 PUSH2 0x1917 JUMP JUMPDEST DUP2 SLOAD DUP5 MSTORE DUP1 PUSH1 0x1 DUP4 ADD SLOAD AND PUSH1 0x20 DUP6 ADD MSTORE DUP1 PUSH1 0x2 DUP4 ADD SLOAD AND PUSH1 0x40 DUP6 ADD MSTORE PUSH1 0x3 DUP3 ADD SLOAD AND PUSH1 0x60 DUP5 ADD MSTORE PUSH2 0xC5E PUSH1 0x4 DUP3 ADD PUSH2 0x19FB JUMP JUMPDEST PUSH1 0x80 DUP5 ADD MSTORE PUSH2 0xC6F PUSH1 0x5 DUP3 ADD PUSH2 0x19FB JUMP JUMPDEST PUSH1 0xA0 DUP5 ADD MSTORE PUSH1 0x6 DUP2 ADD SLOAD PUSH1 0xC0 DUP5 ADD MSTORE PUSH1 0x7 DUP2 ADD SLOAD PUSH1 0xE0 DUP5 ADD MSTORE PUSH1 0xFF PUSH1 0x8 DUP3 ADD SLOAD AND ISZERO ISZERO PUSH2 0x100 DUP5 ADD MSTORE ADD SLOAD PUSH2 0x120 DUP3 ADD MSTORE PUSH1 0x40 MLOAD SWAP2 DUP3 SWAP2 DUP3 PUSH2 0x1AE1 JUMP JUMPDEST SUB SWAP1 RETURN JUMPDEST CALLVALUE PUSH2 0x1AB JUMPI PUSH1 0x0 CALLDATASIZE PUSH1 0x3 NOT ADD SLT PUSH2 0x1AB JUMPI PUSH1 0x33 SLOAD PUSH1 0x40 MLOAD PUSH1 0x1 PUSH1 0x1 PUSH1 0xA0 SHL SUB SWAP1 SWAP2 AND DUP2 MSTORE PUSH1 0x20 SWAP1 RETURN JUMPDEST CALLVALUE PUSH2 0x1AB JUMPI PUSH1 0x20 CALLDATASIZE PUSH1 0x3 NOT ADD SLT PUSH2 0x1AB JUMPI PUSH2 0xCAC PUSH2 0xCF5 PUSH2 0x1901 JUMP JUMPDEST PUSH2 0xCFD PUSH2 0x1EDB JUMP JUMPDEST POP PUSH1 0x1 PUSH1 0x1 PUSH1 0xA0 SHL SUB SWAP1 DUP2 AND PUSH1 0x0 SWAP1 DUP2 MSTORE PUSH1 0xCC PUSH1 0x20 MSTORE PUSH1 0x40 SWAP1 KECCAK256 SLOAD PUSH2 0xC0F DUP2 ISZERO ISZERO PUSH2 0x1F29 JUMP JUMPDEST CALLVALUE PUSH2 0x1AB JUMPI PUSH1 0x20 CALLDATASIZE PUSH1 0x3 NOT ADD SLT PUSH2 0x1AB JUMPI PUSH1 0x4 CALLDATALOAD PUSH2 0xD3F PUSH2 0x1EDB JUMP JUMPDEST POP DUP1 ISZERO ISZERO DUP1 PUSH2 0xDAD JUMPI JUMPDEST PUSH2 0xD52 SWAP1 PUSH2 0x1E9C JUMP JUMPDEST PUSH1 0x0 MSTORE PUSH1 0xCA PUSH1 0x20 MSTORE PUSH2 0xCAC PUSH1 0x40 PUSH1 0x0 KECCAK256 PUSH1 0x9 PUSH1 0x40 MLOAD SWAP2 PUSH2 0xD71 DUP4 PUSH2 0x1917 JUMP JUMPDEST DUP1 SLOAD DUP4 MSTORE PUSH1 0x1 DUP2 ADD SLOAD PUSH1 0x1 PUSH1 0x1 PUSH1 0xA0 SHL SUB SWAP1 DUP2 AND PUSH1 0x20 DUP6 ADD MSTORE PUSH1 0x2 DUP3 ADD SLOAD DUP2 AND PUSH1 0x40 DUP6 ADD MSTORE PUSH1 0x3 DUP3 ADD SLOAD AND PUSH1 0x60 DUP5 ADD MSTORE PUSH2 0xC5E PUSH1 0x4 DUP3 ADD PUSH2 0x19FB JUMP JUMPDEST POP PUSH1 0xC9 SLOAD DUP2 GT ISZERO PUSH2 0xD49 JUMP JUMPDEST CALLVALUE PUSH2 0x1AB JUMPI PUSH1 0x0 CALLDATASIZE PUSH1 0x3 NOT ADD SLT PUSH2 0x1AB JUMPI PUSH2 0xDD2 PUSH2 0x1B98 JUMP JUMPDEST PUSH1 0x33 DUP1 SLOAD PUSH1 0x1 PUSH1 0x1 PUSH1 0xA0 SHL SUB NOT DUP2 AND SWAP1 SWAP2 SSTORE PUSH1 0x0 SWAP1 PUSH1 0x1 PUSH1 0x1 PUSH1 0xA0 SHL SUB AND PUSH32 0x8BE0079C531659141344CD1FD0A4F28419497F9722A3DAAFE3B4186F6B6457E0 DUP3 DUP1 LOG3 STOP JUMPDEST CALLVALUE PUSH2 0x1AB JUMPI PUSH1 0x0 CALLDATASIZE PUSH1 0x3 NOT ADD SLT PUSH2 0x1AB JUMPI PUSH1 0xCD SLOAD PUSH1 0x40 MLOAD PUSH1 0x1 PUSH1 0x1 PUSH1 0xA0 SHL SUB SWAP1 SWAP2 AND DUP2 MSTORE PUSH1 0x20 SWAP1 RETURN JUMPDEST CALLVALUE PUSH2 0x1AB JUMPI PUSH1 0x20 CALLDATASIZE PUSH1 0x3 NOT ADD SLT PUSH2 0x1AB JUMPI PUSH2 0xE58 PUSH2 0x1B98 JUMP JUMPDEST PUSH1 0x4 CALLDATALOAD PUSH1 0xCF SSTORE STOP JUMPDEST CALLVALUE PUSH2 0x1AB JUMPI PUSH1 0x0 CALLDATASIZE PUSH1 0x3 NOT ADD SLT PUSH2 0x1AB JUMPI PUSH32 0x0 PUSH1 0x1 PUSH1 0x1 PUSH1 0xA0 SHL SUB AND ADDRESS SUB PUSH2 0xEB9 JUMPI PUSH1 0x20 PUSH1 0x40 MLOAD PUSH1 0x0 DUP1 MLOAD PUSH1 0x20 PUSH2 0x2000 DUP4 CODECOPY DUP2 MLOAD SWAP2 MSTORE DUP2 MSTORE RETURN JUMPDEST PUSH1 0x40 MLOAD PUSH3 0x461BCD PUSH1 0xE5 SHL DUP2 MSTORE PUSH1 0x20 PUSH1 0x4 DUP3 ADD MSTORE PUSH1 0x38 PUSH1 0x24 DUP3 ADD MSTORE PUSH32 0x555550535570677261646561626C653A206D757374206E6F742062652063616C PUSH1 0x44 DUP3 ADD MSTORE PUSH32 0x6C6564207468726F7567682064656C656761746563616C6C0000000000000000 PUSH1 0x64 DUP3 ADD MSTORE PUSH1 0x84 SWAP1 REVERT JUMPDEST CALLVALUE PUSH2 0x1AB JUMPI PUSH1 0x20 CALLDATASIZE PUSH1 0x3 NOT ADD SLT PUSH2 0x1AB JUMPI PUSH1 0x4 CALLDATALOAD PUSH1 0x0 MSTORE PUSH1 0xCA PUSH1 0x20 MSTORE PUSH1 0x40 PUSH1 0x0 KECCAK256 DUP1 SLOAD PUSH1 0x1 DUP1 PUSH1 0xA0 SHL SUB SWAP2 DUP3 PUSH1 0x1 DUP3 ADD SLOAD AND SWAP3 DUP1 PUSH1 0x2 DUP4 ADD SLOAD AND SWAP1 PUSH1 0x3 DUP4 ADD SLOAD AND SWAP2 PUSH2 0xF72 PUSH1 0x4 DUP3 ADD PUSH2 0x19FB JUMP JUMPDEST SWAP3 PUSH2 0xFD5 PUSH2 0xF82 PUSH1 0x5 DUP5 ADD PUSH2 0x19FB JUMP JUMPDEST PUSH2 0xFC7 PUSH1 0x6 DUP6 ADD SLOAD SWAP7 PUSH1 0x7 DUP7 ADD SLOAD SWAP5 PUSH1 0x9 PUSH1 0xFF PUSH1 0x8 DUP10 ADD SLOAD AND SWAP8 ADD SLOAD SWAP8 PUSH1 0x40 MLOAD SWAP12 DUP13 SWAP12 DUP13 MSTORE PUSH1 0x20 DUP13 ADD MSTORE PUSH1 0x40 DUP12 ADD MSTORE PUSH1 0x60 DUP11 ADD MSTORE PUSH2 0x140 DUP1 PUSH1 0x80 DUP12 ADD MSTORE DUP10 ADD SWAP1 PUSH2 0x1AA1 JUMP JUMPDEST SWAP1 DUP8 DUP3 SUB PUSH1 0xA0 DUP10 ADD MSTORE PUSH2 0x1AA1 JUMP JUMPDEST SWAP4 PUSH1 0xC0 DUP7 ADD MSTORE PUSH1 0xE0 DUP6 ADD MSTORE ISZERO ISZERO PUSH2 0x100 DUP5 ADD MSTORE PUSH2 0x120 DUP4 ADD MSTORE SUB SWAP1 RETURN JUMPDEST PUSH1 0x40 CALLDATASIZE PUSH1 0x3 NOT ADD SLT PUSH2 0x1AB JUMPI PUSH2 0x1006 PUSH2 0x1901 JUMP JUMPDEST PUSH1 0x24 CALLDATALOAD PUSH1 0x1 PUSH1 0x1 PUSH1 0x40 SHL SUB DUP2 GT PUSH2 0x1AB JUMPI CALLDATASIZE PUSH1 0x23 DUP3 ADD SLT ISZERO PUSH2 0x1AB JUMPI PUSH2 0x1036 SWAP1 CALLDATASIZE SWAP1 PUSH1 0x24 DUP2 PUSH1 0x4 ADD CALLDATALOAD SWAP2 ADD PUSH2 0x198A JUMP JUMPDEST PUSH1 0x1 PUSH1 0x1 PUSH1 0xA0 SHL SUB PUSH32 0x0 DUP2 AND SWAP2 SWAP1 PUSH2 0x106F ADDRESS DUP5 EQ ISZERO PUSH2 0x1C39 JUMP JUMPDEST PUSH2 0x108C PUSH1 0x0 DUP1 MLOAD PUSH1 0x20 PUSH2 0x2000 DUP4 CODECOPY DUP2 MLOAD SWAP2 MSTORE SWAP4 DUP3 DUP6 SLOAD AND EQ PUSH2 0x1C9A JUMP JUMPDEST PUSH2 0x1094 PUSH2 0x1B98 JUMP JUMPDEST PUSH32 0x4910FDFA16FED3260ED0E7147F7CC6DA11A60208B5B9406D12A635614FFD9143 SLOAD PUSH1 0xFF AND ISZERO PUSH2 0x10CA JUMPI POP POP POP PUSH2 0x155 SWAP1 PUSH2 0x1CFB JUMP JUMPDEST DUP4 AND PUSH1 0x40 MLOAD SWAP3 PUSH4 0x52D1902D PUSH1 0xE0 SHL DUP5 MSTORE PUSH1 0x20 SWAP4 DUP5 DUP2 PUSH1 0x4 DUP2 DUP7 GAS STATICCALL PUSH1 0x0 SWAP2 DUP2 PUSH2 0x1281 JUMPI JUMPDEST POP PUSH2 0x114F JUMPI PUSH1 0x40 MLOAD PUSH3 0x461BCD PUSH1 0xE5 SHL DUP2 MSTORE PUSH1 0x4 DUP2 ADD DUP7 SWAP1 MSTORE PUSH1 0x2E PUSH1 0x24 DUP3 ADD MSTORE PUSH32 0x45524331393637557067726164653A206E657720696D706C656D656E74617469 PUSH1 0x44 DUP3 ADD MSTORE PUSH14 0x6F6E206973206E6F742055555053 PUSH1 0x90 SHL PUSH1 0x64 DUP3 ADD MSTORE PUSH1 0x84 SWAP1 REVERT JUMPDEST SWAP4 SWAP3 SWAP4 SUB PUSH2 0x122A JUMPI PUSH2 0x1160 DUP5 PUSH2 0x1CFB JUMP JUMPDEST PUSH32 0xBC7CD75A20EE27FD9ADEBAB32041F755214DBC6BFFA90CC0225B39DA2E5C2D3B PUSH1 0x0 DUP1 LOG2 DUP2 MLOAD ISZERO DUP1 ISZERO SWAP1 PUSH2 0x1222 JUMPI JUMPDEST PUSH2 0x1196 JUMPI STOP JUMPDEST PUSH2 0x155 SWAP3 PUSH1 0x0 DUP1 PUSH1 0x40 MLOAD SWAP5 PUSH2 0x11AA DUP7 PUSH2 0x1933 JUMP JUMPDEST PUSH1 0x27 DUP7 MSTORE PUSH32 0x416464726573733A206C6F772D6C6576656C2064656C65676174652063616C6C DUP6 DUP8 ADD MSTORE PUSH7 0x819985A5B1959 PUSH1 0xCA SHL PUSH1 0x40 DUP8 ADD MSTORE DUP5 DUP2 MLOAD SWAP2 ADD DUP5 GAS DELEGATECALL SWAP1 RETURNDATASIZE ISZERO PUSH2 0x1219 JUMPI RETURNDATASIZE PUSH2 0x11FC DUP2 PUSH2 0x196F JUMP JUMPDEST SWAP1 PUSH2 0x120A PUSH1 0x40 MLOAD SWAP3 DUP4 PUSH2 0x194E JUMP JUMPDEST DUP2 MSTORE PUSH1 0x0 DUP2 SWAP5 RETURNDATASIZE SWAP3 ADD RETURNDATACOPY PUSH2 0x1D8B JUMP JUMPDEST PUSH1 0x60 SWAP3 POP PUSH2 0x1D8B JUMP JUMPDEST POP PUSH1 0x1 PUSH2 0x1190 JUMP JUMPDEST PUSH1 0x40 MLOAD PUSH3 0x461BCD PUSH1 0xE5 SHL DUP2 MSTORE PUSH1 0x4 DUP2 ADD DUP4 SWAP1 MSTORE PUSH1 0x29 PUSH1 0x24 DUP3 ADD MSTORE PUSH32 0x45524331393637557067726164653A20756E737570706F727465642070726F78 PUSH1 0x44 DUP3 ADD MSTORE PUSH9 0x1A58589B1955555251 PUSH1 0xBA SHL PUSH1 0x64 DUP3 ADD MSTORE PUSH1 0x84 SWAP1 REVERT JUMPDEST SWAP1 SWAP2 POP DUP6 DUP2 DUP2 RETURNDATASIZE DUP4 GT PUSH2 0x12A9 JUMPI JUMPDEST PUSH2 0x1299 DUP2 DUP4 PUSH2 0x194E JUMP JUMPDEST DUP2 ADD SUB SLT PUSH2 0x1AB JUMPI MLOAD SWAP1 DUP8 PUSH2 0x10EE JUMP JUMPDEST POP RETURNDATASIZE PUSH2 0x128F JUMP JUMPDEST CALLVALUE PUSH2 0x1AB JUMPI PUSH1 0x20 CALLDATASIZE PUSH1 0x3 NOT ADD SLT PUSH2 0x1AB JUMPI PUSH2 0x12C9 PUSH2 0x1901 JUMP JUMPDEST PUSH2 0x12D1 PUSH2 0x1B98 JUMP JUMPDEST PUSH1 0xCD DUP1 SLOAD PUSH1 0x1 PUSH1 0x1 PUSH1 0xA0 SHL SUB NOT AND PUSH1 0x1 PUSH1 0x1 PUSH1 0xA0 SHL SUB SWAP3 SWAP1 SWAP3 AND SWAP2 SWAP1 SWAP2 OR SWAP1 SSTORE STOP JUMPDEST CALLVALUE PUSH2 0x1AB JUMPI PUSH1 0x0 CALLDATASIZE PUSH1 0x3 NOT ADD SLT PUSH2 0x1AB JUMPI PUSH1 0xC9 SLOAD PUSH2 0x1310 DUP2 PUSH2 0x1F7E JUMP JUMPDEST SWAP1 PUSH1 0x0 SWAP2 PUSH1 0x1 SWAP2 DUP3 JUMPDEST DUP2 DUP2 GT ISZERO PUSH2 0x139F JUMPI POP POP PUSH2 0x132C DUP4 PUSH2 0x1F7E JUMP JUMPDEST SWAP3 PUSH1 0x0 JUMPDEST DUP2 DUP2 LT PUSH2 0x1376 JUMPI POP POP POP PUSH1 0x40 MLOAD SWAP1 PUSH1 0x20 DUP1 DUP4 ADD DUP2 DUP5 MSTORE DUP5 MLOAD DUP1 SWAP2 MSTORE DUP2 PUSH1 0x40 DUP6 ADD SWAP6 ADD SWAP2 PUSH1 0x0 JUMPDEST DUP3 DUP2 LT PUSH2 0x1363 JUMPI DUP6 DUP8 SUB DUP7 RETURN JUMPDEST DUP4 MLOAD DUP8 MSTORE SWAP6 DUP2 ADD SWAP6 SWAP3 DUP2 ADD SWAP3 DUP5 ADD PUSH2 0x1356 JUMP JUMPDEST DUP1 PUSH2 0x1386 PUSH2 0x1397 SWAP3 DUP6 SWAP8 SWAP6 PUSH2 0x1FD5 JUMP JUMPDEST MLOAD PUSH2 0x1391 DUP3 DUP7 PUSH2 0x1FD5 JUMP JUMPDEST MSTORE PUSH2 0x1FB0 JUMP JUMPDEST SWAP4 SWAP2 SWAP4 PUSH2 0x1330 JUMP JUMPDEST DUP1 PUSH1 0x0 SWAP6 SWAP4 SWAP6 MSTORE PUSH1 0xCA PUSH1 0x20 MSTORE PUSH1 0xFF PUSH1 0x8 PUSH1 0x40 PUSH1 0x0 KECCAK256 ADD SLOAD AND PUSH2 0x13CD JUMPI JUMPDEST PUSH2 0x13C5 SWAP1 PUSH2 0x1FB0 JUMP JUMPDEST SWAP4 SWAP2 SWAP4 PUSH2 0x1319 JUMP JUMPDEST SWAP2 PUSH2 0x13E0 DUP2 DUP5 PUSH2 0x1391 PUSH2 0x13C5 SWAP5 DUP10 PUSH2 0x1FD5 JUMP JUMPDEST SWAP3 SWAP1 POP PUSH2 0x13BC JUMP JUMPDEST CALLVALUE PUSH2 0x1AB JUMPI PUSH1 0x0 CALLDATASIZE PUSH1 0x3 NOT ADD SLT PUSH2 0x1AB JUMPI PUSH2 0x1401 PUSH2 0x1B98 JUMP JUMPDEST PUSH1 0x0 DUP1 DUP1 DUP1 PUSH1 0x1 DUP1 PUSH1 0xA0 SHL SUB PUSH1 0x33 SLOAD AND SELFBALANCE SWAP1 DUP3 DUP3 ISZERO PUSH2 0x1423 JUMPI JUMPDEST CALL ISZERO PUSH2 0x747 JUMPI STOP JUMPDEST POP PUSH2 0x8FC PUSH2 0x141B JUMP JUMPDEST CALLVALUE PUSH2 0x1AB JUMPI PUSH1 0x20 DUP1 PUSH1 0x3 NOT CALLDATASIZE ADD SLT PUSH2 0x1AB JUMPI PUSH2 0x1446 PUSH2 0x1901 JUMP JUMPDEST PUSH1 0x1 PUSH1 0x1 PUSH1 0xA0 SHL SUB SWAP2 PUSH32 0x0 DUP4 AND PUSH2 0x147E ADDRESS DUP3 EQ ISZERO PUSH2 0x1C39 JUMP JUMPDEST PUSH2 0x149B PUSH1 0x0 DUP1 MLOAD PUSH1 0x20 PUSH2 0x2000 DUP4 CODECOPY DUP2 MLOAD SWAP2 MSTORE SWAP2 DUP6 DUP4 SLOAD AND EQ PUSH2 0x1C9A JUMP JUMPDEST PUSH2 0x14A3 PUSH2 0x1B98 JUMP JUMPDEST PUSH1 0x40 MLOAD SWAP1 DUP3 DUP3 ADD SWAP5 DUP3 DUP7 LT PUSH1 0x1 PUSH1 0x1 PUSH1 0x40 SHL SUB DUP8 GT OR PUSH2 0x731 JUMPI DUP6 PUSH1 0x40 MSTORE PUSH1 0x0 DUP4 MSTORE PUSH1 0xFF PUSH32 0x4910FDFA16FED3260ED0E7147F7CC6DA11A60208B5B9406D12A635614FFD9143 SLOAD AND PUSH1 0x0 EQ PUSH2 0x14FF JUMPI POP POP POP POP PUSH2 0x155 SWAP2 POP PUSH2 0x1CFB JUMP JUMPDEST DUP5 SWAP3 SWAP4 SWAP5 AND SWAP1 PUSH1 0x40 MLOAD PUSH4 0x52D1902D PUSH1 0xE0 SHL DUP2 MSTORE DUP6 DUP2 PUSH1 0x4 DUP2 DUP7 GAS STATICCALL PUSH1 0x0 SWAP2 DUP2 PUSH2 0x168D JUMPI JUMPDEST POP PUSH2 0x1584 JUMPI PUSH1 0x40 MLOAD PUSH3 0x461BCD PUSH1 0xE5 SHL DUP2 MSTORE PUSH1 0x4 DUP2 ADD DUP8 SWAP1 MSTORE PUSH1 0x2E PUSH1 0x24 DUP3 ADD MSTORE PUSH32 0x45524331393637557067726164653A206E657720696D706C656D656E74617469 PUSH1 0x44 DUP3 ADD MSTORE PUSH14 0x6F6E206973206E6F742055555053 PUSH1 0x90 SHL PUSH1 0x64 DUP3 ADD MSTORE PUSH1 0x84 SWAP1 REVERT JUMPDEST SWAP5 SWAP4 SWAP5 SUB PUSH2 0x1636 JUMPI PUSH2 0x1595 DUP3 PUSH2 0x1CFB JUMP JUMPDEST PUSH32 0xBC7CD75A20EE27FD9ADEBAB32041F755214DBC6BFFA90CC0225B39DA2E5C2D3B PUSH1 0x0 DUP1 LOG2 DUP3 MLOAD ISZERO DUP1 ISZERO SWAP1 PUSH2 0x162E JUMPI JUMPDEST PUSH2 0x15CB JUMPI STOP JUMPDEST PUSH1 0x0 DUP1 PUSH2 0x155 SWAP6 PUSH1 0x40 MLOAD SWAP6 PUSH2 0x15DF DUP8 PUSH2 0x1933 JUMP JUMPDEST PUSH1 0x27 DUP8 MSTORE PUSH32 0x416464726573733A206C6F772D6C6576656C2064656C65676174652063616C6C DUP7 DUP9 ADD MSTORE PUSH7 0x819985A5B1959 PUSH1 0xCA SHL PUSH1 0x40 DUP9 ADD MSTORE MLOAD SWAP1 DUP5 GAS DELEGATECALL SWAP1 RETURNDATASIZE ISZERO PUSH2 0x1219 JUMPI RETURNDATASIZE PUSH2 0x11FC DUP2 PUSH2 0x196F JUMP JUMPDEST POP PUSH1 0x0 PUSH2 0x15C5 JUMP JUMPDEST PUSH1 0x40 MLOAD PUSH3 0x461BCD PUSH1 0xE5 SHL DUP2 MSTORE PUSH1 0x4 DUP2 ADD DUP5 SWAP1 MSTORE PUSH1 0x29 PUSH1 0x24 DUP3 ADD MSTORE PUSH32 0x45524331393637557067726164653A20756E737570706F727465642070726F78 PUSH1 0x44 DUP3 ADD MSTORE PUSH9 0x1A58589B1955555251 PUSH1 0xBA SHL PUSH1 0x64 DUP3 ADD MSTORE PUSH1 0x84 SWAP1 REVERT JUMPDEST SWAP1 SWAP2 POP DUP7 DUP2 DUP2 RETURNDATASIZE DUP4 GT PUSH2 0x16B5 JUMPI JUMPDEST PUSH2 0x16A5 DUP2 DUP4 PUSH2 0x194E JUMP JUMPDEST DUP2 ADD SUB SLT PUSH2 0x1AB JUMPI MLOAD SWAP1 DUP9 PUSH2 0x1523 JUMP JUMPDEST POP RETURNDATASIZE PUSH2 0x169B JUMP JUMPDEST CALLVALUE PUSH2 0x1AB JUMPI PUSH1 0x20 CALLDATASIZE PUSH1 0x3 NOT ADD SLT PUSH2 0x1AB JUMPI PUSH1 0x1 PUSH1 0x1 PUSH1 0xA0 SHL SUB PUSH2 0x16DD PUSH2 0x1901 JUMP JUMPDEST AND PUSH1 0x0 MSTORE PUSH1 0xCC PUSH1 0x20 MSTORE PUSH1 0x20 PUSH1 0x40 PUSH1 0x0 KECCAK256 SLOAD PUSH1 0x40 MLOAD SWAP1 DUP2 MSTORE RETURN JUMPDEST CALLVALUE PUSH2 0x1AB JUMPI PUSH1 0x20 CALLDATASIZE PUSH1 0x3 NOT ADD SLT PUSH2 0x1AB JUMPI PUSH2 0x170F PUSH2 0x1901 JUMP JUMPDEST PUSH2 0x1717 PUSH2 0x1B98 JUMP JUMPDEST PUSH1 0xCE DUP1 SLOAD PUSH1 0x1 PUSH1 0x1 PUSH1 0xA0 SHL SUB NOT AND PUSH1 0x1 PUSH1 0x1 PUSH1 0xA0 SHL SUB SWAP3 SWAP1 SWAP3 AND SWAP2 SWAP1 SWAP2 OR SWAP1 SSTORE STOP JUMPDEST CALLVALUE PUSH2 0x1AB JUMPI PUSH1 0x20 CALLDATASIZE PUSH1 0x3 NOT ADD SLT PUSH2 0x1AB JUMPI PUSH1 0x1 PUSH1 0x1 PUSH1 0xA0 SHL SUB PUSH2 0x175A PUSH2 0x1901 JUMP JUMPDEST AND PUSH1 0x0 MSTORE PUSH1 0xCB PUSH1 0x20 MSTORE PUSH1 0x20 PUSH1 0x40 PUSH1 0x0 KECCAK256 SLOAD PUSH1 0x40 MLOAD SWAP1 DUP2 MSTORE RETURN JUMPDEST CALLVALUE PUSH2 0x1AB JUMPI PUSH1 0x60 CALLDATASIZE PUSH1 0x3 NOT ADD SLT PUSH2 0x1AB JUMPI PUSH2 0x178C PUSH2 0x1901 JUMP JUMPDEST PUSH1 0x1 PUSH1 0x1 PUSH1 0xA0 SHL SUB SWAP2 SWAP1 PUSH1 0x24 CALLDATALOAD DUP4 DUP2 AND SWAP2 SWAP1 DUP3 SWAP1 SUB PUSH2 0x1AB JUMPI PUSH1 0x0 SLOAD PUSH1 0xFF DUP2 PUSH1 0x8 SHR AND ISZERO SWAP4 DUP5 DUP1 SWAP6 PUSH2 0x18F4 JUMPI JUMPDEST DUP1 ISZERO PUSH2 0x18DD JUMPI JUMPDEST ISZERO PUSH2 0x1884 JUMPI POP PUSH1 0xFF NOT DUP2 AND PUSH1 0x1 OR PUSH1 0x0 SSTORE DUP4 PUSH2 0x1872 JUMPI JUMPDEST POP PUSH2 0x17F2 PUSH1 0xFF PUSH1 0x0 SLOAD PUSH1 0x8 SHR AND PUSH2 0x17ED DUP2 PUSH2 0x1E28 JUMP JUMPDEST PUSH2 0x1E28 JUMP JUMPDEST PUSH2 0x17FB CALLER PUSH2 0x1BF0 JUMP JUMPDEST PUSH1 0x0 SLOAD SWAP4 PUSH2 0x180E PUSH1 0xFF DUP7 PUSH1 0x8 SHR AND PUSH2 0x1E28 JUMP JUMPDEST PUSH12 0xFFFFFFFFFFFFFFFFFFFFFFFF PUSH1 0xA0 SHL SWAP2 AND DUP2 PUSH1 0xCD SLOAD AND OR PUSH1 0xCD SSTORE PUSH1 0xCE SLOAD AND OR PUSH1 0xCE SSTORE PUSH1 0x44 CALLDATALOAD PUSH1 0xCF SSTORE PUSH2 0x183D JUMPI STOP JUMPDEST PUSH2 0xFF00 NOT AND PUSH1 0x0 SSTORE PUSH32 0x7F26B83FF96E1F2B6A682F133852F6798A09C465DA95921460CEFB3847402498 PUSH1 0x20 PUSH1 0x40 MLOAD PUSH1 0x1 DUP2 MSTORE LOG1 STOP JUMPDEST PUSH2 0xFFFF NOT AND PUSH2 0x101 OR PUSH1 0x0 SSTORE DUP5 PUSH2 0x17D7 JUMP JUMPDEST PUSH3 0x461BCD PUSH1 0xE5 SHL DUP2 MSTORE PUSH1 0x20 PUSH1 0x4 DUP3 ADD MSTORE PUSH1 0x2E PUSH1 0x24 DUP3 ADD MSTORE PUSH32 0x496E697469616C697A61626C653A20636F6E747261637420697320616C726561 PUSH1 0x44 DUP3 ADD MSTORE PUSH14 0x191E481A5B9A5D1A585B1A5E9959 PUSH1 0x92 SHL PUSH1 0x64 DUP3 ADD MSTORE PUSH1 0x84 SWAP1 REVERT JUMPDEST POP ADDRESS EXTCODESIZE ISZERO DUP1 ISZERO PUSH2 0x17C0 JUMPI POP PUSH1 0x1 PUSH1 0xFF DUP4 AND EQ PUSH2 0x17C0 JUMP JUMPDEST POP PUSH1 0x1 PUSH1 0xFF DUP4 AND LT PUSH2 0x17B9 JUMP JUMPDEST PUSH1 0x4 CALLDATALOAD SWAP1 PUSH1 0x1 PUSH1 0x1 PUSH1 0xA0 SHL SUB DUP3 AND DUP3 SUB PUSH2 0x1AB JUMPI JUMP JUMPDEST PUSH2 0x140 DUP2 ADD SWAP1 DUP2 LT PUSH1 0x1 PUSH1 0x1 PUSH1 0x40 SHL SUB DUP3 GT OR PUSH2 0x731 JUMPI PUSH1 0x40 MSTORE JUMP JUMPDEST PUSH1 0x60 DUP2 ADD SWAP1 DUP2 LT PUSH1 0x1 PUSH1 0x1 PUSH1 0x40 SHL SUB DUP3 GT OR PUSH2 0x731 JUMPI PUSH1 0x40 MSTORE JUMP JUMPDEST SWAP1 PUSH1 0x1F DUP1 NOT SWAP2 ADD AND DUP2 ADD SWAP1 DUP2 LT PUSH1 0x1 PUSH1 0x1 PUSH1 0x40 SHL SUB DUP3 GT OR PUSH2 0x731 JUMPI PUSH1 0x40 MSTORE JUMP JUMPDEST PUSH1 0x1 PUSH1 0x1 PUSH1 0x40 SHL SUB DUP2 GT PUSH2 0x731 JUMPI PUSH1 0x1F ADD PUSH1 0x1F NOT AND PUSH1 0x20 ADD SWAP1 JUMP JUMPDEST SWAP3 SWAP2 SWAP3 PUSH2 0x1996 DUP3 PUSH2 0x196F JUMP JUMPDEST SWAP2 PUSH2 0x19A4 PUSH1 0x40 MLOAD SWAP4 DUP5 PUSH2 0x194E JUMP JUMPDEST DUP3 SWAP5 DUP2 DUP5 MSTORE DUP2 DUP4 ADD GT PUSH2 0x1AB JUMPI DUP3 DUP2 PUSH1 0x20 SWAP4 DUP5 PUSH1 0x0 SWAP7 ADD CALLDATACOPY ADD ADD MSTORE JUMP JUMPDEST SWAP1 PUSH1 0x1 DUP3 DUP2 SHR SWAP3 AND DUP1 ISZERO PUSH2 0x19F1 JUMPI JUMPDEST PUSH1 0x20 DUP4 LT EQ PUSH2 0x19DB JUMPI JUMP JUMPDEST PUSH4 0x4E487B71 PUSH1 0xE0 SHL PUSH1 0x0 MSTORE PUSH1 0x22 PUSH1 0x4 MSTORE PUSH1 0x24 PUSH1 0x0 REVERT JUMPDEST SWAP2 PUSH1 0x7F AND SWAP2 PUSH2 0x19D0 JUMP JUMPDEST SWAP1 PUSH1 0x40 MLOAD SWAP2 DUP3 PUSH1 0x0 DUP3 SLOAD SWAP3 PUSH2 0x1A0F DUP5 PUSH2 0x19C1 JUMP JUMPDEST SWAP1 DUP2 DUP5 MSTORE PUSH1 0x1 SWAP5 DUP6 DUP2 AND SWAP1 DUP2 PUSH1 0x0 EQ PUSH2 0x1A7E JUMPI POP PUSH1 0x1 EQ PUSH2 0x1A3B JUMPI JUMPDEST POP POP PUSH2 0x1A39 SWAP3 POP SUB DUP4 PUSH2 0x194E JUMP JUMPDEST JUMP JUMPDEST SWAP1 SWAP4 SWAP2 POP PUSH1 0x0 MSTORE PUSH1 0x20 SWAP1 DUP2 PUSH1 0x0 KECCAK256 SWAP4 PUSH1 0x0 SWAP2 JUMPDEST DUP2 DUP4 LT PUSH2 0x1A66 JUMPI POP POP PUSH2 0x1A39 SWAP4 POP DUP3 ADD ADD CODESIZE DUP1 PUSH2 0x1A2B JUMP JUMPDEST DUP6 SLOAD DUP9 DUP5 ADD DUP6 ADD MSTORE SWAP5 DUP6 ADD SWAP5 DUP8 SWAP5 POP SWAP2 DUP4 ADD SWAP2 PUSH2 0x1A4E JUMP JUMPDEST SWAP2 POP POP PUSH2 0x1A39 SWAP5 POP PUSH1 0x20 SWAP3 POP PUSH1 0xFF NOT AND DUP3 DUP5 ADD MSTORE ISZERO ISZERO PUSH1 0x5 SHL DUP3 ADD ADD CODESIZE DUP1 PUSH2 0x1A2B JUMP JUMPDEST SWAP2 SWAP1 DUP3 MLOAD SWAP3 DUP4 DUP3 MSTORE PUSH1 0x0 JUMPDEST DUP5 DUP2 LT PUSH2 0x1ACD JUMPI POP POP DUP3 PUSH1 0x0 PUSH1 0x20 DUP1 SWAP5 SWAP6 DUP5 ADD ADD MSTORE PUSH1 0x1F DUP1 NOT SWAP2 ADD AND ADD ADD SWAP1 JUMP JUMPDEST PUSH1 0x20 DUP2 DUP4 ADD DUP2 ADD MLOAD DUP5 DUP4 ADD DUP3 ADD MSTORE ADD PUSH2 0x1AAC JUMP JUMPDEST PUSH1 0x20 DUP2 MSTORE DUP2 MLOAD PUSH1 0x20 DUP3 ADD MSTORE PUSH1 0x1 DUP1 PUSH1 0xA0 SHL SUB DUP1 PUSH1 0x20 DUP5 ADD MLOAD AND PUSH1 0x40 DUP4 ADD MSTORE DUP1 PUSH1 0x40 DUP5 ADD MLOAD AND PUSH1 0x60 DUP4 ADD MSTORE PUSH1 0x60 DUP4 ADD MLOAD AND PUSH1 0x80 DUP3 ADD MSTORE PUSH1 0x80 DUP3 ADD MLOAD PUSH2 0x1B4C PUSH2 0x1B36 PUSH2 0x140 SWAP3 DUP4 PUSH1 0xA0 DUP7 ADD MSTORE PUSH2 0x160 DUP6 ADD SWAP1 PUSH2 0x1AA1 JUMP JUMPDEST PUSH1 0xA0 DUP6 ADD MLOAD DUP5 DUP3 SUB PUSH1 0x1F NOT ADD PUSH1 0xC0 DUP7 ADD MSTORE PUSH2 0x1AA1 JUMP JUMPDEST SWAP3 PUSH1 0xC0 DUP2 ADD MLOAD PUSH1 0xE0 DUP5 ADD MSTORE PUSH1 0xE0 DUP2 ADD MLOAD PUSH2 0x100 SWAP1 DUP2 DUP6 ADD MSTORE DUP2 ADD MLOAD ISZERO ISZERO SWAP1 PUSH2 0x120 SWAP2 DUP3 DUP6 ADD MSTORE ADD MLOAD SWAP2 ADD MSTORE SWAP1 JUMP JUMPDEST SWAP1 DUP1 PUSH1 0x1F DUP4 ADD SLT ISZERO PUSH2 0x1AB JUMPI DUP2 PUSH1 0x20 PUSH2 0x1B95 SWAP4 CALLDATALOAD SWAP2 ADD PUSH2 0x198A JUMP JUMPDEST SWAP1 JUMP JUMPDEST PUSH1 0x33 SLOAD PUSH1 0x1 PUSH1 0x1 PUSH1 0xA0 SHL SUB AND CALLER SUB PUSH2 0x1BAC JUMPI JUMP JUMPDEST PUSH1 0x64 PUSH1 0x40 MLOAD PUSH3 0x461BCD PUSH1 0xE5 SHL DUP2 MSTORE PUSH1 0x20 PUSH1 0x4 DUP3 ADD MSTORE PUSH1 0x20 PUSH1 0x24 DUP3 ADD MSTORE PUSH32 0x4F776E61626C653A2063616C6C6572206973206E6F7420746865206F776E6572 PUSH1 0x44 DUP3 ADD MSTORE REVERT JUMPDEST PUSH1 0x33 DUP1 SLOAD PUSH1 0x1 PUSH1 0x1 PUSH1 0xA0 SHL SUB SWAP3 DUP4 AND PUSH1 0x1 PUSH1 0x1 PUSH1 0xA0 SHL SUB NOT DUP3 AND DUP2 OR SWAP1 SWAP3 SSTORE SWAP1 SWAP2 AND PUSH32 0x8BE0079C531659141344CD1FD0A4F28419497F9722A3DAAFE3B4186F6B6457E0 PUSH1 0x0 DUP1 LOG3 JUMP JUMPDEST ISZERO PUSH2 0x1C40 JUMPI JUMP JUMPDEST PUSH1 0x40 MLOAD PUSH3 0x461BCD PUSH1 0xE5 SHL DUP2 MSTORE PUSH1 0x20 PUSH1 0x4 DUP3 ADD MSTORE PUSH1 0x2C PUSH1 0x24 DUP3 ADD MSTORE PUSH32 0x46756E6374696F6E206D7573742062652063616C6C6564207468726F75676820 PUSH1 0x44 DUP3 ADD MSTORE PUSH12 0x19195B1959D85D1958D85B1B PUSH1 0xA2 SHL PUSH1 0x64 DUP3 ADD MSTORE PUSH1 0x84 SWAP1 REVERT JUMPDEST ISZERO PUSH2 0x1CA1 JUMPI JUMP JUMPDEST PUSH1 0x40 MLOAD PUSH3 0x461BCD PUSH1 0xE5 SHL DUP2 MSTORE PUSH1 0x20 PUSH1 0x4 DUP3 ADD MSTORE PUSH1 0x2C PUSH1 0x24 DUP3 ADD MSTORE PUSH32 0x46756E6374696F6E206D7573742062652063616C6C6564207468726F75676820 PUSH1 0x44 DUP3 ADD MSTORE PUSH12 0x6163746976652070726F7879 PUSH1 0xA0 SHL PUSH1 0x64 DUP3 ADD MSTORE PUSH1 0x84 SWAP1 REVERT JUMPDEST DUP1 EXTCODESIZE ISZERO PUSH2 0x1D30 JUMPI PUSH1 0x0 DUP1 MLOAD PUSH1 0x20 PUSH2 0x2000 DUP4 CODECOPY DUP2 MLOAD SWAP2 MSTORE DUP1 SLOAD PUSH1 0x1 PUSH1 0x1 PUSH1 0xA0 SHL SUB NOT AND PUSH1 0x1 PUSH1 0x1 PUSH1 0xA0 SHL SUB SWAP1 SWAP3 AND SWAP2 SWAP1 SWAP2 OR SWAP1 SSTORE JUMP JUMPDEST PUSH1 0x40 MLOAD PUSH3 0x461BCD PUSH1 0xE5 SHL DUP2 MSTORE PUSH1 0x20 PUSH1 0x4 DUP3 ADD MSTORE PUSH1 0x2D PUSH1 0x24 DUP3 ADD MSTORE PUSH32 0x455243313936373A206E657720696D706C656D656E746174696F6E206973206E PUSH1 0x44 DUP3 ADD MSTORE PUSH13 0x1BDD08184818DBDB9D1C9858DD PUSH1 0x9A SHL PUSH1 0x64 DUP3 ADD MSTORE PUSH1 0x84 SWAP1 REVERT JUMPDEST SWAP2 SWAP3 SWAP1 ISZERO PUSH2 0x1DED JUMPI POP DUP2 MLOAD ISZERO PUSH2 0x1D9F JUMPI POP SWAP1 JUMP JUMPDEST EXTCODESIZE ISZERO PUSH2 0x1DA8 JUMPI SWAP1 JUMP JUMPDEST PUSH1 0x40 MLOAD PUSH3 0x461BCD PUSH1 0xE5 SHL DUP2 MSTORE PUSH1 0x20 PUSH1 0x4 DUP3 ADD MSTORE PUSH1 0x1D PUSH1 0x24 DUP3 ADD MSTORE PUSH32 0x416464726573733A2063616C6C20746F206E6F6E2D636F6E7472616374000000 PUSH1 0x44 DUP3 ADD MSTORE PUSH1 0x64 SWAP1 REVERT JUMPDEST DUP3 MLOAD SWAP1 SWAP2 POP ISZERO PUSH2 0x1E00 JUMPI POP DUP1 MLOAD SWAP1 PUSH1 0x20 ADD REVERT JUMPDEST PUSH1 0x40 MLOAD PUSH3 0x461BCD PUSH1 0xE5 SHL DUP2 MSTORE PUSH1 0x20 PUSH1 0x4 DUP3 ADD MSTORE SWAP1 DUP2 SWAP1 PUSH2 0x1E24 SWAP1 PUSH1 0x24 DUP4 ADD SWAP1 PUSH2 0x1AA1 JUMP JUMPDEST SUB SWAP1 REVERT JUMPDEST ISZERO PUSH2 0x1E2F JUMPI JUMP JUMPDEST PUSH1 0x40 MLOAD PUSH3 0x461BCD PUSH1 0xE5 SHL DUP2 MSTORE PUSH1 0x20 PUSH1 0x4 DUP3 ADD MSTORE PUSH1 0x2B PUSH1 0x24 DUP3 ADD MSTORE PUSH32 0x496E697469616C697A61626C653A20636F6E7472616374206973206E6F742069 PUSH1 0x44 DUP3 ADD MSTORE PUSH11 0x6E697469616C697A696E67 PUSH1 0xA8 SHL PUSH1 0x64 DUP3 ADD MSTORE PUSH1 0x84 SWAP1 REVERT JUMPDEST MLOAD SWAP1 PUSH1 0x1 PUSH1 0x1 PUSH1 0xA0 SHL SUB DUP3 AND DUP3 SUB PUSH2 0x1AB JUMPI JUMP JUMPDEST ISZERO PUSH2 0x1EA3 JUMPI JUMP JUMPDEST PUSH1 0x40 MLOAD PUSH3 0x461BCD PUSH1 0xE5 SHL DUP2 MSTORE PUSH1 0x20 PUSH1 0x4 DUP3 ADD MSTORE PUSH1 0x10 PUSH1 0x24 DUP3 ADD MSTORE PUSH16 0x125B9D985B1A59081D1BDAD95B881251 PUSH1 0x82 SHL PUSH1 0x44 DUP3 ADD MSTORE PUSH1 0x64 SWAP1 REVERT JUMPDEST PUSH1 0x40 MLOAD SWAP1 PUSH2 0x1EE8 DUP3 PUSH2 0x1917 JUMP JUMPDEST DUP2 PUSH2 0x120 PUSH1 0x0 SWAP2 DUP3 DUP2 MSTORE DUP3 PUSH1 0x20 DUP3 ADD MSTORE DUP3 PUSH1 0x40 DUP3 ADD MSTORE DUP3 PUSH1 0x60 DUP3 ADD MSTORE PUSH1 0x60 PUSH1 0x80 DUP3 ADD MSTORE PUSH1 0x60 PUSH1 0xA0 DUP3 ADD MSTORE DUP3 PUSH1 0xC0 DUP3 ADD MSTORE DUP3 PUSH1 0xE0 DUP3 ADD MSTORE DUP3 PUSH2 0x100 DUP3 ADD MSTORE ADD MSTORE JUMP JUMPDEST ISZERO PUSH2 0x1F30 JUMPI JUMP JUMPDEST PUSH1 0x40 MLOAD PUSH3 0x461BCD PUSH1 0xE5 SHL DUP2 MSTORE PUSH1 0x20 PUSH1 0x4 DUP3 ADD MSTORE PUSH1 0xF PUSH1 0x24 DUP3 ADD MSTORE PUSH15 0x151BDAD95B881B9BDD08199BDD5B99 PUSH1 0x8A SHL PUSH1 0x44 DUP3 ADD MSTORE PUSH1 0x64 SWAP1 REVERT JUMPDEST PUSH1 0x1 PUSH1 0x1 PUSH1 0x40 SHL SUB DUP2 GT PUSH2 0x731 JUMPI PUSH1 0x5 SHL PUSH1 0x20 ADD SWAP1 JUMP JUMPDEST SWAP1 PUSH2 0x1F88 DUP3 PUSH2 0x1F67 JUMP JUMPDEST PUSH2 0x1F95 PUSH1 0x40 MLOAD SWAP2 DUP3 PUSH2 0x194E JUMP JUMPDEST DUP3 DUP2 MSTORE DUP1 SWAP3 PUSH2 0x1FA6 PUSH1 0x1F NOT SWAP2 PUSH2 0x1F67 JUMP JUMPDEST ADD SWAP1 PUSH1 0x20 CALLDATASIZE SWAP2 ADD CALLDATACOPY JUMP JUMPDEST PUSH1 0x0 NOT DUP2 EQ PUSH2 0x1FBF JUMPI PUSH1 0x1 ADD SWAP1 JUMP JUMPDEST PUSH4 0x4E487B71 PUSH1 0xE0 SHL PUSH1 0x0 MSTORE PUSH1 0x11 PUSH1 0x4 MSTORE PUSH1 0x24 PUSH1 0x0 REVERT JUMPDEST DUP1 MLOAD DUP3 LT ISZERO PUSH2 0x1FE9 JUMPI PUSH1 0x20 SWAP2 PUSH1 0x5 SHL ADD ADD SWAP1 JUMP JUMPDEST PUSH4 0x4E487B71 PUSH1 0xE0 SHL PUSH1 0x0 MSTORE PUSH1 0x32 PUSH1 0x4 MSTORE PUSH1 0x24 PUSH1 0x0 REVERT INVALID CALLDATASIZE ADDMOD SWAP5 LOG1 EXTCODESIZE LOG1 LOG3 0x21 MOD PUSH8 0xC828492DB98DCA3E KECCAK256 PUSH23 0xCC3735A920A3CA505D382BBCA264697066735822122089 0xC3 0x26 0xD3 PUSH30 0x883B1AE1B4989DF96B1BBAE11B04B3214F9666947FB00066A0F27264736F PUSH13 0x63430008110033000000000000 "},"gasEstimates":{"creation":{"codeDepositCost":"1655400","executionCost":"infinite","totalCost":"infinite"},"external":{"astrologerManager()":"2546","astrologerToTokenId(address)":"2431","deactivateToken(uint256)":"33006","getAllActiveTokens()":"infinite","getTokenByAstrologer(address)":"infinite","getTokenByContract(address)":"infinite","getTokenInfo(uint256)":"infinite","initialize(address,address,uint256)":"infinite","launchFee()":"2676","launchToken(string,string,uint256,uint256,string)":"infinite","owner()":"2634","proxiableUUID()":"infinite","renounceOwnership()":"28349","setAstrologerManager(address)":"26790","setLaunchFee(uint256)":"24645","setTokenFactory(address)":"26680","tokenContractToId(address)":"2475","tokenFactory()":"2722","tokens(uint256)":"infinite","transferOwnership(address)":"28696","upgradeTo(address)":"infinite","upgradeToAndCall(address,bytes)":"infinite","withdraw()":"infinite"},"internal":{"_authorizeUpgrade(address)":"infinite"}},"methodIdentifiers":{"astrologerManager()":"6fd31a41","astrologerToTokenId(address)":"21dd6760","deactivateToken(uint256)":"ec991da9","getAllActiveTokens()":"42fbbf4f","getTokenByAstrologer(address)":"922edb34","getTokenByContract(address)":"8d84289e","getTokenInfo(uint256)":"8c7a63ae","initialize(address,address,uint256)":"1794bb3c","launchFee()":"cf3cf573","launchToken(string,string,uint256,uint256,string)":"ad19748b","owner()":"8da5cb5b","proxiableUUID()":"52d1902d","renounceOwnership()":"715018a6","setAstrologerManager(address)":"44cda485","setLaunchFee(uint256)":"5313be2c","setTokenFactory(address)":"2f73a9f8","tokenContractToId(address)":"36203131","tokenFactory()":"e77772fe","tokens(uint256)":"4f64b2be","transferOwnership(address)":"f2fde38b","upgradeTo(address)":"3659cfe6","upgradeToAndCall(address,bytes)":"4f1ef286","withdraw()":"3ccfd60b"}},"storageLayout":{"storage":[{"astId":503,"contract":"contracts/AstroTokenLauncher.sol:AstroTokenLauncher","label":"_initialized","offset":0,"slot":"0","type":"t_uint8"},{"astId":506,"contract":"contracts/AstroTokenLauncher.sol:AstroTokenLauncher","label":"_initializing","offset":1,"slot":"0","type":"t_bool"},{"astId":2363,"contract":"contracts/AstroTokenLauncher.sol:AstroTokenLauncher","label":"__gap","offset":0,"slot":"1","type":"t_array(t_uint256)50_storage"},{"astId":10,"contract":"contracts/AstroTokenLauncher.sol:AstroTokenLauncher","label":"_owner","offset":0,"slot":"51","type":"t_address"},{"astId":130,"contract":"contracts/AstroTokenLauncher.sol:AstroTokenLauncher","label":"__gap","offset":0,"slot":"52","type":"t_array(t_uint256)49_storage"},{"astId":485,"contract":"contracts/AstroTokenLauncher.sol:AstroTokenLauncher","label":"__gap","offset":0,"slot":"101","type":"t_array(t_uint256)50_storage"},{"astId":800,"contract":"contracts/AstroTokenLauncher.sol:AstroTokenLauncher","label":"__gap","offset":0,"slot":"151","type":"t_array(t_uint256)50_storage"},{"astId":3156,"contract":"contracts/AstroTokenLauncher.sol:AstroTokenLauncher","label":"_tokenIds","offset":0,"slot":"201","type":"t_struct(Counter)2370_storage"},{"astId":3182,"contract":"contracts/AstroTokenLauncher.sol:AstroTokenLauncher","label":"tokens","offset":0,"slot":"202","type":"t_mapping(t_uint256,t_struct(TokenInfo)3177_storage)"},{"astId":3186,"contract":"contracts/AstroTokenLauncher.sol:AstroTokenLauncher","label":"astrologerToTokenId","offset":0,"slot":"203","type":"t_mapping(t_address,t_uint256)"},{"astId":3190,"contract":"contracts/AstroTokenLauncher.sol:AstroTokenLauncher","label":"tokenContractToId","offset":0,"slot":"204","type":"t_mapping(t_address,t_uint256)"},{"astId":3192,"contract":"contracts/AstroTokenLauncher.sol:AstroTokenLauncher","label":"astrologerManager","offset":0,"slot":"205","type":"t_address"},{"astId":3194,"contract":"contracts/AstroTokenLauncher.sol:AstroTokenLauncher","label":"tokenFactory","offset":0,"slot":"206","type":"t_address"},{"astId":3196,"contract":"contracts/AstroTokenLauncher.sol:AstroTokenLauncher","label":"launchFee","offset":0,"slot":"207","type":"t_uint256"}],"types":{"t_address":{"encoding":"inplace","label":"address","numberOfBytes":"20"},"t_array(t_uint256)49_storage":{"base":"t_uint256","encoding":"inplace","label":"uint256[49]","numberOfBytes":"1568"},"t_array(t_uint256)50_storage":{"base":"t_uint256","encoding":"inplace","label":"uint256[50]","numberOfBytes":"1600"},"t_bool":{"encoding":"inplace","label":"bool","numberOfBytes":"1"},"t_mapping(t_address,t_uint256)":{"encoding":"mapping","key":"t_address","label":"mapping(address => uint256)","numberOfBytes":"32","value":"t_uint256"},"t_mapping(t_uint256,t_struct(TokenInfo)3177_storage)":{"encoding":"mapping","key":"t_uint256","label":"mapping(uint256 => struct AstroTokenLauncher.TokenInfo)","numberOfBytes":"32","value":"t_struct(TokenInfo)3177_storage"},"t_string_storage":{"encoding":"bytes","label":"string","numberOfBytes":"32"},"t_struct(Counter)2370_storage":{"encoding":"inplace","label":"struct CountersUpgradeable.Counter","members":[{"astId":2369,"contract":"contracts/AstroTokenLauncher.sol:AstroTokenLauncher","label":"_value","offset":0,"slot":"0","type":"t_uint256"}],"numberOfBytes":"32"},"t_struct(TokenInfo)3177_storage":{"encoding":"inplace","label":"struct AstroTokenLauncher.TokenInfo","members":[{"astId":3158,"contract":"contracts/AstroTokenLauncher.sol:AstroTokenLauncher","label":"id","offset":0,"slot":"0","type":"t_uint256"},{"astId":3160,"contract":"contracts/AstroTokenLauncher.sol:AstroTokenLauncher","label":"astrologer","offset":0,"slot":"1","type":"t_address"},{"astId":3162,"contract":"contracts/AstroTokenLauncher.sol:AstroTokenLauncher","label":"tokenContract","offset":0,"slot":"2","type":"t_address"},{"astId":3164,"contract":"contracts/AstroTokenLauncher.sol:AstroTokenLauncher","label":"buyContract","offset":0,"slot":"3","type":"t_address"},{"astId":3166,"contract":"contracts/AstroTokenLauncher.sol:AstroTokenLauncher","label":"name","offset":0,"slot":"4","type":"t_string_storage"},{"astId":3168,"contract":"contracts/AstroTokenLauncher.sol:AstroTokenLauncher","label":"symbol","offset":0,"slot":"5","type":"t_string_storage"},{"astId":3170,"contract":"contracts/AstroTokenLauncher.sol:AstroTokenLauncher","label":"totalSupply","offset":0,"slot":"6","type":"t_uint256"},{"astId":3172,"contract":"contracts/AstroTokenLauncher.sol:AstroTokenLauncher","label":"initialPrice","offset":0,"slot":"7","type":"t_uint256"},{"astId":3174,"contract":"contracts/AstroTokenLauncher.sol:AstroTokenLauncher","label":"isActive","offset":0,"slot":"8","type":"t_bool"},{"astId":3176,"contract":"contracts/AstroTokenLauncher.sol:AstroTokenLauncher","label":"createdAt","offset":0,"slot":"9","type":"t_uint256"}],"numberOfBytes":"320"},"t_uint256":{"encoding":"inplace","label":"uint256","numberOfBytes":"32"},"t_uint8":{"encoding":"inplace","label":"uint8","numberOfBytes":"1"}}},"userdoc":{"kind":"user","methods":{},"version":1}}}}