{"contracts/AstroTokenFactory.sol":{"AstroTokenFactory":{"abi":[{"inputs":[{"internalType":"address","name":"_astroTokenImplementation","type":"address"},{"internalType":"address","name":"_buyTokenContractImplementation","type":"address"},{"internalType":"address","name":"_astrologerManager","type":"address"}],"stateMutability":"nonpayable","type":"constructor"},{"anonymous":false,"inputs":[{"indexed":true,"internalType":"address","name":"previousOwner","type":"address"},{"indexed":true,"internalType":"address","name":"newOwner","type":"address"}],"name":"OwnershipTransferred","type":"event"},{"anonymous":false,"inputs":[{"indexed":true,"internalType":"address","name":"tokenContract","type":"address"},{"indexed":true,"internalType":"address","name":"buyContract","type":"address"},{"indexed":true,"internalType":"address","name":"astrologer","type":"address"}],"name":"TokenDeployed","type":"event"},{"inputs":[],"name":"astroTokenImplementation","outputs":[{"internalType":"address","name":"","type":"address"}],"stateMutability":"view","type":"function"},{"inputs":[],"name":"astrologerManager","outputs":[{"internalType":"address","name":"","type":"address"}],"stateMutability":"view","type":"function"},{"inputs":[],"name":"buyTokenContractImplementation","outputs":[{"internalType":"address","name":"","type":"address"}],"stateMutability":"view","type":"function"},{"inputs":[{"internalType":"string","name":"_name","type":"string"},{"internalType":"string","name":"_symbol","type":"string"},{"internalType":"uint256","name":"_totalSupply","type":"uint256"},{"internalType":"uint256","name":"_initialPrice","type":"uint256"},{"internalType":"address","name":"_astrologer","type":"address"}],"name":"deployTokenPair","outputs":[{"internalType":"address","name":"tokenContract","type":"address"},{"internalType":"address","name":"buyContract","type":"address"}],"stateMutability":"nonpayable","type":"function"},{"inputs":[],"name":"owner","outputs":[{"internalType":"address","name":"","type":"address"}],"stateMutability":"view","type":"function"},{"inputs":[],"name":"renounceOwnership","outputs":[],"stateMutability":"nonpayable","type":"function"},{"inputs":[],"name":"reputationScorer","outputs":[{"internalType":"address","name":"","type":"address"}],"stateMutability":"view","type":"function"},{"inputs":[{"internalType":"address","name":"_astrologerManager","type":"address"}],"name":"setAstrologerManager","outputs":[],"stateMutability":"nonpayable","type":"function"},{"inputs":[{"internalType":"address","name":"_astroTokenImplementation","type":"address"},{"internalType":"address","name":"_buyTokenContractImplementation","type":"address"}],"name":"setImplementations","outputs":[],"stateMutability":"nonpayable","type":"function"},{"inputs":[{"internalType":"address","name":"_reputationScorer","type":"address"}],"name":"setReputationScorer","outputs":[],"stateMutability":"nonpayable","type":"function"},{"inputs":[{"internalType":"address","name":"newOwner","type":"address"}],"name":"transferOwnership","outputs":[],"stateMutability":"nonpayable","type":"function"}],"devdoc":{"kind":"dev","methods":{"owner()":{"details":"Returns the address of the current owner."},"renounceOwnership()":{"details":"Leaves the contract without owner. It will not be possible to call `onlyOwner` functions. Can only be called by the current owner. NOTE: Renouncing ownership will leave the contract without an owner, thereby disabling any functionality that is only available to the owner."},"transferOwnership(address)":{"details":"Transfers ownership of the contract to a new account (`newOwner`). Can only be called by the current owner."}},"version":1},"evm":{"bytecode":{"linkReferences":{},"object":"6080346100e357601f61094238819003918201601f19168301916001600160401b038311848410176100e8578084926060946040528339810103126100e357610047816100fe565b61005f6040610058602085016100fe565b93016100fe565b600080546001600160a01b03198082163390811784556040519691956001600160a01b0395948694859391908416907f8be0079c531659141344cd1fd0a4f28419497f9722a3daafe3b4186f6b6457e09080a31685600154161760015516836002541617600255168160035416176003556004541660045561082f90816101138239f35b600080fd5b634e487b7160e01b600052604160045260246000fd5b51906001600160a01b03821682036100e35756fe6080604081815260048036101561001557600080fd5b600092833560e01c90816307d4efe3146106055750806332e1d0ec1461034757806334416f631461031e57806344cda485146102de5780636fd31a41146102b5578063715018a61461025b57806373c84d211461023457806385bff341146101d35780638da5cb5b146101ab578063e9725c21146101665763f2fde38b1461009c57600080fd5b34610162576020366003190112610162576100b56106b7565b906100be6106cd565b6001600160a01b03918216928315610110575050600054826001600160601b0360a01b821617600055167f8be0079c531659141344cd1fd0a4f28419497f9722a3daafe3b4186f6b6457e0600080a380f35b906020608492519162461bcd60e51b8352820152602660248201527f4f776e61626c653a206e6577206f776e657220697320746865207a65726f206160448201526564647265737360d01b6064820152fd5b8280fd5b8382346101a75760203660031901126101a7576101816106b7565b6101896106cd565b81546001600160a01b0319166001600160a01b039190911617905580f35b5080fd5b5050346101a757816003193601126101a757905490516001600160a01b039091168152602090f35b5050346101a757366003190112610231576101ec6106b7565b6024356001600160a01b03818116929183900361022c5761020b6106cd565b6001600160601b0360a01b9116816001541617600155600254161760025580f35b600080fd5b80fd5b50346101625782600319360112610162575490516001600160a01b03909116815260209150f35b83346102315780600319360112610231576102746106cd565b600080546001600160a01b0319811682556001600160a01b03167f8be0079c531659141344cd1fd0a4f28419497f9722a3daafe3b4186f6b6457e08280a380f35b5050346101a757816003193601126101a75760035490516001600160a01b039091168152602090f35b8334610231576020366003190112610231576102f86106b7565b6103006106cd565b60018060a01b03166001600160601b0360a01b600354161760035580f35b5050346101a757816003193601126101a75760015490516001600160a01b039091168152602090f35b508290346101a75760031960a0368201126101625767ffffffffffffffff82358181116106015761037b9036908501610654565b92602491823590811161054c576103959036908301610654565b6001600160a01b039460843586811694926044359290918690036105e657876103c18160015416610765565b1696873b156105fd578a51637e77c50360e01b815260a087820152928a9284928392610403926103f59060a4860190610725565b918483030189850152610725565b8560448301528860648301528360848301520381838a5af180156105ba576105ea575b50856104358160025416610765565b16958060035416873b156105e6578951906305e52ecf60e21b8252858201528884820152606460448201528881606481838c5af180156105dc579089916105c8575b505083541680610572575b50853b1561056e5787519063cea9f4b560e01b825285848301528483830152604482015260643560648201528681608481838a5af1801561056457908791610550575b5050833b1561054c578651637103ef0d60e01b8152918201859052859082908183875af180156105425790859161052a575b505082827fd7b4770d872cf541c7302a5671e3ceb80df26b15aacab2ba0f395c3056b9ad5f87519680a482526020820152f35b6105339061062a565b61053e5783866104f7565b8380fd5b86513d87823e3d90fd5b8580fd5b6105599061062a565b61054c5785886104c5565b88513d89823e3d90fd5b8680fd5b863b156105c45788519063e9725c2160e01b82528482015287818481838b5af180156105ba579088916105a6575b50610482565b6105af9061062a565b61056e5786896105a0565b89513d8a823e3d90fd5b8780fd5b6105d19061062a565b6105c457878a610477565b8a513d8b823e3d90fd5b8880fd5b6105f69097919761062a565b9588610426565b8980fd5b8480fd5b8490346101a757816003193601126101a7576002546001600160a01b03168152602090f35b67ffffffffffffffff811161063e57604052565b634e487b7160e01b600052604160045260246000fd5b81601f8201121561022c5780359067ffffffffffffffff9283831161063e5760405193601f8401601f19908116603f011685019081118582101761063e576040528284526020838301011161022c57816000926020809301838601378301015290565b600435906001600160a01b038216820361022c57565b6000546001600160a01b031633036106e157565b606460405162461bcd60e51b815260206004820152602060248201527f4f776e61626c653a2063616c6c6572206973206e6f7420746865206f776e65726044820152fd5b919082519283825260005b848110610751575050826000602080949584010152601f8019910116010190565b602081830181015184830182015201610730565b6e5af43d82803e903d91602b57fd5bf390763d602d80600a3d3981f3363d3d373d3d3d363d7300000062ffffff8260881c161760005260781b17602052603760096000f0906001600160a01b038216156107bb57565b60405162461bcd60e51b8152602060048201526016602482015275115490cc4c4d8dce8818dc99585d194819985a5b195960521b6044820152606490fdfea2646970667358221220aef65291c2748987828ecf6951f0ab4c42566feca0405bd4da1d2cae969e4dda64736f6c63430008110033","opcodes":"PUSH1 0x80 CALLVALUE PUSH2 0xE3 JUMPI PUSH1 0x1F PUSH2 0x942 CODESIZE DUP2 SWAP1 SUB SWAP2 DUP3 ADD PUSH1 0x1F NOT AND DUP4 ADD SWAP2 PUSH1 0x1 PUSH1 0x1 PUSH1 0x40 SHL SUB DUP4 GT DUP5 DUP5 LT OR PUSH2 0xE8 JUMPI DUP1 DUP5 SWAP3 PUSH1 0x60 SWAP5 PUSH1 0x40 MSTORE DUP4 CODECOPY DUP2 ADD SUB SLT PUSH2 0xE3 JUMPI PUSH2 0x47 DUP2 PUSH2 0xFE JUMP JUMPDEST PUSH2 0x5F PUSH1 0x40 PUSH2 0x58 PUSH1 0x20 DUP6 ADD PUSH2 0xFE JUMP JUMPDEST SWAP4 ADD PUSH2 0xFE JUMP JUMPDEST PUSH1 0x0 DUP1 SLOAD PUSH1 0x1 PUSH1 0x1 PUSH1 0xA0 SHL SUB NOT DUP1 DUP3 AND CALLER SWAP1 DUP2 OR DUP5 SSTORE PUSH1 0x40 MLOAD SWAP7 SWAP2 SWAP6 PUSH1 0x1 PUSH1 0x1 PUSH1 0xA0 SHL SUB SWAP6 SWAP5 DUP7 SWAP5 DUP6 SWAP4 SWAP2 SWAP1 DUP5 AND SWAP1 PUSH32 0x8BE0079C531659141344CD1FD0A4F28419497F9722A3DAAFE3B4186F6B6457E0 SWAP1 DUP1 LOG3 AND DUP6 PUSH1 0x1 SLOAD AND OR PUSH1 0x1 SSTORE AND DUP4 PUSH1 0x2 SLOAD AND OR PUSH1 0x2 SSTORE AND DUP2 PUSH1 0x3 SLOAD AND OR PUSH1 0x3 SSTORE PUSH1 0x4 SLOAD AND PUSH1 0x4 SSTORE PUSH2 0x82F SWAP1 DUP2 PUSH2 0x113 DUP3 CODECOPY RETURN JUMPDEST PUSH1 0x0 DUP1 REVERT JUMPDEST PUSH4 0x4E487B71 PUSH1 0xE0 SHL PUSH1 0x0 MSTORE PUSH1 0x41 PUSH1 0x4 MSTORE PUSH1 0x24 PUSH1 0x0 REVERT JUMPDEST MLOAD SWAP1 PUSH1 0x1 PUSH1 0x1 PUSH1 0xA0 SHL SUB DUP3 AND DUP3 SUB PUSH2 0xE3 JUMPI JUMP INVALID PUSH1 0x80 PUSH1 0x40 DUP2 DUP2 MSTORE PUSH1 0x4 DUP1 CALLDATASIZE LT ISZERO PUSH2 0x15 JUMPI PUSH1 0x0 DUP1 REVERT JUMPDEST PUSH1 0x0 SWAP3 DUP4 CALLDATALOAD PUSH1 0xE0 SHR SWAP1 DUP2 PUSH4 0x7D4EFE3 EQ PUSH2 0x605 JUMPI POP DUP1 PUSH4 0x32E1D0EC EQ PUSH2 0x347 JUMPI DUP1 PUSH4 0x34416F63 EQ PUSH2 0x31E JUMPI DUP1 PUSH4 0x44CDA485 EQ PUSH2 0x2DE JUMPI DUP1 PUSH4 0x6FD31A41 EQ PUSH2 0x2B5 JUMPI DUP1 PUSH4 0x715018A6 EQ PUSH2 0x25B JUMPI DUP1 PUSH4 0x73C84D21 EQ PUSH2 0x234 JUMPI DUP1 PUSH4 0x85BFF341 EQ PUSH2 0x1D3 JUMPI DUP1 PUSH4 0x8DA5CB5B EQ PUSH2 0x1AB JUMPI DUP1 PUSH4 0xE9725C21 EQ PUSH2 0x166 JUMPI PUSH4 0xF2FDE38B EQ PUSH2 0x9C JUMPI PUSH1 0x0 DUP1 REVERT JUMPDEST CALLVALUE PUSH2 0x162 JUMPI PUSH1 0x20 CALLDATASIZE PUSH1 0x3 NOT ADD SLT PUSH2 0x162 JUMPI PUSH2 0xB5 PUSH2 0x6B7 JUMP JUMPDEST SWAP1 PUSH2 0xBE PUSH2 0x6CD JUMP JUMPDEST PUSH1 0x1 PUSH1 0x1 PUSH1 0xA0 SHL SUB SWAP2 DUP3 AND SWAP3 DUP4 ISZERO PUSH2 0x110 JUMPI POP POP PUSH1 0x0 SLOAD DUP3 PUSH1 0x1 PUSH1 0x1 PUSH1 0x60 SHL SUB PUSH1 0xA0 SHL DUP3 AND OR PUSH1 0x0 SSTORE AND PUSH32 0x8BE0079C531659141344CD1FD0A4F28419497F9722A3DAAFE3B4186F6B6457E0 PUSH1 0x0 DUP1 LOG3 DUP1 RETURN JUMPDEST SWAP1 PUSH1 0x20 PUSH1 0x84 SWAP3 MLOAD SWAP2 PUSH3 0x461BCD PUSH1 0xE5 SHL DUP4 MSTORE DUP3 ADD MSTORE PUSH1 0x26 PUSH1 0x24 DUP3 ADD MSTORE PUSH32 0x4F776E61626C653A206E6577206F776E657220697320746865207A65726F2061 PUSH1 0x44 DUP3 ADD MSTORE PUSH6 0x646472657373 PUSH1 0xD0 SHL PUSH1 0x64 DUP3 ADD MSTORE REVERT JUMPDEST DUP3 DUP1 REVERT JUMPDEST DUP4 DUP3 CALLVALUE PUSH2 0x1A7 JUMPI PUSH1 0x20 CALLDATASIZE PUSH1 0x3 NOT ADD SLT PUSH2 0x1A7 JUMPI PUSH2 0x181 PUSH2 0x6B7 JUMP JUMPDEST PUSH2 0x189 PUSH2 0x6CD JUMP JUMPDEST DUP2 SLOAD PUSH1 0x1 PUSH1 0x1 PUSH1 0xA0 SHL SUB NOT AND PUSH1 0x1 PUSH1 0x1 PUSH1 0xA0 SHL SUB SWAP2 SWAP1 SWAP2 AND OR SWAP1 SSTORE DUP1 RETURN JUMPDEST POP DUP1 REVERT JUMPDEST POP POP CALLVALUE PUSH2 0x1A7 JUMPI DUP2 PUSH1 0x3 NOT CALLDATASIZE ADD SLT PUSH2 0x1A7 JUMPI SWAP1 SLOAD SWAP1 MLOAD PUSH1 0x1 PUSH1 0x1 PUSH1 0xA0 SHL SUB SWAP1 SWAP2 AND DUP2 MSTORE PUSH1 0x20 SWAP1 RETURN JUMPDEST POP POP CALLVALUE PUSH2 0x1A7 JUMPI CALLDATASIZE PUSH1 0x3 NOT ADD SLT PUSH2 0x231 JUMPI PUSH2 0x1EC PUSH2 0x6B7 JUMP JUMPDEST PUSH1 0x24 CALLDATALOAD PUSH1 0x1 PUSH1 0x1 PUSH1 0xA0 SHL SUB DUP2 DUP2 AND SWAP3 SWAP2 DUP4 SWAP1 SUB PUSH2 0x22C JUMPI PUSH2 0x20B PUSH2 0x6CD JUMP JUMPDEST PUSH1 0x1 PUSH1 0x1 PUSH1 0x60 SHL SUB PUSH1 0xA0 SHL SWAP2 AND DUP2 PUSH1 0x1 SLOAD AND OR PUSH1 0x1 SSTORE PUSH1 0x2 SLOAD AND OR PUSH1 0x2 SSTORE DUP1 RETURN JUMPDEST PUSH1 0x0 DUP1 REVERT JUMPDEST DUP1 REVERT JUMPDEST POP CALLVALUE PUSH2 0x162 JUMPI DUP3 PUSH1 0x3 NOT CALLDATASIZE ADD SLT PUSH2 0x162 JUMPI SLOAD SWAP1 MLOAD PUSH1 0x1 PUSH1 0x1 PUSH1 0xA0 SHL SUB SWAP1 SWAP2 AND DUP2 MSTORE PUSH1 0x20 SWAP2 POP RETURN JUMPDEST DUP4 CALLVALUE PUSH2 0x231 JUMPI DUP1 PUSH1 0x3 NOT CALLDATASIZE ADD SLT PUSH2 0x231 JUMPI PUSH2 0x274 PUSH2 0x6CD JUMP JUMPDEST PUSH1 0x0 DUP1 SLOAD PUSH1 0x1 PUSH1 0x1 PUSH1 0xA0 SHL SUB NOT DUP2 AND DUP3 SSTORE PUSH1 0x1 PUSH1 0x1 PUSH1 0xA0 SHL SUB AND PUSH32 0x8BE0079C531659141344CD1FD0A4F28419497F9722A3DAAFE3B4186F6B6457E0 DUP3 DUP1 LOG3 DUP1 RETURN JUMPDEST POP POP CALLVALUE PUSH2 0x1A7 JUMPI DUP2 PUSH1 0x3 NOT CALLDATASIZE ADD SLT PUSH2 0x1A7 JUMPI PUSH1 0x3 SLOAD SWAP1 MLOAD PUSH1 0x1 PUSH1 0x1 PUSH1 0xA0 SHL SUB SWAP1 SWAP2 AND DUP2 MSTORE PUSH1 0x20 SWAP1 RETURN JUMPDEST DUP4 CALLVALUE PUSH2 0x231 JUMPI PUSH1 0x20 CALLDATASIZE PUSH1 0x3 NOT ADD SLT PUSH2 0x231 JUMPI PUSH2 0x2F8 PUSH2 0x6B7 JUMP JUMPDEST PUSH2 0x300 PUSH2 0x6CD JUMP JUMPDEST PUSH1 0x1 DUP1 PUSH1 0xA0 SHL SUB AND PUSH1 0x1 PUSH1 0x1 PUSH1 0x60 SHL SUB PUSH1 0xA0 SHL PUSH1 0x3 SLOAD AND OR PUSH1 0x3 SSTORE DUP1 RETURN JUMPDEST POP POP CALLVALUE PUSH2 0x1A7 JUMPI DUP2 PUSH1 0x3 NOT CALLDATASIZE ADD SLT PUSH2 0x1A7 JUMPI PUSH1 0x1 SLOAD SWAP1 MLOAD PUSH1 0x1 PUSH1 0x1 PUSH1 0xA0 SHL SUB SWAP1 SWAP2 AND DUP2 MSTORE PUSH1 0x20 SWAP1 RETURN JUMPDEST POP DUP3 SWAP1 CALLVALUE PUSH2 0x1A7 JUMPI PUSH1 0x3 NOT PUSH1 0xA0 CALLDATASIZE DUP3 ADD SLT PUSH2 0x162 JUMPI PUSH8 0xFFFFFFFFFFFFFFFF DUP3 CALLDATALOAD DUP2 DUP2 GT PUSH2 0x601 JUMPI PUSH2 0x37B SWAP1 CALLDATASIZE SWAP1 DUP6 ADD PUSH2 0x654 JUMP JUMPDEST SWAP3 PUSH1 0x24 SWAP2 DUP3 CALLDATALOAD SWAP1 DUP2 GT PUSH2 0x54C JUMPI PUSH2 0x395 SWAP1 CALLDATASIZE SWAP1 DUP4 ADD PUSH2 0x654 JUMP JUMPDEST PUSH1 0x1 PUSH1 0x1 PUSH1 0xA0 SHL SUB SWAP5 PUSH1 0x84 CALLDATALOAD DUP7 DUP2 AND SWAP5 SWAP3 PUSH1 0x44 CALLDATALOAD SWAP3 SWAP1 SWAP2 DUP7 SWAP1 SUB PUSH2 0x5E6 JUMPI DUP8 PUSH2 0x3C1 DUP2 PUSH1 0x1 SLOAD AND PUSH2 0x765 JUMP JUMPDEST AND SWAP7 DUP8 EXTCODESIZE ISZERO PUSH2 0x5FD JUMPI DUP11 MLOAD PUSH4 0x7E77C503 PUSH1 0xE0 SHL DUP2 MSTORE PUSH1 0xA0 DUP8 DUP3 ADD MSTORE SWAP3 DUP11 SWAP3 DUP5 SWAP3 DUP4 SWAP3 PUSH2 0x403 SWAP3 PUSH2 0x3F5 SWAP1 PUSH1 0xA4 DUP7 ADD SWAP1 PUSH2 0x725 JUMP JUMPDEST SWAP2 DUP5 DUP4 SUB ADD DUP10 DUP6 ADD MSTORE PUSH2 0x725 JUMP JUMPDEST DUP6 PUSH1 0x44 DUP4 ADD MSTORE DUP9 PUSH1 0x64 DUP4 ADD MSTORE DUP4 PUSH1 0x84 DUP4 ADD MSTORE SUB DUP2 DUP4 DUP11 GAS CALL DUP1 ISZERO PUSH2 0x5BA JUMPI PUSH2 0x5EA JUMPI JUMPDEST POP DUP6 PUSH2 0x435 DUP2 PUSH1 0x2 SLOAD AND PUSH2 0x765 JUMP JUMPDEST AND SWAP6 DUP1 PUSH1 0x3 SLOAD AND DUP8 EXTCODESIZE ISZERO PUSH2 0x5E6 JUMPI DUP10 MLOAD SWAP1 PUSH4 0x5E52ECF PUSH1 0xE2 SHL DUP3 MSTORE DUP6 DUP3 ADD MSTORE DUP9 DUP5 DUP3 ADD MSTORE PUSH1 0x64 PUSH1 0x44 DUP3 ADD MSTORE DUP9 DUP2 PUSH1 0x64 DUP2 DUP4 DUP13 GAS CALL DUP1 ISZERO PUSH2 0x5DC JUMPI SWAP1 DUP10 SWAP2 PUSH2 0x5C8 JUMPI JUMPDEST POP POP DUP4 SLOAD AND DUP1 PUSH2 0x572 JUMPI JUMPDEST POP DUP6 EXTCODESIZE ISZERO PUSH2 0x56E JUMPI DUP8 MLOAD SWAP1 PUSH4 0xCEA9F4B5 PUSH1 0xE0 SHL DUP3 MSTORE DUP6 DUP5 DUP4 ADD MSTORE DUP5 DUP4 DUP4 ADD MSTORE PUSH1 0x44 DUP3 ADD MSTORE PUSH1 0x64 CALLDATALOAD PUSH1 0x64 DUP3 ADD MSTORE DUP7 DUP2 PUSH1 0x84 DUP2 DUP4 DUP11 GAS CALL DUP1 ISZERO PUSH2 0x564 JUMPI SWAP1 DUP8 SWAP2 PUSH2 0x550 JUMPI JUMPDEST POP POP DUP4 EXTCODESIZE ISZERO PUSH2 0x54C JUMPI DUP7 MLOAD PUSH4 0x7103EF0D PUSH1 0xE0 SHL DUP2 MSTORE SWAP2 DUP3 ADD DUP6 SWAP1 MSTORE DUP6 SWAP1 DUP3 SWAP1 DUP2 DUP4 DUP8 GAS CALL DUP1 ISZERO PUSH2 0x542 JUMPI SWAP1 DUP6 SWAP2 PUSH2 0x52A JUMPI JUMPDEST POP POP DUP3 DUP3 PUSH32 0xD7B4770D872CF541C7302A5671E3CEB80DF26B15AACAB2BA0F395C3056B9AD5F DUP8 MLOAD SWAP7 DUP1 LOG4 DUP3 MSTORE PUSH1 0x20 DUP3 ADD MSTORE RETURN JUMPDEST PUSH2 0x533 SWAP1 PUSH2 0x62A JUMP JUMPDEST PUSH2 0x53E JUMPI DUP4 DUP7 PUSH2 0x4F7 JUMP JUMPDEST DUP4 DUP1 REVERT JUMPDEST DUP7 MLOAD RETURNDATASIZE DUP8 DUP3 RETURNDATACOPY RETURNDATASIZE SWAP1 REVERT JUMPDEST DUP6 DUP1 REVERT JUMPDEST PUSH2 0x559 SWAP1 PUSH2 0x62A JUMP JUMPDEST PUSH2 0x54C JUMPI DUP6 DUP9 PUSH2 0x4C5 JUMP JUMPDEST DUP9 MLOAD RETURNDATASIZE DUP10 DUP3 RETURNDATACOPY RETURNDATASIZE SWAP1 REVERT JUMPDEST DUP7 DUP1 REVERT JUMPDEST DUP7 EXTCODESIZE ISZERO PUSH2 0x5C4 JUMPI DUP9 MLOAD SWAP1 PUSH4 0xE9725C21 PUSH1 0xE0 SHL DUP3 MSTORE DUP5 DUP3 ADD MSTORE DUP8 DUP2 DUP5 DUP2 DUP4 DUP12 GAS CALL DUP1 ISZERO PUSH2 0x5BA JUMPI SWAP1 DUP9 SWAP2 PUSH2 0x5A6 JUMPI JUMPDEST POP PUSH2 0x482 JUMP JUMPDEST PUSH2 0x5AF SWAP1 PUSH2 0x62A JUMP JUMPDEST PUSH2 0x56E JUMPI DUP7 DUP10 PUSH2 0x5A0 JUMP JUMPDEST DUP10 MLOAD RETURNDATASIZE DUP11 DUP3 RETURNDATACOPY RETURNDATASIZE SWAP1 REVERT JUMPDEST DUP8 DUP1 REVERT JUMPDEST PUSH2 0x5D1 SWAP1 PUSH2 0x62A JUMP JUMPDEST PUSH2 0x5C4 JUMPI DUP8 DUP11 PUSH2 0x477 JUMP JUMPDEST DUP11 MLOAD RETURNDATASIZE DUP12 DUP3 RETURNDATACOPY RETURNDATASIZE SWAP1 REVERT JUMPDEST DUP9 DUP1 REVERT JUMPDEST PUSH2 0x5F6 SWAP1 SWAP8 SWAP2 SWAP8 PUSH2 0x62A JUMP JUMPDEST SWAP6 DUP9 PUSH2 0x426 JUMP JUMPDEST DUP10 DUP1 REVERT JUMPDEST DUP5 DUP1 REVERT JUMPDEST DUP5 SWAP1 CALLVALUE PUSH2 0x1A7 JUMPI DUP2 PUSH1 0x3 NOT CALLDATASIZE ADD SLT PUSH2 0x1A7 JUMPI PUSH1 0x2 SLOAD PUSH1 0x1 PUSH1 0x1 PUSH1 0xA0 SHL SUB AND DUP2 MSTORE PUSH1 0x20 SWAP1 RETURN JUMPDEST PUSH8 0xFFFFFFFFFFFFFFFF DUP2 GT PUSH2 0x63E JUMPI PUSH1 0x40 MSTORE JUMP JUMPDEST PUSH4 0x4E487B71 PUSH1 0xE0 SHL PUSH1 0x0 MSTORE PUSH1 0x41 PUSH1 0x4 MSTORE PUSH1 0x24 PUSH1 0x0 REVERT JUMPDEST DUP2 PUSH1 0x1F DUP3 ADD SLT ISZERO PUSH2 0x22C JUMPI DUP1 CALLDATALOAD SWAP1 PUSH8 0xFFFFFFFFFFFFFFFF SWAP3 DUP4 DUP4 GT PUSH2 0x63E JUMPI PUSH1 0x40 MLOAD SWAP4 PUSH1 0x1F DUP5 ADD PUSH1 0x1F NOT SWAP1 DUP2 AND PUSH1 0x3F ADD AND DUP6 ADD SWAP1 DUP2 GT DUP6 DUP3 LT OR PUSH2 0x63E JUMPI PUSH1 0x40 MSTORE DUP3 DUP5 MSTORE PUSH1 0x20 DUP4 DUP4 ADD ADD GT PUSH2 0x22C JUMPI DUP2 PUSH1 0x0 SWAP3 PUSH1 0x20 DUP1 SWAP4 ADD DUP4 DUP7 ADD CALLDATACOPY DUP4 ADD ADD MSTORE SWAP1 JUMP JUMPDEST PUSH1 0x4 CALLDATALOAD SWAP1 PUSH1 0x1 PUSH1 0x1 PUSH1 0xA0 SHL SUB DUP3 AND DUP3 SUB PUSH2 0x22C JUMPI JUMP JUMPDEST PUSH1 0x0 SLOAD PUSH1 0x1 PUSH1 0x1 PUSH1 0xA0 SHL SUB AND CALLER SUB PUSH2 0x6E1 JUMPI JUMP JUMPDEST PUSH1 0x64 PUSH1 0x40 MLOAD PUSH3 0x461BCD PUSH1 0xE5 SHL DUP2 MSTORE PUSH1 0x20 PUSH1 0x4 DUP3 ADD MSTORE PUSH1 0x20 PUSH1 0x24 DUP3 ADD MSTORE PUSH32 0x4F776E61626C653A2063616C6C6572206973206E6F7420746865206F776E6572 PUSH1 0x44 DUP3 ADD MSTORE REVERT JUMPDEST SWAP2 SWAP1 DUP3 MLOAD SWAP3 DUP4 DUP3 MSTORE PUSH1 0x0 JUMPDEST DUP5 DUP2 LT PUSH2 0x751 JUMPI POP POP DUP3 PUSH1 0x0 PUSH1 0x20 DUP1 SWAP5 SWAP6 DUP5 ADD ADD MSTORE PUSH1 0x1F DUP1 NOT SWAP2 ADD AND ADD ADD SWAP1 JUMP JUMPDEST PUSH1 0x20 DUP2 DUP4 ADD DUP2 ADD MLOAD DUP5 DUP4 ADD DUP3 ADD MSTORE ADD PUSH2 0x730 JUMP JUMPDEST PUSH15 0x5AF43D82803E903D91602B57FD5BF3 SWAP1 PUSH23 0x3D602D80600A3D3981F3363D3D373D3D3D363D73000000 PUSH3 0xFFFFFF DUP3 PUSH1 0x88 SHR AND OR PUSH1 0x0 MSTORE PUSH1 0x78 SHL OR PUSH1 0x20 MSTORE PUSH1 0x37 PUSH1 0x9 PUSH1 0x0 CREATE SWAP1 PUSH1 0x1 PUSH1 0x1 PUSH1 0xA0 SHL SUB DUP3 AND ISZERO PUSH2 0x7BB JUMPI JUMP JUMPDEST PUSH1 0x40 MLOAD PUSH3 0x461BCD PUSH1 0xE5 SHL DUP2 MSTORE PUSH1 0x20 PUSH1 0x4 DUP3 ADD MSTORE PUSH1 0x16 PUSH1 0x24 DUP3 ADD MSTORE PUSH22 0x115490CC4C4D8DCE8818DC99585D194819985A5B1959 PUSH1 0x52 SHL PUSH1 0x44 DUP3 ADD MSTORE PUSH1 0x64 SWAP1 REVERT INVALID LOG2 PUSH5 0x6970667358 0x22 SLT KECCAK256 0xAE 0xF6 MSTORE SWAP2 0xC2 PUSH21 0x8987828ECF6951F0AB4C42566FECA0405BD4DA1D2C 0xAE SWAP7 SWAP15 0x4D 0xDA PUSH5 0x736F6C6343 STOP ADDMOD GT STOP CALLER "},"gasEstimates":{"creation":{"codeDepositCost":"419000","executionCost":"infinite","totalCost":"infinite"},"external":{"astroTokenImplementation()":"2342","astrologerManager()":"2386","buyTokenContractImplementation()":"2286","deployTokenPair(string,string,uint256,uint256,address)":"infinite","owner()":"2474","renounceOwnership()":"28182","reputationScorer()":"2427","setAstrologerManager(address)":"26702","setImplementations(address,address)":"51049","setReputationScorer(address)":"26843","transferOwnership(address)":"28403"}},"methodIdentifiers":{"astroTokenImplementation()":"34416f63","astrologerManager()":"6fd31a41","buyTokenContractImplementation()":"07d4efe3","deployTokenPair(string,string,uint256,uint256,address)":"32e1d0ec","owner()":"8da5cb5b","renounceOwnership()":"715018a6","reputationScorer()":"73c84d21","setAstrologerManager(address)":"44cda485","setImplementations(address,address)":"85bff341","setReputationScorer(address)":"e9725c21","transferOwnership(address)":"f2fde38b"}},"storageLayout":{"storage":[{"astId":2556,"contract":"contracts/AstroTokenFactory.sol:AstroTokenFactory","label":"_owner","offset":0,"slot":"0","type":"t_address"},{"astId":2951,"contract":"contracts/AstroTokenFactory.sol:AstroTokenFactory","label":"astroTokenImplementation","offset":0,"slot":"1","type":"t_address"},{"astId":2953,"contract":"contracts/AstroTokenFactory.sol:AstroTokenFactory","label":"buyTokenContractImplementation","offset":0,"slot":"2","type":"t_address"},{"astId":2955,"contract":"contracts/AstroTokenFactory.sol:AstroTokenFactory","label":"astrologerManager","offset":0,"slot":"3","type":"t_address"},{"astId":2957,"contract":"contracts/AstroTokenFactory.sol:AstroTokenFactory","label":"reputationScorer","offset":0,"slot":"4","type":"t_address"}],"types":{"t_address":{"encoding":"inplace","label":"address","numberOfBytes":"20"}}},"userdoc":{"kind":"user","methods":{},"version":1}}}}