{"contracts/PredictionCredibilityManager.sol":{"PredictionCredibilityManager":{"abi":[{"inputs":[],"stateMutability":"nonpayable","type":"constructor"},{"anonymous":false,"inputs":[{"indexed":false,"internalType":"address","name":"previousAdmin","type":"address"},{"indexed":false,"internalType":"address","name":"newAdmin","type":"address"}],"name":"AdminChanged","type":"event"},{"anonymous":false,"inputs":[{"indexed":true,"internalType":"address","name":"beacon","type":"address"}],"name":"BeaconUpgraded","type":"event"},{"anonymous":false,"inputs":[{"indexed":true,"internalType":"address","name":"astrologer","type":"address"},{"indexed":false,"internalType":"uint256","name":"oldAccuracy","type":"uint256"},{"indexed":false,"internalType":"uint256","name":"newAccuracy","type":"uint256"},{"indexed":false,"internalType":"uint256","name":"newMultiplier","type":"uint256"}],"name":"CredibilityUpdated","type":"event"},{"anonymous":false,"inputs":[{"indexed":false,"internalType":"uint8","name":"version","type":"uint8"}],"name":"Initialized","type":"event"},{"anonymous":false,"inputs":[{"indexed":true,"internalType":"address","name":"previousOwner","type":"address"},{"indexed":true,"internalType":"address","name":"newOwner","type":"address"}],"name":"OwnershipTransferred","type":"event"},{"anonymous":false,"inputs":[{"indexed":true,"internalType":"uint256","name":"predictionId","type":"uint256"},{"indexed":true,"internalType":"address","name":"astrologer","type":"address"},{"indexed":false,"internalType":"string","name":"description","type":"string"},{"indexed":false,"internalType":"uint256","name":"predictionType","type":"uint256"},{"indexed":false,"internalType":"uint256","name":"deadline","type":"uint256"}],"name":"PredictionCreated","type":"event"},{"anonymous":false,"inputs":[{"indexed":true,"internalType":"uint256","name":"predictionId","type":"uint256"},{"indexed":false,"internalType":"bool","name":"outcome","type":"bool"},{"indexed":false,"internalType":"bool","name":"wasAccurate","type":"bool"}],"name":"PredictionResolved","type":"event"},{"anonymous":false,"inputs":[{"indexed":true,"internalType":"address","name":"implementation","type":"address"}],"name":"Upgraded","type":"event"},{"inputs":[],"name":"astroTokenLauncher","outputs":[{"internalType":"address","name":"","type":"address"}],"stateMutability":"view","type":"function"},{"inputs":[],"name":"astrologerManager","outputs":[{"internalType":"address","name":"","type":"address"}],"stateMutability":"view","type":"function"},{"inputs":[{"internalType":"address","name":"","type":"address"},{"internalType":"uint256","name":"","type":"uint256"}],"name":"astrologerPredictions","outputs":[{"internalType":"uint256","name":"","type":"uint256"}],"stateMutability":"view","type":"function"},{"inputs":[],"name":"buyTokenContract","outputs":[{"internalType":"address","name":"","type":"address"}],"stateMutability":"view","type":"function"},{"inputs":[{"internalType":"string","name":"_description","type":"string"},{"internalType":"uint256","name":"_predictionType","type":"uint256"},{"internalType":"uint256","name":"_deadline","type":"uint256"},{"internalType":"uint256","name":"_stakeAmount","type":"uint256"}],"name":"createPrediction","outputs":[{"internalType":"uint256","name":"","type":"uint256"}],"stateMutability":"payable","type":"function"},{"inputs":[{"internalType":"address","name":"","type":"address"}],"name":"credibilityScores","outputs":[{"internalType":"uint256","name":"totalPredictions","type":"uint256"},{"internalType":"uint256","name":"accuratePredictions","type":"uint256"},{"internalType":"uint256","name":"accuracyPercentage","type":"uint256"},{"internalType":"uint256","name":"reputationMultiplier","type":"uint256"},{"internalType":"uint256","name":"lastUpdated","type":"uint256"}],"stateMutability":"view","type":"function"},{"inputs":[],"name":"credibilityUpdateDelay","outputs":[{"internalType":"uint256","name":"","type":"uint256"}],"stateMutability":"view","type":"function"},{"inputs":[{"internalType":"address","name":"_astrologer","type":"address"}],"name":"getAstrologerAccuracy","outputs":[{"internalType":"uint256","name":"","type":"uint256"}],"stateMutability":"view","type":"function"},{"inputs":[{"internalType":"address","name":"_astrologer","type":"address"}],"name":"getAstrologerPredictions","outputs":[{"internalType":"uint256[]","name":"","type":"uint256[]"}],"stateMutability":"view","type":"function"},{"inputs":[{"internalType":"address","name":"_astrologer","type":"address"}],"name":"getCredibilityScore","outputs":[{"components":[{"internalType":"uint256","name":"totalPredictions","type":"uint256"},{"internalType":"uint256","name":"accuratePredictions","type":"uint256"},{"internalType":"uint256","name":"accuracyPercentage","type":"uint256"},{"internalType":"uint256","name":"reputationMultiplier","type":"uint256"},{"internalType":"uint256","name":"lastUpdated","type":"uint256"}],"internalType":"struct PredictionCredibilityManager.CredibilityScore","name":"","type":"tuple"}],"stateMutability":"view","type":"function"},{"inputs":[{"internalType":"uint256","name":"_predictionId","type":"uint256"}],"name":"getPrediction","outputs":[{"components":[{"internalType":"uint256","name":"id","type":"uint256"},{"internalType":"address","name":"astrologer","type":"address"},{"internalType":"uint256","name":"astrologerId","type":"uint256"},{"internalType":"string","name":"description","type":"string"},{"internalType":"uint256","name":"predictionType","type":"uint256"},{"internalType":"uint256","name":"deadline","type":"uint256"},{"internalType":"bool","name":"outcome","type":"bool"},{"internalType":"bool","name":"isResolved","type":"bool"},{"internalType":"bool","name":"wasAccurate","type":"bool"},{"internalType":"uint256","name":"stakeAmount","type":"uint256"},{"internalType":"uint256","name":"totalStaked","type":"uint256"},{"internalType":"uint256","name":"createdAt","type":"uint256"}],"internalType":"struct PredictionCredibilityManager.Prediction","name":"","type":"tuple"}],"stateMutability":"view","type":"function"},{"inputs":[{"internalType":"address","name":"_astrologer","type":"address"}],"name":"getReputationMultiplier","outputs":[{"internalType":"uint256","name":"","type":"uint256"}],"stateMutability":"view","type":"function"},{"inputs":[{"internalType":"address","name":"_astrologerManager","type":"address"},{"internalType":"address","name":"_buyTokenContract","type":"address"},{"internalType":"address","name":"_reputationScorer","type":"address"},{"internalType":"address","name":"_astroTokenLauncher","type":"address"},{"internalType":"uint256","name":"_minStakeAmount","type":"uint256"},{"internalType":"uint256","name":"_maxStakeAmount","type":"uint256"}],"name":"initialize","outputs":[],"stateMutability":"nonpayable","type":"function"},{"inputs":[],"name":"maxStakeAmount","outputs":[{"internalType":"uint256","name":"","type":"uint256"}],"stateMutability":"view","type":"function"},{"inputs":[],"name":"minStakeAmount","outputs":[{"internalType":"uint256","name":"","type":"uint256"}],"stateMutability":"view","type":"function"},{"inputs":[],"name":"owner","outputs":[{"internalType":"address","name":"","type":"address"}],"stateMutability":"view","type":"function"},{"inputs":[{"internalType":"uint256","name":"","type":"uint256"}],"name":"predictions","outputs":[{"internalType":"uint256","name":"id","type":"uint256"},{"internalType":"address","name":"astrologer","type":"address"},{"internalType":"uint256","name":"astrologerId","type":"uint256"},{"internalType":"string","name":"description","type":"string"},{"internalType":"uint256","name":"predictionType","type":"uint256"},{"internalType":"uint256","name":"deadline","type":"uint256"},{"internalType":"bool","name":"outcome","type":"bool"},{"internalType":"bool","name":"isResolved","type":"bool"},{"internalType":"bool","name":"wasAccurate","type":"bool"},{"internalType":"uint256","name":"stakeAmount","type":"uint256"},{"internalType":"uint256","name":"totalStaked","type":"uint256"},{"internalType":"uint256","name":"createdAt","type":"uint256"}],"stateMutability":"view","type":"function"},{"inputs":[],"name":"proxiableUUID","outputs":[{"internalType":"bytes32","name":"","type":"bytes32"}],"stateMutability":"view","type":"function"},{"inputs":[],"name":"renounceOwnership","outputs":[],"stateMutability":"nonpayable","type":"function"},{"inputs":[],"name":"reputationScorer","outputs":[{"internalType":"address","name":"","type":"address"}],"stateMutability":"view","type":"function"},{"inputs":[{"internalType":"uint256","name":"_predictionId","type":"uint256"},{"internalType":"bool","name":"_outcome","type":"bool"}],"name":"resolvePrediction","outputs":[],"stateMutability":"nonpayable","type":"function"},{"inputs":[{"internalType":"address","name":"_astroTokenLauncher","type":"address"}],"name":"setAstroTokenLauncher","outputs":[],"stateMutability":"nonpayable","type":"function"},{"inputs":[{"internalType":"address","name":"_astrologerManager","type":"address"}],"name":"setAstrologerManager","outputs":[],"stateMutability":"nonpayable","type":"function"},{"inputs":[{"internalType":"address","name":"_buyTokenContract","type":"address"}],"name":"setBuyTokenContract","outputs":[],"stateMutability":"nonpayable","type":"function"},{"inputs":[{"internalType":"uint256","name":"_delay","type":"uint256"}],"name":"setCredibilityUpdateDelay","outputs":[],"stateMutability":"nonpayable","type":"function"},{"inputs":[{"internalType":"address","name":"_reputationScorer","type":"address"}],"name":"setReputationScorer","outputs":[],"stateMutability":"nonpayable","type":"function"},{"inputs":[{"internalType":"uint256","name":"_minStakeAmount","type":"uint256"},{"internalType":"uint256","name":"_maxStakeAmount","type":"uint256"}],"name":"setStakeLimits","outputs":[],"stateMutability":"nonpayable","type":"function"},{"inputs":[{"internalType":"address","name":"newOwner","type":"address"}],"name":"transferOwnership","outputs":[],"stateMutability":"nonpayable","type":"function"},{"inputs":[{"internalType":"address","name":"newImplementation","type":"address"}],"name":"upgradeTo","outputs":[],"stateMutability":"nonpayable","type":"function"},{"inputs":[{"internalType":"address","name":"newImplementation","type":"address"},{"internalType":"bytes","name":"data","type":"bytes"}],"name":"upgradeToAndCall","outputs":[],"stateMutability":"payable","type":"function"},{"inputs":[],"name":"withdraw","outputs":[],"stateMutability":"nonpayable","type":"function"}],"devdoc":{"kind":"dev","methods":{"constructor":{"custom:oz-upgrades-unsafe-allow":"constructor"},"owner()":{"details":"Returns the address of the current owner."},"proxiableUUID()":{"details":"Implementation of the ERC1822 {proxiableUUID} function. This returns the storage slot used by the implementation. It is used to validate the implementation's compatibility when performing an upgrade. IMPORTANT: A proxy pointing at a proxiable contract should not be considered proxiable itself, because this risks bricking a proxy that upgrades to it, by delegating to itself until out of gas. Thus it is critical that this function revert if invoked through a proxy. This is guaranteed by the `notDelegated` modifier."},"renounceOwnership()":{"details":"Leaves the contract without owner. It will not be possible to call `onlyOwner` functions. Can only be called by the current owner. NOTE: Renouncing ownership will leave the contract without an owner, thereby disabling any functionality that is only available to the owner."},"transferOwnership(address)":{"details":"Transfers ownership of the contract to a new account (`newOwner`). Can only be called by the current owner."},"upgradeTo(address)":{"custom:oz-upgrades-unsafe-allow-reachable":"delegatecall","details":"Upgrade the implementation of the proxy to `newImplementation`. Calls {_authorizeUpgrade}. Emits an {Upgraded} event."},"upgradeToAndCall(address,bytes)":{"custom:oz-upgrades-unsafe-allow-reachable":"delegatecall","details":"Upgrade the implementation of the proxy to `newImplementation`, and subsequently execute the function call encoded in `data`. Calls {_authorizeUpgrade}. Emits an {Upgraded} event."}},"version":1},"evm":{"bytecode":{"linkReferences":{},"object":"60a080604052346100dc57306080526000549060ff8260081c1661008a575060ff8082160361004f575b60405161241590816100e28239608051818181611598015281816116980152611a230152f35b60ff90811916176000557f7f26b83ff96e1f2b6a682f133852f6798a09c465da95921460cefb3847402498602060405160ff8152a138610029565b62461bcd60e51b815260206004820152602760248201527f496e697469616c697a61626c653a20636f6e747261637420697320696e697469604482015266616c697a696e6760c81b6064820152608490fd5b600080fdfe6080604052600436101561001257600080fd5b6000803560e01c80624fbbb014611ce357806316d54f0914611cba5780632a2fa8c814611c9c5780633659cfe6146119fe57806337562b29146119a85780633ccfd60b1461195857806344cda485146119185780634f1ef2861461164957806352d1902d146115855780635d80ca32146115675780635ddb0e2b146115445780636882fc51146115195780636fd31a41146114f0578063715018a61461149357806373c84d211461146a57806376f3450114610dcd5780637d54f2a514610d675780638c9bd1b514610d3e5780638da5cb5b14610d15578063ab3dcd6a14610cec578063b107e88c14610caf578063bc85818514610c01578063c3a274c214610bc1578063c4faa808146106f5578063d7c41c791461052c578063e2c3538c146104ec578063e9725c21146104ac578063ec88c09b146103f7578063f1887684146103d9578063f2fde38b146103485763fe83bece1461017157600080fd5b346103455760203660031901126103455760409060043581610160845161019781611e16565b82815282602082015282868201526060808201528260808201528260a08201528260c08201528260e0820152826101008201528261012082015282610140820152015280151580610339575b6101ec906122fd565b815260ca6020522060096040519161020383611e16565b8054835260018101546001600160a01b031660208401526002810154604084015261023060038201611e89565b606084015260048101546080840152600581015460a084015260ff6006820154818116151560c0860152818160081c16151560e086015260101c1615156101008401526007810154610120840152600881015461014084015201546101608201526040518091602082528051602083015260018060a01b0360208201511660408301526040810151606083015260608101516101606102dd610180928360808701526101a0860190611f52565b92608081015160a086015260a081015160c086015260c0810151151560e086015260e081015115156101008601526101008101511515610120860152610120810151610140860152610140810151828601520151908301520390f35b5060c9548111156101e3565b80fd5b503461034557602036600319011261034557610362611f77565b61036a61200d565b6001600160a01b038116156103855761038290612065565b80f35b60405162461bcd60e51b815260206004820152602660248201527f4f776e61626c653a206e6577206f776e657220697320746865207a65726f206160448201526564647265737360d01b6064820152608490fd5b5034610345578060031936011261034557602060d154604051908152f35b503461034557602036600319011261034557604060a091610416611f77565b816080845161042481611e32565b82815282602082015282868201528260608201520152600180851b0316815260cb6020522060405161045581611e32565b81549182825260018101546020830190815260028201549060408401918252608060046003850154946060870195865201549401938452604051948552516020850152516040840152516060830152516080820152f35b5034610345576020366003190112610345576104c6611f77565b6104ce61200d565b60018060a01b03166001600160601b0360a01b60cf54161760cf5580f35b503461034557602036600319011261034557610506611f77565b61050e61200d565b60018060a01b03166001600160601b0360a01b60d054161760d05580f35b50346103455760c036600319011261034557610546611f77565b6001600160a01b039060243582811691908290036106f057604435908382168092036106f057606435918483168093036106f05785549360ff8560081c1615948580966106e3575b80156106cc575b156106705760ff19811660011788558561065f575b506105c460ff885460081c166105bf8161229d565b61229d565b6105cd33612065565b8654956105df60ff8860081c1661229d565b6001600160601b0360a01b93168360cd54161760cd558260ce54161760ce558160cf54161760cf5560d054161760d05560843560d15560a43560d2556201518060d35561062a575080f35b61ff00191681557f7f26b83ff96e1f2b6a682f133852f6798a09c465da95921460cefb3847402498602060405160018152a180f35b61ffff1916610101178755386105aa565b60405162461bcd60e51b815260206004820152602e60248201527f496e697469616c697a61626c653a20636f6e747261637420697320616c72656160448201526d191e481a5b9a5d1a585b1a5e995960921b6064820152608490fd5b50303b1580156105955750600160ff821614610595565b50600160ff82161061058e565b600080fd5b506080366003190112610345576004356001600160401b038111610bbd5736602382011215610bbd57610732903690602481600401359101611fd6565b60d1543410610b815760d2543411610b4457426044351115610aff57805115610aba57600260243511610a7557600160c95401908160c95560405161077681611e16565b828152336020820152836040820152816060820152602435608082015260443560a08201528360c08201528360e08201528361010082015234610120820152346101408201524261016082015282845260ca6020526040842090805182556001820160018060a01b036020830151166001600160601b0360a01b8254161790556040810151600283015560608101518051906001600160401b038211610a61576108236003850154611db3565b601f8111610a1c575b50602090601f83116001146109a957918060099492610160948a9261099e575b50508160011b916000199060031b1c19161760038501555b6080810151600485015560a081015160058501556108ce6006850161089b60c08401511515829060ff801983541691151516179055565b60e0830151815461010085015162ffff001990911691151560081b61ff00169190911790151560101b62ff000016179055565b61012081015160078501556101408101516008850155015191015533835260cc602052604083208054936801000000000000000085101561098a575061091d8484926001602097018155611f8d565b819291549060031b600019811b9283911b16911916179055817f37f3edf7ed237f91fd6999d49411c7e10b3602f2e561a5adf21934775659c61a61096c60405193606085526060850190611f52565b926024358682015260443560408201528033940390a3604051908152f35b634e487b7160e01b81526041600452602490fd5b01519050388061084c565b906003850188526020882091885b601f1985168110610a04575092600994926001926101609583601f198116106109eb575b505050811b016003850155610864565b015160001960f88460031b161c191690553880806109db565b919260206001819286850151815501940192016109b7565b60038501885260208820601f840160051c810160208510610a5a575b601f830160051c82018110610a4e57505061082c565b60008155600101610a38565b5080610a38565b634e487b7160e01b87526041600452602487fd5b60405162461bcd60e51b815260206004820152601760248201527f496e76616c69642070726564696374696f6e20747970650000000000000000006044820152606490fd5b60405162461bcd60e51b815260206004820152601b60248201527f4465736372697074696f6e2063616e6e6f7420626520656d70747900000000006044820152606490fd5b60405162461bcd60e51b815260206004820152601e60248201527f446561646c696e65206d75737420626520696e207468652066757475726500006044820152606490fd5b60405162461bcd60e51b81526020600482015260156024820152740a6e8c2d6ca40c2dadeeadce840e8dede40d0d2ced605b1b6044820152606490fd5b60405162461bcd60e51b81526020600482015260146024820152735374616b6520616d6f756e7420746f6f206c6f7760601b6044820152606490fd5b5080fd5b503461034557602036600319011261034557610bdb611f77565b610be361200d565b60018060a01b03166001600160601b0360a01b60ce54161760ce5580f35b503461034557602080600319360112610bbd576001600160a01b03610c24611f77565b16825260cc81526040822060405192838383549182815201908193835284832090835b818110610c9b5750505084610c5d910385611e68565b60405193838594850191818652518092526040850193925b828110610c8457505050500390f35b835185528695509381019392810192600101610c75565b825484529286019260019283019201610c47565b5034610345576020366003190112610345576020906003906040906001600160a01b03610cda611f77565b16815260cb8452200154604051908152f35b503461034557806003193601126103455760d0546040516001600160a01b039091168152602090f35b50346103455780600319360112610345576033546040516001600160a01b039091168152602090f35b503461034557604036600319011261034557610d5861200d565b60043560d15560243560d25580f35b50346103455760203660031901126103455760a0906040906001600160a01b03610d8f611f77565b16815260cb60205220805490600181015490600281015460046003830154920154926040519485526020850152604084015260608301526080820152f35b503461034557604036600319011261034557602435908115158203610345576033546001600160a01b031633148015611456575b1561142257600435151580611414575b610e1a906122fd565b600435815260ca6020526040812091600683019260ff845460081c166113cf576005810154421061139357835460ff191660ff83151516178455600190845462ffff00191683151560101b62ff00001617610100178555019260018060a01b038454169381549480855260cb602052604085209560ff610e9a8854612341565b9182895560101c1661137e575b60018701548060648102046064148115171561136a5781156113565760640204600287018181559690605a811061130957506105dc60038201555b42600482015560d0546001600160a01b03168061107a575b5060607f6a7ecd478c262bb3ab79078dfdd91746ac4294a080e783fcb6c01647a353d5f7916003889998969798549101546040519180835260208301526040820152a260cd546001600160a01b03169081610f95575b50505060ff905460101c166040519115158252151560208201527fce4539ae54088cf98525b0ed90db8b4271abcb31bd3a4b964aed59895698f72f604060043592a280f35b5460405163656d0c3960e01b81526001600160a01b039091166004820152602081602481855afa90811561106f57839161103d575b508015610f505760ff845460101c16823b156110395760448492836040519586948593631c8fdeb560e31b85526004850152151560248401525af1801561102e57611016575b80610f50565b61101f90611ded565b61102a578238611010565b8280fd5b6040513d84823e3d90fd5b8380fd5b90506020813d602011611067575b8161105860209383611e68565b8101031261102a575138610fca565b3d915061104b565b6040513d85823e3d90fd5b9686602498604051998a809263248bb6cd60e21b82528760048301525afa8088916111ab575b889950979596976110b6575b5096959493610efa565b60408101516001600160a01b03169081151580611195575b80611187575b6110df575b506110ac565b60600151600384015495969495939492936001600160a01b039091169291833b1561102a5760449083604051958694859363f6322a5f60e01b8552600485015260248401525af1801561117c5761113d575b908188959493926110d9565b7f6a7ecd478c262bb3ab79078dfdd91746ac4294a080e783fcb6c01647a353d5f791949392600398611170606093611ded565b98509293949150611131565b6040513d8a823e3d90fd5b5061010081015115156110d4565b5060608101516001600160a01b031615156110ce565b90503d988989823e6111bd8a82611e68565b6020818b810103126113055780516001600160401b0381116112e9576101408183018c840103126112e95760405191826101408101106001600160401b03610140850111176112f1578a9b610140849c9a9b9c01604052828201518452611228602084840101612366565b602085015261123b604084840101612366565b604085015261124e606084840101612366565b6060850152608083830101516001600160401b0381116112ed5761127990828401908585010161237a565b608085015260a083830101516001600160401b0381116112ed576112a3918301908484010161237a565b60a084015280820160c0818101519085015260e08082015190850152610100015180151581036112e95761010084015201610120908101519082015295979695906110a0565b8980fd5b8a80fd5b634e487b7160e01b8b52604160045260248bfd5b8880fd5b6050811061131f57506104b06003820155610ee2565b6046811061133557506103e86003820155610ee2565b603c11611349576103206003820155610ee2565b6101f46003820155610ee2565b634e487b7160e01b87526012600452602487fd5b634e487b7160e01b87526011600452602487fd5b6001870161138c8154612341565b9055610ea7565b60405162461bcd60e51b8152602060048201526014602482015273111958591b1a5b99481b9bdd081c995858da195960621b6044820152606490fd5b60405162461bcd60e51b815260206004820152601b60248201527f50726564696374696f6e20616c7265616479207265736f6c76656400000000006044820152606490fd5b5060c9546004351115610e11565b60405162461bcd60e51b815260206004820152600c60248201526b155b985d5d1a1bdc9a5e995960a21b6044820152606490fd5b5060cf546001600160a01b03163314610e01565b503461034557806003193601126103455760cf546040516001600160a01b039091168152602090f35b50346103455780600319360112610345576114ac61200d565b603380546001600160a01b0319811690915581906001600160a01b03167f8be0079c531659141344cd1fd0a4f28419497f9722a3daafe3b4186f6b6457e08280a380f35b503461034557806003193601126103455760cd546040516001600160a01b039091168152602090f35b5034610345576020366003190112610345576020906002906040906001600160a01b03610cda611f77565b50346103455760203660031901126103455761155e61200d565b60043560d35580f35b5034610345578060031936011261034557602060d254604051908152f35b50346103455780600319360112610345577f00000000000000000000000000000000000000000000000000000000000000006001600160a01b031630036115de5760206040516000805160206123c08339815191528152f35b60405162461bcd60e51b815260206004820152603860248201527f555550535570677261646561626c653a206d757374206e6f742062652063616c60448201527f6c6564207468726f7567682064656c656761746563616c6c00000000000000006064820152608490fd5b5060403660031901126103455761165e611f77565b6024356001600160401b03811161102a573660238201121561102a5761168e903690602481600401359101611fd6565b6001600160a01b037f000000000000000000000000000000000000000000000000000000000000000081169291906116c8308514156120ae565b6116e56000805160206123c083398151915294828654161461210f565b6116ed61200d565b7f4910fdfa16fed3260ed0e7147f7cc6da11a60208b5b9406d12a635614ffd91435460ff16156117235750506103829150612170565b8216604051936352d1902d60e01b85526020948581600481865afa8791816118e5575b506117a75760405162461bcd60e51b815260048101879052602e60248201527f45524331393637557067726164653a206e657720696d706c656d656e7461746960448201526d6f6e206973206e6f74205555505360901b6064820152608490fd5b949293940361188e576117b984612170565b7fbc7cd75a20ee27fd9adebab32041f755214dbc6bffa90cc0225b39da2e5c2d3b8580a2815115801590611886575b6117f3575b50505080f35b6118749284806040519461180686611e4d565b602786527f416464726573733a206c6f772d6c6576656c2064656c65676174652063616c6c85870152660819985a5b195960ca1b60408701528481519101845af4903d1561187d573d61185881611fbb565b906118666040519283611e68565b81528681943d92013e612200565b503880806117ed565b60609250612200565b5060016117e8565b60405162461bcd60e51b815260048101839052602960248201527f45524331393637557067726164653a20756e737570706f727465642070726f786044820152681a58589b195555525160ba1b6064820152608490fd5b9091508681813d8311611911575b6118fd8183611e68565b8101031261190d57519038611746565b8780fd5b503d6118f3565b503461034557602036600319011261034557611932611f77565b61193a61200d565b60018060a01b03166001600160601b0360a01b60cd54161760cd5580f35b503461034557806003193601126103455761197161200d565b8080808060018060a01b0360335416479082821561199f575bf1156119935780f35b604051903d90823e3d90fd5b506108fc61198a565b5034610345576040366003190112610345576119c2611f77565b6001600160a01b0316815260cc60205260408120805460243592908310156103455760206119f08484611f8d565b90546040519160031b1c8152f35b503461034557602080600319360112610bbd57611a19611f77565b6001600160a01b037f00000000000000000000000000000000000000000000000000000000000000008116611a50308214156120ae565b611a6d6000805160206123c083398151915291838354161461210f565b611a7561200d565b60405190848201928284106001600160401b03851117610a61578360405286835260ff7f4910fdfa16fed3260ed0e7147f7cc6da11a60208b5b9406d12a635614ffd91435416600014611ad057505050506103829150612170565b8492939416906040516352d1902d60e01b81528681600481865afa889181611c6d575b50611b545760405162461bcd60e51b815260048101889052602e60248201527f45524331393637557067726164653a206e657720696d706c656d656e7461746960448201526d6f6e206973206e6f74205555505360901b6064820152608490fd5b9593949503611c1657611b6682612170565b7fbc7cd75a20ee27fd9adebab32041f755214dbc6bffa90cc0225b39da2e5c2d3b8680a284835115801590611c0f575b611ba3575b505050505080f35b80611c049560405195611bb587611e4d565b602787527f416464726573733a206c6f772d6c6576656c2064656c65676174652063616c6c86880152660819985a5b195960ca1b60408801525190845af4903d1561187d573d61185881611fbb565b503880808084611b9b565b5080611b96565b60405162461bcd60e51b815260048101849052602960248201527f45524331393637557067726164653a20756e737570706f727465642070726f786044820152681a58589b195555525160ba1b6064820152608490fd5b9091508781813d8311611c95575b611c858183611e68565b8101031261130557519038611af3565b503d611c7b565b5034610345578060031936011261034557602060d354604051908152f35b503461034557806003193601126103455760ce546040516001600160a01b039091168152602090f35b503461034557602036600319011261034557604090600435815260ca60205220805460018060a01b03600183015416916002810154611d2460038301611e89565b9160048101549260ff6005830154600684015490611d6f60078601549460096008880154970154976040519b8c9b8c5260208c015260408b01526101808060608c01528a0190611f52565b96608089015260a0880152818116151560c0880152818160081c16151560e088015260101c1615156101008601526101208501526101408401526101608301520390f35b90600182811c92168015611de3575b6020831014611dcd57565b634e487b7160e01b600052602260045260246000fd5b91607f1691611dc2565b6001600160401b038111611e0057604052565b634e487b7160e01b600052604160045260246000fd5b61018081019081106001600160401b03821117611e0057604052565b60a081019081106001600160401b03821117611e0057604052565b606081019081106001600160401b03821117611e0057604052565b90601f801991011681019081106001600160401b03821117611e0057604052565b9060405191826000825492611e9d84611db3565b908184526001948581169081600014611f0c5750600114611ec9575b5050611ec792500383611e68565b565b9093915060005260209081600020936000915b818310611ef4575050611ec793508201013880611eb9565b85548884018501529485019487945091830191611edc565b915050611ec794506020925060ff191682840152151560051b8201013880611eb9565b60005b838110611f425750506000910152565b8181015183820152602001611f32565b90602091611f6b81518092818552858086019101611f2f565b601f01601f1916010190565b600435906001600160a01b03821682036106f057565b8054821015611fa55760005260206000200190600090565b634e487b7160e01b600052603260045260246000fd5b6001600160401b038111611e0057601f01601f191660200190565b929192611fe282611fbb565b91611ff06040519384611e68565b8294818452818301116106f0578281602093846000960137010152565b6033546001600160a01b0316330361202157565b606460405162461bcd60e51b815260206004820152602060248201527f4f776e61626c653a2063616c6c6572206973206e6f7420746865206f776e65726044820152fd5b603380546001600160a01b039283166001600160a01b0319821681179092559091167f8be0079c531659141344cd1fd0a4f28419497f9722a3daafe3b4186f6b6457e0600080a3565b156120b557565b60405162461bcd60e51b815260206004820152602c60248201527f46756e6374696f6e206d7573742062652063616c6c6564207468726f7567682060448201526b19195b1959d85d1958d85b1b60a21b6064820152608490fd5b1561211657565b60405162461bcd60e51b815260206004820152602c60248201527f46756e6374696f6e206d7573742062652063616c6c6564207468726f7567682060448201526b6163746976652070726f787960a01b6064820152608490fd5b803b156121a5576000805160206123c083398151915280546001600160a01b0319166001600160a01b03909216919091179055565b60405162461bcd60e51b815260206004820152602d60248201527f455243313936373a206e657720696d706c656d656e746174696f6e206973206e60448201526c1bdd08184818dbdb9d1c9858dd609a1b6064820152608490fd5b919290156122625750815115612214575090565b3b1561221d5790565b60405162461bcd60e51b815260206004820152601d60248201527f416464726573733a2063616c6c20746f206e6f6e2d636f6e74726163740000006044820152606490fd5b8251909150156122755750805190602001fd5b60405162461bcd60e51b815260206004820152908190612299906024830190611f52565b0390fd5b156122a457565b60405162461bcd60e51b815260206004820152602b60248201527f496e697469616c697a61626c653a20636f6e7472616374206973206e6f74206960448201526a6e697469616c697a696e6760a81b6064820152608490fd5b1561230457565b60405162461bcd60e51b8152602060048201526015602482015274125b9d985b1a59081c1c99591a58dd1a5bdb881251605a1b6044820152606490fd5b60001981146123505760010190565b634e487b7160e01b600052601160045260246000fd5b51906001600160a01b03821682036106f057565b81601f820112156106f057805161239081611fbb565b9261239e6040519485611e68565b818452602082840101116106f0576123bc9160208085019101611f2f565b9056fe360894a13ba1a3210667c828492db98dca3e2076cc3735a920a3ca505d382bbca26469706673582212201d1d809abf756a0d1183a8c27da3bbf771682288cc4360e2e26357f9dba0b48c64736f6c63430008110033","opcodes":"PUSH1 0xA0 DUP1 PUSH1 0x40 MSTORE CALLVALUE PUSH2 0xDC JUMPI ADDRESS PUSH1 0x80 MSTORE PUSH1 0x0 SLOAD SWAP1 PUSH1 0xFF DUP3 PUSH1 0x8 SHR AND PUSH2 0x8A JUMPI POP PUSH1 0xFF DUP1 DUP3 AND SUB PUSH2 0x4F JUMPI JUMPDEST PUSH1 0x40 MLOAD PUSH2 0x2415 SWAP1 DUP2 PUSH2 0xE2 DUP3 CODECOPY PUSH1 0x80 MLOAD DUP2 DUP2 DUP2 PUSH2 0x1598 ADD MSTORE DUP2 DUP2 PUSH2 0x1698 ADD MSTORE PUSH2 0x1A23 ADD MSTORE RETURN JUMPDEST PUSH1 0xFF SWAP1 DUP2 NOT AND OR PUSH1 0x0 SSTORE PUSH32 0x7F26B83FF96E1F2B6A682F133852F6798A09C465DA95921460CEFB3847402498 PUSH1 0x20 PUSH1 0x40 MLOAD PUSH1 0xFF DUP2 MSTORE LOG1 CODESIZE PUSH2 0x29 JUMP JUMPDEST PUSH3 0x461BCD PUSH1 0xE5 SHL DUP2 MSTORE PUSH1 0x20 PUSH1 0x4 DUP3 ADD MSTORE PUSH1 0x27 PUSH1 0x24 DUP3 ADD MSTORE PUSH32 0x496E697469616C697A61626C653A20636F6E747261637420697320696E697469 PUSH1 0x44 DUP3 ADD MSTORE PUSH7 0x616C697A696E67 PUSH1 0xC8 SHL PUSH1 0x64 DUP3 ADD MSTORE PUSH1 0x84 SWAP1 REVERT JUMPDEST PUSH1 0x0 DUP1 REVERT INVALID PUSH1 0x80 PUSH1 0x40 MSTORE PUSH1 0x4 CALLDATASIZE LT ISZERO PUSH2 0x12 JUMPI PUSH1 0x0 DUP1 REVERT JUMPDEST PUSH1 0x0 DUP1 CALLDATALOAD PUSH1 0xE0 SHR DUP1 PUSH3 0x4FBBB0 EQ PUSH2 0x1CE3 JUMPI DUP1 PUSH4 0x16D54F09 EQ PUSH2 0x1CBA JUMPI DUP1 PUSH4 0x2A2FA8C8 EQ PUSH2 0x1C9C JUMPI DUP1 PUSH4 0x3659CFE6 EQ PUSH2 0x19FE JUMPI DUP1 PUSH4 0x37562B29 EQ PUSH2 0x19A8 JUMPI DUP1 PUSH4 0x3CCFD60B EQ PUSH2 0x1958 JUMPI DUP1 PUSH4 0x44CDA485 EQ PUSH2 0x1918 JUMPI DUP1 PUSH4 0x4F1EF286 EQ PUSH2 0x1649 JUMPI DUP1 PUSH4 0x52D1902D EQ PUSH2 0x1585 JUMPI DUP1 PUSH4 0x5D80CA32 EQ PUSH2 0x1567 JUMPI DUP1 PUSH4 0x5DDB0E2B EQ PUSH2 0x1544 JUMPI DUP1 PUSH4 0x6882FC51 EQ PUSH2 0x1519 JUMPI DUP1 PUSH4 0x6FD31A41 EQ PUSH2 0x14F0 JUMPI DUP1 PUSH4 0x715018A6 EQ PUSH2 0x1493 JUMPI DUP1 PUSH4 0x73C84D21 EQ PUSH2 0x146A JUMPI DUP1 PUSH4 0x76F34501 EQ PUSH2 0xDCD JUMPI DUP1 PUSH4 0x7D54F2A5 EQ PUSH2 0xD67 JUMPI DUP1 PUSH4 0x8C9BD1B5 EQ PUSH2 0xD3E JUMPI DUP1 PUSH4 0x8DA5CB5B EQ PUSH2 0xD15 JUMPI DUP1 PUSH4 0xAB3DCD6A EQ PUSH2 0xCEC JUMPI DUP1 PUSH4 0xB107E88C EQ PUSH2 0xCAF JUMPI DUP1 PUSH4 0xBC858185 EQ PUSH2 0xC01 JUMPI DUP1 PUSH4 0xC3A274C2 EQ PUSH2 0xBC1 JUMPI DUP1 PUSH4 0xC4FAA808 EQ PUSH2 0x6F5 JUMPI DUP1 PUSH4 0xD7C41C79 EQ PUSH2 0x52C JUMPI DUP1 PUSH4 0xE2C3538C EQ PUSH2 0x4EC JUMPI DUP1 PUSH4 0xE9725C21 EQ PUSH2 0x4AC JUMPI DUP1 PUSH4 0xEC88C09B EQ PUSH2 0x3F7 JUMPI DUP1 PUSH4 0xF1887684 EQ PUSH2 0x3D9 JUMPI DUP1 PUSH4 0xF2FDE38B EQ PUSH2 0x348 JUMPI PUSH4 0xFE83BECE EQ PUSH2 0x171 JUMPI PUSH1 0x0 DUP1 REVERT JUMPDEST CALLVALUE PUSH2 0x345 JUMPI PUSH1 0x20 CALLDATASIZE PUSH1 0x3 NOT ADD SLT PUSH2 0x345 JUMPI PUSH1 0x40 SWAP1 PUSH1 0x4 CALLDATALOAD DUP2 PUSH2 0x160 DUP5 MLOAD PUSH2 0x197 DUP2 PUSH2 0x1E16 JUMP JUMPDEST DUP3 DUP2 MSTORE DUP3 PUSH1 0x20 DUP3 ADD MSTORE DUP3 DUP7 DUP3 ADD MSTORE PUSH1 0x60 DUP1 DUP3 ADD MSTORE DUP3 PUSH1 0x80 DUP3 ADD MSTORE DUP3 PUSH1 0xA0 DUP3 ADD MSTORE DUP3 PUSH1 0xC0 DUP3 ADD MSTORE DUP3 PUSH1 0xE0 DUP3 ADD MSTORE DUP3 PUSH2 0x100 DUP3 ADD MSTORE DUP3 PUSH2 0x120 DUP3 ADD MSTORE DUP3 PUSH2 0x140 DUP3 ADD MSTORE ADD MSTORE DUP1 ISZERO ISZERO DUP1 PUSH2 0x339 JUMPI JUMPDEST PUSH2 0x1EC SWAP1 PUSH2 0x22FD JUMP JUMPDEST DUP2 MSTORE PUSH1 0xCA PUSH1 0x20 MSTORE KECCAK256 PUSH1 0x9 PUSH1 0x40 MLOAD SWAP2 PUSH2 0x203 DUP4 PUSH2 0x1E16 JUMP JUMPDEST DUP1 SLOAD DUP4 MSTORE PUSH1 0x1 DUP2 ADD SLOAD PUSH1 0x1 PUSH1 0x1 PUSH1 0xA0 SHL SUB AND PUSH1 0x20 DUP5 ADD MSTORE PUSH1 0x2 DUP2 ADD SLOAD PUSH1 0x40 DUP5 ADD MSTORE PUSH2 0x230 PUSH1 0x3 DUP3 ADD PUSH2 0x1E89 JUMP JUMPDEST PUSH1 0x60 DUP5 ADD MSTORE PUSH1 0x4 DUP2 ADD SLOAD PUSH1 0x80 DUP5 ADD MSTORE PUSH1 0x5 DUP2 ADD SLOAD PUSH1 0xA0 DUP5 ADD MSTORE PUSH1 0xFF PUSH1 0x6 DUP3 ADD SLOAD DUP2 DUP2 AND ISZERO ISZERO PUSH1 0xC0 DUP7 ADD MSTORE DUP2 DUP2 PUSH1 0x8 SHR AND ISZERO ISZERO PUSH1 0xE0 DUP7 ADD MSTORE PUSH1 0x10 SHR AND ISZERO ISZERO PUSH2 0x100 DUP5 ADD MSTORE PUSH1 0x7 DUP2 ADD SLOAD PUSH2 0x120 DUP5 ADD MSTORE PUSH1 0x8 DUP2 ADD SLOAD PUSH2 0x140 DUP5 ADD MSTORE ADD SLOAD PUSH2 0x160 DUP3 ADD MSTORE PUSH1 0x40 MLOAD DUP1 SWAP2 PUSH1 0x20 DUP3 MSTORE DUP1 MLOAD PUSH1 0x20 DUP4 ADD MSTORE PUSH1 0x1 DUP1 PUSH1 0xA0 SHL SUB PUSH1 0x20 DUP3 ADD MLOAD AND PUSH1 0x40 DUP4 ADD MSTORE PUSH1 0x40 DUP2 ADD MLOAD PUSH1 0x60 DUP4 ADD MSTORE PUSH1 0x60 DUP2 ADD MLOAD PUSH2 0x160 PUSH2 0x2DD PUSH2 0x180 SWAP3 DUP4 PUSH1 0x80 DUP8 ADD MSTORE PUSH2 0x1A0 DUP7 ADD SWAP1 PUSH2 0x1F52 JUMP JUMPDEST SWAP3 PUSH1 0x80 DUP2 ADD MLOAD PUSH1 0xA0 DUP7 ADD MSTORE PUSH1 0xA0 DUP2 ADD MLOAD PUSH1 0xC0 DUP7 ADD MSTORE PUSH1 0xC0 DUP2 ADD MLOAD ISZERO ISZERO PUSH1 0xE0 DUP7 ADD MSTORE PUSH1 0xE0 DUP2 ADD MLOAD ISZERO ISZERO PUSH2 0x100 DUP7 ADD MSTORE PUSH2 0x100 DUP2 ADD MLOAD ISZERO ISZERO PUSH2 0x120 DUP7 ADD MSTORE PUSH2 0x120 DUP2 ADD MLOAD PUSH2 0x140 DUP7 ADD MSTORE PUSH2 0x140 DUP2 ADD MLOAD DUP3 DUP7 ADD MSTORE ADD MLOAD SWAP1 DUP4 ADD MSTORE SUB SWAP1 RETURN JUMPDEST POP PUSH1 0xC9 SLOAD DUP2 GT ISZERO PUSH2 0x1E3 JUMP JUMPDEST DUP1 REVERT JUMPDEST POP CALLVALUE PUSH2 0x345 JUMPI PUSH1 0x20 CALLDATASIZE PUSH1 0x3 NOT ADD SLT PUSH2 0x345 JUMPI PUSH2 0x362 PUSH2 0x1F77 JUMP JUMPDEST PUSH2 0x36A PUSH2 0x200D JUMP JUMPDEST PUSH1 0x1 PUSH1 0x1 PUSH1 0xA0 SHL SUB DUP2 AND ISZERO PUSH2 0x385 JUMPI PUSH2 0x382 SWAP1 PUSH2 0x2065 JUMP JUMPDEST DUP1 RETURN JUMPDEST PUSH1 0x40 MLOAD PUSH3 0x461BCD PUSH1 0xE5 SHL DUP2 MSTORE PUSH1 0x20 PUSH1 0x4 DUP3 ADD MSTORE PUSH1 0x26 PUSH1 0x24 DUP3 ADD MSTORE PUSH32 0x4F776E61626C653A206E6577206F776E657220697320746865207A65726F2061 PUSH1 0x44 DUP3 ADD MSTORE PUSH6 0x646472657373 PUSH1 0xD0 SHL PUSH1 0x64 DUP3 ADD MSTORE PUSH1 0x84 SWAP1 REVERT JUMPDEST POP CALLVALUE PUSH2 0x345 JUMPI DUP1 PUSH1 0x3 NOT CALLDATASIZE ADD SLT PUSH2 0x345 JUMPI PUSH1 0x20 PUSH1 0xD1 SLOAD PUSH1 0x40 MLOAD SWAP1 DUP2 MSTORE RETURN JUMPDEST POP CALLVALUE PUSH2 0x345 JUMPI PUSH1 0x20 CALLDATASIZE PUSH1 0x3 NOT ADD SLT PUSH2 0x345 JUMPI PUSH1 0x40 PUSH1 0xA0 SWAP2 PUSH2 0x416 PUSH2 0x1F77 JUMP JUMPDEST DUP2 PUSH1 0x80 DUP5 MLOAD PUSH2 0x424 DUP2 PUSH2 0x1E32 JUMP JUMPDEST DUP3 DUP2 MSTORE DUP3 PUSH1 0x20 DUP3 ADD MSTORE DUP3 DUP7 DUP3 ADD MSTORE DUP3 PUSH1 0x60 DUP3 ADD MSTORE ADD MSTORE PUSH1 0x1 DUP1 DUP6 SHL SUB AND DUP2 MSTORE PUSH1 0xCB PUSH1 0x20 MSTORE KECCAK256 PUSH1 0x40 MLOAD PUSH2 0x455 DUP2 PUSH2 0x1E32 JUMP JUMPDEST DUP2 SLOAD SWAP2 DUP3 DUP3 MSTORE PUSH1 0x1 DUP2 ADD SLOAD PUSH1 0x20 DUP4 ADD SWAP1 DUP2 MSTORE PUSH1 0x2 DUP3 ADD SLOAD SWAP1 PUSH1 0x40 DUP5 ADD SWAP2 DUP3 MSTORE PUSH1 0x80 PUSH1 0x4 PUSH1 0x3 DUP6 ADD SLOAD SWAP5 PUSH1 0x60 DUP8 ADD SWAP6 DUP7 MSTORE ADD SLOAD SWAP5 ADD SWAP4 DUP5 MSTORE PUSH1 0x40 MLOAD SWAP5 DUP6 MSTORE MLOAD PUSH1 0x20 DUP6 ADD MSTORE MLOAD PUSH1 0x40 DUP5 ADD MSTORE MLOAD PUSH1 0x60 DUP4 ADD MSTORE MLOAD PUSH1 0x80 DUP3 ADD MSTORE RETURN JUMPDEST POP CALLVALUE PUSH2 0x345 JUMPI PUSH1 0x20 CALLDATASIZE PUSH1 0x3 NOT ADD SLT PUSH2 0x345 JUMPI PUSH2 0x4C6 PUSH2 0x1F77 JUMP JUMPDEST PUSH2 0x4CE PUSH2 0x200D JUMP JUMPDEST PUSH1 0x1 DUP1 PUSH1 0xA0 SHL SUB AND PUSH1 0x1 PUSH1 0x1 PUSH1 0x60 SHL SUB PUSH1 0xA0 SHL PUSH1 0xCF SLOAD AND OR PUSH1 0xCF SSTORE DUP1 RETURN JUMPDEST POP CALLVALUE PUSH2 0x345 JUMPI PUSH1 0x20 CALLDATASIZE PUSH1 0x3 NOT ADD SLT PUSH2 0x345 JUMPI PUSH2 0x506 PUSH2 0x1F77 JUMP JUMPDEST PUSH2 0x50E PUSH2 0x200D JUMP JUMPDEST PUSH1 0x1 DUP1 PUSH1 0xA0 SHL SUB AND PUSH1 0x1 PUSH1 0x1 PUSH1 0x60 SHL SUB PUSH1 0xA0 SHL PUSH1 0xD0 SLOAD AND OR PUSH1 0xD0 SSTORE DUP1 RETURN JUMPDEST POP CALLVALUE PUSH2 0x345 JUMPI PUSH1 0xC0 CALLDATASIZE PUSH1 0x3 NOT ADD SLT PUSH2 0x345 JUMPI PUSH2 0x546 PUSH2 0x1F77 JUMP JUMPDEST PUSH1 0x1 PUSH1 0x1 PUSH1 0xA0 SHL SUB SWAP1 PUSH1 0x24 CALLDATALOAD DUP3 DUP2 AND SWAP2 SWAP1 DUP3 SWAP1 SUB PUSH2 0x6F0 JUMPI PUSH1 0x44 CALLDATALOAD SWAP1 DUP4 DUP3 AND DUP1 SWAP3 SUB PUSH2 0x6F0 JUMPI PUSH1 0x64 CALLDATALOAD SWAP2 DUP5 DUP4 AND DUP1 SWAP4 SUB PUSH2 0x6F0 JUMPI DUP6 SLOAD SWAP4 PUSH1 0xFF DUP6 PUSH1 0x8 SHR AND ISZERO SWAP5 DUP6 DUP1 SWAP7 PUSH2 0x6E3 JUMPI JUMPDEST DUP1 ISZERO PUSH2 0x6CC JUMPI JUMPDEST ISZERO PUSH2 0x670 JUMPI PUSH1 0xFF NOT DUP2 AND PUSH1 0x1 OR DUP9 SSTORE DUP6 PUSH2 0x65F JUMPI JUMPDEST POP PUSH2 0x5C4 PUSH1 0xFF DUP9 SLOAD PUSH1 0x8 SHR AND PUSH2 0x5BF DUP2 PUSH2 0x229D JUMP JUMPDEST PUSH2 0x229D JUMP JUMPDEST PUSH2 0x5CD CALLER PUSH2 0x2065 JUMP JUMPDEST DUP7 SLOAD SWAP6 PUSH2 0x5DF PUSH1 0xFF DUP9 PUSH1 0x8 SHR AND PUSH2 0x229D JUMP JUMPDEST PUSH1 0x1 PUSH1 0x1 PUSH1 0x60 SHL SUB PUSH1 0xA0 SHL SWAP4 AND DUP4 PUSH1 0xCD SLOAD AND OR PUSH1 0xCD SSTORE DUP3 PUSH1 0xCE SLOAD AND OR PUSH1 0xCE SSTORE DUP2 PUSH1 0xCF SLOAD AND OR PUSH1 0xCF SSTORE PUSH1 0xD0 SLOAD AND OR PUSH1 0xD0 SSTORE PUSH1 0x84 CALLDATALOAD PUSH1 0xD1 SSTORE PUSH1 0xA4 CALLDATALOAD PUSH1 0xD2 SSTORE PUSH3 0x15180 PUSH1 0xD3 SSTORE PUSH2 0x62A JUMPI POP DUP1 RETURN JUMPDEST PUSH2 0xFF00 NOT AND DUP2 SSTORE PUSH32 0x7F26B83FF96E1F2B6A682F133852F6798A09C465DA95921460CEFB3847402498 PUSH1 0x20 PUSH1 0x40 MLOAD PUSH1 0x1 DUP2 MSTORE LOG1 DUP1 RETURN JUMPDEST PUSH2 0xFFFF NOT AND PUSH2 0x101 OR DUP8 SSTORE CODESIZE PUSH2 0x5AA JUMP JUMPDEST PUSH1 0x40 MLOAD PUSH3 0x461BCD PUSH1 0xE5 SHL DUP2 MSTORE PUSH1 0x20 PUSH1 0x4 DUP3 ADD MSTORE PUSH1 0x2E PUSH1 0x24 DUP3 ADD MSTORE PUSH32 0x496E697469616C697A61626C653A20636F6E747261637420697320616C726561 PUSH1 0x44 DUP3 ADD MSTORE PUSH14 0x191E481A5B9A5D1A585B1A5E9959 PUSH1 0x92 SHL PUSH1 0x64 DUP3 ADD MSTORE PUSH1 0x84 SWAP1 REVERT JUMPDEST POP ADDRESS EXTCODESIZE ISZERO DUP1 ISZERO PUSH2 0x595 JUMPI POP PUSH1 0x1 PUSH1 0xFF DUP3 AND EQ PUSH2 0x595 JUMP JUMPDEST POP PUSH1 0x1 PUSH1 0xFF DUP3 AND LT PUSH2 0x58E JUMP JUMPDEST PUSH1 0x0 DUP1 REVERT JUMPDEST POP PUSH1 0x80 CALLDATASIZE PUSH1 0x3 NOT ADD SLT PUSH2 0x345 JUMPI PUSH1 0x4 CALLDATALOAD PUSH1 0x1 PUSH1 0x1 PUSH1 0x40 SHL SUB DUP2 GT PUSH2 0xBBD JUMPI CALLDATASIZE PUSH1 0x23 DUP3 ADD SLT ISZERO PUSH2 0xBBD JUMPI PUSH2 0x732 SWAP1 CALLDATASIZE SWAP1 PUSH1 0x24 DUP2 PUSH1 0x4 ADD CALLDATALOAD SWAP2 ADD PUSH2 0x1FD6 JUMP JUMPDEST PUSH1 0xD1 SLOAD CALLVALUE LT PUSH2 0xB81 JUMPI PUSH1 0xD2 SLOAD CALLVALUE GT PUSH2 0xB44 JUMPI TIMESTAMP PUSH1 0x44 CALLDATALOAD GT ISZERO PUSH2 0xAFF JUMPI DUP1 MLOAD ISZERO PUSH2 0xABA JUMPI PUSH1 0x2 PUSH1 0x24 CALLDATALOAD GT PUSH2 0xA75 JUMPI PUSH1 0x1 PUSH1 0xC9 SLOAD ADD SWAP1 DUP2 PUSH1 0xC9 SSTORE PUSH1 0x40 MLOAD PUSH2 0x776 DUP2 PUSH2 0x1E16 JUMP JUMPDEST DUP3 DUP2 MSTORE CALLER PUSH1 0x20 DUP3 ADD MSTORE DUP4 PUSH1 0x40 DUP3 ADD MSTORE DUP2 PUSH1 0x60 DUP3 ADD MSTORE PUSH1 0x24 CALLDATALOAD PUSH1 0x80 DUP3 ADD MSTORE PUSH1 0x44 CALLDATALOAD PUSH1 0xA0 DUP3 ADD MSTORE DUP4 PUSH1 0xC0 DUP3 ADD MSTORE DUP4 PUSH1 0xE0 DUP3 ADD MSTORE DUP4 PUSH2 0x100 DUP3 ADD MSTORE CALLVALUE PUSH2 0x120 DUP3 ADD MSTORE CALLVALUE PUSH2 0x140 DUP3 ADD MSTORE TIMESTAMP PUSH2 0x160 DUP3 ADD MSTORE DUP3 DUP5 MSTORE PUSH1 0xCA PUSH1 0x20 MSTORE PUSH1 0x40 DUP5 KECCAK256 SWAP1 DUP1 MLOAD DUP3 SSTORE PUSH1 0x1 DUP3 ADD PUSH1 0x1 DUP1 PUSH1 0xA0 SHL SUB PUSH1 0x20 DUP4 ADD MLOAD AND PUSH1 0x1 PUSH1 0x1 PUSH1 0x60 SHL SUB PUSH1 0xA0 SHL DUP3 SLOAD AND OR SWAP1 SSTORE PUSH1 0x40 DUP2 ADD MLOAD PUSH1 0x2 DUP4 ADD SSTORE PUSH1 0x60 DUP2 ADD MLOAD DUP1 MLOAD SWAP1 PUSH1 0x1 PUSH1 0x1 PUSH1 0x40 SHL SUB DUP3 GT PUSH2 0xA61 JUMPI PUSH2 0x823 PUSH1 0x3 DUP6 ADD SLOAD PUSH2 0x1DB3 JUMP JUMPDEST PUSH1 0x1F DUP2 GT PUSH2 0xA1C JUMPI JUMPDEST POP PUSH1 0x20 SWAP1 PUSH1 0x1F DUP4 GT PUSH1 0x1 EQ PUSH2 0x9A9 JUMPI SWAP2 DUP1 PUSH1 0x9 SWAP5 SWAP3 PUSH2 0x160 SWAP5 DUP11 SWAP3 PUSH2 0x99E JUMPI JUMPDEST POP POP DUP2 PUSH1 0x1 SHL SWAP2 PUSH1 0x0 NOT SWAP1 PUSH1 0x3 SHL SHR NOT AND OR PUSH1 0x3 DUP6 ADD SSTORE JUMPDEST PUSH1 0x80 DUP2 ADD MLOAD PUSH1 0x4 DUP6 ADD SSTORE PUSH1 0xA0 DUP2 ADD MLOAD PUSH1 0x5 DUP6 ADD SSTORE PUSH2 0x8CE PUSH1 0x6 DUP6 ADD PUSH2 0x89B PUSH1 0xC0 DUP5 ADD MLOAD ISZERO ISZERO DUP3 SWAP1 PUSH1 0xFF DUP1 NOT DUP4 SLOAD AND SWAP2 ISZERO ISZERO AND OR SWAP1 SSTORE JUMP JUMPDEST PUSH1 0xE0 DUP4 ADD MLOAD DUP2 SLOAD PUSH2 0x100 DUP6 ADD MLOAD PUSH3 0xFFFF00 NOT SWAP1 SWAP2 AND SWAP2 ISZERO ISZERO PUSH1 0x8 SHL PUSH2 0xFF00 AND SWAP2 SWAP1 SWAP2 OR SWAP1 ISZERO ISZERO PUSH1 0x10 SHL PUSH3 0xFF0000 AND OR SWAP1 SSTORE JUMP JUMPDEST PUSH2 0x120 DUP2 ADD MLOAD PUSH1 0x7 DUP6 ADD SSTORE PUSH2 0x140 DUP2 ADD MLOAD PUSH1 0x8 DUP6 ADD SSTORE ADD MLOAD SWAP2 ADD SSTORE CALLER DUP4 MSTORE PUSH1 0xCC PUSH1 0x20 MSTORE PUSH1 0x40 DUP4 KECCAK256 DUP1 SLOAD SWAP4 PUSH9 0x10000000000000000 DUP6 LT ISZERO PUSH2 0x98A JUMPI POP PUSH2 0x91D DUP5 DUP5 SWAP3 PUSH1 0x1 PUSH1 0x20 SWAP8 ADD DUP2 SSTORE PUSH2 0x1F8D JUMP JUMPDEST DUP2 SWAP3 SWAP2 SLOAD SWAP1 PUSH1 0x3 SHL PUSH1 0x0 NOT DUP2 SHL SWAP3 DUP4 SWAP2 SHL AND SWAP2 NOT AND OR SWAP1 SSTORE DUP2 PUSH32 0x37F3EDF7ED237F91FD6999D49411C7E10B3602F2E561A5ADF21934775659C61A PUSH2 0x96C PUSH1 0x40 MLOAD SWAP4 PUSH1 0x60 DUP6 MSTORE PUSH1 0x60 DUP6 ADD SWAP1 PUSH2 0x1F52 JUMP JUMPDEST SWAP3 PUSH1 0x24 CALLDATALOAD DUP7 DUP3 ADD MSTORE PUSH1 0x44 CALLDATALOAD PUSH1 0x40 DUP3 ADD MSTORE DUP1 CALLER SWAP5 SUB SWAP1 LOG3 PUSH1 0x40 MLOAD SWAP1 DUP2 MSTORE RETURN JUMPDEST PUSH4 0x4E487B71 PUSH1 0xE0 SHL DUP2 MSTORE PUSH1 0x41 PUSH1 0x4 MSTORE PUSH1 0x24 SWAP1 REVERT JUMPDEST ADD MLOAD SWAP1 POP CODESIZE DUP1 PUSH2 0x84C JUMP JUMPDEST SWAP1 PUSH1 0x3 DUP6 ADD DUP9 MSTORE PUSH1 0x20 DUP9 KECCAK256 SWAP2 DUP9 JUMPDEST PUSH1 0x1F NOT DUP6 AND DUP2 LT PUSH2 0xA04 JUMPI POP SWAP3 PUSH1 0x9 SWAP5 SWAP3 PUSH1 0x1 SWAP3 PUSH2 0x160 SWAP6 DUP4 PUSH1 0x1F NOT DUP2 AND LT PUSH2 0x9EB JUMPI JUMPDEST POP POP POP DUP2 SHL ADD PUSH1 0x3 DUP6 ADD SSTORE PUSH2 0x864 JUMP JUMPDEST ADD MLOAD PUSH1 0x0 NOT PUSH1 0xF8 DUP5 PUSH1 0x3 SHL AND SHR NOT AND SWAP1 SSTORE CODESIZE DUP1 DUP1 PUSH2 0x9DB JUMP JUMPDEST SWAP2 SWAP3 PUSH1 0x20 PUSH1 0x1 DUP2 SWAP3 DUP7 DUP6 ADD MLOAD DUP2 SSTORE ADD SWAP5 ADD SWAP3 ADD PUSH2 0x9B7 JUMP JUMPDEST PUSH1 0x3 DUP6 ADD DUP9 MSTORE PUSH1 0x20 DUP9 KECCAK256 PUSH1 0x1F DUP5 ADD PUSH1 0x5 SHR DUP2 ADD PUSH1 0x20 DUP6 LT PUSH2 0xA5A JUMPI JUMPDEST PUSH1 0x1F DUP4 ADD PUSH1 0x5 SHR DUP3 ADD DUP2 LT PUSH2 0xA4E JUMPI POP POP PUSH2 0x82C JUMP JUMPDEST PUSH1 0x0 DUP2 SSTORE PUSH1 0x1 ADD PUSH2 0xA38 JUMP JUMPDEST POP DUP1 PUSH2 0xA38 JUMP JUMPDEST PUSH4 0x4E487B71 PUSH1 0xE0 SHL DUP8 MSTORE PUSH1 0x41 PUSH1 0x4 MSTORE PUSH1 0x24 DUP8 REVERT JUMPDEST PUSH1 0x40 MLOAD PUSH3 0x461BCD PUSH1 0xE5 SHL DUP2 MSTORE PUSH1 0x20 PUSH1 0x4 DUP3 ADD MSTORE PUSH1 0x17 PUSH1 0x24 DUP3 ADD MSTORE PUSH32 0x496E76616C69642070726564696374696F6E2074797065000000000000000000 PUSH1 0x44 DUP3 ADD MSTORE PUSH1 0x64 SWAP1 REVERT JUMPDEST PUSH1 0x40 MLOAD PUSH3 0x461BCD PUSH1 0xE5 SHL DUP2 MSTORE PUSH1 0x20 PUSH1 0x4 DUP3 ADD MSTORE PUSH1 0x1B PUSH1 0x24 DUP3 ADD MSTORE PUSH32 0x4465736372697074696F6E2063616E6E6F7420626520656D7074790000000000 PUSH1 0x44 DUP3 ADD MSTORE PUSH1 0x64 SWAP1 REVERT JUMPDEST PUSH1 0x40 MLOAD PUSH3 0x461BCD PUSH1 0xE5 SHL DUP2 MSTORE PUSH1 0x20 PUSH1 0x4 DUP3 ADD MSTORE PUSH1 0x1E PUSH1 0x24 DUP3 ADD MSTORE PUSH32 0x446561646C696E65206D75737420626520696E20746865206675747572650000 PUSH1 0x44 DUP3 ADD MSTORE PUSH1 0x64 SWAP1 REVERT JUMPDEST PUSH1 0x40 MLOAD PUSH3 0x461BCD PUSH1 0xE5 SHL DUP2 MSTORE PUSH1 0x20 PUSH1 0x4 DUP3 ADD MSTORE PUSH1 0x15 PUSH1 0x24 DUP3 ADD MSTORE PUSH21 0xA6E8C2D6CA40C2DADEEADCE840E8DEDE40D0D2CED PUSH1 0x5B SHL PUSH1 0x44 DUP3 ADD MSTORE PUSH1 0x64 SWAP1 REVERT JUMPDEST PUSH1 0x40 MLOAD PUSH3 0x461BCD PUSH1 0xE5 SHL DUP2 MSTORE PUSH1 0x20 PUSH1 0x4 DUP3 ADD MSTORE PUSH1 0x14 PUSH1 0x24 DUP3 ADD MSTORE PUSH20 0x5374616B6520616D6F756E7420746F6F206C6F77 PUSH1 0x60 SHL PUSH1 0x44 DUP3 ADD MSTORE PUSH1 0x64 SWAP1 REVERT JUMPDEST POP DUP1 REVERT JUMPDEST POP CALLVALUE PUSH2 0x345 JUMPI PUSH1 0x20 CALLDATASIZE PUSH1 0x3 NOT ADD SLT PUSH2 0x345 JUMPI PUSH2 0xBDB PUSH2 0x1F77 JUMP JUMPDEST PUSH2 0xBE3 PUSH2 0x200D JUMP JUMPDEST PUSH1 0x1 DUP1 PUSH1 0xA0 SHL SUB AND PUSH1 0x1 PUSH1 0x1 PUSH1 0x60 SHL SUB PUSH1 0xA0 SHL PUSH1 0xCE SLOAD AND OR PUSH1 0xCE SSTORE DUP1 RETURN JUMPDEST POP CALLVALUE PUSH2 0x345 JUMPI PUSH1 0x20 DUP1 PUSH1 0x3 NOT CALLDATASIZE ADD SLT PUSH2 0xBBD JUMPI PUSH1 0x1 PUSH1 0x1 PUSH1 0xA0 SHL SUB PUSH2 0xC24 PUSH2 0x1F77 JUMP JUMPDEST AND DUP3 MSTORE PUSH1 0xCC DUP2 MSTORE PUSH1 0x40 DUP3 KECCAK256 PUSH1 0x40 MLOAD SWAP3 DUP4 DUP4 DUP4 SLOAD SWAP2 DUP3 DUP2 MSTORE ADD SWAP1 DUP2 SWAP4 DUP4 MSTORE DUP5 DUP4 KECCAK256 SWAP1 DUP4 JUMPDEST DUP2 DUP2 LT PUSH2 0xC9B JUMPI POP POP POP DUP5 PUSH2 0xC5D SWAP2 SUB DUP6 PUSH2 0x1E68 JUMP JUMPDEST PUSH1 0x40 MLOAD SWAP4 DUP4 DUP6 SWAP5 DUP6 ADD SWAP2 DUP2 DUP7 MSTORE MLOAD DUP1 SWAP3 MSTORE PUSH1 0x40 DUP6 ADD SWAP4 SWAP3 JUMPDEST DUP3 DUP2 LT PUSH2 0xC84 JUMPI POP POP POP POP SUB SWAP1 RETURN JUMPDEST DUP4 MLOAD DUP6 MSTORE DUP7 SWAP6 POP SWAP4 DUP2 ADD SWAP4 SWAP3 DUP2 ADD SWAP3 PUSH1 0x1 ADD PUSH2 0xC75 JUMP JUMPDEST DUP3 SLOAD DUP5 MSTORE SWAP3 DUP7 ADD SWAP3 PUSH1 0x1 SWAP3 DUP4 ADD SWAP3 ADD PUSH2 0xC47 JUMP JUMPDEST POP CALLVALUE PUSH2 0x345 JUMPI PUSH1 0x20 CALLDATASIZE PUSH1 0x3 NOT ADD SLT PUSH2 0x345 JUMPI PUSH1 0x20 SWAP1 PUSH1 0x3 SWAP1 PUSH1 0x40 SWAP1 PUSH1 0x1 PUSH1 0x1 PUSH1 0xA0 SHL SUB PUSH2 0xCDA PUSH2 0x1F77 JUMP JUMPDEST AND DUP2 MSTORE PUSH1 0xCB DUP5 MSTORE KECCAK256 ADD SLOAD PUSH1 0x40 MLOAD SWAP1 DUP2 MSTORE RETURN JUMPDEST POP CALLVALUE PUSH2 0x345 JUMPI DUP1 PUSH1 0x3 NOT CALLDATASIZE ADD SLT PUSH2 0x345 JUMPI PUSH1 0xD0 SLOAD PUSH1 0x40 MLOAD PUSH1 0x1 PUSH1 0x1 PUSH1 0xA0 SHL SUB SWAP1 SWAP2 AND DUP2 MSTORE PUSH1 0x20 SWAP1 RETURN JUMPDEST POP CALLVALUE PUSH2 0x345 JUMPI DUP1 PUSH1 0x3 NOT CALLDATASIZE ADD SLT PUSH2 0x345 JUMPI PUSH1 0x33 SLOAD PUSH1 0x40 MLOAD PUSH1 0x1 PUSH1 0x1 PUSH1 0xA0 SHL SUB SWAP1 SWAP2 AND DUP2 MSTORE PUSH1 0x20 SWAP1 RETURN JUMPDEST POP CALLVALUE PUSH2 0x345 JUMPI PUSH1 0x40 CALLDATASIZE PUSH1 0x3 NOT ADD SLT PUSH2 0x345 JUMPI PUSH2 0xD58 PUSH2 0x200D JUMP JUMPDEST PUSH1 0x4 CALLDATALOAD PUSH1 0xD1 SSTORE PUSH1 0x24 CALLDATALOAD PUSH1 0xD2 SSTORE DUP1 RETURN JUMPDEST POP CALLVALUE PUSH2 0x345 JUMPI PUSH1 0x20 CALLDATASIZE PUSH1 0x3 NOT ADD SLT PUSH2 0x345 JUMPI PUSH1 0xA0 SWAP1 PUSH1 0x40 SWAP1 PUSH1 0x1 PUSH1 0x1 PUSH1 0xA0 SHL SUB PUSH2 0xD8F PUSH2 0x1F77 JUMP JUMPDEST AND DUP2 MSTORE PUSH1 0xCB PUSH1 0x20 MSTORE KECCAK256 DUP1 SLOAD SWAP1 PUSH1 0x1 DUP2 ADD SLOAD SWAP1 PUSH1 0x2 DUP2 ADD SLOAD PUSH1 0x4 PUSH1 0x3 DUP4 ADD SLOAD SWAP3 ADD SLOAD SWAP3 PUSH1 0x40 MLOAD SWAP5 DUP6 MSTORE PUSH1 0x20 DUP6 ADD MSTORE PUSH1 0x40 DUP5 ADD MSTORE PUSH1 0x60 DUP4 ADD MSTORE PUSH1 0x80 DUP3 ADD MSTORE RETURN JUMPDEST POP CALLVALUE PUSH2 0x345 JUMPI PUSH1 0x40 CALLDATASIZE PUSH1 0x3 NOT ADD SLT PUSH2 0x345 JUMPI PUSH1 0x24 CALLDATALOAD SWAP1 DUP2 ISZERO ISZERO DUP3 SUB PUSH2 0x345 JUMPI PUSH1 0x33 SLOAD PUSH1 0x1 PUSH1 0x1 PUSH1 0xA0 SHL SUB AND CALLER EQ DUP1 ISZERO PUSH2 0x1456 JUMPI JUMPDEST ISZERO PUSH2 0x1422 JUMPI PUSH1 0x4 CALLDATALOAD ISZERO ISZERO DUP1 PUSH2 0x1414 JUMPI JUMPDEST PUSH2 0xE1A SWAP1 PUSH2 0x22FD JUMP JUMPDEST PUSH1 0x4 CALLDATALOAD DUP2 MSTORE PUSH1 0xCA PUSH1 0x20 MSTORE PUSH1 0x40 DUP2 KECCAK256 SWAP2 PUSH1 0x6 DUP4 ADD SWAP3 PUSH1 0xFF DUP5 SLOAD PUSH1 0x8 SHR AND PUSH2 0x13CF JUMPI PUSH1 0x5 DUP2 ADD SLOAD TIMESTAMP LT PUSH2 0x1393 JUMPI DUP4 SLOAD PUSH1 0xFF NOT AND PUSH1 0xFF DUP4 ISZERO ISZERO AND OR DUP5 SSTORE PUSH1 0x1 SWAP1 DUP5 SLOAD PUSH3 0xFFFF00 NOT AND DUP4 ISZERO ISZERO PUSH1 0x10 SHL PUSH3 0xFF0000 AND OR PUSH2 0x100 OR DUP6 SSTORE ADD SWAP3 PUSH1 0x1 DUP1 PUSH1 0xA0 SHL SUB DUP5 SLOAD AND SWAP4 DUP2 SLOAD SWAP5 DUP1 DUP6 MSTORE PUSH1 0xCB PUSH1 0x20 MSTORE PUSH1 0x40 DUP6 KECCAK256 SWAP6 PUSH1 0xFF PUSH2 0xE9A DUP9 SLOAD PUSH2 0x2341 JUMP JUMPDEST SWAP2 DUP3 DUP10 SSTORE PUSH1 0x10 SHR AND PUSH2 0x137E JUMPI JUMPDEST PUSH1 0x1 DUP8 ADD SLOAD DUP1 PUSH1 0x64 DUP2 MUL DIV PUSH1 0x64 EQ DUP2 ISZERO OR ISZERO PUSH2 0x136A JUMPI DUP2 ISZERO PUSH2 0x1356 JUMPI PUSH1 0x64 MUL DIV PUSH1 0x2 DUP8 ADD DUP2 DUP2 SSTORE SWAP7 SWAP1 PUSH1 0x5A DUP2 LT PUSH2 0x1309 JUMPI POP PUSH2 0x5DC PUSH1 0x3 DUP3 ADD SSTORE JUMPDEST TIMESTAMP PUSH1 0x4 DUP3 ADD SSTORE PUSH1 0xD0 SLOAD PUSH1 0x1 PUSH1 0x1 PUSH1 0xA0 SHL SUB AND DUP1 PUSH2 0x107A JUMPI JUMPDEST POP PUSH1 0x60 PUSH32 0x6A7ECD478C262BB3AB79078DFDD91746AC4294A080E783FCB6C01647A353D5F7 SWAP2 PUSH1 0x3 DUP9 SWAP10 SWAP9 SWAP7 SWAP8 SWAP9 SLOAD SWAP2 ADD SLOAD PUSH1 0x40 MLOAD SWAP2 DUP1 DUP4 MSTORE PUSH1 0x20 DUP4 ADD MSTORE PUSH1 0x40 DUP3 ADD MSTORE LOG2 PUSH1 0xCD SLOAD PUSH1 0x1 PUSH1 0x1 PUSH1 0xA0 SHL SUB AND SWAP1 DUP2 PUSH2 0xF95 JUMPI JUMPDEST POP POP POP PUSH1 0xFF SWAP1 SLOAD PUSH1 0x10 SHR AND PUSH1 0x40 MLOAD SWAP2 ISZERO ISZERO DUP3 MSTORE ISZERO ISZERO PUSH1 0x20 DUP3 ADD MSTORE PUSH32 0xCE4539AE54088CF98525B0ED90DB8B4271ABCB31BD3A4B964AED59895698F72F PUSH1 0x40 PUSH1 0x4 CALLDATALOAD SWAP3 LOG2 DUP1 RETURN JUMPDEST SLOAD PUSH1 0x40 MLOAD PUSH4 0x656D0C39 PUSH1 0xE0 SHL DUP2 MSTORE PUSH1 0x1 PUSH1 0x1 PUSH1 0xA0 SHL SUB SWAP1 SWAP2 AND PUSH1 0x4 DUP3 ADD MSTORE PUSH1 0x20 DUP2 PUSH1 0x24 DUP2 DUP6 GAS STATICCALL SWAP1 DUP2 ISZERO PUSH2 0x106F JUMPI DUP4 SWAP2 PUSH2 0x103D JUMPI JUMPDEST POP DUP1 ISZERO PUSH2 0xF50 JUMPI PUSH1 0xFF DUP5 SLOAD PUSH1 0x10 SHR AND DUP3 EXTCODESIZE ISZERO PUSH2 0x1039 JUMPI PUSH1 0x44 DUP5 SWAP3 DUP4 PUSH1 0x40 MLOAD SWAP6 DUP7 SWAP5 DUP6 SWAP4 PUSH4 0x1C8FDEB5 PUSH1 0xE3 SHL DUP6 MSTORE PUSH1 0x4 DUP6 ADD MSTORE ISZERO ISZERO PUSH1 0x24 DUP5 ADD MSTORE GAS CALL DUP1 ISZERO PUSH2 0x102E JUMPI PUSH2 0x1016 JUMPI JUMPDEST DUP1 PUSH2 0xF50 JUMP JUMPDEST PUSH2 0x101F SWAP1 PUSH2 0x1DED JUMP JUMPDEST PUSH2 0x102A JUMPI DUP3 CODESIZE PUSH2 0x1010 JUMP JUMPDEST DUP3 DUP1 REVERT JUMPDEST PUSH1 0x40 MLOAD RETURNDATASIZE DUP5 DUP3 RETURNDATACOPY RETURNDATASIZE SWAP1 REVERT JUMPDEST DUP4 DUP1 REVERT JUMPDEST SWAP1 POP PUSH1 0x20 DUP2 RETURNDATASIZE PUSH1 0x20 GT PUSH2 0x1067 JUMPI JUMPDEST DUP2 PUSH2 0x1058 PUSH1 0x20 SWAP4 DUP4 PUSH2 0x1E68 JUMP JUMPDEST DUP2 ADD SUB SLT PUSH2 0x102A JUMPI MLOAD CODESIZE PUSH2 0xFCA JUMP JUMPDEST RETURNDATASIZE SWAP2 POP PUSH2 0x104B JUMP JUMPDEST PUSH1 0x40 MLOAD RETURNDATASIZE DUP6 DUP3 RETURNDATACOPY RETURNDATASIZE SWAP1 REVERT JUMPDEST SWAP7 DUP7 PUSH1 0x24 SWAP9 PUSH1 0x40 MLOAD SWAP10 DUP11 DUP1 SWAP3 PUSH4 0x248BB6CD PUSH1 0xE2 SHL DUP3 MSTORE DUP8 PUSH1 0x4 DUP4 ADD MSTORE GAS STATICCALL DUP1 DUP9 SWAP2 PUSH2 0x11AB JUMPI JUMPDEST DUP9 SWAP10 POP SWAP8 SWAP6 SWAP7 SWAP8 PUSH2 0x10B6 JUMPI JUMPDEST POP SWAP7 SWAP6 SWAP5 SWAP4 PUSH2 0xEFA JUMP JUMPDEST PUSH1 0x40 DUP2 ADD MLOAD PUSH1 0x1 PUSH1 0x1 PUSH1 0xA0 SHL SUB AND SWAP1 DUP2 ISZERO ISZERO DUP1 PUSH2 0x1195 JUMPI JUMPDEST DUP1 PUSH2 0x1187 JUMPI JUMPDEST PUSH2 0x10DF JUMPI JUMPDEST POP PUSH2 0x10AC JUMP JUMPDEST PUSH1 0x60 ADD MLOAD PUSH1 0x3 DUP5 ADD SLOAD SWAP6 SWAP7 SWAP5 SWAP6 SWAP4 SWAP5 SWAP3 SWAP4 PUSH1 0x1 PUSH1 0x1 PUSH1 0xA0 SHL SUB SWAP1 SWAP2 AND SWAP3 SWAP2 DUP4 EXTCODESIZE ISZERO PUSH2 0x102A JUMPI PUSH1 0x44 SWAP1 DUP4 PUSH1 0x40 MLOAD SWAP6 DUP7 SWAP5 DUP6 SWAP4 PUSH4 0xF6322A5F PUSH1 0xE0 SHL DUP6 MSTORE PUSH1 0x4 DUP6 ADD MSTORE PUSH1 0x24 DUP5 ADD MSTORE GAS CALL DUP1 ISZERO PUSH2 0x117C JUMPI PUSH2 0x113D JUMPI JUMPDEST SWAP1 DUP2 DUP9 SWAP6 SWAP5 SWAP4 SWAP3 PUSH2 0x10D9 JUMP JUMPDEST PUSH32 0x6A7ECD478C262BB3AB79078DFDD91746AC4294A080E783FCB6C01647A353D5F7 SWAP2 SWAP5 SWAP4 SWAP3 PUSH1 0x3 SWAP9 PUSH2 0x1170 PUSH1 0x60 SWAP4 PUSH2 0x1DED JUMP JUMPDEST SWAP9 POP SWAP3 SWAP4 SWAP5 SWAP2 POP PUSH2 0x1131 JUMP JUMPDEST PUSH1 0x40 MLOAD RETURNDATASIZE DUP11 DUP3 RETURNDATACOPY RETURNDATASIZE SWAP1 REVERT JUMPDEST POP PUSH2 0x100 DUP2 ADD MLOAD ISZERO ISZERO PUSH2 0x10D4 JUMP JUMPDEST POP PUSH1 0x60 DUP2 ADD MLOAD PUSH1 0x1 PUSH1 0x1 PUSH1 0xA0 SHL SUB AND ISZERO ISZERO PUSH2 0x10CE JUMP JUMPDEST SWAP1 POP RETURNDATASIZE SWAP9 DUP10 DUP10 DUP3 RETURNDATACOPY PUSH2 0x11BD DUP11 DUP3 PUSH2 0x1E68 JUMP JUMPDEST PUSH1 0x20 DUP2 DUP12 DUP2 ADD SUB SLT PUSH2 0x1305 JUMPI DUP1 MLOAD PUSH1 0x1 PUSH1 0x1 PUSH1 0x40 SHL SUB DUP2 GT PUSH2 0x12E9 JUMPI PUSH2 0x140 DUP2 DUP4 ADD DUP13 DUP5 ADD SUB SLT PUSH2 0x12E9 JUMPI PUSH1 0x40 MLOAD SWAP2 DUP3 PUSH2 0x140 DUP2 ADD LT PUSH1 0x1 PUSH1 0x1 PUSH1 0x40 SHL SUB PUSH2 0x140 DUP6 ADD GT OR PUSH2 0x12F1 JUMPI DUP11 SWAP12 PUSH2 0x140 DUP5 SWAP13 SWAP11 SWAP12 SWAP13 ADD PUSH1 0x40 MSTORE DUP3 DUP3 ADD MLOAD DUP5 MSTORE PUSH2 0x1228 PUSH1 0x20 DUP5 DUP5 ADD ADD PUSH2 0x2366 JUMP JUMPDEST PUSH1 0x20 DUP6 ADD MSTORE PUSH2 0x123B PUSH1 0x40 DUP5 DUP5 ADD ADD PUSH2 0x2366 JUMP JUMPDEST PUSH1 0x40 DUP6 ADD MSTORE PUSH2 0x124E PUSH1 0x60 DUP5 DUP5 ADD ADD PUSH2 0x2366 JUMP JUMPDEST PUSH1 0x60 DUP6 ADD MSTORE PUSH1 0x80 DUP4 DUP4 ADD ADD MLOAD PUSH1 0x1 PUSH1 0x1 PUSH1 0x40 SHL SUB DUP2 GT PUSH2 0x12ED JUMPI PUSH2 0x1279 SWAP1 DUP3 DUP5 ADD SWAP1 DUP6 DUP6 ADD ADD PUSH2 0x237A JUMP JUMPDEST PUSH1 0x80 DUP6 ADD MSTORE PUSH1 0xA0 DUP4 DUP4 ADD ADD MLOAD PUSH1 0x1 PUSH1 0x1 PUSH1 0x40 SHL SUB DUP2 GT PUSH2 0x12ED JUMPI PUSH2 0x12A3 SWAP2 DUP4 ADD SWAP1 DUP5 DUP5 ADD ADD PUSH2 0x237A JUMP JUMPDEST PUSH1 0xA0 DUP5 ADD MSTORE DUP1 DUP3 ADD PUSH1 0xC0 DUP2 DUP2 ADD MLOAD SWAP1 DUP6 ADD MSTORE PUSH1 0xE0 DUP1 DUP3 ADD MLOAD SWAP1 DUP6 ADD MSTORE PUSH2 0x100 ADD MLOAD DUP1 ISZERO ISZERO DUP2 SUB PUSH2 0x12E9 JUMPI PUSH2 0x100 DUP5 ADD MSTORE ADD PUSH2 0x120 SWAP1 DUP2 ADD MLOAD SWAP1 DUP3 ADD MSTORE SWAP6 SWAP8 SWAP7 SWAP6 SWAP1 PUSH2 0x10A0 JUMP JUMPDEST DUP10 DUP1 REVERT JUMPDEST DUP11 DUP1 REVERT JUMPDEST PUSH4 0x4E487B71 PUSH1 0xE0 SHL DUP12 MSTORE PUSH1 0x41 PUSH1 0x4 MSTORE PUSH1 0x24 DUP12 REVERT JUMPDEST DUP9 DUP1 REVERT JUMPDEST PUSH1 0x50 DUP2 LT PUSH2 0x131F JUMPI POP PUSH2 0x4B0 PUSH1 0x3 DUP3 ADD SSTORE PUSH2 0xEE2 JUMP JUMPDEST PUSH1 0x46 DUP2 LT PUSH2 0x1335 JUMPI POP PUSH2 0x3E8 PUSH1 0x3 DUP3 ADD SSTORE PUSH2 0xEE2 JUMP JUMPDEST PUSH1 0x3C GT PUSH2 0x1349 JUMPI PUSH2 0x320 PUSH1 0x3 DUP3 ADD SSTORE PUSH2 0xEE2 JUMP JUMPDEST PUSH2 0x1F4 PUSH1 0x3 DUP3 ADD SSTORE PUSH2 0xEE2 JUMP JUMPDEST PUSH4 0x4E487B71 PUSH1 0xE0 SHL DUP8 MSTORE PUSH1 0x12 PUSH1 0x4 MSTORE PUSH1 0x24 DUP8 REVERT JUMPDEST PUSH4 0x4E487B71 PUSH1 0xE0 SHL DUP8 MSTORE PUSH1 0x11 PUSH1 0x4 MSTORE PUSH1 0x24 DUP8 REVERT JUMPDEST PUSH1 0x1 DUP8 ADD PUSH2 0x138C DUP2 SLOAD PUSH2 0x2341 JUMP JUMPDEST SWAP1 SSTORE PUSH2 0xEA7 JUMP JUMPDEST PUSH1 0x40 MLOAD PUSH3 0x461BCD PUSH1 0xE5 SHL DUP2 MSTORE PUSH1 0x20 PUSH1 0x4 DUP3 ADD MSTORE PUSH1 0x14 PUSH1 0x24 DUP3 ADD MSTORE PUSH20 0x111958591B1A5B99481B9BDD081C995858DA1959 PUSH1 0x62 SHL PUSH1 0x44 DUP3 ADD MSTORE PUSH1 0x64 SWAP1 REVERT JUMPDEST PUSH1 0x40 MLOAD PUSH3 0x461BCD PUSH1 0xE5 SHL DUP2 MSTORE PUSH1 0x20 PUSH1 0x4 DUP3 ADD MSTORE PUSH1 0x1B PUSH1 0x24 DUP3 ADD MSTORE PUSH32 0x50726564696374696F6E20616C7265616479207265736F6C7665640000000000 PUSH1 0x44 DUP3 ADD MSTORE PUSH1 0x64 SWAP1 REVERT JUMPDEST POP PUSH1 0xC9 SLOAD PUSH1 0x4 CALLDATALOAD GT ISZERO PUSH2 0xE11 JUMP JUMPDEST PUSH1 0x40 MLOAD PUSH3 0x461BCD PUSH1 0xE5 SHL DUP2 MSTORE PUSH1 0x20 PUSH1 0x4 DUP3 ADD MSTORE PUSH1 0xC PUSH1 0x24 DUP3 ADD MSTORE PUSH12 0x155B985D5D1A1BDC9A5E9959 PUSH1 0xA2 SHL PUSH1 0x44 DUP3 ADD MSTORE PUSH1 0x64 SWAP1 REVERT JUMPDEST POP PUSH1 0xCF SLOAD PUSH1 0x1 PUSH1 0x1 PUSH1 0xA0 SHL SUB AND CALLER EQ PUSH2 0xE01 JUMP JUMPDEST POP CALLVALUE PUSH2 0x345 JUMPI DUP1 PUSH1 0x3 NOT CALLDATASIZE ADD SLT PUSH2 0x345 JUMPI PUSH1 0xCF SLOAD PUSH1 0x40 MLOAD PUSH1 0x1 PUSH1 0x1 PUSH1 0xA0 SHL SUB SWAP1 SWAP2 AND DUP2 MSTORE PUSH1 0x20 SWAP1 RETURN JUMPDEST POP CALLVALUE PUSH2 0x345 JUMPI DUP1 PUSH1 0x3 NOT CALLDATASIZE ADD SLT PUSH2 0x345 JUMPI PUSH2 0x14AC PUSH2 0x200D JUMP JUMPDEST PUSH1 0x33 DUP1 SLOAD PUSH1 0x1 PUSH1 0x1 PUSH1 0xA0 SHL SUB NOT DUP2 AND SWAP1 SWAP2 SSTORE DUP2 SWAP1 PUSH1 0x1 PUSH1 0x1 PUSH1 0xA0 SHL SUB AND PUSH32 0x8BE0079C531659141344CD1FD0A4F28419497F9722A3DAAFE3B4186F6B6457E0 DUP3 DUP1 LOG3 DUP1 RETURN JUMPDEST POP CALLVALUE PUSH2 0x345 JUMPI DUP1 PUSH1 0x3 NOT CALLDATASIZE ADD SLT PUSH2 0x345 JUMPI PUSH1 0xCD SLOAD PUSH1 0x40 MLOAD PUSH1 0x1 PUSH1 0x1 PUSH1 0xA0 SHL SUB SWAP1 SWAP2 AND DUP2 MSTORE PUSH1 0x20 SWAP1 RETURN JUMPDEST POP CALLVALUE PUSH2 0x345 JUMPI PUSH1 0x20 CALLDATASIZE PUSH1 0x3 NOT ADD SLT PUSH2 0x345 JUMPI PUSH1 0x20 SWAP1 PUSH1 0x2 SWAP1 PUSH1 0x40 SWAP1 PUSH1 0x1 PUSH1 0x1 PUSH1 0xA0 SHL SUB PUSH2 0xCDA PUSH2 0x1F77 JUMP JUMPDEST POP CALLVALUE PUSH2 0x345 JUMPI PUSH1 0x20 CALLDATASIZE PUSH1 0x3 NOT ADD SLT PUSH2 0x345 JUMPI PUSH2 0x155E PUSH2 0x200D JUMP JUMPDEST PUSH1 0x4 CALLDATALOAD PUSH1 0xD3 SSTORE DUP1 RETURN JUMPDEST POP CALLVALUE PUSH2 0x345 JUMPI DUP1 PUSH1 0x3 NOT CALLDATASIZE ADD SLT PUSH2 0x345 JUMPI PUSH1 0x20 PUSH1 0xD2 SLOAD PUSH1 0x40 MLOAD SWAP1 DUP2 MSTORE RETURN JUMPDEST POP CALLVALUE PUSH2 0x345 JUMPI DUP1 PUSH1 0x3 NOT CALLDATASIZE ADD SLT PUSH2 0x345 JUMPI PUSH32 0x0 PUSH1 0x1 PUSH1 0x1 PUSH1 0xA0 SHL SUB AND ADDRESS SUB PUSH2 0x15DE JUMPI PUSH1 0x20 PUSH1 0x40 MLOAD PUSH1 0x0 DUP1 MLOAD PUSH1 0x20 PUSH2 0x23C0 DUP4 CODECOPY DUP2 MLOAD SWAP2 MSTORE DUP2 MSTORE RETURN JUMPDEST PUSH1 0x40 MLOAD PUSH3 0x461BCD PUSH1 0xE5 SHL DUP2 MSTORE PUSH1 0x20 PUSH1 0x4 DUP3 ADD MSTORE PUSH1 0x38 PUSH1 0x24 DUP3 ADD MSTORE PUSH32 0x555550535570677261646561626C653A206D757374206E6F742062652063616C PUSH1 0x44 DUP3 ADD MSTORE PUSH32 0x6C6564207468726F7567682064656C656761746563616C6C0000000000000000 PUSH1 0x64 DUP3 ADD MSTORE PUSH1 0x84 SWAP1 REVERT JUMPDEST POP PUSH1 0x40 CALLDATASIZE PUSH1 0x3 NOT ADD SLT PUSH2 0x345 JUMPI PUSH2 0x165E PUSH2 0x1F77 JUMP JUMPDEST PUSH1 0x24 CALLDATALOAD PUSH1 0x1 PUSH1 0x1 PUSH1 0x40 SHL SUB DUP2 GT PUSH2 0x102A JUMPI CALLDATASIZE PUSH1 0x23 DUP3 ADD SLT ISZERO PUSH2 0x102A JUMPI PUSH2 0x168E SWAP1 CALLDATASIZE SWAP1 PUSH1 0x24 DUP2 PUSH1 0x4 ADD CALLDATALOAD SWAP2 ADD PUSH2 0x1FD6 JUMP JUMPDEST PUSH1 0x1 PUSH1 0x1 PUSH1 0xA0 SHL SUB PUSH32 0x0 DUP2 AND SWAP3 SWAP2 SWAP1 PUSH2 0x16C8 ADDRESS DUP6 EQ ISZERO PUSH2 0x20AE JUMP JUMPDEST PUSH2 0x16E5 PUSH1 0x0 DUP1 MLOAD PUSH1 0x20 PUSH2 0x23C0 DUP4 CODECOPY DUP2 MLOAD SWAP2 MSTORE SWAP5 DUP3 DUP7 SLOAD AND EQ PUSH2 0x210F JUMP JUMPDEST PUSH2 0x16ED PUSH2 0x200D JUMP JUMPDEST PUSH32 0x4910FDFA16FED3260ED0E7147F7CC6DA11A60208B5B9406D12A635614FFD9143 SLOAD PUSH1 0xFF AND ISZERO PUSH2 0x1723 JUMPI POP POP PUSH2 0x382 SWAP2 POP PUSH2 0x2170 JUMP JUMPDEST DUP3 AND PUSH1 0x40 MLOAD SWAP4 PUSH4 0x52D1902D PUSH1 0xE0 SHL DUP6 MSTORE PUSH1 0x20 SWAP5 DUP6 DUP2 PUSH1 0x4 DUP2 DUP7 GAS STATICCALL DUP8 SWAP2 DUP2 PUSH2 0x18E5 JUMPI JUMPDEST POP PUSH2 0x17A7 JUMPI PUSH1 0x40 MLOAD PUSH3 0x461BCD PUSH1 0xE5 SHL DUP2 MSTORE PUSH1 0x4 DUP2 ADD DUP8 SWAP1 MSTORE PUSH1 0x2E PUSH1 0x24 DUP3 ADD MSTORE PUSH32 0x45524331393637557067726164653A206E657720696D706C656D656E74617469 PUSH1 0x44 DUP3 ADD MSTORE PUSH14 0x6F6E206973206E6F742055555053 PUSH1 0x90 SHL PUSH1 0x64 DUP3 ADD MSTORE PUSH1 0x84 SWAP1 REVERT JUMPDEST SWAP5 SWAP3 SWAP4 SWAP5 SUB PUSH2 0x188E JUMPI PUSH2 0x17B9 DUP5 PUSH2 0x2170 JUMP JUMPDEST PUSH32 0xBC7CD75A20EE27FD9ADEBAB32041F755214DBC6BFFA90CC0225B39DA2E5C2D3B DUP6 DUP1 LOG2 DUP2 MLOAD ISZERO DUP1 ISZERO SWAP1 PUSH2 0x1886 JUMPI JUMPDEST PUSH2 0x17F3 JUMPI JUMPDEST POP POP POP DUP1 RETURN JUMPDEST PUSH2 0x1874 SWAP3 DUP5 DUP1 PUSH1 0x40 MLOAD SWAP5 PUSH2 0x1806 DUP7 PUSH2 0x1E4D JUMP JUMPDEST PUSH1 0x27 DUP7 MSTORE PUSH32 0x416464726573733A206C6F772D6C6576656C2064656C65676174652063616C6C DUP6 DUP8 ADD MSTORE PUSH7 0x819985A5B1959 PUSH1 0xCA SHL PUSH1 0x40 DUP8 ADD MSTORE DUP5 DUP2 MLOAD SWAP2 ADD DUP5 GAS DELEGATECALL SWAP1 RETURNDATASIZE ISZERO PUSH2 0x187D JUMPI RETURNDATASIZE PUSH2 0x1858 DUP2 PUSH2 0x1FBB JUMP JUMPDEST SWAP1 PUSH2 0x1866 PUSH1 0x40 MLOAD SWAP3 DUP4 PUSH2 0x1E68 JUMP JUMPDEST DUP2 MSTORE DUP7 DUP2 SWAP5 RETURNDATASIZE SWAP3 ADD RETURNDATACOPY PUSH2 0x2200 JUMP JUMPDEST POP CODESIZE DUP1 DUP1 PUSH2 0x17ED JUMP JUMPDEST PUSH1 0x60 SWAP3 POP PUSH2 0x2200 JUMP JUMPDEST POP PUSH1 0x1 PUSH2 0x17E8 JUMP JUMPDEST PUSH1 0x40 MLOAD PUSH3 0x461BCD PUSH1 0xE5 SHL DUP2 MSTORE PUSH1 0x4 DUP2 ADD DUP4 SWAP1 MSTORE PUSH1 0x29 PUSH1 0x24 DUP3 ADD MSTORE PUSH32 0x45524331393637557067726164653A20756E737570706F727465642070726F78 PUSH1 0x44 DUP3 ADD MSTORE PUSH9 0x1A58589B1955555251 PUSH1 0xBA SHL PUSH1 0x64 DUP3 ADD MSTORE PUSH1 0x84 SWAP1 REVERT JUMPDEST SWAP1 SWAP2 POP DUP7 DUP2 DUP2 RETURNDATASIZE DUP4 GT PUSH2 0x1911 JUMPI JUMPDEST PUSH2 0x18FD DUP2 DUP4 PUSH2 0x1E68 JUMP JUMPDEST DUP2 ADD SUB SLT PUSH2 0x190D JUMPI MLOAD SWAP1 CODESIZE PUSH2 0x1746 JUMP JUMPDEST DUP8 DUP1 REVERT JUMPDEST POP RETURNDATASIZE PUSH2 0x18F3 JUMP JUMPDEST POP CALLVALUE PUSH2 0x345 JUMPI PUSH1 0x20 CALLDATASIZE PUSH1 0x3 NOT ADD SLT PUSH2 0x345 JUMPI PUSH2 0x1932 PUSH2 0x1F77 JUMP JUMPDEST PUSH2 0x193A PUSH2 0x200D JUMP JUMPDEST PUSH1 0x1 DUP1 PUSH1 0xA0 SHL SUB AND PUSH1 0x1 PUSH1 0x1 PUSH1 0x60 SHL SUB PUSH1 0xA0 SHL PUSH1 0xCD SLOAD AND OR PUSH1 0xCD SSTORE DUP1 RETURN JUMPDEST POP CALLVALUE PUSH2 0x345 JUMPI DUP1 PUSH1 0x3 NOT CALLDATASIZE ADD SLT PUSH2 0x345 JUMPI PUSH2 0x1971 PUSH2 0x200D JUMP JUMPDEST DUP1 DUP1 DUP1 DUP1 PUSH1 0x1 DUP1 PUSH1 0xA0 SHL SUB PUSH1 0x33 SLOAD AND SELFBALANCE SWAP1 DUP3 DUP3 ISZERO PUSH2 0x199F JUMPI JUMPDEST CALL ISZERO PUSH2 0x1993 JUMPI DUP1 RETURN JUMPDEST PUSH1 0x40 MLOAD SWAP1 RETURNDATASIZE SWAP1 DUP3 RETURNDATACOPY RETURNDATASIZE SWAP1 REVERT JUMPDEST POP PUSH2 0x8FC PUSH2 0x198A JUMP JUMPDEST POP CALLVALUE PUSH2 0x345 JUMPI PUSH1 0x40 CALLDATASIZE PUSH1 0x3 NOT ADD SLT PUSH2 0x345 JUMPI PUSH2 0x19C2 PUSH2 0x1F77 JUMP JUMPDEST PUSH1 0x1 PUSH1 0x1 PUSH1 0xA0 SHL SUB AND DUP2 MSTORE PUSH1 0xCC PUSH1 0x20 MSTORE PUSH1 0x40 DUP2 KECCAK256 DUP1 SLOAD PUSH1 0x24 CALLDATALOAD SWAP3 SWAP1 DUP4 LT ISZERO PUSH2 0x345 JUMPI PUSH1 0x20 PUSH2 0x19F0 DUP5 DUP5 PUSH2 0x1F8D JUMP JUMPDEST SWAP1 SLOAD PUSH1 0x40 MLOAD SWAP2 PUSH1 0x3 SHL SHR DUP2 MSTORE RETURN JUMPDEST POP CALLVALUE PUSH2 0x345 JUMPI PUSH1 0x20 DUP1 PUSH1 0x3 NOT CALLDATASIZE ADD SLT PUSH2 0xBBD JUMPI PUSH2 0x1A19 PUSH2 0x1F77 JUMP JUMPDEST PUSH1 0x1 PUSH1 0x1 PUSH1 0xA0 SHL SUB PUSH32 0x0 DUP2 AND PUSH2 0x1A50 ADDRESS DUP3 EQ ISZERO PUSH2 0x20AE JUMP JUMPDEST PUSH2 0x1A6D PUSH1 0x0 DUP1 MLOAD PUSH1 0x20 PUSH2 0x23C0 DUP4 CODECOPY DUP2 MLOAD SWAP2 MSTORE SWAP2 DUP4 DUP4 SLOAD AND EQ PUSH2 0x210F JUMP JUMPDEST PUSH2 0x1A75 PUSH2 0x200D JUMP JUMPDEST PUSH1 0x40 MLOAD SWAP1 DUP5 DUP3 ADD SWAP3 DUP3 DUP5 LT PUSH1 0x1 PUSH1 0x1 PUSH1 0x40 SHL SUB DUP6 GT OR PUSH2 0xA61 JUMPI DUP4 PUSH1 0x40 MSTORE DUP7 DUP4 MSTORE PUSH1 0xFF PUSH32 0x4910FDFA16FED3260ED0E7147F7CC6DA11A60208B5B9406D12A635614FFD9143 SLOAD AND PUSH1 0x0 EQ PUSH2 0x1AD0 JUMPI POP POP POP POP PUSH2 0x382 SWAP2 POP PUSH2 0x2170 JUMP JUMPDEST DUP5 SWAP3 SWAP4 SWAP5 AND SWAP1 PUSH1 0x40 MLOAD PUSH4 0x52D1902D PUSH1 0xE0 SHL DUP2 MSTORE DUP7 DUP2 PUSH1 0x4 DUP2 DUP7 GAS STATICCALL DUP9 SWAP2 DUP2 PUSH2 0x1C6D JUMPI JUMPDEST POP PUSH2 0x1B54 JUMPI PUSH1 0x40 MLOAD PUSH3 0x461BCD PUSH1 0xE5 SHL DUP2 MSTORE PUSH1 0x4 DUP2 ADD DUP9 SWAP1 MSTORE PUSH1 0x2E PUSH1 0x24 DUP3 ADD MSTORE PUSH32 0x45524331393637557067726164653A206E657720696D706C656D656E74617469 PUSH1 0x44 DUP3 ADD MSTORE PUSH14 0x6F6E206973206E6F742055555053 PUSH1 0x90 SHL PUSH1 0x64 DUP3 ADD MSTORE PUSH1 0x84 SWAP1 REVERT JUMPDEST SWAP6 SWAP4 SWAP5 SWAP6 SUB PUSH2 0x1C16 JUMPI PUSH2 0x1B66 DUP3 PUSH2 0x2170 JUMP JUMPDEST PUSH32 0xBC7CD75A20EE27FD9ADEBAB32041F755214DBC6BFFA90CC0225B39DA2E5C2D3B DUP7 DUP1 LOG2 DUP5 DUP4 MLOAD ISZERO DUP1 ISZERO SWAP1 PUSH2 0x1C0F JUMPI JUMPDEST PUSH2 0x1BA3 JUMPI JUMPDEST POP POP POP POP POP DUP1 RETURN JUMPDEST DUP1 PUSH2 0x1C04 SWAP6 PUSH1 0x40 MLOAD SWAP6 PUSH2 0x1BB5 DUP8 PUSH2 0x1E4D JUMP JUMPDEST PUSH1 0x27 DUP8 MSTORE PUSH32 0x416464726573733A206C6F772D6C6576656C2064656C65676174652063616C6C DUP7 DUP9 ADD MSTORE PUSH7 0x819985A5B1959 PUSH1 0xCA SHL PUSH1 0x40 DUP9 ADD MSTORE MLOAD SWAP1 DUP5 GAS DELEGATECALL SWAP1 RETURNDATASIZE ISZERO PUSH2 0x187D JUMPI RETURNDATASIZE PUSH2 0x1858 DUP2 PUSH2 0x1FBB JUMP JUMPDEST POP CODESIZE DUP1 DUP1 DUP1 DUP5 PUSH2 0x1B9B JUMP JUMPDEST POP DUP1 PUSH2 0x1B96 JUMP JUMPDEST PUSH1 0x40 MLOAD PUSH3 0x461BCD PUSH1 0xE5 SHL DUP2 MSTORE PUSH1 0x4 DUP2 ADD DUP5 SWAP1 MSTORE PUSH1 0x29 PUSH1 0x24 DUP3 ADD MSTORE PUSH32 0x45524331393637557067726164653A20756E737570706F727465642070726F78 PUSH1 0x44 DUP3 ADD MSTORE PUSH9 0x1A58589B1955555251 PUSH1 0xBA SHL PUSH1 0x64 DUP3 ADD MSTORE PUSH1 0x84 SWAP1 REVERT JUMPDEST SWAP1 SWAP2 POP DUP8 DUP2 DUP2 RETURNDATASIZE DUP4 GT PUSH2 0x1C95 JUMPI JUMPDEST PUSH2 0x1C85 DUP2 DUP4 PUSH2 0x1E68 JUMP JUMPDEST DUP2 ADD SUB SLT PUSH2 0x1305 JUMPI MLOAD SWAP1 CODESIZE PUSH2 0x1AF3 JUMP JUMPDEST POP RETURNDATASIZE PUSH2 0x1C7B JUMP JUMPDEST POP CALLVALUE PUSH2 0x345 JUMPI DUP1 PUSH1 0x3 NOT CALLDATASIZE ADD SLT PUSH2 0x345 JUMPI PUSH1 0x20 PUSH1 0xD3 SLOAD PUSH1 0x40 MLOAD SWAP1 DUP2 MSTORE RETURN JUMPDEST POP CALLVALUE PUSH2 0x345 JUMPI DUP1 PUSH1 0x3 NOT CALLDATASIZE ADD SLT PUSH2 0x345 JUMPI PUSH1 0xCE SLOAD PUSH1 0x40 MLOAD PUSH1 0x1 PUSH1 0x1 PUSH1 0xA0 SHL SUB SWAP1 SWAP2 AND DUP2 MSTORE PUSH1 0x20 SWAP1 RETURN JUMPDEST POP CALLVALUE PUSH2 0x345 JUMPI PUSH1 0x20 CALLDATASIZE PUSH1 0x3 NOT ADD SLT PUSH2 0x345 JUMPI PUSH1 0x40 SWAP1 PUSH1 0x4 CALLDATALOAD DUP2 MSTORE PUSH1 0xCA PUSH1 0x20 MSTORE KECCAK256 DUP1 SLOAD PUSH1 0x1 DUP1 PUSH1 0xA0 SHL SUB PUSH1 0x1 DUP4 ADD SLOAD AND SWAP2 PUSH1 0x2 DUP2 ADD SLOAD PUSH2 0x1D24 PUSH1 0x3 DUP4 ADD PUSH2 0x1E89 JUMP JUMPDEST SWAP2 PUSH1 0x4 DUP2 ADD SLOAD SWAP3 PUSH1 0xFF PUSH1 0x5 DUP4 ADD SLOAD PUSH1 0x6 DUP5 ADD SLOAD SWAP1 PUSH2 0x1D6F PUSH1 0x7 DUP7 ADD SLOAD SWAP5 PUSH1 0x9 PUSH1 0x8 DUP9 ADD SLOAD SWAP8 ADD SLOAD SWAP8 PUSH1 0x40 MLOAD SWAP12 DUP13 SWAP12 DUP13 MSTORE PUSH1 0x20 DUP13 ADD MSTORE PUSH1 0x40 DUP12 ADD MSTORE PUSH2 0x180 DUP1 PUSH1 0x60 DUP13 ADD MSTORE DUP11 ADD SWAP1 PUSH2 0x1F52 JUMP JUMPDEST SWAP7 PUSH1 0x80 DUP10 ADD MSTORE PUSH1 0xA0 DUP9 ADD MSTORE DUP2 DUP2 AND ISZERO ISZERO PUSH1 0xC0 DUP9 ADD MSTORE DUP2 DUP2 PUSH1 0x8 SHR AND ISZERO ISZERO PUSH1 0xE0 DUP9 ADD MSTORE PUSH1 0x10 SHR AND ISZERO ISZERO PUSH2 0x100 DUP7 ADD MSTORE PUSH2 0x120 DUP6 ADD MSTORE PUSH2 0x140 DUP5 ADD MSTORE PUSH2 0x160 DUP4 ADD MSTORE SUB SWAP1 RETURN JUMPDEST SWAP1 PUSH1 0x1 DUP3 DUP2 SHR SWAP3 AND DUP1 ISZERO PUSH2 0x1DE3 JUMPI JUMPDEST PUSH1 0x20 DUP4 LT EQ PUSH2 0x1DCD JUMPI JUMP JUMPDEST PUSH4 0x4E487B71 PUSH1 0xE0 SHL PUSH1 0x0 MSTORE PUSH1 0x22 PUSH1 0x4 MSTORE PUSH1 0x24 PUSH1 0x0 REVERT JUMPDEST SWAP2 PUSH1 0x7F AND SWAP2 PUSH2 0x1DC2 JUMP JUMPDEST PUSH1 0x1 PUSH1 0x1 PUSH1 0x40 SHL SUB DUP2 GT PUSH2 0x1E00 JUMPI PUSH1 0x40 MSTORE JUMP JUMPDEST PUSH4 0x4E487B71 PUSH1 0xE0 SHL PUSH1 0x0 MSTORE PUSH1 0x41 PUSH1 0x4 MSTORE PUSH1 0x24 PUSH1 0x0 REVERT JUMPDEST PUSH2 0x180 DUP2 ADD SWAP1 DUP2 LT PUSH1 0x1 PUSH1 0x1 PUSH1 0x40 SHL SUB DUP3 GT OR PUSH2 0x1E00 JUMPI PUSH1 0x40 MSTORE JUMP JUMPDEST PUSH1 0xA0 DUP2 ADD SWAP1 DUP2 LT PUSH1 0x1 PUSH1 0x1 PUSH1 0x40 SHL SUB DUP3 GT OR PUSH2 0x1E00 JUMPI PUSH1 0x40 MSTORE JUMP JUMPDEST PUSH1 0x60 DUP2 ADD SWAP1 DUP2 LT PUSH1 0x1 PUSH1 0x1 PUSH1 0x40 SHL SUB DUP3 GT OR PUSH2 0x1E00 JUMPI PUSH1 0x40 MSTORE JUMP JUMPDEST SWAP1 PUSH1 0x1F DUP1 NOT SWAP2 ADD AND DUP2 ADD SWAP1 DUP2 LT PUSH1 0x1 PUSH1 0x1 PUSH1 0x40 SHL SUB DUP3 GT OR PUSH2 0x1E00 JUMPI PUSH1 0x40 MSTORE JUMP JUMPDEST SWAP1 PUSH1 0x40 MLOAD SWAP2 DUP3 PUSH1 0x0 DUP3 SLOAD SWAP3 PUSH2 0x1E9D DUP5 PUSH2 0x1DB3 JUMP JUMPDEST SWAP1 DUP2 DUP5 MSTORE PUSH1 0x1 SWAP5 DUP6 DUP2 AND SWAP1 DUP2 PUSH1 0x0 EQ PUSH2 0x1F0C JUMPI POP PUSH1 0x1 EQ PUSH2 0x1EC9 JUMPI JUMPDEST POP POP PUSH2 0x1EC7 SWAP3 POP SUB DUP4 PUSH2 0x1E68 JUMP JUMPDEST JUMP JUMPDEST SWAP1 SWAP4 SWAP2 POP PUSH1 0x0 MSTORE PUSH1 0x20 SWAP1 DUP2 PUSH1 0x0 KECCAK256 SWAP4 PUSH1 0x0 SWAP2 JUMPDEST DUP2 DUP4 LT PUSH2 0x1EF4 JUMPI POP POP PUSH2 0x1EC7 SWAP4 POP DUP3 ADD ADD CODESIZE DUP1 PUSH2 0x1EB9 JUMP JUMPDEST DUP6 SLOAD DUP9 DUP5 ADD DUP6 ADD MSTORE SWAP5 DUP6 ADD SWAP5 DUP8 SWAP5 POP SWAP2 DUP4 ADD SWAP2 PUSH2 0x1EDC JUMP JUMPDEST SWAP2 POP POP PUSH2 0x1EC7 SWAP5 POP PUSH1 0x20 SWAP3 POP PUSH1 0xFF NOT AND DUP3 DUP5 ADD MSTORE ISZERO ISZERO PUSH1 0x5 SHL DUP3 ADD ADD CODESIZE DUP1 PUSH2 0x1EB9 JUMP JUMPDEST PUSH1 0x0 JUMPDEST DUP4 DUP2 LT PUSH2 0x1F42 JUMPI POP POP PUSH1 0x0 SWAP2 ADD MSTORE JUMP JUMPDEST DUP2 DUP2 ADD MLOAD DUP4 DUP3 ADD MSTORE PUSH1 0x20 ADD PUSH2 0x1F32 JUMP JUMPDEST SWAP1 PUSH1 0x20 SWAP2 PUSH2 0x1F6B DUP2 MLOAD DUP1 SWAP3 DUP2 DUP6 MSTORE DUP6 DUP1 DUP7 ADD SWAP2 ADD PUSH2 0x1F2F JUMP JUMPDEST PUSH1 0x1F ADD PUSH1 0x1F NOT AND ADD ADD SWAP1 JUMP JUMPDEST PUSH1 0x4 CALLDATALOAD SWAP1 PUSH1 0x1 PUSH1 0x1 PUSH1 0xA0 SHL SUB DUP3 AND DUP3 SUB PUSH2 0x6F0 JUMPI JUMP JUMPDEST DUP1 SLOAD DUP3 LT ISZERO PUSH2 0x1FA5 JUMPI PUSH1 0x0 MSTORE PUSH1 0x20 PUSH1 0x0 KECCAK256 ADD SWAP1 PUSH1 0x0 SWAP1 JUMP JUMPDEST PUSH4 0x4E487B71 PUSH1 0xE0 SHL PUSH1 0x0 MSTORE PUSH1 0x32 PUSH1 0x4 MSTORE PUSH1 0x24 PUSH1 0x0 REVERT JUMPDEST PUSH1 0x1 PUSH1 0x1 PUSH1 0x40 SHL SUB DUP2 GT PUSH2 0x1E00 JUMPI PUSH1 0x1F ADD PUSH1 0x1F NOT AND PUSH1 0x20 ADD SWAP1 JUMP JUMPDEST SWAP3 SWAP2 SWAP3 PUSH2 0x1FE2 DUP3 PUSH2 0x1FBB JUMP JUMPDEST SWAP2 PUSH2 0x1FF0 PUSH1 0x40 MLOAD SWAP4 DUP5 PUSH2 0x1E68 JUMP JUMPDEST DUP3 SWAP5 DUP2 DUP5 MSTORE DUP2 DUP4 ADD GT PUSH2 0x6F0 JUMPI DUP3 DUP2 PUSH1 0x20 SWAP4 DUP5 PUSH1 0x0 SWAP7 ADD CALLDATACOPY ADD ADD MSTORE JUMP JUMPDEST PUSH1 0x33 SLOAD PUSH1 0x1 PUSH1 0x1 PUSH1 0xA0 SHL SUB AND CALLER SUB PUSH2 0x2021 JUMPI JUMP JUMPDEST PUSH1 0x64 PUSH1 0x40 MLOAD PUSH3 0x461BCD PUSH1 0xE5 SHL DUP2 MSTORE PUSH1 0x20 PUSH1 0x4 DUP3 ADD MSTORE PUSH1 0x20 PUSH1 0x24 DUP3 ADD MSTORE PUSH32 0x4F776E61626C653A2063616C6C6572206973206E6F7420746865206F776E6572 PUSH1 0x44 DUP3 ADD MSTORE REVERT JUMPDEST PUSH1 0x33 DUP1 SLOAD PUSH1 0x1 PUSH1 0x1 PUSH1 0xA0 SHL SUB SWAP3 DUP4 AND PUSH1 0x1 PUSH1 0x1 PUSH1 0xA0 SHL SUB NOT DUP3 AND DUP2 OR SWAP1 SWAP3 SSTORE SWAP1 SWAP2 AND PUSH32 0x8BE0079C531659141344CD1FD0A4F28419497F9722A3DAAFE3B4186F6B6457E0 PUSH1 0x0 DUP1 LOG3 JUMP JUMPDEST ISZERO PUSH2 0x20B5 JUMPI JUMP JUMPDEST PUSH1 0x40 MLOAD PUSH3 0x461BCD PUSH1 0xE5 SHL DUP2 MSTORE PUSH1 0x20 PUSH1 0x4 DUP3 ADD MSTORE PUSH1 0x2C PUSH1 0x24 DUP3 ADD MSTORE PUSH32 0x46756E6374696F6E206D7573742062652063616C6C6564207468726F75676820 PUSH1 0x44 DUP3 ADD MSTORE PUSH12 0x19195B1959D85D1958D85B1B PUSH1 0xA2 SHL PUSH1 0x64 DUP3 ADD MSTORE PUSH1 0x84 SWAP1 REVERT JUMPDEST ISZERO PUSH2 0x2116 JUMPI JUMP JUMPDEST PUSH1 0x40 MLOAD PUSH3 0x461BCD PUSH1 0xE5 SHL DUP2 MSTORE PUSH1 0x20 PUSH1 0x4 DUP3 ADD MSTORE PUSH1 0x2C PUSH1 0x24 DUP3 ADD MSTORE PUSH32 0x46756E6374696F6E206D7573742062652063616C6C6564207468726F75676820 PUSH1 0x44 DUP3 ADD MSTORE PUSH12 0x6163746976652070726F7879 PUSH1 0xA0 SHL PUSH1 0x64 DUP3 ADD MSTORE PUSH1 0x84 SWAP1 REVERT JUMPDEST DUP1 EXTCODESIZE ISZERO PUSH2 0x21A5 JUMPI PUSH1 0x0 DUP1 MLOAD PUSH1 0x20 PUSH2 0x23C0 DUP4 CODECOPY DUP2 MLOAD SWAP2 MSTORE DUP1 SLOAD PUSH1 0x1 PUSH1 0x1 PUSH1 0xA0 SHL SUB NOT AND PUSH1 0x1 PUSH1 0x1 PUSH1 0xA0 SHL SUB SWAP1 SWAP3 AND SWAP2 SWAP1 SWAP2 OR SWAP1 SSTORE JUMP JUMPDEST PUSH1 0x40 MLOAD PUSH3 0x461BCD PUSH1 0xE5 SHL DUP2 MSTORE PUSH1 0x20 PUSH1 0x4 DUP3 ADD MSTORE PUSH1 0x2D PUSH1 0x24 DUP3 ADD MSTORE PUSH32 0x455243313936373A206E657720696D706C656D656E746174696F6E206973206E PUSH1 0x44 DUP3 ADD MSTORE PUSH13 0x1BDD08184818DBDB9D1C9858DD PUSH1 0x9A SHL PUSH1 0x64 DUP3 ADD MSTORE PUSH1 0x84 SWAP1 REVERT JUMPDEST SWAP2 SWAP3 SWAP1 ISZERO PUSH2 0x2262 JUMPI POP DUP2 MLOAD ISZERO PUSH2 0x2214 JUMPI POP SWAP1 JUMP JUMPDEST EXTCODESIZE ISZERO PUSH2 0x221D JUMPI SWAP1 JUMP JUMPDEST PUSH1 0x40 MLOAD PUSH3 0x461BCD PUSH1 0xE5 SHL DUP2 MSTORE PUSH1 0x20 PUSH1 0x4 DUP3 ADD MSTORE PUSH1 0x1D PUSH1 0x24 DUP3 ADD MSTORE PUSH32 0x416464726573733A2063616C6C20746F206E6F6E2D636F6E7472616374000000 PUSH1 0x44 DUP3 ADD MSTORE PUSH1 0x64 SWAP1 REVERT JUMPDEST DUP3 MLOAD SWAP1 SWAP2 POP ISZERO PUSH2 0x2275 JUMPI POP DUP1 MLOAD SWAP1 PUSH1 0x20 ADD REVERT JUMPDEST PUSH1 0x40 MLOAD PUSH3 0x461BCD PUSH1 0xE5 SHL DUP2 MSTORE PUSH1 0x20 PUSH1 0x4 DUP3 ADD MSTORE SWAP1 DUP2 SWAP1 PUSH2 0x2299 SWAP1 PUSH1 0x24 DUP4 ADD SWAP1 PUSH2 0x1F52 JUMP JUMPDEST SUB SWAP1 REVERT JUMPDEST ISZERO PUSH2 0x22A4 JUMPI JUMP JUMPDEST PUSH1 0x40 MLOAD PUSH3 0x461BCD PUSH1 0xE5 SHL DUP2 MSTORE PUSH1 0x20 PUSH1 0x4 DUP3 ADD MSTORE PUSH1 0x2B PUSH1 0x24 DUP3 ADD MSTORE PUSH32 0x496E697469616C697A61626C653A20636F6E7472616374206973206E6F742069 PUSH1 0x44 DUP3 ADD MSTORE PUSH11 0x6E697469616C697A696E67 PUSH1 0xA8 SHL PUSH1 0x64 DUP3 ADD MSTORE PUSH1 0x84 SWAP1 REVERT JUMPDEST ISZERO PUSH2 0x2304 JUMPI JUMP JUMPDEST PUSH1 0x40 MLOAD PUSH3 0x461BCD PUSH1 0xE5 SHL DUP2 MSTORE PUSH1 0x20 PUSH1 0x4 DUP3 ADD MSTORE PUSH1 0x15 PUSH1 0x24 DUP3 ADD MSTORE PUSH21 0x125B9D985B1A59081C1C99591A58DD1A5BDB881251 PUSH1 0x5A SHL PUSH1 0x44 DUP3 ADD MSTORE PUSH1 0x64 SWAP1 REVERT JUMPDEST PUSH1 0x0 NOT DUP2 EQ PUSH2 0x2350 JUMPI PUSH1 0x1 ADD SWAP1 JUMP JUMPDEST PUSH4 0x4E487B71 PUSH1 0xE0 SHL PUSH1 0x0 MSTORE PUSH1 0x11 PUSH1 0x4 MSTORE PUSH1 0x24 PUSH1 0x0 REVERT JUMPDEST MLOAD SWAP1 PUSH1 0x1 PUSH1 0x1 PUSH1 0xA0 SHL SUB DUP3 AND DUP3 SUB PUSH2 0x6F0 JUMPI JUMP JUMPDEST DUP2 PUSH1 0x1F DUP3 ADD SLT ISZERO PUSH2 0x6F0 JUMPI DUP1 MLOAD PUSH2 0x2390 DUP2 PUSH2 0x1FBB JUMP JUMPDEST SWAP3 PUSH2 0x239E PUSH1 0x40 MLOAD SWAP5 DUP6 PUSH2 0x1E68 JUMP JUMPDEST DUP2 DUP5 MSTORE PUSH1 0x20 DUP3 DUP5 ADD ADD GT PUSH2 0x6F0 JUMPI PUSH2 0x23BC SWAP2 PUSH1 0x20 DUP1 DUP6 ADD SWAP2 ADD PUSH2 0x1F2F JUMP JUMPDEST SWAP1 JUMP INVALID CALLDATASIZE ADDMOD SWAP5 LOG1 EXTCODESIZE LOG1 LOG3 0x21 MOD PUSH8 0xC828492DB98DCA3E KECCAK256 PUSH23 0xCC3735A920A3CA505D382BBCA26469706673582212201D SAR DUP1 SWAP11 0xBF PUSH22 0x6A0D1183A8C27DA3BBF771682288CC4360E2E26357F9 0xDB LOG0 0xB4 DUP13 PUSH5 0x736F6C6343 STOP ADDMOD GT STOP CALLER "},"gasEstimates":{"creation":{"codeDepositCost":"1847400","executionCost":"infinite","totalCost":"infinite"},"external":{"astroTokenLauncher()":"2697","astrologerManager()":"2543","astrologerPredictions(address,uint256)":"6858","buyTokenContract()":"2301","createPrediction(string,uint256,uint256,uint256)":"infinite","credibilityScores(address)":"11269","credibilityUpdateDelay()":"2299","getAstrologerAccuracy(address)":"2660","getAstrologerPredictions(address)":"infinite","getCredibilityScore(address)":"infinite","getPrediction(uint256)":"infinite","getReputationMultiplier(address)":"2858","initialize(address,address,address,address,uint256,uint256)":"infinite","maxStakeAmount()":"2453","minStakeAmount()":"2871","owner()":"2675","predictions(uint256)":"infinite","proxiableUUID()":"infinite","renounceOwnership()":"28349","reputationScorer()":"2587","resolvePrediction(uint256,bool)":"infinite","setAstroTokenLauncher(address)":"27168","setAstrologerManager(address)":"26750","setBuyTokenContract(address)":"27102","setCredibilityUpdateDelay(uint256)":"24623","setReputationScorer(address)":"27190","setStakeLimits(uint256,uint256)":"46886","transferOwnership(address)":"28853","upgradeTo(address)":"infinite","upgradeToAndCall(address,bytes)":"infinite","withdraw()":"infinite"},"internal":{"_authorizeUpgrade(address)":"infinite","updateAstrologerCredibility(address,bool)":"infinite"}},"methodIdentifiers":{"astroTokenLauncher()":"ab3dcd6a","astrologerManager()":"6fd31a41","astrologerPredictions(address,uint256)":"37562b29","buyTokenContract()":"16d54f09","createPrediction(string,uint256,uint256,uint256)":"c4faa808","credibilityScores(address)":"7d54f2a5","credibilityUpdateDelay()":"2a2fa8c8","getAstrologerAccuracy(address)":"6882fc51","getAstrologerPredictions(address)":"bc858185","getCredibilityScore(address)":"ec88c09b","getPrediction(uint256)":"fe83bece","getReputationMultiplier(address)":"b107e88c","initialize(address,address,address,address,uint256,uint256)":"d7c41c79","maxStakeAmount()":"5d80ca32","minStakeAmount()":"f1887684","owner()":"8da5cb5b","predictions(uint256)":"004fbbb0","proxiableUUID()":"52d1902d","renounceOwnership()":"715018a6","reputationScorer()":"73c84d21","resolvePrediction(uint256,bool)":"76f34501","setAstroTokenLauncher(address)":"e2c3538c","setAstrologerManager(address)":"44cda485","setBuyTokenContract(address)":"c3a274c2","setCredibilityUpdateDelay(uint256)":"5ddb0e2b","setReputationScorer(address)":"e9725c21","setStakeLimits(uint256,uint256)":"8c9bd1b5","transferOwnership(address)":"f2fde38b","upgradeTo(address)":"3659cfe6","upgradeToAndCall(address,bytes)":"4f1ef286","withdraw()":"3ccfd60b"}},"storageLayout":{"storage":[{"astId":503,"contract":"contracts/PredictionCredibilityManager.sol:PredictionCredibilityManager","label":"_initialized","offset":0,"slot":"0","type":"t_uint8"},{"astId":506,"contract":"contracts/PredictionCredibilityManager.sol:PredictionCredibilityManager","label":"_initializing","offset":1,"slot":"0","type":"t_bool"},{"astId":2363,"contract":"contracts/PredictionCredibilityManager.sol:PredictionCredibilityManager","label":"__gap","offset":0,"slot":"1","type":"t_array(t_uint256)50_storage"},{"astId":10,"contract":"contracts/PredictionCredibilityManager.sol:PredictionCredibilityManager","label":"_owner","offset":0,"slot":"51","type":"t_address"},{"astId":130,"contract":"contracts/PredictionCredibilityManager.sol:PredictionCredibilityManager","label":"__gap","offset":0,"slot":"52","type":"t_array(t_uint256)49_storage"},{"astId":485,"contract":"contracts/PredictionCredibilityManager.sol:PredictionCredibilityManager","label":"__gap","offset":0,"slot":"101","type":"t_array(t_uint256)50_storage"},{"astId":800,"contract":"contracts/PredictionCredibilityManager.sol:PredictionCredibilityManager","label":"__gap","offset":0,"slot":"151","type":"t_array(t_uint256)50_storage"},{"astId":4617,"contract":"contracts/PredictionCredibilityManager.sol:PredictionCredibilityManager","label":"_predictionIds","offset":0,"slot":"201","type":"t_struct(Counter)2370_storage"},{"astId":4658,"contract":"contracts/PredictionCredibilityManager.sol:PredictionCredibilityManager","label":"predictions","offset":0,"slot":"202","type":"t_mapping(t_uint256,t_struct(Prediction)4642_storage)"},{"astId":4663,"contract":"contracts/PredictionCredibilityManager.sol:PredictionCredibilityManager","label":"credibilityScores","offset":0,"slot":"203","type":"t_mapping(t_address,t_struct(CredibilityScore)4653_storage)"},{"astId":4668,"contract":"contracts/PredictionCredibilityManager.sol:PredictionCredibilityManager","label":"astrologerPredictions","offset":0,"slot":"204","type":"t_mapping(t_address,t_array(t_uint256)dyn_storage)"},{"astId":4670,"contract":"contracts/PredictionCredibilityManager.sol:PredictionCredibilityManager","label":"astrologerManager","offset":0,"slot":"205","type":"t_address"},{"astId":4672,"contract":"contracts/PredictionCredibilityManager.sol:PredictionCredibilityManager","label":"buyTokenContract","offset":0,"slot":"206","type":"t_address"},{"astId":4674,"contract":"contracts/PredictionCredibilityManager.sol:PredictionCredibilityManager","label":"reputationScorer","offset":0,"slot":"207","type":"t_address"},{"astId":4676,"contract":"contracts/PredictionCredibilityManager.sol:PredictionCredibilityManager","label":"astroTokenLauncher","offset":0,"slot":"208","type":"t_address"},{"astId":4678,"contract":"contracts/PredictionCredibilityManager.sol:PredictionCredibilityManager","label":"minStakeAmount","offset":0,"slot":"209","type":"t_uint256"},{"astId":4680,"contract":"contracts/PredictionCredibilityManager.sol:PredictionCredibilityManager","label":"maxStakeAmount","offset":0,"slot":"210","type":"t_uint256"},{"astId":4682,"contract":"contracts/PredictionCredibilityManager.sol:PredictionCredibilityManager","label":"credibilityUpdateDelay","offset":0,"slot":"211","type":"t_uint256"}],"types":{"t_address":{"encoding":"inplace","label":"address","numberOfBytes":"20"},"t_array(t_uint256)49_storage":{"base":"t_uint256","encoding":"inplace","label":"uint256[49]","numberOfBytes":"1568"},"t_array(t_uint256)50_storage":{"base":"t_uint256","encoding":"inplace","label":"uint256[50]","numberOfBytes":"1600"},"t_array(t_uint256)dyn_storage":{"base":"t_uint256","encoding":"dynamic_array","label":"uint256[]","numberOfBytes":"32"},"t_bool":{"encoding":"inplace","label":"bool","numberOfBytes":"1"},"t_mapping(t_address,t_array(t_uint256)dyn_storage)":{"encoding":"mapping","key":"t_address","label":"mapping(address => uint256[])","numberOfBytes":"32","value":"t_array(t_uint256)dyn_storage"},"t_mapping(t_address,t_struct(CredibilityScore)4653_storage)":{"encoding":"mapping","key":"t_address","label":"mapping(address => struct PredictionCredibilityManager.CredibilityScore)","numberOfBytes":"32","value":"t_struct(CredibilityScore)4653_storage"},"t_mapping(t_uint256,t_struct(Prediction)4642_storage)":{"encoding":"mapping","key":"t_uint256","label":"mapping(uint256 => struct PredictionCredibilityManager.Prediction)","numberOfBytes":"32","value":"t_struct(Prediction)4642_storage"},"t_string_storage":{"encoding":"bytes","label":"string","numberOfBytes":"32"},"t_struct(Counter)2370_storage":{"encoding":"inplace","label":"struct CountersUpgradeable.Counter","members":[{"astId":2369,"contract":"contracts/PredictionCredibilityManager.sol:PredictionCredibilityManager","label":"_value","offset":0,"slot":"0","type":"t_uint256"}],"numberOfBytes":"32"},"t_struct(CredibilityScore)4653_storage":{"encoding":"inplace","label":"struct PredictionCredibilityManager.CredibilityScore","members":[{"astId":4644,"contract":"contracts/PredictionCredibilityManager.sol:PredictionCredibilityManager","label":"totalPredictions","offset":0,"slot":"0","type":"t_uint256"},{"astId":4646,"contract":"contracts/PredictionCredibilityManager.sol:PredictionCredibilityManager","label":"accuratePredictions","offset":0,"slot":"1","type":"t_uint256"},{"astId":4648,"contract":"contracts/PredictionCredibilityManager.sol:PredictionCredibilityManager","label":"accuracyPercentage","offset":0,"slot":"2","type":"t_uint256"},{"astId":4650,"contract":"contracts/PredictionCredibilityManager.sol:PredictionCredibilityManager","label":"reputationMultiplier","offset":0,"slot":"3","type":"t_uint256"},{"astId":4652,"contract":"contracts/PredictionCredibilityManager.sol:PredictionCredibilityManager","label":"lastUpdated","offset":0,"slot":"4","type":"t_uint256"}],"numberOfBytes":"160"},"t_struct(Prediction)4642_storage":{"encoding":"inplace","label":"struct PredictionCredibilityManager.Prediction","members":[{"astId":4619,"contract":"contracts/PredictionCredibilityManager.sol:PredictionCredibilityManager","label":"id","offset":0,"slot":"0","type":"t_uint256"},{"astId":4621,"contract":"contracts/PredictionCredibilityManager.sol:PredictionCredibilityManager","label":"astrologer","offset":0,"slot":"1","type":"t_address"},{"astId":4623,"contract":"contracts/PredictionCredibilityManager.sol:PredictionCredibilityManager","label":"astrologerId","offset":0,"slot":"2","type":"t_uint256"},{"astId":4625,"contract":"contracts/PredictionCredibilityManager.sol:PredictionCredibilityManager","label":"description","offset":0,"slot":"3","type":"t_string_storage"},{"astId":4627,"contract":"contracts/PredictionCredibilityManager.sol:PredictionCredibilityManager","label":"predictionType","offset":0,"slot":"4","type":"t_uint256"},{"astId":4629,"contract":"contracts/PredictionCredibilityManager.sol:PredictionCredibilityManager","label":"deadline","offset":0,"slot":"5","type":"t_uint256"},{"astId":4631,"contract":"contracts/PredictionCredibilityManager.sol:PredictionCredibilityManager","label":"outcome","offset":0,"slot":"6","type":"t_bool"},{"astId":4633,"contract":"contracts/PredictionCredibilityManager.sol:PredictionCredibilityManager","label":"isResolved","offset":1,"slot":"6","type":"t_bool"},{"astId":4635,"contract":"contracts/PredictionCredibilityManager.sol:PredictionCredibilityManager","label":"wasAccurate","offset":2,"slot":"6","type":"t_bool"},{"astId":4637,"contract":"contracts/PredictionCredibilityManager.sol:PredictionCredibilityManager","label":"stakeAmount","offset":0,"slot":"7","type":"t_uint256"},{"astId":4639,"contract":"contracts/PredictionCredibilityManager.sol:PredictionCredibilityManager","label":"totalStaked","offset":0,"slot":"8","type":"t_uint256"},{"astId":4641,"contract":"contracts/PredictionCredibilityManager.sol:PredictionCredibilityManager","label":"createdAt","offset":0,"slot":"9","type":"t_uint256"}],"numberOfBytes":"320"},"t_uint256":{"encoding":"inplace","label":"uint256","numberOfBytes":"32"},"t_uint8":{"encoding":"inplace","label":"uint8","numberOfBytes":"1"}}},"userdoc":{"kind":"user","methods":{},"version":1}}}}