{
  "_format": "hh-sol-artifact-1",
  "contractName": "AstroTokenLauncher",
  "sourceName": "contracts/AstroTokenLauncher.sol",
  "abi": [
    {
      "inputs": [],
      "stateMutability": "nonpayable",
      "type": "constructor"
    },
    {
      "anonymous": false,
      "inputs": [
        {
          "indexed": false,
          "internalType": "address",
          "name": "previousAdmin",
          "type": "address"
        },
        {
          "indexed": false,
          "internalType": "address",
          "name": "newAdmin",
          "type": "address"
        }
      ],
      "name": "AdminChanged",
      "type": "event"
    },
    {
      "anonymous": false,
      "inputs": [
        {
          "indexed": true,
          "internalType": "address",
          "name": "beacon",
          "type": "address"
        }
      ],
      "name": "BeaconUpgraded",
      "type": "event"
    },
    {
      "anonymous": false,
      "inputs": [
        {
          "indexed": false,
          "internalType": "uint8",
          "name": "version",
          "type": "uint8"
        }
      ],
      "name": "Initialized",
      "type": "event"
    },
    {
      "anonymous": false,
      "inputs": [
        {
          "indexed": true,
          "internalType": "address",
          "name": "previousOwner",
          "type": "address"
        },
        {
          "indexed": true,
          "internalType": "address",
          "name": "newOwner",
          "type": "address"
        }
      ],
      "name": "OwnershipTransferred",
      "type": "event"
    },
    {
      "anonymous": false,
      "inputs": [
        {
          "indexed": true,
          "internalType": "uint256",
          "name": "tokenId",
          "type": "uint256"
        },
        {
          "indexed": true,
          "internalType": "address",
          "name": "astrologer",
          "type": "address"
        }
      ],
      "name": "TokenDeactivated",
      "type": "event"
    },
    {
      "anonymous": false,
      "inputs": [
        {
          "indexed": true,
          "internalType": "uint256",
          "name": "tokenId",
          "type": "uint256"
        },
        {
          "indexed": true,
          "internalType": "address",
          "name": "astrologer",
          "type": "address"
        },
        {
          "indexed": false,
          "internalType": "address",
          "name": "tokenContract",
          "type": "address"
        },
        {
          "indexed": false,
          "internalType": "address",
          "name": "buyContract",
          "type": "address"
        },
        {
          "indexed": false,
          "internalType": "string",
          "name": "name",
          "type": "string"
        },
        {
          "indexed": false,
          "internalType": "string",
          "name": "symbol",
          "type": "string"
        }
      ],
      "name": "TokenLaunched",
      "type": "event"
    },
    {
      "anonymous": false,
      "inputs": [
        {
          "indexed": true,
          "internalType": "address",
          "name": "implementation",
          "type": "address"
        }
      ],
      "name": "Upgraded",
      "type": "event"
    },
    {
      "inputs": [],
      "name": "astrologerManager",
      "outputs": [
        {
          "internalType": "address",
          "name": "",
          "type": "address"
        }
      ],
      "stateMutability": "view",
      "type": "function"
    },
    {
      "inputs": [
        {
          "internalType": "address",
          "name": "",
          "type": "address"
        }
      ],
      "name": "astrologerToTokenId",
      "outputs": [
        {
          "internalType": "uint256",
          "name": "",
          "type": "uint256"
        }
      ],
      "stateMutability": "view",
      "type": "function"
    },
    {
      "inputs": [
        {
          "internalType": "uint256",
          "name": "tokenId",
          "type": "uint256"
        }
      ],
      "name": "deactivateToken",
      "outputs": [],
      "stateMutability": "nonpayable",
      "type": "function"
    },
    {
      "inputs": [],
      "name": "getAllActiveTokens",
      "outputs": [
        {
          "internalType": "uint256[]",
          "name": "",
          "type": "uint256[]"
        }
      ],
      "stateMutability": "view",
      "type": "function"
    },
    {
      "inputs": [
        {
          "internalType": "address",
          "name": "astrologer",
          "type": "address"
        }
      ],
      "name": "getTokenByAstrologer",
      "outputs": [
        {
          "components": [
            {
              "internalType": "uint256",
              "name": "id",
              "type": "uint256"
            },
            {
              "internalType": "address",
              "name": "astrologer",
              "type": "address"
            },
            {
              "internalType": "address",
              "name": "tokenContract",
              "type": "address"
            },
            {
              "internalType": "address",
              "name": "buyContract",
              "type": "address"
            },
            {
              "internalType": "string",
              "name": "name",
              "type": "string"
            },
            {
              "internalType": "string",
              "name": "symbol",
              "type": "string"
            },
            {
              "internalType": "uint256",
              "name": "totalSupply",
              "type": "uint256"
            },
            {
              "internalType": "uint256",
              "name": "initialPrice",
              "type": "uint256"
            },
            {
              "internalType": "bool",
              "name": "isActive",
              "type": "bool"
            },
            {
              "internalType": "uint256",
              "name": "createdAt",
              "type": "uint256"
            }
          ],
          "internalType": "struct AstroTokenLauncher.TokenInfo",
          "name": "",
          "type": "tuple"
        }
      ],
      "stateMutability": "view",
      "type": "function"
    },
    {
      "inputs": [
        {
          "internalType": "address",
          "name": "tokenContract",
          "type": "address"
        }
      ],
      "name": "getTokenByContract",
      "outputs": [
        {
          "components": [
            {
              "internalType": "uint256",
              "name": "id",
              "type": "uint256"
            },
            {
              "internalType": "address",
              "name": "astrologer",
              "type": "address"
            },
            {
              "internalType": "address",
              "name": "tokenContract",
              "type": "address"
            },
            {
              "internalType": "address",
              "name": "buyContract",
              "type": "address"
            },
            {
              "internalType": "string",
              "name": "name",
              "type": "string"
            },
            {
              "internalType": "string",
              "name": "symbol",
              "type": "string"
            },
            {
              "internalType": "uint256",
              "name": "totalSupply",
              "type": "uint256"
            },
            {
              "internalType": "uint256",
              "name": "initialPrice",
              "type": "uint256"
            },
            {
              "internalType": "bool",
              "name": "isActive",
              "type": "bool"
            },
            {
              "internalType": "uint256",
              "name": "createdAt",
              "type": "uint256"
            }
          ],
          "internalType": "struct AstroTokenLauncher.TokenInfo",
          "name": "",
          "type": "tuple"
        }
      ],
      "stateMutability": "view",
      "type": "function"
    },
    {
      "inputs": [
        {
          "internalType": "uint256",
          "name": "tokenId",
          "type": "uint256"
        }
      ],
      "name": "getTokenInfo",
      "outputs": [
        {
          "components": [
            {
              "internalType": "uint256",
              "name": "id",
              "type": "uint256"
            },
            {
              "internalType": "address",
              "name": "astrologer",
              "type": "address"
            },
            {
              "internalType": "address",
              "name": "tokenContract",
              "type": "address"
            },
            {
              "internalType": "address",
              "name": "buyContract",
              "type": "address"
            },
            {
              "internalType": "string",
              "name": "name",
              "type": "string"
            },
            {
              "internalType": "string",
              "name": "symbol",
              "type": "string"
            },
            {
              "internalType": "uint256",
              "name": "totalSupply",
              "type": "uint256"
            },
            {
              "internalType": "uint256",
              "name": "initialPrice",
              "type": "uint256"
            },
            {
              "internalType": "bool",
              "name": "isActive",
              "type": "bool"
            },
            {
              "internalType": "uint256",
              "name": "createdAt",
              "type": "uint256"
            }
          ],
          "internalType": "struct AstroTokenLauncher.TokenInfo",
          "name": "",
          "type": "tuple"
        }
      ],
      "stateMutability": "view",
      "type": "function"
    },
    {
      "inputs": [
        {
          "internalType": "address",
          "name": "_astrologerManager",
          "type": "address"
        },
        {
          "internalType": "address",
          "name": "_tokenFactory",
          "type": "address"
        },
        {
          "internalType": "uint256",
          "name": "_launchFee",
          "type": "uint256"
        }
      ],
      "name": "initialize",
      "outputs": [],
      "stateMutability": "nonpayable",
      "type": "function"
    },
    {
      "inputs": [],
      "name": "launchFee",
      "outputs": [
        {
          "internalType": "uint256",
          "name": "",
          "type": "uint256"
        }
      ],
      "stateMutability": "view",
      "type": "function"
    },
    {
      "inputs": [
        {
          "internalType": "string",
          "name": "_name",
          "type": "string"
        },
        {
          "internalType": "string",
          "name": "_symbol",
          "type": "string"
        },
        {
          "internalType": "uint256",
          "name": "_totalSupply",
          "type": "uint256"
        },
        {
          "internalType": "uint256",
          "name": "_initialPrice",
          "type": "uint256"
        },
        {
          "internalType": "string",
          "name": "_description",
          "type": "string"
        }
      ],
      "name": "launchToken",
      "outputs": [
        {
          "internalType": "uint256",
          "name": "",
          "type": "uint256"
        }
      ],
      "stateMutability": "payable",
      "type": "function"
    },
    {
      "inputs": [],
      "name": "owner",
      "outputs": [
        {
          "internalType": "address",
          "name": "",
          "type": "address"
        }
      ],
      "stateMutability": "view",
      "type": "function"
    },
    {
      "inputs": [],
      "name": "proxiableUUID",
      "outputs": [
        {
          "internalType": "bytes32",
          "name": "",
          "type": "bytes32"
        }
      ],
      "stateMutability": "view",
      "type": "function"
    },
    {
      "inputs": [],
      "name": "renounceOwnership",
      "outputs": [],
      "stateMutability": "nonpayable",
      "type": "function"
    },
    {
      "inputs": [
        {
          "internalType": "address",
          "name": "_astrologerManager",
          "type": "address"
        }
      ],
      "name": "setAstrologerManager",
      "outputs": [],
      "stateMutability": "nonpayable",
      "type": "function"
    },
    {
      "inputs": [
        {
          "internalType": "uint256",
          "name": "_launchFee",
          "type": "uint256"
        }
      ],
      "name": "setLaunchFee",
      "outputs": [],
      "stateMutability": "nonpayable",
      "type": "function"
    },
    {
      "inputs": [
        {
          "internalType": "address",
          "name": "_tokenFactory",
          "type": "address"
        }
      ],
      "name": "setTokenFactory",
      "outputs": [],
      "stateMutability": "nonpayable",
      "type": "function"
    },
    {
      "inputs": [
        {
          "internalType": "address",
          "name": "",
          "type": "address"
        }
      ],
      "name": "tokenContractToId",
      "outputs": [
        {
          "internalType": "uint256",
          "name": "",
          "type": "uint256"
        }
      ],
      "stateMutability": "view",
      "type": "function"
    },
    {
      "inputs": [],
      "name": "tokenFactory",
      "outputs": [
        {
          "internalType": "address",
          "name": "",
          "type": "address"
        }
      ],
      "stateMutability": "view",
      "type": "function"
    },
    {
      "inputs": [
        {
          "internalType": "uint256",
          "name": "",
          "type": "uint256"
        }
      ],
      "name": "tokens",
      "outputs": [
        {
          "internalType": "uint256",
          "name": "id",
          "type": "uint256"
        },
        {
          "internalType": "address",
          "name": "astrologer",
          "type": "address"
        },
        {
          "internalType": "address",
          "name": "tokenContract",
          "type": "address"
        },
        {
          "internalType": "address",
          "name": "buyContract",
          "type": "address"
        },
        {
          "internalType": "string",
          "name": "name",
          "type": "string"
        },
        {
          "internalType": "string",
          "name": "symbol",
          "type": "string"
        },
        {
          "internalType": "uint256",
          "name": "totalSupply",
          "type": "uint256"
        },
        {
          "internalType": "uint256",
          "name": "initialPrice",
          "type": "uint256"
        },
        {
          "internalType": "bool",
          "name": "isActive",
          "type": "bool"
        },
        {
          "internalType": "uint256",
          "name": "createdAt",
          "type": "uint256"
        }
      ],
      "stateMutability": "view",
      "type": "function"
    },
    {
      "inputs": [
        {
          "internalType": "address",
          "name": "newOwner",
          "type": "address"
        }
      ],
      "name": "transferOwnership",
      "outputs": [],
      "stateMutability": "nonpayable",
      "type": "function"
    },
    {
      "inputs": [
        {
          "internalType": "address",
          "name": "newImplementation",
          "type": "address"
        }
      ],
      "name": "upgradeTo",
      "outputs": [],
      "stateMutability": "nonpayable",
      "type": "function"
    },
    {
      "inputs": [
        {
          "internalType": "address",
          "name": "newImplementation",
          "type": "address"
        },
        {
          "internalType": "bytes",
          "name": "data",
          "type": "bytes"
        }
      ],
      "name": "upgradeToAndCall",
      "outputs": [],
      "stateMutability": "payable",
      "type": "function"
    },
    {
      "inputs": [],
      "name": "withdraw",
      "outputs": [],
      "stateMutability": "nonpayable",
      "type": "function"
    }
  ],
  "bytecode": "0x60a080604052346100dc57306080526000549060ff8260081c1661008a575060ff8082160361004f575b60405161205590816100e28239608051818181610e730152818161104001526114510152f35b60ff90811916176000557f7f26b83ff96e1f2b6a682f133852f6798a09c465da95921460cefb3847402498602060405160ff8152a138610029565b62461bcd60e51b815260206004820152602760248201527f496e697469616c697a61626c653a20636f6e747261637420697320696e697469604482015266616c697a696e6760c81b6064820152608490fd5b600080fdfe608080604052600436101561001357600080fd5b60003560e01c9081631794bb3c146117735750806321dd6760146117395780632f73a9f8146116f657806336203131146116bc5780633659cfe61461142c5780633ccfd60b146113e857806342fbbf4f146112f357806344cda485146112b05780634f1ef28614610ff25780634f64b2be14610f2457806352d1902d14610e605780635313be2c14610e3f5780636fd31a4114610e16578063715018a614610db95780638c7a63ae14610d235780638d84289e14610cd95780638da5cb5b14610cb0578063922edb3414610bc5578063ad19748b1461031f578063cf3cf57314610301578063e77772fe146102d8578063ec991da9146101b05763f2fde38b1461011c57600080fd5b346101ab5760203660031901126101ab57610135611901565b61013d611b98565b6001600160a01b038116156101575761015590611bf0565b005b60405162461bcd60e51b815260206004820152602660248201527f4f776e61626c653a206e6577206f776e657220697320746865207a65726f206160448201526564647265737360d01b6064820152608490fd5b600080fd5b346101ab576020806003193601126101ab5760043590811515806102cc575b6101d890611e9c565b600082815260ca825260409020600101546001600160a01b03163303610296578160005260ca815260ff60086040600020015416156102525760ca908260005252600860406000200160ff19815416905533907fc5bc70dcbaa7453c88acb052849608a31643ca7b9865b086176cfc8fa995720b600080a3005b6064906040519062461bcd60e51b82526004820152601960248201527f546f6b656e20616c7265616479206465616374697661746564000000000000006044820152fd5b6064906040519062461bcd60e51b82526004820152600f60248201526e2737ba103a37b5b2b71037bbb732b960891b6044820152fd5b5060c9548211156101cf565b346101ab5760003660031901126101ab5760ce546040516001600160a01b039091168152602090f35b346101ab5760003660031901126101ab57602060cf54604051908152f35b60a03660031901126101ab576004356001600160401b0381116101ab5761034a903690600401611b7a565b6024356001600160401b0381116101ab57610369903690600401611b7a565b6084356001600160401b0381116101ab57610388903690600401611b7a565b5060cf543410610b8057815115610b4457805115610b065760443515610ab55760643515610a64573360005260cb602052604060002054610a1f5760cd546001600160a01b031680610966575b5060c980546001019081905560ce5460408051630cb8743b60e21b815260a06004820152949293929185906001600160a01b03168160008161042f61041d60a4830189611aa1565b82810360031901602484015289611aa1565b6044356044830152606435606483015233608483015203925af19081156107475760009460009261091d575b5060405161046881611917565b8481523360208083019182526001600160a01b038881166040808601918252878316606087019081526080870188815260a088018b905260443560c089015260643560e089015260016101008901819052426101208a015260008d815260ca9097529290952087518155955191860180549285166001600160a01b031993841617905591516002860180549185169183169190911790559051600385018054919093169116179055518051919291906001600160401b03821161073157819061053460048601546119c1565b601f81116108ca575b50602090601f83116001146108585760009261084d575b50508160011b916000199060031b1c19161760048301555b60a08101518051906001600160401b0382116107315761058f60058501546119c1565b601f8111610806575b50602090601f83116001146107905791806009949261012094600092610785575b50508160011b916000199060031b1c19161760058501555b60c0810151600685015560e0810151600785015560088401610100820151151560ff8019835416911617905501519101553360005260cb6020528360406000205560018060a01b03851660005260cc6020528360406000205560018060a01b0360cd5416806106b0575b5083916020956106a56106967f5a43e6dd8ff6dde13675567b53b8d147e61f48ec2bc7d6dadaf8e96904e348fe9460405194859460018060a01b0316855260018060a01b03168a850152608060408501526080840190611aa1565b82810360608401523396611aa1565b0390a3604051908152f35b60405163656d0c3960e01b8152336004820152602081602481855afa90811561074757600091610753575b50813b156101ab57600091604483926040519485938492632939a4b560e11b845260048401528a60248401525af18015610747571561063b5790916001600160401b03821161073157604091909152908361063b565b634e487b7160e01b600052604160045260246000fd5b6040513d6000823e3d90fd5b90506020813d60201161077d575b8161076e6020938361194e565b810103126101ab5751876106db565b3d9150610761565b015190508b806105b9565b906005850160005260206000209160005b601f19851681106107ee575092600994926001926101209583601f198116106107d5575b505050811b0160058501556105d1565b015160001960f88460031b161c191690558b80806107c5565b919260206001819286850151815501940192016107a1565b600585016000526020600020601f840160051c810160208510610846575b601f830160051c8201811061083a575050610598565b60008155600101610824565b5080610824565b015190508980610554565b9250600485016000526020600020906000935b601f19841685106108af576001945083601f19811610610896575b505050811b01600483015561056c565b015160001960f88460031b161c19169055898080610886565b8181015183556020948501946001909301929091019061086b565b909150600485016000526020600020601f840160051c810160208510610916575b90849392915b601f830160051c8201811061090757505061053d565b600081558594506001016108f1565b50806108eb565b945090506040843d60401161095e575b8161093a6040938361194e565b810103126101ab57610957602061095086611e88565b9501611e88565b908561045b565b3d915061092d565b602060249160405192838092631853e99560e11b82523360048301525afa908115610747576000916109e4575b501561099f57826103d5565b60405162461bcd60e51b815260206004820152601760248201527f417374726f6c6f676572206e6f742076657269666965640000000000000000006044820152606490fd5b90506020813d602011610a17575b816109ff6020938361194e565b810103126101ab575180151581036101ab5783610993565b3d91506109f2565b60405162461bcd60e51b815260206004820152601e60248201527f417374726f6c6f67657220616c726561647920686173206120746f6b656e00006044820152606490fd5b60405162461bcd60e51b8152602060048201526024808201527f496e697469616c207072696365206d75737420626520677265617465722074686044820152630616e20360e41b6064820152608490fd5b60405162461bcd60e51b815260206004820152602360248201527f546f74616c20737570706c79206d75737420626520677265617465722074686160448201526206e20360ec1b6064820152608490fd5b60405162461bcd60e51b815260206004820152601660248201527553796d626f6c2063616e6e6f7420626520656d70747960501b6044820152606490fd5b60405162461bcd60e51b81526020600482015260146024820152734e616d652063616e6e6f7420626520656d70747960601b6044820152606490fd5b60405162461bcd60e51b815260206004820152601760248201527f496e73756666696369656e74206c61756e6368206665650000000000000000006044820152606490fd5b346101ab5760203660031901126101ab57610cac610be1611901565b610be9611edb565b506001600160a01b03908116600090815260cb6020526040902054610c0f811515611f29565b60005260ca6020526009604060002060405192610c2b84611917565b815484528060018301541660208501528060028301541660408501526003820154166060840152610c5e600482016119fb565b6080840152610c6f600582016119fb565b60a0840152600681015460c0840152600781015460e084015260ff6008820154161515610100840152015461012082015260405191829182611ae1565b0390f35b346101ab5760003660031901126101ab576033546040516001600160a01b039091168152602090f35b346101ab5760203660031901126101ab57610cac610cf5611901565b610cfd611edb565b506001600160a01b03908116600090815260cc6020526040902054610c0f811515611f29565b346101ab5760203660031901126101ab57600435610d3f611edb565b5080151580610dad575b610d5290611e9c565b60005260ca602052610cac6040600020600960405191610d7183611917565b8054835260018101546001600160a01b0390811660208501526002820154811660408501526003820154166060840152610c5e600482016119fb565b5060c954811115610d49565b346101ab5760003660031901126101ab57610dd2611b98565b603380546001600160a01b031981169091556000906001600160a01b03167f8be0079c531659141344cd1fd0a4f28419497f9722a3daafe3b4186f6b6457e08280a3005b346101ab5760003660031901126101ab5760cd546040516001600160a01b039091168152602090f35b346101ab5760203660031901126101ab57610e58611b98565b60043560cf55005b346101ab5760003660031901126101ab577f00000000000000000000000000000000000000000000000000000000000000006001600160a01b03163003610eb95760206040516000805160206120008339815191528152f35b60405162461bcd60e51b815260206004820152603860248201527f555550535570677261646561626c653a206d757374206e6f742062652063616c60448201527f6c6564207468726f7567682064656c656761746563616c6c00000000000000006064820152608490fd5b346101ab5760203660031901126101ab5760043560005260ca6020526040600020805460018060a01b03918260018201541692806002830154169060038301541691610f72600482016119fb565b92610fd5610f82600584016119fb565b610fc7600685015496600786015494600960ff600889015416970154976040519b8c9b8c5260208c015260408b015260608a01526101408060808b0152890190611aa1565b9087820360a0890152611aa1565b9360c086015260e085015215156101008401526101208301520390f35b60403660031901126101ab57611006611901565b6024356001600160401b0381116101ab57366023820112156101ab5761103690369060248160040135910161198a565b6001600160a01b037f00000000000000000000000000000000000000000000000000000000000000008116919061106f30841415611c39565b61108c600080516020612000833981519152938285541614611c9a565b611094611b98565b7f4910fdfa16fed3260ed0e7147f7cc6da11a60208b5b9406d12a635614ffd91435460ff16156110ca5750505061015590611cfb565b8316604051926352d1902d60e01b84526020938481600481865afa60009181611281575b5061114f5760405162461bcd60e51b815260048101869052602e60248201527f45524331393637557067726164653a206e657720696d706c656d656e7461746960448201526d6f6e206973206e6f74205555505360901b6064820152608490fd5b9392930361122a5761116084611cfb565b7fbc7cd75a20ee27fd9adebab32041f755214dbc6bffa90cc0225b39da2e5c2d3b600080a2815115801590611222575b61119657005b61015592600080604051946111aa86611933565b602786527f416464726573733a206c6f772d6c6576656c2064656c65676174652063616c6c85870152660819985a5b195960ca1b60408701528481519101845af4903d15611219573d6111fc8161196f565b9061120a604051928361194e565b8152600081943d92013e611d8b565b60609250611d8b565b506001611190565b60405162461bcd60e51b815260048101839052602960248201527f45524331393637557067726164653a20756e737570706f727465642070726f786044820152681a58589b195555525160ba1b6064820152608490fd5b9091508581813d83116112a9575b611299818361194e565b810103126101ab575190876110ee565b503d61128f565b346101ab5760203660031901126101ab576112c9611901565b6112d1611b98565b60cd80546001600160a01b0319166001600160a01b0392909216919091179055005b346101ab5760003660031901126101ab5760c95461131081611f7e565b90600091600191825b8181111561139f57505061132c83611f7e565b9260005b818110611376575050506040519060208083018184528451809152816040850195019160005b8281106113635785870386f35b8351875295810195928101928401611356565b8061138661139792859795611fd5565b516113918286611fd5565b52611fb0565b939193611330565b8060009593955260ca60205260ff600860406000200154166113cd575b6113c590611fb0565b939193611319565b916113e081846113916113c59489611fd5565b9290506113bc565b346101ab5760003660031901126101ab57611401611b98565b600080808060018060a01b03603354164790828215611423575bf11561074757005b506108fc61141b565b346101ab576020806003193601126101ab57611446611901565b6001600160a01b03917f0000000000000000000000000000000000000000000000000000000000000000831661147e30821415611c39565b61149b600080516020612000833981519152918583541614611c9a565b6114a3611b98565b60405190828201948286106001600160401b0387111761073157856040526000835260ff7f4910fdfa16fed3260ed0e7147f7cc6da11a60208b5b9406d12a635614ffd914354166000146114ff57505050506101559150611cfb565b8492939416906040516352d1902d60e01b81528581600481865afa6000918161168d575b506115845760405162461bcd60e51b815260048101879052602e60248201527f45524331393637557067726164653a206e657720696d706c656d656e7461746960448201526d6f6e206973206e6f74205555505360901b6064820152608490fd5b949394036116365761159582611cfb565b7fbc7cd75a20ee27fd9adebab32041f755214dbc6bffa90cc0225b39da2e5c2d3b600080a282511580159061162e575b6115cb57005b60008061015595604051956115df87611933565b602787527f416464726573733a206c6f772d6c6576656c2064656c65676174652063616c6c86880152660819985a5b195960ca1b60408801525190845af4903d15611219573d6111fc8161196f565b5060006115c5565b60405162461bcd60e51b815260048101849052602960248201527f45524331393637557067726164653a20756e737570706f727465642070726f786044820152681a58589b195555525160ba1b6064820152608490fd5b9091508681813d83116116b5575b6116a5818361194e565b810103126101ab57519088611523565b503d61169b565b346101ab5760203660031901126101ab576001600160a01b036116dd611901565b1660005260cc6020526020604060002054604051908152f35b346101ab5760203660031901126101ab5761170f611901565b611717611b98565b60ce80546001600160a01b0319166001600160a01b0392909216919091179055005b346101ab5760203660031901126101ab576001600160a01b0361175a611901565b1660005260cb6020526020604060002054604051908152f35b346101ab5760603660031901126101ab5761178c611901565b6001600160a01b03919060243583811691908290036101ab5760005460ff8160081c1615938480956118f4575b80156118dd575b15611884575060ff19811660011760005583611872575b506117f260ff60005460081c166117ed81611e28565b611e28565b6117fb33611bf0565b6000549361180e60ff8660081c16611e28565b6bffffffffffffffffffffffff60a01b91168160cd54161760cd5560ce54161760ce5560443560cf5561183d57005b61ff0019166000557f7f26b83ff96e1f2b6a682f133852f6798a09c465da95921460cefb3847402498602060405160018152a1005b61ffff191661010117600055846117d7565b62461bcd60e51b815260206004820152602e60248201527f496e697469616c697a61626c653a20636f6e747261637420697320616c72656160448201526d191e481a5b9a5d1a585b1a5e995960921b6064820152608490fd5b50303b1580156117c05750600160ff8316146117c0565b50600160ff8316106117b9565b600435906001600160a01b03821682036101ab57565b61014081019081106001600160401b0382111761073157604052565b606081019081106001600160401b0382111761073157604052565b90601f801991011681019081106001600160401b0382111761073157604052565b6001600160401b03811161073157601f01601f191660200190565b9291926119968261196f565b916119a4604051938461194e565b8294818452818301116101ab578281602093846000960137010152565b90600182811c921680156119f1575b60208310146119db57565b634e487b7160e01b600052602260045260246000fd5b91607f16916119d0565b9060405191826000825492611a0f846119c1565b908184526001948581169081600014611a7e5750600114611a3b575b5050611a399250038361194e565b565b9093915060005260209081600020936000915b818310611a66575050611a3993508201013880611a2b565b85548884018501529485019487945091830191611a4e565b915050611a3994506020925060ff191682840152151560051b8201013880611a2b565b919082519283825260005b848110611acd575050826000602080949584010152601f8019910116010190565b602081830181015184830182015201611aac565b602081528151602082015260018060a01b0380602084015116604083015280604084015116606083015260608301511660808201526080820151611b4c611b36610140928360a0860152610160850190611aa1565b60a0850151848203601f190160c0860152611aa1565b9260c081015160e084015260e081015161010090818501528101511515906101209182850152015191015290565b9080601f830112156101ab57816020611b959335910161198a565b90565b6033546001600160a01b03163303611bac57565b606460405162461bcd60e51b815260206004820152602060248201527f4f776e61626c653a2063616c6c6572206973206e6f7420746865206f776e65726044820152fd5b603380546001600160a01b039283166001600160a01b0319821681179092559091167f8be0079c531659141344cd1fd0a4f28419497f9722a3daafe3b4186f6b6457e0600080a3565b15611c4057565b60405162461bcd60e51b815260206004820152602c60248201527f46756e6374696f6e206d7573742062652063616c6c6564207468726f7567682060448201526b19195b1959d85d1958d85b1b60a21b6064820152608490fd5b15611ca157565b60405162461bcd60e51b815260206004820152602c60248201527f46756e6374696f6e206d7573742062652063616c6c6564207468726f7567682060448201526b6163746976652070726f787960a01b6064820152608490fd5b803b15611d305760008051602061200083398151915280546001600160a01b0319166001600160a01b03909216919091179055565b60405162461bcd60e51b815260206004820152602d60248201527f455243313936373a206e657720696d706c656d656e746174696f6e206973206e60448201526c1bdd08184818dbdb9d1c9858dd609a1b6064820152608490fd5b91929015611ded5750815115611d9f575090565b3b15611da85790565b60405162461bcd60e51b815260206004820152601d60248201527f416464726573733a2063616c6c20746f206e6f6e2d636f6e74726163740000006044820152606490fd5b825190915015611e005750805190602001fd5b60405162461bcd60e51b815260206004820152908190611e24906024830190611aa1565b0390fd5b15611e2f57565b60405162461bcd60e51b815260206004820152602b60248201527f496e697469616c697a61626c653a20636f6e7472616374206973206e6f74206960448201526a6e697469616c697a696e6760a81b6064820152608490fd5b51906001600160a01b03821682036101ab57565b15611ea357565b60405162461bcd60e51b815260206004820152601060248201526f125b9d985b1a59081d1bdad95b88125160821b6044820152606490fd5b60405190611ee882611917565b8161012060009182815282602082015282604082015282606082015260606080820152606060a08201528260c08201528260e0820152826101008201520152565b15611f3057565b60405162461bcd60e51b815260206004820152600f60248201526e151bdad95b881b9bdd08199bdd5b99608a1b6044820152606490fd5b6001600160401b0381116107315760051b60200190565b90611f8882611f67565b611f95604051918261194e565b8281528092611fa6601f1991611f67565b0190602036910137565b6000198114611fbf5760010190565b634e487b7160e01b600052601160045260246000fd5b8051821015611fe95760209160051b010190565b634e487b7160e01b600052603260045260246000fdfe360894a13ba1a3210667c828492db98dca3e2076cc3735a920a3ca505d382bbca264697066735822122089c326d37d883b1ae1b4989df96b1bbae11b04b3214f9666947fb00066a0f27264736f6c63430008110033",
  "linkReferences": {},
  "deployedLinkReferences": {}
}