{
  "_format": "hh-sol-artifact-1",
  "contractName": "BuyTokenContract",
  "sourceName": "contracts/BuyTokenContract.sol",
  "abi": [
    {
      "inputs": [],
      "stateMutability": "nonpayable",
      "type": "constructor"
    },
    {
      "anonymous": false,
      "inputs": [
        {
          "indexed": false,
          "internalType": "address",
          "name": "previousAdmin",
          "type": "address"
        },
        {
          "indexed": false,
          "internalType": "address",
          "name": "newAdmin",
          "type": "address"
        }
      ],
      "name": "AdminChanged",
      "type": "event"
    },
    {
      "anonymous": false,
      "inputs": [
        {
          "indexed": true,
          "internalType": "address",
          "name": "beacon",
          "type": "address"
        }
      ],
      "name": "BeaconUpgraded",
      "type": "event"
    },
    {
      "anonymous": false,
      "inputs": [
        {
          "indexed": false,
          "internalType": "uint256",
          "name": "k",
          "type": "uint256"
        },
        {
          "indexed": false,
          "internalType": "uint256",
          "name": "reserveRatio",
          "type": "uint256"
        },
        {
          "indexed": false,
          "internalType": "uint256",
          "name": "slippageTolerance",
          "type": "uint256"
        },
        {
          "indexed": false,
          "internalType": "uint256",
          "name": "maxReputationMultiplier",
          "type": "uint256"
        }
      ],
      "name": "BondingCurveUpdated",
      "type": "event"
    },
    {
      "anonymous": false,
      "inputs": [
        {
          "indexed": true,
          "internalType": "address",
          "name": "tokenContract",
          "type": "address"
        },
        {
          "indexed": false,
          "internalType": "uint256",
          "name": "oldMultiplier",
          "type": "uint256"
        },
        {
          "indexed": false,
          "internalType": "uint256",
          "name": "newMultiplier",
          "type": "uint256"
        }
      ],
      "name": "CredibilityUpdated",
      "type": "event"
    },
    {
      "anonymous": false,
      "inputs": [
        {
          "indexed": false,
          "internalType": "uint8",
          "name": "version",
          "type": "uint8"
        }
      ],
      "name": "Initialized",
      "type": "event"
    },
    {
      "anonymous": false,
      "inputs": [
        {
          "indexed": true,
          "internalType": "address",
          "name": "previousOwner",
          "type": "address"
        },
        {
          "indexed": true,
          "internalType": "address",
          "name": "newOwner",
          "type": "address"
        }
      ],
      "name": "OwnershipTransferred",
      "type": "event"
    },
    {
      "anonymous": false,
      "inputs": [
        {
          "indexed": true,
          "internalType": "address",
          "name": "tokenContract",
          "type": "address"
        },
        {
          "indexed": true,
          "internalType": "address",
          "name": "buyer",
          "type": "address"
        },
        {
          "indexed": false,
          "internalType": "uint256",
          "name": "ethAmount",
          "type": "uint256"
        },
        {
          "indexed": false,
          "internalType": "uint256",
          "name": "tokenAmount",
          "type": "uint256"
        },
        {
          "indexed": false,
          "internalType": "uint256",
          "name": "price",
          "type": "uint256"
        }
      ],
      "name": "TokenBought",
      "type": "event"
    },
    {
      "anonymous": false,
      "inputs": [
        {
          "indexed": true,
          "internalType": "address",
          "name": "tokenContract",
          "type": "address"
        },
        {
          "indexed": true,
          "internalType": "address",
          "name": "seller",
          "type": "address"
        },
        {
          "indexed": false,
          "internalType": "uint256",
          "name": "tokenAmount",
          "type": "uint256"
        },
        {
          "indexed": false,
          "internalType": "uint256",
          "name": "ethAmount",
          "type": "uint256"
        },
        {
          "indexed": false,
          "internalType": "uint256",
          "name": "price",
          "type": "uint256"
        }
      ],
      "name": "TokenSold",
      "type": "event"
    },
    {
      "anonymous": false,
      "inputs": [
        {
          "indexed": true,
          "internalType": "address",
          "name": "implementation",
          "type": "address"
        }
      ],
      "name": "Upgraded",
      "type": "event"
    },
    {
      "inputs": [],
      "name": "astrologerManager",
      "outputs": [
        {
          "internalType": "address",
          "name": "",
          "type": "address"
        }
      ],
      "stateMutability": "view",
      "type": "function"
    },
    {
      "inputs": [],
      "name": "bondingCurve",
      "outputs": [
        {
          "internalType": "uint256",
          "name": "k",
          "type": "uint256"
        },
        {
          "internalType": "uint256",
          "name": "reserveRatio",
          "type": "uint256"
        },
        {
          "internalType": "uint256",
          "name": "slippageTolerance",
          "type": "uint256"
        },
        {
          "internalType": "uint256",
          "name": "maxReputationMultiplier",
          "type": "uint256"
        }
      ],
      "stateMutability": "view",
      "type": "function"
    },
    {
      "inputs": [
        {
          "internalType": "address",
          "name": "_tokenContract",
          "type": "address"
        }
      ],
      "name": "buyTokens",
      "outputs": [
        {
          "internalType": "uint256",
          "name": "",
          "type": "uint256"
        }
      ],
      "stateMutability": "payable",
      "type": "function"
    },
    {
      "inputs": [
        {
          "internalType": "address",
          "name": "_tokenContract",
          "type": "address"
        },
        {
          "internalType": "uint256",
          "name": "_ethAmount",
          "type": "uint256"
        }
      ],
      "name": "calculateBuyAmount",
      "outputs": [
        {
          "internalType": "uint256",
          "name": "",
          "type": "uint256"
        }
      ],
      "stateMutability": "view",
      "type": "function"
    },
    {
      "inputs": [
        {
          "internalType": "address",
          "name": "_tokenContract",
          "type": "address"
        },
        {
          "internalType": "uint256",
          "name": "_tokenAmount",
          "type": "uint256"
        }
      ],
      "name": "calculateSellAmount",
      "outputs": [
        {
          "internalType": "uint256",
          "name": "",
          "type": "uint256"
        }
      ],
      "stateMutability": "view",
      "type": "function"
    },
    {
      "inputs": [
        {
          "internalType": "address",
          "name": "_tokenContract",
          "type": "address"
        }
      ],
      "name": "getCurrentPrice",
      "outputs": [
        {
          "internalType": "uint256",
          "name": "",
          "type": "uint256"
        }
      ],
      "stateMutability": "view",
      "type": "function"
    },
    {
      "inputs": [
        {
          "internalType": "address",
          "name": "_tokenContract",
          "type": "address"
        }
      ],
      "name": "getTokenInfo",
      "outputs": [
        {
          "components": [
            {
              "internalType": "address",
              "name": "tokenContract",
              "type": "address"
            },
            {
              "internalType": "address",
              "name": "astrologer",
              "type": "address"
            },
            {
              "internalType": "uint256",
              "name": "totalSupply",
              "type": "uint256"
            },
            {
              "internalType": "uint256",
              "name": "circulatingSupply",
              "type": "uint256"
            },
            {
              "internalType": "uint256",
              "name": "basePrice",
              "type": "uint256"
            },
            {
              "internalType": "uint256",
              "name": "credibilityMultiplier",
              "type": "uint256"
            },
            {
              "internalType": "bool",
              "name": "isActive",
              "type": "bool"
            }
          ],
          "internalType": "struct BuyTokenContract.TokenInfo",
          "name": "",
          "type": "tuple"
        }
      ],
      "stateMutability": "view",
      "type": "function"
    },
    {
      "inputs": [
        {
          "internalType": "address",
          "name": "_tokenContract",
          "type": "address"
        }
      ],
      "name": "getUserBalance",
      "outputs": [
        {
          "internalType": "uint256",
          "name": "",
          "type": "uint256"
        }
      ],
      "stateMutability": "view",
      "type": "function"
    },
    {
      "inputs": [
        {
          "internalType": "address",
          "name": "_user",
          "type": "address"
        }
      ],
      "name": "getUserContribution",
      "outputs": [
        {
          "internalType": "uint256",
          "name": "",
          "type": "uint256"
        }
      ],
      "stateMutability": "view",
      "type": "function"
    },
    {
      "inputs": [
        {
          "internalType": "address",
          "name": "_astrologerManager",
          "type": "address"
        },
        {
          "internalType": "address",
          "name": "_predictionCredibilityManager",
          "type": "address"
        },
        {
          "internalType": "uint256",
          "name": "_platformFee",
          "type": "uint256"
        }
      ],
      "name": "initialize",
      "outputs": [],
      "stateMutability": "nonpayable",
      "type": "function"
    },
    {
      "inputs": [],
      "name": "owner",
      "outputs": [
        {
          "internalType": "address",
          "name": "",
          "type": "address"
        }
      ],
      "stateMutability": "view",
      "type": "function"
    },
    {
      "inputs": [],
      "name": "platformFee",
      "outputs": [
        {
          "internalType": "uint256",
          "name": "",
          "type": "uint256"
        }
      ],
      "stateMutability": "view",
      "type": "function"
    },
    {
      "inputs": [],
      "name": "predictionCredibilityManager",
      "outputs": [
        {
          "internalType": "address",
          "name": "",
          "type": "address"
        }
      ],
      "stateMutability": "view",
      "type": "function"
    },
    {
      "inputs": [],
      "name": "proxiableUUID",
      "outputs": [
        {
          "internalType": "bytes32",
          "name": "",
          "type": "bytes32"
        }
      ],
      "stateMutability": "view",
      "type": "function"
    },
    {
      "inputs": [
        {
          "internalType": "address",
          "name": "_tokenContract",
          "type": "address"
        },
        {
          "internalType": "address",
          "name": "_astrologer",
          "type": "address"
        },
        {
          "internalType": "uint256",
          "name": "_totalSupply",
          "type": "uint256"
        },
        {
          "internalType": "uint256",
          "name": "_basePrice",
          "type": "uint256"
        }
      ],
      "name": "registerToken",
      "outputs": [],
      "stateMutability": "nonpayable",
      "type": "function"
    },
    {
      "inputs": [],
      "name": "renounceOwnership",
      "outputs": [],
      "stateMutability": "nonpayable",
      "type": "function"
    },
    {
      "inputs": [],
      "name": "reputationScorer",
      "outputs": [
        {
          "internalType": "address",
          "name": "",
          "type": "address"
        }
      ],
      "stateMutability": "view",
      "type": "function"
    },
    {
      "inputs": [
        {
          "internalType": "address",
          "name": "_tokenContract",
          "type": "address"
        },
        {
          "internalType": "uint256",
          "name": "_tokenAmount",
          "type": "uint256"
        }
      ],
      "name": "sellTokens",
      "outputs": [
        {
          "internalType": "uint256",
          "name": "",
          "type": "uint256"
        }
      ],
      "stateMutability": "nonpayable",
      "type": "function"
    },
    {
      "inputs": [
        {
          "internalType": "address",
          "name": "_astrologerManager",
          "type": "address"
        }
      ],
      "name": "setAstrologerManager",
      "outputs": [],
      "stateMutability": "nonpayable",
      "type": "function"
    },
    {
      "inputs": [
        {
          "internalType": "uint256",
          "name": "_k",
          "type": "uint256"
        },
        {
          "internalType": "uint256",
          "name": "_reserveRatio",
          "type": "uint256"
        },
        {
          "internalType": "uint256",
          "name": "_slippageTolerance",
          "type": "uint256"
        },
        {
          "internalType": "uint256",
          "name": "_maxReputationMultiplier",
          "type": "uint256"
        }
      ],
      "name": "setBondingCurve",
      "outputs": [],
      "stateMutability": "nonpayable",
      "type": "function"
    },
    {
      "inputs": [
        {
          "internalType": "uint256",
          "name": "_platformFee",
          "type": "uint256"
        }
      ],
      "name": "setPlatformFee",
      "outputs": [],
      "stateMutability": "nonpayable",
      "type": "function"
    },
    {
      "inputs": [
        {
          "internalType": "address",
          "name": "_predictionCredibilityManager",
          "type": "address"
        }
      ],
      "name": "setPredictionCredibilityManager",
      "outputs": [],
      "stateMutability": "nonpayable",
      "type": "function"
    },
    {
      "inputs": [
        {
          "internalType": "address",
          "name": "_reputationScorer",
          "type": "address"
        }
      ],
      "name": "setReputationScorer",
      "outputs": [],
      "stateMutability": "nonpayable",
      "type": "function"
    },
    {
      "inputs": [
        {
          "internalType": "address",
          "name": "_tokenContract",
          "type": "address"
        }
      ],
      "name": "toggleTokenActive",
      "outputs": [],
      "stateMutability": "nonpayable",
      "type": "function"
    },
    {
      "inputs": [
        {
          "internalType": "address",
          "name": "",
          "type": "address"
        }
      ],
      "name": "tokenInfos",
      "outputs": [
        {
          "internalType": "address",
          "name": "tokenContract",
          "type": "address"
        },
        {
          "internalType": "address",
          "name": "astrologer",
          "type": "address"
        },
        {
          "internalType": "uint256",
          "name": "totalSupply",
          "type": "uint256"
        },
        {
          "internalType": "uint256",
          "name": "circulatingSupply",
          "type": "uint256"
        },
        {
          "internalType": "uint256",
          "name": "basePrice",
          "type": "uint256"
        },
        {
          "internalType": "uint256",
          "name": "credibilityMultiplier",
          "type": "uint256"
        },
        {
          "internalType": "bool",
          "name": "isActive",
          "type": "bool"
        }
      ],
      "stateMutability": "view",
      "type": "function"
    },
    {
      "inputs": [],
      "name": "totalVolume",
      "outputs": [
        {
          "internalType": "uint256",
          "name": "",
          "type": "uint256"
        }
      ],
      "stateMutability": "view",
      "type": "function"
    },
    {
      "inputs": [
        {
          "internalType": "address",
          "name": "newOwner",
          "type": "address"
        }
      ],
      "name": "transferOwnership",
      "outputs": [],
      "stateMutability": "nonpayable",
      "type": "function"
    },
    {
      "inputs": [
        {
          "internalType": "address",
          "name": "_tokenContract",
          "type": "address"
        },
        {
          "internalType": "uint256",
          "name": "_newMultiplier",
          "type": "uint256"
        }
      ],
      "name": "updateCredibility",
      "outputs": [],
      "stateMutability": "nonpayable",
      "type": "function"
    },
    {
      "inputs": [
        {
          "internalType": "address",
          "name": "newImplementation",
          "type": "address"
        }
      ],
      "name": "upgradeTo",
      "outputs": [],
      "stateMutability": "nonpayable",
      "type": "function"
    },
    {
      "inputs": [
        {
          "internalType": "address",
          "name": "newImplementation",
          "type": "address"
        },
        {
          "internalType": "bytes",
          "name": "data",
          "type": "bytes"
        }
      ],
      "name": "upgradeToAndCall",
      "outputs": [],
      "stateMutability": "payable",
      "type": "function"
    },
    {
      "inputs": [
        {
          "internalType": "address",
          "name": "",
          "type": "address"
        }
      ],
      "name": "userBalances",
      "outputs": [
        {
          "internalType": "uint256",
          "name": "",
          "type": "uint256"
        }
      ],
      "stateMutability": "view",
      "type": "function"
    },
    {
      "inputs": [
        {
          "internalType": "address",
          "name": "",
          "type": "address"
        }
      ],
      "name": "userContributions",
      "outputs": [
        {
          "internalType": "uint256",
          "name": "",
          "type": "uint256"
        }
      ],
      "stateMutability": "view",
      "type": "function"
    },
    {
      "inputs": [],
      "name": "withdraw",
      "outputs": [],
      "stateMutability": "nonpayable",
      "type": "function"
    }
  ],
  "bytecode": "0x60a080604052346100dc57306080526000549060ff8260081c1661008a575060ff8082160361004f575b604051611e6b90816100e28239608051818181610d3201528181610e5a01526112280152f35b60ff90811916176000557f7f26b83ff96e1f2b6a682f133852f6798a09c465da95921460cefb3847402498602060405160ff8152a138610029565b62461bcd60e51b815260206004820152602760248201527f496e697469616c697a61626c653a20636f6e747261637420697320696e697469604482015266616c697a696e6760c81b6064820152608490fd5b600080fdfe6040608081526004908136101561001557600080fd5b600091823560e01c908163078bfd9b146116e85781630f6ca1a814610ab257816312e8e2c3146116c65781631794bb3c146115055781631f69565f1461141157816326224c641461113857816326232a2e146113f25781633659cfe6146112005781633ccfd60b146111b057816344cda4851461117057816347734892146111385781634f1d052d146110dd5781634f1ef28614610ddf57816352d1902d14610d1c578163573a5b6b14610cf35781635f81a57c14610cd45781636fd31a4114610cab578163715018a614610c4e57816373c84d2114610c2557816384cc315b14610bff5781638da5cb5b14610bd6578163b0d485b314610b96578163b76d03b214610b6d578163ba46ae7214610aea578163bb8b2b4714610ab2578163c464fe6514610839578163cea9f4b51461060e578163e9725c21146105ce578163ec8ac4d81461031c578163eff1d50e146102db578163f2f2c5c4146102ab578163f2fde38b14610215575063f6322a5f1461018e57600080fd5b346102115780600319360112610211577f35a172ee9b7bba49ce50c0ba9b35893a8948f2d53ca31ce2890a07a54e1f548a6101c761178a565b6001600160a01b0316916024356101df841515611b9e565b83855260c960205260058286206101fc60ff600683015416611be3565b0190808254925582519182526020820152a280f35b5080fd5b9050346102a75760203660031901126102a75761023061178a565b91610239611877565b6001600160a01b038316156102555783610252846118cf565b80f35b906020608492519162461bcd60e51b8352820152602660248201527f4f776e61626c653a206e6577206f776e657220697320746865207a65726f206160448201526564647265737360d01b6064820152fd5b8280fd5b5050346102115780600319360112610211576020906102d46102cb61178a565b60243590611d4e565b9051908152f35b8284346103195780600319360112610319575060ce5460cf5460d05460d1549351928352602083019190915260408201526060810191909152608090f35b80fd5b8383602092836003193601126102a75761033461178a565b9060018060a01b03938483169182825260c9875284822061035b60ff600683015416611be3565b341561058b5761037561036d86611c85565b953490611d4e565b96871561053657600382019283549361038e8a86611c22565b6002850154106104f3576103bb8a6103b56127106103ae60d25434611c45565b0434611c78565b96611c22565b905585855260ca8a528785206103d28a8254611c22565b905533855260cb8a528785206103e9348254611c22565b90556103f73460d354611c22565b60d355853b156104ef5787516340c10f1960e01b815233918101918252602082018a9052908590829081906040010381838a5af180156104e5579085916104cd575b50508215918215610495575b50505050507f8692cf5ba66abd64f88cdc1ffa0ee9d9c21ee2d999322a20445ae32393394e3e83518061048c33958834846040919493926060820195825260208201520152565b0390a351908152f35b849384938493600185940154169083906104c4575bf1156104b95780808080610445565b8351903d90823e3d90fd5b506108fc6104aa565b6104d690611809565b6104e157838a610439565b8380fd5b88513d87823e3d90fd5b8480fd5b885162461bcd60e51b81528083018c9052601960248201527f576f756c642065786365656420746f74616c20737570706c79000000000000006044820152606490fd5b865162461bcd60e51b81528084018a9052602960248201527f496e73756666696369656e742045544820666f72206d696e696d756d20746f6b604482015268195b88185b5bdd5b9d60ba1b6064820152608490fd5b855162461bcd60e51b8152808301899052601b60248201527f4d7573742073656e642045544820746f2062757920746f6b656e7300000000006044820152606490fd5b8334610319576020366003190112610319576105e861178a565b6105f0611877565b60018060a01b03166001600160601b0360a01b60d454161760d45580f35b839150346102115760803660031901126102115761062a61178a565b906106336117a5565b906044356064359060018060a01b0394856033541633036107f657858091169461065e861515611b9e565b1680156107b3578115610764578215610717579286928861025297969360069682519861068a8a6117ed565b868a5260208a01918252838a019283528060608b019489865260808c0196875260a08c01986103e88a5260c08d019a60018c525260c96020528d209a5116906001600160601b0360a01b91828c5416178b5560018b0192511690825416179055516002880155516003870155519085015551600584015551151591019060ff801983541691151516179055565b875162461bcd60e51b8152602081860152602160248201527f42617365207072696365206d7573742062652067726561746572207468616e206044820152600360fc1b6064820152608490fd5b875162461bcd60e51b8152602081860152602360248201527f546f74616c20737570706c79206d75737420626520677265617465722074686160448201526206e20360ec1b6064820152608490fd5b875162461bcd60e51b8152602081860152601a60248201527f496e76616c696420617374726f6c6f67657220616464726573730000000000006044820152606490fd5b875162461bcd60e51b8152602081860152601e60248201527f4f6e6c79206f776e65722063616e20726567697374657220746f6b656e7300006044820152606490fd5b919050346102a757806003193601126102a75761085461178a565b6001600160a01b03811680855260c960209081528386206006810154919660243594926108839060ff16611be3565b8415610a6f5783815260ca8852848682205410610a2c576108ad856108a785611c85565b94611dc3565b9687156109d65760036108cf6127106108c860d2548c611c45565b048a611c78565b93016108dc878254611c78565b905584825260ca89528682206108f3878254611c78565b90556109018860d354611c22565b60d355843b1561021157865163079cc67960e41b8152339181019182526020820187905290829082908190604001038183895af180156109cc576109bd575b50908015801561098d575b505084519384525060208301859052604083015233917f9387a595ac4be9038bbb9751abad8baa3dcf219dd9e19abb81552bd521fe354690806060810161048c565b82808093819382906109b4575b3390f1156109a957808061094b565b8451903d90823e3d90fd5b506108fc61099a565b6109c690611809565b38610940565b87513d84823e3d90fd5b865162461bcd60e51b8152908101899052602a60248201527f496e73756666696369656e7420746f6b656e7320666f72206d696e696d756d2060448201526911551208185b5bdd5b9d60b21b6064820152608490fd5b855162461bcd60e51b8152808801899052601a60248201527f496e73756666696369656e7420746f6b656e2062616c616e63650000000000006044820152606490fd5b855162461bcd60e51b8152808801899052601960248201527f4d7573742073656c6c20706f73697469766520616d6f756e74000000000000006044820152606490fd5b5050346102115760203660031901126102115760209181906001600160a01b03610ada61178a565b16815260cb845220549051908152f35b839150346102115760203660031901126102115760e0926001600160a01b0392819084610b1561178a565b16815260c9602052209083825416936001830154169260028301546003840154918401549260ff600660058701549601541695815197885260208801528601526060850152608084015260a0830152151560c0820152f35b50503461021157816003193601126102115760cd5490516001600160a01b039091168152602090f35b833461031957602036600319011261031957610bb061178a565b610bb8611877565b60018060a01b03166001600160601b0360a01b60cd54161760cd5580f35b50503461021157816003193601126102115760335490516001600160a01b039091168152602090f35b505034610211576020366003190112610211576020906102d4610c2061178a565b611c85565b50503461021157816003193601126102115760d45490516001600160a01b039091168152602090f35b8334610319578060031936011261031957610c67611877565b603380546001600160a01b0319811690915581906001600160a01b03167f8be0079c531659141344cd1fd0a4f28419497f9722a3daafe3b4186f6b6457e08280a380f35b50503461021157816003193601126102115760cc5490516001600160a01b039091168152602090f35b50503461021157816003193601126102115760209060d3549051908152f35b5050346102115780600319360112610211576020906102d4610d1361178a565b60243590611dc3565b90508234610319578060031936011261031957507f00000000000000000000000000000000000000000000000000000000000000006001600160a01b03163003610d775760208251600080516020611e168339815191528152f35b6020608492519162461bcd60e51b8352820152603860248201527f555550535570677261646561626c653a206d757374206e6f742062652063616c60448201527f6c6564207468726f7567682064656c656761746563616c6c00000000000000006064820152fd5b918091506003193601126102a757610df561178a565b906024359067ffffffffffffffff82116104ef57366023830112156104ef5781840135610e218161185b565b610e2d83519182611839565b818152866020948583019336602482840101116102a7578060248893018637830101526001600160a01b037f0000000000000000000000000000000000000000000000000000000000000000811690610e8830831415611918565b610ea5600080516020611e16833981519152928284541614611979565b610ead611877565b7f4910fdfa16fed3260ed0e7147f7cc6da11a60208b5b9406d12a635614ffd91435460ff1615610ee75750505050505061025291506119da565b869293949596169085516352d1902d60e01b815287818a81865afa8a91816110aa575b50610f6957865162461bcd60e51b8152808a01899052602e60248201527f45524331393637557067726164653a206e657720696d706c656d656e7461746960448201526d6f6e206973206e6f74205555505360901b6064820152608490fd5b9791929396959497036110555750610f80826119da565b7fbc7cd75a20ee27fd9adebab32041f755214dbc6bffa90cc0225b39da2e5c2d3b8780a28584511580159061104d575b610fbe575b50505050505080f35b8061103796845196610fcf8861181d565b602788527f416464726573733a206c6f772d6c6576656c2064656c65676174652063616c6c87890152660819985a5b195960ca1b868901525190845af4913d15611043573d6110296110208261185b565b92519283611839565b81528681943d92013e611a6a565b50388080808085610fb5565b5060609250611a6a565b506001610fb0565b835162461bcd60e51b8152908101859052602960248201527f45524331393637557067726164653a20756e737570706f727465642070726f786044820152681a58589b195555525160ba1b6064820152608490fd5b9091508881813d83116110d6575b6110c28183611839565b810103126110d257519038610f0a565b8a80fd5b503d6110b8565b50503461021157602036600319011261021157610252906110fc61178a565b611104611877565b6001600160a01b0316611118811515611b9e565b835260c96020528220600601805460ff818116151660ff19909116179055565b5050346102115760203660031901126102115760209181906001600160a01b0361116061178a565b16815260ca845220549051908152f35b83346103195760203660031901126103195761118a61178a565b611192611877565b60018060a01b03166001600160601b0360a01b60cc54161760cc5580f35b5050346102115781600319360112610211576111ca611877565b8180808060018060a01b036033541647908282156111f7575bf1156111ed575080f35b51903d90823e3d90fd5b506108fc6111e3565b919050346102a7576020806003193601126104e15761121d61178a565b916001600160a01b037f0000000000000000000000000000000000000000000000000000000000000000811661125530821415611918565b611272600080516020611e16833981519152918383541614611979565b61127a611877565b8251908482019282841067ffffffffffffffff8511176113df578385528883527f4910fdfa16fed3260ed0e7147f7cc6da11a60208b5b9406d12a635614ffd91435460ff16156112d45750505050505061025291506119da565b869293949596169085516352d1902d60e01b815287818a81865afa8a91816113b0575b5061135657865162461bcd60e51b8152808a01899052602e60248201527f45524331393637557067726164653a206e657720696d706c656d656e7461746960448201526d6f6e206973206e6f74205555505360901b6064820152608490fd5b979192939695949703611055575061136d826119da565b7fbc7cd75a20ee27fd9adebab32041f755214dbc6bffa90cc0225b39da2e5c2d3b8780a2858451158015906113a957610fbe5750505050505080f35b5080610fb0565b9091508881813d83116113d8575b6113c88183611839565b810103126110d2575190386112f7565b503d6113be565b634e487b7160e01b895260418852602489fd5b50503461021157816003193601126102115760209060d2549051908152f35b9050346102a75760203660031901126102a75760e0928261143061178a565b918060c0835161143f816117ed565b82815282602082015282858201528260608201528260808201528260a0820152015260018060a01b03809316815260c96020522090835192611480846117ed565b818354169485855282600185015416926020860193845260028501549082870191825260038601549360608801948552860154946080880195865260c060ff600660058a01549960a08c019a8b520154169801971515885283519889525116602088015251908601525160608501525160808401525160a083015251151560c0820152f35b9050346102a75760603660031901126102a75761152061178a565b906115296117a5565b91845460ff8160081c1615928380946116b9575b80156116a2575b15611648575060ff198116600117865582611637575b5061157460ff865460081c1661156f81611b3e565b611b3e565b61157d336118cf565b84549261158f60ff8560081c16611b3e565b60018060a01b0390816001600160601b0360a01b93168360cc54161760cc55169060cd54161760cd5560443560d255606083516115cb816117bb565b6103e88082526101f491826020820152606487820152611388938491015260ce5560cf55606460d05560d1556115ff578280f35b61ff001916825551600181527f7f26b83ff96e1f2b6a682f133852f6798a09c465da95921460cefb384740249890602090a138808280f35b61ffff19166101011785553861155a565b608490602087519162461bcd60e51b8352820152602e60248201527f496e697469616c697a61626c653a20636f6e747261637420697320616c72656160448201526d191e481a5b9a5d1a585b1a5e995960921b6064820152fd5b50303b1580156115445750600160ff831614611544565b50600160ff83161061153d565b839034610211576020366003190112610211576116e1611877565b3560d25580f35b919050346102a75760803660031901126102a7577f642a2328272d9e8f7996714d21dad1230999171aabf9dc477fb696136713eef891356117846024359260443560643591611735611877565b8260608251611743816117bb565b878152886020820152848482015201528460ce558560cf558160d0558260d15551948594859094939260609260808301968352602083015260408201520152565b0390a180f35b600435906001600160a01b03821682036117a057565b600080fd5b602435906001600160a01b03821682036117a057565b6080810190811067ffffffffffffffff8211176117d757604052565b634e487b7160e01b600052604160045260246000fd5b60e0810190811067ffffffffffffffff8211176117d757604052565b67ffffffffffffffff81116117d757604052565b6060810190811067ffffffffffffffff8211176117d757604052565b90601f8019910116810190811067ffffffffffffffff8211176117d757604052565b67ffffffffffffffff81116117d757601f01601f191660200190565b6033546001600160a01b0316330361188b57565b606460405162461bcd60e51b815260206004820152602060248201527f4f776e61626c653a2063616c6c6572206973206e6f7420746865206f776e65726044820152fd5b603380546001600160a01b039283166001600160a01b0319821681179092559091167f8be0079c531659141344cd1fd0a4f28419497f9722a3daafe3b4186f6b6457e0600080a3565b1561191f57565b60405162461bcd60e51b815260206004820152602c60248201527f46756e6374696f6e206d7573742062652063616c6c6564207468726f7567682060448201526b19195b1959d85d1958d85b1b60a21b6064820152608490fd5b1561198057565b60405162461bcd60e51b815260206004820152602c60248201527f46756e6374696f6e206d7573742062652063616c6c6564207468726f7567682060448201526b6163746976652070726f787960a01b6064820152608490fd5b803b15611a0f57600080516020611e1683398151915280546001600160a01b0319166001600160a01b03909216919091179055565b60405162461bcd60e51b815260206004820152602d60248201527f455243313936373a206e657720696d706c656d656e746174696f6e206973206e60448201526c1bdd08184818dbdb9d1c9858dd609a1b6064820152608490fd5b91929015611acc5750815115611a7e575090565b3b15611a875790565b60405162461bcd60e51b815260206004820152601d60248201527f416464726573733a2063616c6c20746f206e6f6e2d636f6e74726163740000006044820152606490fd5b825190915015611adf5750805190602001fd5b6040519062461bcd60e51b82528160208060048301528251908160248401526000935b828510611b25575050604492506000838284010152601f80199101168101030190fd5b8481018201518686016044015293810193859350611b02565b15611b4557565b60405162461bcd60e51b815260206004820152602b60248201527f496e697469616c697a61626c653a20636f6e7472616374206973206e6f74206960448201526a6e697469616c697a696e6760a81b6064820152608490fd5b15611ba557565b60405162461bcd60e51b8152602060048201526016602482015275125b9d985b1a59081d1bdad95b8818dbdb9d1c9858dd60521b6044820152606490fd5b15611bea57565b60405162461bcd60e51b815260206004820152601060248201526f546f6b656e206e6f742061637469766560801b6044820152606490fd5b91908201809211611c2f57565b634e487b7160e01b600052601160045260246000fd5b81810292918115918404141715611c2f57565b8115611c62570490565b634e487b7160e01b600052601260045260246000fd5b91908203918211611c2f57565b6001600160a01b0316600090815260c960205260408120600681015490919060ff1615611d4957600382015490670de0b6b3a76400009182810290808204841490151715611d3557611cec611ce3620f424092600287015490611c58565b60ce5490611c45565b048201809211611d21575081611d18611d1d9260046005683635c9adc5dea00000960154930154611c45565b611c45565b0490565b634e487b7160e01b81526011600452602490fd5b634e487b7160e01b82526011600452602482fd5b905090565b6001600160a01b038116600090815260c9602052604090206006015460ff1615611dbc57611d7b90611c85565b90670de0b6b3a764000090818102918183041490151715611c2f57611db991611da391611c58565b612710611db260d05483611c45565b0490611c78565b90565b5050600090565b9060018060a01b03821660005260c960205260ff6006604060002001541615611dbc57611e05670de0b6b3a764000091611dff611db994611c85565b90611c45565b04612710611db260d05483611c4556fe360894a13ba1a3210667c828492db98dca3e2076cc3735a920a3ca505d382bbca26469706673582212206f99c619d21c271393bdf41a66432716c9b462203e4616764f5bb0d51103474264736f6c63430008110033",
  "linkReferences": {},
  "deployedLinkReferences": {}
}