{
  "_format": "hh-sol-artifact-1",
  "contractName": "AstroChartNFT",
  "sourceName": "contracts/AstroChartNFT.sol",
  "abi": [
    {
      "inputs": [],
      "stateMutability": "nonpayable",
      "type": "constructor"
    },
    {
      "anonymous": false,
      "inputs": [
        {
          "indexed": false,
          "internalType": "address",
          "name": "previousAdmin",
          "type": "address"
        },
        {
          "indexed": false,
          "internalType": "address",
          "name": "newAdmin",
          "type": "address"
        }
      ],
      "name": "AdminChanged",
      "type": "event"
    },
    {
      "anonymous": false,
      "inputs": [
        {
          "indexed": true,
          "internalType": "address",
          "name": "owner",
          "type": "address"
        },
        {
          "indexed": true,
          "internalType": "address",
          "name": "approved",
          "type": "address"
        },
        {
          "indexed": true,
          "internalType": "uint256",
          "name": "tokenId",
          "type": "uint256"
        }
      ],
      "name": "Approval",
      "type": "event"
    },
    {
      "anonymous": false,
      "inputs": [
        {
          "indexed": true,
          "internalType": "address",
          "name": "owner",
          "type": "address"
        },
        {
          "indexed": true,
          "internalType": "address",
          "name": "operator",
          "type": "address"
        },
        {
          "indexed": false,
          "internalType": "bool",
          "name": "approved",
          "type": "bool"
        }
      ],
      "name": "ApprovalForAll",
      "type": "event"
    },
    {
      "anonymous": false,
      "inputs": [
        {
          "indexed": false,
          "internalType": "uint256",
          "name": "_fromTokenId",
          "type": "uint256"
        },
        {
          "indexed": false,
          "internalType": "uint256",
          "name": "_toTokenId",
          "type": "uint256"
        }
      ],
      "name": "BatchMetadataUpdate",
      "type": "event"
    },
    {
      "anonymous": false,
      "inputs": [
        {
          "indexed": true,
          "internalType": "address",
          "name": "beacon",
          "type": "address"
        }
      ],
      "name": "BeaconUpgraded",
      "type": "event"
    },
    {
      "anonymous": false,
      "inputs": [
        {
          "indexed": true,
          "internalType": "uint256",
          "name": "tokenId",
          "type": "uint256"
        },
        {
          "indexed": true,
          "internalType": "address",
          "name": "owner",
          "type": "address"
        },
        {
          "indexed": false,
          "internalType": "string",
          "name": "name",
          "type": "string"
        },
        {
          "indexed": false,
          "internalType": "uint256",
          "name": "birthDate",
          "type": "uint256"
        }
      ],
      "name": "BirthChartMinted",
      "type": "event"
    },
    {
      "anonymous": false,
      "inputs": [
        {
          "indexed": false,
          "internalType": "uint8",
          "name": "version",
          "type": "uint8"
        }
      ],
      "name": "Initialized",
      "type": "event"
    },
    {
      "anonymous": false,
      "inputs": [
        {
          "indexed": false,
          "internalType": "uint256",
          "name": "_tokenId",
          "type": "uint256"
        }
      ],
      "name": "MetadataUpdate",
      "type": "event"
    },
    {
      "anonymous": false,
      "inputs": [
        {
          "indexed": true,
          "internalType": "address",
          "name": "previousOwner",
          "type": "address"
        },
        {
          "indexed": true,
          "internalType": "address",
          "name": "newOwner",
          "type": "address"
        }
      ],
      "name": "OwnershipTransferred",
      "type": "event"
    },
    {
      "anonymous": false,
      "inputs": [
        {
          "indexed": true,
          "internalType": "address",
          "name": "from",
          "type": "address"
        },
        {
          "indexed": true,
          "internalType": "address",
          "name": "to",
          "type": "address"
        },
        {
          "indexed": true,
          "internalType": "uint256",
          "name": "tokenId",
          "type": "uint256"
        }
      ],
      "name": "Transfer",
      "type": "event"
    },
    {
      "anonymous": false,
      "inputs": [
        {
          "indexed": true,
          "internalType": "address",
          "name": "implementation",
          "type": "address"
        }
      ],
      "name": "Upgraded",
      "type": "event"
    },
    {
      "inputs": [
        {
          "internalType": "address",
          "name": "to",
          "type": "address"
        },
        {
          "internalType": "uint256",
          "name": "tokenId",
          "type": "uint256"
        }
      ],
      "name": "approve",
      "outputs": [],
      "stateMutability": "nonpayable",
      "type": "function"
    },
    {
      "inputs": [],
      "name": "astrologerManager",
      "outputs": [
        {
          "internalType": "address",
          "name": "",
          "type": "address"
        }
      ],
      "stateMutability": "view",
      "type": "function"
    },
    {
      "inputs": [
        {
          "internalType": "address",
          "name": "owner",
          "type": "address"
        }
      ],
      "name": "balanceOf",
      "outputs": [
        {
          "internalType": "uint256",
          "name": "",
          "type": "uint256"
        }
      ],
      "stateMutability": "view",
      "type": "function"
    },
    {
      "inputs": [
        {
          "internalType": "uint256",
          "name": "",
          "type": "uint256"
        }
      ],
      "name": "birthCharts",
      "outputs": [
        {
          "internalType": "string",
          "name": "name",
          "type": "string"
        },
        {
          "internalType": "uint256",
          "name": "birthDate",
          "type": "uint256"
        },
        {
          "internalType": "uint256",
          "name": "birthTime",
          "type": "uint256"
        },
        {
          "internalType": "string",
          "name": "birthLocation",
          "type": "string"
        },
        {
          "internalType": "string",
          "name": "timezone",
          "type": "string"
        },
        {
          "internalType": "string",
          "name": "chartData",
          "type": "string"
        },
        {
          "internalType": "uint256",
          "name": "mintedAt",
          "type": "uint256"
        },
        {
          "internalType": "address",
          "name": "owner",
          "type": "address"
        }
      ],
      "stateMutability": "view",
      "type": "function"
    },
    {
      "inputs": [
        {
          "internalType": "uint256",
          "name": "tokenId",
          "type": "uint256"
        }
      ],
      "name": "getApproved",
      "outputs": [
        {
          "internalType": "address",
          "name": "",
          "type": "address"
        }
      ],
      "stateMutability": "view",
      "type": "function"
    },
    {
      "inputs": [
        {
          "internalType": "uint256",
          "name": "tokenId",
          "type": "uint256"
        }
      ],
      "name": "getBirthChart",
      "outputs": [
        {
          "components": [
            {
              "internalType": "string",
              "name": "name",
              "type": "string"
            },
            {
              "internalType": "uint256",
              "name": "birthDate",
              "type": "uint256"
            },
            {
              "internalType": "uint256",
              "name": "birthTime",
              "type": "uint256"
            },
            {
              "internalType": "string",
              "name": "birthLocation",
              "type": "string"
            },
            {
              "internalType": "string",
              "name": "timezone",
              "type": "string"
            },
            {
              "internalType": "string",
              "name": "chartData",
              "type": "string"
            },
            {
              "internalType": "uint256",
              "name": "mintedAt",
              "type": "uint256"
            },
            {
              "internalType": "address",
              "name": "owner",
              "type": "address"
            }
          ],
          "internalType": "struct AstroChartNFT.BirthChart",
          "name": "",
          "type": "tuple"
        }
      ],
      "stateMutability": "view",
      "type": "function"
    },
    {
      "inputs": [
        {
          "internalType": "address",
          "name": "user",
          "type": "address"
        }
      ],
      "name": "getUserCharts",
      "outputs": [
        {
          "internalType": "uint256[]",
          "name": "",
          "type": "uint256[]"
        }
      ],
      "stateMutability": "view",
      "type": "function"
    },
    {
      "inputs": [
        {
          "internalType": "string",
          "name": "name",
          "type": "string"
        },
        {
          "internalType": "string",
          "name": "symbol",
          "type": "string"
        },
        {
          "internalType": "uint256",
          "name": "_mintPrice",
          "type": "uint256"
        },
        {
          "internalType": "address",
          "name": "_astrologerManager",
          "type": "address"
        }
      ],
      "name": "initialize",
      "outputs": [],
      "stateMutability": "nonpayable",
      "type": "function"
    },
    {
      "inputs": [
        {
          "internalType": "address",
          "name": "owner",
          "type": "address"
        },
        {
          "internalType": "address",
          "name": "operator",
          "type": "address"
        }
      ],
      "name": "isApprovedForAll",
      "outputs": [
        {
          "internalType": "bool",
          "name": "",
          "type": "bool"
        }
      ],
      "stateMutability": "view",
      "type": "function"
    },
    {
      "inputs": [
        {
          "internalType": "string",
          "name": "_name",
          "type": "string"
        },
        {
          "internalType": "uint256",
          "name": "_birthDate",
          "type": "uint256"
        },
        {
          "internalType": "uint256",
          "name": "_birthTime",
          "type": "uint256"
        },
        {
          "internalType": "string",
          "name": "_birthLocation",
          "type": "string"
        },
        {
          "internalType": "string",
          "name": "_timezone",
          "type": "string"
        },
        {
          "internalType": "string",
          "name": "_chartData",
          "type": "string"
        },
        {
          "internalType": "string",
          "name": "_tokenURI",
          "type": "string"
        }
      ],
      "name": "mintBirthChart",
      "outputs": [
        {
          "internalType": "uint256",
          "name": "",
          "type": "uint256"
        }
      ],
      "stateMutability": "payable",
      "type": "function"
    },
    {
      "inputs": [],
      "name": "mintPrice",
      "outputs": [
        {
          "internalType": "uint256",
          "name": "",
          "type": "uint256"
        }
      ],
      "stateMutability": "view",
      "type": "function"
    },
    {
      "inputs": [],
      "name": "name",
      "outputs": [
        {
          "internalType": "string",
          "name": "",
          "type": "string"
        }
      ],
      "stateMutability": "view",
      "type": "function"
    },
    {
      "inputs": [],
      "name": "owner",
      "outputs": [
        {
          "internalType": "address",
          "name": "",
          "type": "address"
        }
      ],
      "stateMutability": "view",
      "type": "function"
    },
    {
      "inputs": [
        {
          "internalType": "uint256",
          "name": "tokenId",
          "type": "uint256"
        }
      ],
      "name": "ownerOf",
      "outputs": [
        {
          "internalType": "address",
          "name": "",
          "type": "address"
        }
      ],
      "stateMutability": "view",
      "type": "function"
    },
    {
      "inputs": [],
      "name": "proxiableUUID",
      "outputs": [
        {
          "internalType": "bytes32",
          "name": "",
          "type": "bytes32"
        }
      ],
      "stateMutability": "view",
      "type": "function"
    },
    {
      "inputs": [],
      "name": "renounceOwnership",
      "outputs": [],
      "stateMutability": "nonpayable",
      "type": "function"
    },
    {
      "inputs": [
        {
          "internalType": "address",
          "name": "from",
          "type": "address"
        },
        {
          "internalType": "address",
          "name": "to",
          "type": "address"
        },
        {
          "internalType": "uint256",
          "name": "tokenId",
          "type": "uint256"
        }
      ],
      "name": "safeTransferFrom",
      "outputs": [],
      "stateMutability": "nonpayable",
      "type": "function"
    },
    {
      "inputs": [
        {
          "internalType": "address",
          "name": "from",
          "type": "address"
        },
        {
          "internalType": "address",
          "name": "to",
          "type": "address"
        },
        {
          "internalType": "uint256",
          "name": "tokenId",
          "type": "uint256"
        },
        {
          "internalType": "bytes",
          "name": "data",
          "type": "bytes"
        }
      ],
      "name": "safeTransferFrom",
      "outputs": [],
      "stateMutability": "nonpayable",
      "type": "function"
    },
    {
      "inputs": [
        {
          "internalType": "address",
          "name": "operator",
          "type": "address"
        },
        {
          "internalType": "bool",
          "name": "approved",
          "type": "bool"
        }
      ],
      "name": "setApprovalForAll",
      "outputs": [],
      "stateMutability": "nonpayable",
      "type": "function"
    },
    {
      "inputs": [
        {
          "internalType": "address",
          "name": "_newManager",
          "type": "address"
        }
      ],
      "name": "setAstrologerManager",
      "outputs": [],
      "stateMutability": "nonpayable",
      "type": "function"
    },
    {
      "inputs": [
        {
          "internalType": "uint256",
          "name": "_newPrice",
          "type": "uint256"
        }
      ],
      "name": "setMintPrice",
      "outputs": [],
      "stateMutability": "nonpayable",
      "type": "function"
    },
    {
      "inputs": [
        {
          "internalType": "bytes4",
          "name": "interfaceId",
          "type": "bytes4"
        }
      ],
      "name": "supportsInterface",
      "outputs": [
        {
          "internalType": "bool",
          "name": "",
          "type": "bool"
        }
      ],
      "stateMutability": "view",
      "type": "function"
    },
    {
      "inputs": [],
      "name": "symbol",
      "outputs": [
        {
          "internalType": "string",
          "name": "",
          "type": "string"
        }
      ],
      "stateMutability": "view",
      "type": "function"
    },
    {
      "inputs": [
        {
          "internalType": "uint256",
          "name": "tokenId",
          "type": "uint256"
        }
      ],
      "name": "tokenURI",
      "outputs": [
        {
          "internalType": "string",
          "name": "",
          "type": "string"
        }
      ],
      "stateMutability": "view",
      "type": "function"
    },
    {
      "inputs": [
        {
          "internalType": "address",
          "name": "from",
          "type": "address"
        },
        {
          "internalType": "address",
          "name": "to",
          "type": "address"
        },
        {
          "internalType": "uint256",
          "name": "tokenId",
          "type": "uint256"
        }
      ],
      "name": "transferFrom",
      "outputs": [],
      "stateMutability": "nonpayable",
      "type": "function"
    },
    {
      "inputs": [
        {
          "internalType": "address",
          "name": "newOwner",
          "type": "address"
        }
      ],
      "name": "transferOwnership",
      "outputs": [],
      "stateMutability": "nonpayable",
      "type": "function"
    },
    {
      "inputs": [
        {
          "internalType": "address",
          "name": "newImplementation",
          "type": "address"
        }
      ],
      "name": "upgradeTo",
      "outputs": [],
      "stateMutability": "nonpayable",
      "type": "function"
    },
    {
      "inputs": [
        {
          "internalType": "address",
          "name": "newImplementation",
          "type": "address"
        },
        {
          "internalType": "bytes",
          "name": "data",
          "type": "bytes"
        }
      ],
      "name": "upgradeToAndCall",
      "outputs": [],
      "stateMutability": "payable",
      "type": "function"
    },
    {
      "inputs": [
        {
          "internalType": "address",
          "name": "",
          "type": "address"
        },
        {
          "internalType": "uint256",
          "name": "",
          "type": "uint256"
        }
      ],
      "name": "userCharts",
      "outputs": [
        {
          "internalType": "uint256",
          "name": "",
          "type": "uint256"
        }
      ],
      "stateMutability": "view",
      "type": "function"
    },
    {
      "inputs": [],
      "name": "withdraw",
      "outputs": [],
      "stateMutability": "nonpayable",
      "type": "function"
    }
  ],
  "bytecode": "0x60a080604052346100dd57306080526000549060ff8260081c1661008b575060ff80821603610050575b604051612d779081620000e38239608051818181610d1301528181610e0201526112ff0152f35b60ff90811916176000557f7f26b83ff96e1f2b6a682f133852f6798a09c465da95921460cefb3847402498602060405160ff8152a138610029565b62461bcd60e51b815260206004820152602760248201527f496e697469616c697a61626c653a20636f6e747261637420697320696e697469604482015266616c697a696e6760c81b6064820152608490fd5b600080fdfe608080604052600436101561001357600080fd5b60003560e01c90816301ffc9a7146121d85750806306fdde0314612132578063081812fc14612114578063095ea7b314611f9a57806323b872dd14611f765780633287bb3c1461155f5780633659cfe6146112db5780633ccfd60b1461128b57806342842e0e1461125857806344cda485146112155780634cdc6ea7146110475780634f1ef28614610dc457806352d1902d14610d005780635b325cae14610ca75780636352211e14610c775780636817c76c14610c585780636fd31a4114610c2e57806370a0823114610b97578063715018a614610b3a5780638da5cb5b14610b1157806395d89b4114610a2f5780639cb61acb1461097a5780639dd548c5146108a4578063a22cb465146107d2578063b88d4fde1461075e578063bd3a13f6146102eb578063c87b56dd14610275578063e985e9c51461021f578063f2fde38b146101905763f4a0a5281461016957600080fd5b3461018b57602036600319011261018b576101826124e1565b60043561016255005b600080fd5b3461018b57602036600319011261018b576101a961229d565b6101b16124e1565b6001600160a01b038116156101cb576101c990612539565b005b60405162461bcd60e51b815260206004820152602660248201527f4f776e61626c653a206e6577206f776e657220697320746865207a65726f206160448201526564647265737360d01b6064820152608490fd5b3461018b57604036600319011261018b5761023861229d565b6102406122b3565b9060018060a01b03809116600052606a60205260406000209116600052602052602060ff604060002054166040519015158152f35b3461018b57602036600319011261018b576004356000818152606760205260409020546102ac906001600160a01b031615156126d4565b60005260976020526102e76102c4604060002061243b565b60006040516102d28161231a565b5260405191829160208352602083019061225d565b0390f35b3461018b57608036600319011261018b576001600160401b0360043581811161018b5761031c90369060040161238c565b60243582811161018b5761033490369060040161238c565b906064356001600160a01b0381169081900361018b576000549360ff93848660081c161593848095610752575b801561073c575b156106e057600196858860ff198316176000556106ce575b5061039a8660005460081c1661039581612c75565b612c75565b80518381116105bb57806103af606554612401565b92601f9384811161065e575b506020908483116001146105dc576000926105d1575b5050600019600383901b1c191690881b176065555b81519283116105bb5782916103fc606654612401565b828111610549575b5060209183116001146104c7576000926104bc575b5050600019600383901b1c191690851b176066555b61044b8360005460081c1661044281612c75565b61039581612c75565b61045433612539565b610465600054938460081c16612c75565b6044356101625561016380546001600160a01b031916909117905561048657005b61ff0019166000556040519081527f7f26b83ff96e1f2b6a682f133852f6798a09c465da95921460cefb384740249890602090a1005b015190508680610419565b90879350601f1983169160666000527f46501879b8ca8525e8c2fd519e2fbfcfa2ebea26501294aa02cbfcfb12e943549260005b81811061053157508411610518575b505050811b0160665561042e565b015160001960f88460031b161c1916905586808061050a565b8284015185558a9690940193602093840193016104fb565b9091925060666000527f46501879b8ca8525e8c2fd519e2fbfcfa2ebea26501294aa02cbfcfb12e943548380860160051c820192602087106105b2575b9186958b929594930160051c01915b8281106105a3575050610404565b600081558695508a9101610595565b92508192610586565b634e487b7160e01b600052604160045260246000fd5b0151905089806103d1565b908a9350601f1983169160656000527f8ff97419363ffd7000167f130ef7168fbea05faf9251824ca5043f113cc6a7c79260005b8181106106465750841161062d575b505050811b016065556103e6565b015160001960f88460031b161c1916905589808061061f565b8284015185558d969094019360209384019301610610565b90915060656000527f8ff97419363ffd7000167f130ef7168fbea05faf9251824ca5043f113cc6a7c78480850160051c820192602086106106c5575b918c91869594930160051c01915b8281106106b65750506103bb565b600081558594508c91016106a8565b9250819261069a565b61ffff19166101011760005587610380565b60405162461bcd60e51b815260206004820152602e60248201527f496e697469616c697a61626c653a20636f6e747261637420697320616c72656160448201526d191e481a5b9a5d1a585b1a5e995960921b6064820152608490fd5b50303b1580156103685750600186881614610368565b50600186881610610361565b3461018b57608036600319011261018b5761077761229d565b61077f6122b3565b90606435906044356001600160401b03831161018b576101c9936107aa6107cd94369060040161238c565b926107bd6107b8843361285d565b612784565b6107c8838383612925565b612b61565b612839565b3461018b57604036600319011261018b576107eb61229d565b6024359081151580920361018b576001600160a01b03169033821461085f5733600052606a602052604060002082600052602052604060002060ff1981541660ff83161790556040519081527f17307eab39ab6107e8899845ad3d59bd9653f200f220920489ca2b5937696c3160203392a3005b60405162461bcd60e51b815260206004820152601960248201527f4552433732313a20617070726f766520746f2063616c6c6572000000000000006044820152606490fd5b3461018b57602036600319011261018b5760043560005261016060205261093760406000206108d28161243b565b90600181015461096b60028301549161095d6108f06003860161243b565b9161094f6109006004880161243b565b9161090d6005890161243b565b94600689015498600760018060a01b0391015416976040519b8c9b8c6101008091528d019061225d565b9260208c015260408b015289820360608b015261225d565b90878203608089015261225d565b9085820360a087015261225d565b9160c084015260e08301520390f35b3461018b5760208060031936011261018b576001600160a01b0361099c61229d565b166000526101618152604060002060405190818382549182815201908192600052846000209060005b86828210610a1b5786866109db82880383612350565b604051928392818401908285525180915260408401929160005b828110610a0457505050500390f35b8351855286955093810193928101926001016109f5565b8354855290930192600192830192016109c5565b3461018b57600036600319011261018b576040516000606654610a5181612401565b80845290600190818116908115610aea5750600114610a8f575b6102e784610a7b81860382612350565b60405191829160208352602083019061225d565b6066600090815292507f46501879b8ca8525e8c2fd519e2fbfcfa2ebea26501294aa02cbfcfb12e943545b828410610ad2575050508101602001610a7b82610a6b565b80546020858701810191909152909301928101610aba565b60ff191660208087019190915292151560051b85019092019250610a7b9150839050610a6b565b3461018b57600036600319011261018b5760c9546040516001600160a01b039091168152602090f35b3461018b57600036600319011261018b57610b536124e1565b60c980546001600160a01b031981169091556000906001600160a01b03167f8be0079c531659141344cd1fd0a4f28419497f9722a3daafe3b4186f6b6457e08280a3005b3461018b57602036600319011261018b576001600160a01b03610bb861229d565b168015610bd75760005260686020526020604060002054604051908152f35b60405162461bcd60e51b815260206004820152602960248201527f4552433732313a2061646472657373207a65726f206973206e6f7420612076616044820152683634b21037bbb732b960b91b6064820152608490fd5b3461018b57600036600319011261018b57610163546040516001600160a01b039091168152602090f35b3461018b57600036600319011261018b57602061016254604051908152f35b3461018b57602036600319011261018b576020610c95600435612720565b6040516001600160a01b039091168152f35b3461018b57604036600319011261018b57610cc061229d565b6001600160a01b03166000908152610161602052604090208054602435919082101561018b57602091610cf2916123d3565b90546040519160031b1c8152f35b3461018b57600036600319011261018b577f00000000000000000000000000000000000000000000000000000000000000006001600160a01b03163003610d59576020604051600080516020612d228339815191528152f35b60405162461bcd60e51b815260206004820152603860248201527f555550535570677261646561626c653a206d757374206e6f742062652063616c60448201527f6c6564207468726f7567682064656c656761746563616c6c00000000000000006064820152608490fd5b604036600319011261018b57610dd861229d565b6024356001600160401b03811161018b57610df790369060040161238c565b906001600160a01b037f0000000000000000000000000000000000000000000000000000000000000000811690610e3030831415612582565b610e4d600080516020612d228339815191529282845416146125e3565b610e556124e1565b7f4910fdfa16fed3260ed0e7147f7cc6da11a60208b5b9406d12a635614ffd91435460ff1615610e8b5750506101c99150612644565b6040516352d1902d60e01b81526020939291831691908481600481865afa60009181611018575b50610f135760405162461bcd60e51b815260048101869052602e60248201527f45524331393637557067726164653a206e657720696d706c656d656e7461746960448201526d6f6e206973206e6f74205555505360901b6064820152608490fd5b03610fc157610f2182612644565b7fbc7cd75a20ee27fd9adebab32041f755214dbc6bffa90cc0225b39da2e5c2d3b600080a2825115801590610fb9575b610f5757005b6000806101c99460405194610f6b86612335565b602786527f416464726573733a206c6f772d6c6576656c2064656c65676174652063616c6c81870152660819985a5b195960ca1b604087015281519101845af4610fb3612a36565b91612bdc565b506001610f51565b60405162461bcd60e51b815260048101849052602960248201527f45524331393637557067726164653a20756e737570706f727465642070726f786044820152681a58589b195555525160ba1b6064820152608490fd5b9091508581813d8311611040575b6110308183612350565b8101031261018b57519087610eb2565b503d611026565b3461018b5760208060031936011261018b5760405190600435611069836122fe565b600060e0606094858152828582015282604082015285808201528560808201528560a08201528260c082015201526110b681600052606760205260018060a01b0360406000205416151590565b156111d95760005261016081526040600020604051916110d5836122fe565b6110de8261243b565b835260018201549181840192835260028101549460408501958652600382016111069061243b565b858201908152936111196004840161243b565b6080870190815261112c6005850161243b565b9060a0880191825260068501549660c08901978852600160a01b60019003600781970154169460e08a019586526040519a8b9a898c5251610100809a8d01526101208c016111799161225d565b955160408c015251908a015251601f1993848a82030160808b015261119d9161225d565b905190838982030160a08a01526111b39161225d565b9051918782030160c08801526111c89161225d565b935160e08601525116908301520390f35b60405162461bcd60e51b8152600481018390526014602482015273151bdad95b88191bd95cc81b9bdd08195e1a5cdd60621b6044820152606490fd5b3461018b57602036600319011261018b5761122e61229d565b6112366124e1565b61016380546001600160a01b0319166001600160a01b03909216919091179055005b3461018b576101c96107cd61126c366122c9565b906040519261127a8461231a565b600084526107bd6107b8843361285d565b3461018b57600036600319011261018b576112a46124e1565b600080808060018060a01b0360c9541647908282156112d2575bf1156112c657005b6040513d6000823e3d90fd5b506108fc6112be565b3461018b5760208060031936011261018b576112f561229d565b6001600160a01b037f00000000000000000000000000000000000000000000000000000000000000008116929061132e30851415612582565b61134b600080516020612d228339815191529482865416146125e3565b6113536124e1565b60405193828501918583106001600160401b038411176105bb57826040526000865260ff7f4910fdfa16fed3260ed0e7147f7cc6da11a60208b5b9406d12a635614ffd914354166000146113af57505050506101c99150612644565b84939416906040516352d1902d60e01b81528581600481865afa60009181611530575b506114335760405162461bcd60e51b815260048101879052602e60248201527f45524331393637557067726164653a206e657720696d706c656d656e7461746960448201526d6f6e206973206e6f74205555505360901b6064820152608490fd5b036114d95761144183612644565b7fbc7cd75a20ee27fd9adebab32041f755214dbc6bffa90cc0225b39da2e5c2d3b600080a28351158015906114d1575b61147757005b600080916101c9957f416464726573733a206c6f772d6c6576656c2064656c65676174652063616c6c604051966114ad88612335565b60278852870152660819985a5b195960ca1b60408701525190845af4610fb3612a36565b506000611471565b60405162461bcd60e51b815260048101859052602960248201527f45524331393637557067726164653a20756e737570706f727465642070726f786044820152681a58589b195555525160ba1b6064820152608490fd5b9091508681813d8311611558575b6115488183612350565b8101031261018b575190886113d2565b503d61153e565b60e036600319011261018b576004356001600160401b03811161018b5761158a90369060040161238c565b6064356001600160401b03811161018b576115a990369060040161238c565b6084356001600160401b03811161018b576115c890369060040161238c565b9060a4356001600160401b03811161018b576115e890369060040161238c565b60c4356001600160401b03811161018b5761160790369060040161238c565b92610162543410611f3a57845115611efe5760243515611ec45761015f9360018554018095556040516116398161231a565b600081523315611e80576000868152606760205260409020546116f7916107cd91611670906001600160a01b031615155b15612cd5565b600088815260676020526040902054611693906001600160a01b0316151561166a565b3360005260686020526040600020600181540190558760005260676020526040600020336001600160601b0360a01b825416179055873360007fddf252ad1be2c89b69c2b068fc378daa952ba7f163c4a11628f55a4df523b3ef8180a48733612a66565b6000858152606760205260409020546001600160a01b031615611e24578460005260976020526040600020908051906001600160401b0382116105bb5781906117408454612401565b601f8111611dd4575b50602090601f8311600114611d6857600092611d5d575b50508160011b916000199060031b1c19161790555b7ff8e1a15aba9398e019f0b49df1a4fde98ee17ae345cb5f6b5e2c27f5033e8ce76020604051868152a1604051926117ac846122fe565b858452602435602085015260443560408501526060840152608083015260a08201524260c08201523360e082015281600052610160602052604060002081518051906001600160401b0382116105bb5781906118088454612401565b601f8111611d0d575b50602090601f8311600114611ca157600092611c96575b50508160011b916000199060031b1c19161781555b602082015160018201556040820151600282015560608201518051906001600160401b0382116105bb5781906118766003850154612401565b601f8111611c43575b50602090601f8311600114611bd157600092611bc6575b50508160011b916000199060031b1c19161760038201555b60808201518051906001600160401b0382116105bb5781906118d36004850154612401565b601f8111611b73575b50602090601f8311600114611b0157600092611af6575b50508160011b916000199060031b1c19161760048201555b60a08201518051906001600160401b0382116105bb5761192e6005840154612401565b601f8111611aaf575b50602090601f8311600114611a3c57600793929160009183611a31575b50508160011b916000199060031b1c19161760058201555b60c08301516006820155019060e060018060a01b03910151166001600160601b0360a01b825416179055336000526101616020526040600020918254680100000000000000008110156105bb576119cc81602095600186940181556123d3565b819291549060031b600019811b9283911b16911916179055817fe53dba677ca9ce829d1d76ce1504b6ea3125478b648d2cc0103387de6e0cd109611a1b6040519360408552604085019061225d565b92602435868201528033940390a3604051908152f35b015190508780611954565b906005840160005260206000209160005b601f1985168110611a97575091839160019360079695601f19811610611a7e575b505050811b01600582015561196c565b015160001960f88460031b161c19169055878080611a6e565b91926020600181928685015181550194019201611a4d565b600584016000526020600020601f840160051c810160208510611aef575b601f830160051c82018110611ae3575050611937565b60008155600101611acd565b5080611acd565b0151905086806118f3565b9250600484016000526020600020906000935b601f1984168510611b58576001945083601f19811610611b3f575b505050811b01600482015561190b565b015160001960f88460031b161c19169055868080611b2f565b81810151835560209485019460019093019290910190611b14565b909150600484016000526020600020601f840160051c810160208510611bbf575b90849392915b601f830160051c82018110611bb05750506118dc565b60008155859450600101611b9a565b5080611b94565b015190508680611896565b9250600384016000526020600020906000935b601f1984168510611c28576001945083601f19811610611c0f575b505050811b0160038201556118ae565b015160001960f88460031b161c19169055868080611bff565b81810151835560209485019460019093019290910190611be4565b909150600384016000526020600020601f840160051c810160208510611c8f575b90849392915b601f830160051c82018110611c8057505061187f565b60008155859450600101611c6a565b5080611c64565b015190508680611828565b9250836000526020600020906000935b601f1984168510611cf2576001945083601f19811610611cd9575b505050811b01815561183d565b015160001960f88460031b161c19169055868080611ccc565b81810151835560209485019460019093019290910190611cb1565b909150836000526020600020601f840160051c810160208510611d56575b90849392915b601f830160051c82018110611d47575050611811565b60008155859450600101611d31565b5080611d2b565b015190508880611760565b9250836000526020600020906000935b601f1984168510611db9576001945083601f19811610611da0575b505050811b019055611775565b015160001960f88460031b161c19169055888080611d93565b81810151835560209485019460019093019290910190611d78565b909150836000526020600020601f840160051c810160208510611e1d575b90849392915b601f830160051c82018110611e0e575050611749565b60008155859450600101611df8565b5080611df2565b60405162461bcd60e51b815260206004820152602e60248201527f45524337323155524953746f726167653a2055524920736574206f66206e6f6e60448201526d32bc34b9ba32b73a103a37b5b2b760911b6064820152608490fd5b606460405162461bcd60e51b815260206004820152602060248201527f4552433732313a206d696e7420746f20746865207a65726f20616464726573736044820152fd5b60405162461bcd60e51b8152602060048201526012602482015271496e76616c6964206269727468206461746560701b6044820152606490fd5b60405162461bcd60e51b81526020600482015260146024820152734e616d652063616e6e6f7420626520656d70747960601b6044820152606490fd5b60405162461bcd60e51b8152602060048201526014602482015273125b9cdd59999a58da595b9d081c185e5b595b9d60621b6044820152606490fd5b3461018b576101c9611f87366122c9565b91611f956107b8843361285d565b612925565b3461018b57604036600319011261018b57611fb361229d565b602435906001600160a01b038080611fca85612720565b169216918083146120c5578033149081156120a0575b501561203557600083815260696020526040902080546001600160a01b0319168317905561200d83612720565b167f8c5be1e5ebec7d5bd14f71427d1e84f3dd0314c0f7b2291e5b200ac8c7c3b925600080a4005b60405162461bcd60e51b815260206004820152603d60248201527f4552433732313a20617070726f76652063616c6c6572206973206e6f7420746f60448201527f6b656e206f776e6572206f7220617070726f76656420666f7220616c6c0000006064820152608490fd5b9050600052606a60205260406000203360005260205260ff6040600020541684611fe0565b60405162461bcd60e51b815260206004820152602160248201527f4552433732313a20617070726f76616c20746f2063757272656e74206f776e656044820152603960f91b6064820152608490fd5b3461018b57602036600319011261018b576020610c95600435612746565b3461018b57600036600319011261018b57604051600060655461215481612401565b80845290600190818116908115610aea575060011461217d576102e784610a7b81860382612350565b6065600090815292507f8ff97419363ffd7000167f130ef7168fbea05faf9251824ca5043f113cc6a7c75b8284106121c0575050508101602001610a7b82610a6b565b805460208587018101919091529093019281016121a8565b3461018b57602036600319011261018b576004359063ffffffff60e01b821680920361018b57602091632483248360e11b811490811561221a575b5015158152f35b6380ac58cd60e01b81149150811561224c575b811561223b575b5083612213565b6301ffc9a760e01b14905083612234565b635b5e139f60e01b8114915061222d565b919082519283825260005b848110612289575050826000602080949584010152601f8019910116010190565b602081830181015184830182015201612268565b600435906001600160a01b038216820361018b57565b602435906001600160a01b038216820361018b57565b606090600319011261018b576001600160a01b0390600435828116810361018b5791602435908116810361018b579060443590565b61010081019081106001600160401b038211176105bb57604052565b602081019081106001600160401b038211176105bb57604052565b606081019081106001600160401b038211176105bb57604052565b90601f801991011681019081106001600160401b038211176105bb57604052565b6001600160401b0381116105bb57601f01601f191660200190565b81601f8201121561018b578035906123a382612371565b926123b16040519485612350565b8284526020838301011161018b57816000926020809301838601378301015290565b80548210156123eb5760005260206000200190600090565b634e487b7160e01b600052603260045260246000fd5b90600182811c92168015612431575b602083101461241b57565b634e487b7160e01b600052602260045260246000fd5b91607f1691612410565b906040519182600082549261244f84612401565b9081845260019485811690816000146124be575060011461247b575b505061247992500383612350565b565b9093915060005260209081600020936000915b8183106124a65750506124799350820101388061246b565b8554888401850152948501948794509183019161248e565b91505061247994506020925060ff191682840152151560051b820101388061246b565b60c9546001600160a01b031633036124f557565b606460405162461bcd60e51b815260206004820152602060248201527f4f776e61626c653a2063616c6c6572206973206e6f7420746865206f776e65726044820152fd5b60c980546001600160a01b039283166001600160a01b0319821681179092559091167f8be0079c531659141344cd1fd0a4f28419497f9722a3daafe3b4186f6b6457e0600080a3565b1561258957565b60405162461bcd60e51b815260206004820152602c60248201527f46756e6374696f6e206d7573742062652063616c6c6564207468726f7567682060448201526b19195b1959d85d1958d85b1b60a21b6064820152608490fd5b156125ea57565b60405162461bcd60e51b815260206004820152602c60248201527f46756e6374696f6e206d7573742062652063616c6c6564207468726f7567682060448201526b6163746976652070726f787960a01b6064820152608490fd5b803b1561267957600080516020612d2283398151915280546001600160a01b0319166001600160a01b03909216919091179055565b60405162461bcd60e51b815260206004820152602d60248201527f455243313936373a206e657720696d706c656d656e746174696f6e206973206e60448201526c1bdd08184818dbdb9d1c9858dd609a1b6064820152608490fd5b156126db57565b60405162461bcd60e51b815260206004820152601860248201527f4552433732313a20696e76616c696420746f6b656e20494400000000000000006044820152606490fd5b6000908152606760205260409020546001600160a01b03166127438115156126d4565b90565b600081815260676020526040902054612769906001600160a01b031615156126d4565b6000908152606960205260409020546001600160a01b031690565b1561278b57565b60405162461bcd60e51b815260206004820152602d60248201527f4552433732313a2063616c6c6572206973206e6f7420746f6b656e206f776e6560448201526c1c881bdc88185c1c1c9bdd9959609a1b6064820152608490fd5b60809060208152603260208201527f4552433732313a207472616e7366657220746f206e6f6e20455243373231526560408201527131b2b4bb32b91034b6b83632b6b2b73a32b960711b60608201520190565b1561284057565b60405162461bcd60e51b815280612859600482016127e6565b0390fd5b906001600160a01b03808061287184612720565b169316918383149384156128a4575b50831561288e575b50505090565b61289a91929350612746565b1614388080612888565b909350600052606a60205260406000208260005260205260ff604060002054169238612880565b156128d257565b60405162461bcd60e51b815260206004820152602560248201527f4552433732313a207472616e736665722066726f6d20696e636f72726563742060448201526437bbb732b960d91b6064820152608490fd5b9061294d9161293384612720565b6001600160a01b03939184169284929091831684146128cb565b169182156129e5578161296a9161296386612720565b16146128cb565b7fddf252ad1be2c89b69c2b068fc378daa952ba7f163c4a11628f55a4df523b3ef60008481526069602052604081206001600160601b0360a01b9081815416905583825260686020526040822060001981540190558482526040822060018154019055858252606760205284604083209182541617905580a4565b60405162461bcd60e51b8152602060048201526024808201527f4552433732313a207472616e7366657220746f20746865207a65726f206164646044820152637265737360e01b6064820152608490fd5b3d15612a61573d90612a4782612371565b91612a556040519384612350565b82523d6000602084013e565b606090565b9091600091803b15612b5857612ab16020918493604051948580948193630a85bd0160e11b9a8b8452336004850152846024850152604484015260806064840152608483019061225d565b03926001600160a01b03165af190829082612b09575b5050612afb57612ad5612a36565b80519081612af65760405162461bcd60e51b815280612859600482016127e6565b602001fd5b6001600160e01b0319161490565b909192506020813d8211612b50575b81612b2560209383612350565b81010312612b4c5751906001600160e01b031982168203612b495750903880612ac7565b80fd5b5080fd5b3d9150612b18565b50505050600190565b91926000929190813b15612bd257602091612bb79185604051958680958194630a85bd0160e11b9b8c845233600485015260018060a01b038095166024850152604484015260806064840152608483019061225d565b0393165af190829082612b09575050612afb57612ad5612a36565b5050505050600190565b91929015612c3e5750815115612bf0575090565b3b15612bf95790565b60405162461bcd60e51b815260206004820152601d60248201527f416464726573733a2063616c6c20746f206e6f6e2d636f6e74726163740000006044820152606490fd5b825190915015612c515750805190602001fd5b60405162461bcd60e51b81526020600482015290819061285990602483019061225d565b15612c7c57565b60405162461bcd60e51b815260206004820152602b60248201527f496e697469616c697a61626c653a20636f6e7472616374206973206e6f74206960448201526a6e697469616c697a696e6760a81b6064820152608490fd5b15612cdc57565b60405162461bcd60e51b815260206004820152601c60248201527f4552433732313a20746f6b656e20616c7265616479206d696e746564000000006044820152606490fdfe360894a13ba1a3210667c828492db98dca3e2076cc3735a920a3ca505d382bbca26469706673582212207c92222890e7e0292b329e4b3b0685dfad36cffe43f552301a0c2201d97aac3664736f6c63430008110033",
  "linkReferences": {},
  "deployedLinkReferences": {}
}