{
  "_format": "hh-sol-artifact-1",
  "contractName": "ReputationScorer",
  "sourceName": "contracts/ReputationScorer.sol",
  "abi": [
    {
      "inputs": [],
      "stateMutability": "nonpayable",
      "type": "constructor"
    },
    {
      "anonymous": false,
      "inputs": [
        {
          "indexed": false,
          "internalType": "address",
          "name": "previousAdmin",
          "type": "address"
        },
        {
          "indexed": false,
          "internalType": "address",
          "name": "newAdmin",
          "type": "address"
        }
      ],
      "name": "AdminChanged",
      "type": "event"
    },
    {
      "anonymous": false,
      "inputs": [
        {
          "indexed": true,
          "internalType": "address",
          "name": "beacon",
          "type": "address"
        }
      ],
      "name": "BeaconUpgraded",
      "type": "event"
    },
    {
      "anonymous": false,
      "inputs": [
        {
          "indexed": false,
          "internalType": "uint8",
          "name": "version",
          "type": "uint8"
        }
      ],
      "name": "Initialized",
      "type": "event"
    },
    {
      "anonymous": false,
      "inputs": [
        {
          "indexed": true,
          "internalType": "address",
          "name": "previousOwner",
          "type": "address"
        },
        {
          "indexed": true,
          "internalType": "address",
          "name": "newOwner",
          "type": "address"
        }
      ],
      "name": "OwnershipTransferred",
      "type": "event"
    },
    {
      "anonymous": false,
      "inputs": [
        {
          "indexed": true,
          "internalType": "uint256",
          "name": "moduleId",
          "type": "uint256"
        },
        {
          "indexed": false,
          "internalType": "address",
          "name": "contractAddress",
          "type": "address"
        },
        {
          "indexed": false,
          "internalType": "uint256",
          "name": "weight",
          "type": "uint256"
        }
      ],
      "name": "PredictionModuleAdded",
      "type": "event"
    },
    {
      "anonymous": false,
      "inputs": [
        {
          "indexed": true,
          "internalType": "address",
          "name": "astrologer",
          "type": "address"
        },
        {
          "indexed": false,
          "internalType": "uint256",
          "name": "oldAccuracy",
          "type": "uint256"
        },
        {
          "indexed": false,
          "internalType": "uint256",
          "name": "newAccuracy",
          "type": "uint256"
        },
        {
          "indexed": false,
          "internalType": "uint256",
          "name": "newMultiplier",
          "type": "uint256"
        }
      ],
      "name": "ReputationScoreUpdated",
      "type": "event"
    },
    {
      "anonymous": false,
      "inputs": [
        {
          "indexed": true,
          "internalType": "address",
          "name": "astrologer",
          "type": "address"
        },
        {
          "indexed": false,
          "internalType": "uint256",
          "name": "marketAccuracy",
          "type": "uint256"
        },
        {
          "indexed": false,
          "internalType": "uint256",
          "name": "dailyAccuracy",
          "type": "uint256"
        },
        {
          "indexed": false,
          "internalType": "uint256",
          "name": "oneToOneAccuracy",
          "type": "uint256"
        },
        {
          "indexed": false,
          "internalType": "uint256",
          "name": "weightedScore",
          "type": "uint256"
        }
      ],
      "name": "ScoreBreakdownUpdated",
      "type": "event"
    },
    {
      "anonymous": false,
      "inputs": [
        {
          "indexed": true,
          "internalType": "address",
          "name": "implementation",
          "type": "address"
        }
      ],
      "name": "Upgraded",
      "type": "event"
    },
    {
      "inputs": [
        {
          "internalType": "address",
          "name": "_contractAddress",
          "type": "address"
        },
        {
          "internalType": "uint256",
          "name": "_weight",
          "type": "uint256"
        }
      ],
      "name": "addPredictionModule",
      "outputs": [
        {
          "internalType": "uint256",
          "name": "",
          "type": "uint256"
        }
      ],
      "stateMutability": "nonpayable",
      "type": "function"
    },
    {
      "inputs": [],
      "name": "astroTokenLauncher",
      "outputs": [
        {
          "internalType": "address",
          "name": "",
          "type": "address"
        }
      ],
      "stateMutability": "view",
      "type": "function"
    },
    {
      "inputs": [],
      "name": "astrologerManager",
      "outputs": [
        {
          "internalType": "address",
          "name": "",
          "type": "address"
        }
      ],
      "stateMutability": "view",
      "type": "function"
    },
    {
      "inputs": [],
      "name": "buyTokenContract",
      "outputs": [
        {
          "internalType": "address",
          "name": "",
          "type": "address"
        }
      ],
      "stateMutability": "view",
      "type": "function"
    },
    {
      "inputs": [
        {
          "internalType": "address",
          "name": "_astrologer",
          "type": "address"
        }
      ],
      "name": "getReputationMultiplier",
      "outputs": [
        {
          "internalType": "uint256",
          "name": "",
          "type": "uint256"
        }
      ],
      "stateMutability": "view",
      "type": "function"
    },
    {
      "inputs": [],
      "name": "getReputationMultiplierRange",
      "outputs": [
        {
          "internalType": "uint256",
          "name": "max",
          "type": "uint256"
        },
        {
          "internalType": "uint256",
          "name": "min",
          "type": "uint256"
        }
      ],
      "stateMutability": "view",
      "type": "function"
    },
    {
      "inputs": [
        {
          "internalType": "address",
          "name": "_astrologer",
          "type": "address"
        }
      ],
      "name": "getReputationScore",
      "outputs": [
        {
          "components": [
            {
              "internalType": "uint256",
              "name": "id",
              "type": "uint256"
            },
            {
              "internalType": "address",
              "name": "astrologer",
              "type": "address"
            },
            {
              "internalType": "uint256",
              "name": "totalPredictions",
              "type": "uint256"
            },
            {
              "internalType": "uint256",
              "name": "accuratePredictions",
              "type": "uint256"
            },
            {
              "internalType": "uint256",
              "name": "accuracyPercentage",
              "type": "uint256"
            },
            {
              "internalType": "uint256",
              "name": "reputationMultiplier",
              "type": "uint256"
            },
            {
              "internalType": "uint256",
              "name": "marketPredictions",
              "type": "uint256"
            },
            {
              "internalType": "uint256",
              "name": "dailyPredictions",
              "type": "uint256"
            },
            {
              "internalType": "uint256",
              "name": "oneToOnePredictions",
              "type": "uint256"
            },
            {
              "internalType": "uint256",
              "name": "lastUpdated",
              "type": "uint256"
            },
            {
              "internalType": "bool",
              "name": "isActive",
              "type": "bool"
            }
          ],
          "internalType": "struct ReputationScorer.ReputationScore",
          "name": "",
          "type": "tuple"
        }
      ],
      "stateMutability": "view",
      "type": "function"
    },
    {
      "inputs": [
        {
          "internalType": "address",
          "name": "_astrologer",
          "type": "address"
        }
      ],
      "name": "getReputationTier",
      "outputs": [
        {
          "internalType": "uint256",
          "name": "",
          "type": "uint256"
        }
      ],
      "stateMutability": "view",
      "type": "function"
    },
    {
      "inputs": [
        {
          "internalType": "address",
          "name": "_astrologer",
          "type": "address"
        }
      ],
      "name": "getScoreBreakdown",
      "outputs": [
        {
          "components": [
            {
              "internalType": "uint256",
              "name": "marketAccuracy",
              "type": "uint256"
            },
            {
              "internalType": "uint256",
              "name": "dailyAccuracy",
              "type": "uint256"
            },
            {
              "internalType": "uint256",
              "name": "oneToOneAccuracy",
              "type": "uint256"
            },
            {
              "internalType": "uint256",
              "name": "weightedScore",
              "type": "uint256"
            },
            {
              "internalType": "uint256",
              "name": "reputationTier",
              "type": "uint256"
            }
          ],
          "internalType": "struct ReputationScorer.ScoreBreakdown",
          "name": "",
          "type": "tuple"
        }
      ],
      "stateMutability": "view",
      "type": "function"
    },
    {
      "inputs": [
        {
          "internalType": "uint256",
          "name": "_limit",
          "type": "uint256"
        }
      ],
      "name": "getTopAstrologers",
      "outputs": [
        {
          "internalType": "address[]",
          "name": "",
          "type": "address[]"
        }
      ],
      "stateMutability": "view",
      "type": "function"
    },
    {
      "inputs": [
        {
          "internalType": "address",
          "name": "_astrologerManager",
          "type": "address"
        },
        {
          "internalType": "address",
          "name": "_buyTokenContract",
          "type": "address"
        },
        {
          "internalType": "address",
          "name": "_zodiacDAO",
          "type": "address"
        },
        {
          "internalType": "uint256",
          "name": "_minPredictionsForScore",
          "type": "uint256"
        },
        {
          "internalType": "uint256",
          "name": "_scoreUpdateDelay",
          "type": "uint256"
        }
      ],
      "name": "initialize",
      "outputs": [],
      "stateMutability": "nonpayable",
      "type": "function"
    },
    {
      "inputs": [],
      "name": "maxReputationMultiplier",
      "outputs": [
        {
          "internalType": "uint256",
          "name": "",
          "type": "uint256"
        }
      ],
      "stateMutability": "view",
      "type": "function"
    },
    {
      "inputs": [],
      "name": "minPredictionsForScore",
      "outputs": [
        {
          "internalType": "uint256",
          "name": "",
          "type": "uint256"
        }
      ],
      "stateMutability": "view",
      "type": "function"
    },
    {
      "inputs": [],
      "name": "minReputationMultiplier",
      "outputs": [
        {
          "internalType": "uint256",
          "name": "",
          "type": "uint256"
        }
      ],
      "stateMutability": "view",
      "type": "function"
    },
    {
      "inputs": [],
      "name": "owner",
      "outputs": [
        {
          "internalType": "address",
          "name": "",
          "type": "address"
        }
      ],
      "stateMutability": "view",
      "type": "function"
    },
    {
      "inputs": [
        {
          "internalType": "uint256",
          "name": "",
          "type": "uint256"
        }
      ],
      "name": "predictionModules",
      "outputs": [
        {
          "internalType": "address",
          "name": "contractAddress",
          "type": "address"
        },
        {
          "internalType": "bool",
          "name": "isActive",
          "type": "bool"
        },
        {
          "internalType": "uint256",
          "name": "weight",
          "type": "uint256"
        },
        {
          "internalType": "uint256",
          "name": "lastUpdate",
          "type": "uint256"
        }
      ],
      "stateMutability": "view",
      "type": "function"
    },
    {
      "inputs": [],
      "name": "proxiableUUID",
      "outputs": [
        {
          "internalType": "bytes32",
          "name": "",
          "type": "bytes32"
        }
      ],
      "stateMutability": "view",
      "type": "function"
    },
    {
      "inputs": [],
      "name": "renounceOwnership",
      "outputs": [],
      "stateMutability": "nonpayable",
      "type": "function"
    },
    {
      "inputs": [],
      "name": "reputationDecayRate",
      "outputs": [
        {
          "internalType": "uint256",
          "name": "",
          "type": "uint256"
        }
      ],
      "stateMutability": "view",
      "type": "function"
    },
    {
      "inputs": [
        {
          "internalType": "address",
          "name": "",
          "type": "address"
        }
      ],
      "name": "reputationScores",
      "outputs": [
        {
          "internalType": "uint256",
          "name": "id",
          "type": "uint256"
        },
        {
          "internalType": "address",
          "name": "astrologer",
          "type": "address"
        },
        {
          "internalType": "uint256",
          "name": "totalPredictions",
          "type": "uint256"
        },
        {
          "internalType": "uint256",
          "name": "accuratePredictions",
          "type": "uint256"
        },
        {
          "internalType": "uint256",
          "name": "accuracyPercentage",
          "type": "uint256"
        },
        {
          "internalType": "uint256",
          "name": "reputationMultiplier",
          "type": "uint256"
        },
        {
          "internalType": "uint256",
          "name": "marketPredictions",
          "type": "uint256"
        },
        {
          "internalType": "uint256",
          "name": "dailyPredictions",
          "type": "uint256"
        },
        {
          "internalType": "uint256",
          "name": "oneToOnePredictions",
          "type": "uint256"
        },
        {
          "internalType": "uint256",
          "name": "lastUpdated",
          "type": "uint256"
        },
        {
          "internalType": "bool",
          "name": "isActive",
          "type": "bool"
        }
      ],
      "stateMutability": "view",
      "type": "function"
    },
    {
      "inputs": [
        {
          "internalType": "address",
          "name": "",
          "type": "address"
        }
      ],
      "name": "scoreBreakdowns",
      "outputs": [
        {
          "internalType": "uint256",
          "name": "marketAccuracy",
          "type": "uint256"
        },
        {
          "internalType": "uint256",
          "name": "dailyAccuracy",
          "type": "uint256"
        },
        {
          "internalType": "uint256",
          "name": "oneToOneAccuracy",
          "type": "uint256"
        },
        {
          "internalType": "uint256",
          "name": "weightedScore",
          "type": "uint256"
        },
        {
          "internalType": "uint256",
          "name": "reputationTier",
          "type": "uint256"
        }
      ],
      "stateMutability": "view",
      "type": "function"
    },
    {
      "inputs": [],
      "name": "scoreUpdateDelay",
      "outputs": [
        {
          "internalType": "uint256",
          "name": "",
          "type": "uint256"
        }
      ],
      "stateMutability": "view",
      "type": "function"
    },
    {
      "inputs": [
        {
          "internalType": "address",
          "name": "_astroTokenLauncher",
          "type": "address"
        }
      ],
      "name": "setAstroTokenLauncher",
      "outputs": [],
      "stateMutability": "nonpayable",
      "type": "function"
    },
    {
      "inputs": [
        {
          "internalType": "address",
          "name": "_astrologerManager",
          "type": "address"
        }
      ],
      "name": "setAstrologerManager",
      "outputs": [],
      "stateMutability": "nonpayable",
      "type": "function"
    },
    {
      "inputs": [
        {
          "internalType": "address",
          "name": "_buyTokenContract",
          "type": "address"
        }
      ],
      "name": "setBuyTokenContract",
      "outputs": [],
      "stateMutability": "nonpayable",
      "type": "function"
    },
    {
      "inputs": [
        {
          "internalType": "uint256",
          "name": "_minPredictions",
          "type": "uint256"
        }
      ],
      "name": "setMinPredictionsForScore",
      "outputs": [],
      "stateMutability": "nonpayable",
      "type": "function"
    },
    {
      "inputs": [
        {
          "internalType": "uint256",
          "name": "_decayRate",
          "type": "uint256"
        }
      ],
      "name": "setReputationDecayRate",
      "outputs": [],
      "stateMutability": "nonpayable",
      "type": "function"
    },
    {
      "inputs": [
        {
          "internalType": "uint256",
          "name": "_maxMultiplier",
          "type": "uint256"
        },
        {
          "internalType": "uint256",
          "name": "_minMultiplier",
          "type": "uint256"
        }
      ],
      "name": "setReputationMultipliers",
      "outputs": [],
      "stateMutability": "nonpayable",
      "type": "function"
    },
    {
      "inputs": [
        {
          "internalType": "uint256",
          "name": "_delay",
          "type": "uint256"
        }
      ],
      "name": "setScoreUpdateDelay",
      "outputs": [],
      "stateMutability": "nonpayable",
      "type": "function"
    },
    {
      "inputs": [
        {
          "internalType": "address",
          "name": "_worldPredictionMarket",
          "type": "address"
        }
      ],
      "name": "setWorldPredictionMarket",
      "outputs": [],
      "stateMutability": "nonpayable",
      "type": "function"
    },
    {
      "inputs": [
        {
          "internalType": "address",
          "name": "_zodiacDAO",
          "type": "address"
        }
      ],
      "name": "setZodiacDAO",
      "outputs": [],
      "stateMutability": "nonpayable",
      "type": "function"
    },
    {
      "inputs": [
        {
          "internalType": "uint256",
          "name": "_moduleId",
          "type": "uint256"
        }
      ],
      "name": "togglePredictionModule",
      "outputs": [],
      "stateMutability": "nonpayable",
      "type": "function"
    },
    {
      "inputs": [],
      "name": "totalModules",
      "outputs": [
        {
          "internalType": "uint256",
          "name": "",
          "type": "uint256"
        }
      ],
      "stateMutability": "view",
      "type": "function"
    },
    {
      "inputs": [
        {
          "internalType": "address",
          "name": "newOwner",
          "type": "address"
        }
      ],
      "name": "transferOwnership",
      "outputs": [],
      "stateMutability": "nonpayable",
      "type": "function"
    },
    {
      "inputs": [
        {
          "internalType": "uint256",
          "name": "_moduleId",
          "type": "uint256"
        },
        {
          "internalType": "uint256",
          "name": "_newWeight",
          "type": "uint256"
        }
      ],
      "name": "updateModuleWeight",
      "outputs": [],
      "stateMutability": "nonpayable",
      "type": "function"
    },
    {
      "inputs": [
        {
          "internalType": "address",
          "name": "_astrologer",
          "type": "address"
        },
        {
          "internalType": "bool",
          "name": "_wasCorrect",
          "type": "bool"
        }
      ],
      "name": "updateReputationFromWorldPrediction",
      "outputs": [],
      "stateMutability": "nonpayable",
      "type": "function"
    },
    {
      "inputs": [
        {
          "internalType": "address",
          "name": "_astrologer",
          "type": "address"
        },
        {
          "internalType": "uint256",
          "name": "_marketPredictions",
          "type": "uint256"
        },
        {
          "internalType": "uint256",
          "name": "_marketAccurate",
          "type": "uint256"
        },
        {
          "internalType": "uint256",
          "name": "_dailyPredictions",
          "type": "uint256"
        },
        {
          "internalType": "uint256",
          "name": "_dailyAccurate",
          "type": "uint256"
        },
        {
          "internalType": "uint256",
          "name": "_oneToOnePredictions",
          "type": "uint256"
        },
        {
          "internalType": "uint256",
          "name": "_oneToOneAccurate",
          "type": "uint256"
        }
      ],
      "name": "updateReputationScore",
      "outputs": [],
      "stateMutability": "nonpayable",
      "type": "function"
    },
    {
      "inputs": [
        {
          "internalType": "address",
          "name": "newImplementation",
          "type": "address"
        }
      ],
      "name": "upgradeTo",
      "outputs": [],
      "stateMutability": "nonpayable",
      "type": "function"
    },
    {
      "inputs": [
        {
          "internalType": "address",
          "name": "newImplementation",
          "type": "address"
        },
        {
          "internalType": "bytes",
          "name": "data",
          "type": "bytes"
        }
      ],
      "name": "upgradeToAndCall",
      "outputs": [],
      "stateMutability": "payable",
      "type": "function"
    },
    {
      "inputs": [],
      "name": "worldPredictionMarket",
      "outputs": [
        {
          "internalType": "address",
          "name": "",
          "type": "address"
        }
      ],
      "stateMutability": "view",
      "type": "function"
    },
    {
      "inputs": [],
      "name": "zodiacDAO",
      "outputs": [
        {
          "internalType": "address",
          "name": "",
          "type": "address"
        }
      ],
      "stateMutability": "view",
      "type": "function"
    }
  ],
  "bytecode": "0x60a080604052346100dc57306080526000549060ff8260081c1661008a575060ff8082160361004f575b60405161266e90816100e282396080518181816114430152818161177d0152611ae70152f35b60ff90811916176000557f7f26b83ff96e1f2b6a682f133852f6798a09c465da95921460cefb3847402498602060405160ff8152a138610029565b62461bcd60e51b815260206004820152602760248201527f496e697469616c697a61626c653a20636f6e747261637420697320696e697469604482015266616c697a696e6760c81b6064820152608490fd5b600080fdfe608080604052600436101561001357600080fd5b600090813560e01c90816302bc7f4a14611e2657508063106bdcf514611de657806310d4f37414611d8e57806316d54f0914611d655780632c27750a14611cb05780633659cfe614611ac25780633d9617be14611a9d578063430cd57a14611a7f57806344cda48514611a3f578063450f144214611a215780634cba103e146119fe5780634f1ef2861461170257806351131876146115845780635245420d146114f457806352d1902d1461143057806358bd9b931461130f5780635df4d161146112f157806365af67bd146112b15780636be2cefb146112745780636fd31a411461124b578063715018a6146111ee57806375a67d5c1461107557806378bbd70114611057578063893849de14610fef5780638da5cb5b14610fc6578063960e6f8814610fa85780639754cfd114610f555780639f68871d14610f325780639f7c468814610bff578063a6b63eb814610a3a578063ab3dcd6a14610a11578063ab76c9ed146109e8578063adcbcde51461048c578063b107e88c1461044f578063c3a274c21461040f578063dc0a40bd146103a9578063e2c3538c14610369578063e6f9558314610346578063f2fde38b146102b5578063f92eadf6146102975763fe0438b2146101e457600080fd5b3461029457602036600319011261029457610160906001600160a01b03906040908261020e611e4b565b16815260ca6020522080549160018201541690600281015460038201546004830154600584015460068501549160078601549360088701549560ff600a60098a015499015416986040519a8b5260208b015260408a01526060890152608088015260a087015260c086015260e08501526101008401526101208301521515610140820152f35b80fd5b5034610294578060031936011261029457602060d454604051908152f35b5034610294576020366003190112610294576102cf611e4b565b6102d7611f34565b6001600160a01b038116156102f2576102ef90611f8c565b80f35b60405162461bcd60e51b815260206004820152602660248201527f4f776e61626c653a206e6577206f776e657220697320746865207a65726f206160448201526564647265737360d01b6064820152608490fd5b503461029457602036600319011261029457610360611f34565b60043560d45580f35b503461029457602036600319011261029457610383611e4b565b61038b611f34565b60018060a01b03166001600160601b0360a01b60d054161760d05580f35b50346102945760203660031901126102945760a0906040906001600160a01b036103d1611e4b565b16815260cb60205220805490600181015490600281015460046003830154920154926040519485526020850152604084015260608301526080820152f35b503461029457602036600319011261029457610429611e4b565b610431611f34565b60018060a01b03166001600160601b0360a01b60ce54161760ce5580f35b5034610294576020366003190112610294576020906005906040906001600160a01b0361047a611e4b565b16815260ca8452200154604051908152f35b50346102945760e0366003190112610294576104a6611e4b565b602435604435916084359260018060a01b0360335416331480156109d4575b6104ce906122ce565b6104e26001600160a01b0383161515612309565b60018060a01b038216855260ca602052604085209260cb60205260408620948160068601556064359283600787015560a435600887015561052e60a43561052986866124b4565b6124b4565b600287015582156109cc57606481029080820460641490151715610940578261055691612355565b905b81875583156109c557606481029080820460641490151715610940578361057e91612355565b6001870181905560a435156109be5760c43580606481020460641481151715610987576105b190606460a4359102612355565b905b600288019482865589938a9561099b575b50610954575b5060a4356108fb575b5080156108f3576105e391612355565b6003850190808255600a6105fd60048701928084556124c1565b956005810196875561060f8454612507565b600489015542600982015501805460ff1916600117905560cd5487906001600160a01b03168061081d575b5060d0546001600160a01b0316806106eb575b50505493546040805186815260208101969096528501527fad4434fdebadb9d3b07e14eaea89a4f564780aca2d11dbf1d7fcd70d921a5d64936080939291906001600160a01b038416907f518d384ec8d284e293cfe22999e2961fcb70fae686352f14179033225f2ac24490606090a260018654960154915490549160405196875260208701526040860152606085015260018060a01b031692a280f35b60405163248bb6cd60e21b81526001600160a01b0387166004820152908290829060249082905afa8291816107f9575b501561064d5760408101516001600160a01b031690811515806107e3575b806107d5575b61074a575b5061064d565b6060015187546001600160a01b039091169190823b156107d15760405163f6322a5f60e01b81526001600160a01b0392909216600483015260248201529082908290604490829084905af180156107c6576107a6575b80610744565b6107b4909594939295611eb0565b6107c25790919286386107a0565b8680fd5b6040513d84823e3d90fd5b8380fd5b50610100810151151561073f565b5060608101516001600160a01b03161515610739565b6108169192503d8085833e61080e8183611ee0565b8101906123ce565b903861071b565b60405163656d0c3960e01b81526001600160a01b0387166004820152602081602481855afa9081156108e85783916108ae575b508061085d575b5061063a565b8754823b156107d15760448492836040519586948593630675f76360e01b8552600485015260248401525af180156107c65761089a575b80610857565b6108a390611eb0565b6107c2578638610894565b9250506020823d6020116108e0575b816108ca60209383611ee0565b810103126108db5788915138610850565b600080fd5b3d91506108bd565b6040513d85823e3d90fd5b5050846105e3565b90918160021b9180830460041490151715610940579061091a916124b4565b906004810180911161092c57386105d3565b634e487b7160e01b87526011600452602487fd5b634e487b7160e01b88526011600452602488fd5b9091928160011b91808304600214901517156109875790610974916124b4565b91600281018091116109405790386105ca565b634e487b7160e01b89526011600452602489fd5b8092955060039194500290808204600314901517156109875792600392386105c4565b87906105b3565b508661057e565b508690610558565b506104ce6109e13361256d565b90506104c5565b503461029457806003193601126102945760cf546040516001600160a01b039091168152602090f35b503461029457806003193601126102945760d0546040516001600160a01b039091168152602090f35b50346102945760a036600319011261029457610a54611e4b565b6001600160a01b039060243582811691908290036108db576044358381168091036108db5784549260ff8460081c161593848095610bf2575b8015610bdb575b15610b7f5760ff198116600117875584610b6e575b50610ac360ff875460081c16610abe816121fd565b6121fd565b610acc33611f8c565b855494610ade60ff8760081c166121fd565b6001600160601b0360a01b93168360cd54161760cd558260ce54161760ce558160cf54161760cf558060d0541660d05560d1541660d15560643560d35560843560d455600560d55561138860d65560c860d755610b39575080f35b61ff00191681557f7f26b83ff96e1f2b6a682f133852f6798a09c465da95921460cefb3847402498602060405160018152a180f35b61ffff191661010117865538610aa9565b60405162461bcd60e51b815260206004820152602e60248201527f496e697469616c697a61626c653a20636f6e747261637420697320616c72656160448201526d191e481a5b9a5d1a585b1a5e995960921b6064820152608490fd5b50303b158015610a945750600160ff821614610a94565b50600160ff821610610a8d565b503461029457604036600319011261029457610c19611e4b565b602435908115158203610eb85760d1546001600160a01b03918291821633148015610f25575b610c48906122ce565b1691610c55831515612309565b82845260ca602052604084209060068201610c7081546122a9565b90556002820190610c8182546122a9565b809255610f10575b6003820154606481029080820460641490151715610efc578591610cac91612355565b92610cbd60048401948086556124c1565b600a600585019482865542600982015501600160ff198254161790558160cd54169081610e21575b50508060d0541680610d34575b5050915490546040805183815260208101939093528201527f518d384ec8d284e293cfe22999e2961fcb70fae686352f14179033225f2ac2449150606090a280f35b90826024926040519384809263248bb6cd60e21b82528a60048301525afa839281610e05575b5015610cf257806040830151169182151580610df6575b80610de8575b610d82575b50610cf2565b6060015116908354823b156107d15760405163f6322a5f60e01b81526001600160a01b0392909216600483015260248201529082908290604490829084905af180156107c657610dd4575b8080610d7c565b610ddd90611eb0565b6107d1578338610dcd565b506101008101511515610d77565b50816060820151161515610d71565b610e1a9193503d8086833e61080e8183611ee0565b9138610d5a565b60405163656d0c3960e01b815260048101889052602081602481865afa908115610ef1578591610ebc575b5080610e59575b50610ce5565b829394923b15610eb857604490836040519586948593630675f76360e01b8552600485015260248401525af18015610ead57610e9a575b9081808793610e53565b610ea690959195611eb0565b9338610e90565b6040513d88823e3d90fd5b8280fd5b90506020813d8211610ee9575b81610ed660209383611ee0565b81010312610ee5575138610e4c565b8480fd5b3d9150610ec9565b6040513d87823e3d90fd5b634e487b7160e01b86526011600452602486fd5b60038201610f1e81546122a9565b9055610c89565b5060335482163314610c3f565b503461029457602036600319011261029457610f4c611f34565b60043560d35580f35b503461029457610f6436611f1e565b90610f6d611f34565b80151580610f9c575b610f7f906125d8565b610f8a82151561225d565b825260cc602052600160408320015580f35b5060d254811115610f76565b5034610294578060031936011261029457602060d554604051908152f35b50346102945780600319360112610294576033546040516001600160a01b039091168152602090f35b50346102945760203660031901126102945760043561100c611f34565b8015158061104b575b61101e906125d8565b815260cc60205260408120805460ff60a01b19811660a091821c60ff161590911b60ff60a01b1617905580f35b5060d254811115611015565b5034610294578060031936011261029457602060d254604051908152f35b503461029457602036600319011261029457604061016091611095611e4b565b8161014084516110a481611e93565b82815282602082015282868201528260608201528260808201528260a08201528260c08201528260e08201528261010082015282610120820152015260018060a01b0316815260ca602052206101406040516110ff81611e93565b60ff600a84549485845260018060a01b036001820154166020850152600281015460408501526003810154606085015260048101546080850152600581015460a0850152600681015460c0850152600781015460e08501526008810154610100850152600981015461012085015201541615158282015260405192835260018060a01b03602082015116602084015260408101516040840152606081015160608401526080810151608084015260a081015160a084015260c081015160c084015260e081015160e084015261010081015161010084015261012081015161012084015201511515610140820152f35b5034610294578060031936011261029457611207611f34565b603380546001600160a01b0319811690915581906001600160a01b03167f8be0079c531659141344cd1fd0a4f28419497f9722a3daafe3b4186f6b6457e08280a380f35b503461029457806003193601126102945760cd546040516001600160a01b039091168152602090f35b5034610294576020366003190112610294576020906004906040906001600160a01b0361129f611e4b565b16815260cb8452200154604051908152f35b5034610294576020366003190112610294576112cb611e4b565b6112d3611f34565b60018060a01b03166001600160601b0360a01b60cf54161760cf5580f35b5034610294578060031936011261029457602060d754604051908152f35b50346102945761131e36611f1e565b90611327611f34565b818111156113eb576064821061139a5761271081116113495760d65560d75580f35b60405162461bcd60e51b8152602060048201526024808201527f4d6178206d756c7469706c696572206d757374206265206174206d6f737420316044820152630605c60f60e31b6064820152608490fd5b60405162461bcd60e51b8152602060048201526024808201527f4d696e206d756c7469706c696572206d757374206265206174206c65617374206044820152630605c62f60e31b6064820152608490fd5b60405162461bcd60e51b815260206004820152601c60248201527f4d6178206d7573742062652067726561746572207468616e206d696e000000006044820152606490fd5b50346102945780600319360112610294577f00000000000000000000000000000000000000000000000000000000000000006001600160a01b031630036114895760206040516000805160206126198339815191528152f35b60405162461bcd60e51b815260206004820152603860248201527f555550535570677261646561626c653a206d757374206e6f742062652063616c60448201527f6c6564207468726f7567682064656c656761746563616c6c00000000000000006064820152608490fd5b503461029457602080600319360112611580576004359161152d61151784612555565b936115256040519586611ee0565b808552612555565b8383019190601f190136833760405193838594850191818652518092526040850193925b82811061156057505050500390f35b83516001600160a01b031685528695509381019392810192600101611551565b5080fd5b50346102945760403660031901126102945761159e611e4b565b6024356115a9611f34565b6001600160a01b039180831680156116bd576115c683151561225d565b6115d160d2546122a9565b938460d255604051916080830183811067ffffffffffffffff8211176116a9576020977faf31016049a06640f36fa55e20d2a8c9809bbdadf9fd3327a7763e5aa652346e959388979593600293604052845261167c8a8501600181526040860192888452604060608801954287528c815260cc8f52209651166001600160601b0360a01b875416178655511515859081549060ff60a01b90151560a01b169060ff60a01b1916179055565b51600184015551910155604080516001600160a01b039290921682526020820192909252a2604051908152f35b634e487b7160e01b88526041600452602488fd5b60405162461bcd60e51b815260206004820152601860248201527f496e76616c696420636f6e7472616374206164647265737300000000000000006044820152606490fd5b50604036600319011261029457611717611e4b565b6024359067ffffffffffffffff8211610eb85736602383011215610eb857816004013561174381611f02565b6117506040519182611ee0565b81815284602094858301933660248284010111610eb8578060248893018637830101526001600160a01b037f00000000000000000000000000000000000000000000000000000000000000008116906117ab30831415611fd5565b6117c8600080516020612619833981519152928284541614612036565b6117d0611f34565b7f4910fdfa16fed3260ed0e7147f7cc6da11a60208b5b9406d12a635614ffd91435460ff161561180857505050506102ef9150612097565b8492939416906040516352d1902d60e01b81528681600481865afa8891816119cb575b5061188c5760405162461bcd60e51b815260048101889052602e60248201527f45524331393637557067726164653a206e657720696d706c656d656e7461746960448201526d6f6e206973206e6f74205555505360901b6064820152608490fd5b95939495036119745761189e82612097565b7fbc7cd75a20ee27fd9adebab32041f755214dbc6bffa90cc0225b39da2e5c2d3b8680a28483511580159061196c575b6118db575b505050505080f35b8061195895604051956118ed87611ec4565b602787527f416464726573733a206c6f772d6c6576656c2064656c65676174652063616c6c86880152660819985a5b195960ca1b60408801525190845af4903d15611963573d61193c81611f02565b9061194a6040519283611ee0565b81528681943d92013e612127565b5038808080846118d3565b60609250612127565b5060016118ce565b60405162461bcd60e51b815260048101849052602960248201527f45524331393637557067726164653a20756e737570706f727465642070726f786044820152681a58589b195555525160ba1b6064820152608490fd5b9091508781813d83116119f7575b6119e38183611ee0565b810103126119f35751903861182b565b8880fd5b503d6119d9565b503461029457602036600319011261029457611a18611f34565b60043560d55580f35b5034610294578060031936011261029457602060d354604051908152f35b503461029457602036600319011261029457611a59611e4b565b611a61611f34565b60018060a01b03166001600160601b0360a01b60cd54161760cd5580f35b5034610294578060031936011261029457602060d654604051908152f35b5034610294578060031936011261029457604060d65460d75482519182526020820152f35b50346102945760208060031936011261158057611add611e4b565b6001600160a01b037f00000000000000000000000000000000000000000000000000000000000000008116611b1430821415611fd5565b611b31600080516020612619833981519152918383541614612036565b611b39611f34565b604051908482019282841067ffffffffffffffff851117611c9c578360405286835260ff7f4910fdfa16fed3260ed0e7147f7cc6da11a60208b5b9406d12a635614ffd91435416600014611b9557505050506102ef9150612097565b8492939416906040516352d1902d60e01b81528681600481865afa889181611c6d575b50611c195760405162461bcd60e51b815260048101889052602e60248201527f45524331393637557067726164653a206e657720696d706c656d656e7461746960448201526d6f6e206973206e6f74205555505360901b6064820152608490fd5b959394950361197457611c2b82612097565b7fbc7cd75a20ee27fd9adebab32041f755214dbc6bffa90cc0225b39da2e5c2d3b8680a284835115801590611c66576118db57505050505080f35b50806118ce565b9091508781813d8311611c95575b611c858183611ee0565b810103126119f357519038611bb8565b503d611c7b565b634e487b7160e01b87526041600452602487fd5b503461029457602036600319011261029457604060a091611ccf611e4b565b8160808451611cdd81611e61565b82815282602082015282868201528260608201520152600180851b0316815260cb60205220604051611d0e81611e61565b81549182825260018101546020830190815260028201549060408401918252608060046003850154946060870195865201549401938452604051948552516020850152516040840152516060830152516080820152f35b503461029457806003193601126102945760ce546040516001600160a01b039091168152602090f35b5034610294576020366003190112610294576040608091600435815260cc60205220805490600260018201549101549060ff6040519360018060a01b038116855260a01c161515602084015260408301526060820152f35b503461029457602036600319011261029457611e00611e4b565b611e08611f34565b60018060a01b03166001600160601b0360a01b60d154161760d15580f35b90503461158057816003193601126115805760d1546001600160a01b03168152602090f35b600435906001600160a01b03821682036108db57565b60a0810190811067ffffffffffffffff821117611e7d57604052565b634e487b7160e01b600052604160045260246000fd5b610160810190811067ffffffffffffffff821117611e7d57604052565b67ffffffffffffffff8111611e7d57604052565b6060810190811067ffffffffffffffff821117611e7d57604052565b90601f8019910116810190811067ffffffffffffffff821117611e7d57604052565b67ffffffffffffffff8111611e7d57601f01601f191660200190565b60409060031901126108db576004359060243590565b6033546001600160a01b03163303611f4857565b606460405162461bcd60e51b815260206004820152602060248201527f4f776e61626c653a2063616c6c6572206973206e6f7420746865206f776e65726044820152fd5b603380546001600160a01b039283166001600160a01b0319821681179092559091167f8be0079c531659141344cd1fd0a4f28419497f9722a3daafe3b4186f6b6457e0600080a3565b15611fdc57565b60405162461bcd60e51b815260206004820152602c60248201527f46756e6374696f6e206d7573742062652063616c6c6564207468726f7567682060448201526b19195b1959d85d1958d85b1b60a21b6064820152608490fd5b1561203d57565b60405162461bcd60e51b815260206004820152602c60248201527f46756e6374696f6e206d7573742062652063616c6c6564207468726f7567682060448201526b6163746976652070726f787960a01b6064820152608490fd5b803b156120cc5760008051602061261983398151915280546001600160a01b0319166001600160a01b03909216919091179055565b60405162461bcd60e51b815260206004820152602d60248201527f455243313936373a206e657720696d706c656d656e746174696f6e206973206e60448201526c1bdd08184818dbdb9d1c9858dd609a1b6064820152608490fd5b91929015612189575081511561213b575090565b3b156121445790565b60405162461bcd60e51b815260206004820152601d60248201527f416464726573733a2063616c6c20746f206e6f6e2d636f6e74726163740000006044820152606490fd5b82519091501561219c5750805190602001fd5b6044604051809262461bcd60e51b8252602060048301526121cc81518092816024860152602086860191016121da565b601f01601f19168101030190fd5b60005b8381106121ed5750506000910152565b81810151838201526020016121dd565b1561220457565b60405162461bcd60e51b815260206004820152602b60248201527f496e697469616c697a61626c653a20636f6e7472616374206973206e6f74206960448201526a6e697469616c697a696e6760a81b6064820152608490fd5b1561226457565b60405162461bcd60e51b815260206004820152601d60248201527f576569676874206d7573742062652067726561746572207468616e20300000006044820152606490fd5b60001981146122b85760010190565b634e487b7160e01b600052601160045260246000fd5b156122d557565b60405162461bcd60e51b815260206004820152600c60248201526b155b985d5d1a1bdc9a5e995960a21b6044820152606490fd5b1561231057565b60405162461bcd60e51b815260206004820152601a60248201527f496e76616c696420617374726f6c6f67657220616464726573730000000000006044820152606490fd5b811561235f570490565b634e487b7160e01b600052601260045260246000fd5b51906001600160a01b03821682036108db57565b81601f820112156108db57805161239f81611f02565b926123ad6040519485611ee0565b818452602082840101116108db576123cb91602080850191016121da565b90565b6020818303126108db57805167ffffffffffffffff918282116108db5701906101409283838203126108db5760405193840184811083821117611e7d576040528251845261241e60208401612375565b602085015261242f60408401612375565b604085015261244060608401612375565b606085015260808301518281116108db578161245d918501612389565b608085015260a08301519182116108db57612479918301612389565b60a083015260c081015160c083015260e081015160e0830152610100808201519081151582036108db57830152610120809101519082015290565b919082018092116122b857565b60648110156125005780156124f95760d65460d754908181039081116122b857808302928304036122b85760646123cb9204906124b4565b5060d75490565b5060d65490565b605f81101561254f57605a81101561254957605581101561254357605081101561253d57604b111561253857600090565b600190565b50600290565b50600390565b50600490565b50600590565b67ffffffffffffffff8111611e7d5760051b60200190565b6001809160d254925b838111156125875750505050600090565b600081815260cc6020526040808220546001600160a01b0385811691161491826125c7575b50506125c0576125bb906122a9565b612576565b5050905090565b60ff9250205460a01c1638806125ac565b156125df57565b60405162461bcd60e51b8152602060048201526011602482015270125b9d985b1a59081b5bd91d5b19481251607a1b6044820152606490fdfe360894a13ba1a3210667c828492db98dca3e2076cc3735a920a3ca505d382bbca264697066735822122043bed1963b0c510484afd30c03b2c3daf447d08be926fd799d0044a76171486c64736f6c63430008110033",
  "linkReferences": {},
  "deployedLinkReferences": {}
}